S00D000050697065312E7372656358
S11300000C940D090C942E090C942E090C942E09B1
S11300100C942E090C942E090C942E090C942E0980
S11300200C942E090C942E090C942E090C942E0970
S11300300C942E090C942E090C942E090C942E0960
S11300400C942E090C942E090C942E090C942E0950
S11300500C942E090C942D0F0C942E090C942E093B
S11300600C942E090C94FC350C9442360C942E09F5
S11300700C942E090C942E090C942E090C942E0920
S11300800C942E090C942E090C942E090C942E0910
S11300900C943D340C947B340C942E090C942E094E
S11300A00C942E090C942E090C942E090C942E09F0
S11300B00C942E090C942E090C942E090C942E09E0
S11300C00C942E090C942E090C942E090C942E09D0
S11300D00C942E090C942E090C9402370C945A3764
S11300E00C942E095F1E6A1E761E921EAF1ED01E31
S11300F0DB1EE61EFB1E111F191F271FFB1E541FAC
S1130100641F881FDA1FF31F0820212029204E2096
S11301104E20672074206320CF20D7202221842101
S1130120AE21DA21092211221722CF201F223322E5
S1130130172271227E228A229F22B822DB22E62203
S1130140EC22F122042325233823F1227239873942
S11301507539663978397B3969397E396C39813931
S11301606F3984394C6F673A20000000496E697416
S113017069616C69736174696F6E000001004545C3
S11301803A4D6F64756C65000000000000000101C9
S113019045453A4D6964692D496E00000000000030
S11301A0010245453A4D6964692D4F75740000009C
S11301B00000010345453A4D616E2D4D6F64756C29
S11301C065000000010445453A5553420000000013
S11301D0000000000000010545453A526567697357
S11301E07465720000000000010645453A50726FC4
S11301F06772616D730000000000010745453A53C2
S11302006F66746B65797300000000000108454552
S11302103A4D696469546872750000000000020078
S11302204D6F643A4661696C0000000000000000F4
S113023002014D6F643A556E6B6E6F77496E7000B4
S1130240000003004F56464C3A4D696469496E00FC
S11302500000000003014F56464C3A4D6964694F53
S113026075740000000004004F56464C3A50697003
S1130270654D73670000000005005077723A4F75B2
S1130280707475744F6E0000000054EF6E65206149
S113029075730054617374656E2F5265672E206CFC
S11302A0EF73656E004D4944492D496E746572665D
S11302B0616365006E6F6E65004D6964692D5468F5
S11302C072753A20004D6964692D4F75743A004D7A
S11302D06964692D496E3A00646972656374204DDE
S11302E04944492D4F757428696E742920666F72CC
S11302F0206D616E75616C3A20002C204269747324
S11303003A004D6F64756C653A00656D70747900E0
S113031052656769737465723A0D0A0052616E67BB
S11303206520004D616E75616C3A20004D6F6475F7
S11303306C657320636865636B65643A20004D6F78
S113034064756C65732061737369676E65643A20C4
S113035000486172647761726520436F6E666967F5
S113036075726174696F6E0D0A000D0A4D49444936
S11303702D4F7267616E2D496E7465726661636597
S11303800D0A004C6F670D0A00656D7074790D0AD3
S113039000736176652E2E2E003C6E6F6E653E00F6
S11303A0756E61737369676E656400453A006F6BBF
S11303B0200061626F7274004D494449204E6F748D
S11303C0656E20617573002B00205265672E67658A
S11303D07365747A7400205265672E696E204B6FC2
S11303E06D622E676573702E004F75743A00496E06
S11303F03A004D656EF500000000000000000000AA
S113040000000000000200010000000000000103E1
S113041000000000000000020002000000000000D4
S113042003010304000000000003000102000000B7
S113043000000100000000000000000100000000B6
S1130440000000000100000000000000000800019E
S11304500203040506070800010203040506070257
S11304600001000000000000020001000000000084
S11304700008000102030405060700000000000054
S113048000000081103C6E6F6E653E0000000000AD
S1130490000D070000000001104D656E750000009E
S11304A000000017070307000000000110537469DF
S11304B06D6D656E000000530CF90600000000012C
S11304C0104B6F7070656C323C33000000DB06BE6D
S11304D01D000001104B6F7070656C313C330000DF
S11304E000D106C11D000001104B6F7070656C5087
S11304F03C33000000C706C41D000001104B6F70A0
S113050070656C313C32000000BD06C71D0000015F
S1130510104B6F7070656C503C32000000B306CA1B
S11305201D000001104B6F7070656C503C31000071
S113053000A906CD1D000001104B6F7070656C336F
S11305403C320000009F06D01D000001104B6F706C
S113055070656C333C310000009506D31D0000012A
S1130560104B6F7070656C333C500000008B06D6E6
S11305701D000001104B6F7070656C323C3100003F
S1130580008106D91D000001104B6F7070656C323C
S11305903C500000007706DC1D000001104B6F701A
S11305A070656C313C500000006D06DF1D000001D9
S11305B0104B6F6D62696E203141000000630625A7
S11305C02A000001104B6F6D62696E2032410000F9
S11305D0005906282A000001104B6F6D62696E20D5
S11305E033410000004F062B2A000001104B6F6DB1
S11305F062696E20344100000045062E2A00000185
S1130600105265672E61757300000000003B06FC04
S113061018000001104D494449204F66660000004F
S113062000E5062E280000C11053657475700000A3
S1130630000000430DEF060000000052656709004A
S113064000000000004B6234418000000000004BB9
S11306506233418000000000004B623241800000A0
S11306600000004B623141800000000000313C502A
S113067080000000000000323C50800000000000B8
S113068000323C3180000000000000333C50800008
S11306900000000000333C31800000000000003303
S11306A03C3280000000000000503C31800000001B
S11306B0000000503C3280000000000000313C3259
S11306C080000000000000503C3380000000000067
S11306D000313C3380000000000000323C338000D5
S11306E000000000004D4F6666000000000000534B
S11306F06574750000000000005374696D0000000B
S11307000000004D656E7500000000000000000050
S11307100000000000000081004D616E75616C00F6
S11307200000008F07000000000000010052656710
S113073069737465720000B70700007A1D00000138
S1130740004D4944490000000000008309000000F6
S1130750000000010054617374656E000000000322
S11307600C000000001F19010053746174757300BC
S11307700000002B11000000000000C1005365744C
S113078075700000000000430D00000000000081AF
S1130790004B6F7070656C0000000093080000004F
S11307A0000000C1005374696D6D656E0000005354
S11307B00C0000000000008C004B6F6D622E6C6119
S11307C0642E000000A8050000871D0C004B6F6D0F
S11307D0622E73702E00000000A805000014190199
S11307E0006175730000000000000000000000813B
S11307F01D00000E005265672E312D3800000000E8
S1130800006D050000D4180E005265672E392D3195
S113081036000000006E050000D4180E0052656713
S11308202E31372D32340000006F050000D4180E2D
S1130830005265672E32352D3332000000700500FA
S113084000D4180E005265672E33332D3430000067
S11308500071050000D4180E005265672E34312D46
S1130860343800000072050000D4180E0052656789
S11308702E34392D353400000073050000D418CA15
S1130880005265672E35352D36340000007405009E
S113089000D4188900323C3300000000000000003E
S11308A0000F08000001190900313C33000000006A
S11308B000000000001008000001190900313C325A
S11308C000000000000000000011080000011909E8
S11308D000503C330000000000000000001208003B
S11308E00001190900503C32000000000000000023
S11308F0001308000001190900503C3100000000F9
S113090000000000001408000001190900333C3203
S11309100000000000000000001508000001190993
S113092000333C3100000000000000000016080005
S11309300001190900333C500000000000000000D1
S1130940001708000001190900323C3100000000C2
S113095000000000001808000001190900323C5092
S1130960000000000000000000190800000119C97F
S113097000313C500000000000000000001A080094
S113098000011981004E6F7465734F6666000000A4
S11309900000002E28000001004D494449696E0002
S11309A0000000230A000000008D1A01004D494494
S11309B0496F7574000000A30C00000000891A033D
S11309C010546872752D496E000000000024080060
S11309D000D0180310546872752D4F757400000010
S11309E00025080000D01809004163636570742075
S11309F0504300000030090000851A090041637467
S1130A002E53656E73650000002E090000851AC917
S1130A100056656C5A344F6666000000002F0900CA
S1130A2000851A810043682E310000000000006335
S1130A300B00004A180000010043682E3200000039
S1130A40000000630B01004A180000010043682EF7
S1130A5033000000000000630B02004A180000018C
S1130A600043682E34000000000000630B03004ABA
S1130A70180000010043682E3500000000000063E8
S1130A800B04004A180000010043682E36000000E1
S1130A90000000630B05004A180000010043682EA3
S1130AA037000000000000630B06004A1800000134
S1130AB00043682E38000000000000630B07004A62
S1130AC0180000010043682E390000000000006394
S1130AD00B08004A180000010043682E3130000062
S1130AE0000000630B09004A180000010043682E4F
S1130AF031310000000000630B0A004A18000001B5
S1130B000043682E31320000000000630B0B004AE2
S1130B10180000010043682E313300000000006318
S1130B200B0C004A180000010043682E3134000009
S1130B30000000630B0D004A180000010043682EFA
S1130B4031350000000000630B0E004A180000C19C
S1130B500043682E31360000000000630B0F004A8A
S1130B601800008100536563742E3100000000B347
S1130B700B0000551800000100536563742E320009
S1130B80000000B30B010055180000010053656319
S1130B90742E3300000000B30B020055180000C18E
S1130BA000536563742E3400000000B30B0300553A
S1130BB018000087904D616E75616C0000000000A4
S1130BC00026080000000004904D69644E6F7465AF
S1130BD00000000000270800000000068052616E3B
S1130BE0676500000000000000280800000000C441
S1130BF0904D616E4E6F746500000000002908007E
S1130C0000000081085461737465310000000083A2
S1130C10040000B918B82A010854617374653200DD
S1130C2000000083040100B918B82A010854617354
S1130C307465330000000083040200B918B82AC1A7
S1130C40085461737465340000000083040300B920
S1130C5018B82A81204D616E2E3300000000000078
S1130C600000006919000001204D616E2E32000061
S1130C70000000000001006919000001204D616EB0
S1130C802E3100000000000000020069190000C1BC
S1130C9020506564616C00000000000000030069DE
S1130CA019000083104949490000000000000000B9
S1130CB0002609000000000310494900000000005C
S1130CC00000000000280900000000031049000093
S1130CD00000000000000000002A090000000003DA
S1130CE0105000000000000000000000002C09006B
S1130CF0000000031049494928696E742900000066
S1130D00002709000000000310494928696E74296E
S1130D1000000000002909000000000310492869B0
S1130D206E74290000000000002B0900000000C3BD
S1130D30105028696E74290000000000002D09007D
S1130D4000000081004D6F64756C65000000000BAD
S1130D500E00000000000001005553420000000096
S1130D600000007B110000000000000100506F77BC
S1130D7065720000000000CF0D000000000000C1FB
S1130D8000454570726F6D00000000930D00000077
S1130D9000000081004545536176650000000000B5
S1130DA000000041290000010045454261636B7564
S1130DB07000000000000029290000C100454552D0
S1130DC06573746F726500000000003529000081AE
S1130DD000506F7765724F6E000000000000007CC9
S1130DE02B00000100506F7765724F6666000000AB
S1130DF0000000852B0000C100502E526573746101
S1130E00727400000000008D2B00008A004D6F6496
S1130E10526561640000000000550300009B1A0A3B
S1130E20004D6F645772697465000000005603003A
S1130E30009B1A0A084D6F644F4B0000000000002D
S1130E400048020000000001004D6F645465737493
S1130E500000006F0E000000000000C1004D6F6430
S1130E6041737369676E005F0F00000000911A817F
S1130E70004D6F642E3000000000000F0F00003F93
S1130E8018000001004D6F642E3100000000000FB7
S1130E900F01003F18000001004D6F642E32000066
S1130EA00000000F0F02003F18000001004D6F64A6
S1130EB02E3300000000000F0F03003F1800000154
S1130EC0004D6F642E3400000000000F0F04003F3B
S1130ED018000001004D6F642E3500000000000F63
S1130EE00F05003F18000001004D6F642E3600000E
S1130EF00000000F0F06003F180000C1004D6F6492
S1130F002E3700000000000F0F07003F180000817B
S1130F10005265616400000000000000000000232E
S1130F201900000B0057726974650000000000008E
S1130F3000AD05D61712180100546573745074720D
S1130F406E0000000000000C290000C1004C6F6F0F
S1130F5070547374000000000000005719000081F1
S1130F60004D616E2E33000000000063100000731A
S1130F7018000001004D616E2E3200000000006375
S1130F801001007318000001004D616E2E31000045
S1130F900000006310020073180000010050656433
S1130FA0616C00000000006310030073180000C1AE
S1130FB00052656769737465720000C30F04000012
S1130FC00000008100536563742E3100000000B3FB
S1130FD0100000A31800000100536563742E320052
S1130FE0000000B3100100A3180000010053656362
S1130FF0742E3300000000B3100200A31800000197
S113100000536563742E3400000000B3100300A382
S11310101800000100536563742E3500000000B30E
S1131020100400A31800000100536563742E3600F9
S1131030000000B3100500A318000001005365630D
S1131040742E3700000000B3100600A3180000C17E
S113105000536563742E3800000000B3100700A32A
S11310601800008100536563742E3100000000EF06
S11310701000007E1800000100536563742E3200D6
S1131080000000EF1001007E1800000100536563AA
S1131090742E3300000000EF1002007E180000C11F
S11310A000536563742E3400000000EF1003007ECB
S11310B01800008D805265674265670000000000DB
S11310C000F607000000000D80526567456E64005D
S11310D00000000000F70700000000C5804D6F64A9
S11310E0756C652F4269740000F8070000000084E5
S11310F0904E6F746542656700000000003209007D
S113110000000004904E6F7465456E64000000009A
S113111000330900000000C5804D6F64756C652FB5
S1131120426974000034090000000081204C6F679C
S11311300000000000000000000000352400000151
S113114000555342000000000000007B1100000025
S113115000000002404D4944492D496E0000000042
S1131160000000B9230000C2404D4944492D4F7589
S113117074000000000000F7230000890045766534
S11311806E744C6F67000000004E160000C51A0113
S11311900053656E644C6F67000000000000009F00
S11311A01A0000C100536E6448574366670000008C
S11311B0000000D91A000056302E36390001000212
S11311C00002010300030103020001000201020006
S11311D00301030203310030005465787480004534
S11311E0786974007E617573007E65696E00456977
S11311F06E80002D002B007F007E00090008000097
S1131200000E0E0E0E000004040404150E04000467
S11312100E1504040404000D0A0011241FBECFEFB0
S1131220D1E2DEBFCDBF00E00CBF12E0A0E0B2E02F
S1131230E8E1F6E700E00BBF02C007900D92A8308A
S1131240B107D9F729E1A8E0B2E001C01D92AD31A0
S1131250B207E1F70E94E1140C940A3B0C940000DD
S1131260FC018FEF9FEF1CC0DF01119620818227C4
S1131270282F22952827022E269526952025022EF2
S1131280269520252770082E892F269507942795C3
S1131290902D82270694279590258227BA01FD0177
S11312A0AB0141505109672BF9F60895EF92FF9273
S11312B00F931F93CF93DF93CFEFDFEF21C07C0118
S11312C02FEFE21AF20A0E94D83A9E012827822FB1
S11312D082958227082E869586958025082E8695E8
S11312E080258770022E232F869507948795302DAD
S11312F028270694879530252827E901B801C701D6
S11313008B0101501109672BD1F6CE01DF91CF91EA
S11313101F910F91FF90EF900895FC01CA011CC02A
S1131320DF01119620818227282F22952827022E5B
S1131330269526952025022E269520252770082EF1
S1131340892F269507942795902D82270694279513
S113135090258227BA01FD01AB0141505109672B49
S1131360F9F60895EF92FF920F931F93CF93DF93B3
S1131370EA0121C07C012FEFE21AF20A0E94D83A56
S1131380AE014827842F82958427082E869586955A
S11313908025082E869580258770042E452F8695F6
S11313A007948795502D48270694879550254827FC
S11313B0EA01B801C7018B0101501109672BD1F66D
S11313C0CE01DF91CF911F910F91FF90EF9008957F
S11313D0CF93DF9382E390E00E94E03AEC0160E374
S11313E070E082E090E062DFC817D90781F481E001
S11313F090E00E94D83A8D3451F440E350E062E02A
S113140070E082E399E00E94C83A80E006C08091CF
S113141008028160809308028FEFDF91CF910895D5
S1131420CF93DF9385E391E00E94E03AEC0160E022
S113143071E085E390E03ADFC817D90781F484E3CB
S113144090E00E94D83A893451F440E051E065E3D9
S113145070E086E298E00E94C83A80E006C080917D
S113146008028260809308028FEFDF91CF91089584
S1131470CF93DF9383E491E00E94E03AEC016BE0C8
S113148070E088E391E012DFC817D907C1F487E35D
S113149091E00E94D83A8F3491F448E050E068E338
S11314A071E086E299E00E94C83A43E050E060E4CB
S11314B071E08EE299E00E94C83A80E006C0809113
S11314C008028460809308028FEFDF91CF91089522
S11314D0CF93DF9388E491E00E94E03AEC0161E06D
S11314E070E086E491E0E2DEC817D907A1F485E450
S11314F091E00E94D83A893671F486E491E00E9422
S1131500D83AC5E5D3E0888387E491E00E94D83ACD
S1131510898380E006C08091080288608093080275
S11315208FEFDF91CF910895CF93DF9387EF93E00F
S11315300E94E03AEC0162E070E085EF93E0B6DEF1
S1131540C817D90781F484EF93E00E94D83A843510
S113155051F442E050E065EF73E084E298E00E94C9
S1131560C83A80E006C08091080282608093080235
S11315708FEFDF91CF910895CF93DF938CE491E0C7
S11315800E94E03AEC0161E070E08BE491E08EDED1
S1131590C817D90771F48AE491E00E94D83A8535D6
S11315A041F48BE491E00E94D83A80934E1680E097
S11315B006C0809108028860809308028FEFDF9153
S11315C0CF910895CF93DF9361E070E08FE491E0D1
S11315D06DDEAC0168E170E080E591E0C3DEEC0112
S11315E088E691E00E94E03AC817D907B1F48EE486
S11315F091E00E94D83A823581F48FE491E00E9410
S1131600D83A80930E0848E150E060E571E086EF37
S113161097E00E94C83A80E006C080910802806288
S1131620809308028FEFDF91CF910895CF93DF93DA
S11316308BEE93E00E94E03AEC0160E872E08BE606
S113164091E034DEC817D90781F48AE691E00E945C
S1131650D83A803551F440E852E06BE671E082E616
S113166099E00E94C83A80E006C080910802806434
S1131670809308028FEFDF91CF910895CF93DF938A
S113168082EF93E00E94E03AEC0164E070E08EEEB9
S113169093E00CDEC817D90751F444E050E06EEE35
S11316A073E083EB95E00E94C83A80E006C0809125
S11316B008028068809308028FEFDF91CF9108952C
S11316C060E080E090E00E94F43A65E689EF93E000
S11316D00C94F43A0895CF93DF9360E370E082E3CF
S11316E099E0BEDDEC010E94F2396DE481E090E006
S11316F00E94F43A40E350E062E070E082E399E053
S11317000E94E53ABE0182E390E00E94063BD8DFE6
S11317100E94003ADF91CF910895CF93DF9360E068
S113172071E086E298E09CDDEC010E94F23969E404
S113173084E390E00E94F43A40E051E065E370E015
S113174086E298E00E94E53ABE0185E391E00E94BA
S1131750063BB6DF0E94003ADF91CF910895CF9304
S1131760DF9368E070E086E299E07ADDAC0163E043
S113177070E08EE299E0D1DDEC010E94F2396FE471
S113178087E391E00E94F43A48E050E068E371E0B6
S113179086E299E00E94E53A43E050E060E471E0BB
S11317A08EE299E00E94E53ABE0183E491E00E9452
S11317B0063B86DF0E94003ADF91CF9108950F9394
S11317C01F93CF93DF9361E070E085E593E048DDFC
S11317D08C010E94F23969E685E491E00E94F43AB2
S11317E0C5E5D3E0688186E491E00E94F43A69811A
S11317F087E491E00E94F43AB80188E491E00E9401
S1131800063B5EDF0E94003ADF91CF911F910F915A
S11318100895CF93DF9361E070E08EE496E120DDDC
S1131820EC010E94F23965E58AE491E00E94F43A01
S113183060914E168BE491E00E94F43ABE018CE470
S113184091E00E94063B3CDF0E94003ADF91CF9179
S11318500895CF93DF9362E070E084E298E000DDC6
S1131860EC010E94F23964E584EF93E00E94F43ABB
S113187042E050E065EF73E084E298E00E94E53ACC
S1131880BE0187EF93E00E94063B1ADF0E94003AF4
S1131890DF91CF910895CF93DF9361E070E08EE004
S11318A098E0DEDCAC0168E170E086EF97E035DDBE
S11318B0EC010E94F23962E58EE491E00E94F43A70
S11318C060910E088FE491E00E94F43A48E150E000
S11318D060E571E086EF97E00E94E53ABE0188E694
S11318E091E00E94063BECDE0E94003ADF91CF912A
S11318F00895CF93DF9360E872E082E699E0B0DC6C
S1131900EC010E94F23960E58AE691E00E94F43A23
S113191040E852E06BE671E082E699E00E94E53A25
S1131920BE018BEE93E00E94063BCADE0E94003AA1
S1131930DF91CF910895CF93DF9364E070E083EB60
S113194095E08EDCEC010E94F2396BE48DEE93E0BD
S11319500E94F43A44E050E06EEE73E083EB95E0CD
S11319600E94E53ABE0182EF93E00E94063BA8DEA6
S11319700E94003ADF91CF910895ADDECEDEEFDE16
S11319801EDF47DF88DFB5DFD6DF63CF0895CF9250
S1131990DF92EF92FF920F931F93CF93DF93EB01AC
S11319A011C07C012FEFE21AF20A0E94D83A6E01AC
S11319B09FEFC91AD90A682FCE010E94F43AA801F0
S11319C0E601C7018A0101501109452B51F7DF9146
S11319D0CF911F910F91FF90EF90DF90CF900895DA
S11319E00E94F23940E058E060E078E080E090E066
S11319F0CEDF0C94003A08950E94F23940E058E09A
S1131A0060E070E080E098E0C2DF0C94003A089552
S1131A1080E00AC0E82FF0E0EE0FFF1FE15DFD4F0C
S1131A209FEF908311828F5F8930A0F3E1E4F2E0AD
S1131A3010821182128213828FEF809357030895CC
S1131A4082E084BD93E095BD80936E0089EF87BDED
S1131A5085B18F7785B984B1806884B9089587E8A2
S1131A6080937A0010927B008FE780937C0081E062
S1131A7080937E0010927F00E9E4F3E010828FEF00
S1131A80818382838093090280E010C0853039F419
S1131A90E82FF0E0E15BFC4F96E0908306C0E82F6E
S1131AA0F0E0E15BFC4F9AE090838F5F863070F347
S1131AB008958FEF88B987B982B911B884B3876064
S1131AC084BB83B3876083BB8BB18F778BB98AB1B7
S1131AD080688AB980E00EC0E82FF0E0EE0FFF1FA7
S1131AE0EE0FFF1FEE0FFF1FE75BFD4F9FEF91838C
S1131AF090838F5F803280F31092460210924502E9
S1131B000895E6DC8F3F51F440E050E060E081E06E
S1131B1042D7E5E5F3E08FEF808381838BB18F7744
S1131B208BB984B3876084BB84B38B7F84BB85E02B
S1131B308A95F1F7000084B3846084BB90E284B397
S1131B40816084BB90FD02C085E501C08AEA88B942
S1131B5080B1809348038093470380934603809326
S1131B604503809344038093430384B38E7F84BBF3
S1131B7085E08A95F1F70000915009F790E20FC0D3
S1131B8084B3816084BB82E08A95F1F700C084B39A
S1131B908E7F84BB82E08A95F1F700C09150911149
S1131BA0EFCF8FEF8093480290E284B3816084BBCF
S1131BB08FEF88B920B190FD02C08AEA01C085E5A3
S1131BC082272091480282238093480284B38E7F27
S1131BD084BB85E08A95F1F70000915031F700004D
S1131BE0000084B3816084BB84B3876084BB84B306
S1131BF08B7F84BB82E08A95F1F700C084B3846054
S1131C0084BB90E2E1E4F3E0838182838481838373
S1131C1084B3816084BB8FEF818388B98581848399
S1131C208681858380B1868382838383848385834D
S1131C30878384B38E7F84BB3897915029F7000043
S1131C40000084B3816084BB84B38D7F84BB18B8E7
S1131C5085E08A95F1F7000084B3826084BB08951F
S1131C60883008F06AC031E001C0330F8A95EAF782
S1131C7080E8809346028BB18F778BB984B38760F9
S1131C8084BB40E01DC020FD03C0832F809501C0AC
S1131C908FEF88B9269582E08A95F1F700C084B366
S1131CA08E7F84BB82E08A95F1F700C084B38160A3
S1131CB084BB9F5F02C090E025EA983020F34F5F19
S1131CC04430C8F390E00FC082E08A95F1F700C079
S1131CD084B38E7F84BB82E08A95F1F700C084B31D
S1131CE0816084BB9F5F903278F390E040E050E0E5
S1131CF0BA0117C0440F551F661F771F82E08A95EB
S1131D00F1F700C084B38E7F84BB80B1832309F0D4
S1131D10416082E08A95F1F700C084B3816084BB9E
S1131D209F5F903238F3109246028BB180688BB972
S1131D30342F252F862F972F04C030E020E080E039
S1131D4090E0632F722F089590E0E9E4F2E080E0E0
S1131D5006C02FEF21832681822B38969F5F903215
S1131D60C0F39091550389239091480289230895E3
S1131D70109246028091460281FFFCCF10924602E7
S1131D808091460281FFFCCF089581E08093450253
S1131D909FB7F89406C0EFE2F2E088E282831382F0
S1131DA080E08111F8CF9FBF089580914502813072
S1131DB031F5CADF811114C085B1806485B982E12F
S1131DC0809345029FB7F89481E006C0EFE2F2E009
S1131DD081E08283138280E08111F8CF9FBF089550
S1131DE09FB7F89481E007C0EFE2F2E08CE08283D1
S1131DF082E0838380E08111F7CF9FBF0895823111
S1131E00B1F4A2DF811104C084E1809345020BC0C8
S1131E10482F50E060E085E0BED585B18F7B85B961
S1131E2080E8809345028FEF8093310208958FEF0D
S1131E3080933102089590E00DC0943050F4E92F5E
S1131E40F0E0811102C02AE001C026E0E15BFC4F12
S1131E5020839F5F963088F308951F920F920FB6E8
S1131E600F9211240BB60F92EF92FF920F931F93D0
S1131E702F933F934F935F936F937F938F939F938E
S1131E80AF93BF93CF93DF93EF93FF9385B18068B4
S1131E9085B9809147028F5F8093470283708130B8
S1131EA009F458C138F0823009F4A5C1833009F42B
S1131EB0CAC105C28091090281111AC190917A00A8
S1131EC096FD16C1282F30E0F901EE0FFF1FE20F37
S1131ED0F31FEE0FFF1FE75BFC4F918140917900E8
S1131EE04183491710F4941B03C0542F591B952F99
S1131EF0943008F0FDC081110EC0423270F04F33AF
S1131F0070F0483670F0463970F04F3B70F0483E40
S1131F1070F4C6E00DC0CFEF0BC0C4E009C0C3E04D
S1131F2007C0C5E005C0C1E003C0C2E001C0CFEFF7
S1131F30F901EE0FFF1FE20FF31FEE0FFF1FE75B28
S1131F40FC4FD281DC1709F448C0DF3F19F0CF3FC2
S1131F5009F0CFEFF901EE0FFF1FE20FF31FEE0FB1
S1131F60FF1FE75BFC4FC283DF3FF9F4C901880F11
S1131F70991FFC01E20FF31FEE0FFF1FE75BFC4FFD
S1131F8015821482FC01E20FF31FEE0FFF1FE75BC3
S1131F90FC4F1382EC2FF0E0E25BFC4F808180FF6A
S1131FA0A7C08C2F0E94A92BA3C0ED2FF0E0E25B09
S1131FB0FC4F808181FF9CC0F901EE0FFF1FE20FEF
S1131FC0F31FEE0FFF1FE75BFC4F8381837009F063
S1131FD08FC08D2F0E94A92B8BC0CF3F09F488C0DE
S1131FE0F901EE0FFF1FDF01A20FB31FAA0FBB1FE2
S1131FF0A75BBC4F14968D919C91159701961596ED
S11320009C938E931497FD01848195818B34910563
S1132010A9F4ED2FF0E0E25BFC4F808182FF0EC05B
S11320208C2F80680E94A92BE091090286E0E89F2A
S1132030F0011124E75BFC4F82E08383ED2FF0E095
S1132040E25BFC4F808183FF53C08091090290E0E2
S1132050FC01EE0FFF1FE80FF91FEE0FFF1FE75BF8
S1132060FC4F238121111EC0FC01EE0FFF1FE80F5E
S1132070F91FEE0FFF1FE75BFC4F248135812233EC
S11320803105B1F526E0289FF001299FF00D1124B8
S1132090E75BFC4F81E08383158214828C2F0E94BE
S11320A0A92B26C0FC01EE0FFF1FE80FF91FEE0F4E
S11320B0FF1FE75BFC4F23812130D1F426E0289FEA
S11320C0F001299FF00D1124E75BFC4F2481358139
S11320D02C30310569F426E0289FF001299FF00D8A
S11320E01124E75BFC4F158214828C2F0E94A92BCC
S11320F0809109028F5F80930902843010F010925E
S113210009028091090281110CC090E0FC01EE0FDC
S1132110FF1FE80FF91FEE0FFF1FE75BFC4F8081E5
S113212001C08FE1982F9F71906690937C00EBE73C
S1132130F0E02081807290E095958795959587953C
S1132140922F9F7D892B8083EAE7F0E08081806471
S11321508083B5C080914602803809F4B0C084B34E
S1132160876084BB84B38B7F84BB20915603209506
S1132170E2E0EA95F1F700C084B3846084BB90E2A6
S1132180E1E4F3E0838182838481838384B3816087
S113219084BB8181822B88B98581848386818583F0
S11321A080B1868384B38E7F84BB3897915051F776
S11321B00000000084B3816084BB84B38D7F84BB42
S11321C08091460282608093460218B88BB1806881
S11321D08BB984B3826084BB72C0808181508E3F8E
S11321E038F421812F5F253010F0808320E0218393
S11321F032969F5F03C090E0EFE2F2E0993068F31B
S1132200E1E4F2E080818F5F80838A3F09F057C068
S11322108FEF80935703108281818F5F81838C338A
S113222008F44DC0118282818F5F82838C3308F45D
S113223046C0128283818F5F8383843608F43FC053
S1132240109244023CC0809146028038C1F1E09073
S1132250550380914802E822F12C09E412E02CC0D5
S1132260F801C28183819C2F9823C82B84819823F1
S1132270C82B25819223C22B86819823C82BD78112
S1132280CD23C92BC7838D2F80958C238E2121F0DC
S11322909F2D90620E94E92BC095CD238C2F8E2117
S11322A019F09F2D0E94E92B085F1F4F8091460271
S11322B0816080934602F394FFE1FF1588F685B1AF
S11322C08F7785B9FF91EF91DF91CF91BF91AF9156
S11322D09F918F917F916F915F914F913F912F913A
S11322E01F910F91FF90EF900F900BBE0F900FBEB8
S11322F00F901F901895E82FF0E0EE0FFF1FEE0FE0
S1132300FF1FEE0FFF1FE75BFD4F60958181682380
S113231061830895E82FF0E0EE0FFF1FEE0FFF1F1B
S1132320EE0FFF1FE75BFD4F8181682B61830895EA
S11323308FEF82B985B988B98BB98EB981BB84BB5B
S113234080930201809305018093080180930B011F
S11323508AB180688AB98BB18F778BB984B1806474
S113236084B985B18F7B85B984B1806384B90895BC
S1132370882334F4E2E0F1E090819061908305C019
S1132380E2E0F1E090819F7E908386FF06C0E2E068
S1132390F1E090819860908305C0E2E0F1E09081E3
S11323A0977F908385FF04C09EB198609EB903C057
S11323B09EB1977F9EB984FF04C084B3806284BBBE
S11323C003C084B38F7D84BBE2E0F1E0808180644C
S11323D0808385E08A95F1F7000080818F7B80837C
S11323E085E08A95F1F700000895CF93DF93D82F05
S11323F0C5B1C07385B18F7C806185B9E2E0F1E03D
S113240080818062808380818F7B80838D2FB0DF89
S11324108D2F8295807FACDF8FEF90E00197F1F7ED
S113242000C0000085B18073C82BC5B9DF91CF917E
S11324300895CF93DF93D82FC5B1C07385B18F7C36
S1132440806185B9E2E0F1E080818F7D80838081C5
S11324508F7B80838D2F8CDF8D2F8295807F88DF0B
S1132460D150D23038F48FE097E20197F1F700C0F1
S1132470000006C08FEF90E00197F1F700C0000064
S113248085B18073C82BC5B9DF91CF910895CF93DF
S1132490C5B1C07385B18F7C806185B9E1E0F1E09D
S11324A08081806180838081886080838DB1886031
S11324B08DB983B3806283BB808180648083808193
S11324C0806280832FEF81EE94E021508040904021
S11324D0E1F700C00000E2E0F1E080818F7D8083BD
S11324E080818F7B808380E343DF8FE19EE40197CB
S11324F0F1F700C0000080E33BDF8FE19EE4019729
S1132500F1F700C0000080E333DF8FE19EE4019720
S1132510F1F700C0000088E22BDF8FEF90E0019715
S1132520F1F700C0000088E284DF88E082DF81E008
S113253080DF86E07EDF8CE07CDF85B18073C82B92
S1132540C5B9CF9108958093A803805872CF089598
S11325501092A80381E06DDF80E0E8E5F3E004C0B9
S113256090E290838F5F31968035D0F30895843163
S113257098F090EC980F943110F48C5208959CEEDE
S1132580980F943110F48C5E08959CEA980F94315E
S113259010F4885108958FEF0895CF93DF93D82FC7
S11325A0C091A8038C2FE3DF8F3F31F1D13A81F042
S11325B0D03881F0D53A81F0DA3081F0D23E81F022
S11325C0D53F81F0DF3E81F0D13E81F09D2F0FC0D9
S11325D090E20DC090E20BC094E109C095E107C000
S11325E093E105C092E103C091E101C090E1E82FBD
S11325F0F0E0E85AFC4F9083CF5FCF77C093A803F5
S11326008D2FF3DEDF91CF910895CF93DF93FC01FB
S1132610892B19F407C0C1DFFE01EF0121968081E7
S11326208111F9CFDF91CF910895CF93DF93FC010E
S1132630892B19F407C0B1DFFE01EF0121968491C3
S11326408111F9CFDF91CF91089582ED93E09093BA
S113265065058093640590936305809362050895EE
S11326608091620590916305209164053091650520
S11326708217930748F0821B930B959587959DECE1
S1132680899F802D1124089580579E4F821B930BA0
S1132690959587959DEC899F802D11240895CF935E
S11326A0C82FDEDFC817F8F4409164055091650522
S11326B08C2F90E09C01220F331F880F991F880FE5
S11326C0991F880F991F280F391FCA01820F931F62
S11326D065E08835960749F040F020593140CA0139
S11326E0820F931F02C080E090E0CF910895D7DF5E
S11326F00097F1F1FC013681678120E034C0422F5C
S113270050E0FA01EE0FFF1FCF01880F991F880FC9
S1132710991F880F991FE80FF91FE659FE4F8491FE
S1132720381320C0FA01EE0FFF1FCF01880F991F45
S1132730880F991F880F991FE80FF91FE559FE4F5D
S1132740849168130FC0440F551FCA01880F991F45
S1132750880F991F880F991F480F591FCA01845960
S11327609E4F08952F5F203150F280E090E008954D
S113277080E090E00895CF9373DF1092A903811154
S113278014C017C08C2F8BDF009761F0FC012481EB
S1132790203251F095818C2F953439F48FEF80934A
S11327A0A90307C08C2F01C08C2FCFEFC80F811154
S11327B0E9CFCF9108951F93CF93DF93009709F446
S11327C07BC0162FEC018B81882379F06AEA73E0D1
S11327D00E942038BC016F5F7F4F28E6FC012083F4
S11327E08A810E942038DC012FC08A81882379F0F5
S11327F06AEA73E00E942038BC016F5F7F4F2DE6C8
S1132800FC01208389810E942038DC011DC06AEA12
S113281073E089810E942038FC0183E780839881DA
S1132820990F20E002C099512F5F9931E0F7205DA4
S11328302183990F20E002C095502F5F9530E0F777
S1132840DF011396205D22839C81903451F09038EF
S113285019F0903281F40AC0FD0131968AE28C931A
S11328600EC0FD01319685EA8C9309C0FD013196B5
S113287080E28C9304C0FD0131968FE38C93BF01F9
S11328806F5F7F4F8D8180838E810E946338BC018E
S11328908F810E946338BC016F5F7F4F2DE2FC0182
S11328A02083888599850E949E38FC0110821F3FF1
S11328B041F01C8360DF05C0EAEAF3E08DE2808327
S11328C011828AEA93E0DF91CF911F910895E091FC
S11328D06205F0916305A1E4B2E09C919083E091DC
S11328E06205F091630511969C9111979183E09193
S11328F06205F091630512969C9112979283139648
S11329009C9193832583868367835187408780E8DE
S1132910848380914E168F3F81F484E691E00E9477
S113292092356FEF809162059091630544DF0E94B8
S1132930E63587E192E10E9492358091620590919B
S113294063050A96909363058093620588559540C4
S113295039F030F082ED93E0909363058093620543
S1132960209162053091630580916405909165051D
S11329702817390779F40A969093650580936405BE
S11329808855954039F030F082ED93E090936505D9
S113299080936405089525E49ADF8FEF8093A9035B
S11329A00895CF93C62F7BDE009719F06C2F03DFB9
S11329B006C0EAEAF3E08DE280831182CF01CF9171
S11329C00895B6DC85B18F7C85B93FDE0E94A835B9
S11329D00E94A22B35D81CD842D86BD80E941B3435
S11329E090D80E94462F0E94862F0E94342C0E9469
S11329F0A82C0E9417300E94432A0E94BD0C1092FA
S1132A00C20545DD0E94BD37A3DD83E49CDD85EA74
S1132A1092E00BDE8BE197DD87EB91E106DE7894A3
S1132A202FEF47E98AE3215040408040E1F700C09E
S1132A3000000E947B368CDDA8D98FEF8093F307CA
S1132A40809367058EEF80936605DFEF85B18F7CF9
S1132A5085B92091FC133091FD138091F713909167
S1132A60F8132817390709F466C00E94E536C82F01
S1132A70809366050E94B3348FE78C0F863028F468
S1132A8080E88C0F0E94A92B56C0C03909F053C0AE
S1132A908091EF13803909F04EC091E0E92F092E9F
S1132AA0000CFF0BE151FC4E80818D3319F09F5FC8
S1132AB09830A4F398300CF03EC0892F859520E01F
S1132AC006C0E22FF0E0E95BF94E10822F5F23305D
S1132AD0C0F32CC0E92F092E000CFF0BE151FC4E72
S1132AE0308120ED230F2A3010F027ED230FA22F81
S1132AF0AF70E7E4F6E1628120E1629FB001112446
S1132B004181242F22952F70622B628320E1429F02
S1132B10A00111242081322F32953F70432B418331
S1132B2040E1249F900111242A2B208391501916EF
S1132B308CF20E94DC320E94D62B882309F446C012
S1132B4085B1806385B90E94BD2BC82F863861F496
S1132B500E94E5330E94B5310E94A92E0E942A2CBE
S1132B608AE892E00E946B29809167058F3FF9F40F
S1132B708C2F8F73C53069F460E070E080E090E0E2
S1132B800E94E21D0E94A7251092670580E053D998
S1132B901DC09FEF980F9430C8F40E94072B6C2F30
S1132BA00E941C2B809367050E94C82A0FC0809145
S1132BB0C205811106C08C2F0E94AE258093670543
S1132BC005C08DEF8093A6050E9436288091670585
S1132BD08F3F51F4DF3F49F40E94F5240E94C82A34
S1132BE08FEF29D9D0E001C0DFEF85B18F7C85B9A3
S1132BF080913D02811109C0C091A8030E945A2905
S1132C008C2FA1DC8FEF80933D0280913B028111D8
S1132C100AC08091C205882319F00E94362803C097
S1132C208FEF80933B028091310281111AC0BDD88D
S1132C300E94682B809167058F3F99F4C091A80387
S1132C4084E181DC80914502813021F483E992E0C2
S1132C50ECDC05C0823119F484E10E94C2398C2F66
S1132C6072DC809166059FE7980F963010F08E3FD6
S1132C7009F58091D7188F3F31F48091A80377DC50
S1132C800E94AF3603C08FE70E94AF3681E80E94EE
S1132C90AF36C0E0E8E5F3E008C08F010F5F1F4FD7
S1132CA080810E94AF36CF5FF801C035B0F380E871
S1132CB00E94AF368FEF809366050E94FF330E9417
S1132CC0BF31C091A803809137028F3F21F08091DA
S1132CD03702811162C0809103028F3F91F180E03D
S1132CE032DC809101028F3F69F4809102020E94DC
S1132CF09F398FE352DC809103020E944E3980E2B7
S1132D004CDC0CC0809103020E944E398EE745DCF6
S1132D10809101020E94B03980E23FDC8C2F13DCE9
S1132D208FEF809303029FB7F89481E006C0EFE22F
S1132D30F2E083E28087118680E08111F8CF9FBFA3
S1132D402CC0809100028F3FD9F080E0FCDB80E74B
S1132D5024DC809100020E9406388EE71EDC8FEF8F
S1132D60809300029FB7F89481E006C0EFE2F2E09E
S1132D7083E28087118680E08111F8CF9FBF0DC068
S1132D8080913702811109C0DEDB86E00E94C239DE
S1132D908C2FD9DB8FEF80933702809139028F3FDC
S1132DA021F08091390281115BC0809105028F3F2F
S1132DB0F9F08FE0C8DB809104020E94B0398EE7FD
S1132DC0ECDB809105020E944E398C2FBCDB8FEF27
S1132DD0809305029FB7F89481E006C0EFE2F2E029
S1132DE088E28287138680E08111F8CF9FBF38C0C4
S1132DF0809131098F3F31F18FE0A5DB82E5CDDB96
S1132E00809131098F770E94063880913109882397
S1132E1014F088E001C089E0C0DB80E2BEDB8C2FC7
S1132E2092DB8FEF809331099FB7F89481E006C05D
S1132E30EFE2F2E088E28287138680E08111F8CF26
S1132E409FBF0EC08091390281110AC08FE07BDBE5
S1132E5085E00E94C2398C2F76DB8FEF8093390294
S1132E60809157038F3F09F07EC010925703F09072
S1132E70A803C091D718CF3F11F40E94EC39809178
S1132E804402882359F08091420280FD0EC00F2E27
S1132E90FAE3EF2EF02D04E412E00CC00F2EFAE357
S1132EA0EF2EF02D03E412E005C06894EE24E5F85B
S1132EB004E412E087E047DBF80180810E940638D1
S1132EC08E2D6BDBF801319780810E94063840918A
S1132ED04B16442331F050E060E083E05CDD109257
S1132EE04B1640915216442331F050E061E083E0E8
S1132EF052DD109252168091450284FF02C080E296
S1132F0001C089E04ADB8091A9038F3F11F485E475
S1132F1001C080E242DB8F2D16DBCF3F11F40E940B
S1132F20E539809137028F3F69F49FB7F89481E0C7
S1132F3006C0EFE2F2E08DE78087118680E0811120
S1132F40F8CF9FBF809139028F3F69F49FB7F894FF
S1132F5081E006C0EFE2F2E08DE78287138680E02D
S1132F608111F8CF9FBF8091F4078F3F39F41092FD
S1132F70F40740E050E060E084E00DDD85B18F7C33
S1132F80806285B99091411680914F16981721F06F
S1132F900E94FC340E9448320E94202C8F3F09F08A
S1132FA055CD0E940B2C0E940D3350CD1092AD05CF
S1132FB01092AE051092AF051092B00581E090E03A
S1132FC00090780502C0880F991F0A94E2F7482FF1
S1132FD030E0E1E4F3E022C08091AD059091AE05CC
S1132FE0A091AF05B091B005880F991FAA1FBB1F10
S1132FF08093AD059093AE05A093AF05B093B00553
S11330002181242349F081608093AD059093AE051E
S1133010A093AF05B093B00538973F5F3032E0F22C
S113302080E008954091AD055091AE056091AF05E3
S11330307091B005853009F5A1E0B0E00090780505
S113304002C0AA0FBB1F0A94E2F73A2F90E0E1E412
S1133050F3E011C0772324F48181832B818305C09D
S113306021818A2F809582238183440F551F661FF7
S1133070771F38979F5F903268F380E00895E0915E
S1133080A905F091AA053E968591959180937805BE
S113309080E00895E091A905F091AA053E968591F6
S11330A095918093A70580E00895E091A905F0919A
S11330B0AA053E96259135912093B7058091A705E1
S11330C08F7090E02370880F991F880F991F820FCB
S11330D0911D880F991F880F991F9093B2058093B3
S11330E0B10580E00895E091A905F091AA053E9606
S11330F0859195918093770580E00895E091A905E5
S1133100F091AA053E96859195918093B7052091FB
S113311077052F7030E0837090E0A901440F551FAC
S1133120240F351F220F331F220F331FAC01440F0E
S1133130551F840F951F820F931F9093B2058093A0
S1133140B10580E00895E091A905F091AA053E96A5
S1133150859195918093B705877090E09C01220F2B
S1133160331F820F931F9093B2058093B10580E0C3
S11331700895E091A905F091AA053E96859195914F
S1133180843060F4FC01FF27EE0FFF1FE654FA4F72
S1133190808191819093CE058093CD0580E0089540
S11331A00E94290C80E008951F93CF93DF9386300B
S11331B0F1F0E091A905F091AA053E960590F491ED
S11331C0E02DCF018D569540880F880F880FD08150
S11331D0C0E00BC011E0180F6D2F661F6627661F35
S11331E00E94F52DDD0FCF5F812FC83098F380E06A
S11331F0DF91CF911F91089581110E94A92E80E043
S11332000895E091A905F091AA053E9685919591BE
S11332108F509840FC01FF27E15FF74F2081211177
S11332200E94362C80E00895863039F08091A805FC
S1133230803418F46FEF0E94B62E80E008950E9447
S11332409B0C80E00895CF92DF92EF92FF9281E091
S113325090E00090780502C0880F991F0A94E2F765
S1133260282F90E0E1E4F3E0C12CD12C76010BC0CF
S1133270CC0CDD1CEE1CFF1C8681822311F06894AB
S1133280C0F838979F5F903298F38EE15CD9C09272
S1133290D918D092DA18E092DB18F092DC180E9468
S11332A0E13780E0FF90EF90DF90CF9008958EE1BA
S11332B04AD9809178050E94300E6093D918709392
S11332C0DA188093DB189093DC180E94E13780E0D1
S11332D00895CF938F3F09F077C080930E02109228
S11332E00D02E091A905F091AA053E96859195916C
S11332F080937705843010F01092770520E039C070
S11333008091770590E0E22FF0E0DF01AA0FBB1F68
S1133310AD014E0F5F1FDC01AA0FBB1FA80FB91F21
S1133320AA0FBB1FAA0FBB1FA40FB51FAE5CB64FDD
S11333303C9140910E02341710F430930E02AF0109
S1133340440F551FE40FF51FAC01440F551F840FA4
S1133350951F880F991F880F991FE80FF91FEE5CBE
S1133360F64F818190910D02981710F480930D020D
S11333702F5F243028F280910E0288234CF48EE1D2
S1133380E2D880EA93E051D98FEF80939F0504C07F
S113339080939F0510920C026FED71E180E00E9412
S11333A00E3A6EEE71E181E00E940E3A63EF71E134
S11333B082E00E940E3A65EF71E183E00E940E3ACA
S11333C00E945D3ACFEF71C060919F056F3F09F491
S11333D061C08130D9F480910D02681708F05CC097
S11333E040E0809177050E94BB3060919F056F5F3C
S11333F060939F0580910C02813009F04FC041E039
S1133400809177050E94BB30CFEF4FC08430D1F458
S113341080910E02861708F043C040E08091770542
S11334200E94BB3060919F05615060939F0580911D
S11334300C028130B9F541E0809177050E94BB30E0
S1133440CFEF33C0833091F480910C02811104C01A
S113345081E080930C0202C010920C0240910C0295
S1133460809177050E94BB30CFEF1FC0823011F0EE
S1133470863039F440E0809177050E94BB30C0E08B
S113348014C0853089F440E0809177050E94BB30F8
S1133490C0E00BC0C0E009C0CFEF07C0CFEF05C04C
S11334A0CFEF03C0CFEF01C0CFEFCF3F59F58091ED
S11334B09F058F3F29F18EE146D880919F050E9498
S11334C04E3980E26AD880910C02811107C081E6EE
S11334D064D885E762D883E760D806C085E65DD8FE
S11334E089E65BD88EE659D861E080910C0281119F
S11334F001C060E081E00E947C3A81110E945D3A43
S11335008EE121D88C2FCF9108950E94AF0B80E0DB
S113351008950E94AF0B80E008950E948D0B80E017
S113352008950E946B0B0E948E2C0E944B0C0E94EB
S1133530C02F80E008950E94DF0B80E00895CF93B0
S113354083E893E00E9492358BD8811117C089E8F3
S113355093E00E94923516C06FEF8C2F22DA0E94FE
S1133560E63587E192E10E9492358C2FC0D80E9403
S1133570923587E192E10E9492358C2FCFEFC80FEC
S11335808111EACF80E0CF9108950E94090C8091C7
S11335904E168F3F61F48AE693E00E94923587EBE2
S11335A091E10E94923587E192E10E94923580E098
S11335B008959F92AF92BF92CF92DF92EF92FF92C3
S11335C00F931F93CF93DF9381E593E00E9492358D
S11335D00E94A4358EE393E00E949235C5E5D3E0C2
S11335E06DED78E188810E94633822E7FC01208335
S11335F0BC016E5F7F4F20E2218389810E94633882
S113360027E7FC0120838DED98E10E94E6350E94B6
S1133610A4358CE293E00E9492356DED78E18091BF
S113362048020E9463388DED98E10E94E6350E94BD
S1133630A4350E94A435E12CD1C083E293E00E941A
S113364092356DED78E18E2D0E9417398DED98E15C
S11336500E94E6350E94A435F12CA4C08CE193E0CD
S11336600E94923580E38F0D0E94B3348AE30E9456
S1133670B33480E20E94B3340E2D10E0CF2CD12C51
S1133680E601CC0FDD1FCE018C0D9D1DE801CC0F92
S1133690DD1FC00FD11FCC0FDD1FCC0FDD1FC80FE6
S11336A0D91FCE5CD64F6DED78E188810E946338D6
S11336B0BC016F5F7F4F0F2EFEE2BF2EF02DFC0189
S11336C0B08289810E946338BC016F5F7F4FFC0127
S11336D0B0828A810E946338FC0180E280839DE38A
S11336E0918382838DED98E10E94E6358881882359
S11336F02CF48AE093E00E94923551C06DED78E19C
S11337000E94BB38BC016F5F7F4F0F2EFDE29F2EDE
S1133710F02DFC019082F601EE0FFF1FCE0EDF1E8E
S11337205801AA0CBB1CE501C00FD11FCC0FDD1F33
S1133730CC0FDD1FCC0DDD1DCE5CD64F89810E94E0
S1133740BB3820E2FC01208311828DED98E10E94B8
S1133750E63582E093E00E9492358A8182958695CF
S11337608770805D0E94B3348AEF92E00E949235A4
S11337708A816DED78E18F710E942038BC016F5F02
S11337807F4FFC0190828A81998128818F71890FF2
S1133790821B0E9420388DED98E10E94E6350E943C
S11337A0A435F394F3E0FF1508F058CF88ED92E0C8
S11337B00E949235EE2DF0E0EE0FFF1FEA5DF64F0A
S11337C06DED78E181810E947B388DED98E10E9456
S11337D0E6350E94A4350E94A435E39483E08E1557
S11337E008F02BCF80E193E00E949235F12C94C035
S11337F08CE193E00E94923580E38F0D0E94B334F4
S11338008AE30E94B33480E20E94B334CF2DD0E027
S11338108E01000F111F0C0F1D1F0A50184F6DED64
S113382078E1F80180810E946338BC016F5F7F4FAB
S11338300F2EFEE2EF2EF02DFC01E082F8018181D3
S11338400E946338BC016F5F7F4FFC01E082F80186
S113385082810E946338FC0180E280839DE391832E
S1133860828313828DED98E10E94E635F801808110
S11338708F3F29F48AE093E00E9492354AC0EDED2F
S1133880F8E192E590839EE291836FED78E18F5F9A
S11338900E943C38BC016F5F7F4F1DE2FC01108326
S11338A0CE01880F991FC80FD91FCA50D84F8981DC
S11338B08F5F0E943C3820E2FC01208311828DED51
S11338C098E10E94E63582E093E00E9492358A8175
S11338D0829586958770805D0E94B3348AEF92E06A
S11338E00E9492358A816DED78E18F710E942038B3
S11338F0BC016F5F7F4FFC0110838A81998128810D
S11339008F71890F821B0E9420388DED98E10E94EF
S1133910E6350E94A435F394F7E0FF1508F068CF6C
S11339200E94A4358FEC92E00E9492350E94A43547
S1133930E12C90E064C0CE2DD0E00F2D10E0FE010C
S1133940EE0FFF1FEE0FFF1FE00FF11FEE0FFF1F23
S1133950EE0FFF1FEA5DF74F80818F3F09F447C0E8
S11339606DED78E18E2D0E947B38BC016F5F7F4F37
S11339700F2EF8E2DF2EF02DFC01D082CC0FDD1FDC
S1133980CC0FDD1FC00FD11FCC0FDD1FCC0FDD1FEF
S1133990CA5DD74F89810E94BB38BC016F5F7F4FDE
S11339A02DE2FC01208399818A81890F0E94BB3812
S11339B0FC0119E2108380E28183BF016D5F7F4FB8
S11339C08EE3828388810E941739BC016F5F7F4F29
S11339D0FC01D0828B810E94BB38FC0110831182D0
S11339E08DED98E10E94E6350E94A4359FEFF39493
S11339F001C0F12CF3E0FF1508F09DCFE3948FE0B4
S1133A008E15B8F7911106C084EB92E00E949235AE
S1133A100E94A4350E94A43585EC92E00E94923560
S1133A200E94A435C0E025C06DED78E18C2F0E9482
S1133A301739DC01BC016F5F7F4F8AE38C93EC2F55
S1133A40F0E0EE0FFF1FEA5DF64F80818F3F19F023
S1133A500E947B3805C0CD0102962DE211962C936D
S1133A60FC0110828DED98E10E94E6350E94A43598
S1133A70CF5FC430C8F20E94A43589EB92E00E9463
S1133A809235C4E2D8E06DED78E188810E947B38FC
S1133A90BC016F5F7F4F2EE3FC01208389810E946C
S1133AA07B38FC0110828DED98E10E94E6350E947E
S1133AB0A43580E0DF91CF911F910F91FF90EF909B
S1133AC0DF90CF90BF90AF909F9008951F93CF93B6
S1133AD0DF9310E009C0C12FD0E0C359DA4F8881C9
S1133AE00E94B33A88831F5F1830A8F3DF91CF9107
S1133AF01F9108958DE695E00E94C92DE7DF80E0CF
S1133B0008950E94A92E80E0F5DF80E008958630B4
S1133B1031F08091A805803410F40E941A2E80E0C0
S1133B20E9DF80E00895CF93C62F8823D9F0E62FEC
S1133B30F0E0DF01A15FB74F8C91811108C0862F9F
S1133B400E94362C882371F00E947A310BC0DF0169
S1133B50A15FB74F1C92EE0FFF1FE354FE4E8491FA
S1133B600E947A31EC2FF0E0E15FF74F8081811100
S1133B7002C082E801C081E8CF91089560E0D3CF0C
S1133B80089561E0D0CF089563E0CDCF089562E059
S1133B90CACF089564E0C7CF089565E0C4CF0895FF
S1133BA066E0C1CF089567E0BECF089569E0BBCF5A
S1133BB0089568E0B8CF08956AE0B5CF08956BE042
S1133BC0B2CF089510926805009769F487E197E0F1
S1133BD09093AA058093A90582EF93E090939D05A5
S1133BE080939C0508C09093AA058093A9057093BF
S1133BF09D0560939C058FEF809376058CEF93E091
S1133C0090937A0580937905089567EF71E182E0D6
S1133C100C940E3A089569EF71E183E00C940E3A26
S1133C2008956BEF71E181E00C940E3A089569EE0A
S1133C3071E181E00C940E3A089564EE71E181E043
S1133C400C940E3A08956DEF71E180E00C940E3AF5
S1133C500895809175058A3011F08E3031F465ED48
S1133C6071E180E00C940E3A089565EF71E180E013
S1133C700C940E3A0895809175058A3011F08E30B7
S1133C8031F467ED71E181E00C940E3A089563EF2D
S1133C9071E181E00C940E3A0895CF93DF93E091A3
S1133CA075058E2F90E0FC013297ED30F10508F098
S1133CB0E4C08827EE58FF4F8F4F0C94C03A809190
S1133CC0B905E4ECF5E0982F92959F7090838F707E
S1133CD08183D3C08091B905803120F08FEF809328
S1133CE0C405CBC08F5F8093C405C7C08091B9055C
S1133CF0882334F4E4ECF5E010828FEF8183BDC0B7
S1133D001092C50508C0E4ECF5E091819F5F9183B2
S1133D108C508093B9058091B9058C30A0F78093BD
S1133D20C405ABC08091B905E4ECF5E0982F9295F9
S1133D309695977090838F718093B905118208C00E
S1133D40E4ECF5E091819F5F91838A508093B905FB
S1133D508091B9058A30A0F78093C6058EC0E4EC43
S1133D60F5E01082118208C0E4ECF5E090819F5FD9
S1133D70908384568093B9058091B9058436A0F761
S1133D8008C0E4ECF5E091819F5F91838A508093B1
S1133D90B9058091B9058A30A0F78093C6056DC036
S1133DA08091B905843020F08FEF8093C40565C0FD
S1133DB08093C40562C08091B905843020F083E00B
S1133DC08093C4055AC08093C40557C08091B90537
S1133DD08093C40552C0E92FF0E08091B905282FE3
S1133DE0221F2227221FEC53FA4F2083880F80932F
S1133DF0B9059F5F01C090E0983068F33EC08250DF
S1133E00F0E0DE019D91EC53FA4F9F709083E82F10
S1133E10F0E09881EC53FA4F92959F709083ED01F6
S1133E2003C0C2EAD5E088E0EFEFE80F8111E7CFE5
S1133E3024C08091B905E4ECF5E0982F97709F5F5A
S1133E4090838695869586958F5F818316C0809131
S1133E50B9058F5F8093B9051092C40508C0E4ECDE
S1133E60F5E090819F5F90838A508093B90580919B
S1133E70B9058A30A0F78093C505DF91CF910895E5
S1133E800F931F93CF93DF93E09175058E2F90E0EE
S1133E90FC013297ED30F10508F03BC18827E15869
S1133EA0FF4F8F4F0C94C03A04EC15E0F801808169
S1133EB00E949337C5E2D2E08883F80181810E9491
S1133EC0933789831A8225C1E5E2F2E083E4808393
S1133ED088E681838091C4058F3F29F480E2828340
S1133EE08DE2838312C08A3048F0C5E2D2E091E3C8
S1133EF09A838A500E9493378B8307C0C5E2D2E02D
S1133F0090E29A830E9493378B831092290201C115
S1133F108091C4058F3F21F09091C5059F3F59F4CE
S1133F20E5E2F2E08EE680839FE69183828385E674
S1133F3083831482EEC09FE5909326028B3021F494
S1133F4088E48093250220C0853058F4982F9695F4
S1133F509D5B9093250280FF17C083E28093260225
S1133F6013C0282F30E025503109359527952A5B59
S1133F702093250280FD03C083E280932602283427
S1133F8019F481E4809325028091C505811104C050
S1133F908DE6809327020BC08C3030F481500E9450
S1133FA093378093270203C08DE2809327021092F7
S1133FB02802AFC0C5E2D2E08DE4888304EC15E0AA
S1133FC0F80180810E949337898382E48A83F8010F
S1133FD081810E9493378B83F80182810E949337F9
S1133FE08C831D8296C004EC15E0F80180810E9448
S1133FF09337C5E2D2E08883F80181810E94933728
S11340008983F80182810E9493378A831B8281C04D
S11340108091C405833038F4E5E2F2E093E3981B21
S11340209083118276C0833031F4E5E2F2E080E5DA
S1134030808311826EC0E5E2F2E08DE2808311821A
S113404068C08091C405E5E2F2E0805D808311825E
S113405060C08091C405811109C0E5E2F2E081E409
S1134060808385E7818383E7828308C0E5E2F2E009
S113407085E4808389E681838EE682831092280218
S113408048C0C12FD0E0FE01EC53FA4F80810E945A
S11340909337CB5DDD4F88831F5F01C010E018307C
S11340A080F337C0822F90E0FC01EC53FA4F30814B
S11340B0311102C03FE601C039E4FC01EB5DFD4F64
S11340C030832F5F01C020E0283060F322C0A4ECCD
S11340D0B5E08C91E5E2F2E0805D808311968C91ED
S11340E0805C8183128215C0E4ECF5E090818181CB
S11340F0292F282B31F4E5E2F2E08DE280838183DD
S113410006C0E5E2F2E0905D9083805D81831092C9
S11341102702DF91CF911F910F9108950F931F9361
S1134120CF938EE10E94A312C0E005E212E00BC01F
S1134130F8018081882319F00F5F1F4F01C080E2CE
S11341400E94CD12CF5FCA3098F3CF911F910F9187
S113415008958A301CF488231CF0089580E00895A3
S113416089E008950F931F93CF93DF93C82FE091B5
S1134170A905F091AA0531968491282F2071E09128
S113418075058E2F90E0FC013297ED30F10508F0B3
S113419093C18827E457FF4F8F4F0C94C03AD0E067
S11341A0CC53DA4F8881680F6F70688385C1211101
S11341B01BC0613041F48091C405803120F081E05E
S11341C08093C40579C16F3F49F48091C40582503E
S11341D08F3020F080E18093C4056EC1E4ECF5E0FB
S11341E08081680F608368C1613041F48091C405A7
S11341F0803121F48FEF8093C4055EC1613041F4B6
S11342008091C4058F3F21F481E08093C40554C19B
S11342106F3F41F48091C4058F3F21F480E1809386
S1134220C4054AC16F3F41F48091C405813021F433
S11342308FEF8093C40540C1E4ECF5E08081680F02
S113424060833AC18091C5058F3F09F4C1E0C11173
S113425016C08091C4058C3050F48B3011F4613059
S113426041F0811102C06F3F31F0680F05C060E07A
S113427003C060E001C06BE06093C4052BC0211152
S11342800AC0811102C06F3FC1F08A3011F461305D
S1134290B1F0680F1DC0811102C06F3F91F08A30E8
S11342A011F4613081F08F3F11F4613071F08F3F70
S11342B011F46F3F61F0680F0BC06AE009C060E061
S11342C007C06FEF05C06FEF03C060E001C06AE094
S11342D06093C5059091C4059F3F09F4EDC080919A
S11342E0C5058F3F09F4E8C0282F220F820F282F1D
S11342F0220F220F920F0AF0DFC0E4ECF5E087E012
S113430080838AE08183D8C0C11107C0E4ECF5E062
S11343108081680F67706083CFC0D0E004EC15E043
S1134320CC53DA4F8881860F14DF8883F8018181AA
S11343309281880F282F220F220F820F890F80323B
S11343402CF083E0818381E08283B6C088230CF063
S1134350B3C0E4ECF5E011821282AEC0D0E004EC0C
S113436015E0CC53DA4F8881860FF3DE8883F80199
S11343702081818190E0AC01440F551F880F991F63
S1134380880F991F880F991F840F951FF4E62F9F9C
S1134390800D911D1124F8012281820F911D8F3F00
S11343A0910509F00CF488C082E0808385E0818364
S11343B0828382C02223A1F0D0E0FE01EC53FA4FA5
S11343C08081680F6083643019F48FEF808374C038
S11343D06E3F09F071C0CC53DA4F83E088836CC020
S11343E0D0E0FE01EC53FA4F8081811105C06F3F8C
S11343F019F483E0808360C0833031F4613021F4A8
S1134400CC53DA4F188258C0CC53DA4F680F688304
S113441053C0D0E0CC53DA4F8881680F637068834F
S11344204BC0E4ECF5E080818095808345C0D0E00A
S113443081E061FD80E0CC53DA4F88833DC0613078
S113444041F4D0E0CC53DA4F888187708F5F888342
S113445033C0EC2FF0E0EC53FA4F80818250877028
S11344608F5F808329C0E4ECF5E090818181990F0E
S1134470292F220F220F920F890FC11107C0660F37
S1134480962F990F990F690F680F01C0680F662363
S11344901CF061341CF403C060E001C060E01092C1
S11344A0C40506C0E4ECF5E080818F5F80836A5028
S11344B06A30C4F76093C505DF91CF911F910F91C6
S11344C00895E09175058E2F90E0FC013297ED3050
S11344D0F10508F0DAC08827E756FF4F8F4F0C9498
S11344E0C03AE4ECF5E0808120E1829FC001112410
S11344F091819F70892B8093B90508959091C4058B
S11345008FEF890F803118F09093B9050895809347
S1134510B90508959091C4059F3F21F08091C50588
S11345208F3F21F48FEF8093B9050895282F220F30
S1134530820F880F880F890F8093B9050895E4ECE2
S1134540F5E0808130E2839FC00111242181328112
S1134550220F422F440F440F240F230F203220F048
S11345608F618093B9050895822B8093B9050895CE
S1134570E4ECF5E02081818190E0AC01440F551F0B
S1134580880F991F880F991F880F991F840F951FF3
S113459034E6239F800D911D11242281820F911DE9
S11345A08F3F910529F020F08FEF8093B90508958E
S11345B08093B90508958091C4058093B90584302A
S11345C008F463C08FEF8093B90508958091C40502
S11345D083708093B90508958091C4058093B905CB
S11345E008951092B90580E00CC09091B905990F17
S11345F0E82FF0E0EC53FA4F2081920F9093B90525
S11346008F5F883090F308951092A2051092A3054D
S11346101092A4051092A505A2EAB5E088E010C0A6
S11346208250F0E0EC53FA4F9081E82FF0E0EC5325
S1134630FA4F208130E1239F900D11249C93119611
S1134640EFEFE80F8111ECCF0895E4ECF5E0208161
S11346509181892F90E00197880F991F880F991FE6
S1134660880F991F9FEF920F892B8093B9050895A6
S1134670E4ECF5E080819181880F282F220F220F2E
S1134680820F890F81508093B90508950F931F936A
S1134690CF93DF938C01D62FC0E00CC0F801849136
S11346A0882319F00F5F1F4F02C08D2FD0E20E94A4
S11346B0CD12CF5FCA3090F3DF91CF911F910F914C
S11346C0089580E40E94A312E0916805E11107C0F7
S11346D06AE380919C0590919D05D8CF0895F0E000
S11346E03197EE0FFF1FE558FA4F808191816AE3FD
S11346F00296CCCF0895E091A905F091AA05849182
S11347008F7390E002971CF0C8DABADB07CD0895E6
S1134710E0917905F0917A0580917605E80FF11D15
S113472031968491825E0E94A3122091760530E036
S1134730E0917905F0917A05849190E0019728172A
S1134740390714F468DA03C083E00E94493A80917F
S11347507605882311F059DA03C082E00E94493AB1
S113476078DA89DA0C945D3A089584E10C94A31202
S113477008950F931F93CF93F8DF8EEE93E00E947A
S113478015138091D5189091D6180E9446398DE260
S11347900E94CD128091D5189091D618049730F4C8
S11347A08091D5189091D618C82F01C0C4E000910B
S11347B0411610E0025C1B4E13C084E10F3318074E
S11347C010F0F80102C0EEE3F5E18F010150110988
S11347D080810E94CA37C15019F080E20E94CD1234
S11347E0C111EBCF80E0CF911F910F9108950F93EA
S11347F01F93CF93BADF89EE93E00E941513809143
S11348004C1690914D160E9446398DE20E94CD12AD
S113481080914C1690914D16049730F480914C166B
S113482090914D16C82F01C0C4E00091ED1310E023
S1134830025C1A4E13C085E10F33180710F0F8011B
S113484002C0EEE3F6E18F010150110980810E945C
S1134850CA37C15019F080E20E94CD12C111EBCFCA
S113486080E0CF911F910F9108950F931F93CF93E1
S11348708F3FA9F40E943013815080930B02109251
S11348800A026FED71E180E00E940E3A69ED71E178
S113489081E00E940E3A0E945D3ACFEF2FC084302F
S11348A049F480910B02882321F1815080930B02FB
S11348B0CFEF24C0813091F400910B0210E00F5F20
S11348C01F4F0E94301390E008171907A4F4809139
S11348D00B028F5F80930B02CFEF10C0833011F077
S11348E0853059F480910A02809580930A02CFEFB3
S11348F005C0CFEF03C0CFEF01C0C0E0CF3F09F048
S113490054C033DF0E943013811106C089E993E05B
S11349100E941513C0E01DC080910B028F5F0E949E
S113492006388AE30E94CD1280910A02811108C0E0
S113493060E280910B020E94D1140E94051306C00C
S113494080910B020E9477130E9415130E94CE39A6
S11349500CDF61E080910A028F3F09F060E081E0A2
S11349600E947C3A00910B0210E00F5F1F4F0E94DF
S1134970301390E00817190734F469EF71E183E00C
S11349800E940E3A03C083E00E94493A80910B02D0
S1134990882331F067EF71E182E00E940E3A03C090
S11349A082E00E94493A0E945D3A8C2FCF911F9178
S11349B00F9108958AE40C94A3120895D6DE8AE038
S11349C00C94C23908958EE10E94A3128AE00C94DB
S11349D0C239089580E40E94A3128AE00E94C23979
S11349E0E9DF8AE00C94C2390895F4DFECDFE6CF06
S11349F00895E091A905F091AA0584918F738130FF
S1134A0011F40FC908953E960590F491E02D309766
S1134A1059F0893039F48081811102C008C90895A0
S1134A200CC90895FEC8089581E00C94493A08958C
S1134A30CF9389E40E94A312E091A905F091AA05FD
S1134A40C491C07CC03839F480E20E94CD1282E067
S1134A500E94493A04C08FE70E94CD12D6D8C03CC8
S1134A6029F483E00E94493AC0E202C0D4D8CEE7D8
S1134A70EAD8BFDF8091A9059091AA056C2F029610
S1134A8005DE0E945D3A96DFCF9108958FEF809303
S1134A903D028091A9059091AA05FC012491622F01
S1134AA06F73623008F449C09C01225F3F4FF901E3
S1134AB0459155914115510509F43FC0E62FF0E0A9
S1134AC031979F01220F331F220F331F220F331FF1
S1134AD0E20FF31FE450FC4FF0937A05E09379055D
S1134AE024912093A005FC0125912F732093750533
S1134AF0249122232CF42091B1053091B20502C0F7
S1134B0020E030E0240F351FFC0184918F738B303B
S1134B1071F4F90180819181A281B3818093A2050E
S1134B209093A305A093A405B093A50504C0F9012F
S1134B3080818093B905DFDD07C045DF8CEF93E00A
S1134B4090937A058093790554DF34CF089536DF46
S1134B509DDFB7DD6DDF0C94E5390895CF93C82F41
S1134B600E94E539E091A905F091AA0584918F731B
S1134B70813029F0809176058F3F09F068C1319624
S1134B80849186FF02C01ADF15DF6091A905709138
S1134B90AA05CB010196FC018491982F907285FFA0
S1134BA01FC09B01205F3F4FF901259135912115CD
S1134BB03105B1F0409176054F3F91F08C2FF9010A
S1134BC019958F3F21F41092760580E004C2F6DE39
S1134BD0FADEF0DE8FEF809376052ADF80E0FBC1FA
S1134BE0C33009F464C028F4C13051F0C23031F14B
S1134BF0DBC1C53009F45BC090F0C630F9F0D4C114
S1134C00FB018491807C803C09F4D0C17496F093BC
S1134C10AA05E093A9053ADF0BDF80E0DCC1FB01C4
S1134C208491807C803809F4C3C17497F093AA05F9
S1134C30E093A9052BDFFCDE80E0CDC184FF04C036
S1134C401092CE051092CD05E0916805EE23E9F0AF
S1134C50E150E0936805F0E0EE0FFF1FE558FA4FCE
S1134C600190F081E02DF093AA05E093A9057296D6
S1134C700590F491E02D309711F080E019959EDEB7
S1134C8020DDD6DE03DF80E0A6C180E00E94493A41
S1134C9081E00E94493A82E00E94493A83E00E94FE
S1134CA0493A0E945D3A0E94EC398FEF94C1FB01AE
S1134CB024912F7330E0223031050CF448C07096F3
S1134CC00590F491E02D309719F08C2F1995DEDEC4
S1134CD02091A9053091AA05C9010196FC0184918E
S1134CE083FD68C1C9010E96FC0185919591892BBC
S1134CF009F462C1F90184918F73893019F561E077
S1134D0080E030DADEDBE091A905F091AA053E9659
S1134D100590F491E02D8091B9058083ECDC69DE87
S1134D200E945D3A47DEE091A905F091AA057296CA
S1134D300590F491E02D309709F440C180E0199575
S1134D4080E049C110927605E3DC80E044C12FEF96
S1134D502093760584FF26C07093CE056093CD051D
S1134D60E0916805EE2309F42BC1E150E093680556
S1134D70F0E0EE0FFF1FE558FA4F0190F081E02DAF
S1134D80F093AA05E093A90572960590F491E02D9D
S1134D90309711F080E0199511DE93DC49DE76DE60
S1134DA080E019C1FB0170960590F491E02D3097D5
S1134DB099F0992371F08FEF19958F3F19F41092A0
S1134DC076050AC0FBDDFFDDF5DD8FEF8093760508
S1134DD003C085E01995EEDD2091A9053091AA055F
S1134DE0C9010C96FC0185919591892B09F4EAC0BF
S1134DF0A0916805A03108F0E7C081E08A0F809394
S1134E006805B0E0AA0FBB1FA558BA4F2D933C9379
S1134E10C9010196FC01849183FF0BC08091CD05EB
S1134E209091CE05009729F09093AA058093A90547
S1134E3008C0F9013C96859195919093AA058093B9
S1134E40A905BCDD3EDCF4DD21DE80E0C4C0C33056
S1134E5009F449C028F4C13059F0C23031F1B6C068
S1134E60C53009F45EC0C0F0C63009F48AC0AEC0D3
S1134E70482F50E0E0917905F0917A05249130E0D3
S1134E8021503109421753070CF0A2C08F5F809361
S1134E9076053EDC80E09FC0882309F49BC08150E6
S1134EA08093760535DC80E096C061E05BD909DB50
S1134EB022DC809175058A3011F08E3089F42091BE
S1134EC07605422F50E0E0917905F0917A058491BE
S1134ED090E00197481759071CF42F5F209376053B
S1134EE017DC80E078C06FEF3DD9EBDA04DC809109
S1134EF075058A3011F08E3089F420917605422FA1
S1134F0050E0E0917905F0917A05849190E0019761
S1134F10481759071CF42F5F20937605F9DB80E0CE
S1134F205AC0CFDA2091A9053091AA05C9010E967D
S1134F30FC01A591B591109721F10D97FC01849185
S1134F4088232CF48091B1059091B20502C080E0D1
S1134F5090E0A80FB91FF90184918F738B3071F41D
S1134F604091A2055091A3056091A4057091A505F7
S1134F704D935D936D937C93139703C08091B90512
S1134F808C93E091A905F091AA0572960590F4918D
S1134F90E02D309711F08C2F19958FEF80937605C3
S1134FA047DD74DD80E017C080E015C080E013C0E9
S1134FB080E011C080E00FC080E00DC080E00BC035
S1134FC080E009C080E007C080E005C080E003C045
S1134FD080E001C080E0CF9108950F931F93CF9399
S1134FE0DF93EC010091A803E091A905F091AA05D3
S1134FF084918F73813091F4CE010E949F3A24E111
S113500030E0A901481B5109CA01959587958C5E2A
S11350100E94A31283E080939E0505C084E10E9450
S1135020A31210929E051091A803CE010E9415139D
S1135030802F0E94A3129FB7F89481E006C0EFE28C
S1135040F2E084E68687178680E08111F8CF9FBF5F
S1135050812FDF91CF911F910F91089588EB93E0F9
S1135060BCDF0E94E533A6DC80E008958091A605AC
S11350708F3F11F08D3F71F50E94EC39A4DC109242
S1135080F30790E0E9E4F2E007C021818091C205D2
S1135090822B818338969F5F9032B8F38091A60566
S11350A08F3F19F41092A6055BC082EB93E095DF65
S11350B08EEF8093A6059FB7F89481E006C0EFE2D7
S11350C0F2E082E08487858780E08111F8CF9FBF7A
S11350D071DC46C08E3F41F48FEF8093F30710924A
S11350E0C2050E94E5393CC04091690550916A05AA
S11350F060916B0570916C0576956795579547950A
S11351004093690550936A0560936B0570936C0531
S1135110E82FF0E0DF01AA0FBB1FAA0FBB1FAA0FE5
S1135120BB1FA75BBD4F16962C919091C2052923F6
S113513049F470684093690550936A0560936B0560
S113514070936C05EE0FFF1FEE0FFF1FEE0FFF1F96
S1135150E75BFD4F2181922B91838F5F8093A6059E
S1135160E091A605E03228F5F0E0EE0FFF1FEE0F08
S1135170FF1FEE0FFF1FE75BFD4F8091C205982FC5
S113518090958181892381838EE10E94A31280916D
S1135190A6050E9406389FB7F89481E006C0EFE2A6
S11351A0F2E088E08487158680E08111F8CF9FBF04
S11351B00895E03281F58091690590916A05A09186
S11351C06B05B0916C050097A105B10521F48EEA39
S11351D093E003DF0FC08093D9189093DA18A0935B
S11351E0DB18B093DC188BEA93E0F7DE0E94A3127D
S11351F00E94E1378EEF8093A6059FB7F89481E073
S113520006C0EFE2F2E082E08487858780E08111C6
S1135210F8CF9FBFCFCB089581E090E00090780550
S113522002C0880F991F0A94E2F78093C2058FEF9A
S11352308093A6051092690510926A0510926B0579
S113524010926C0513DF80E008958EEA93E0C5CEDA
S113525008958EE10E94A31281E993E00E94151340
S11352600E94F00CF2DF80E008958EE10E94A31208
S113527081E993E00E9415130E94FC0CE6DF80E0B4
S1135280089581E993E0A9DE8EE10E94A3120E94B1
S1135290BD0CDBDF80E00895CF93C091A80380E4C8
S11352A00E94A31284E10E94C2398C2F0E94A3128F
S11352B0CF91089580919E05833019F47FDB83CBD1
S11352C00895811102C07ACB0895813011F47BCB0B
S11352D00895E2CF08950F931F93CF93DF93EC01CA
S11352E01091A8030E949F3A082F80E40E94A31201
S11352F084E190E0801B9109959587950E94C239BD
S1135300CE010E9415139091A80384E5891B0E9485
S1135310C239812F0E94A3129FB7F89481E006C07E
S1135320EFE2F2E084E68687178680E08111F8CF09
S11353309FBF82E080939E05DF91CF911F910F91D3
S113534008950F931F93CF93DF93EC011091A8035B
S11353500E94A93A082F80E40E94A31284E190E0FD
S1135360801B9109959587950E94C239CE010E94B0
S113537005139091A80384E5891B0E94C239812FEB
S11353800E94A3129FB7F89481E006C0EFE2F2E016
S113539084E68687178680E08111F8CF9FBF82E07C
S11353A080939E05DF91CF911F910F9108956DED2C
S11353B078E10E943C38BC0186ED93E00E943039CC
S11353C08DED98E1BECF08950F931F93CF936DEDAC
S11353D078E10E943C38BC0189EC93E00E943039AA
S11353E08C010E94B80E84E0C0D3C82F882349F0F2
S11353F0B80187EC93E00E943039BC018C2F0E94E5
S11354003C388DED98E19DDFCF911F910F91089568
S1135410CF93C62F88232CF46FEF8C2FA7D4C7DF2C
S113542005C0882319F0862F05D4CEDF8C2F0ED526
S1135430882331F08C2FCFD4811104C081E803C0BC
S113544082E801C082E8CF91089560E0E1CF089539
S113545061E0DECF089562E0DBCF089563E0D8CF4A
S1135460089520E034E08338930749F034E083382A
S1135470930738F044972F5FA9F780E00895822FAF
S1135480089580E00895CF930E943E0B8F3FC9F4A6
S11354900FC0822F90E0FC01ED54FA4F1082880F68
S11354A0991FFC01E654FA4F118210822F5F01C04C
S11354B020E0243070F340E050E067E081E00E9497
S11354C0CB14C0E025C04C2F50E0FA01ED54FA4F44
S11354D08081863170F424E1829FC00111248D57AC
S11354E09B4F440F551FFA01E654FA4F9183808372
S11354F00EC0FA01EE0FFF1FE654FA4F118210821C
S11355004F5F5F4F406167E081E00E94CB14CF5F43
S1135510C430C8F2CF910895CF93DF93643028F557
S11355200097B9F0FC0124912F73213091F4319646
S1135530249124FF0EC0C62FD0E0FE01EE0FFF1F02
S1135540E654FA4F918380838CDFCD54DA4F8883FD
S11355500CC070E0FB01EE0FFF1FE654FA4F1182FE
S11355601082FB01ED54FA4F1082DF91CF91089520
S1135570E091A905F091AA053E96659175918091F7
S1135580CD059091CE05C8DF0E949B0C80E0089564
S11355900F931F93CF93C0E032C00C2F10E0F8019B
S11355A0EE0FFF1FE654FA4F0190F081E02D309783
S11355B031F03E96659175916115710521F48C2F3A
S11355C00E94493A1BC08C2F0E940E3A000F111FF3
S11355D0F801E654FA4F0190F081E02D70960590A1
S11355E0F491E02D309751F080E01995813811F451
S11355F06FEF01C060E08C2F0E947C3ACF5FC43013
S113560060F20E945D3ACF911F910F91089582300C
S113561049F018F4813051F00BC0833059F08430D4
S113562019F006C080E0089582E0089583E00895AB
S11356308FEF089581E008950F931F93CF938430E3
S1135640D0F5E82FF0E0EE0FFF1FE654FA4F00818B
S113565011810115110589F1F80194919F7391301D
S113566071F53196949194FF2CC0C82F3F96059004
S1135670F491E02D309789F0862F1995823829F41A
S113568060E08C2F0E947C3A06C0813821F46FEFD1
S11356908C2F0E947C3A0E945D3AF8013C968591D9
S11356A09591009781F0B8016E5F7F4F0E94E21DD3
S11356B04EDA80E009C08FEF07C08FEF05C08FEF8F
S11356C003C08FEF01C08FEFCF911F910F91089509
S11356D0CF93C091A8038CE00E94A312809145024D
S11356E084FF02C080E201C089E00E94CD128C2FA9
S11356F00E94A312CF91089585B1806485B983E196
S113570080934502E5DF80E0089585B18F7B85B9FC
S113571010924502DDDF80E0089585B18F7B85B965
S113572081E080934502D4DF9FB7F89481E006C0FE
S1135730EFE2F2E088E28283138280E08111F8CF05
S11357409FBF08951092D2071092CF051092D107EF
S113575008959091D207E92FF0E0ED52F84F80833D
S11357609F5F9F718091CF05981304C08FEF809342
S1135770D10708959093D20708954FB7F89421E084
S113578011C09091CF053091D2078FEF20E093178D
S113579049F0E92FF0E0ED52F84F80819F5F9F714F
S11357A09093CF052111EDCF4FBF08954FB7F894D3
S11357B091E008C03091CF052091D20790E080E0BD
S11357C0321711F08FEF01C090E09111F3CF4FBF6A
S11357D00895AC019091F3079923E1F09091D007DB
S11357E021E0290F2093D007E92FF0E0EE0FFF1FEF
S11357F0E053FA4F518340838091F50728130AC080
S11358009093D0079F3F19F48FEF8093D0078FEFC9
S11358108093F4070895E091F5078091D007E81389
S113582003C08FEF9FEF089581E08E0F8093F507FB
S1135830F0E0EE0FFF1FE053FA4F8081918108954D
S11358409091F5078091D007981302C080E00895E5
S11358508FEF089580E0EFE0F8E003C010828F5FDF
S113586031968C30D8F30895F5CF08958C30E8F450
S1135870E82FF0E0E15FF74F9FEF9083863010F060
S1135880865001C08A5FE82FF0E0DF01A15FB74FC7
S11358908C91882359F0DF01A15FB74F1C92EE0F62
S11358A0FF1FE354FE4E8491089580E0089580E044
S11358B090E04BE001C0422F282F392F220F331FD5
S11358C0822F932FE42FF0E0E15FF74F50815F3F89
S11358D009F481602FEF240F4111EDCF089540E0CA
S11358E080FF07C0E42FF0E0E15FF74F2FEF208344
S11358F005C0E42FF0E0E15FF74F1082282F392F25
S113590036952795822F932F4F5F4C3048F3089597
S113591080E8809346020C94590D089520E030E00D
S113592012C0822F90E0FC01EE0FFF1F8E0F9F1F0D
S1135930FC01EA50F84F81818F3F21F0831710F06A
S113594031E0380F2F5F283060F330930E0808954C
S11359508FEF8093310920E00EC0822F90E0FC018C
S1135960EE0FFF1FE80FF91FEA50F84F8FEF808307
S1135970818312822F5F283080F30E94E20A8F3FD6
S113598049F410920E0840E050E065E081E00E9486
S1135990CB1401C0C3DF0E94160B8F3FA1F52AC0B0
S11359A0832F90E0FC01EE0FFF1F880F991F880FD3
S11359B0991F880F991FE80FF91FEE59F64FE20F50
S11359C0F11D10822F5F01C020E0283048F3832F9F
S11359D090E0FC01EE0FFF1F880F991F880F991F9D
S11359E0880F991FE80FF91FEE59F64F118610869C
S11359F03F5F01C030E0303438F340E050E066E00F
S1135A0081E00C94CB14089590910E088917A0F4AA
S1135A10803490F428E0E6EFF7E03081831748F013
S1135A209181981730F02281982F931B80E0920F78
S1135A3008953396215089F78FEF90E0089590E010
S1135A4016C04091F807841788F0682F70E0E6EFDD
S1135A50F7E0218130E0240F311D5081251B3109ED
S1135A60261737071CF0841B850F08959F5F983015
S1135A7040F38FEF0895CF9390910E08891708F0A3
S1135A803CC0C62FC1DF811130C0292F2F719295E0
S1135A909695977041E050E002C0440F551F9A95C7
S1135AA0E2F730E0F901EE0FFF1FEE0FFF1FEE0FDC
S1135AB0FF1FE75BFD4F9181942311F4C1FD17C0D3
S1135AC0220F331F220F331F220F331FF901E75B0D
S1135AD0FD4F2681422311F0C0FD0BC0992371F0C4
S1135AE0442361F0C43051F406C080E007C081E073
S1135AF005C081E003C081E001C080E0CF9108953A
S1135B0090910E08891778F57FDF811128C0292F1D
S1135B102F71392F32953695377081E090E002C0AD
S1135B20880F991F3A95E2F730E0F901EE0FFF1F55
S1135B30EE0FFF1FEE0FFF1FE75BFD4F4181482370
S1135B4081F0220F331F220F331F220F331FF9015D
S1135B50E75BFD4F9681892339F081E0089580E069
S1135B60089582E0089580E008951F93CF93DF9312
S1135B70182FC0E0D0E006C0612F8C2F7CDF81118C
S1135B80DF5FCF5FC034C0F38D2FDF91CF911F91C2
S1135B900895EF92FF920F931F93CF93DF937C01AD
S1135BA0C0E0D0E000E017C01C2F177009F4D0E06B
S1135BB0D69563E08C2F5FDF882311F0D0680F5FE8
S1135BC0173041F4E114F10429F0F701D083C7013F
S1135BD001967C01CF5FC03438F3802FDF91CF91E1
S1135BE01F910F91FF90EF900895CF9390910E081D
S1135BF08917F0F4C62F08DF81111AC0892F8F711D
S1135C00929596959770C0FF0AC061E070E002C05B
S1135C10660F771F9A95E2F70E947B1109C061E035
S1135C2070E002C0660F771F9A95E2F70E948A110E
S1135C30CF910895BF92CF92DF92EF92FF920F938C
S1135C401F93CF93DF93803408F040C0E82EF12CEB
S1135C50F701EE0FFF1FC701880F991F880F991FC7
S1135C60880F991FE80FF91FEE59F64FB12C10E079
S1135C7000E018C06F018FEFC81AD80AC081D0E0C5
S1135C800DC08C2F8170C0FD0F5F61E0811101C0D8
S1135C9060E0812FAADFC6951F5FDF5FD83088F3ED
S1135CA0B394F60187E08B1528F7F701EE0FFF1F79
S1135CB0EE0CFF1CEE0CFF1CEE0CFF1CEE0DFF1D8A
S1135CC0EE59F64F808591850ADE01C000E0802FF1
S1135CD0DF91CF911F910F91FF90EF90DF90CF90C4
S1135CE0BF900895CF93DF93C82FD62F80913009AA
