:100000000C947B0A0C949C0A0C949C0A0C949C0AF9
:100010000C949C0A0C949C0A0C949C0A0C949C0AC8
:100020000C949C0A0C949C0A0C949C0A0C949C0AB8
:100030000C949C0A0C949C0A0C949C0A0C949C0AA8
:100040000C949C0A0C949C0A0C949C0A0C949C0A98
:100050000C949C0A0C9436110C949C0A0C949C0AE7
:100060000C949C0A0C94273C0C946D3C0C949C0AB8
:100070000C949C0A0C949C0A0C949C0A0C949C0A68
:100080000C949C0A0C949C0A0C949C0A0C949C0A58
:100090000C94123A0C94673A0C949C0A0C949C0AA7
:1000A0000C949C0A0C949C0A0C949C0A0C949C0A38
:1000B0000C949C0A0C949C0A0C949C0A0C949C0A28
:1000C0000C949C0A0C949C0A0C949C0A0C949C0A18
:1000D0000C949C0A0C949C0A0C942D3D0C94853D28
:1000E0000C949C0AF72302240E242A244724682413
:1000F00073247E249324A924B124BF249324EC24C4
:10010000FC24202572258B25A025B925C125E625AF
:10011000E625FF250C26FB2567266F26BA261C2719
:1001200046277227A127A927AF276726B727CB27FE
:10013000AF270928162822283728502873287E2818
:10014000842889289C28BD28D0288928A03FB53F2D
:10015000A33F943FA63FA93F973FAC3F9A3FAF3F95
:100160009D3FB23F1B1B1B1B1B1B1B001B1B18189F
:10017000181818001B1B0303030303001B1B0000BC
:100180000000000018181818181818001818000097
:100190000000000004040404150E0400040E1504FD
:1001A000040404004C6F673A20000000496E697433
:1001B00069616C69736174696F6E00000100454587
:1001C0003A4D6F64756C650000000000000001018D
:1001D00045453A4D6964692D496E000000000000F4
:1001E000010245453A4D6964692D4F757400000060
:1001F0000000010345453A4D616E2D4D6F64756CED
:1002000065000000010445453A55534200000000D6
:10021000000000000000010545453A52656769731A
:100220007465720000000000010645453A50726F87
:100230006772616D730000000000010745453A5385
:100240006F66746B65797300000000000108454516
:100250003A4D696469546872750000000000010934
:1002600045453A5265674F75740000000000000074
:10027000010A45453A4D6964695265674343000088
:10028000000002004D6F643A4661696C0000000096
:100290000000000002014D6F643A556E6B6E6F777F
:1002A000496E7000000003004F56464C3A4D696499
:1002B00069496E000000000003014F56464C3A4D5C
:1002C0006964694F75740000000004004F56464C85
:1002D0003A506970654D7367000000000500507763
:1002E000723A4F75747075744F6E0000000054EFD1
:1002F0006E65206175730054617374656E2F52656D
:10030000672E206CEF73656E004D4944492D496E90
:1003100074657266616365005265676973746572BE
:10032000204F6E2F4F666620434320666F72204D2C
:1003300049444920496E2F4F75743A0D0A005265A1
:10034000676973746572204C61796F75743A0D0A30
:10035000006E6F6E65004D6964692D546872753A60
:1003600020004D6964692D4F75743A004D696469C8
:100370002D496E3A00646972656374204D494449A1
:100380002D4F757428696E742920666F72206D6117
:100390006E75616C3A20002C20426974733A004DEE
:1003A0006F64756C653A00656D70747900526567AD
:1003B00069737465723A0D0A0052616E67652000B8
:1003C0004D616E75616C3A20004D6F64756C65739C
:1003D00020636865636B65643A20004D6F64756CDB
:1003E00065732061737369676E65643A20004861C4
:1003F00072647761726520436F6E666967757261BA
:1004000074696F6E0D0A000D0A4D4944492D4F72F3
:1004100067616E2D496E746572666163650D0A00D1
:100420004C6F670D0A00656D7074790D0A006F6B73
:10043000202020202000736176652E2E2E003C6E39
:100440006F6E653E00756E61737369676E656400FB
:10045000453A006F6B200061626F7274004D494431
:1004600049204E6F74656E20617573002B00205219
:1004700065670020526567207E20004F75743A0042
:10048000496E3A004D656EF5000000000000000066
:100490000000000000000002000100000000000059
:1004A0000103000000000000000200020000000044
:1004B000000003010304000000000003000102002B
:1004C000000000000100000000000000000100002A
:1004D0000000000000000100000000000000000813
:1004E00000010203040506070800010203040506D3
:1004F00007020001000000000000020001000000EF
:1005000000000008000102030405060700000000C7
:10051000000000000081103C6E6F6E653E00000020
:1005200000000071080000000001104D656E7500AC
:1005300000000000007B0867080000000001105365
:1005400074696D6D656E000000430E5D080000006B
:100550000001104B6F7070656C323C330000003F3F
:10056000081A22000001104B6F7070656C313C332B
:1005700000000035081D22000001104B6F707065EF
:100580006C503C330000002B082022000001104B6F
:100590006F7070656C313C3200000021082322002E
:1005A0000001104B6F7070656C503C3200000017FA
:1005B000082622000001104B6F7070656C503C31B2
:1005C0000000000D082922000001104B6F707065BB
:1005D0006C333C3200000003082C22000001104B59
:1005E0006F7070656C333C31000000F9072F2200FA
:1005F0000001104B6F7070656C333C50000000EFD1
:10060000073222000001104B6F7070656C323C3174
:10061000000000E5073522000001104B6F70706587
:100620006C323C50000000DB073822000001104B08
:100630006F7070656C313C50000000D1073B2200A8
:1006400000011050722E2B2F736574000000009F64
:10065000074D230000011050722E2D2F636C720085
:10066000000000950712230000011050726F672EE2
:1006700020314100000000C707CE220000011050C9
:10068000726F672E20324100000000BD07D12200AA
:1006900000011050726F672E20334100000000B33C
:1006A00007D4220000011050726F672E20344100E1
:1006B000000000A907D7220000011050726F672EBA
:1006C000636C72000000005907761C000001105096
:1006D000726F672E7365740000000063075222007A
:1006E00000011050726F672E2B0000000000008B7D
:1006F0000769230000011050726F672E2D00000063
:100700000000008107252300000110507242616E35
:100710006B2B00000000007707EA22000001105058
:100720007242616E6B2E2D000000006D07F52200F5
:100730000001104D494449204F6666000000004901
:1007400008762A0000C1105365747570000000001F
:1007500000330F53080000000050636C720000006B
:1007600000000050736574000000000000507242E9
:100770002D0000000000005072422B00000000001D
:1007800000502D0000000000000000502B00000071
:100790000000000000502D2F6300000000000050FA
:1007A0002B2F7300000000000050413400000000B7
:1007B00000000050413300000000000000504132B2
:1007C0000000000000000050413100000000000067
:1007D00000313C5080000000000000323C5080009E
:1007E0000000000000323C318000000000000033B7
:1007F0003C5080000000000000333C3180000000CD
:10080000000000333C3280000000000000503C310A
:1008100080000000000000503C328000000000001A
:1008200000313C3280000000000000503C3380006A
:100830000000000000313C33800000000000003266
:100840003C33800000000000004D4F666600000051
:1008500000000053657475000000000000537469C7
:100860006D0000000000004D656E75000000000086
:10087000000000000000000000000081004D616EDB
:1008800075616C00000000F308000000000000012A
:1008900000526567697374657200001B090000D619
:1008A00021000001004D494449000000000000E71C
:1008B0000A000000000000010054617374656E00BE
:1008C000000000F30D00000000991C01005374614A
:1008D000747573000000001F14000000000000C1C8
:1008E0000053657475700000000000330F000000B5
:1008F00000000081004B6F7070656C00000000F715
:1009000009000000000000C1005374696D6D656E40
:10091000000000430E0000000000008C0050726FC9
:10092000672E6C61642E000000D0050000E3210CEE
:100930000050726F672E73702E00000000D005000B
:10094000008E1C01006175730000000000000000B3
:10095000000000DD2100000E005265672E312D38A9
:100960000000000000950500004E1C0E0052656757
:100970002E392D313600000000960500004E1C0E69
:10098000005265672E31372D323400000097050084
:10099000004E1C0E005265672E32352D333200009A
:1009A00000980500004E1C0E005265672E33332D53
:1009B0003430000000990500004E1C0E005265679F
:1009C0002E34312D34380000009A0500004E1C0EE4
:1009D000005265672E34392D35340000009B050028
:1009E000004E1CCE005265672E35352D3634000082
:1009F000009C0500004E1C8900323C3300000000C2
:100A00000000000000390800007B1C0900313C3365
:100A10000000000000000000003A0800007B1C09F4
:100A200000313C320000000000000000003B0800E4
:100A3000007B1C0900503C33000000000000000057
:100A4000003C0800007B1C0900503C320000000004
:100A500000000000003D0800007B1C0900503C31F4
:100A60000000000000000000003E0800007B1C09A0
:100A700000333C320000000000000000003F08008E
:100A8000007B1C0900333C31000000000000000026
:100A900000400800007B1C0900333C5000000000AF
:100AA0000000000000410800007B1C0900323C31BE
:100AB000000000000000000000420800007B1C094C
:100AC00000323C500000000000000000004308001D
:100AD000007B1CC900313C500000000000000000F9
:100AE00000440800007B1C81004E6F7465734F66E4
:100AF00066000000000000762A000001004D494415
:100B000049696E00000000C30B00000000141E01C4
:100B1000004D4944496F7574000000930E000000B9
:100B200000101E0310546872752D496E00000000FD
:100B3000004E0800004A1C0310546872752D4F7552
:100B400074000000004F0800004A1C090041636364
:100B50006570742050430000005A0900000C1E0903
:100B6000004163742E53656E7365000000580900E0
:100B7000000C1E090056656C5A344F666600000072
:100B800000590900000C1E01004D4944492D434302
:100B9000000000A30D00000000421C06085278422D
:100BA0007566557365000000006D1500000000C6F5
:100BB000085478427566557365000000007616008B
:100BC000000000810043682E310000000000000397
:100BD0000D0000A71B0000010043682E320000003A
:100BE000000000030D0100A71B0000010043682E58
:100BF00033000000000000030D0200A71B000001ED
:100C00000043682E34000000000000030D0300A71D
:100C10001B0000010043682E3500000000000003A7
:100C20000D0400A71B0000010043682E36000000E1
:100C3000000000030D0500A71B0000010043682E03
:100C400037000000000000030D0600A71B00000194
:100C50000043682E38000000000000030D0700A7C5
:100C60001B0000010043682E390000000000000353
:100C70000D0800A71B0000010043682E3130000062
:100C8000000000030D0900A71B0000010043682EAF
:100C900031310000000000030D0A00A71B00000115
:100CA0000043682E31320000000000030D0B00A746
:100CB0001B0000010043682E3133000000000003D8
:100CC0000D0C00A71B0000010043682E313400000A
:100CD000000000030D0D00A71B0000010043682E5B
:100CE00031350000000000030D0E00A71B0000C1FD
:100CF0000043682E31360000000000030D0F00A7EE
:100D00001B00008100536563742E31000000005306
:100D10000D0000B21B00000100536563742E320009
:100D2000000000530D0100B21B0000010053656379
:100D3000742E3300000000530D0200B21B0000C1EE
:100D400000536563742E3400000000530D0300B29D
:100D50001B000087904D616E75616C000000000003
:100D60000050080000000004904D69644E6F7465E7
:100D70000000000000510800000000068052616E73
:100D8000676500000000000000520800000000C479
:100D9000904D616E4E6F74650000000000530800B6
:100DA00000000082005265674F6E5F49000000003E
:100DB000005C090000000002005265674F66665F34
:100DC00049000000005D0900000000020052656754
:100DD0004F6E5F4F00000000005E0900000000C27F
:100DE000005265674F66665F4F000000005F0900B4
:100DF0000000008108546173746531000000001523
:100E00000500002B1C192F01085461737465320012
:100E1000000000150501002B1C192F0108546173F7
:100E200074653300000000150502002B1C192FC14A
:100E30000854617374653400000000150503002B2D
:100E40001C192F81204D616E2E3300000000000020
:100E5000000000E51C000001204D616E2E320000F4
:100E600000000000000100E51C000001204D616E43
:100E70002E31000000000000000200E51C0000C14F
:100E800020506564616C000000000000000300E574
:100E90001C000083104949490000000000000000C8
:100EA0000050090000000003104949000000000044
:100EB000000000000052090000000003104900007B
:100EC00000000000000000000054090000000003C2
:100ED0001050000000000000000000000056090053
:100EE000000000031049494928696E742900000078
:100EF000005109000000000310494928696E742957
:100F00000000000000530900000000031049286998
:100F10006E7429000000000000550900000000C3A5
:100F2000105028696E742900000000000057090065
:100F300000000081004D6F64756C6500000000FFCB
:100F400010000000000000010052656769737465BD
:100F5000720000970F00000000461C01005553422C
:100F6000000000000000006F1400000000000001FD
:100F700000506F7765720000000000C31000000091
:100F8000000000C100454570726F6D0000000087D1
:100F9000100000000000008100536563742E3100D2
:100FA00000000037100000161C00000100536563AC
:100FB000742E320000000037100100161C000001E2
:100FC00000536563742E33000000003710020016D2
:100FD0001C00000100536563742E340000000037CC
:100FE000100300161C00000100536563742E3500C9
:100FF00000000037100400161C0000010053656358
:10100000742E360000000037100500161C00000189
:1010100000536563742E3700000000371006001679
:101020001C0000C100536563742E380000000037B7
:10103000100700161C00008280437572736F7200E7
:101040000000000000000200000000028043686110
:101050007200000000000000000102000000000D0E
:1010600080526567426567000000000000020200D0
:10107000000000CD80526567456E640000000000EE
:1010800000030200000000810045455361766500C1
:10109000000000000000004A1E000001004545421B
:1010A00061636B7570000000000000261E0000C127
:1010B000004545526573746F72650000000000388A
:1010C0001E00008100506F7765724F6E00000000B7
:1010D000000000DD2F00000100506F7765724F6641
:1010E00066000000000000E62F0000C100502E52F4
:1010F0006573746172740000000000EE2F00008AB6
:10110000004D6F645265616400000000007A0300C6
:1011100000221E0A004D6F6457726974650000005A
:10112000007B030000221E0A084D6F644F4B000035
:1011300000000000006D020000000001004D6F641F
:10114000546573740000006311000000000000C1CA
:10115000004D6F6441737369676E005312000000A5
:1011600000181E81004D6F642E3000000000000347
:101170001200009C1B000001004D6F642E31000026
:10118000000000031201009C1B000001004D6F6471
:101190002E320000000000031202009C1B00000120
:1011A000004D6F642E330000000000031203009C0A
:1011B0001B000001004D6F642E340000000000038E
:1011C0001204009C1B000001004D6F642E350000CE
:1011D000000000031205009C1B000001004D6F641D
:1011E0002E360000000000031206009C1B0000C108
:1011F000004D6F642E370000000000031207009CB2
:101200001B000081005265616400000000000000C6
:101210000000009D1C00000B0057726974650000FF
:101220000000000000D505331B6F1B0100546573DF
:10123000745074726E000000000000742B0000C136
:10124000004C6F6F7054737400000000000000D2F7
:101250001C000081004D616E2E330000000000571D
:10126000130000D01B000001004D616E2E32000003
:1012700000000057130100D01B000001004D616EFB
:101280002E31000000000057130200D01B000001A7
:1012900000506564616C000000000057130300D02B
:1012A0001B0000C10052656769737465720000B766
:1012B000120400000000008100536563742E3100A9
:1012C000000000A7130000001C000001005365632C
:1012D000742E3200000000A7130100001C00000162
:1012E00000536563742E3300000000A71302000052
:1012F0001C00000100536563742E3400000000A739
:10130000130300001C00000100536563742E3500B8
:10131000000000A7130400001C00000100536563D7
:10132000742E3600000000A7130500001C00000109
:1013300000536563742E3700000000A713060000F9
:101340001C0000C100536563742E3800000000A724
:10135000130700001C00008100536563742E3100E8
:10136000000000E3130000DB1B0000010053656375
:10137000742E3200000000E3130100DB1B000001AB
:1013800000536563742E3300000000E3130200DB9A
:101390001B0000C100536563742E3400000000E39D
:1013A000130300DB1B00008D8052656742656700F8
:1013B00000000000001F08000000000D805265675B
:1013C000456E64000000000000200800000000C519
:1013D000804D6F64756C652F4269740000210800B0
:1013E00000000084904E6F74654265670000000045
:1013F0000060090000000004904E6F7465456E6443
:101400000000000000610900000000C5804D6F640D
:10141000756C652F4269740000620900000000814C
:10142000204C6F670000000000000000000000CDAD
:101430002900000100555342000000000000006F29
:101440001400000000000002404D4944492D496E3F
:101450000000000000000051290000C2404D494436
:10146000492D4F75740000000000008F290000898D
:10147000004576656E744C6F67000000007E1600B4
:1014800000851E010053656E644C6F67000000000C
:101490000000005C1E0000C100536E6448574366A4
:1014A000670000000000009D1E000056302E3835F9
:1014B0000001000200020103000301030200010019
:1014C0000201020003010302033100300054657879
:1014D00074800045786974007E617573007E65696B
:1014E0006E0045696E80002D002B007F007E000994
:1014F0000008000D0A0011241FBECFEFD1E2DEBFAD
:10150000CDBF00E00CBF12E0A0E0B2E0EAE5F2E8F7
:1015100000E00BBF02C007900D92A832B107D9F7C7
:1015200029E1A8E2B2E001C01D92AC34B207E1F7B4
:101530000E94F9170C942B410C940000FC018FEFD2
:101540009FEF1CC0DF01119620818227282F229552
:101550002827022E269526952025022E2695202521
:101560002770082E892F269507942795902D82277E
:101570000694279590258227BA01FD01AB014150C1
:101580005109672BF9F60895EF92FF920F931F937D
:10159000CF93DF93CFEFDFEF21C07C012FEFE21A73
:1015A000F20A0E94F9409E012827822F8295822705
:1015B000082E869586958025082E8695802587702D
:1015C000022E232F869507948795302D2827069481
:1015D000879530252827E901B801C7018B01015003
:1015E0001109672BD1F6CE01DF91CF911F910F9199
:1015F000FF90EF900895FC01CA011CC0DF01119615
:1016000020818227282F22952827022E269526958D
:101610002025022E269520252770082E892F269515
:1016200007942795902D8227069427959025822749
:10163000BA01FD01AB0141505109672BF9F608953C
:10164000EF92FF920F931F93CF93DF93EA0121C094
:101650007C012FEFE21AF20A0E94F940AE014827FE
:10166000842F82958427082E869586958025082EBE
:10167000869580258770042E452F8695079487953B
:10168000502D48270694879550254827EA01B80130
:10169000C7018B0101501109672BD1F6CE01DF91F3
:1016A000CF911F910F91FF90EF900895CF93DF930B
:1016B00082E390E00E940141EC0160E370E082E08F
:1016C00090E062DFC817D90781F481E090E00E94C2
:1016D000F9408D3451F440E350E062E070E080E680
:1016E00099E00E94E94080E006C080912802816074
:1016F000809328028FEFDF91CF910895CF93DF93EE
:1017000085E391E00E940141EC0160E071E085E336
:1017100090E03ADFC817D90781F484E390E00E9493
:10172000F940893451F440E051E065E370E080E530
:1017300098E00E94E94080E006C080912802826023
:10174000809328028FEFDF91CF910895CF93DF939D
:1017500083E491E00E940141EC016BE070E088E3DA
:1017600091E012DFC817D907C1F487E391E00E9426
:10177000F9408F3491F448E050E068E371E080E58F
:1017800099E00E94E94043E050E060E471E088E5C0
:1017900099E00E94E94080E006C0809128028460C0
:1017A000809328028FEFDF91CF910895CF93DF933D
:1017B00088E491E00E940141EC0161E070E086E480
:1017C00091E0E2DEC817D907A1F485E491E00E9418
:1017D000F940893671F486E491E00E94F940CAE745
:1017E000D3E0888387E491E00E94F940898380E018
:1017F00006C0809128028860809328028FEFDF91D5
:10180000CF910895CF93DF9387EF93E00E9401413A
:10181000EC0162E070E085EF93E0B6DEC817D9070F
:1018200081F484EF93E00E94F940843551F442E062
:1018300050E065EF73E08EE498E00E94E94080E0BC
:1018400006C0809128028260809328028FEFDF918A
:10185000CF910895CF93DF938CE491E00E940141F2
:10186000EC0161E070E08BE491E08EDEC817D907EF
:1018700071F48AE491E00E94F940853541F48BE4EB
:1018800091E00E94F94080937E1680E006C080912E
:1018900028028860809328028FEFDF91CF9108950E
:1018A000CF93DF9361E070E08FE491E06DDEAC01F7
:1018B00068E170E080E591E0C3DEEC0188E691E04C
:1018C0000E940141C817D907B1F48EE491E00E944B
:1018D000F940823581F48FE491E00E94F9408093D1
:1018E000380848E150E060E571E08FE198E00E943F
:1018F000E94080E006C0809128028062809328023F
:101900008FEFDF91CF910895CF93DF938BEE93E02C
:101910000E940141EC0160E872E08BE691E034DE68
:10192000C817D90781F48AE691E00E94F940803512
:1019300051F440E852E06BE671E080E999E00E94E2
:10194000E94080E006C080912802806480932802EC
:101950008FEFDF91CF910895CF93DF9382EF93E0E4
:101960000E940141EC0164E070E08EEE93E00CDE39
:10197000C817D90751F444E050E06EEE73E08BEDE8
:1019800095E00E94E94080E006C0809128028068CE
:10199000809328028FEFDF91CF910895CF93DF934B
:1019A0008AE194E00E940141EC0160E270E08AEF7C
:1019B00093E0EADDC817D90751F440E250E06AEF3E
:1019C00073E080E092E00E94E94080E006C08091F0
:1019D00028028062809328028FEFDF91CF910895D3
:1019E000CF93DF9381E294E00E940141EC0164E037
:1019F00070E08DE194E0C8DDC817D90751F444E0E8
:101A000050E06DE174E08CE599E00E94E94080E0EF
:101A100006C0809128028062809328028FEFDF91B8
:101A2000CF91089560E080E090E00E94154165E666
:101A300083E294E00C9415410895CF93DF9360E323
:101A400070E080E699E07ADDEC010E9413406DE4DD
:101A500081E090E00E94154140E350E062E070E0D8
:101A600080E699E00E940641BE0182E390E00E9478
:101A70002741D8DF0E942140DF91CF910895CF9375
:101A8000DF9360E071E080E598E058DDEC010E94B2
:101A9000134069E484E390E00E94154140E051E086
:101AA00065E370E080E598E00E940641BE0185E3B1
:101AB00091E00E942741B6DF0E942140DF91CF9143
:101AC0000895CF93DF9368E070E080E599E036DD1C
:101AD000AC0163E070E088E599E08DDDEC010E94E7
:101AE00013406FE487E391E00E94154148E050E025
:101AF00068E371E080E599E00E94064143E050E030
:101B000060E471E088E599E00E940641BE0183E44B
:101B100091E00E94274186DF0E942140DF91CF9112
:101B200008950F931F93CF93DF9361E070E08AE7EE
:101B300093E004DD8C010E94134069E685E491E0A6
:101B40000E941541CAE7D3E0688186E491E00E94D3
:101B50001541698187E491E00E941541B80188E44C
:101B600091E00E9427415EDF0E942140DF91CF91EA
:101B70001F910F910895CF93DF9361E070E08EE79E
:101B800096E1DCDCEC010E94134065E58AE491E01B
:101B90000E94154160917E168BE491E00E941541F0
:101BA000BE018CE491E00E9427413CDF0E9421406D
:101BB000DF91CF910895CF93DF9362E070E08EE4E0
:101BC00098E0BCDCEC010E94134064E584EF93E0F4
:101BD0000E94154142E050E065EF73E08EE498E02A
:101BE0000E940641BE0187EF93E00E9427411ADF61
:101BF0000E942140DF91CF910895CF93DF9361E060
:101C000070E088E398E09ADCAC0168E170E08FE175
:101C100098E0F1DCEC010E94134062E58EE491E073
:101C20000E941541609138088FE491E00E941541AF
:101C300048E150E060E571E08FE198E00E940641E4
:101C4000BE0188E691E00E942741ECDE0E9421401F
:101C5000DF91CF910895CF93DF9360E872E080E940
:101C600099E06CDCEC010E94134060E58AE691E0AB
:101C70000E94154140E852E06BE671E080E999E08E
:101C80000E940641BE018BEE93E00E942741CADE0E
:101C90000E942140DF91CF910895CF93DF9364E0BC
:101CA00070E08BED95E04ADCEC010E9413406BE4A0
:101CB0008DEE93E00E94154144E050E06EEE73E03B
:101CC0008BED95E00E940641BE0182EF93E00E94F9
:101CD0002741A8DE0E942140DF91CF910895CF9344
:101CE000DF9360E270E080E092E028DCEC010E948B
:101CF000134062E789EF93E00E94154140E250E013
:101D00006AEF73E080E092E00E940641BE018AE142
:101D100094E00E94274186DE0E942140DF91CF910E
:101D20000895CF93DF9364E070E08CE599E006DCE2
:101D3000EC010E94134063E48CE194E00E941541A1
:101D400044E050E06DE174E08CE599E00E940641CA
:101D5000BE0181E294E00E94274164DE0E9421409E
:101D6000DF91CF91089569DE8ADEABDEDADE03DF34
:101D700044DF71DF92DF1FDFB2DFD3CF0895CF9250
:101D8000DF92EF92FF920F931F93CF93DF93EB01BC
:101D900011C07C012FEFE21AF20A0E94F9406E0195
:101DA0009FEFC91AD90A682FCE010E941541A801D8
:101DB000E601C7018A0101501109452B51F7DF9156
:101DC000CF911F910F91FF90EF90DF90CF900895EA
:101DD0000E94134040E058E060E078E080E090E04E
:101DE000CEDF0C94214008950E94134040E058E05B
:101DF00060E070E080E098E0C2DF0C94214008953C
:101E000080E00AC0E82FF0E0EE0FFF1FE05BFD4F1F
:101E10009FEF908311828F5F8B30A0F3E6E6F2E0B4
:101E200010821182128213828FEF80937C030895B7
:101E300082E084BD93E095BD80936E0089EF87BDFD
:101E400085B18F7785B984B1806884B9089587E8B2
:101E500080937A0010927B008FE780937C0081E072
:101E600080937E0010927F00EEE6F3E010828FEF09
:101E7000818382838093290280E010C0853039F409
:101E8000E82FF0E0EC58FC4F96E0908306C0E82F76
:101E9000F0E0EC58FC4F9AE090838F5F863070F34F
:101EA00008958FEF88B987B982B911B884B3876074
:101EB00084BB83B3876083BB8BB18F778BB98AB1C7
:101EC00080688AB980E00EC0E82FF0E0EE0FFF1FB7
:101ED000EE0FFF1FEE0FFF1FE259FD4F9FEF9183A3
:101EE00090838F5F803280F310926B0210926A02AF
:101EF00008955CDC8F3F59F440E050E060E081E001
:101F00000E94E017EAE7F3E08FEF808381838BB1D3
:101F10008F778BB984B3876084BB84B38B7F84BB9A
:101F200085E08A95F1F7000084B3846084BB90E279
:101F300084B3816084BB90FD02C085E501C08AEA5C
:101F400088B980B180936D0380936C0380936B0399
:101F500080936A03809369038093680384B38E7FC0
:101F600084BB85E08A95F1F70000915009F790E273
:101F70000FC084B3816084BB82E08A95F1F700C012
:101F800084B38E7F84BB82E08A95F1F700C09150C4
:101F90009111EFCF8FEF80936D0290E284B3816057
:101FA00084BB8FEF88B920B190FD02C08AEA01C0DE
:101FB00085E5822720916D02822380936D0284B390
:101FC0008E7F84BB85E08A95F1F70000915031F750
:101FD0000000000084B3816084BB84B3876084BB4D
:101FE00084B38B7F84BB82E08A95F1F700C084B311
:101FF000846084BB90E2E6E6F3E08381828384819F
:10200000838384B3816084BB8FEF818388B98581AA
:1020100084838681858380B186838283838384835E
:102020008583878384B38E7F84BB3897915029F74B
:102030000000000084B3816084BB84B38D7F84BBC7
:1020400018B885E08A95F1F7000084B3826084BBFC
:10205000EAE7F3E081814081842B90916D0289173A
:1020600039F050E0542F4427492B60E082E0A8C7A4
:102070000895883008F06AC031E001C0330F8A95B6
:10208000EAF780E880936B028BB18F778BB984B3CA
:10209000876084BB40E01DC020FD03C0832F809576
:1020A00001C08FEF88B9269582E08A95F1F700C0CC
:1020B00084B38E7F84BB82E08A95F1F700C084B33D
:1020C000816084BB9F5F02C090E025EA983020F3D6
:1020D0004F5F4430C8F390E00FC082E08A95F1F77B
:1020E00000C084B38E7F84BB82E08A95F1F700C084
:1020F00084B3816084BB9F5F903278F390E040E0CE
:1021000050E0BA0117C0440F551F661F771F82E0C9
:102110008A95F1F700C084B38E7F84BB80B183239E
:1021200009F0416082E08A95F1F700C084B38160D4
:1021300084BB9F5F903238F310926B028BB1806842
:102140008BB9342F252F862F972F04C030E020E045
:1021500080E090E0632F722F089590E0EEE6F2E0C9
:1021600080E006C02FEF21832681822B38969F5F67
:102170009032C0F390917A03892390916D02892364
:10218000089510926B0280916B0281FFFCCF109238
:102190006B0280916B0281FFFCCF089581E08093F8
:1021A0006A029FB7F89406C0E0E5F2E088E2828315
:1021B000138280E08111F8CF9FBF089580916A0259
:1021C000813031F5CADF811114C085B1806485B9D1
:1021D00082E180936A029FB7F89481E006C0E0E54F
:1021E000F2E081E08283138280E08111F8CF9FBF0B
:1021F00008959FB7F89481E007C0E0E5F2E08CE035
:10220000828382E0838380E08111F7CF9FBF0895AE
:102210008231B1F4A2DF811104C084E180936A02AB
:102220000BC0482F50E060E085E0CAD685B18F7BB7
:1022300085B980E880936A028FEF809352020895F7
:102240008FEF80935202089590E00DC0943050F4C7
:10225000E92FF0E0811102C02AE001C026E0EC582D
:10226000FC4F20839F5F963088F308951F920F9252
:102270000FB60F9211240BB60F92EF92FF920F93AD
:102280001F932F933F934F935F936F937F938F93FE
:102290009F93AF93BF93CF93DF93EF93FF9385B15A
:1022A000806885B980916C028F5F80936C02837027
:1022B000813009F458C138F0823009F4A5C1833067
:1022C00009F4CAC105C28091290281111AC19091F5
:1022D0007A0096FD16C1282F30E0F901EE0FFF1F9E
:1022E000E20FF31FEE0FFF1FE259FC4F9181409167
:1022F00079004183491710F4941B03C0542F591BD4
:10230000952F943008F0FDC081110EC0423270F05C
:102310004F3370F0483670F0463970F04F3B70F034
:10232000483E70F4C6E00DC0CFEF0BC0C4E009C05A
:10233000C3E007C0C5E005C0C1E003C0C2E001C002
:10234000CFEFF901EE0FFF1FE20FF31FEE0FFF1F9C
:10235000E259FC4FD281DC1709F448C0DF3F19F085
:10236000CF3F09F0CFEFF901EE0FFF1FE20FF31F90
:10237000EE0FFF1FE259FC4FC283DF3FF9F4C901A2
:10238000880F991FFC01E20FF31FEE0FFF1FE259A8
:10239000FC4F15821482FC01E20FF31FEE0FFF1FAA
:1023A000E259FC4F1382EC2FF0E0ED58FC4F808196
:1023B00080FFA7C08C2F0E940A30A3C0ED2FF0E051
:1023C000ED58FC4F808181FF9CC0F901EE0FFF1F8B
:1023D000E20FF31FEE0FFF1FE259FC4F8381837062
:1023E00009F08FC08D2F0E940A308BC0CF3F09F4B7
:1023F00088C0F901EE0FFF1FDF01A20FB31FAA0F64
:10240000BB1FA259BC4F14968D919C9115970196B4
:1024100015969C938E931497FD01848195818B343E
:102420009105A9F4ED2FF0E0ED58FC4F808182FF7B
:102430000EC08C2F80680E940A30E091290286E04D
:10244000E89FF0011124E259FC4F82E08383ED2FD5
:10245000F0E0ED58FC4F808183FF53C0809129024A
:1024600090E0FC01EE0FFF1FE80FF91FEE0FFF1FBA
:10247000E259FC4F238121111EC0FC01EE0FFF1F0A
:10248000E80FF91FEE0FFF1FE259FC4F2481358141
:1024900022333105B1F526E0289FF001299FF00D88
:1024A0001124E259FC4F81E08383158214828C2F22
:1024B0000E940A3026C0FC01EE0FFF1FE80FF91F33
:1024C000EE0FFF1FE259FC4F23812130D1F426E0AB
:1024D000289FF001299FF00D1124E259FC4F24811F
:1024E00035812C30310569F426E0289FF001299FC1
:1024F000F00D1124E259FC4F158214828C2F0E949A
:102500000A30809129028F5F80932902843010F075
:10251000109229028091290281110CC090E0FC01E7
:10252000EE0FFF1FE80FF91FEE0FFF1FE259FC4FE0
:10253000808101C08FE1982F9F71906690937C00FD
:10254000EBE7F0E02081807290E095958795959576
:102550008795922F9F7D892B8083EAE7F0E0808129
:1025600080648083B5C080916B02803809F4B0C06C
:1025700084B3876084BB84B38B7F84BB20917B034F
:102580002095E2E0EA95F1F700C084B3846084BB53
:1025900090E2E6E6F3E0838182838481838384B3DF
:1025A000816084BB8181822B88B985818483868107
:1025B000858380B1868384B38E7F84BB38979150A6
:1025C00051F70000000084B3816084BB84B38D7F29
:1025D00084BB80916B02826080936B0218B88BB1D0
:1025E00080688BB984B3826084BB72C08081815063
:1025F0008E3F38F421812F5F253010F0808320E05A
:10260000218332969F5F03C090E0E0E5F2E09B30CB
:1026100068F3E6E6F2E080818F5F80838A3F09F00D
:1026200057C08FEF80937C03108281818F5F8183FD
:102630008C3308F44DC0118282818F5F82838C338A
:1026400008F446C0128283818F5F8383843608F446
:102650003FC0109269023CC080916B028038C1F18A
:10266000E0907A0380916D02E822F12C0EE612E0F0
:102670002CC0F801C28183819C2F9823C82B8481B0
:102680009823C82B25819223C22B86819823C82B9F
:10269000D781CD23C92BC7838D2F80958C238E2185
:1026A00021F09F2D90620E944A30C095CD238C2F3F
:1026B0008E2119F09F2D0E944A30085F1F4F809194
:1026C0006B02816080936B02F394FFE1FF1588F643
:1026D00085B18F7785B9FF91EF91DF91CF91BF9150
:1026E000AF919F918F917F916F915F914F913F91AA
:1026F0002F911F910F91FF90EF900F900BBE0F90B5
:102700000FBE0F901F901895E82FF0E0EE0FFF1FFF
:10271000EE0FFF1FEE0FFF1FE259FD4F6095818105
:10272000682361830895E82FF0E0EE0FFF1FEE0F9E
:10273000FF1FEE0FFF1FE259FD4F8181682B618360
:1027400008958FEF82B985B988B98BB98EB981BBED
:1027500084BB8093020180930501809308018093DC
:102760000B018AB180688AB98BB18F778BB984B13C
:10277000806484B985B18F7B85B90895882334F44A
:10278000E2E0F1E090819061908305C0E2E0F1E049
:1027900090819F7E908386FF06C0E2E0F1E0908109
:1027A0009860908305C0E2E0F1E09081977F90838C
:1027B00085FF04C09EB198609EB903C09EB1977F0B
:1027C0009EB984FF04C084B3806284BB03C084B319
:1027D0008F7D84BBE2E0F1E080818064808385E0CE
:1027E0008A95F1F7000080818F7B808385E08A9550
:1027F000F1F700000895CF93C82FE2E0F1E0808167
:102800008062808380818F7B80838C2FB7DF8C2FC9
:102810008295807FB3DF8FEF90E00197F1F700C0E2
:102820000000CF910895CF93C82FE2E0F1E08081BE
:102830008F7D808380818F7B80838C2F9FDF8C2F87
:102840008295807F9BDFC150C23038F48FE097E2E1
:102850000197F1F700C0000006C08FEF90E00197EC
:10286000F1F700C00000CF9108951092D003E1E08D
:10287000F1E08081806180838081886080838DB178
:1028800088608DB983B3806283BB808180648083DC
:102890008081806280832FEF81EE94E02150804020
:1028A0009040E1F700C00000E2E0F1E080818F7D20
:1028B000808380818F7B808380E360DF8FE19EE473
:1028C0000197F1F700C0000080E358DF8FE19EE43C
:1028D0000197F1F700C0000080E350DF8FE19EE434
:1028E0000197F1F700C0000088E248DF8FEF90E029
:1028F0000197F1F700C0000088E295DF88E093DFE0
:1029000081E091DF86E08FDF8CE08DCF08958093AA
:10291000CF03805888CF08951092CF0381E083DFE2
:1029200080E0EEE7F3E004C090E290838F5F3196A1
:102930008035D0F30895843198F090EC980F94315D
:1029400010F48C5208959CEE980F943110F48C5E24
:1029500008959CEA980F943110F4885108958FEFF0
:102960000895CF93DF93D82F8091D003882331F03F
:102970008091CF03803410F0843510F08D2F3BDF31
:10298000C091CF038C2FD7DF8F3F29F1D13A79F057
:10299000D03879F0D53A79F0DA3279F0D23E79F060
:1029A000D53F79F0DF3E79F0D13E81F40EC0D0E220
:1029B0000DC0D0E20BC0D4E109C0D5E107C0D3E11E
:1029C00005C0D2E103C0D1E101C0D0E1E82FF0E0C1
:1029D000E258FC4FD083CF5FCF77C093CF03DF9116
:1029E000CF910895CF93DF93FC01892B19F407C091
:1029F000B8DFFE01EF01219680818111F9CFDF91CF
:102A0000CF910895CF93DF93FC01892B19F407C070
:102A1000A8DFFE01EF01219684918111F9CFDF91AA
:102A2000CF910895FF920F931F93CF93DF938C0163
:102A3000F090CF0380917D038093CE03C8010E9464
:102A4000CA40D82F80E463DFC0E003C080E2D3DE59
:102A5000CF5F2C2F30E084E190E08D1B910995959C
:102A600087952817390794F304C00F5F1F4FC3DE03
:102A7000CF5FF80180818111F8CF03C080E2BBDE17
:102A8000C12F11E01C0FC431C8F38F2D40DF8FEF31
:102A90008093D0039FB7F89481E006C0E0E5F2E0B0
:102AA00084E68687178680E08111F8CF9FBFDF918B
:102AB000CF911F910F91FF900895FF920F931F9355
:102AC000CF93DF938C01D091CF0380917D038093CE
:102AD000CE03C8010E94C040F82E80E418DFC0E099
:102AE00003C080E288DECF5F2C2F30E084E190E0ED
:102AF0008F199109959587952817390794F306C082
:102B00000F5F1F4FFC01849176DECF5FC801F80193
:102B100024912111F5CF03C080E26DDEC12F11E0B9
:102B20001C0FC431C8F38D2FF2DE8FEF8093D003DA
:102B30009FB7F89481E006C0E0E5F2E084E686877E
:102B4000178680E08111F8CF9FBFDF91CF911F9151
:102B50000F91FF900895EF92FF921F93CF93DF9311
:102B6000EB0190E0880F991F880F991F880F991F1C
:102B7000806459DE10E009C07E018FEFE81AF80A80
:102B8000FE01849138DE1F5FE7011830A8F3DF9162
:102B9000CF911F91FF90EF9008956CE971E080E074
:102BA000DADF64E971E081E0D6DF6CE871E082E0B1
:102BB000D2DF64E871E083E0CEDF6CE771E084E0AF
:102BC000CADF64E771E085E0C6DF6CE671E086E0AD
:102BD000C2DF64E671E087E0BECF08958DE023DEBA
:102BE0008FEF80937D0308958CE01DDE10927D03AE
:102BF00008950F931F93CF93DF930091CF0380E449
:102C00009ADEC82F80E483DED0E022C011E01C0FE2
:102C1000EC2FF0E0E258FC4F8081843159F085318F
:102C200059F0833159F0823159F0813159F08031B6
:102C300061F40AC085EA09C08AE207C082EE05C0D5
:102C400085EF03C08FEE01C081EED5DDDF5FC12FC0
:102C5000D431E0F2802F5BDE8091CE038F3F11F400
:102C6000BDDF01C0C1DF1092D003DF91CF911F9172
:102C70000F9108958AEF93E090938D0580938C05D2
:102C800090938B0580938A05089580918A05909191
:102C90008B0520918C0530918D058217930748F0A4
:102CA000821B930B959587959DEC899F802D112410
:102CB000089580579E4F821B930B959587959DECA9
:102CC000899F802D11240895CF93C82FDEDFC81768
:102CD000F8F440918C0550918D058C2F90E09C016B
:102CE000220F331F880F991F880F991F880F991F74
:102CF000280F391FCA01820F931F65E0803896079D
:102D000049F040F020593140CA01820F931F02C0A0
:102D100080E090E0CF910895D7DF0097F1F1FC01BA
:102D20003681678120E034C0422F50E0FA01EE0F77
:102D3000FF1FCF01880F991F880F991F880F991FB8
:102D4000E80FF91FE655FE4F8491381320C0FA01B1
:102D5000EE0FFF1FCF01880F991F880F991F880F53
:102D6000991FE80FF91FE555FE4F849168130FC0B6
:102D7000440F551FCA01880F991F880F991F880F8C
:102D8000991F480F591FCA0184559E4F08952F5F00
:102D9000223150F280E090E0089580E090E00895C4
:102DA000CF9373DF1092D103811114C017C08C2F01
:102DB0008BDF009761F0FC012481203251F0958176
:102DC0008C2F953439F48FEF8093D10307C08C2F6B
:102DD00001C08C2FCFEFC80F8111E9CFCF9108959B
:102DE0001F93CF93DF93009709F47BC0162FEC015C
:102DF0008B81882379F062ED73E00E941A3EBC015A
:102E00006F5F7F4F28E6FC0120838A810E941A3E73
:102E1000DC012FC08A81882379F062ED73E00E9483
:102E20001A3EBC016F5F7F4F2DE6FC012083898134
:102E30000E941A3EDC011DC062ED73E089810E9490
:102E40001A3EFC0183E780839881990F20E002C03D
:102E500099512F5F9931E0F7205D2183990F20E090
:102E600002C095502F5F9530E0F7DF011396205D8B
:102E700022839C81903451F0903819F0903281F483
:102E80000AC0FD0131968AE28C930EC0FD01319695
:102E900085EA8C9309C0FD01319680E28C9304C0D1
:102EA000FD0131968FE38C93BF016F5F7F4F8D8162
:102EB00080838E810E945D3EBC018F810E945D3EB9
:102EC000BC016F5F7F4F2DE2FC01208388859985CF
:102ED0000E94983EFC0110821F3F41F01C8360DF7E
:102EE00005C0E2EDF3E08DE28083118282ED93E094
:102EF000DF91CF911F910895E0918A05F0918B05A4
:102F0000A6E6B2E09C919083E0918A05F0918B0552
:102F100011969C9111979183E0918A05F0918B0510
:102F200012969C911297928313969C91938325837A
:102F3000868367835187408780E8848380917E16EB
:102F40008F3F81F484EA91E00E949C3B6FEF809177
:102F50008A0590918B0544DF0E94113C83EF94E138
:102F60000E949C3B80918A0590918B050A969093D4
:102F70008B0580938A058058954039F030F08AEFB0
:102F800093E090938B0580938A0520918A05309178
:102F90008B0580918C0590918D052817390779F460
:102FA0000A9690938D0580938C058058954039F052
:102FB00030F08AEF93E090938D0580938C0508950F
:102FC00025E49ADF8FEF8093D103089527E594CF0E
:102FD0000895CF93C62F78DE009719F06C2F00DF8D
:102FE00006C0E2EDF3E08DE280831182CF01CF9144
:102FF0000895A7DB3FDE0E94AE3B0E9403300E9493
:10300000180F0E94000F0E94270F0E94510F0E946C
:10301000EC390E94790F0E94D1340E9411350E9430
:1030200095300E940E310E9419340E94A2350E94F0
:10303000A42E0E94B30E1092EA0517DCAEDD6CDC04
:1030400083E465DC89E093E0DDDC8BE160DC8BEA26
:1030500094E1D8DC78942FEF47E98AE3215040408F
:103060008040E1F700C000000E94A63C55DC96D8E5
:103070008FEF80931B0880938F058EEF80938E05D2
:10308000DFEF20912A1430912B1480912514909118
:1030900026142817390709F466C00E94103DC82F6E
:1030A00080938E050E949F3A8FE78C0F863028F41C
:1030B00080E88C0F0E940A3056C0C03909F053C016
:1030C00080911D14803909F04EC091E0E92F092E3E
:1030D000000CFF0BE35EFB4E80818D3319F09F5F88
:1030E0009830A4F398300CF03EC0892F859520E0ED
:1030F00006C0E22FF0E0E958F94E10822F5F23302E
:10310000C0F32CC0E92F092E000CFF0BE35EFB4E31
:10311000308120ED230F2A3010F027ED230FA22F4E
:10312000AF70E7E7F6E1628120E1629FB001112410
:103130004181242F22952F70622B628320E1429FD0
:10314000A00111242081322F32953F70432B4183FF
:1031500040E1249F900111242A2B208391501916BD
:103160008CF20E9480380E943730882309F453C0C3
:103170008091D0038F3F09F43CDD0E941E30C82FA0
:103180008638B9F40E94C1390E9441370E94B13398
:103190000E948B306FDD10926D151092761685B1FE
:1031A000806485B983E180936A028EEE92E085DCCB
:1031B00032C080918F058F3FF9F48C2F8F73C5300B
:1031C00069F460E070E080E090E00E947A230E9461
:1031D0004C2C10928F0580E037D81DC09FEF980FC0
:1031E0009430C8F40E94682F6C2F0E947D2F80932A
:1031F0008F050E94292F0FC08091EA05811106C01A
:103200008C2F0E94532C80938F0505C08DEF8093E7
:10321000CE050E948B2A80918F058F3F69F4DF3F96
:1032200061F40E94982B0E94292F8FEF0DD88FEF09
:1032300080933708D0E001C0DFEF80915E028111FA
:1032400004C0D7DC8FEF80935E0280915C02811115
:103250000AC08091EA05882319F00E948B2A03C0D6
:103260008FEF80935C028091520281111BC00E94FB
:10327000DE100E94C92F80918F058F3F99F4C09175
:10328000CF0384E144DB80916A02813021F487EF2F
:1032900092E0B8DB05C0823119F484E10E94F03F6E
:1032A0008C2F35DB80918E059FE7980F963010F0BC
:1032B0008E3F09F580917D038F3F31F48091CF03DC
:1032C0003ADB0E94DA3C03C08FE70E94DA3C81E8D7
:1032D0000E94DA3CC0E0EEE7F3E008C08F010F5F28
:1032E0001F4F80810E94DA3CCF5FF801C035B0F3F8
:1032F00080E80E94DA3C8FEF80938E050E94D039DF
:103300000E944B37C091CF0380915802882329F047
:10331000809158028F3F09F070C080911E08803460
:1033200008F46BC0809123028F3F91F180E0EFDAC7
:10333000809121028F3F69F4809122020E94CD3F4B
:103340008FE30FDB809123020E947C3F80E209DB48
:103350000CC0809123020E947C3F8EE702DB8091AB
:1033600021020E94DE3F80E2FCDA8C2FD0DA8FEF60
:10337000809323029FB7F89481E006C0E0E5F2E075
:1033800083E28087118680E08111F8CF9FBF35C02E
:10339000809120028F3F21F180E0B9DA80E7E1DA05
:1033A0008091200286958695869587708F5BD9DA05
:1033B0008091200287708F5CD4DA8EE7D2DA8FEFAB
:1033C000809320029FB7F89481E006C0E0E5F2E028
:1033D00083E28087118680E08111F8CF9FBF0DC006
:1033E00080915802811109C092DA86E00E94F03F74
:1033F0008C2F8DDA8FEF8093580280915A028F3F85
:1034000021F080915A0281115CC0809125028F3F8A
:10341000F9F08FE07CDA809124020E94DE3F8EE793
:10342000A0DA809125020E947C3F8C2F70DA8FEF0A
:10343000809325029FB7F89481E006C0E0E5F2E0B2
:1034400088E28287138680E08111F8CF9FBF39C060
:1034500080915B098F3F39F18FE059DA82E581DA9B
:1034600080915B098F778F5F0E94003E80915B099E
:10347000882314F08AE001C08BE073DA80E271DA0D
:103480008C2F45DA8FEF80935B099FB7F89481E02A
:1034900006C0E0E5F2E088E28287138680E08111D1
:1034A000F8CF9FBF0EC080915A0281110AC08FE0F1
:1034B0002EDA85E00E94F03F8C2F29DA8FEF80937F
:1034C0005A0280918F058F3F71F5809137088F3FA9
:1034D00021F080916202811126C0109237089FB7B7
:1034E000F89481E006C0E0E5F2E084E1828B138A83
:1034F00080E08111F8CF9FBF0ADA0E94F8338091F3
:103500006A02813081F080911E08803450F48091ED
:103510002A020E94243480912A02809580932A02F4
:1035200002C00E94A83480917C038F3F09F07CC0C8
:1035300010927C03F090CF03C0917D03CF3F09F43C
:1035400053DB80916902882359F08091670280FDE6
:103550000EC00F2EFAE3EF2EF02D09E612E00CC09C
:103560000F2EFAE3EF2EF02D08E612E005C0689466
:10357000EE24E5F809E612E087E0C9D9F801808178
:103580000E94003E8E2DEDD9F801319780810E9476
:10359000003E40917B16442331F050E060E083E030
:1035A0000FDD10927B1640918216442331F050E0DB
:1035B00061E083E005DD1092821680916A0284FF4B
:1035C00002C080E201C089E0CCD98091D1038F3F55
:1035D00011F485E401C080E2C4D98F2D98D9CF3F82
:1035E00009F4FCDA809158028F3F69F49FB7F89490
:1035F00081E006C0E0E5F2E08DE78087118680E09B
:103600008111F8CF9FBF80915A028F3F69F49FB715
:10361000F89481E006C0E0E5F2E08DE7828713864A
:1036200080E08111F8CF9FBF80911C088F3F39F453
:1036300010921C0840E050E060E084E0C1DC909112
:10364000701680917F16981721F00E94E83A0E9428
:10365000D3370E9481308F3F09F013CD0E946C3028
:103660000E94B1380ECD1092D5051092D605109259
:10367000D7051092D80581E090E00090A00502C027
:10368000880F991F0A94E2F7482F30E0E6E6F3E04E
:1036900022C08091D5059091D605A091D705B09113
:1036A000D805880F991FAA1FBB1F8093D50590933B
:1036B000D605A093D705B093D8052181242349F0DE
:1036C00081608093D5059093D605A093D705B093DC
:1036D000D80538973F5F3032E0F280E0089540919E
:1036E000D5055091D6056091D7057091D8058530E4
:1036F00009F5A1E0B0E00090A00502C0AA0FBB1F31
:103700000A94E2F73A2F90E0E6E6F3E011C077235F
:1037100024F48181832B818305C021818A2F8095A8
:1037200082238183440F551F661F771F38979F5F41
:10373000903268F380E00895E091D105F091D205D0
:103740003E96859195918093A00580E00895E09143
:10375000D105F091D2053E96859195918093CF0544
:1037600080E00895E091D105F091D2053E96259133
:1037700035912093DF058091CF058F7090E0237005
:10378000880F991F880F991F820F911D880F991F0D
:10379000880F991F9093DA058093D90580E00895EA
:1037A000E091D105F091D2053E9685919591809357
:1037B0009F0580E00895E091D105F091D2053E96F5
:1037C000859195918093DF0520919F052F7030E0C2
:1037D000837090E0A901440F551F240F351F220F5D
:1037E000331F220F331FAC01440F551F840F951F49
:1037F000820F931F9093DA058093D90580E0089596
:10380000E091D105F091D2053E96859195918093F6
:10381000DF05877090E09C01220F331F820F931FFA
:103820009093DA058093D90580E00895E091D10561
:10383000F091D2053E96859195918093DF05877032
:1038400090E0880F991F880F991F9093DA05809355
:10385000D90580E00895E091D105F091D2053E961A
:1038600085919591843060F4FC01FF27EE0FFF1FD6
:10387000EE51FA4F808191819093F6058093F50582
:1038800080E008950E94910E80E008950E946F0EDE
:1038900080E008950E94DB0D80E008951F93CF9390
:1038A000DF938630F1F0E091D105F091D2053E969C
:1038B0000590F491E02DCF0185599540880F880F30
:1038C000880FD081C0E00BC011E0180F6D2F661F6C
:1038D0006627661F0E947132DD0FCF5F812FC830CF
:1038E00098F380E0DF91CF911F91089581110E949C
:1038F000B13380E00895E091D105F091D2053E9674
:103900008591959189539840FC01FF27E75CF74F1B
:10391000208121110E949C3080E00895863039F08A
:103920008091D005803418F46FEF0E94C03380E09E
:1039300008950E944D0E80E00895CF92DF92EF929D
:10394000FF9281E090E00090A00502C0880F991FCF
:103950000A94E2F7282F90E0E6E6F3E0C12CD12CA0
:1039600076010BC0CC0CDD1CEE1CFF1C8681822373
:1039700011F06894C0F838979F5F903298F38EE109
:103980000E948714C0920819D0920919E0920A196E
:10399000F0920B190E94DB3D80E0FF90EF90DF90EA
:1039A000CF9008958EE10E9487148091A0050E9417
:1039B0003910609308197093091980930A1990932C
:1039C0000B190E94DB3D80E00895CF938F3F09F0F3
:1039D00079C080932F0210922E02E091D105F091D0
:1039E000D2053E968591959180939F05843010F085
:1039F00010929F0520E039C080919F0590E0E22F52
:103A0000F0E0DF01AA0FBB1FAD014E0F5F1FDC010D
:103A1000AA0FBB1FA80FB91FAA0FBB1FAA0FBB1F5E
:103A2000A40FB51FA05AB64F3C9140912F023417F6
:103A300010F430932F02AF01440F551FE40FF51F10
:103A4000AC01440F551F840F951F880F991F880FD5
:103A5000991FE80FF91FE05AF64F818190912E02CD
:103A6000981710F480932E022F5F243028F2809153
:103A70002F0288235CF48EE10E94871485E494E091
:103A80000E9402158FEF8093C70504C08093C7057D
:103A900010922D0263ED74E180E00E942F4062EEEF
:103AA00074E181E00E942F4067EE74E182E00E94A1
:103AB0002F4069EE74E183E00E942F400E947E4017
:103AC000CFEF71C06091C7056F3F09F461C08130CD
:103AD000D9F480912E02681708F05CC040E0809114
:103AE0009F050E9448366091C7056F5F6093C705C8
:103AF00080912D02813009F04FC041E080919F05F7
:103B00000E944836CFEF4FC08430D1F480912F020D
:103B1000861708F043C040E080919F050E94483618
:103B20006091C70561506093C70580912D02813077
:103B3000B9F541E080919F050E944836CFEF33C030
:103B4000833091F480912D02811104C081E0809333
:103B50002D0202C010922D0240912D0280919F05EE
:103B60000E944836CFEF1FC0823011F0863039F402
:103B700040E080919F050E944836C0E014C0853027
:103B800089F440E080919F050E944836C0E00BC058
:103B9000C0E009C0CFEF07C0CFEF05C0CFEF03C033
:103BA000CFEF01C0CFEFCF3FA1F58091C7058F3F89
:103BB00069F18EE10E9487148091C7050E947C3FC5
:103BC00080E20E94B11480912D0281110AC081E629
:103BD0000E94B11485E70E94B11483E70E94B114DA
:103BE00009C085E60E94B11489E60E94B1148EE6F0
:103BF0000E94B11461E080912D02811101C060E04A
:103C000081E00E949D4081110E947E408EE10E94D1
:103C100087148C2FCF9108950E94610D80E0089544
:103C20000E94610D80E008950E943F0D80E008959C
:103C30000E941D0D0E94F4300E94FD0D0E944B3524
:103C400080E008950E94910D80E008958EE10E9429
:103C5000871486E394E00E9402150E94E80E8EE12C
:103C60000E9487148EE294E00E94021580E008957D
:103C70008EE10E94871486E394E00E9402150E9460
:103C8000F40E8EE10E9487148EE294E00E940215E9
:103C900080E008958EE10E94871486E394E00E94FC
:103CA00002150E94B30E8EE10E9487148EE294E00A
:103CB0000E94021580E00895CF930E94ED3B80E2C0
:103CC00094E00E949C3B0E944516811117C086E239
:103CD00094E00E949C3B16C06FEF8C2F7AD90E9413
:103CE000113C83EF94E10E949C3B8C2F15D80E94DD
:103CF0009C3B83EF94E10E949C3B8C2FCFEFC80F3D
:103D00008111EACF80E0CF9108950E94BB0D809190
:103D10007E168F3F81F483EF94E10E949C3B87E005
:103D200094E00E949C3B8BEA94E10E949C3B83EFD1
:103D300094E10E949C3B80E008959F92AF92BF92D5
:103D4000CF92DF92EF92FF920F931F93CF93DF9367
:103D50000E94ED3B8EEE93E00E949C3B0E94ED3B67
:103D60008BED93E00E949C3BCAE7D3E06CE079E1E5
:103D700088810E945D3E22E7DC012C93BC016E5FCE
:103D80007F4F20E211962C9389810E945D3E27E7A8
:103D9000FC0120838CE099E10E94113C0E94ED3BE4
:103DA00089EC93E00E949C3B6CE079E180916D028C
:103DB0000E945D3E8CE099E10E94113C0E94ED3B27
:103DC0000E94ED3BE12CD1C080EC93E00E949C3B33
:103DD0006CE079E18E2D0E94353F8CE099E10E94E4
:103DE000113C0E94ED3BF12CA4C089EB93E00E94B2
:103DF0009C3B80E38F0D0E949F3A8AE30E949F3A8A
:103E000080E20E949F3A0E2D10E0CF2CD12CE601CB
:103E1000CC0FDD1FCE018C0D9D1DE801CC0FDD1FE9
:103E2000C00FD11FCC0FDD1FCC0FDD1FC80FD91F56
:103E3000C05AD64F6CE079E188810E945D3EBC019A
:103E40006F5F7F4F0F2EFEE2BF2EF02DDC01BC9284
:103E500089810E945D3EBC016F5F7F4FFC01B08293
:103E60008A810E945D3EFC0180E280839DE3918314
:103E700082838CE099E10E94113C888188232CF494
:103E800087EA93E00E949C3B51C06CE079E10E947C
:103E9000D93EBC016F5F7F4F0F2EFDE29F2EF02DAC
:103EA000DC019C92F601EE0FFF1FCE0EDF1E5801C3
:103EB000AA0CBB1CE501C00FD11FCC0FDD1FCC0F1E
:103EC000DD1FCC0DDD1DC05AD64F89810E94D93E21
:103ED00020E2FC01208311828CE099E10E94113CD8
:103EE0008FE993E00E949C3B8A818295869587703A
:103EF000805D0E949F3A87E993E00E949C3B8A8103
:103F00006CE079E18F710E941A3EBC016F5F7F4FB8
:103F1000DC019C928A81998128818F71890F821B93
:103F20000E941A3E8CE099E10E94113C0E94ED3BF8
:103F3000F394B3E0BF1508F058CF85E793E00E94F3
:103F40009C3BEE2DF0E0EE0FFF1FE05BF64F6CE0C8
:103F500079E181810E94753E8CE099E10E94113CDB
:103F60000E94ED3B0E94ED3BE394E3E0EE1508F088
:103F70002BCF8DEA93E00E949C3BF12C96C089EBFD
:103F800093E00E949C3B80E38F0D0E949F3A8AE35E
:103F90000E949F3A80E20E949F3ACF2DD0E08E018E
:103FA000000F111F0C0F1D1F015E174F6CE079E110
:103FB000D8018C910E945D3EBC016F5F7F4F0F2E38
:103FC000FEE2EF2EF02DFC01E082D80111968C91DB
:103FD0000E945D3EBC016F5F7F4FFC01E082D80113
:103FE00012968C910E945D3EFC0180E280839DE3ED
:103FF0009183828313828CE099E10E94113CF80145
:1040000080818F3F29F487EA93E00E949C3B4AC05D
:10401000ECE0F9E192E590839EE291836EE079E134
:104020008F5F0E94363EBC016F5F7F4F1DE2DC0157
:104030001C93CE01880F991FC80FD91FC15ED74F9F
:1040400089818F5F0E94363E20E2FC01208311822D
:104050008CE099E10E94113C8FE993E00E949C3B27
:104060008A81829586958770805D0E949F3A87E954
:1040700093E00E949C3B8A816CE079E18F710E9401
:104080001A3EBC016F5F7F4FDC011C938A819981CE
:1040900028818F71890F821B0E941A3E8CE099E162
:1040A0000E94113C0E94ED3BF394B7E0BF1508F06D
:1040B00066CF8EE393E00E949C3BC0E054C00C2F7F
:1040C00010E0F801EE0FFF1FEE0FFF1FE050FE4F54
:1040D0008281803408F046C080E480930C19C801C6
:1040E000880F991F880F991FFC01E050FE4F7F0138
:1040F0006DE079E180810E945D3E20E2DC012C933D
:10410000F70121813FED320F3E3528F4FC01329654
:1041100011962C9306C0FC01329620E2DC01119628
:104120002C93BF016F5F7F4F80E28083000F111FD0
:10413000000F111F00501E4FF80182818F5F0E94F7
:104140001A3EBC016F5F7F4F2DE2DC012C93F8011A
:1041500083818F5F0E941A3E8CE099E10E94113C9E
:104160000E94ED3BCF5FC83008F4A9CF0E94ED3B21
:104170008CE693E00E949C3B0E94ED3BE12C90E09A
:1041800064C0CE2DD0E00F2D10E0FE01EE0FFF1F1A
:10419000EE0FFF1FE00FF11FEE0FFF1FEE0FFF1FCF
:1041A000E05BF74F80818F3F09F447C06CE079E115
:1041B0008E2D0E94753EBC016F5F7F4F0F2EF8E27F
:1041C000DF2EF02DDC01DC92CC0FDD1FCC0FDD1FCC
:1041D000C00FD11FCC0FDD1FCC0FDD1FC05BD74F31
:1041E00089810E94D93EBC016F5F7F4F2DE2FC01A7
:1041F000208399818A81890F0E94D93EFC0119E2AE
:10420000108380E28183BF016D5F7F4F8EE38283E5
:1042100088810E94353FBC016F5F7F4FDC01DC92DB
:104220008B810E94D93EFC01108311828CE099E1C0
:104230000E94113C0E94ED3B9FEFF39401C0F12CD2
:10424000F3E0FF1508F09DCFE3942FE02E15B8F7AB
:10425000911106C081E593E00E949C3B0E94ED3BDA
:104260000E94ED3B82E693E00E949C3B0E94ED3B66
:10427000C0E025C06CE079E18C2F0E94353FDC0165
:10428000BC016F5F7F4F8AE38C93EC2FF0E0EE0F61
:10429000FF1FE05BF64F80818F3F19F00E94753E53
:1042A00005C0CD0102962DE211962C93DC011C92E3
:1042B0008CE099E10E94113C0E94ED3BCF5FC4303D
:1042C000C8F20E94ED3B86E593E00E949C3BCEE461
:1042D000D8E06CE079E188810E94753EBC016F5F97
:1042E0007F4F2EE3FC01208389810E94753EDC0113
:1042F0001C928CE099E10E94113C0E94ED3B88E108
:1043000093E00E949C3BECE0F9E189E480830AE3BE
:104310000183CCE5D9E06EE079E188810E945D3EC1
:10432000BC016F5F7F4F1CE2FC01108389810E94FA
:104330005D3EFC0180E280838FE48183BF016D5F7D
:104340007F4F02838A810E945D3EBC016F5F7F4F79
:10435000DC011C938B810E945D3EFC0110828CE08D
:1043600099E10E94113C0E94ED3B80E0DF91CF91EA
:104370001F910F91FF90EF90DF90CF90BF90AF9083
:104380009F9008951F93CF93DF9310E009C0C12F32
:10439000D0E0CB56DA4F88810E94D44088831F5FDB
:1043A0001830A8F3DF91CF911F91089585E995E02A
:1043B0000E944532E7DF80E008950E94B13380E03B
:1043C000F5DF80E00895863031F08091D0058034AB
:1043D00010F40E94263380E0E9DF80E00895CF9357
:1043E000C62F8823D9F0E62FF0E0DF01A75CB74F96
:1043F0008C91811108C0862F0E949C30882371F017
:104400000E9406370BC0DF01A75CB74F1C92EE0F6E
:10441000FF1FEF54FB4E84910E940637EC2FF0E013
:10442000E75CF74F8081811102C082E801C081E81A
:10443000CF91089560E0D3CF089561E0D0CF089583
:1044400063E0CDCF089562E0CACF089564E0C7CF9E
:10445000089565E0C4CF089566E0C1CF089567E090
:10446000BECF089569E0BBCF089568E0B8CF089546
:104470006AE0B5CF08956BE0B2CF0895CF93C62F11
:104480006CE079E10E94363EBC0183E794E00E9433
:104490004E3F6C2F0E94643F8CE099E10E94121500
:1044A000CF910895CF93DF93882379F0C0911E08B0
:1044B000C03458F4DC2FD0686FEF8C2F0E94C033CB
:1044C0006C2FDCDF8D2F0E941C3380E0DF91CF91B9
:1044D00008950F931F93CF93C82F8CE099E10E940A
:1044E000643FBC016F5F7F4F2EE7FC0120838C2F60
:1044F0000E94363EBC018EE694E00E944E3F8C0145
:104500000E94C11084E00E943132C82F882349F0F4
:10451000B8018CE694E00E944E3FBC018C2F0E94B3
:10452000363E8CE099E10E941215CF911F910F91B8
:104530000895CF93803458F460914F086F3F39F05D
:10454000C82F80EC0E94653B8C2F0E947B3BCF9153
:104550000895CF93C62F88233CF46FEF8C2F0E94D1
:10456000C0336C2F8BDF09C0882339F0862F0E945F
:1045700026336C2FAEDF8C2FDCDF8C2F0E94D032E5
:10458000882339F08C2F0E949632811104C081E873
:1045900003C082E801C082E8CF91089560E0D9CFDE
:1045A000089561E0D6CF089562E0D3CF089563E027
:1045B000D0CF089580911E08803430F4BADF809106
:1045C0001E080E94263302C00E94B1338FEF8093F1
:1045D00037080895882339F080911E08885F887312
:1045E00080931E08E7DF80E00895882339F08091EA
:1045F0001E088850887380931E08DCDF80E00895D1
:1046000080911E088F3F21F48FE380931E08089548
:10461000803420F4815080931E0808958F77809312
:104620001E080895CF9388234CF4C0911E08C068DB
:104630000E94B1338C2F0E941C3304C0882311F0D8
:10464000DFDFB8DF80E0CF910895882369F04CF474
:1046500080911E08803438F48850887380931E0837
:1046600002C08111CDDFA6DF80E0089580911E0891
:104670008F3321F48FEF80931E0808958F3320F439
:104680008F5F80931E0808958F3F19F410921E08C3
:1046900008958F7780931E080895CF93DF93882322
:1046A00084F4C0911E08C03480F4DC2FD0686FEF12
:1046B0008C2F0E94C0336C2FE1DE8D2F0E941C33A3
:1046C00004C0882311F0D2DF75DF80E0DF91CF9145
:1046D0000895882369F04CF480911E08803438F4E2
:1046E000885F887380931E0802C08111BFDF62DF7C
:1046F00080E0089510929005009769F48BE798E0A8
:104700009093D2058093D10584E894E09093C505F9
:104710008093C40508C09093D2058093D10570930F
:10472000C5056093C4058FEF80939E058EE894E0E5
:104730009093A2058093A10508956BEE74E182E049
:104740000C942F4008956DEE74E183E00C942F409B
:1047500008956FEE74E181E00C942F4008956DEDA3
:1047600074E181E00C942F40089568ED74E181E0DC
:104770000C942F40089561EF74E180E00C942F4079
:10478000089580919D058A3011F08E3031F469ECE6
:1047900074E180E00C942F40089569EE74E180E0AC
:1047A0000C942F40089580919D058A3011F08E3031
:1047B00031F46BEC74E181E00C942F40089567EEC6
:1047C00074E181E00C942F400895CF93DF93E09142
:1047D0009D058E2F90E0FC013297ED30F10508F039
:1047E000E4C08827EE58FF4F8F4F0C94E140809132
:1047F000E105ECEEF5E0982F92959F7090838F7015
:104800008183D3C08091E105803120F08FEF8093C8
:10481000EC05CBC08F5F8093EC05C7C08091E105AC
:10482000882334F4ECEEF5E010828FEF8183BDC075
:104830001092ED0508C0ECEEF5E091819F5F918349
:104840008C508093E1058091E1058C30A0F7809336
:10485000EC05ABC08091E105ECEEF5E0982F929568
:104860009695977090838F718093E105118208C0AF
:10487000ECEEF5E091819F5F91838A508093E10592
:104880008091E1058A30A0F78093EE058EC0ECEEB2
:10489000F5E01082118208C0ECEEF5E090819F5F98
:1048A000908384568093E1058091E1058436A0F7DA
:1048B00008C0ECEEF5E091819F5F91838A50809370
:1048C000E1058091E1058A30A0F78093EE056DC087
:1048D0008091E105843020F08FEF8093EC0565C076
:1048E0008093EC0562C08091E105843020F083E084
:1048F0008093EC055AC08093EC0557C08091E10588
:104900008093EC0552C0E92FF0E08091E105282F5B
:10491000221F2227221FE451FA4F2083880F809301
:10492000E1059F5F01C090E0983068F33EC082507F
:10493000F0E0DE019D91E451FA4F9F709083E82FE3
:10494000F0E09881E451FA4F92959F709083ED01C9
:1049500003C0CAECD5E088E0EFEFE80F8111E7CFA4
:1049600024C08091E105ECEEF5E0982F96959695A0
:1049700096959F5F908387708F5F818316C080912B
:10498000E1058F5F8093E1051092EC0508C0ECEE25
:10499000F5E090819F5F90838A508093E10580913C
:1049A000E1058A30A0F78093ED05DF91CF9108955E
:1049B0000F931F93CF93DF93E0919D058E2F90E08F
:1049C000FC013297ED30F10508F03BC18827E15832
:1049D000FF4F8F4F0C94E1400CEE15E0F801808101
:1049E0000E94BE3DC6E4D2E08883F80181810E9426
:1049F000BE3D89831A8225C1E6E4F2E083E4808328
:104A000088E681838091EC058F3F29F480E28283E0
:104A10008DE2838312C08A3048F0C6E4D2E091E38D
:104A20009A838A500E94BE3D8B8307C0C6E4D2E0C1
:104A300090E29A830E94BE3D8B8310924A0201C18C
:104A40008091EC058F3F21F09091ED059F3F59F447
:104A5000E6E4F2E08EE680839FE69183828385E63A
:104A600083831482EEC09FE5909347028B3021F43C
:104A700088E48093460220C0853058F4982F96959C
:104A80009D5B9093460280FF17C083E280934702AC
:104A900013C0282F30E025503109359527952A5B22
:104AA0002093460280FD03C083E2809347022834AE
:104AB00019F481E4809346028091ED05811104C0D0
:104AC0008DE6809348020BC08C3030F481500E94F8
:104AD000BE3D8093480203C08DE28093480210924D
:104AE0004902AFC0C6E4D2E08DE488830CEE15E045
:104AF000F80180810E94BE3D898382E48A83F801A7
:104B000081810E94BE3D8B83F80182810E94BE3D5F
:104B10008C831D8296C00CEE15E0F80180810E9406
:104B2000BE3DC6E4D2E08883F80181810E94BE3D8B
:104B30008983F80182810E94BE3D8A831B8281C0E5
:104B40008091EC05833038F4E6E4F2E093E3981BBF
:104B50009083118276C0833031F4E6E4F2E080E5A0
:104B6000808311826EC0E6E4F2E08DE280831182E0
:104B700068C08091EC05E6E4F2E0805D80831182FC
:104B800060C08091EC05811109C0E6E4F2E081E4A7
:104B9000808385E7818383E7828308C0E6E4F2E0CF
:104BA00085E4808389E681838EE6828310924902C0
:104BB00048C0C12FD0E0FE01E451FA4F80810E942D
:104BC000BE3DCA5BDD4F88831F5F01C010E0183017
:104BD00080F337C0822F90E0FC01E451FA4F30811E
:104BE000311102C03FE601C039E4FC01EA5BFD4F30
:104BF00030832F5F01C020E0283060F322C0ACEE8C
:104C0000B5E08C91E6E4F2E0805C808311968C91B3
:104C1000805D8183128215C0ECEEF5E09081818188
:104C2000292F282B31F4E6E4F2E08DE280838183A2
:104C300006C0E6E4F2E0905D9083805D818310928F
:104C40004802DF91CF911F910F9108950F931F9309
:104C5000CF938EE10E948714C0E006E412E00BC0FF
:104C6000F8018081882319F00F5F1F4F01C080E297
:104C70000E94B114CF5FCA3098F3CF911F910F916A
:104C800008958A301CF488231CF0089580E008956C
:104C900089E008950F931F93CF93DF93C82FE0917E
:104CA000D105F091D20531968491282F2071E091A1
:104CB0009D058E2F90E0FC013297ED30F10508F054
:104CC00093C18827E457FF4F8F4F0C94E140D0E009
:104CD000C451DA4F8881680F6F70688385C12111D4
:104CE0001BC0613041F48091EC05803120F081E0FF
:104CF0008093EC0579C16F3F49F48091EC058250B7
:104D00008F3020F080E18093EC056EC1ECEEF5E091
:104D10008081680F608368C1613041F48091EC0547
:104D2000803121F48FEF8093EC055EC1613041F456
:104D30008091EC058F3F21F481E08093EC0554C114
:104D40006F3F41F48091EC058F3F21F480E1809327
:104D5000EC054AC16F3F41F48091EC05813021F4AC
:104D60008FEF8093EC0540C1ECEEF5E08081680F99
:104D700060833AC18091ED058F3F09F4C1E0C11114
:104D800016C08091EC058C3050F48B3011F46130FA
:104D900041F0811102C06F3F31F0680F05C060E043
:104DA00003C060E001C06BE06093EC052BC02111F3
:104DB0000AC0811102C06F3FC1F08A3011F4613026
:104DC000B1F0680F1DC0811102C06F3F91F08A30B1
:104DD00011F4613081F08F3F11F4613071F08F3F39
:104DE00011F46F3F61F0680F0BC06AE009C060E02A
:104DF00007C06FEF05C06FEF03C060E001C06AE05D
:104E00006093ED059091EC059F3F09F4EDC0809112
:104E1000ED058F3F09F4E8C0282F220F820F282FBD
:104E2000220F220F920F0AF0DFC0ECEEF5E087E0D0
:104E300080838AE08183D8C0C11107C0ECEEF5E021
:104E40008081680F67706083CFC0D0E00CEE15E002
:104E5000C451DA4F8881860F14DF8883F80181817D
:104E60009281880F282F220F220F820F890F803204
:104E70002CF083E0818381E08283B6C088230CF02C
:104E8000B3C0ECEEF5E011821282AEC0D0E00CEEC1
:104E900015E0C451DA4F8881860FF3DE8883F8016C
:104EA0002081818190E0AC01440F551F880F991F2C
:104EB000880F991F880F991F840F951FF4E62F9F65
:104EC000800D911D1124F8012281820F911D8F3FC9
:104ED000910509F00CF488C082E0808385E081832D
:104EE000828382C02223A1F0D0E0FE01E451FA4F78
:104EF0008081680F6083643019F48FEF808374C001
:104F00006E3F09F071C0C451DA4F83E088836CC0F2
:104F1000D0E0FE01E451FA4F8081811105C06F3F5E
:104F200019F483E0808360C0833031F4613021F470
:104F3000C451DA4F188258C0C451DA4F680F6883E1
:104F400053C0D0E0C451DA4F8881680F6370688322
:104F50004BC0ECEEF5E080818095808345C0D0E0C9
:104F600081E061FD80E0C451DA4F88833DC061304B
:104F700041F4D0E0C451DA4F888187708F5F888315
:104F800033C0EC2FF0E0E451FA4F808182508770FB
:104F90008F5F808329C0ECEEF5E090818181990FCD
:104FA000292F220F220F920F890FC11107C0660F00
:104FB000962F990F990F690F680F01C0680F66232C
:104FC0001CF061341CF403C060E001C060E010928A
:104FD000EC0506C0ECEEF5E080818F5F80836A50BF
:104FE0006A30C4F76093ED05DF91CF911F910F9167
:104FF0000895E0919D058E2F90E0FC013297ED30F1
:10500000F10508F0DAC08827E756FF4F8F4F0C9460
:10501000E140ECEEF5E0808120E1829FC0011124A7
:1050200091819F70892B8093E10508959091EC0503
:105030008FEF890F803118F09093E10508958093E8
:10504000E10508959091EC059F3F21F08091ED05D9
:105050008F3F21F48FEF8093E1050895282F220FD1
:10506000820F880F880F890F8093E1050895ECEE79
:10507000F5E0808130E2839FC001112421813281DB
:10508000220F422F440F440F240F230F203220F011
:105090008F618093E1050895822B8093E105089547
:1050A000ECEEF5E02081818190E0AC01440F551FCA
:1050B000880F991F880F991F880F991F840F951FBC
:1050C00034E6239F800D911D11242281820F911DB2
:1050D0008F3F910529F020F08FEF8093E10508952F
:1050E0008093E10508958091EC058093E10584307B
:1050F00008F463C08FEF8093E10508958091EC057B
:1051000083708093E10508958091EC058093E1051B
:1051100008951092E10580E00CC09091E105990F8F
:10512000E82FF0E0E451FA4F2081920F9093E105CF
:105130008F5F883090F308951092CA051092CB05C6
:105140001092CC051092CD05AAECB5E088E010C015
:105150008250F0E0E451FA4F9081E82FF0E0E45102
:10516000FA4F208130E1239F900D11249C931196DA
:10517000EFEFE80F8111ECCF0895ECEEF5E021811F
:105180009081892F90E00197880F991F880F991FB0
:10519000880F991F9FEF920F892B8093E105089547
:1051A000ECEEF5E080819181880F282F220F220FED
:1051B000820F890F81508093E10508950F931F930B
:1051C000CF93DF938C01D62FC0E00CC0F8018491FF
:1051D000882319F00F5F1F4F02C08D2FD0E20E946D
:1051E000B114CF5FCA3090F3DF91CF911F910F912F
:1051F000089580E40E948714E0919005E11107C0B2
:105200006AE38091C4059091C505D8CF0895F0E078
:105210003197EE0FFF1FED55FA4F808191816AE3C0
:105220000296CCCF0895E091D105F091D2058491FA
:105230008F7390E002971CF0C8DABADB07CD0895AF
:10524000E091A105F091A20580919E05E80FF11D66
:1052500031968491825E0E94871420919E0530E0F1
:10526000E091A105F091A205849190E001972817A3
:10527000390714F468DA03C083E00E946A40809121
:105280009E05882311F059DA03C082E00E946A402B
:1052900078DA89DA0C947E40089584E10C948714BE
:1052A00008950F931F93CF93F8DF80E894E00E9456
:1052B000021580910519909106190E94743F8DE2A4
:1052C0000E94B1148091051990910619049730F449
:1052D0008091051990910619C82F01C0C4E0009172
:1052E000701610E004591B4E13C084E10D361807E8
:1052F00010F0F80102C0ECE6F5E18F010150110950
:1053000080810E94C43DC15019F080E20E94B11416
:10531000C111EBCF80E0CF911F910F9108950F93B2
:105320001F93CF93BADF8BE794E00E940215809120
:105330007C1690917D160E94743F8DE20E94B114FC
:1053400080917C1690917D16049730F480917C16A4
:1053500090917D16C82F01C0C4E000911B1410E08D
:1053600003591A4E13C085E10E36180710F0F801E4
:1053700002C0EDE6F6E18F010150110980810E9423
:10538000C43DC15019F080E20E94B114C111EBCFAD
:1053900080E0CF911F910F9108950F931F93CF93AA
:1053A0008F3FA9F40E944516815080932C021092E1
:1053B0002B0263ED74E180E00E942F406DEC74E1FC
:1053C00081E00E942F400E947E40CFEF2FC08430AA
:1053D00049F480912C02882321F1815080932C0282
:1053E000CFEF24C0813091F400912C0210E00F5FC8
:1053F0001F4F0E94451690E008171907A4F48091EA
:105400002C028F5F80932C02CFEF10C0833011F0FD
:10541000853059F480912B02809580932B02CFEF39
:1054200005C0CFEF03C0CFEF01C0C0E0CF3F09F010
:1054300054C033DF0E944516811106C08EE394E00C
:105440000E940215C0E01DC080912C028F5F0E9457
:10545000003E8AE30E94B11480912B02811108C0A2
:1054600060E280912C020E94E9170E94F21406C0AB
:1054700080912C020E948C160E9402150E94FC3F13
:105480000CDF61E080912B028F3F09F060E081E04A
:105490000E949D4000912C0210E00F5F1F4F0E9460
:1054A000451690E00817190734F46DEE74E183E0B7
:1054B0000E942F4003C083E00E946A4080912C022A
:1054C000882331F06BEE74E182E00E942F4003C02C
:1054D00082E00E946A400E947E408C2FCF911F91F3
:1054E0000F9108958AE40C94871408958DE594E053
:1054F0000E945D150E94C139F5DF80E00895CDDE80
:105500008AE00C94F03F08958EE10E9487148AE0AF
:105510000C94F03F08958091CE058F3F11F08D3FA0
:1055200079F50E94F415F0DF10921B0890E0EEE68A
:10553000F2E007C021818091EA05822B81833896B1
:105540009F5F9032B8F38091CE058F3F19F410928F
:10555000CE055CC087E594E00E945D158EEF8093D8
:10556000CE059FB7F89481E006C0E0E5F2E082E066
:105570008487858780E08111F8CF9FBFB3DF46C065
:105580008E3F41F48FEF80931B081092EA050E9432
:10559000EE153CC0409191055091920560919305A4
:1055A0007091940576956795579547954093910529
:1055B000509392056093930570939405E82FF0E063
:1055C000DF01AA0FBB1FAA0FBB1FAA0FBB1FA25947
:1055D000BD4F16962C919091EA05292349F47068E5
:1055E00040939105509392056093930570939405B1
:1055F000EE0FFF1FEE0FFF1FEE0FFF1FE259FD4FD3
:105600002181922B91838F5F8093CE05E091CE050F
:10561000E03228F5F0E0EE0FFF1FEE0FFF1FEE0F58
:10562000FF1FE259FD4F8091EA05982F90958181E7
:10563000892381838EE10E9487148091CE050E9488
:10564000003E9FB7F89481E006C0E0E5F2E088E014
:105650008487158680E08111F8CF9FBF0895E032DE
:1056600009F041C08091910590919205A091930518
:10567000B09194050097A105B10529F483E594E064
:105680000E945D151FC08093081990930919A0937B
:105690000A19B0930B196CE079E180E594E00E945F
:1056A0004E3FAC01609191057091920580919305F8
:1056B000909194050E94B53EFC0110828CE099E126
:1056C0000E9412158EEF8093CE059FB7F89481E06B
:1056D00006C0E0E5F2E082E08487858780E0811102
:1056E000F8CF9FBFFFCE089581E090E00090A00525
:1056F00002C0880F991F0A94E2F78093EA058FEFA2
:105700008093CE0510929105109292051092930508
:105710001092940500DF80E0089580E40E948714D1
:105720008AE00E94F03FDEDE8AE00C94F03F0895AC
:10573000F4DFEADEE4CE0895E091D105F091D205E0
:1057400084918F73813011F404C808953E960590BA
:10575000F491E02D309769F0893041F48081811116
:1057600003C00C94AF23089500C808950C94A92396
:10577000089581E00C946A400895CF9389E40E94D3
:105780008714E091D105F091D205C491C07CC03856
:1057900039F480E20E94B11482E00E946A4005C0A0
:1057A0008FE70E94B1140E949D23C03C29F483E03E
:1057B0000E946A40C0E203C00E94A323CEE70E9479
:1057C000BB23BADF8091D1059091D2056C2F029650
:1057D000F5DC0E947E4086DECF9108958091D10550
:1057E0009091D205FC012491622F6F73623008F40E
:1057F00049C09C01225F3F4FF901459155914115E8
:10580000510509F43FC0E62FF0E031979F01220FC8
:10581000331F220F331F220F331FE20FF31FE257F4
:10582000FB4FF093A205E093A10524912093C805B6
:10583000FC0125912F7320939D05249122232CF4A4
:105840002091D9053091DA0502C020E030E0240F24
:10585000351FFC0184918F738B3071F4F9018081C5
:105860009181A281B3818093CA059093CB05A093C7
:10587000CC05B093CD0504C0F90180818093E1058A
:10588000D2DC07C041DE8EE894E09093A2058093BD
:10589000A10552DF27CE089532DEA0DFAADC6DDF3E
:1058A0000C94EE150895CF93C82F0E94EE15E09149
:1058B000D105F091D20584918F73813029F08091C8
:1058C0009E058F3F09F068C13196849186FF02C022
:1058D00016DE08DE6091D1057091D205CB010196EC
:1058E000FC018491982F907285FF1FC09B01205F5F
:1058F0003F4FF9012591359121153105B1F04091C6
:105900009E054F3F91F08C2FF90119958F3F21F49F
:1059100010929E0580E004C2F2DDF6DDE3DD8FEF3C
:1059200080939E052ADF80E0FBC1C33009F464C088
:1059300028F4C13051F0C23031F1DBC1C53009F477
:105940005BC090F0C630F9F0D4C1FB018491807C3B
:10595000803C09F4D0C17496F093D205E093D10550
:105960003DDF0BDF80E0DCC1FB018491807C80386F
:1059700009F4C3C17497F093D205E093D1052EDFEB
:10598000FCDE80E0CDC184FF04C01092F6051092C9
:10599000F505E0919005EE23E9F0E150E0939005E4
:1059A000F0E0EE0FFF1FED55FA4F0190F081E02D72
:1059B000F093D205E093D10572960590F491E02D15
:1059C000309711F080E019959ADD13DCD6DE06DF02
:1059D00080E0A6C180E00E946A4081E00E946A40A7
:1059E00082E00E946A4083E00E946A400E947E40FA
:1059F0000E94F4158FEF94C1FB0124912F7330E0C6
:105A0000223031050CF448C070960590F491E02DD9
:105A1000309719F08C2F1995E1DE2091D105309146
:105A2000D205C9010196FC01849183FD68C1C901B9
:105A30000E96FC0185919591892B09F462C1F901BB
:105A400084918F73893019F561E080E023D9D1DA30
:105A5000E091D105F091D2053E960590F491E02DAC
:105A60008091E1058083DFDB67DE0E947E403ADDC6
:105A7000E091D105F091D20572960590F491E02D58
:105A8000309709F440C180E0199580E049C1109237
:105A90009E05D6DB80E044C12FEF20939E0584FF56
:105AA00026C07093F6056093F505E0919005EE230E
:105AB00009F42BC1E150E0939005F0E0EE0FFF1FD9
:105AC000ED55FA4F0190F081E02DF093D205E0936F
:105AD000D10572960590F491E02D309711F080E099
