S00D000050697065312E7372656358
S11300000C9463090C9484090C9484090C94840959
S11300100C9484090C9484090C9484090C94840928
S11300200C9484090C9484090C9484090C94840918
S11300300C9484090C9484090C9484090C94840908
S11300400C9484090C9484090C9484090C948409F8
S11300500C9484090C94830F0C9484090C948409E3
S11300600C9484090C9490370C94D6370C9484091E
S11300700C9484090C9484090C9484090C948409C8
S11300800C9484090C9484090C9484090C948409B8
S11300900C94A3350C94F8350C9484090C948409BD
S11300A00C9484090C9484090C9484090C94840998
S11300B00C9484090C9484090C9484090C94840988
S11300C00C9484090C9484090C9484090C94840978
S11300D00C9484090C9484090C9496380C94EE388E
S11300E00C948409421F4D1F591F751F921FB31F83
S11300F0BE1FC91FDE1FF41FFC1F0A20DE1F37208E
S113010047206B20BD20D620EB2004210C21312177
S113011031214A2157214621B221BA2105226722E1
S11301209122BD22EC22F422FA22B22102231623C8
S1130130FA22542361236D2382239B23BE23C923E4
S1130140CF23D423E72308241B24D423153B2A3BA1
S1130150183B093B1B3B1E3B0C3B213B0F3B243B09
S1130160123B273B4C6F673A20000000496E6974CC
S113017069616C69736174696F6E000001004545C3
S11301803A4D6F64756C65000000000000000101C9
S113019045453A4D6964692D496E00000000000030
S11301A0010245453A4D6964692D4F75740000009C
S11301B00000010345453A4D616E2D4D6F64756C29
S11301C065000000010445453A5553420000000013
S11301D0000000000000010545453A526567697357
S11301E07465720000000000010645453A50726FC4
S11301F06772616D730000000000010745453A53C2
S11302006F66746B65797300000000000108454552
S11302103A4D696469546872750000000000020078
S11302204D6F643A4661696C0000000000000000F4
S113023002014D6F643A556E6B6E6F77496E7000B4
S1130240000003004F56464C3A4D696469496E00FC
S11302500000000003014F56464C3A4D6964694F53
S113026075740000000004004F56464C3A50697003
S1130270654D73670000000005005077723A4F75B2
S1130280707475744F6E0000000054EF6E65206149
S113029075730054617374656E2F5265672E206CFC
S11302A0EF73656E004D4944492D496E746572665D
S11302B0616365006E6F6E65004D6964692D5468F5
S11302C072753A20004D6964692D4F75743A004D7A
S11302D06964692D496E3A00646972656374204DDE
S11302E04944492D4F757428696E742920666F72CC
S11302F0206D616E75616C3A20002C204269747324
S11303003A004D6F64756C653A00656D70747900E0
S113031052656769737465723A0D0A0052616E67BB
S11303206520004D616E75616C3A20004D6F6475F7
S11303306C657320636865636B65643A20004D6F78
S113034064756C65732061737369676E65643A20C4
S113035000486172647761726520436F6E666967F5
S113036075726174696F6E0D0A000D0A4D49444936
S11303702D4F7267616E2D496E7465726661636597
S11303800D0A004C6F670D0A00656D7074790D0AD3
S113039000736176652E2E2E003C6E6F6E653E00F6
S11303A0756E61737369676E656400453A006F6BBF
S11303B0200061626F7274004D494449204E6F748D
S11303C0656E20617573002B002052656700205212
S11303D06567207E20004F75743A00496E3A004DDF
S11303E0656EF50000000000000000000000000041
S11303F000000200010000000000000103000000F2
S113040000000000020002000000000000030103DD
S113041004000000000003000102000000000001CD
S113042000000000000000000100000000000000C7
S113043000010000000000000000080001020304A5
S1130440050607080001020304050607020001006F
S1130450000000000002000100000000000008008D
S1130460010203040506070000000000000000006C
S113047081103C6E6F6E653E000000000000900726
S11304800000000001104D656E75000000000000C2
S11304909A0786070000000001105374696D6D65AA
S11304A06E000000FE0C7C070000000001104B6F82
S11304B07070656C323C330000005E07311E000032
S11304C001104B6F7070656C313C330000005407B1
S11304D0341E000001104B6F7070656C503C33008B
S11304E000004A07371E000001104B6F7070656CE6
S11304F0313C3200000040073A1E000001104B6FEF
S11305007070656C503C3200000036073D1E0000E0
S113051001104B6F7070656C503C310000002C076B
S1130520401E000001104B6F7070656C333C32004C
S113053000002207431E000001104B6F7070656CB1
S1130540333C310000001807461E000001104B6FB9
S11305507070656C333C500000000E07491E0000AB
S113056001104B6F7070656C323C31000000040761
S11305704C1E000001104B6F7070656C323C5000D3
S11305800000FA064F1E000001104B6F7070656C7E
S1130590313C50000000F006521E00000110507261
S11305A02E2B2F73657400000000BE06CE2A0000B7
S11305B0011050722E2D2F636C7200000000B406DF
S11305C0661E0000011050726F672E20314100003A
S11305D00000E606522B0000011050726F672E20B7
S11305E0324100000000DC06552B0000011050725F
S11305F06F672E20334100000000D206582B000004
S1130600011050726F672E20344100000000C806AC
S11306105B2B0000011050726F672E636C72000038
S113062000008C066F190000011050726F672E7362
S11306306574000000009606F22A00000110507252
S11306406F672E2B000000000000AA06831E000026
S1130650011050726F672E2D000000000000A006EC
S1130660A41E000001104D494449204F6666000055
S11306700000680711290000C110536574757000EB
S113068000000000EE0D72070000000050636C7261
S113069000000000000050736574000000000000BA
S11306A0502D0000000000000000502B000000004E
S11306B000000000502D2F63000000000000502BAC
S11306C02F730000000000005034410000000000BF
S11306D0000050334100000000000000503241008F
S11306E00000000000005031410000000000000044
S11306F0313C5080000000000000323C508000007B
S113070000000000323C3180000000000000333C57
S11307105080000000000000333C318000000000E5
S11307200000333C3280000000000000503C318067
S1130730000000000000503C328000000000000077
S1130740313C3280000000000000503C3380000047
S113075000000000313C3380000000000000323C07
S113076033800000000000004D4F6666000000006A
S11307700000536574750000000000005374696D37
S11307800000000000004D656E75000000000000D0
S11307900000000000000000000081004D616E7543
S11307A0616C00000000120800000000000001005D
S11307B0526567697374657200003A080000ED1DA4
S11307C0000001004D494449000000000000060AF1
S11307D0000000000000010054617374656E0000A5
S11307E00000AE0C00000000921901005374617403
S11307F0757300000000D611000000000000C10065
S113080053657475700000000000EE0D00000000D8
S1130810000081004B6F7070656C000000001609C9
S1130820000000000000C1005374696D6D656E0026
S11308300000FE0C0000000000008C0050726F6786
S11308402E6C61642E000000A8050000FA1D0C0047
S113085050726F672E73702E00000000A805000010
S1130860871901006175730000000000000000009A
S11308700000F41D00000E005265672E312D380073
S1130880000000006D05000047190E005265672E38
S1130890392D3136000000006E05000047190E00A6
S11308A05265672E31372D32340000006F05000089
S11308B047190E005265672E32352D333200000081
S11308C07005000047190E005265672E33332D342E
S11308D0300000007105000047190E005265672EB4
S11308E034312D34380000007205000047190E0021
S11308F05265672E34392D3534000000730500002D
S11309004719CA005265672E35352D36340000006C
S11309107405000047198900323C330000000000D0
S1130920000000001108000074190900313C330074
S11309300000000000000000120800007419090003
S1130940313C3200000000000000000013080000E9
S113095074190900503C330000000000000000003E
S11309601408000074190900503C32000000000013
S1130970000000001508000074190900503C310003
S113098000000000000000001608000074190900AF
S1130990333C320000000000000000001708000093
S11309A074190900333C310000000000000000000D
S11309B01808000074190900333C500000000000BE
S11309C0000000001908000074190900323C3100CD
S11309D000000000000000001A080000741909005B
S11309E0323C500000000000000000001B08000022
S11309F07419C900313C50000000000000000000E0
S1130A001C080000741981004E6F7465734F66668C
S1130A100000000000001129000001004D49444974
S1130A20696E00000000CE0A00000000001B0100F7
S1130A304D4944496F75740000004E0D00000000DC
S1130A40FC1A0310546872752D496E0000000000F2
S1130A502608000043190310546872752D4F7574ED
S1130A600000000027080000431909004163636582
S1130A70707420504300000032090000F81A090085
S1130A804163742E53656E736500000030090000E5
S1130A90F81A090056656C5A344F66660000000067
S1130AA031090000F81A06085278427566557365D4
S1130AB000000000411500000000C608547842758B
S1130AC066557365000000004A16000000008100AE
S1130AD043682E310000000000000E0C0000BD1819
S1130AE00000010043682E320000000000000E0CDC
S1130AF00100BD180000010043682E33000000000F
S1130B0000000E0C0200BD180000010043682E34E2
S1130B100000000000000E0C0300BD1800000100DE
S1130B2043682E350000000000000E0C0400BD18C0
S1130B300000010043682E360000000000000E0C87
S1130B400500BD180000010043682E3700000000B6
S1130B5000000E0C0600BD180000010043682E388A
S1130B600000000000000E0C0700BD18000001008A
S1130B7043682E390000000000000E0C0800BD1868
S1130B800000010043682E313000000000000E0C0C
S1130B900900BD180000010043682E313100000037
S1130BA000000E0C0A00BD180000010043682E313D
S1130BB03200000000000E0C0B00BD180000010004
S1130BC043682E313300000000000E0C0C00BD18E9
S1130BD00000010043682E313400000000000E0CB8
S1130BE00D00BD180000010043682E3135000000DF
S1130BF000000E0C0E00BD180000C10043682E3129
S1130C003600000000000E0C0F00BD18000081002B
S1130C10536563742E31000000005E0C0000C81898
S1130C2000000100536563742E32000000005E0C66
S1130C300100C81800000100536563742E330000DE
S1130C4000005E0C0200C8180000C1005365637404
S1130C502E34000000005E0C0300C81800008790CA
S1130C604D616E75616C00000000000028080000F2
S1130C70000004904D69644E6F746500000000002C
S1130C80290800000000068052616E6765000000BC
S1130C90000000002A0800000000C4904D616E4E60
S1130CA06F746500000000002B080000000081083C
S1130CB054617374653100000000700400002C1945
S1130CC0E52B010854617374653200000000700460
S1130CD001002C19E52B010854617374653300007D
S1130CE00000700402002C19E52BC10854617374D0
S1130CF0653400000000700403002C19E52B8120EA
S1130D004D616E2E33000000000000000000DC196D
S1130D10000001204D616E2E320000000000000032
S1130D200100DC19000001204D616E2E310000002D
S1130D30000000000200DC190000C120506564615D
S1130D406C000000000000000300DC1900008310A8
S1130D504949490000000000000000002809000083
S1130D6000000310494900000000000000000000DA
S1130D702A090000000003104900000000000000E0
S1130D80000000002C0900000000031050000000C7
S1130D9000000000000000002E0900000000031005
S1130DA049494928696E7429000000002909000096
S1130DB000000310494928696E74290000000000EE
S1130DC02B090000000003104928696E74290000F3
S1130DD0000000002D0900000000C3105028696EB7
S1130DE074290000000000002F09000000008100A9
S1130DF04D6F64756C6500000000B60E00000000C5
S1130E0000000100555342000000000000002612BB
S1130E100000000000000100506F776572000000C0
S1130E2000007A0E000000000000C1004545707209
S1130E306F6D000000003E0E000000000000810005
S1130E404545536176650000000000000000242A37
S1130E500000010045454261636B757000000000AD
S1130E6000000C2A0000C1004545526573746F727E
S1130E70650000000000182A00008100506F7765AB
S1130E80724F6E00000000000000A92C0000010059
S1130E90506F7765724F6666000000000000B22C48
S1130EA00000C100502E526573746172740000001A
S1130EB00000BA2C00008A004D6F64526561640022
S1130EC000000000550300000E1B0A004D6F64571C
S1130ED07269746500000000560300000E1B0A08C6
S1130EE04D6F644F4B0000000000000048020000FA
S1130EF0000001004D6F64546573740000001A0F04
S1130F00000000000000C1004D6F64417373696705
S1130F106E000A1000000000041B81004D6F642E57
S1130F20300000000000BA0F0000B21800000100F9
S1130F304D6F642E310000000000BA0F0100B2189A
S1130F40000001004D6F642E320000000000BA0F53
S1130F500200B218000001004D6F642E330000003F
S1130F600000BA0F0300B218000001004D6F642E98
S1130F70340000000000BA0F0400B21800000100A1
S1130F804D6F642E350000000000BA0F0500B21842
S1130F90000001004D6F642E360000000000BA0FFF
S1130FA00600B2180000C1004D6F642E3700000027
S1130FB00000BA0F0700B218000081005265616496
S1130FC000000000000000000000961900000B0063
S1130FD0577269746500000000000000AD054918EF
S1130FE085180100546573745074726E000000001B
S1130FF00000EF290000C1004C6F6F70547374003F
S1131000000000000000CA19000081004D616E2E2E
S11310103300000000000E110000E618000001007B
S11310204D616E2E3200000000000E110100E61822
S1131030000001004D616E2E3100000000000E1111
S11310400200E61800000100506564616C000000B5
S113105000000E110300E6180000C1005265676924
S11310607374657200006E100400000000008100BB
S1131070536563742E31000000005E1100001619E0
S113108000000100536563742E32000000005E11FD
S11310900100161900000100536563742E3300002B
S11310A000005E110200161900000100536563740C
S11310B02E34000000005E11030016190000010028
S11310C0536563742E35000000005E110400161988
S11310D000000100536563742E36000000005E11A9
S11310E00500161900000100536563742E370000D3
S11310F000005E11060016190000C10053656374F8
S11311002E38000000005E1107001619000081004F
S1131110536563742E31000000009A110000F11829
S113112000000100536563742E32000000009A1120
S11311300100F11800000100536563742E330000B0
S113114000009A110200F1180000C1005365637495
S11311502E34000000009A110300F11800008D8065
S1131160526567426567000000000000F707000051
S113117000000D80526567456E64000000000000A9
S1131180F80700000000C5804D6F64756C652F4240
S113119069740000F9070000000084904E6F7465C4
S11311A0426567000000000034090000000004905C
S11311B04E6F7465456E6400000000003509000040
S11311C00000C5804D6F64756C652F426974000022
S11311D036090000000081204C6F67000000000009
S11311E000000000000018250000010055534200D3
S11311F00000000000002612000000000000024071
S11312004D4944492D496E000000000000009C2413
S11312100000C2404D4944492D4F75740000000040
S11312200000DA24000089004576656E744C6F670F
S11312300000000052160000381B010053656E6464
S11312404C6F6700000000000000121B0000C1008A
S1131250536E6448574366670000000000004C1B4F
S1131260000056302E373200010002000201030054
S1131270030103020001000201020003010302034F
S11312803100300054657874800045786974007EBC
S1131290617573007E65696E0045696E80002D007E
S11312A02B007F007E000900080000000E0E0E0EC9
S11312B0000004040404150E0400040E15040404C0
S11312C004000D0A000011241FBECFEFD1E2DEBFDF
S11312D0CDBF00E00CBF12E0A0E0B2E0EEE5F9E71C
S11312E000E00BBF02C007900D92A830B107D9F7F8
S11312F029E1A8E0B2E001C01D92A132B207E1F7F2
S11313000E9437150C94AD3C0C940000FC018FEF47
S11313109FEF1CC0DF01119620818227282F229580
S11313202827022E269526952025022E269520254F
S11313302770082E892F269507942795902D8227AC
S11313400694279590258227BA01FD01AB014150EF
S11313505109672BF9F60895EF92FF920F931F93AB
S1131360CF93DF93CFEFDFEF21C07C012FEFE21AA1
S1131370F20A0E947B3C9E012827822F82958227B5
S1131380082E869586958025082E8695802587705B
S1131390022E232F869507948795302D28270694AF
S11313A0879530252827E901B801C7018B01015031
S11313B01109672BD1F6CE01DF91CF911F910F91C7
S11313C0FF90EF900895FC01CA011CC0DF01119643
S11313D020818227282F22952827022E26952695BC
S11313E02025022E269520252770082E892F269544
S11313F007942795902D8227069427959025822778
S1131400BA01FD01AB0141505109672BF9F608956A
S1131410EF92FF920F931F93CF93DF93EA0121C0C2
S11314207C012FEFE21AF20A0E947B3CAE014827AE
S1131430842F82958427082E869586958025082EEC
S1131440869580258770042E452F86950794879569
S1131450502D48270694879550254827EA01B8015E
S1131460C7018B0101501109672BD1F6CE01DF9121
S1131470CF911F910F91FF90EF900895CF93DF9339
S113148082E390E00E94833CEC0160E370E082E040
S113149090E062DFC817D90781F481E090E00E94F0
S11314A07B3C8D3451F440E350E062E070E084E32F
S11314B099E00E946B3C80E006C080910802816044
S11314C0809308028FEFDF91CF910895CF93DF933C
S11314D085E391E00E94833CEC0160E071E085E3E8
S11314E090E03ADFC817D90781F484E390E00E94C2
S11314F07B3C893451F440E051E065E370E088E2DC
S113150098E00E946B3C80E006C0809108028260F3
S1131510809308028FEFDF91CF910895CF93DF93EB
S113152083E491E00E94833CEC016BE070E088E38B
S113153091E012DFC817D907C1F487E391E00E9454
S11315407B3C8F3491F448E050E068E371E088E23A
S113155099E00E946B3C43E050E060E471E080E37A
S113156099E00E946B3C80E006C080910802846090
S1131570809308028FEFDF91CF910895CF93DF938B
S113158088E491E00E94833CEC0161E070E086E431
S113159091E0E2DEC817D907A1F485E491E00E9446
S11315A07B3C893671F486E491E00E947B3CC5E57E
S11315B0D3E0888387E491E00E947B3C898380E0C8
S11315C006C0809108028860809308028FEFDF9143
S11315D0CF910895CF93DF9387EF93E00E94833CEC
S11315E0EC0162E070E085EF93E0B6DEC817D9073E
S11315F081F484EF93E00E947B3C843551F442E013
S113160050E065EF73E086E298E00E946B3C80E076
S113161006C0809108028260809308028FEFDF91F8
S1131620CF910895CF93DF938CE491E00E94833CA3
S1131630EC0161E070E08BE491E08EDEC817D9071D
S113164071F48AE491E00E947B3C853541F48BE49B
S113165091E00E947B3C8093521680E006C080910A
S113166008028860809308028FEFDF91CF9108957C
S1131670CF93DF9361E070E08FE491E06DDEAC0125
S113168068E170E080E591E0C3DEEC0188E691E07A
S11316900E94833CC817D907B1F48EE491E00E94FC
S11316A07B3C823581F48FE491E00E947B3C809303
S11316B0100848E150E060E571E087EF97E00E9490
S11316C06B3C80E006C0809108028062809308022F
S11316D08FEFDF91CF910895CF93DF938BEE93E05B
S11316E00E94833CEC0160E872E08BE691E034DE1A
S11316F0C817D90781F48AE691E00E947B3C8035C3
S113170051F440E852E06BE671E084E699E00E940F
S11317106B3C80E006C080910802806480930802DC
S11317208FEFDF91CF910895CF93DF9382EF93E012
S11317300E94833CEC0164E070E08EEE93E00CDEEA
S1131740C817D90751F444E050E06EEE73E083EB20
S113175095E00E946B3C80E006C08091080280689E
S1131760809308028FEFDF91CF91089560E080E0CD
S113177090E00E94973C65E689EF93E00C94973CD7
S11317800895CF93DF9360E370E084E399E0BEDDD6
S1131790EC010E94953B6DE481E090E00E94973C4F
S11317A040E350E062E070E084E399E00E94883C0A
S11317B0BE0182E390E00E94A93CD8DF0E94A33BD3
S11317C0DF91CF910895CF93DF9360E071E088E2D9
S11317D098E09CDDEC010E94953B69E484E390E091
S11317E00E94973C40E051E065E370E088E298E0B5
S11317F00E94883CBE0185E391E00E94A93CB6DFCB
S11318000E94A33BDF91CF910895CF93DF9368E0CB
S113181070E088E299E07ADDAC0163E070E080E397
S113182099E0D1DDEC010E94953B6FE487E391E000
S11318300E94973C48E050E068E371E088E299E058
S11318400E94883C43E050E060E471E080E399E06A
S11318500E94883CBE0183E491E00E94A93C86DF9B
S11318600E94A33BDF91CF9108950F931F93CF93D1
S1131870DF9361E070E085E593E048DD8C010E9430
S1131880953B69E685E491E00E94973CC5E5D3E089
S1131890688186E491E00E94973C698187E491E045
S11318A00E94973CB80188E491E00E94A93C5EDF65
S11318B00E94A33BDF91CF911F910F910895CF9385
S11318C0DF9361E070E082E596E120DDEC010E94A7
S11318D0953B65E58AE491E00E94973C609152163D
S11318E08BE491E00E94973CBE018CE491E00E945D
S11318F0A93C3CDF0E94A33BDF91CF910895CF9395
S1131900DF9362E070E086E298E000DDEC010E9483
S1131910953B64E584EF93E00E94973C42E050E0FD
S113192065EF73E086E298E00E94883CBE0187EF91
S113193093E00E94A93C1ADF0E94A33BDF91CF9160
S11319400895CF93DF9361E070E080E198E0DEDCFE
S1131950AC0168E170E087EF97E035DDEC010E94AF
S1131960953B62E58EE491E00E94973C60911008FB
S11319708FE491E00E94973C48E150E060E571E01B
S113198087EF97E00E94883CBE0188E691E00E94C0
S1131990A93CECDE0E94A33BDF91CF910895CF9345
S11319A0DF9360E872E084E699E0B0DCEC010E9429
S11319B0953B60E58AE691E00E94973C40E852E05E
S11319C06BE671E084E699E00E94883CBE018BEEF0
S11319D093E00E94A93CCADE0E94A33BDF91CF9111
S11319E00895CF93DF9364E070E083EB95E08EDCA1
S11319F0EC010E94953B6BE48DEE93E00E94973CD2
S1131A0044E050E06EEE73E083EB95E00E94883C86
S1131A10BE0182EF93E00E94A93CA8DE0E94A33B92
S1131A20DF91CF910895ADDECEDEEFDE1EDF47DF1E
S1131A3088DFB5DFD6DF63CF0895CF92DF92EF92D0
S1131A40FF920F931F93CF93DF93EB0111C07C019F
S1131A502FEFE21AF20A0E947B3C6E019FEFC91A33
S1131A60D90A682FCE010E94973CA801E601C7015C
S1131A708A0101501109452B51F7DF91CF911F9134
S1131A800F91FF90EF90DF90CF9008950E94953BC7
S1131A9040E058E060E078E080E090E0CEDF0C9435
S1131AA0A33B08950E94953B40E058E060E070E05D
S1131AB080E098E0C2DF0C94A33B089580E00AC064
S1131AC0E82FF0E0EE0FFF1FE15DFD4F9FEF9083E5
S1131AD011828F5F8930A0F3E1E4F2E01082118279
S1131AE0128213828FEF80935703089582E084BD9E
S1131AF093E095BD80936E0089EF87BD85B18F77A4
S1131B0085B984B1806884B9089587E880937A00A0
S1131B1010927B008FE780937C0081E080937E00AD
S1131B2010927F00E9E4F3E010828FEF81838283D7
S1131B308093090280E010C0853039F4E82FF0E08A
S1131B40E15BFC4F96E0908306C0E82FF0E0E15B98
S1131B50FC4F9AE090838F5F863070F308958FEF87
S1131B6088B987B982B911B884B3876084BB83B359
S1131B70876083BB8BB18F778BB98AB180688AB950
S1131B8080E00EC0E82FF0E0EE0FFF1FEE0FFF1F06
S1131B90EE0FFF1FE75BFD4F9FEF918390838F5FF5
S1131BA0803280F310924602109245020895E6DCDA
S1131BB08F3F51F440E050E060E081E042D7E5E53A
S1131BC0F3E08FEF808381838BB18F778BB984B3FC
S1131BD0876084BB84B38B7F84BB85E08A95F1F7EF
S1131BE0000084B3846084BB90E284B3816084BBCE
S1131BF090FD02C085E501C08AEA88B980B180936E
S1131C00480380934703809346038093450380935E
S1131C1044038093430384B38E7F84BB85E08A9519
S1131C20F1F70000915009F790E20FC084B381608E
S1131C3084BB82E08A95F1F700C084B38E7F84BBB5
S1131C4082E08A95F1F700C091509111EFCF8FEFA8
S1131C508093480290E284B3816084BB8FEF88B99B
S1131C6020B190FD02C08AEA01C085E58227209157
S1131C70480282238093480284B38E7F84BB85E02C
S1131C808A95F1F70000915031F70000000084B309
S1131C90816084BB84B3876084BB84B38B7F84BB43
S1131CA082E08A95F1F700C084B3846084BB90E23B
S1131CB0E1E4F3E0838182838481838384B381605C
S1131CC084BB8FEF818388B98581848386818583F2
S1131CD080B186838283838384838583878384B36B
S1131CE08E7F84BB3897915029F70000000084B39D
S1131CF0816084BB84B38D7F84BB18B885E08A95EA
S1131D00F1F7000084B3826084BB0895883008F042
S1131D106AC031E001C0330F8A95EAF780E8809306
S1131D2046028BB18F778BB984B3876084BB40E064
S1131D301DC020FD03C0832F809501C08FEF88B99B
S1131D40269582E08A95F1F700C084B38E7F84BB28
S1131D5082E08A95F1F700C084B3816084BB9F5F01
S1131D6002C090E025EA983020F34F5F4430C8F376
S1131D7090E00FC082E08A95F1F700C084B38E7FB3
S1131D8084BB82E08A95F1F700C084B3816084BB90
S1131D909F5F903278F390E040E050E0BA0117C0C2
S1131DA0440F551F661F771F82E08A95F1F700C024
S1131DB084B38E7F84BB80B1832309F0416082E0C9
S1131DC08A95F1F700C084B3816084BB9F5F903231
S1131DD038F3109246028BB180688BB9342F252FCB
S1131DE0862F972F04C030E020E080E090E0632F3E
S1131DF0722F089590E0E9E4F2E080E006C02FEF4E
S1131E0021832681822B38969F5F9032C0F3909174
S1131E10550389239091480289230895109246021C
S1131E208091460281FFFCCF1092460280914602C7
S1131E3081FFFCCF089581E0809345029FB7F89419
S1131E4006C0EFE2F2E088E28283138280E081112F
S1131E50F8CF9FBF089580914502813031F5CADFE4
S1131E60811114C085B1806485B982E180934502F3
S1131E709FB7F89481E006C0EFE2F2E081E082834C
S1131E80138280E08111F8CF9FBF08959FB7F89423
S1131E9081E007C0EFE2F2E08CE0828382E083839A
S1131EA080E08111F7CF9FBF08958231B1F4A2DFA2
S1131EB0811104C084E1809345020BC0482F50E097
S1131EC060E085E0BED585B18F7B85B980E88093DD
S1131ED045028FEF8093310208958FEF8093310292
S1131EE0089590E00DC0943050F4E92FF0E0811192
S1131EF002C02AE001C026E0E15BFC4F20839F5F23
S1131F00963088F308951F920F920FB60F92112402
S1131F100BB60F92EF92FF920F931F932F933F9361
S1131F204F935F936F937F938F939F93AF93BF93DD
S1131F30CF93DF93EF93FF9385B1806885B9809148
S1131F4047028F5F809347028370813009F458C140
S1131F5038F0823009F4A5C1833009F4CAC105C23E
S1131F608091090281111AC190917A0096FD16C1DF
S1131F70282F30E0F901EE0FFF1FE20FF31FEE0FE1
S1131F80FF1FE75BFC4F9181409179004183491722
S1131F9010F4941B03C0542F591B952F943008F050
S1131FA0FDC081110EC0423270F04F3370F04836DC
S1131FB070F0463970F04F3B70F0483E70F4C6E064
S1131FC00DC0CFEF0BC0C4E009C0C3E007C0C5E03B
S1131FD005C0C1E003C0C2E001C0CFEFF901EE0FBC
S1131FE0FF1FE20FF31FEE0FFF1FE75BFC4FD281D1
S1131FF0DC1709F448C0DF3F19F0CF3F09F0CFEFF9
S1132000F901EE0FFF1FE20FF31FEE0FFF1FE75B57
S1132010FC4FC283DF3FF9F4C901880F991FFC010B
S1132020E20FF31FEE0FFF1FE75BFC4F15821482D4
S1132030FC01E20FF31FEE0FFF1FE75BFC4F13825F
S1132040EC2FF0E0E25BFC4F808180FFA7C08C2F77
S11320500E94D62CA3C0ED2FF0E0E25BFC4F808100
S113206081FF9CC0F901EE0FFF1FE20FF31FEE0F7B
S1132070FF1FE75BFC4F8381837009F08FC08D2FB6
S11320800E94D62C8BC0CF3F09F488C0F901EE0F13
S1132090FF1FDF01A20FB31FAA0FBB1FA75BBC4F1B
S11320A014968D919C911597019615969C938E93F9
S11320B01497FD01848195818B349105A9F4ED2F4A
S11320C0F0E0E25BFC4F808182FF0EC08C2F8068C1
S11320D00E94D62CE091090286E0E89FF0011124C9
S11320E0E75BFC4F82E08383ED2FF0E0E25BFC4F83
S11320F0808183FF53C08091090290E0FC01EE0FC0
S1132100FF1FE80FF91FEE0FFF1FE75BFC4F238152
S113211021111EC0FC01EE0FFF1FE80FF91FEE0F87
S1132120FF1FE75BFC4F2481358122333105B1F574
S113213026E0289FF001299FF00D1124E75BFC4F56
S113214081E08383158214828C2F0E94D62C26C0B2
S1132150FC01EE0FFF1FE80FF91FEE0FFF1FE75BF7
S1132160FC4F23812130D1F426E0289FF001299FE0
S1132170F00D1124E75BFC4F248135812C303105AF
S113218069F426E0289FF001299FF00D1124E75BF4
S1132190FC4F158214828C2F0E94D62C8091090248
S11321A08F5F80930902843010F0109209028091AD
S11321B0090281110CC090E0FC01EE0FFF1FE80F33
S11321C0F91FEE0FFF1FE75BFC4F808101C08FE119
S11321D0982F9F71906690937C00EBE7F0E020814C
S11321E0807290E09595879595958795922F9F7D20
S11321F0892B8083EAE7F0E0808180648083B5C026
S113220080914602803809F4B0C084B3876084BBEF
S113221084B38B7F84BB209156032095E2E0EA953A
S1132220F1F700C084B3846084BB90E2E1E4F3E09E
S1132230838182838481838384B3816084BB81812D
S1132240822B88B9858184838681858380B1868346
S113225084B38E7F84BB3897915051F700000000FF
S113226084B3816084BB84B38D7F84BB8091460238
S113227082608093460218B88BB180688BB984B3AE
S1132280826084BB72C0808181508E3F38F421818A
S11322902F5F253010F0808320E0218332969F5FEA
S11322A003C090E0EFE2F2E0993068F3E1E4F2E099
S11322B080818F5F80838A3F09F057C08FEF8093BE
S11322C05703108281818F5F81838C3308F44DC062
S11322D0118282818F5F82838C3308F446C012821C
S11322E083818F5F8383843608F43FC01092440255
S11322F03CC0809146028038C1F1E0905503809142
S11323004802E822F12C09E412E02CC0F801C28151
S113231083819C2F9823C82B84819823C82B2581E3
S11323209223C22B86819823C82BD781CD23C92B16
S1132330C7838D2F80958C238E2121F09F2D906251
S11323400E94162DC095CD238C2F8E2119F09F2D20
S11323500E94162D085F1F4F809146028160809372
S11323604602F394FFE1FF1588F685B18F7785B9AE
S1132370FF91EF91DF91CF91BF91AF919F918F9199
S11323807F916F915F914F913F912F911F910F9189
S1132390FF90EF900F900BBE0F900FBE0F901F9009
S11323A01895E82FF0E0EE0FFF1FEE0FFF1FEE0F62
S11323B0FF1FE75BFD4F609581816823618308956A
S11323C0E82FF0E0EE0FFF1FEE0FFF1FEE0FFF1FD1
S11323D0E75BFD4F8181682B618308958FEF82B99C
S11323E085B988B98BB98EB981BB84BB809302014E
S11323F0809305018093080180930B018AB1806862
S11324008AB98BB18F778BB984B1806484B985B173
S11324108F7B85B984B1806384B90895882334F4AB
S1132420E2E0F1E090819061908305C0E2E0F1E0A8
S113243090819F7E908386FF06C0E2E0F1E0908168
S11324409860908305C0E2E0F1E09081977F9083EB
S113245085FF04C09EB198609EB903C09EB1977F6A
S11324609EB984FF04C084B3806284BB03C084B378
S11324708F7D84BBE2E0F1E080818064808385E02D
S11324808A95F1F7000080818F7B808385E08A95AF
S1132490F1F700000895CF93DF93D82FC5B1C0732F
S11324A085B18F7C806185B9E2E0F1E08081806252
S11324B0808380818F7B80838D2FB0DF8D2F8295E9
S11324C0807FACDF8FEF90E00197F1F700C0000050
S11324D085B18073C82BC5B9DF91CF910895CF938F
S11324E0DF93D82FC5B1C07385B18F7C806185B966
S11324F0E2E0F1E080818F7D808380818F7B808327
S11325008D2F8CDF8D2F8295807F88DFD150D23044
S113251038F48FE097E20197F1F700C0000006C09D
S11325208FEF90E00197F1F700C0000085B1807350
S1132530C82BC5B9DF91CF910895CF93C5B1C073AE
S113254085B18F7C806185B9E1E0F1E080818061B3
S113255080838081886080838DB188608DB983B3E6
S1132560806283BB80818064808380818062808379
S11325702FEF81EE94E0215080409040E1F700C0BD
S11325800000E2E0F1E080818F7D808380818F7B99
S1132590808380E343DF8FE19EE40197F1F700C07D
S11325A0000080E33BDF8FE19EE40197F1F700C078
S11325B0000080E333DF8FE19EE40197F1F700C070
S11325C0000088E22BDF8FEF90E00197F1F700C065
S11325D0000088E284DF88E082DF81E080DF86E03B
S11325E07EDF8CE07CDF85B18073C82BC5B9CF91C9
S11325F008958093A803805872CF08951092A80379
S113260081E06DDF80E0E8E5F3E004C090E29083D0
S11326108F5F31968035D0F30895843198F090EC33
S1132620980F943110F48C5208959CEE980F9431C5
S113263010F48C5E08959CEA980F943110F488513C
S113264008958FEF0895CF93DF93D82FC091A803F7
S11326508C2FE3DF8F3F31F1D13A81F0D03881F014
S1132660D53A81F0DA3081F0D23E81F0D53F81F065
S1132670DF3E81F0D13E81F09D2F0FC090E20DC06E
S113268090E20BC094E109C095E107C093E105C055
S113269092E103C091E101C090E1E82FF0E0E85A33
S11326A0FC4F9083CF5FCF77C093A8038D2FF3DEC9
S11326B0DF91CF910895CF93DF93FC01892B19F417
S11326C007C0C1DFFE01EF01219680818111F9CF9E
S11326D0DF91CF910895CF93DF93FC01892B19F4F7
S11326E007C0B1DFFE01EF01219684918111F9CF7A
S11326F0DF91CF91089582ED93E0909365058093E7
S11327006405909363058093620508958091620542
S113271090916305209164053091650582179307B4
S113272048F0821B930B959587959DEC899F802D8E
S11327301124089580579E4F821B930B959587957E
S11327409DEC899F802D11240895CF93C82FDEDF3F
S1132750C817F8F440916405509165058C2F90E0FA
S11327609C01220F331F880F991F880F991F880F10
S1132770991F280F391FCA01820F931F65E08835FE
S1132780960749F040F020593140CA01820F931F47
S113279002C080E090E0CF910895D7DF0097F1F177
S11327A0FC013681678120E034C0422F50E0FA01F9
S11327B0EE0FFF1FCF01880F991F880F991F880FF5
S11327C0991FE80FF91FE659FE4F8491381320C072
S11327D0FA01EE0FFF1FCF01880F991F880F991F71
S11327E0880F991FE80FF91FE559FE4F849168136C
S11327F00FC0440F551FCA01880F991F880F991FD6
S1132800880F991F480F591FCA0184599E4F089574
S11328102F5F203150F280E090E0089580E090E056
S11328200895CF9373DF1092A903811114C017C0C8
S11328308C2F8BDF009761F0FC012481203251F052
S113284095818C2F953439F48FEF8093A90307C0B9
S11328508C2F01C08C2FCFEFC80F8111E9CFCF91FE
S113286008951F93CF93DF93009709F47BC0162F2D
S1132870EC018B81882379F06AEA73E00E94B43911
S1132880BC016F5F7F4F28E6FC0120838A810E9490
S1132890B439DC012FC08A81882379F06AEA73E0B5
S11328A00E94B439BC016F5F7F4F2DE6FC01208389
S11328B089810E94B439DC011DC06AEA73E0898110
S11328C00E94B439FC0183E780839881990F20E04A
S11328D002C099512F5F9931E0F7205D2183990F50
S11328E020E002C095502F5F9530E0F7DF0113968A
S11328F0205D22839C81903451F0903819F09032FD
S113290081F40AC0FD0131968AE28C930EC0FD0168
S1132910319685EA8C9309C0FD01319680E28C934F
S113292004C0FD0131968FE38C93BF016F5F7F4F2D
S11329308D8180838E810E94F739BC018F810E9432
S1132940F739BC016F5F7F4F2DE2FC01208388853E
S113295099850E94323AFC0110821F3F41F01C838A
S113296060DF05C0EAEAF3E08DE2808311828AEA3F
S113297093E0DF91CF911F910895E0916205F0916A
S11329806305A1E4B2E09C919083E0916205F0912B
S1132990630511969C9111979183E0916205F091E2
S11329A0630512969C911297928313969C9193833C
S11329B02583868367835187408780E88483809159
S11329C052168F3F81F484E691E00E9426376FEF20
S11329D0809162059091630544DF0E947A3782EC0E
S11329E092E10E94263780916205909163050A96D0
S11329F090936305809362058855954039F030F0D3
S1132A0082ED93E0909363058093620520916205C3
S1132A103091630580916405909165052817390705
S1132A2079F40A96909365058093640588559540DA
S1132A3039F030F082ED93E090936505809364055E
S1132A40089525E49ADF8FEF8093A9030895CF9327
S1132A50C62F7BDE009719F06C2F03DF06C0EAEA6D
S1132A60F3E08DE280831182CF01CF910895B6DC2B
S1132A7085B18F7C85B93FDE0E943C370E94CF2C04
S1132A8035D81CD842D86BD80E947D3590D80E9486
S1132A90A8300E94E8300E94612D0E94DA2D0E9425
S1132AA079310E94702B0E94130D1092C20545DDEE
S1132AB00E945139A3DD83E49CDD85EA92E00BDEBC
S1132AC08BE197DD82E692E106DE78942FEF47E909
S1132AD08AE3215040408040E1F700C000000E949A
S1132AE00F388CDDA8D98FEF8093F30780936705A7
S1132AF08EEF80936605DFEF85B18F7C85B92091D9
S1132B00FE133091FF138091F9139091FA13281753
S1132B10390709F466C00E947938C82F8093660586
S1132B200E9430368FE78C0F863028F480E88C0FB3
S1132B300E94D62C56C0C03909F053C08091F113BD
S1132B40803909F04EC091E0E92F092E000CFF0BEB
S1132B50EF50FC4E80818D3319F09F5F9830A4F3C1
S1132B6098300CF03EC0892F859520E006C0E22FF6
S1132B70F0E0E55BF94E10822F5F2330C0F32CC0E8
S1132B80E92F092E000CFF0BEF50FC4E308120ED95
S1132B90230F2A3010F027ED230FA22FAF70EBE4A0
S1132BA0F6E1628120E1629FB00111244181242F6A
S1132BB022952F70622B628320E1429FA001112491
S1132BC02081322F32953F70432B418340E1249F73
S1132BD0900111242A2B2083915019168CF20E9403
S1132BE03E340E94032D882309F451C085B18063CB
S1132BF085B90E94EA2CC82F8638B9F40E9447355B
S1132C000E9417330E9478300E94572D74DD109271
S1132C10411510924A1685B1806485B983E1809389
S1132C2045028AE892E00E944E2A809167058F3F10
S1132C30F9F48C2F8F73C53069F460E070E080E0A4
S1132C4090E00E94C51E0E948A261092670580E0CB
S1132C5048D91DC09FEF980F9430C8F40E94342CBB
S1132C606C2F0E94492C809367050E94F52B0FC09E
S1132C708091C205811106C08C2F0E9491268093F9
S1132C80670505C08DEF8093A6050E9419298091E0
S1132C9067058F3F69F4DF3F61F40E94D8250E94E5
S1132CA0F52B8FEF1ED98FEF80930F08D0E001C072
S1132CB0DFEF85B18F7C85B980913D02811109C018
S1132CC0C091A8030E943D2A8C2F93DC8FEF809340
S1132CD03D0280913B0281110AC08091C205882384
S1132CE019F00E94192903C08FEF80933B02809151
S1132CF0310281111AC0AFD80E94952C80916705CA
S1132D008F3F99F4C091A80384E173DC809145025C
S1132D10813021F483E992E0DEDC05C0823119F4CC
S1132D2084E10E94653B8C2F64DC809166059FE7FB
S1132D30980F963010F08E3F09F58091DB188F3F85
S1132D4031F48091A80369DC0E94433803C08FE703
S1132D500E94433881E80E944338C0E0E8E5F3E08C
S1132D6008C08F010F5F1F4F80810E944338CF5FDF
S1132D70F801C035B0F380E80E9443388FEF8093A8
S1132D8066050E9461350E942133C091A803809199
S1132D90370281116BC0809137028F3F09F066C002
S1132DA0809103028F3FB1F18091F6078F3F91F537
S1132DB080E01FDC809101028F3F69F48091020260
S1132DC00E94423B8FE33FDC809103020E94F13A70
S1132DD080E239DC0CC0809103020E94F13A8EE754
S1132DE032DC809101020E94533B80E22CDC8C2F68
S1132DF000DC8FEF809303029FB7F89481E006C054
S1132E00EFE2F2E083E28087118680E08111F8CF5F
S1132E109FBF2CC0809100028F3FD9F080E0E9DB96
S1132E2080E711DC809100020E949A398EE70BDC66
S1132E308FEF809300029FB7F89481E006C0EFE221
S1132E40F2E083E28087118680E08111F8CF9FBF92
S1132E500DC080913702811109C0CBDB86E00E944E
S1132E60653B8C2FC6DB8FEF80933702809139024C
S1132E708F3F21F08091390281115BC0809105025E
S1132E808F3FF9F08FE0B5DB809104020E94533B41
S1132E908EE7D9DB809105020E94F13A8C2FA9DBE1
S1132EA08FEF809305029FB7F89481E006C0EFE2AC
S1132EB0F2E088E28287138680E08111F8CF9FBF19
S1132EC038C0809133098F3F31F18FE092DB82E586
S1132ED0BADB809133098F770E949A398091330944
S1132EE0882314F088E001C089E0ADDB80E2ABDB2D
S1132EF08C2F7FDB8FEF809333099FB7F89481E0A9
S1132F0006C0EFE2F2E088E28287138680E0811156
S1132F10F8CF9FBF0EC08091390281110AC08FE0A3
S1132F2068DB85E00E94653B8C2F63DB8FEF809329
S1132F30390280910F088F3F31F410920F0880E01E
S1132F4058DB0E948730809157038F3F09F07EC081
S1132F5010925703F090A803C091DB18CF3F11F4EF
S1132F600E948F3B80914402882359F08091420251
S1132F7080FD0EC00F2EFAE3EF2EF02D04E412E0D4
S1132F800CC00F2EFAE3EF2EF02D03E412E005C07F
S1132F906894EE24E5F804E412E087E02ADBF80103
S1132FA080810E949A398E2D4EDBF8013197808101
S1132FB00E949A3940914F16442331F050E060E06A
S1132FC083E03FDD10924F1640915616442331F0B2
S1132FD050E061E083E035DD1092561680914502A1
S1132FE084FF02C080E201C089E02DDB8091A90347
S1132FF08F3F11F485E401C080E225DB8F2DF9DADF
S1133000CF3F11F40E94883B809137028F3F69F4CF
S11330109FB7F89481E006C0EFE2F2E08DE7808785
S1133020118680E08111F8CF9FBF809139028F3FD4
S113303069F49FB7F89481E006C0EFE2F2E08DE70F
S11330408287138680E08111F8CF9FBF8091F407B7
S11330508F3F39F41092F40740E050E060E084E0E0
S1133060F0DC85B18F7C806285B9909144168091A3
S11330705316981721F00E9479360E94AA330E94B1
S11330804D2D8F3F09F038CD0E94382D0E946F34AA
S113309033CD1092AD051092AE051092AF0510928B
S11330A0B00581E090E00090780502C0880F991F78
S11330B00A94E2F7482F30E0E1E4F3E022C0809183
S11330C0AD059091AE05A091AF05B091B005880F04
S11330D0991FAA1FBB1F8093AD059093AE05A093C3
S11330E0AF05B093B0052181242349F0816080931A
S11330F0AD059093AE05A093AF05B093B005389796
S11331003F5F3032E0F280E008954091AD05509188
S1133110AE056091AF057091B005853009F5A1E069
S1133120B0E00090780502C0AA0FBB1F0A94E2F732
S11331303A2F90E0E1E4F3E011C0772324F4818195
S1133140832B818305C021818A2F809582238183EB
S1133150440F551F661F771F38979F5F903268F39F
S113316080E00895E091A905F091AA053E96859125
S113317095918093780580E00895E091A905F091F8
S1133180AA053E96859195918093A70580E00895C0
S1133190E091A905F091AA053E96259135912093D9
S11331A0B7058091A7058F7090E02370880F991F51
S11331B0880F991F820F911D880F991F880F991FDF
S11331C09093B2058093B10580E00895E091A9053C
S11331D0F091AA053E96859195918093770580E0BC
S11331E00895E091A905F091AA053E9685919591DF
S11331F08093B705209177052F7030E0837090E0BD
S1133200A901440F551F240F351F220F331F220F0E
S1133210331FAC01440F551F840F951F820F931F5A
S11332209093B2058093B10580E00895E091A905DB
S1133230F091AA053E96859195918093B705877084
S113324090E09C01220F331F820F931F9093B205CD
S11332508093B10580E00895E091A905F091AA0555
S11332603E9685919591843060F4FC01FF27EE0F22
S1133270FF1FE654FA4F808191819093CE0580938D
S1133280CD0580E008950E947F0C80E008951F938F
S1133290CF93DF938630F1F0E091A905F091AA0570
S11332A03E960590F491E02DCF018D569540880F00
S11332B0880F880FD081C0E00BC011E0180F6D2F6C
S11332C0661F6627661F0E94272FDD0FCF5F812FA1
S11332D0C83098F380E0DF91CF911F910895811158
S11332E00E94783080E00895E091A905F091AA0544
S11332F03E968591959181519840FC01FF27EF5EA0
S1133300F74F208121110E94682D80E008958630B6
S113331039F08091A805803418F46FEF0E944C2F87
S113332080E008950E94F10C80E00895CF92DF922E
S1133330EF92FF9281E090E00090780502C0880F40
S1133340991F0A94E2F7282F90E0E1E4F3E0C12CFE
S1133350D12C76010BC0CC0CDD1CEE1CFF1C86812D
S1133360822311F06894C0F838979F5F903298F3E5
S11333708EE13FD9C092DD18D092DE18E092DF18BA
S1133380F092E0180E94753980E0FF90EF90DF9092
S1133390CF9008958EE12DD9809178050E94860EF4
S11333A06093DD187093DE188093DF189093E01813
S11333B00E94753980E00895CF938F3F09F077C05C
S11333C080930E0210920D02E091A905F091AA05D6
S11333D03E968591959180937705843010F01092F4
S11333E0770520E039C08091770590E0E22FF0E086
S11333F0DF01AA0FBB1FAD014E0F5F1FDC01AA0F37
S1133400BB1FA80FB91FAA0FBB1FAA0FBB1FA40F76
S1133410B51FAC5CB64F3C9140910E02341710F4CA
S113342030930E02AF01440F551FE40FF51FAC019A
S1133430440F551F840F951F880F991F880F991FDC
S1133440E80FF91FEC5CF64F818190910D029817FB
S113345010F480930D022F5F243028F280910E0225
S113346088234CF48EE1C5D880EA93E034D98FEFF9
S113347080939F0504C080939F0510920C026AE814
S113348072E180E00E94B13B69E972E181E00E944F
S1133490B13B6EE972E182E00E94B13B60EA72E105
S11334A083E00E94B13B0E94003CCFEF71C0609169
S11334B09F056F3F09F461C08130D9F480910D02FA
S11334C0681708F05CC040E0809177050E941D32C7
S11334D060919F056F5F60939F0580910C0281301E
S11334E009F04FC041E0809177050E941D32CFEF73
S11334F04FC08430D1F480910E02861708F043C087
S113350040E0809177050E941D3260919F056150D3
S113351060939F0580910C028130B9F541E0809160
S113352077050E941D32CFEF33C0833091F4809130
S11335300C02811104C081E080930C0202C010923D
S11335400C0240910C02809177050E941D32CFEF4E
S11335501FC0823011F0863039F440E08091770545
S11335600E941D32C0E014C0853089F440E080918F
S113357077050E941D32C0E00BC0C0E009C0CFEF48
S113358007C0CFEF05C0CFEF03C0CFEF01C0CFEF2F
S1133590CF3F59F580919F058F3F29F18EE129D8BE
S11335A080919F050E94F13A80E24DD880910C02EF
S11335B0811107C081E647D885E745D883E743D81A
S11335C006C085E640D889E63ED88EE63CD861E060
S11335D080910C02811101C060E081E00E941F3CD7
S11335E081110E94003C8EE104D88C2FCF91089564
S11335F00E94050C80E008950E94050C80E0089567
S11336000E94E30B80E008950E94C10B0E94C02D2C
S11336100E94A10C0E94223180E008950E94350C82
S113362080E00895CF9383E893E00E9426376ED814
S1133630811117C089E893E00E94263716C06FEF06
S11336408C2F05DA0E947A3782EC92E10E942637A9
S11336508C2FA3D80E94263782EC92E10E94263751
S11336608C2FCFEFC80F8111EACF80E0CF9108955E
S11336700E945F0C809152168F3F61F48AE693E0BA
S11336800E94263782E692E10E94263782EC92E17C
S11336900E94263780E008959F92AF92BF92CF9206
S11336A0DF92EF92FF920F931F93CF93DF9381E505
S11336B093E00E9426370E9438378EE393E00E94FD
S11336C02637C5E5D3E061EE78E188810E94F739B9
S11336D022E7FC012083BC016E5F7F4F20E221833F
S11336E089810E94F73927E7FC01208381EE98E164
S11336F00E947A370E9438378CE293E00E94263782
S113370061EE78E1809148020E94F73981EE98E1F8
S11337100E947A370E9438370E943837E12CD1C092
S113372083E293E00E94263761EE78E18E2D0E94B9
S1133730AB3A81EE98E10E947A370E943837F12C37
S1133740A4C08CE193E00E94263780E38F0D0E9491
S113375030368AE30E94303680E20E9430360E2DE5
S113376010E0CF2CD12CE601CC0FDD1FCE018C0D47
S11337709D1DE801CC0FDD1FC00FD11FCC0FDD1F35
S1133780CC0FDD1FC80FD91FCC5CD64F61EE78E19A
S113379088810E94F739BC016F5F7F4F0F2EFEE2D4
S11337A0BF2EF02DFC01B08289810E94F739BC0143
S11337B06F5F7F4FFC01B0828A810E94F739FC0160
S11337C080E280839DE39183828381EE98E10E946D
S11337D07A37888188232CF48AE093E00E94263784
S11337E051C061EE78E10E944F3ABC016F5F7F4F98
S11337F00F2EFDE29F2EF02DFC019082F601EE0FBC
S1133800FF1FCE0EDF1E5801AA0CBB1CE501C00F22
S1133810D11FCC0FDD1FCC0FDD1FCC0DDD1DCC5C0B
S1133820D64F89810E944F3A20E2FC012083118205
S113383081EE98E10E947A3782E093E00E94263775
S11338408A81829586958770805D0E9430368AEFE2
S113385092E00E9426378A8161EE78E18F710E949E
S1133860B439BC016F5F7F4FFC0190828A819981DA
S113387028818F71890F821B0E94B43981EE98E1EF
S11338800E947A370E943837F394F3E0FF1508F06A
S113389058CF88ED92E00E942637EE2DF0E0EE0F2F
S11338A0FF1FE85DF64F61EE78E181810E940F3AD7
S11338B081EE98E10E947A370E9438370E943837A7
S11338C0E39483E08E1508F02BCF80E193E00E940F
S11338D02637F12C94C08CE193E00E94263780E3D4
S11338E08F0D0E9430368AE30E94303680E20E94B7
S11338F03036CF2DD0E08E01000F111F0C0F1D1F8D
S11339000950184F61EE78E1F80180810E94F7397F
S1133910BC016F5F7F4F0F2EFEE2EF2EF02DFC01F6
S1133920E082F80181810E94F739BC016F5F7F4F0B
S1133930FC01E082F80182810E94F739FC0180E2F7
S113394080839DE391838283138281EE98E10E94B8
S11339507A37F80180818F3F29F48AE093E00E944E
S113396026374AC0E1EEF8E192E590839EE2918326
S113397063EE78E18F5F0E94D039BC016F5F7F4FA7
S11339801DE2FC011083CE01880F991FC80FD91FB7
S1133990C950D84F89818F5F0E94D03920E2FC0141
S11339A02083118281EE98E10E947A3782E093E0CD
S11339B00E9426378A81829586958770805D0E9451
S11339C030368AEF92E00E9426378A8161EE78E1F0
S11339D08F710E94B439BC016F5F7F4FFC0110836B
S11339E08A81998128818F71890F821B0E94B43941
S11339F081EE98E10E947A370E943837F394F7E019
S1133A00FF1508F068CF0E9438378FEC92E00E94CF
S1133A1026370E943837E12C90E064C0CE2DD0E0E8
S1133A200F2D10E0FE01EE0FFF1FEE0FFF1FE00F42
S1133A30F11FEE0FFF1FEE0FFF1FE85DF74F8081B0
S1133A408F3F09F447C061EE78E18E2D0E940F3A52
S1133A50BC016F5F7F4F0F2EF8E2DF2EF02DFC01CB
S1133A60D082CC0FDD1FCC0FDD1FC00FD11FCC0FB8
S1133A70DD1FCC0FDD1FC85DD74F89810E944F3AEF
S1133A80BC016F5F7F4F2DE2FC01208399818A8105
S1133A90890F0E944F3AFC0119E2108380E281836E
S1133AA0BF016D5F7F4F8EE3828388810E94AB3AB2
S1133AB0BC016F5F7F4FFC01D0828B810E944F3A23
S1133AC0FC011083118281EE98E10E947A370E94F2
S1133AD038379FEFF39401C0F12CF3E0FF1508F0A1
S1133AE09DCFE3948FE08E15B8F7911106C084EB57
S1133AF092E00E9426370E9438370E94383785ECBE
S1133B0092E00E9426370E943837C0E025C061EE5B
S1133B1078E18C2F0E94AB3ADC01BC016F5F7F4FD0
S1133B208AE38C93EC2FF0E0EE0FFF1FE85DF64F75
S1133B3080818F3F19F00E940F3A05C0CD01029693
S1133B402DE211962C93FC01108281EE98E10E94E3
S1133B507A370E943837CF5FC430C8F20E943837B2
S1133B6089EB92E00E942637C6E2D8E061EE78E164
S1133B7088810E940F3ABC016F5F7F4F2EE3FC01E6
S1133B80208389810E940F3AFC01108281EE98E122
S1133B900E947A370E94383780E0DF91CF911F91DD
S1133BA00F91FF90EF90DF90CF90BF90AF909F90D8
S1133BB008951F93CF93DF9310E009C0C12FD0E085
S1133BC0C359DA4F88810E94563C88831F5F18309E
S1133BD0A8F3DF91CF911F9108958DE695E00E949F
S1133BE0FB2EE7DF80E008950E94783080E0F5DF67
S1133BF080E00895863031F08091A805803410F477
S1133C000E94E62F80E0E9DF80E00895CF93C62F7D
S1133C108823D9F0E62FF0E0DF01AF5EB74F8C9137
S1133C20811108C0862F0E94682D882371F00E949C
S1133C30DC320BC0DF01AF5EB74F1C92EE0FFF1FEB
S1133C40E859FD4E84910E94DC32EC2FF0E0EF5EE7
S1133C50F74F8081811102C082E801C081E8CF91D1
S1133C60089560E0D3CF089561E0D0CF089563E074
S1133C70CDCF089562E0CACF089564E0C7CF089518
S1133C8065E0C4CF089566E0C1CF089567E0BECF74
S1133C90089569E0BBCF089568E0B8CF08956AE05D
S1133CA0B5CF08956BE0B2CF0895CF93803460F41C
S1133CB0909127089F3F41F0C82F892F806C0E9464
S1133CC0A5368C2F0E94A536CF910895882334F40D
S1133CD00E9478308FEF0E94DC2F13C0882389F074
S1133CE08091F6078F3F21F48FE38093F60703C09A
S1133CF081508093F6078091F607D7DF8FEF80938A
S1133D000F0880E008958823E9F04CF48091F607C9
S1133D108F3F91F0885F8F738093F6070DC08823DF
S1133D2059F08091F6078F3321F48FEF8093F607D3
S1133D3003C08F5F8093F6078091F607B6DF8FEF9D
S1133D4080930F0880E008958823E9F04CF4809173
S1133D50F6078F3F91F088508F738093F6070DC05C
S1133D60882359F08091F6078F3F21F48FE38093E5
S1133D70F60703C081508093F6078091F60795DF1C
S1133D808FEF80930F0880E00895109268050097E4
S1133D9069F48AE997E09093AA058093A9058FEDC9
S1133DA093E090939D0580939C0508C09093AA0589
S1133DB08093A90570939D0560939C058FEF809374
S1133DC0760589EE93E090937A05809379050895BA
S1133DD062EA72E182E00C94B13B089564EA72E114
S1133DE083E00C94B13B089566EA72E181E00C949F
S1133DF0B13B089564E972E181E00C94B13B08950C
S1133E006FE872E181E00C94B13B089568EA72E1D5
S1133E1080E00C94B13B0895809175058A3011F0CF
S1133E208E3031F460E872E180E00C94B13B089587
S1133E3060EA72E180E00C94B13B089580917505CD
S1133E408A3011F08E3031F462E872E181E00C9432
S1133E50B13B08956EE972E181E00C94B13B0895A1
S1133E60CF93DF93E09175058E2F90E0FC0132979C
S1133E70ED30F10508F0E4C08827EE58FF4F8F4F6E
S1133E800C94633C8091B905E4ECF5E0982F92958D
S1133E909F7090838F708183D3C08091B9058031E6
S1133EA020F08FEF8093C405CBC08F5F8093C4054F
S1133EB0C7C08091B905882334F4E4ECF5E010829E
S1133EC08FEF8183BDC01092C50508C0E4ECF5E016
S1133ED091819F5F91838C508093B9058091B9053E
S1133EE08C30A0F78093C405ABC08091B905E4EC95
S1133EF0F5E0982F92959695977090838F718093A3
S1133F00B905118208C0E4ECF5E091819F5F9183CB
S1133F108A508093B9058091B9058A30A0F78093BF
S1133F20C6058EC0E4ECF5E01082118208C0E4EC12
S1133F30F5E090819F5F908384568093B9058091CA
S1133F40B9058436A0F708C0E4ECF5E091819F5FE1
S1133F5091838A508093B9058091B9058A30A0F77E
S1133F608093C6056DC08091B905843020F08FEF31
S1133F708093C40565C08093C40562C08091B9056F
S1133F80843020F083E08093C4055AC08093C40534
S1133F9057C08091B9058093C40552C0E92FF0E061
S1133FA08091B905282F221F2227221FEC53FA4F94
S1133FB02083880F8093B9059F5F01C090E09830FB
S1133FC068F33EC08250F0E0DE019D91EC53FA4F5D
S1133FD09F709083E82FF0E09881EC53FA4F92950C
S1133FE09F709083ED0103C0C2EAD5E088E0EFEF53
S1133FF0E80F8111E7CF24C08091B905E4ECF5E026
S1134000982F97709F5F90838695869586958F5F8E
S1134010818316C08091B9058F5F8093B905109292
S1134020C40508C0E4ECF5E090819F5F90838A505A
S11340308093B9058091B9058A30A0F78093C505AE
S1134040DF91CF9108950F931F93CF93DF93E09166
S113405075058E2F90E0FC013297ED30F10508F0E4
S11340603BC18827E158FF4F8F4F0C94633C04EC0D
S113407015E0F80180810E942739C5E2D2E08883E7
S1134080F80181810E94273989831A8225C1E5E2DA
S1134090F2E083E4808388E681838091C4058F3FC6
S11340A029F480E282838DE2838312C08A3048F04F
S11340B0C5E2D2E091E39A838A500E9427398B8328
S11340C007C0C5E2D2E090E29A830E9427398B832D
S11340D01092290201C18091C4058F3F21F0909173
S11340E0C5059F3F59F4E5E2F2E08EE680839FE642
S11340F09183828385E683831482EEC09FE5909347
S113410026028B3021F488E48093250220C0853078
S113411058F4982F96959D5B9093250280FF17C0C5
S113412083E28093260213C0282F30E02550310902
S1134130359527952A5B2093250280FD03C083E2F1
S113414080932602283419F481E480932502809117
S1134150C505811104C08DE6809327020BC08C3005
S113416030F481500E9427398093270203C08DE2E6
S11341708093270210922802AFC0C5E2D2E08DE4FA
S1134180888304EC15E0F80180810E942739898333
S113419082E48A83F80181810E9427398B83F801A4
S11341A082810E9427398C831D8296C004EC15E01D
S11341B0F80180810E942739C5E2D2E08883F801A2
S11341C081810E9427398983F80182810E942739DD
S11341D08A831B8281C08091C405833038F4E5E270
S11341E0F2E093E3981B9083118276C0833031F41C
S11341F0E5E2F2E080E5808311826EC0E5E2F2E060
S11342008DE28083118268C08091C405E5E2F2E00A
S1134210805D8083118260C08091C405811109C0D2
S1134220E5E2F2E081E4808385E7818383E78283AA
S113423008C0E5E2F2E085E4808389E681838EE6C6
S113424082831092280248C0C12FD0E0FE01EC53B3
S1134250FA4F80810E942739CB5DDD4F88831F5F31
S113426001C010E0183080F337C0822F90E0FC01C9
S1134270EC53FA4F3081311102C03FE601C039E4FA
S1134280FC01EB5DFD4F30832F5F01C020E028303F
S113429060F322C0A4ECB5E08C91E5E2F2E0805D2D
S11342A0808311968C91805C8183128215C0E4EC2A
S11342B0F5E090818181292F282B31F4E5E2F2E0A9
S11342C08DE28083818306C0E5E2F2E0905D908315
S11342D0805D818310922702DF91CF911F910F910E
S11342E008950F931F93CF938EE10E94F912C0E0BB
S11342F005E212E00BC0F8018081882319F00F5FFA
S11343001F4F01C080E20E942313CF5FCA3098F38D
S1134310CF911F910F9108958A301CF488231CF0CB
S1134320089580E0089589E008950F931F93CF9333
S1134330DF93C82FE091A905F091AA0531968491E5
S1134340282F2071E09175058E2F90E0FC013297A3
S1134350ED30F10508F093C18827E457FF4F8F4FE4
S11343600C94633CD0E0CC53DA4F8881680F6F70B3
S1134370688385C121111BC0613041F48091C4055B
S1134380803120F081E08093C40579C16F3F49F406
S11343908091C40582508F3020F080E18093C40561
S11343A06EC1E4ECF5E08081680F608368C1613020
S11343B041F48091C405803121F48FEF8093C405CA
S11343C05EC1613041F48091C4058F3F21F481E0E6
S11343D08093C40554C16F3F41F48091C4058F3F5D
S11343E021F480E18093C4054AC16F3F41F4809178
S11343F0C405813021F48FEF8093C40540C1E4ECFF
S1134400F5E08081680F60833AC18091C5058F3FD4
S113441009F4C1E0C11116C08091C4058C3050F478
S11344208B3011F4613041F0811102C06F3F31F0E3
S1134430680F05C060E003C060E001C06BE06093FA
S1134440C4052BC021110AC0811102C06F3FC1F005
S11344508A3011F46130B1F0680F1DC0811102C0BF
S11344606F3F91F08A3011F4613081F08F3F11F485
S1134470613071F08F3F11F46F3F61F0680F0BC032
S11344806AE009C060E007C06FEF05C06FEF03C0CA
S113449060E001C06AE06093C5059091C4059F3F48
S11344A009F4EDC08091C5058F3F09F4E8C0282FB9
S11344B0220F820F282F220F220F920F0AF0DFC043
S11344C0E4ECF5E087E080838AE08183D8C0C11101
S11344D007C0E4ECF5E08081680F67706083CFC0AB
S11344E0D0E004EC15E0CC53DA4F8881860F14DF5A
S11344F08883F80181819281880F282F220F220F4F
S1134500820F890F80322CF083E0818381E08283E3
S1134510B6C088230CF0B3C0E4ECF5E0118212823B
S1134520AEC0D0E004EC15E0CC53DA4F8881860F9E
S1134530F3DE8883F8012081818190E0AC01440F8F
S1134540551F880F991F880F991F880F991F840F73
S1134550951FF4E62F9F800D911D1124F8012281EF
S1134560820F911D8F3F910509F00CF488C082E001
S1134570808385E08183828382C02223A1F0D0E0FE
S1134580FE01EC53FA4F8081680F6083643019F4A4
S11345908FEF808374C06E3F09F071C0CC53DA4F43
S11345A083E088836CC0D0E0FE01EC53FA4F808135
S11345B0811105C06F3F19F483E0808360C08330AC
S11345C031F4613021F4CC53DA4F188258C0CC5303
S11345D0DA4F680F688353C0D0E0CC53DA4F888138
S11345E0680F637068834BC0E4ECF5E080818095CC
S11345F0808345C0D0E081E061FD80E0CC53DA4F98
S113460088833DC0613041F4D0E0CC53DA4F8881D7
S113461087708F5F888333C0EC2FF0E0EC53FA4F40
S11346208081825087708F5F808329C0E4ECF5E03D
S113463090818181990F292F220F220F920F890FC8
S1134640C11107C0660F962F990F990F690F680F54
S113465001C0680F66231CF061341CF403C060E0E1
S113466001C060E01092C40506C0E4ECF5E080816E
S11346708F5F80836A506A30C4F76093C505DF9109
S1134680CF911F910F910895E09175058E2F90E0C1
S1134690FC013297ED30F10508F0DAC08827E756BF
S11346A0FF4F8F4F0C94633CE4ECF5E0808120E1F4
S11346B0829FC001112491819F70892B8093B90539
S11346C008959091C4058FEF890F803118F090936D
S11346D0B90508958093B90508959091C4059F3F45
S11346E021F08091C5058F3F21F48FEF8093B905A8
S11346F00895282F220F820F880F880F890F809327
S1134700B9050895E4ECF5E0808130E2839FC001AF
S1134710112421813281220F422F440F440F240F90
S1134720230F203220F08F618093B9050895822BE6
S11347308093B9050895E4ECF5E02081818190E04F
S1134740AC01440F551F880F991F880F991F880FBC
S1134750991F840F951F34E6239F800D911D11240A
S11347602281820F911D8F3F910529F020F08FEF58
S11347708093B90508958093B90508958091C4057F
S11347808093B905843008F463C08FEF8093B90532
S113479008958091C40583708093B905089580912C
S11347A0C4058093B90508951092B90580E00CC042
S11347B09091B905990FE82FF0E0EC53FA4F20815E
S11347C0920F9093B9058F5F883090F308951092FB
S11347D0A2051092A3051092A4051092A505A2EAC1
S11347E0B5E088E010C08250F0E0EC53FA4F9081BD
S11347F0E82FF0E0EC53FA4F208130E1239F900D35
S113480011249C931196EFEFE80F8111ECCF0895DA
S1134810E4ECF5E020819181892F90E00197880FE5
S1134820991F880F991F880F991F9FEF920F892B4B
S11348308093B9050895E4ECF5E080819181880FB7
S1134840282F220F220F820F890F81508093B905E0
S113485008950F931F93CF93DF938C01D62FC0E05D
S11348600CC0F8018491882319F00F5F1F4F02C018
S11348708D2FD0E20E942313CF5FCA3090F3DF91D3
S1134880CF911F910F91089580E40E94F912E09155
S11348906805E11107C06AE380919C0590919D052C
S11348A0D8CF0895F0E03197EE0FFF1FE558FA4F87
S11348B0808191816AE30296CCCF0895E091A905A5
S11348C0F091AA0584918F7390E002971CF0C8DAE6
S11348D0BADB07CD0895E0917905F0917A058091CE
S11348E07605E80FF11D31968491825E0E94F912DB
S11348F02091760530E0E0917905F0917A05849174
S113490090E001972817390714F468DA03C083E0AC
S11349100E94EC3B80917605882311F059DA03C09C
S113492082E00E94EC3B78DA89DA0C94003C08952A
S113493084E10C94F91208950F931F93CF93F8DF39
S11349408BED93E00E946B138091D9189091DA1843
S11349500E94E93A8DE20E9423138091D918909124
S1134960DA18049730F48091D9189091DA18C82F86
S113497001C0C4E00091441610E0005C1B4E13C05B
S113498084E10134180710F0F80102C0E0E4F5E115
S11349908F010150110980810E945E39C15019F0C4
S11349A080E20E942313C111EBCF80E0CF911F91CD
S11349B00F9108950F931F93CF93BADF86ED93E081
S11349C00E946B1380915016909151160E94E93AFF
S11349D08DE20E94231380915016909151160497F2
S11349E030F48091501690915116C82F01C0C4E044
S11349F00091EF1310E00F5B1A4E13C085E10234EF
S1134A00180710F0F80102C0E1E4F6E18F0101504B
S1134A10110980810E945E39C15019F080E20E9420
S1134A202313C111EBCF80E0CF911F910F91089513
S1134A300F931F93CF938F3FA9F40E948613815045
S1134A4080930B0210920A026AE872E180E00E94ED
S1134A50B13B64E872E181E00E94B13B0E94003CFA
S1134A60CFEF2FC0843049F480910B02882321F1C9
S1134A70815080930B02CFEF24C0813091F40091D8
S1134A800B0210E00F5F1F4F0E94861390E008177F
S1134A901907A4F480910B028F5F80930B02CFEF70
S1134AA010C0833011F0853059F480910A0280954A
S1134AB080930A02CFEF05C0CFEF03C0CFEF01C050
S1134AC0C0E0CF3F09F054C033DF0E948613811148
S1134AD006C089E993E00E946B13C0E01DC0809179
S1134AE00B028F5F0E949A398AE30E9423138091FC
S1134AF00A02811108C060E280910B020E9427150E
S1134B000E945B1306C080910B020E94CD130E9489
S1134B106B130E94713B0CDF61E080910A028F3FAE
S1134B2009F060E081E00E941F3C00910B0210E05C
S1134B300F5F1F4F0E94861390E00817190734F483
S1134B4064EA72E183E00E94B13B03C083E00E9407
S1134B50EC3B80910B02882331F062EA72E182E03F
S1134B600E94B13B03C082E00E94EC3B0E94003CE7
S1134B708C2FCF911F910F9108958AE40C94F91210
S1134B800895D6DE8AE00C94653B08958EE10E9478
S1134B90F9128AE00C94653B089580E40E94F912AE
S1134BA08AE00E94653BE9DF8AE00C94653B089546
S1134BB0F4DFECDFE6CF0895E091A905F091AA05B2
S1134BC084918F73813011F40FC908953E96059036
S1134BD0F491E02D309759F0893039F480818111B6
S1134BE002C008C908950CC90895FEC8089581E05B
S1134BF00C94EC3B0895CF9389E40E94F912E09160
S1134C00A905F091AA05C491C07CC03839F480E2AA
S1134C100E94231382E00E94EC3B04C08FE70E94B1
S1134C202313D6D8C03C29F483E00E94EC3BC0E2B5
S1134C3002C0D4D8CEE7EAD8BFDF8091A90590910D
S1134C40AA056C2F029605DE0E94003C96DFCF91E8
S1134C5008958FEF80933D028091A9059091AA0554
S1134C60FC012491622F6F73623008F449C09C01E7
S1134C70225F3F4FF901459155914115510509F4C2
S1134C803FC0E62FF0E031979F01220F331F220F20
S1134C90331F220F331FE20FF31FE751FC4FF09332
S1134CA07A05E093790524912093A005FC012591D0
S1134CB02F7320937505249122232CF42091B105A0
S1134CC03091B20502C020E030E0240F351FFC0112
S1134CD084918F738B3071F4F90180819181A28169
S1134CE0B3818093A2059093A305A093A405B093E8
S1134CF0A50504C0F90180818093B905DFDD07C0F3
S1134D0045DF89EE93E090937A058093790554DF2B
S1134D1034CF089536DF9DDFB7DD6DDF0C94883B1B
S1134D200895CF93C82F0E94883BE091A905F09184
S1134D30AA0584918F73813029F0809176058F3F85
S1134D4009F068C13196849186FF02C01ADF15DF2D
S1134D506091A9057091AA05CB010196FC0184918B
S1134D60982F907285FF1FC09B01205F3F4FF90170
S1134D702591359121153105B1F0409176054F3FCC
S1134D8091F08C2FF90119958F3F21F4109276053B
S1134D9080E004C2F6DEFADEF0DE8FEF8093760563
S1134DA02ADF80E0FBC1C33009F464C028F4C130B9
S1134DB051F0C23031F1DBC1C53009F45BC090F071
S1134DC0C630F9F0D4C1FB018491807C803C09F4A5
S1134DD0D0C17496F093AA05E093A9053ADF0BDFDE
S1134DE080E0DCC1FB018491807C803809F4C3C17C
S1134DF07497F093AA05E093A9052BDFFCDE80E00D
S1134E00CDC184FF04C01092CE051092CD05E0916F
S1134E106805EE23E9F0E150E0936805F0E0EE0F59
S1134E20FF1FE558FA4F0190F081E02DF093AA0599
S1134E30E093A90572960590F491E02D309711F056
S1134E4080E019959EDE20DDD6DE03DF80E0A6C17A
S1134E5080E00E94EC3B81E00E94EC3B82E00E94F7
S1134E60EC3B83E00E94EC3B0E94003C0E948F3BA1
S1134E708FEF94C1FB0124912F7330E02230310570
S1134E800CF448C070960590F491E02D309719F019
S1134E908C2F1995DEDE2091A9053091AA05C90150
S1134EA00196FC01849183FD68C1C9010E96FC0141
S1134EB085919591892B09F462C1F90184918F73CD
S1134EC0893019F561E080E030DADEDBE091A90594
S1134ED0F091AA053E960590F491E02D8091B905D4
S1134EE08083ECDC69DE0E94003C47DEE091A9058A
S1134EF0F091AA0572960590F491E02D309709F48B
S1134F0040C180E0199580E049C110927605E3DC48
S1134F1080E044C12FEF2093760584FF26C0709370
S1134F20CE056093CD05E0916805EE2309F42BC10D
S1134F30E150E0936805F0E0EE0FFF1FE558FA4FEB
S1134F400190F081E02DF093AA05E093A9057296F3
S1134F500590F491E02D309711F080E0199511DE61
S1134F6093DC49DE76DE80E019C1FB017096059082
S1134F70F491E02D309799F0992371F08FEF199502
S1134F808F3F19F4109276050AC0FBDDFFDDF5DDD5
S1134F908FEF8093760503C085E01995EEDD2091AF
S1134FA0A9053091AA05C9010C96FC01859195913A
S1134FB0892B09F4EAC0A0916805A03108F0E7C084
S1134FC081E08A0F80936805B0E0AA0FBB1FA55843
S1134FD0BA4F2D933C93C9010196FC01849183FF40
S1134FE00BC08091CD059091CE05009729F0909348
S1134FF0AA058093A90508C0F9013C96859195916D
S11350009093AA058093A905BCDD3EDCF4DD21DE86
S113501080E0C4C0C33009F449C028F4C13059F059
S1135020C23031F1B6C0C53009F45EC0C0F0C6303C
S113503009F48AC0AEC0482F50E0E0917905F091A0
S11350407A05249130E021503109421753070CF0BE
S1135050A2C08F5F809376053EDC80E09FC08823EA
S113506009F49BC081508093760535DC80E096C0BE
S113507061E05BD909DB22DC809175058A3011F08F
S11350808E3089F420917605422F50E0E091790525
S1135090F0917A05849190E00197481759071CF420
S11350A02F5F2093760517DC80E078C06FEF3DD941
S11350B0EBDA04DC809175058A3011F08E3089F4C6
S11350C020917605422F50E0E0917905F0917A0520
S11350D0849190E00197481759071CF42F5F20939F
S11350E07605F9DB80E05AC0CFDA2091A90530912A
S11350F0AA05C9010E96FC01A591B591109721F15D
S11351000D97FC01849188232CF48091B105909132
S1135110B20502C080E090E0A80FB91FF9018491A4
S11351208F738B3071F44091A2055091A305609167
S1135130A4057091A5054D935D936D937C9313978E
S113514003C08091B9058C93E091A905F091AA055B
S113515072960590F491E02D309711F08C2F1995EB
S11351608FEF8093760547DD74DD80E017C080E023
S113517015C080E013C080E011C080E00FC080E063
S11351800DC080E00BC080E009C080E007C080E073
S113519005C080E003C080E001C080E0CF910895A5
S11351A00F931F93CF93DF93EC010091A803E09139
S11351B0A905F091AA0584918F73813091F4CE01F1
S11351C00E94423C24E130E0A901481B5109CA0174
S11351D0959587958C5E0E94F91283E080939E05D5
S11351E005C084E10E94F91210929E051091A80353
S11351F0CE010E946B13802F0E94F9129FB7F8947E
S113520081E006C0EFE2F2E084E68687178680E05C
S11352108111F8CF9FBF812FDF91CF911F910F9103
S1135220089588EB93E0BCDF0E944735A6DC80E05C
S113523008958091A6058F3F11F08D3F71F50E946E
S11352408F3BA4DC1092F30790E0E9E4F2E007C09E
S113525021818091C205822B818338969F5F903291
S1135260B8F38091A6058F3F19F41092A6055BC090
S113527082EB93E095DF8EEF8093A6059FB7F894B9
S113528081E006C0EFE2F2E082E08487858780E077
S11352908111F8CF9FBF71DC46C08E3F41F48FEF80
S11352A08093F3071092C2050E94883B3CC0409152
S11352B0690550916A0560916B0570916C0576954E
S11352C06795579547954093690550936A05609390
S11352D06B0570936C05E82FF0E0DF01AA0FBB1F8C
S11352E0AA0FBB1FAA0FBB1FA75BBD4F16962C911D
S11352F09091C205292349F470684093690550933D
S11353006A0560936B0570936C05EE0FFF1FEE0F3B
S1135310FF1FEE0FFF1FE75BFD4F2181922B91834F
S11353208F5F8093A605E091A605E03228F5F0E0B2
S1135330EE0FFF1FEE0FFF1FEE0FFF1FE75BFD4F8A
S11353408091C205982F90958181892381838EE174
S11353500E94F9128091A6050E949A399FB7F89489
S113536081E006C0EFE2F2E088E08487158680E001
S11353708111F8CF9FBF0895E03281F580916905CE
S113538090916A05A0916B05B0916C050097A105F9
S1135390B10521F48EEA93E003DF0FC08093DD189A
S11353A09093DE18A093DF18B093E0188BEA93E093
S11353B0F7DE0E94F9120E9475398EEF8093A605DC
S11353C09FB7F89481E006C0EFE2F2E082E08487C0
S11353D0858780E08111F8CF9FBFCFCB089581E00E
S11353E090E00090780502C0880F991F0A94E2F7B4
S11353F08093C2058FEF8093A605109269051092E1
S11354006A0510926B0510926C0513DF80E0089515
S11354108EEA93E0C5CE08958EE10E94F91281E9E7
S113542093E00E946B130E94460DF2DF80E0089522
S11354308EE10E94F91281E993E00E946B130E94AD
S1135440520DE6DF80E0089581E993E0A9DE8EE164
S11354500E94F9120E94130DDBDF80E00895CF93C0
S1135460C091A80380E40E94F91284E10E94653B84
S11354708C2F0E94F912CF91089580919E0583305C
S113548019F47FDB83CB0895811102C07ACB089590
S1135490813011F47BCB0895E2CF08950F931F93CD
S11354A0CF93DF93EC011091A8030E94423C082F94
S11354B080E40E94F91284E190E0801B91099595A3
S11354C087950E94653BCE010E946B139091A803BF
S11354D084E5891B0E94653B812F0E94F9129FB7C6
S11354E0F89481E006C0EFE2F2E084E6868717864E
S11354F080E08111F8CF9FBF82E080939E05DF9109
S1135500CF911F910F9108950F931F93CF93DF9322
S1135510EC011091A8030E944C3C082F80E40E94E7
S1135520F91284E190E0801B9109959587950E947A
S1135530653BCE010E945B139091A80384E5891B0F
S11355400E94653B812F0E94F9129FB7F89481E075
S113555006C0EFE2F2E084E68687178680E08111D8
S1135560F8CF9FBF82E080939E05DF91CF911F917A
S11355700F910895CF93C62F61EE78E10E94D03940
S1135580BC018EEC93E00E94C43A6C2F70E00E9440
S1135590DA3A81EE98E1B8DFCF910895CF9388236A
S11355A054F4C091F607CF3FD1F06FEF8C2F74D431
S11355B06C2FE0DF14C0882391F08091F6078F33BD
S11355C021F48FEF8093F60703C08F5F8093F60773
S11355D08091F6070E94551E8FEF80930F0880E09C
S11355E0CF910895CF93882349F0C091F607CF3F18
S11355F029F06FEF8C2F50D46C2FBCDF80E0CF915B
S113560008950F931F93CF93C82F70E081EE98E114
S11356100E94DA3ABC016F5F7F4F2EE7FC012083C2
S11356208C2F0E94D039BC0189EC93E00E94C43ACB
S11356308C010E940E0F84E0CAD3C82F882349F03E
S1135640B80187EC93E00E94C43ABC018C2F0E94FD
S1135650D03981EE98E158DFCF911F910F910895D1
S1135660CF93C62F882334F46FEF8C2F15D46C2F6F
S113567081DF09C0882339F0862FA8D46C2FC1DFBD
S11356808C2F0E94551E8C2F77D4882331F08C2FB9
S113569038D4811104C081E803C082E801C082E8E3
S11356A0CF91089560E0DCCF089561E0D9CF0895EB
S11356B062E0D6CF089563E0D3CF089520E034E0CC
S11356C08037930749F034E08037930738F04497E4
S11356D02F5FA9F780E00895822F089580E0089550
S11356E0CF930E94940B8F3FC9F40FC0822F90E098
S11356F0FC01ED54FA4F1082880F991FFC01E65407
S1135700FA4F118210822F5F01C020E0243070F321
S113571040E050E067E081E00E942115C0E025C030
S11357204C2F50E0FA01ED54FA4F80818B3170F424
S113573024E1829FC001112480599B4F440F551FBF
S1135740FA01E654FA4F918380830EC0FA01EE0FFA
S1135750FF1FE654FA4F118210824F5F5F4F406182
S113576067E081E00E942115CF5FC430C8F2CF9179
S11357700895CF93DF93643028F50097B9F0FC01C6
S113578024912F73213091F43196249124FF0EC07B
S1135790C62FD0E0FE01EE0FFF1FE654FA4F9183AF
S11357A080838CDFCD54DA4F88830CC070E0FB011A
S11357B0EE0FFF1FE654FA4F11821082FB01ED54E5
S11357C0FA4F1082DF91CF910895E091A905F091ED
S11357D0AA053E96659175918091CD059091CE056F
S11357E0C8DF0E94F10C80E008950F931F93CF93BC
S11357F0C0E032C00C2F10E0F801EE0FFF1FE6549A
S1135800FA4F0190F081E02D309731F03E9665918A
S113581075916115710521F48C2F0E94EC3B1BC01E
S11358208C2F0E94B13B000F111FF801E654FA4F70
S11358300190F081E02D70960590F491E02D309761
S113584051F080E01995813811F46FEF01C060E0E8
S11358508C2F0E941F3CCF5FC43060F20E94003C3A
S1135860CF911F910F910895823049F018F481303F
S113587051F00BC0833059F0843019F006C080E039
S1135880089582E0089583E008958FEF089581E0FC
S113589008950F931F93CF938430D0F5E82FF0E051
S11358A0EE0FFF1FE654FA4F008111810115110517
S11358B089F1F80194919F73913071F53196949127
S11358C094FF2CC0C82F3F960590F491E02D30979B
S11358D089F0862F1995823829F460E08C2F0E9474
S11358E01F3C06C0813821F46FEF8C2F0E941F3CAF
S11358F00E94003CF8013C9685919591009781F0B7
S1135900B8016E5F7F4F0E94C51E04DA80E009C0B3
S11359108FEF07C08FEF05C08FEF03C08FEF01C07B
S11359208FEFCF911F910F910895CF93C091A8034A
S11359308CE00E94F9128091450284FF02C080E24B
S113594001C089E00E9423138C2F0E94F912CF9189
S1135950089585B1806485B983E180934502E5DFCC
S113596080E0089585B18F7B85B910924502DDDF13
S113597080E0089585B18F7B85B981E080934502ED
S1135980D4DF9FB7F89481E006C0EFE2F2E088E24A
S11359908283138280E08111F8CF9FBF0895109213
S11359A0D2071092CF051092D10708959091D20793
S11359B0E92FF0E0ED52F84F80839F5F9F71809153
S11359C0CF05981304C08FEF8093D1070895909367
S11359D0D20708954FB7F89421E011C09091CF05F4
S11359E03091D2078FEF20E0931749F0E92FF0E0D0
S11359F0ED52F84F80819F5F9F719093CF052111E5
S1135A00EDCF4FBF08954FB7F89491E008C030919F
S1135A10CF052091D20790E080E0321711F08FEF8C
S1135A2001C090E09111F3CF4FBF0895AC01909164
S1135A30F3079923E1F09091D00721E0290F2093F7
S1135A40D007E92FF0E0EE0FFF1FE053FA4F518328
S1135A5040838091F50728130AC09093D0079F3F95
S1135A6019F48FEF8093D0078FEF8093F407089594
S1135A70E091F5078091D007E81303C08FEF9FEF03
S1135A80089581E08E0F8093F507F0E0EE0FFF1F7D
S1135A90E053FA4F8081918108959091F5078091A8
S1135AA0D007981302C080E008958FEF089580E036
S1135AB0E1E1F8E003C010828F5F31968C30D8F3B7
S1135AC00895F5DF8FEF8093F60710920F0808957D
S1135AD08C30E8F4E82FF0E0EF5EF74F9FEF90830F
S1135AE0863010F0865001C08A5FE82FF0E0DF01B5
S1135AF0AF5EB74F8C91882359F0DF01AF5EB74F8B
S1135B001C92EE0FFF1FE859FD4E8491089580E02A
S1135B10089580E090E04BE001C0422F282F392FF8
S1135B20220F331F822F932FE42FF0E0EF5EF74F05
S1135B3050815F3F09F481602FEF240F4111EDCFB5
S1135B40089540E080FF07C0E42FF0E0EF5EF74FD8
S1135B502FEF208305C0E42FF0E0EF5EF74F1082B3
S1135B60282F392F36952795822F932F4F5F4C304E
S1135B7048F3089580E8809346020C94AF0D08958D
S1135B8020E030E012C0822F90E0FC01EE0FFF1FF6
S1135B908E0F9F1FFC01E950F84F81818F3F21F048
S1135BA0831710F031E0380F2F5F283060F3309303
S1135BB0100808958FEF8093330920E00EC0822FE0
S1135BC090E0FC01EE0FFF1FE80FF91FE950F84FBA
S1135BD08FEF8083818312822F5F283080F30E94AD
S1135BE0380B8F3F49F41092100840E050E065E014
S1135BF081E00E94211501C0C3DF0E946C0B8F3F1E
S1135C00A1F52AC0832F90E0FC01EE0FFF1F880F3F
S1135C10991F880F991F880F991FE80FF91FEC59D6
S1135C20F64FE20FF11D10822F5F01C020E02830F3
S1135C3048F3832F90E0FC01EE0FFF1F880F991F9C
S1135C40880F991F880F991FE80FF91FEC59F64F19
S1135C50118610863F5F01C030E0303438F340E0F5
S1135C6050E066E081E00C942115089590911008AD
S1135C708917A0F4803490F428E0E7EFF7E030814E
S1135C80831748F09181981730F02281982F931B45
S1135C9080E0920F08953396215089F78FEF90E0BA
S1135CA0089590E016C04091F907841788F0682F92
S1135CB070E0E7EFF7E0218130E0240F311D5081DF
S1135CC0251B3109261737071CF0841B850F0895FF
S1135CD09F5F983040F38FEF0895CF939091100811
S1135CE0891708F03CC0C62FC1DF811130C0292FAD
