:100000000C94170A0C94380A0C94380A0C94380A89
:100010000C94380A0C94380A0C94380A0C94380A58
:100020000C94380A0C94380A0C94380A0C94380A48
:100030000C94380A0C94380A0C94380A0C94380A38
:100040000C94380A0C94380A0C94380A0C94380A28
:100050000C94380A0C947D100C94380A0C94380ACD
:100060000C94380A0C942C3A0C94723A0C94380A7A
:100070000C94380A0C94380A0C94380A0C94380AF8
:100080000C94380A0C94380A0C94380A0C94380AE8
:100090000C943F380C9494380C94380A0C94380A19
:1000A0000C94380A0C94380A0C94380A0C94380AC8
:1000B0000C94380A0C94380A0C94380A0C94380AB8
:1000C0000C94380A0C94380A0C94380A0C94380AA8
:1000D0000C94380A0C94380A0C94323B0C948A3BEA
:1000E0000C94380ABA22C522D122ED220A232B23EE
:1000F0003623412356236C23742382235623AF23B4
:10010000BF23E32335244E2463247C248424A924A0
:10011000A924C224CF24BE242A2532257D25DF250B
:100120000926352664266C2672262A257A268E26EE
:100130007226CC26D926E526FA261327362741270C
:1001400047274C275F27802793274C27A53DBA3D9B
:10015000A83D993DAB3DAE3D9C3DB13D9F3DB43D7D
:10016000A23DB73D1B1B1B1B1B1B1B001B1B181899
:10017000181818001B1B0303030303001B1B0000BC
:100180000000000018181818181818001818000097
:100190000000000004040404150E0400040E1504FD
:1001A000040404004C6F673A20000000496E697433
:1001B00069616C69736174696F6E00000100454587
:1001C0003A4D6F64756C650000000000000001018D
:1001D00045453A4D6964692D496E000000000000F4
:1001E000010245453A4D6964692D4F757400000060
:1001F0000000010345453A4D616E2D4D6F64756CED
:1002000065000000010445453A55534200000000D6
:10021000000000000000010545453A52656769731A
:100220007465720000000000010645453A50726F87
:100230006772616D730000000000010745453A5385
:100240006F66746B65797300000000000108454516
:100250003A4D69646954687275000000000002003C
:100260004D6F643A4661696C0000000000000000B8
:1002700002014D6F643A556E6B6E6F77496E700078
:10028000000003004F56464C3A4D696469496E00C0
:100290000000000003014F56464C3A4D6964694F17
:1002A00075740000000004004F56464C3A506970C7
:1002B000654D73670000000005005077723A4F7576
:1002C000707475744F6E0000000054EF6E6520610D
:1002D00075730054617374656E2F5265672E206CC0
:1002E000EF73656E004D4944492D496E7465726621
:1002F000616365006E6F6E65004D6964692D5468B9
:1003000072753A20004D6964692D4F75743A004D3D
:100310006964692D496E3A00646972656374204DA1
:100320004944492D4F757428696E742920666F728F
:10033000206D616E75616C3A20002C2042697473E7
:100340003A004D6F64756C653A00656D70747900A4
:1003500052656769737465723A0D0A0052616E677F
:100360006520004D616E75616C3A20004D6F6475BB
:100370006C657320636865636B65643A20004D6F3C
:1003800064756C65732061737369676E65643A2088
:1003900000486172647761726520436F6E666967B9
:1003A00075726174696F6E0D0A000D0A4D494449FA
:1003B0002D4F7267616E2D496E746572666163655B
:1003C0000D0A004C6F670D0A00656D7074790D0A97
:1003D00000736176652E2E2E003C6E6F6E653E00BA
:1003E000756E61737369676E656400453A006F6B83
:1003F000200061626F7274004D494449204E6F7451
:10040000656E20617573002B0020526567002052D5
:100410006567207E20004F75743A00496E3A004DA2
:10042000656EF50000000000000000000000000004
:1004300000000200010000000000000103000000B5
:1004400000000000020002000000000000030103A1
:100450000400000000000300010200000000000191
:10046000000000000000000001000000000000008B
:100470000001000000000000000008000102030469
:100480000506070800010203040506070200010033
:100490000000000000020001000000000000080051
:1004A0000102030405060700000000000000000030
:1004B00081103C6E6F6E653E0000000000000C086D
:1004C0000000000001104D656E7500000000000086
:1004D000160802080000000001105374696D6D6574
:1004E0006E0000007A0DF8070000000001104B6F4D
:1004F0007070656C323C33000000DA07B3200000F6
:1005000001104B6F7070656C313C33000000D007F8
:10051000B620000001104B6F7070656C503C3300CA
:100520000000C607B920000001104B6F7070656CA9
:10053000313C32000000BC07BC20000001104B6FB2
:100540007070656C503C32000000B207BF200000A4
:1005500001104B6F7070656C503C31000000A807B3
:10056000C220000001104B6F7070656C333C32008C
:1005700000009E07C520000001104B6F7070656C75
:10058000333C310000009407C820000001104B6F7D
:100590007070656C333C500000008A07CB2000006F
:1005A00001104B6F7070656C323C310000008007A9
:1005B000CE20000001104B6F7070656C323C500013
:1005C00000007607D120000001104B6F7070656C41
:1005D000313C500000006C07D42000000110507224
:1005E0002E2B2F736574000000003A07E7210000EE
:1005F000011050722E2D2F636C7200000000300726
:10060000AC210000011050726F672E2031410000B4
:100610000000620768210000011050726F672E20F1
:1006200032410000000058076B2100000110507299
:100630006F672E203341000000004E076E2100003E
:10064000011050726F672E203441000000004407F3
:1006500071210000011050726F672E636C720000F0
:100660000000F406E41B0000011050726F672E7347
:10067000657400000000FE06EB20000001105072BF
:100680006F672E2B000000000000260703220000E9
:10069000011050726F672E2D0000000000001C0733
:1006A000BF2100000110507242616E6B2B000000F0
:1006B00000001207842100000110507242616E6B2D
:1006C0002E2D0000000008078F21000001104D4969
:1006D0004449204F666600000000E4073929000005
:1006E000C110536574757000000000006A0EEE07BB
:1006F0000000000050636C720000000000005073A6
:1007000065740000000000005072422D00000000DF
:1007100000005072422B000000000000502D00002D
:10072000000000000000502B00000000000000004E
:10073000502D2F63000000000000502B2F7300008D
:100740000000000050413400000000000000504153
:1007500033000000000000005041320000000000A3
:10076000000050413100000000000000313C50808A
:10077000000000000000323C50800000000000003B
:10078000323C3180000000000000333C508000000B
:1007900000000000333C3180000000000000333CCA
:1007A0003280000000000000503C3180000000005A
:1007B0000000503C3280000000000000313C3280DC
:1007C000000000000000503C3380000000000000EA
:1007D000313C3380000000000000323C33800000D8
:1007E000000000004D4F66660000000000005365E9
:1007F00074750000000000005374696D0000000073
:1008000000004D656E750000000000000000000053
:1008100000000000000081004D616E75616C0000F9
:1008200000008E08000000000000010052656769AA
:10083000737465720000B60800006F2000000100AC
:100840004D494449000000000000820A00000000F9
:100850000000010054617374656E000000002A0DF1
:1008600000000000071C01005374617475730000E0
:1008700000005613000000000000C10053657475AD
:100880007000000000006A0E0000000000008100FF
:100890004B6F7070656C0000000092090000000052
:1008A0000000C1005374696D6D656E0000007A0D23
:1008B0000000000000008C0050726F672E6C6164B5
:1008C0002E000000CE0500007C200C0050726F67E7
:1008D0002E73702E00000000CE050000FC1B0100EE
:1008E0006175730000000000000000000000762029
:1008F00000000E005265672E312D38000000000008
:1009000093050000BC1B0E005265672E392D313651
:100910000000000094050000BC1B0E005265672E0D
:1009200031372D323400000095050000BC1B0E004D
:100930005265672E32352D333200000096050000D7
:10094000BC1B0E005265672E33332D34300000007F
:1009500097050000BC1B0E005265672E34312D3404
:100960003800000098050000BC1B0E005265672E81
:1009700034392D353400000099050000BC1BCA0035
:100980005265672E35352D36340000009A0500007B
:10099000BC1B8900323C3300000000000000000056
:1009A00037080000E91B0900313C3300000000005B
:1009B0000000000038080000E91B0900313C32004B
:1009C000000000000000000039080000E91B0900D9
:1009D000503C330000000000000000003A08000016
:1009E000E91B0900503C320000000000000000003C
:1009F0003B080000E91B0900503C310000000000EA
:100A0000000000003C080000E91B0900333C3200F4
:100A100000000000000000003D080000E91B090084
:100A2000333C310000000000000000003E080000E0
:100A3000E91B0900333C50000000000000000000EA
:100A40003F080000E91B0900323C310000000000B3
:100A50000000000040080000E91B0900323C500083
:100A6000000000000000000041080000E91BC90070
:100A7000313C50000000000000000000420800006F
:100A8000E91B81004E6F7465734F666600000000BD
:100A900000003929000001004D494449696E0000F9
:100AA00000004A0B00000000821D01004D4944492E
:100AB0006F7574000000CA0D000000007E1D031059
:100AC000546872752D496E00000000004C0800004B
:100AD000B81B0310546872752D4F75740000000028
:100AE0004D080000B81B0900416363657074205015
:100AF00043000000580900007A1D09004163742E6C
:100B000053656E7365000000560900007A1D0900E8
:100B100056656C5A344F66660000000057090000A5
:100B20007A1D06085278427566557365000000000C
:100B3000671500000000C608547842756655736555
:100B400000000000701600000000810043682E3194
:100B50000000000000008A0C0000191B00000100CA
:100B600043682E320000000000008A0C0100191BAF
:100B70000000010043682E330000000000008A0CD2
:100B80000200191B0000010043682E340000000021
:100B900000008A0C0300191B0000010043682E3579
:100BA0000000000000008A0C0400191B0000010076
:100BB00043682E360000000000008A0C0500191B57
:100BC0000000010043682E370000000000008A0C7E
:100BD0000600191B0000010043682E3800000000C9
:100BE00000008A0C0700191B0000010043682E3921
:100BF0000000000000008A0C0800191B0000010022
:100C000043682E313000000000008A0C0900191BD7
:100C10000000010043682E313100000000008A0C02
:100C20000A00191B0000010043682E313200000049
:100C300000008A0C0B00191B0000010043682E31D4
:100C40003300000000008A0C0C00191B000001009A
:100C500043682E313400000000008A0C0D00191B7F
:100C60000000010043682E313500000000008A0CAE
:100C70000E00191B0000C10043682E313600000031
:100C800000008A0C0F00191B00008100536563747B
:100C90002E3100000000DA0C0000241B00000100CF
:100CA000536563742E3200000000DA0C0100241B2F
:100CB00000000100536563742E3300000000DA0C5D
:100CC0000200241B0000C100536563742E34000031
:100CD0000000DA0C0300241B000087904D616E7544
:100CE000616C0000000000004E080000000004904D
:100CF0004D69644E6F746500000000004F080000ED
:100D00000000068052616E67650000000000000070
:100D1000500800000000C4904D616E4E6F74650075
:100D20000000000051080000000081085461737445
:100D3000653100000000B00400009D1BDC2D01089F
:100D400054617374653200000000B00401009D1B03
:100D5000DC2D010854617374653300000000B00499
:100D600002009D1BDC2DC1085461737465340000C2
:100D70000000B00403009D1BDC2D81204D616E2E10
:100D800033000000000000000000531C00000120A0
:100D90004D616E2E32000000000000000100531C67
:100DA000000001204D616E2E3100000000000000A7
:100DB0000200531C0000C120506564616C000000FB
:100DC000000000000300531C000083104949490043
:100DD00000000000000000004E09000000000310A9
:100DE0004949000000000000000000005009000018
:100DF0000000031049000000000000000000000097
:100E00005209000000000310500000000000000024
:100E1000000000005409000000000310494949285F
:100E2000696E7429000000004F09000000000310E3
:100E3000494928696E74290000000000510900002A
:100E4000000003104928696E7429000000000000AA
:100E5000530900000000C3105028696E7429000077
:100E60000000000055090000000081004D6F64750E
:100E70006C6500000000361000000000000001005A
:100E800052656769737465720000CE0E0000000041
:100E9000B41B010055534200000000000000A613DF
:100EA0000000000000000100506F77657200000034
:100EB0000000FA0F000000000000C10045457072FC
:100EC0006F6D00000000BE0F0000000000008100F8
:100ED000536563742E31000000006E0F0000881B04
:100EE00000000100536563742E32000000006E0F95
:100EF0000100881B00000100536563742E3300005D
:100F000000006E0F0200881B00000100536563742F
:100F10002E34000000006E0F0300881B000001004B
:100F2000536563742E35000000006E0F0400881BAB
:100F300000000100536563742E36000000006E0F40
:100F40000500881B00000100536563742E37000004
:100F500000006E0F0600881B0000C100536563741B
:100F60002E38000000006E0F0700881B00008280F2
:100F7000437572736F7200000000000000020000F1
:100F80000000028043686172000000000000000061
:100F90000102000000000D80526567426567000095
:100FA00000000000020200000000CD80526567458D
:100FB0006E640000000000000302000000008100D9
:100FC00045455361766500000000000000003122B5
:100FD0000000010045454261636B75700000000030
:100FE000000019220000C1004545526573746F72FC
:100FF000650000000000252200008100506F776529
:10100000724F6E00000000000000A02E00000100E2
:10101000506F7765724F6666000000000000A92ED1
:101020000000C100502E526573746172740000009C
:101030000000B12E00008A004D6F645265616400AB
:101040000000000078030000901D0A004D6F6457F7
:10105000726974650000000079030000901D0A08A1
:101060004D6F644F4B000000000000006B02000059
:10107000000001004D6F64546573740000009A1005
:10108000000000000000C1004D6F64417373696788
:101090006E008A1100000000861D81004D6F642ED5
:1010A0003000000000003A1100000E1B000001009B
:1010B0004D6F642E3100000000003A1101000E1B3C
:1010C000000001004D6F642E3200000000003A1154
:1010D00002000E1B000001004D6F642E3300000063
:1010E00000003A1103000E1B000001004D6F642E3A
:1010F0003400000000003A1104000E1B0000010043
:101100004D6F642E3500000000003A1105000E1BE3
:10111000000001004D6F642E3600000000003A11FF
:1011200006000E1B0000C1004D6F642E370000004A
:1011300000003A1107000E1B000081005265616437
:10114000000000000000000000000B1C00000B006D
:10115000577269746500000000000000D305A51AED
:10116000E11A0100546573745074726E000000003F
:101170000000372A0000C1004C6F6F705473740078
:10118000000000000000401C000081004D616E2E38
:101190003300000000008E120000421B000001001E
:1011A0004D616E2E3200000000008E120100421BC5
:1011B000000001004D616E2E3100000000008E1213
:1011C0000200421B00000100506564616C000000D9
:1011D00000008E120300421B0000C10052656769C7
:1011E000737465720000EE110400000000008100BD
:1011F000536563742E3100000000DE120000721B84
:1012000000000100536563742E3200000000DE12FE
:101210000100721B00000100536563742E3300004F
:101220000000DE120200721B0000010053656374AF
:101230002E3400000000DE120300721B00000100CB
:10124000536563742E3500000000DE120400721B2B
:1012500000000100536563742E3600000000DE12AA
:101260000500721B00000100536563742E370000F7
:101270000000DE120600721B0000C100536563749B
:101280002E3800000000DE120700721B00008100F3
:10129000536563742E31000000001A1300004D1BCB
:1012A00000000100536563742E32000000001A1321
:1012B00001004D1B00000100536563742E330000D4
:1012C00000001A1302004D1B0000C1005365637437
:1012D0002E34000000001A1303004D1B00008D8007
:1012E0005265674265670000000000001D080000AD
:1012F00000000D80526567456E640000000000002C
:101300001E0800000000C5804D6F64756C652F429B
:10131000697400001F080000000084904E6F74651F
:1013200042656700000000005A09000000000490B8
:101330004E6F7465456E6400000000005B0900009C
:101340000000C5804D6F64756C652F4269740000A4
:101350005C090000000081204C6F67000000000065
:1013600000000000000090280000010055534200DA
:10137000000000000000A613000000000000024072
:101380004D4944492D496E0000000000000014281A
:101390000000C2404D4944492D4F757400000000C3
:1013A00000005228000089004576656E744C6F6716
:1013B0000000000078160000BA1D010053656E643D
:1013C0004C6F6700000000000000941D0000C10089
:1013D000536E644857436667000000000000CE1D4E
:1013E000000056302E3830000100020002010300D8
:1013F00003010302000100020102000301030203D2
:101400003100300054657874800045786974007E3E
:10141000617573007E65696E0045696E80002D0000
:101420002B007F007E00090008000D0A0000112437
:101430001FBECFEFD1E2DEBFCDBF00E00CBF12E098
:10144000A0E0B2E0E4E6FEE700E00BBF02C00790D8
:101450000D92A832B107D9F729E1A8E2B2E001C0A4
:101460001D92A634B207E1F70E9464170C94303F36
:101470000C940000FC018FEF9FEF1CC0DF01119660
:1014800020818227282F22952827022E269526950F
:101490002025022E269520252770082E892F269597
:1014A00007942795902D82270694279590258227CB
:1014B000BA01FD01AB0141505109672BF9F60895BE
:1014C000EF92FF920F931F93CF93DF93CFEFDFEF56
:1014D00021C07C012FEFE21AF20A0E94FE3E9E011B
:1014E0002827822F82958227082E8695869580252B
:1014F000082E869580258770022E232F86950794C7
:101500008795302D28270694879530252827E901CF
:10151000B801C7018B0101501109672BD1F6CE012B
:10152000DF91CF911F910F91FF90EF900895FC01F3
:10153000CA011CC0DF01119620818227282F229525
:101540002827022E269526952025022E2695202531
:101550002770082E892F269507942795902D82278E
:101560000694279590258227BA01FD01AB014150D1
:101570005109672BF9F60895EF92FF920F931F938D
:10158000CF93DF93EA0121C07C012FEFE21AF20A28
:101590000E94FE3EAE014827842F82958427082EA4
:1015A000869586958025082E869580258770042E41
:1015B000452F869507948795502D48270694879543
:1015C00050254827EA01B801C7018B0101501109D4
:1015D000672BD1F6CE01DF91CF911F910F91FF9034
:1015E000EF900895CF93DF9382E390E00E94063F4F
:1015F000EC0160E370E082E090E062DFC817D90799
:1016000081F481E090E00E94FE3E8D3451F440E38D
:1016100050E062E070E08AE599E00E94EE3E80E0F2
:1016200006C0809128028160809328028FEFDF91AD
:10163000CF910895CF93DF9385E391E00E94063F19
:10164000EC0160E071E085E390E03ADFC817D9076C
:1016500081F484E390E00E94FE3E893451F440E03E
:1016600051E065E370E08EE498E00E94EE3E80E099
:1016700006C0809128028260809328028FEFDF915C
:10168000CF910895CF93DF9383E491E00E94063FCA
:10169000EC016BE070E088E391E012DFC817D90736
:1016A000C1F487E391E00E94FE3E8F3491F448E05C
:1016B00050E068E371E08EE499E00E94EE3E43E082
:1016C00050E060E471E086E599E00E94EE3E80E043
:1016D00006C0809128028460809328028FEFDF91FA
:1016E000CF910895CF93DF9388E491E00E94063F65
:1016F000EC0161E070E086E491E0E2DEC817D90712
:10170000A1F485E491E00E94FE3E893671F486E4FE
:1017100091E00E94FE3EC8E7D3E0888387E491E031
:101720000E94FE3E898380E006C080912802886086
:10173000809328028FEFDF91CF910895CF93DF93AD
:1017400087EF93E00E94063FEC0162E070E085EFD6
:1017500093E0B6DEC817D90781F484EF93E00E94C6
:10176000FE3E843551F442E050E065EF73E08CE4D6
:1017700098E00E94EE3E80E006C0809128028260E0
:10178000809328028FEFDF91CF910895CF93DF935D
:101790008CE491E00E94063FEC0161E070E08BE494
:1017A00091E08EDEC817D90771F48AE491E00E94B7
:1017B000FE3E853541F48BE491E00E94FE3E80932D
:1017C000781680E006C08091280288608093280205
:1017D0008FEFDF91CF910895CF93DF9361E070E0B9
:1017E0008FE491E06DDEAC0168E170E080E591E0AE
:1017F000C3DEEC0188E691E00E94063FC817D907D6
:10180000B1F48EE491E00E94FE3E823581F48FE4D3
:1018100091E00E94FE3E8093360848E150E060E58A
:1018200071E08DE198E00E94EE3E80E006C080917C
:1018300028028062809328028FEFDF91CF91089574
:10184000CF93DF938BEE93E00E94063FEC0160E8BC
:1018500072E08BE691E034DEC817D90781F48AE69E
:1018600091E00E94FE3E803551F440E852E06BE684
:1018700071E08AE899E00E94EE3E80E006C0809127
:1018800028028064809328028FEFDF91CF91089522
:10189000CF93DF9382EF93E00E94063FEC0164E078
:1018A00070E08EEE93E00CDEC817D90751F444E0E7
:1018B00050E06EEE73E089ED95E00E94EE3E80E030
:1018C00006C0809128028068809328028FEFDF9104
:1018D000CF910895CF93DF938AE194E00E94063F71
:1018E000EC0160E270E08AEF93E0EADDC817D90707
:1018F00051F440E250E06AEF73E080E092E00E9431
:10190000EE3E80E006C0809128028062809328022B
:101910008FEFDF91CF91089560E080E090E00E942A
:101920001A3F65E68CE194E00C941A3F0895CF933A
:10193000DF9360E370E08AE599E09CDDEC010E94B2
:10194000183E6DE481E090E00E941A3F40E350E0D1
:1019500062E070E08AE599E00E940B3FBE0182E3FD
:1019600090E00E942C3FD8DF0E94263EDF91CF916D
:101970000895CF93DF9360E071E08EE498E07ADD24
:10198000EC010E94183E69E484E390E00E941A3F53
:1019900040E051E065E370E08EE498E00E940B3F88
:1019A000BE0185E391E00E942C3FB6DF0E94263EF7
:1019B000DF91CF910895CF93DF9368E070E08EE4DC
:1019C00099E058DDAC0163E070E086E599E0AFDDB9
:1019D000EC010E94183E6FE487E391E00E941A3FF9
:1019E00048E050E068E371E08EE499E00E940B3F2C
:1019F00043E050E060E471E086E599E00E940B3F2F
:101A0000BE0183E491E00E942C3F86DF0E94263EC7
:101A1000DF91CF9108950F931F93CF93DF9361E0F0
:101A200070E088E793E026DD8C010E94183E69E6AD
:101A300085E491E00E941A3FC8E7D3E0688186E41C
:101A400091E00E941A3F698187E491E00E941A3F69
:101A5000B80188E491E00E942C3F5EDF0E94263EA0
:101A6000DF91CF911F910F910895CF93DF9361E0A4
:101A700070E088E796E1FEDCEC010E94183E65E527
:101A80008AE491E00E941A3F609178168BE491E01D
:101A90000E941A3FBE018CE491E00E942C3F3CDF83
:101AA0000E94263EDF91CF910895CF93DF9362E0AD
:101AB00070E08CE498E0DEDCEC010E94183E64E506
:101AC00084EF93E00E941A3F42E050E065EF73E03C
:101AD0008CE498E00E940B3FBE0187EF93E00E94E8
:101AE0002C3F1ADF0E94263EDF91CF910895CF93BD
:101AF000DF9361E070E086E398E0BCDCAC0168E174
:101B000070E08DE198E013DDEC010E94183E62E583
:101B10008EE491E00E941A3F609136088FE491E0D4
:101B20000E941A3F48E150E060E571E08DE198E0E5
:101B30000E940B3FBE0188E691E00E942C3FECDE44
:101B40000E94263EDF91CF910895CF93DF9360E806
:101B500072E08AE899E08EDCEC010E94183E60E5B4
:101B60008AE691E00E941A3F40E852E06BE671E09D
:101B70008AE899E00E940B3FBE018BEE93E00E9441
:101B80002C3FCADE0E94263EDF91CF910895CF936D
:101B9000DF9364E070E089ED95E06CDCEC010E947D
:101BA000183E6BE48DEE93E00E941A3F44E050E053
:101BB0006EEE73E089ED95E00E940B3FBE0182EF6F
:101BC00093E00E942C3FA8DE0E94263EDF91CF9139
:101BD0000895CF93DF9360E270E080E092E04ADC0A
:101BE000EC010E94183E62E789EF93E00E941A3FE1
:101BF00040E250E06AEF73E080E092E00E940B3F29
:101C0000BE018AE194E00E942C3F86DE0E94263EBF
:101C1000DF91CF9108958BDEACDECDDEFCDE25DFDB
:101C200066DF93DFB4DF41DFD4CF0895CF92DF9238
:101C3000EF92FF920F931F93CF93DF93EB0111C0AD
:101C40007C012FEFE21AF20A0E94FE3E6E019FEF26
:101C5000C91AD90A682FCE010E941A3FA801E601CD
:101C6000C7018A0101501109452B51F7DF91CF912E
:101C70001F910F91FF90EF90DF90CF9008950E94F9
:101C8000183E40E058E060E078E080E090E0CEDF91
:101C90000C94263E08950E94183E40E058E060E013
:101CA00070E080E098E0C2DF0C94263E089580E06A
:101CB0000AC0E82FF0E0EE0FFF1FE05BFD4F9FEF43
:101CC000908311828F5F8A30A0F3E4E6F2E0108205
:101CD0001182128213828FEF80937A03089582E03B
:101CE00084BD93E095BD80936E0089EF87BD85B17B
:101CF0008F7785B984B1806884B9089587E8809327
:101D00007A0010927B008FE780937C0081E08093C3
:101D10007E0010927F00ECE6F3E010828FEF81836B
:101D200082838093290280E010C0853039F4E82F47
:101D3000F0E0EE58FC4F96E0908306C0E82FF0E00C
:101D4000EE58FC4F9AE090838F5F863070F30895D1
:101D50008FEF88B987B982B911B884B3876084BB23
:101D600083B3876083BB8BB18F778BB98AB180686F
:101D70008AB980E00EC0E82FF0E0EE0FFF1FEE0FF3
:101D8000FF1FEE0FFF1FE459FD4F9FEF91839083DC
:101D90008F5F803280F3109269021092680208957A
:101DA000A1DC8F3F59F440E050E060E081E00E9408
:101DB0004E17E8E7F3E08FEF808381838BB18F7755
:101DC0008BB984B3876084BB84B38B7F84BB85E08D
:101DD0008A95F1F7000084B3846084BB90E284B3F9
:101DE000816084BB90FD02C085E501C08AEA88B9A4
:101DF00080B180936B0380936A038093690380931F
:101E00006803809367038093660384B38E7F84BBEB
:101E100085E08A95F1F70000915009F790E20FC034
:101E200084B3816084BB82E08A95F1F700C084B3FB
:101E30008E7F84BB82E08A95F1F700C091509111AA
:101E4000EFCF8FEF80936B0290E284B3816084BB0D
:101E50008FEF88B920B190FD02C08AEA01C085E504
:101E6000822720916B02822380936B0284B38E7F42
:101E700084BB85E08A95F1F70000915031F70000AE
:101E8000000084B3816084BB84B3876084BB84B367
:101E90008B7F84BB82E08A95F1F700C084B38460B5
:101EA00084BB90E2E4E6F3E08381828384818383D0
:101EB00084B3816084BB8FEF818388B985818483FB
:101EC0008681858380B186838283838384838583AF
:101ED000878384B38E7F84BB3897915029F70000A5
:101EE000000084B3816084BB84B38D7F84BB18B849
:101EF00085E08A95F1F7000084B3826084BB089581
:101F0000883008F06AC031E001C0330F8A95EAF7E3
:101F100080E8809369028BB18F778BB984B3876037
:101F200084BB40E01DC020FD03C0832F809501C00D
:101F30008FEF88B9269582E08A95F1F700C084B3C7
:101F40008E7F84BB82E08A95F1F700C084B3816004
:101F500084BB9F5F02C090E025EA983020F34F5F7A
:101F60004430C8F390E00FC082E08A95F1F700C0DA
:101F700084B38E7F84BB82E08A95F1F700C084B37E
:101F8000816084BB9F5F903278F390E040E050E046
:101F9000BA0117C0440F551F661F771F82E08A954C
:101FA000F1F700C084B38E7F84BB80B1832309F036
:101FB000416082E08A95F1F700C084B3816084BB00
:101FC0009F5F903238F3109269028BB180688BB9B1
:101FD000342F252F862F972F04C030E020E080E09B
:101FE00090E0632F722F089590E0ECE6F2E080E03D
:101FF00006C02FEF21832681822B38969F5F903277
:10200000C0F390917803892390916B0289230895FE
:10201000109269028091690281FFFCCF10926902DF
:102020008091690281FFFCCF089581E0809368026E
:102030009FB7F89406C0E0E5F2E088E2828313825D
:1020400080E08111F8CF9FBF0895809168028130B0
:1020500031F5CADF811114C085B1806485B982E190
:10206000809368029FB7F89481E006C0E0E5F2E053
:1020700081E08283138280E08111F8CF9FBF0895B1
:102080009FB7F89481E007C0E0E5F2E08CE082833E
:1020900082E0838380E08111F7CF9FBF0895823172
:1020A000B1F4A2DF811104C084E1809368020BC007
:1020B000482F50E060E085E0F1D685B18F7B85B98F
:1020C00080E8809368028FEF8093520208958FEF2B
:1020D00080935202089590E00DC0943050F4E92F9F
:1020E000F0E0811102C02AE001C026E0EE58FC4F6A
:1020F00020839F5F963088F308951F920F920FB64A
:102100000F9211240BB60F92EF92FF920F931F9331
:102110002F933F934F935F936F937F938F939F93EF
:10212000AF93BF93CF93DF93EF93FF9385B1806815
:1021300085B980916A028F5F80936A0283708130D3
:1021400009F458C138F0823009F4A5C1833009F48C
:10215000CAC105C28091290281111AC190917A00E9
:1021600096FD16C1282F30E0F901EE0FFF1FE20F98
:10217000F31FEE0FFF1FE459FC4F9181409179004E
:102180004183491710F4941B03C0542F591B952FFA
:10219000943008F0FDC081110EC0423270F04F3310
:1021A00070F0483670F0463970F04F3B70F0483EA2
:1021B00070F4C6E00DC0CFEF0BC0C4E009C0C3E0AF
:1021C00007C0C5E005C0C1E003C0C2E001C0CFEF59
:1021D000F901EE0FFF1FE20FF31FEE0FFF1FE4598F
:1021E000FC4FD281DC1709F448C0DF3F19F0CF3F24
:1021F00009F0CFEFF901EE0FFF1FE20FF31FEE0F13
:10220000FF1FE459FC4FC283DF3FF9F4C901880F77
:10221000991FFC01E20FF31FEE0FFF1FE459FC4F63
:1022200015821482FC01E20FF31FEE0FFF1FE45929
:10223000FC4F1382EC2FF0E0EF58FC4F808180FFC1
:10224000A7C08C2F0E94CD2EA3C0ED2FF0E0EF5839
:10225000FC4F808181FF9CC0F901EE0FFF1FE20F50
:10226000F31FEE0FFF1FE459FC4F8381837009F0C9
:102270008FC08D2F0E94CD2E8BC0CF3F09F488C018
:10228000F901EE0FFF1FDF01A20FB31FAA0FBB1F43
:10229000A459BC4F14968D919C9115970196159653
:1022A0009C938E931497FD01848195818B349105C5
:1022B000A9F4ED2FF0E0EF58FC4F808182FF0EC0B3
:1022C0008C2F80680E94CD2EE091290286E0E89F45
:1022D000F0011124E459FC4F82E08383ED2FF0E0FC
:1022E000EF58FC4F808183FF53C08091290290E01A
:1022F000FC01EE0FFF1FE80FF91FEE0FFF1FE4595F
:10230000FC4F238121111EC0FC01EE0FFF1FE80FBF
:10231000F91FEE0FFF1FE459FC4F24813581223352
:102320003105B1F526E0289FF001299FF00D112419
:10233000E459FC4F81E08383158214828C2F0E9424
:10234000CD2E26C0FC01EE0FFF1FE80FF91FEE0F88
:10235000FF1FE459FC4F23812130D1F426E0289F50
:10236000F001299FF00D1124E459FC4F248135819F
:102370002C30310569F426E0289FF001299FF00DEB
:102380001124E459FC4F158214828C2F0E94CD2E0B
:10239000809129028F5F80932902843010F010927F
:1023A00029028091290281110CC090E0FC01EE0FFE
:1023B000FF1FE80FF91FEE0FFF1FE459FC4F80814C
:1023C00001C08FE1982F9F71906690937C00EBE79E
:1023D000F0E02081807290E095958795959587959E
:1023E000922F9F7D892B8083EAE7F0E080818064D3
:1023F0008083B5C080916902803809F4B0C084B38D
:10240000876084BB84B38B7F84BB20917903209544
:10241000E2E0EA95F1F700C084B3846084BB90E207
:10242000E4E6F3E0838182838481838384B38160E3
:1024300084BB8181822B88B9858184838681858351
:1024400080B1868384B38E7F84BB3897915051F7D7
:102450000000000084B3816084BB84B38D7F84BBA3
:102460008091690282608093690218B88BB180689C
:102470008BB984B3826084BB72C0808181508E3FEF
:1024800038F421812F5F253010F0808320E02183F4
:1024900032969F5F03C090E0E0E5F2E09A3068F387
:1024A000E4E6F2E080818F5F80838A3F09F057C0C5
:1024B0008FEF80937A03108281818F5F81838C33C9
:1024C00008F44DC0118282818F5F82838C3308F4BF
:1024D00046C0128283818F5F8383843608F43FC0B5
:1024E000109267023CC0809169028038C1F1E0908F
:1024F000780380916B02E822F12C0CE612E02CC0EC
:10250000F801C28183819C2F9823C82B8481982352
:10251000C82B25819223C22B86819823C82BD78173
:10252000CD23C92BC7838D2F80958C238E2121F03D
:102530009F2D90620E940D2FC095CD238C2F8E2150
:1025400019F09F2D0E940D2F085F1F4F8091690287
:10255000816080936902F394FFE1FF1588F685B1ED
:102560008F7785B9FF91EF91DF91CF91BF91AF91B7
:102570009F918F917F916F915F914F913F912F919B
:102580001F910F91FF90EF900F900BBE0F900FBE19
:102590000F901F901895E82FF0E0EE0FFF1FEE0F41
:1025A000FF1FEE0FFF1FE459FD4F609581816823E7
:1025B00061830895E82FF0E0EE0FFF1FEE0FFF1F7D
:1025C000EE0FFF1FE459FD4F8181682B6183089551
:1025D0008FEF82B985B988B98BB98EB981BB84BBBD
:1025E00080930201809305018093080180930B0181
:1025F0008AB180688AB98BB18F778BB984B18064D6
:1026000084B985B18F7B85B984B1806384B908951D
:10261000882334F4E2E0F1E090819061908305C07A
:10262000E2E0F1E090819F7E908386FF06C0E2E0C9
:10263000F1E090819860908305C0E2E0F1E0908144
:10264000977F908385FF04C09EB198609EB903C0B8
:102650009EB1977F9EB984FF04C084B3806284BB1F
:1026600003C084B38F7D84BBE2E0F1E080818064AD
:10267000808385E08A95F1F7000080818F7B8083DD
:1026800085E08A95F1F700000895CF93DF93D82F66
:10269000C5B1C07385B18F7C806185B9E2E0F1E09E
:1026A00080818062808380818F7B80838D2FB0DFEB
:1026B0008D2F8295807FACDF8FEF90E00197F1F74F
:1026C00000C0000085B18F7CC82BC5B9DF91CF91C8
:1026D0000895CF93DF93D82FC5B1C07385B18F7C98
:1026E000806185B9E2E0F1E080818F7D8083808127
:1026F0008F7B80838D2F8CDF8D2F8295807F88DF6D
:10270000D150D23038F48FE097E20197F1F700C052
:10271000000006C08FEF90E00197F1F700C00000C5
:1027200085B18F7CC82BC5B9DF91CF910895CF9328
:10273000C5B1C07385B18F7C806185B91092CE031D
:10274000E1E0F1E080818061808380818860808326
:102750008DB188608DB983B3806283BB80818064D2
:1027600080838081806280832FEF81EE94E021500E
:1027700080409040E1F700C00000E2E0F1E080819D
:102780008F7D808380818F7B808380E341DF8FE139
:102790009EE40197F1F700C0000080E339DF8FE18C
:1027A0009EE40197F1F700C0000080E331DF8FE184
:1027B0009EE40197F1F700C0000088E229DF8FEF67
:1027C00090E00197F1F700C0000088E282DF88E026
:1027D00080DF81E07EDF86E07CDF8CE07ADF85B120
:1027E0008F7CC82BC5B9CF9108958093CD038058B5
:1027F00070CF08951092CD0381E06BDF80E0ECE7AD
:10280000F3E004C090E290838F5F31968035D0F37F
:102810000895843198F090EC980F943110F48C5214
:1028200008959CEE980F943110F48C5E08959CEA04
:10283000980F943110F4885108958FEF0895CF9335
:10284000DF93D82F8091CE03882331F08091CD0380
:10285000803410F0843510F08D2F17DFC091CD0338
:102860008C2FD7DF8F3F29F1D13A79F0D03879F02A
:10287000D53A79F0DA3279F0D23E79F0D53F79F075
:10288000DF3E79F0D13E81F40EC0D0E20DC0D0E23F
:102890000BC0D4E109C0D5E107C0D3E105C0D2E146
:1028A00003C0D1E101C0D0E1E82FF0E0E458FC4FD3
:1028B000D083CF5FCF77C093CD03DF91CF910895C1
:1028C000CF93DF93FC01892B19F407C0B8DFFE0119
:1028D000EF01219680818111F9CFDF91CF91089589
:1028E000CF93DF93FC01892B19F407C0A8DFFE0109
:1028F000EF01219684918111F9CFDF91CF91089555
:10290000FF920F931F93CF93DF938C01F090CD0331
:1029100080917B038093CC03C8010E94CF3ED82FC7
:1029200080E463DFC0E003C080E2AFDECF5F2C2F26
:1029300030E084E190E08D1B9109959587952817EB
:10294000390794F304C00F5F1F4F9FDECF5FF8017C
:1029500080818111F8CF03C080E297DEC12F11E0A2
:102960001C0FC431C8F38F2D40DF8FEF8093CE034F
:102970009FB7F89481E006C0E0E5F2E084E6868740
:10298000178680E08111F8CF9FBFDF91CF911F9113
:102990000F91FF900895FF920F931F93CF93DF93B2
:1029A0008C01D091CD0380917B038093CC03C8012F
:1029B0000E94C53EF82E80E418DFC0E003C080E22C
:1029C00064DECF5F2C2F30E084E190E08F19910915
:1029D000959587952817390794F306C00F5F1F4F09
:1029E000FC01849152DECF5FC801F80124912111CE
:1029F000F5CF03C080E249DEC12F11E01C0FC431C6
:102A0000C8F38D2FF2DE8FEF8093CE039FB7F8943B
:102A100081E006C0E0E5F2E084E68687178680E084
:102A20008111F8CF9FBFDF91CF911F910F91FF9040
:102A30000895EF92FF921F93CF93DF93EB0190E005
:102A4000880F991F880F991F880F991F806441DE96
:102A500010E009C07E018FEFE81AF80AFE018491A8
:102A600014DE1F5FE7011830A8F3DF91CF911F91AB
:102A7000FF90EF9008956CE971E080E0DADF64E99F
:102A800071E081E0D6DF6CE871E082E0D2DF64E8DB
:102A900071E083E0CEDF6CE771E084E0CADF64E7D9
:102AA00071E085E0C6DF6CE671E086E0C2DF64E6D7
:102AB00071E087E0BECF08958DE00BDE8FEF80934D
:102AC0007B0308958CE005DE10927B0308950F933D
:102AD0001F93CF93DF930091CD0380E49ADEC82F3C
:102AE00080E483DED0E022C011E01C0FEC2FF0E088
:102AF000E458FC4F8081843159F0853159F083319D
:102B000059F0823159F0813159F0803161F40AC0B5
:102B100085EA09C08AE207C082EE05C085EF03C0DE
:102B20008FEE01C081EEB1DDDF5FC12FD431E0F265
:102B3000802F5BDE8091CC038F3F11F4BDDF01C09D
:102B4000C1DF1092CE03DF91CF911F910F910895B5
:102B500088EF93E090938B0580938A059093890585
:102B6000809388050895809188059091890520912A
:102B70008A0530918B058217930748F0821B930BCF
:102B8000959587959DEC899F802D112408958057F8
:102B90009E4F821B930B959587959DEC899F802D69
:102BA00011240895CF93C82FDEDFC817F8F44091A1
:102BB0008A0550918B058C2F90E09C01220F331FCA
:102BC000880F991F880F991F880F991F280F391F89
:102BD000CA01820F931F65E08E37960749F040F0D7
:102BE00020593140CA01820F931F02C080E090E05B
:102BF000CF910895D7DF0097F1F1FC01368167810D
:102C000020E034C0422F50E0FA01EE0FFF1FCF0149
:102C1000880F991F880F991F880F991FE80FF91FB8
:102C2000E655FE4F8491381320C0FA01EE0FFF1FC6
:102C3000CF01880F991F880F991F880F991FE80FE0
:102C4000F91FE555FE4F849168130FC0440F551FBF
:102C5000CA01880F991F880F991F880F991F480F65
:102C6000591FCA0184559E4F08952F5F203150F29D
:102C700080E090E0089580E090E00895CF9373DFC6
:102C80001092CF03811114C017C08C2F8BDF0097D7
:102C900061F0FC012481203251F095818C2F953414
:102CA00039F48FEF8093CF0307C08C2F01C08C2F96
:102CB000CFEFC80F8111E9CFCF9108951F93CF9324
:102CC000DF93009709F47BC0162FEC018B818823DA
:102CD00079F060ED73E00E941F3CBC016F5F7F4F95
:102CE00028E6FC0120838A810E941F3CDC012FC062
:102CF0008A81882379F060ED73E00E941F3CBC015B
:102D00006F5F7F4F2DE6FC01208389810E941F3C6D
:102D1000DC011DC060ED73E089810E941F3CFC0155
:102D200083E780839881990F20E002C099512F5F3B
:102D30009931E0F7205D2183990F20E002C0955082
:102D40002F5F9530E0F7DF011396205D22839C8191
:102D5000903451F0903819F0903281F40AC0FD019E
:102D600031968AE28C930EC0FD01319685EA8C93F0
:102D700009C0FD01319680E28C9304C0FD013196BB
:102D80008FE38C93BF016F5F7F4F8D8180838E8136
:102D90000E94623CBC018F810E94623CBC016F5F5B
:102DA0007F4F2DE2FC012083888599850E949D3C00
:102DB000FC0110821F3F41F01C8360DF05C0E0ED85
:102DC000F3E08DE28083118280ED93E0DF91CF917B
:102DD0001F910895E0918805F0918905A4E6B2E07D
:102DE0009C919083E0918805F091890511969C91C2
:102DF00011979183E0918805F091890512969C9135
:102E00001297928313969C9193832583868367837D
:102E10005187408780E88483809178168F3F81F4C2
:102E200084EA91E00E94C2396FEF80918805909109
:102E3000890544DF0E94163A8AE294E10E94C23971
:102E400080918805909189050A96909389058093D1
:102E500088058E57954039F030F088EF93E09093D5
:102E60008905809388052091880530918905809196
:102E70008A0590918B052817390779F40A96909363
:102E80008B0580938A058E57954039F030F088EF96
:102E900093E090938B0580938A05089525E49ADF4B
:102EA0008FEF8093CF030895CF93C62F7BDE0097DB
:102EB00019F06C2F03DF06C0E0EDF3E08DE28083B4
:102EC0001182CF01CF91089583DB85B18F7C85B9C5
:102ED0003FDE0E94D8390E94C62E0E946F0E0E94CB
:102EE000570E0E947E0E0E94A80E0E9419380E9462
:102EF000D00E0E9450330E9490330E94582F0E949F
:102F0000D12F0E94A0320E9421340E94672D0E947E
:102F10000B0E1092E8050BDCAEDD6CDC83E465DCA7
:102F200085EE92E0DDDC8BE160DC82EE93E1D8DCC3
:102F300078942FEF47E98AE3215040408040E1F741
:102F400000C000000E94AB3A55DC6FD88FEF809331
:102F5000190880938D058EEF80938C05DFEF85B186
:102F60008F7C85B9209124143091251480911F14F1
:102F7000909120142817390709F466C00E94153B68
:102F8000C82F80938C050E94CC388FE78C0F863039
:102F900028F480E88C0F0E94CD2E56C0C03909F06D
:102FA00053C080911714803909F04EC091E0E92F89
:102FB000092E000CFF0BE95EFB4E80818D3319F06A
:102FC0009F5F9830A4F398300CF03EC0892F859510
:102FD00020E006C0E22FF0E0EF58F94E10822F5F9C
:102FE0002330C0F32CC0E92F092E000CFF0BE95E43
:102FF000FB4E308120ED230F2A3010F027ED230FF8
:10300000A22FAF70E1E7F6E1628120E1629FB0019B
:1030100011244181242F22952F70622B628320E19D
:10302000429FA00111242081322F32953F70432B03
:10303000418340E1249F900111242A2B2083915049
:1030400019168CF20E94E6360E94FA2E882309F4A3
:1030500055C085B1806385B98091CE038F3F09F457
:1030600036DD0E94E12EC82F8638B1F40E94EF377A
:103070000E94BF350E9438320E944E2F69DD1092A7
:1030800067151092701685B1806485B983E18093CD
:1030900068028AEC92E07FDC80918D058F3FF9F425
:1030A0008C2F8F73C53069F460E070E080E090E0B1
:1030B0000E943D220E940F2B10928D0580E00BD8BC
:1030C0001DC09FEF980F9430C8F40E942B2E6C2FD8
:1030D0000E94402E80938D050E94EC2D0FC08091A0
:1030E000E805811106C08C2F0E94162B80938D0558
:1030F00005C08DEF8093CC050E944E2980918D05EF
:103100008F3F71F4DF3F69F40E945B2A0E94EC2D2F
:103110008FEF0E946B108FEF80933508D0E001C0D5
:10312000DFEF85B18F7C85B980915E02811104C08B
:10313000CEDC8FEF80935E0280915C0281110AC029
:103140008091E805882319F00E944E2903C08FEF73
:1031500080935C028091520281111BC00E94251055
:103160000E948C2E80918D058F3F99F4C091CD03E4
:1031700084E13BDB80916802813021F483ED92E0B1
:10318000AFDB05C0823119F484E10E94F53D8C2F3C
:103190002CDB80918C059FE7980F963010F08E3FC6
:1031A00009F580917B038F3F31F48091CD0331DBB2
:1031B0000E94DF3A03C08FE70E94DF3A81E80E9455
:1031C000DF3AC0E0ECE7F3E008C08F010F5F1F4F6C
:1031D00080810E94DF3ACF5FF801C035B0F380E80C
:1031E0000E94DF3A8FEF80938C050E94FD370E948A
:1031F000C935C091CD0380915802882329F0809170
:1032000058028F3F09F067C080911C08803408F491
:1032100062C0809123028F3F91F180E0E6DA8091D5
:1032200021028F3F69F4809122020E94D23D8FE3F8
:1032300006DB809123020E94813D80E200DB0CC00E
:10324000809123020E94813D8EE7F9DA809121026C
:103250000E94E33D80E2F3DA8C2FC7DA8FEF809390
:1032600023029FB7F89481E006C0E0E5F2E083E234
:103270008087118680E08111F8CF9FBF2CC080919C
:1032800020028F3FD9F080E0B0DA80E7D8DA809171
:1032900020020E94053C8EE7D2DA8FEF8093200255
:1032A0009FB7F89481E006C0E0E5F2E083E2808712
:1032B000118680E08111F8CF9FBF0DC08091580228
:1032C000811109C092DA86E00E94F53D8C2F8DDADB
:1032D0008FEF8093580280915A028F3F21F08091A6
:1032E0005A0281115CC0809125028F3FF9F08FE076
:1032F0007CDA809124020E94E33D8EE7A0DA80917F
:1033000025020E94813D8C2F70DA8FEF8093250279
:103310009FB7F89481E006C0E0E5F2E088E282879A
:10332000138680E08111F8CF9FBF39C08091590981
:103330008F3F39F18FE059DA82E581DA80915909BE
:103340008F778F5F0E94053C80915909882314F084
:103350008AE001C08BE073DA80E271DA8C2F45DA03
:103360008FEF809359099FB7F89481E006C0E0E59C
:10337000F2E088E28287138680E08111F8CF9FBF58
:103380000EC080915A0281110AC08FE02EDA85E0CA
:103390000E94F53D8C2F29DA8FEF80935A0280919D
:1033A0008D058F3F71F5809135088F3F21F0809119
:1033B0006202811126C0109235089FB7F89481E00F
:1033C00006C0E0E5F2E084E1828B138A80E081119F
:1033D000F8CF9FBF0ADA0E947F3280916802813065
:1033E00081F080911C08803450F480912A020E9460
:1033F000A33280912A02809580932A0202C00E9403
:10340000273380917A038F3F09F07CC010927A03B2
:10341000F090CD03C0917B03CF3F09F453DB809143
:103420006702882359F08091650280FD0EC00F2E3F
:10343000FAE3EF2EF02D07E612E00CC00F2EFAE3B0
:10344000EF2EF02D06E612E005C06894EE24E5F8B4
:1034500007E612E087E0C9D9F80180810E94053CA7
:103460008E2DEDD9F801319780810E94053C409165
:103470007516442331F050E060E083E00FDD1092D8
:10348000751640917C16442331F050E061E083E0F2
:1034900005DD10927C168091680284FF02C080E2F4
:1034A00001C089E0CCD98091CF038F3F11F485E42E
:1034B00001C080E2C4D98F2D98D9CF3F09F4FCDA3E
:1034C000809158028F3F69F49FB7F89481E006C05D
:1034D000E0E5F2E08DE78087118680E08111F8CF8A
:1034E0009FBF80915A028F3F69F49FB7F89481E0A3
:1034F00006C0E0E5F2E08DE78287138680E0811167
:10350000F8CF9FBF80911A088F3F39F410921A08A4
:1035100040E050E060E084E0C1DC85B18F7C8062F7
:1035200085B990916A1680917916981721F00E94BA
:1035300015390E9452360E94442F8F3F09F00FCD5B
:103540000E942F2F0E9417370ACD1092D305109298
:10355000D4051092D5051092D60581E090E0009038
:103560009E0502C0880F991F0A94E2F7482F30E0A9
:10357000E4E6F3E022C08091D3059091D405A091B8
:10358000D505B091D605880F991FAA1FBB1F809340
:10359000D3059093D405A093D505B093D60521818A
:1035A000242349F081608093D3059093D405A093A0
:1035B000D505B093D60538973F5F3032E0F280E012
:1035C00008954091D3055091D4056091D50570912F
:1035D000D605853009F5A1E0B0E000909E0502C057
:1035E000AA0FBB1F0A94E2F73A2F90E0E4E6F3E05B
:1035F00011C0772324F48181832B818305C021812D
:103600008A2F809582238183440F551F661F771F61
:1036100038979F5F903268F380E00895E091CF057E
:10362000F091D0053E968591959180939E0580E01E
:103630000895E091CF05F091D0053E968591959142
:103640008093CD0580E00895E091CF05F091D005FD
:103650003E96259135912093DD058091CD058F70A3
:1036600090E02370880F991F880F991F820F911D7A
:10367000880F991F880F991F9093D8058093D705BD
:1036800080E00895E091CF05F091D0053E968591B8
:10369000959180939D0580E00895E091CF05F0918C
:1036A000D0053E96859195918093DD0520919D05ED
:1036B0002F7030E0837090E0A901440F551F240F54
:1036C000351F220F331F220F331FAC01440F551F2C
:1036D000840F951F820F931F9093D8058093D70571
:1036E00080E00895E091CF05F091D0053E96859158
:1036F00095918093DD05877090E09C01220F331F28
:10370000820F931F9093D8058093D70580E008958A
:10371000E091CF05F091D0053E96859195918093EB
:10372000DD05877090E0880F991F880F991F90938F
:10373000D8058093D70580E00895E091CF05F091FA
:10374000D0053E9685919591843060F4FC01FF2769
:10375000EE0FFF1FE052FA4F808191819093F405A4
:103760008093F30580E008950E94E90D80E00895BC
:103770000E94550D80E008951F93CF93DF9386300C
:10378000F1F0E091CF05F091D0053E960590F491CF
:10379000E02DCF0183599540880F880F880FD08185
:1037A000C0E00BC011E0180F6D2F661F6627661F63
:1037B0000E942431DD0FCF5F812FC83098F380E065
:1037C000DF91CF911F91089581110E94383280E0DE
:1037D0000895E091CF05F091D0053E9685919591A1
:1037E00087539840FC01FF27E95CF74F20812111A6
:1037F0000E945F2F80E00895863039F08091CE05D9
:10380000803418F46FEF0E94473280E008950E94E0
:10381000C70D80E00895CF92DF92EF92FF9281E092
:1038200090E000909E0502C0880F991F0A94E2F76D
:10383000282F90E0E4E6F3E0C12CD12C76010BC0F8
:10384000CC0CDD1CEE1CFF1C8681822311F06894D9
:10385000C0F838979F5F903298F38EE10E94F5137D
:10386000C0920219D0920319E0920419F09205193E
:103870000E94E03B80E0FF90EF90DF90CF900895B2
:103880008EE10E94F51380919E050E94800F609347
:1038900002197093031980930419909305190E94DB
:1038A000E03B80E00895CF938F3F09F079C080938B
:1038B0002F0210922E02E091CF05F091D0053E9696
:1038C0008591959180939D05843010F010929D050F
:1038D00020E039C080919D0590E0E22FF0E0DF010B
:1038E000AA0FBB1FAD014E0F5F1FDC01AA0FBB1F4C
:1038F000A80FB91FAA0FBB1FAA0FBB1FA40FB51F8C
:10390000A65AB64F3C9140912F02341710F43093D1
:103910002F02AF01440F551FE40FF51FAC01440FF8
:10392000551F840F951F880F991F880F991FE80F47
:10393000F91FE65AF64F818190912E02981710F4E4
:1039400080932E022F5F243028F280912F0288234B
:103950005CF48EE10E94F51380EE93E00E947014F7
:103960008FEF8093C50504C08093C50510922D028A
:103970006AE074E180E00E94343E69E174E181E034
:103980000E94343E6EE174E182E00E94343E60E2C7
:1039900074E183E00E94343E0E94833ECFEF71C009
:1039A0006091C5056F3F09F461C08130D9F4809101
:1039B0002E02681708F05CC040E080919D050E94CF
:1039C000C5346091C5056F5F6093C50580912D0278
:1039D000813009F04FC041E080919D050E94C534BF
:1039E000CFEF4FC08430D1F480912F02861708F0BA
:1039F00043C040E080919D050E94C5346091C5059B
:103A000061506093C50580912D028130B9F541E088
:103A100080919D050E94C534CFEF33C0833091F46F
:103A200080912D02811104C081E080932D0202C09B
:103A300010922D0240912D0280919D050E94C53467
:103A4000CFEF1FC0823011F0863039F440E0809112
:103A50009D050E94C534C0E014C0853089F440E063
:103A600080919D050E94C534C0E00BC0C0E009C034
:103A7000CFEF07C0CFEF05C0CFEF03C0CFEF01C03E
:103A8000CFEFCF3FA1F58091C5058F3F69F18EE162
:103A90000E94F5138091C5050E94813D80E20E943D
:103AA0001F1480912D0281110AC081E60E941F140B
:103AB00085E70E941F1483E70E941F1409C085E652
:103AC0000E941F1489E60E941F148EE60E941F1494
:103AD00061E080912D02811101C060E081E00E94CF
:103AE000A23E81110E94833E8EE10E94F5138C2F2D
:103AF000CF9108950E94DB0C80E008950E94DB0CBA
:103B000080E008950E94B90C80E008950E94970C0F
:103B10000E94B72F0E94770D0E94CA3380E008955B
:103B20000E940B0D80E00895CF9383EC93E00E94F8
:103B3000C23919D8811117C089EC93E00E94C239AB
:103B400016C06FEF8C2FB0D90E94163A8AE294E12A
:103B50000E94C2398C2F4ED80E94C2398AE294E169
:103B60000E94C2398C2FCFEFC80F8111EACF80E0BD
:103B7000CF9108950E94350D809178168F3F61F4A2
:103B80008AEA93E00E94C23982EE93E10E94C23930
:103B90008AE294E10E94C23980E008959F92AF9238
:103BA000BF92CF92DF92EF92FF920F931F93CF932A
:103BB000DF9381E993E00E94C2390E94D4398EE7F5
:103BC00093E00E94C239C8E7D3E066E079E18881DA
:103BD0000E94623C22E7FC012083BC016E5F7F4FA4
:103BE00020E2218389810E94623C27E7FC01208337
:103BF00086E099E10E94163A0E94D4398CE693E05F
:103C00000E94C23966E079E180916B020E94623CB9
:103C100086E099E10E94163A0E94D4390E94D43974
:103C2000E12CD1C083E693E00E94C23966E079E1DD
:103C30008E2D0E943A3D86E099E10E94163A0E943C
:103C4000D439F12CA4C08CE593E00E94C23980E302
:103C50008F0D0E94CC388AE30E94CC3880E20E940B
:103C6000CC380E2D10E0CF2CD12CE601CC0FDD1F6F
:103C7000CE018C0D9D1DE801CC0FDD1FC00FD11FA3
:103C8000CC0FDD1FCC0FDD1FC80FD91FC65AD64F72
:103C900066E079E188810E94623CBC016F5F7F4FE2
:103CA0000F2EFEE2BF2EF02DFC01B08289810E9412
:103CB000623CBC016F5F7F4FFC01B0828A810E9431
:103CC000623CFC0180E280839DE39183828386E0F5
:103CD00099E10E94163A888188232CF48AE493E0C3
:103CE0000E94C23951C066E079E10E94DE3CBC010D
:103CF0006F5F7F4F0F2EFDE29F2EF02DFC01908213
:103D0000F601EE0FFF1FCE0EDF1E5801AA0CBB1CE2
:103D1000E501C00FD11FCC0FDD1FCC0FDD1FCC0D77
:103D2000DD1DC65AD64F89810E94DE3C20E2FC018F
:103D30002083118286E099E10E94163A82E493E0A2
:103D40000E94C2398A81829586958770805D0E9423
:103D5000CC388AE393E00E94C2398A8166E079E137
:103D60008F710E941F3CBC016F5F7F4FFC019082EE
:103D70008A81998128818F71890F821B0E941F3C43
:103D800086E099E10E94163A0E94D439F394F3E058
:103D9000FF1508F058CF88E193E00E94C239EE2D5C
:103DA000F0E0EE0FFF1FE25BF64F66E079E1818104
:103DB0000E947A3C86E099E10E94163A0E94D4392A
:103DC0000E94D439E39483E08E1508F02BCF80E570
:103DD00093E00E94C239F12C94C08CE593E00E94DC
:103DE000C23980E38F0D0E94CC388AE30E94CC3820
:103DF00080E20E94CC38CF2DD0E08E01000F111F41
:103E00000C0F1D1F035E174F66E079E1F8018081FA
:103E10000E94623CBC016F5F7F4F0F2EFEE2EF2ECF
:103E2000F02DFC01E082F80181810E94623CBC011E
:103E30006F5F7F4FFC01E082F80182810E94623C4B
:103E4000FC0180E280839DE391838283138286E07C
:103E500099E10E94163AF80180818F3F29F48AE4A3
:103E600093E00E94C2394AC0E6E0F9E192E590830E
:103E70009EE2918368E079E18F5F0E943B3CBC0148
:103E80006F5F7F4F1DE2FC011083CE01880F991FE9
:103E9000C80FD91FC35ED74F89818F5F0E943B3CFB
:103EA00020E2FC012083118286E099E10E94163A0B
:103EB00082E493E00E94C2398A8182958695877058
:103EC000805D0E94CC388AE393E00E94C2398A81E7
:103ED00066E079E18F710E941F3CBC016F5F7F4FEC
:103EE000FC0110838A81998128818F71890F821B3F
:103EF0000E941F3C86E099E10E94163A0E94D43944
:103F0000F394F7E0FF1508F068CF0E94D4398FE0F2
:103F100093E00E94C2390E94D439E12C90E064C041
:103F2000CE2DD0E00F2D10E0FE01EE0FFF1FEE0FA3
:103F3000FF1FE00FF11FEE0FFF1FEE0FFF1FE25BF1
:103F4000F74F80818F3F09F447C066E079E18E2DFD
:103F50000E947A3CBC016F5F7F4F0F2EF8E2DF2E8C
:103F6000F02DFC01D082CC0FDD1FCC0FDD1FC00F68
:103F7000D11FCC0FDD1FCC0FDD1FC25BD74F898156
:103F80000E94DE3CBC016F5F7F4F2DE2FC0120836D
:103F900099818A81890F0E94DE3CFC0119E210831D
:103FA00080E28183BF016D5F7F4F8EE382838881D2
:103FB0000E943A3DBC016F5F7F4FFC01D0828B8134
:103FC0000E94DE3CFC011083118286E099E10E9490
:103FD000163A0E94D4399FEFF39401C0F12CF3E01C
:103FE000FF1508F09DCFE3948FE08E15B8F791117F
:103FF00006C084EF92E00E94C2390E94D4390E9428
:10400000D43985E093E00E94C2390E94D439C0E0DF
:1040100025C066E079E18C2F0E943A3DDC01BC01AD
:104020006F5F7F4F8AE38C93EC2FF0E0EE0FFF1F62
:10403000E25BF64F80818F3F19F00E947A3C05C009
:10404000CD0102962DE211962C93FC01108286E0A0
:1040500099E10E94163A0E94D439CF5FC430C8F269
:104060000E94D43989EF92E00E94C239CCE4D8E0B2
:1040700066E079E188810E947A3CBC016F5F7F4FE6
:104080002EE3FC01208389810E947A3CFC0110828E
:1040900086E099E10E94163A0E94D43980E0DF91CF
:1040A000CF911F910F91FF90EF90DF90CF90BF9035
:1040B000AF909F9008951F93CF93DF9310E009C0B6
:1040C000C12FD0E0CD56DA4F88810E94D93E888337
:1040D0001F5F1830A8F3DF91CF911F91089583E9F6
:1040E00095E00E94F830E7DF80E008950E943832C2
:1040F00080E0F5DF80E00895863031F08091CE05D4
:10410000803410F40E94AD3180E0E9DF80E0089552
:10411000CF93C62F8823D9F0E62FF0E0DF01A95C0A
:10412000B74F8C91811108C0862F0E945F2F882382
:1041300071F00E9484350BC0DF01A95CB74F1C925F
:10414000EE0FFF1FE851FC4E84910E948435EC2F46
:10415000F0E0E95CF74F8081811102C082E801C084
:1041600081E8CF91089560E0D3CF089561E0D0CF8A
:10417000089563E0CDCF089562E0CACF089564E06A
:10418000C7CF089565E0C4CF089566E0C1CF089514
:1041900067E0BECF089569E0BBCF089568E0B8CF6F
:1041A00008956AE0B5CF08956BE0B2CF0895CF933C
:1041B000C62F66E079E10E943B3CBC018EE094E0B2
:1041C0000E94533D6C2F0E94693D86E099E10E9458
:1041D0008014CF910895CF93DF93882379F0C09115
:1041E0001C08C03458F4DC2FD0686FEF8C2F0E946D
:1041F00047326C2FDCDF8D2F0E94A33180E0DF91EE
:10420000CF9108950F931F93CF93C82F86E099E124
:104210000E94693DBC016F5F7F4F2EE7FC01208348
:104220008C2F0E943B3CBC0189E094E00E94533DEE
:104230008C010E94081084E00E94E430C82F88237B
:1042400049F0B80187E094E00E94533DBC018C2FF7
:104250000E943B3C86E099E10E948014CF911F911F
:104260000F910895CF93803460F490914D089F3F53
:1042700041F0C82F892F806C0E9441398C2F0E94F9
:104280004139CF910895CF93C62F88233CF46FEF27
:104290008C2F0E9447326C2F8ADF09C0882339F0A7
:1042A000862F0E94AD316C2FADDF8C2FDBDF8C2F82
:1042B0000E948331882339F08C2F0E94493181116B
:1042C00004C081E803C082E801C082E8CF9108956C
:1042D00060E0D9CF089561E0D6CF089562E0D3CFF2
:1042E000089563E0D0CF089580911C08803430F4A5
:1042F000B9DF80911C080E94AD3102C00E943832A3
:104300008FEF809335080895882339F080911C0839
:10431000885F887380931C08E7DF80E00895882316
:1043200039F080911C088850887380931C08DCDF6A
:1043300080E0089580911C088F3F21F48FE38093E3
:104340001C080895803420F4815080931C0808953F
:104350008F7780931C080895CF9388234CF4C091E5
:104360001C08C0680E9438328C2F0E94A33104C000
:10437000882311F0DFDFB8DF80E0CF910895882334
:1043800069F04CF480911C08803438F488508873AC
:1043900080931C0802C08111CDDFA6DF80E0089564
:1043A00080911C088F3321F48FEF80931C080895AF
:1043B0008F3320F48F5F80931C0808958F3F19F48A
:1043C00010921C0808958F7780931C080895CF934E
:1043D000DF93882384F4C0911C08C03480F4DC2F60
:1043E000D0686FEF8C2F0E9447326C2FE0DE8D2F4C
:1043F0000E94A33104C0882311F0D2DF75DF80E072
:10440000DF91CF910895882369F04CF480911C08C6
:10441000803438F4885F887380931C0802C081114F
:10442000BFDF62DF80E008958EEE93E00C94CB1442
:1044300008958EE10E94F51381ED93E00E947014BF
:104440000E943F0EF1DF80E008958EE10E94F51397
:1044500081ED93E00E9470140E944B0EE5DF80E036
:10446000089581ED93E00E9470148EE10E94F5138F
:104470000E940B0ED9DF80E0089510928E05009700
:1044800069F486E198E09093D0058093CF058FE1A1
:1044900094E09093C3058093C20508C09093D00523
:1044A0008093CF057093C3056093C2058FEF80930F
:1044B0009C0589E294E09093A00580939F05089560
:1044C00062E274E182E00C94343E089564E274E1A7
:1044D00083E00C94343E089566E274E181E00C942C
:1044E000343E089564E174E181E00C94343E089513
:1044F0006FE074E181E00C94343E089568E274E169
:1045000080E00C94343E089580919B058A3011F030
:104510008E3031F460E074E180E00C94343E089514
:1045200060E274E180E00C94343E089580919B0534
:104530008A3011F08E3031F462E074E181E00C9445
:10454000343E08956EE174E181E00C94343E0895A8
:10455000CF93DF93E0919B058E2F90E0FC01329783
:10456000ED30F10508F0E4C08827EE58FF4F8F4F7B
:104570000C94E63E8091DF05EAEEF5E0982F9295E7
:104580009F7090838F708183D3C08091DF058031CD
:1045900020F08FEF8093EA05CBC08F5F8093EA0510
:1045A000C7C08091DF05882334F4EAEEF5E010827D
:1045B0008FEF8183BDC01092EB0508C0EAEEF5E0F5
:1045C00091819F5F91838C508093DF058091DF05FF
:1045D0008C30A0F78093EA05ABC08091DF05EAEE4E
:1045E000F5E0982F92959695977090838F718093B0
:1045F000DF05118208C0EAEEF5E091819F5F9183AB
:104600008A508093DF058091DF058A30A0F7809380
:10461000EC058EC0EAEEF5E01082118208C0EAEEE9
:10462000F5E090819F5F908384568093DF058091B1
:10463000DF058436A0F708C0EAEEF5E091819F5FC0
:1046400091838A508093DF058091DF058A30A0F73F
:104650008093EC056DC08091DF05843020F08FEFF2
:104660008093EA0565C08093EA0562C08091DF050A
:10467000843020F083E08093EA055AC08093EA05F5
:1046800057C08091DF058093EA0552C0E92FF0E022
:104690008091DF05282F221F2227221FE651FA4F83
:1046A0002083880F8093DF059F5F01C090E09830E2
:1046B00068F33EC08250F0E0DE019D91E651FA4F72
:1046C0009F709083E82FF0E09881E651FA4F929521
:1046D0009F709083ED0103C0C8ECD5E088E0EFEF58
:1046E000E80F8111E7CF24C08091DF05EAEEF5E005
:1046F000982F97709F5F90838695869586958F5F9C
:10470000818316C08091DF058F5F8093DF05109253
:10471000EA0508C0EAEEF5E090819F5F90838A5039
:104720008093DF058091DF058A30A0F78093EB0549
:10473000DF91CF9108950F931F93CF93DF93E09173
:104740009B058E2F90E0FC013297ED30F10508F0CB
:104750003BC18827E158FF4F8F4F0C94E63E0AEE8D
:1047600015E0F80180810E94C33BC6E4D2E0888353
:10477000F80181810E94C33B89831A8225C1E6E446
:10478000F2E083E4808388E681838091EA058F3FAD
:1047900029F480E282838DE2838312C08A3048F05C
:1047A000C6E4D2E091E39A838A500E94C33B8B8394
:1047B00007C0C6E4D2E090E29A830E94C33B8B8399
:1047C00010924A0201C18091EA058F3F21F0909139
:1047D000EB059F3F59F4E6E4F2E08EE680839FE626
:1047E0009183828385E683831482EEC09FE5909354
:1047F00047028B3021F488E48093460220C0853044
:1048000058F4982F96959D5B9093460280FF17C0B1
:1048100083E28093470213C0282F30E025503109EE
:10482000359527952A5B2093460280FD03C083E2DD
:1048300080934702283419F481E4809346028091E2
:10484000EB05811104C08DE6809348020BC08C30CB
:1048500030F481500E94C33B8093480203C08DE234
:104860008093480210924902AFC0C6E4D2E08DE4C2
:1048700088830AEE15E0F80180810E94C33B89839A
:1048800082E48A83F80181810E94C33B8B83F80113
:1048900082810E94C33B8C831D8296C00AEE15E084
:1048A000F80180810E94C33BC6E4D2E08883F8010E
:1048B00081810E94C33B8983F80182810E94C33BAE
:1048C0008A831B8281C08091EA05833038F4E6E454
:1048D000F2E093E3981B9083118276C0833031F429
:1048E000E6E4F2E080E5808311826EC0E6E4F2E067
:1048F0008DE28083118268C08091EA05E6E4F2E0EF
:10490000805D8083118260C08091EA05811109C0B9
:10491000E6E4F2E081E4808385E7818383E78283B4
:1049200008C0E6E4F2E085E4808389E681838EE6D0
:1049300082831092490248C0C12FD0E0FE01E651A7
:10494000FA4F80810E94C33BCA5BDD4F88831F5FA3
:1049500001C010E0183080F337C0822F90E0FC01D6
:10496000E651FA4F3081311102C03FE601C039E40F
:10497000FC01EA5BFD4F30832F5F01C020E028304F
:1049800060F322C0AAEEB5E08C91E6E4F2E0805D2F
:10499000808311968C91805C8183128215C0EAEE2F
:1049A000F5E090818181292F282B31F4E6E4F2E0B3
:1049B0008DE28083818306C0E6E4F2E0905D90831F
:1049C000805D818310924802DF91CF911F910F91FA
:1049D00008950F931F93CF938EE10E94F513C0E0CB
:1049E00006E412E00BC0F8018081882319F00F5F04
:1049F0001F4F01C080E20E941F14CF5FCA3098F39E
:104A0000CF911F910F9108958A301CF488231CF0D8
:104A1000089580E0089589E008950F931F93CF9340
:104A2000DF93C82FE091CF05F091D00531968491A6
:104A3000282F2071E0919B058E2F90E0FC0132978A
:104A4000ED30F10508F093C18827E457FF4F8F4FF1
:104A50000C94E63ED0E0C651DA4F8881680F6F7043
:104A6000688385C121111BC0613041F48091EA0542
:104A7000803120F081E08093EA0579C16F3F49F4ED
:104A80008091EA0582508F3020F080E18093EA0522
:104A90006EC1EAEEF5E08081680F608368C1613025
:104AA00041F48091EA05803121F48FEF8093EA058B
:104AB0005EC1613041F48091EA058F3F21F481E0CD
:104AC0008093EA0554C16F3F41F48091EA058F3F1E
:104AD00021F480E18093EA054AC16F3F41F480915F
:104AE000EA05813021F48FEF8093EA0540C1EAEEB8
:104AF000F5E08081680F60833AC18091EB058F3FBC
:104B000009F4C1E0C11116C08091EA058C3050F45F
:104B10008B3011F4613041F0811102C06F3F31F0F0
:104B2000680F05C060E003C060E001C06BE0609307
:104B3000EA052BC021110AC0811102C06F3FC1F0EC
:104B40008A3011F46130B1F0680F1DC0811102C0CC
:104B50006F3F91F08A3011F4613081F08F3F11F492
:104B6000613071F08F3F11F46F3F61F0680F0BC03F
:104B70006AE009C060E007C06FEF05C06FEF03C0D7
:104B800060E001C06AE06093EB059091EA059F3F09
:104B900009F4EDC08091EB058F3F09F4E8C0282FA0
:104BA000220F820F282F220F220F920F0AF0DFC050
:104BB000EAEEF5E087E080838AE08183D8C0C11106
:104BC00007C0EAEEF5E08081680F67706083CFC0B0
:104BD000D0E00AEE15E0C651DA4F8881860F14DF67
:104BE0008883F80181819281880F282F220F220F5C
:104BF000820F890F80322CF083E0818381E08283F1
:104C0000B6C088230CF0B3C0EAEEF5E01182128240
:104C1000AEC0D0E00AEE15E0C651DA4F8881860FAB
:104C2000F3DE8883F8012081818190E0AC01440F9C
:104C3000551F880F991F880F991F880F991F840F80
:104C4000951FF4E62F9F800D911D1124F8012281FC
:104C5000820F911D8F3F910509F00CF488C082E00E
:104C6000808385E08183828382C02223A1F0D0E00B
:104C7000FE01E651FA4F8081680F6083643019F4B9
:104C80008FEF808374C06E3F09F071C0C651DA4F58
:104C900083E088836CC0D0E0FE01E651FA4F80814A
:104CA000811105C06F3F19F483E0808360C08330B9
:104CB00031F4613021F4C651DA4F188258C0C65120
:104CC000DA4F680F688353C0D0E0C651DA4F88814D
:104CD000680F637068834BC0EAEEF5E080818095D1
:104CE000808345C0D0E081E061FD80E0C651DA4FAD
:104CF00088833DC0613041F4D0E0C651DA4F8881ED
:104D000087708F5F888333C0EC2FF0E0E651FA4F55
:104D10008081825087708F5F808329C0EAEEF5E042
:104D200090818181990F292F220F220F920F890FD5
:104D3000C11107C0660F962F990F990F690F680F61
:104D400001C0680F66231CF061341CF403C060E0EE
:104D500001C060E01092EA0506C0EAEEF5E080814D
:104D60008F5F80836A506A30C4F76093EB05DF91F0
:104D7000CF911F910F910895E0919B058E2F90E0A8
:104D8000FC013297ED30F10508F0DAC08827E756CC
:104D9000FF4F8F4F0C94E63EEAEEF5E0808120E174
:104DA000829FC001112491819F70892B8093DF0520
:104DB00008959091EA058FEF890F803118F0909354
:104DC000DF0508958093DF0508959091EA059F3FE0
:104DD00021F08091EB058F3F21F48FEF8093DF0569
:104DE0000895282F220F820F880F880F890F809334
:104DF000DF050895EAEEF5E0808130E2839FC0018F
:104E0000112421813281220F422F440F440F240F9D
:104E1000230F203220F08F618093DF050895822BCD
:104E20008093DF050895EAEEF5E02081818190E02E
:104E3000AC01440F551F880F991F880F991F880FC9
:104E4000991F840F951F34E6239F800D911D112417
:104E50002281820F911D8F3F910529F020F08FEF65
:104E60008093DF0508958093DF0508958091EA051A
:104E70008093DF05843008F463C08FEF8093DF05F3
:104E800008958091EA0583708093DF0508958091ED
:104E9000EA058093DF0508951092DF0580E00CC0DD
:104EA0009091DF05990FE82FF0E0E651FA4F20814D
:104EB000920F9093DF058F5F883090F308951092E2
:104EC000C8051092C9051092CA051092CB05A8EC2E
:104ED000B5E088E010C08250F0E0E651FA4F9081D2
:104EE000E82FF0E0E651FA4F208130E1239F900D4A
:104EF00011249C931196EFEFE80F8111ECCF0895E8
:104F0000EAEEF5E020819181892F90E00197880FEA
:104F1000991F880F991F880F991F9FEF920F892B58
:104F20008093DF050895EAEEF5E080819181880F96
:104F3000282F220F220F820F890F81508093DF05C7
:104F400008950F931F93CF93DF938C01D62FC0E06A
:104F50000CC0F8018491882319F00F5F1F4F02C025
:104F60008D2FD0E20E941F14CF5FCA3090F3DF91E3
:104F7000CF911F910F91089580E40E94F513E09165
:104F80008E05E11107C06AE38091C2059091C305C7
:104F9000D8CF0895F0E03197EE0FFF1FEF55FA4F8D
:104FA000808191816AE30296CCCF0895E091CF058C
:104FB000F091D00584918F7390E002971CF0C8DACD
:104FC000BADB07CD0895E0919F05F091A00580918F
:104FD0009C05E80FF11D31968491825E0E94F513C5
:104FE00020919C0530E0E0919F05F091A00584910F
:104FF00090E001972817390714F468DA03C083E0BA
:105000000E946F3E80919C05882311F059DA03C0FD
:1050100082E00E946F3E78DA89DA0C94833E08952C
:1050200084E10C94F51308950F931F93CF93F8DF49
:105030008BE194E00E9470148091FF189091001908
:105040000E94793D8DE20E941F148091FF1890917B
:105050000019049730F48091FF1890910019C82F1F
:1050600001C0C4E000916A1610E00A591B4E13C03B
:1050700084E10736180710F0F80102C0E6E6F5E112
:105080008F010150110980810E94C93BC15019F064
:1050900080E20E941F14C111EBCF80E0CF911F91DD
:1050A0000F9108950F931F93CF93BADF86E194E099
:1050B0000E94701480917616909177160E94793D27
:1050C0008DE20E941F1480917616909177160497B6
:1050D00030F48091761690917716C82F01C0C4E005
:1050E0000091151410E009591A4E13C085E10836D5
:1050F000180710F0F80102C0E7E6F6E18F01015051
:10510000110980810E94C93BC15019F080E20E94C0
:105110001F14C111EBCF80E0CF911F910F91089523
:105120000F931F93CF938F3FA9F40E94B315815023
:1051300080932C0210922B026AE074E180E00E94BE
:10514000343E64E074E181E00E94343E0E94833E7C
:10515000CFEF2FC0843049F480912C02882321F1B5
:10516000815080932C02CFEF24C0813091F40091C4
:105170002C0210E00F5F1F4F0E94B31590E008173C
:105180001907A4F480912C028F5F80932C02CFEF3B
:1051900010C0833011F0853059F480912B02809536
:1051A00080932B02CFEF05C0CFEF03C0CFEF01C03C
:1051B000C0E0CF3F09F054C033DF0E94B315811126
:1051C00006C089ED93E00E947014C0E01DC080917C
:1051D0002C028F5F0E94053C8AE30E941F1480917D
:1051E0002B02811108C060E280912C020E945417AA
:1051F0000E94601406C080912C020E94FA150E9441
:1052000070140E94013E0CDF61E080912B028F3F01
:1052100009F060E081E00E94A23E00912C0210E0C3
:105220000F5F1F4F0E94B31590E00817190734F461
:1052300064E274E183E00E94343E03C083E00E9494
:105240006F3E80912C02882331F062E274E182E0AB
:105250000E94343E03C082E00E946F3E0E94833E63
:105260008C2FCF911F910F9108958AE40C94F51320
:10527000089588EF93E00E94CB140E94EF37F5DF8A
:1052800080E00895CDDE8AE00C94F53D08958EE12E
:105290000E94F5138AE00C94F53D08958091CC05A9
:1052A0008F3F11F08D3F79F50E946215F0DF10926B
:1052B000190890E0ECE6F2E007C021818091E80552
:1052C000822B818338969F5F9032B8F38091CC0512
:1052D0008F3F19F41092CC055CC082EF93E00E94DE
:1052E000CB148EEF8093CC059FB7F89481E006C075
:1052F000E0E5F2E082E08487858780E08111F8CFE5
:105300009FBFB3DF46C08E3F41F48FEF80931908F3
:105310001092E8050E945C153CC040918F055091A9
:1053200090056091910570919205769567955795D6
:10533000479540938F055093900560939105709326
:105340009205E82FF0E0DF01AA0FBB1FAA0FBB1FD9
:10535000AA0FBB1FA459BD4F16962C919091E8053A
:10536000292349F4706840938F055093900560930A
:10537000910570939205EE0FFF1FEE0FFF1FEE0FCA
:10538000FF1FE459FD4F2181922B91838F5F809302
:10539000CC05E091CC05E03228F5F0E0EE0FFF1FE0
:1053A000EE0FFF1FEE0FFF1FE459FD4F8091E80540
:1053B000982F90958181892381838EE10E94F51336
:1053C0008091CC050E94053C9FB7F89481E006C00F
:1053D000E0E5F2E088E08487158680E08111F8CF6F
:1053E0009FBF0895E03209F041C080918F059091F0
:1053F0009005A0919105B09192050097A105B10586
:1054000029F48EEE93E00E94CB141FC08093021902
:1054100090930319A0930419B093051966E079E1FC
:105420008BEE93E00E94533DAC0160918F0570912B
:10543000900580919105909192050E94BA3CFC01E3
:10544000108286E099E10E9480148EEF8093CC0553
:105450009FB7F89481E006C0E0E5F2E082E084873F
:10546000858780E08111F8CF9FBFFFCE089581E04E
:1054700090E000909E0502C0880F991F0A94E2F701
:105480008093E8058FEF8093CC0510928F051092E2
:105490009005109291051092920500DF80E008952A
:1054A00080E40E94F5138AE00E94F53DDEDE8AE08A
:1054B0000C94F53D0895F4DFEADEE4CE0895E09122
:1054C000CF05F091D00584918F73813011F404C819
:1054D00008953E960590F491E02D309769F089305B
:1054E00041F48081811103C00C947222089500C898
:1054F00008950C946C22089581E00C946F3E0895F9
:10550000CF9389E40E94F513E091CF05F091D00587
:10551000C491C07CC03839F480E20E941F1482E03C
:105520000E946F3E05C08FE70E941F140E946022F8
:10553000C03C29F483E00E946F3EC0E203C00E9499
:105540006622CEE70E947E22BADF8091CF0590913D
:10555000D0056C2F0296F5DC0E94833E86DECF914B
:1055600008958091CF059091D005FC012491622F80
:105570006F73623008F449C09C01225F3F4FF9010C
:10558000459155914115510509F43FC0E62FF0E0D2
:1055900031979F01220F331F220F331F220F331F1A
:1055A000E20FF31FE75DFB4FF093A005E0939F052B
:1055B00024912093C605FC0125912F7320939B0510
:1055C000249122232CF42091D7053091D80502C0D4
:1055D00020E030E0240F351FFC0184918F738B3065
:1055E00071F4F90180819181A281B3818093C80512
:1055F0009093C905A093CA05B093CB0504C0F901E7
:1056000080818093DF05D2DC07C041DE89E294E02F
:105610009093A00580939F0552DF27CE089532DE38
:10562000A0DFAADC6DDF0C945C150895CF93C82F22
:105630000E945C15E091CF05F091D00584918F73A5
:10564000813029F080919C058F3F09F068C1319627
:10565000849186FF02C016DE08DE6091CF0570914E
:10566000D005CB010196FC018491982F907285FFA3
:105670001FC09B01205F3F4FF901259135912115F6
:105680003105B1F040919C054F3F91F08C2FF9010D
:1056900019958F3F21F410929C0580E004C2F2DD41
:1056A000F6DDE3DD8FEF80939C052ADF80E0FBC110
:1056B000C33009F464C028F4C13051F0C23031F174
:1056C000DBC1C53009F45BC090F0C630F9F0D4C13D
:1056D000FB018491807C803C09F4D0C17496F093E6
:1056E000D005E093CF053DDF0BDF80E0DCC1FB019F
:1056F0008491807C803809F4C3C17497F093D005FD
:10570000E093CF052EDFFCDE80E0CDC184FF04C036
:105710001092F4051092F305E0918E05EE23E9F066
:10572000E150E0938E05F0E0EE0FFF1FEF55FA4FCA
:105730000190F081E02DF093D005E093CF057296B3
:105740000590F491E02D309711F080E019959ADDE5
:1057500013DCD6DE06DF80E0A6C180E00E946F3E4B
:1057600081E00E946F3E82E00E946F3E83E00E94D3
:105770006F3E0E94833E0E9462158FEF94C1FB0131
:1057800024912F7330E0223031050CF448C070961C
:105790000590F491E02D309719F08C2F1995E1DEEA
:1057A0002091CF053091D005C9010196FC0184916B
:1057B00083FD68C1C9010E96FC0185919591892BE5
:1057C00009F462C1F90184918F73893019F561E0A0
:1057D00080E023D9D1DAE091CF05F091D0053E9653
:1057E0000590F491E02D8091DF058083DFDB67DE9B
:1057F0000E94833E3ADDE091CF05F091D00572968C
:105800000590F491E02D309709F440C180E019959E
:1058100080E049C110929C05D6DB80E044C12FEFA7
:1058200020939C0584FF26C07093F4056093F305D4
:10583000E0918E05EE2309F42BC1E150E0938E0533
:10584000F0E0EE0FFF1FEF55FA4F0190F081E02DD1
:10585000F093D005E093CF0572960590F491E02D7A
:10586000309711F080E019950DDD86DB49DE79DE99
:1058700080E019C1FB0170960590F491E02D3097FE
:1058800099F0992371F08FEF19958F3F19F41092C9
:105890009C050AC0F7DCFBDCE8DC8FEF80939C05FD
:1058A00003C085E01995E1DC2091CF053091D0054A
:1058B000C9010C96FC0185919591892B09F4EAC0E8
:1058C000A0918E05A03108F0E7C081E08A0F809397
:1058D0008E05B0E0AA0FBB1FAF55BA4F2D933C9376
:1058E000C9010196FC01849183FF0BC08091F305EF
:1058F0009091F405009729F09093D0058093CF05FF
:1059000008C0F9013C96859195919093D0058093BC
:10591000CF05B8DC31DBF4DD24DE80E0C4C0C33069
:1059200009F449C028F4C13059F0C23031F1B6C091
:10593000C53009F45EC0C0F0C63009F48AC0AEC0FC
:10594000482F50E0E0919F05F091A005249130E0B0
:1059500021503109421753070CF0A2C08F5F80938A
:105960009C0531DB80E09FC0882309F49BC08150F7
:1059700080939C0528DB80E096C061E04ED8FCD97E
:1059800015DB80919B058A3011F08E3089F42091CF
:105990009C05422F50E0E0919F05F091A005849175
:1059A00090E00197481759071CF42F5F20939C053E
:1059B0000ADB80E078C06FEF30D8DED9F7DA80916B
:1059C0009B058A3011F08E3089F420919C05422F7E
:1059D00050E0E0919F05F091A005849190E001973F
:1059E000481759071CF42F5F20939C05ECDA80E0E0
:1059F0005AC0C2D92091CF053091D005C9010E9669
:105A0000FC01A591B591109721F10D97FC018491AE
:105A100088232CF48091D7059091D80502C080E0AE
:105A200090E0A80FB91FF90184918F738B3071F446
:105A30004091C8055091C9056091CA057091CB0588
:105A40004D935D936D937C93139703C08091DF0515
:105A50008C93E091CF05F091D00572960590F4916A
:105A6000E02D309711F08C2F19958FEF80939C05C6
:105A700047DD77DD80E017C080E015C080E013C00F
:105A800080E011C080E00FC080E00DC080E00BC05E
:105A900080E009C080E007C080E005C080E003C06E
:105AA00080E001C080E0CF91089520E034E0803BA9
:105AB000930749F034E0803B930738F044972F5F19
:105AC000A9F780E00895822F089580E00895CF938C
:105AD0000E94480C8F3FC9F40FC0822F90E0FC0158
