:1000000014C6000033C6000031C600002FC6000031
:100010002DC600002BC6000029C6000027C6000020
:1000200025C6000023C6000021C600001FC6000030
:100030001DC600001BC6000019C6000017C6000040
:1000400015C6000013C6000011C600000FC6000050
:100050000DC600000C94AE0E09C6000007C60000D5
:1000600005C600000C943D390C946839FFC50000AA
:10007000FDC50000FBC50000F9C50000F7C5000084
:10008000F5C50000F3C50000F1C50000EFC5000094
:100090000C9402370C944337E9C50000E7C5000013
:1000A000E5C50000E3C50000E1C50000DFC50000B4
:1000B000DDC50000DBC50000D9C50000D7C50000C4
:1000C000D5C50000D3C50000D1C50000CFC50000D4
:1000D000CDC50000CBC50000C9C50000C7C50000E4
:1000E000C5C500004E245924622478249624B024E7
:1000F000B624BF241324EA23A4258925E4242F252C
:100100004E2567257D250D251C251C253F264826C7
:10011000152658267826A226B226302636263F26D1
:10012000A727B427BD27CE27E227FB2702280828C8
:1001300086275D27E93B0D3C093C053CFD3BF93B2F
:10014000F53BF13BED3B013C1F3C273C0C3C083CA4
:10015000043CFC3BF83BF43BF03BEC3B003C1E3CDE
:100160004C6F673A20000000496E697469616C69E0
:10017000736174696F6E0000010045453A4D6F640C
:10018000756C6500000000000000010145453A4D16
:100190006964692D496E00000000000001024545B8
:1001A0003A4D6964692D4F75740000000000010329
:1001B00045453A4D616E2D4D6F64756C65000000CC
:1001C000010445453A55534200000000000000007C
:1001D0000000010545453A52656769737465720010
:1001E00000000000010645453A50726F6772616D6C
:1001F000730000000000010745453A536F66746BB9
:10020000657973000000000002004D6F643A46619A
:10021000696C000000000000000002014D6F643AAC
:10022000556E6B6E6F77496E7000000003004F567D
:10023000464C3A4D696469496E00000000000301B4
:100240004F56464C3A4D6964694F75740000000082
:1002500004004F56464C3A506970654D7367000074
:10026000000005005077723A4F75707475744F6EC8
:100270000000000054617374656E2F5265672E2074
:100280006CEF73656E004D4944492D496E7465727B
:1002900066616365002C426974733A004D6F647542
:1002A0006C653A00656D7074790052616E67653AED
:1002B00020004D616E75616C3A20004D6F64756C65
:1002C000657320636865636B65643A20004D6F64F5
:1002D000756C65732061737369676E65643A20009D
:1002E000486172647761726520436F6E66696775F5
:1002F000726174696F6E0D0A000D0A4D4944492DF3
:100300004F7267616E2D496E746572666163650D2B
:100310000A004C6F670D0A00656D7074790D0A0054
:100320006F6B202020202000736176652E2E2E001A
:100330003C6E6F6E653E00756E61737369676E65C6
:1003400064004E2E6F66662073656E74004F757480
:100350003A00496E3A004D656EF50000000000005D
:10036000000000000000000000020001000000008A
:100370000000010300000000000000020002000075
:10038000000000000301030400000000000300015E
:100390000200000000000100000000000000000159
:1003A000000000000000000001000000000000004C
:1003B0000008000102030405060708000102030407
:1003C00005060700000000000000000081104D65D8
:1003D0006E75000000000000F804EE04000000004C
:1003E00001105374696D6D656E000000DC07E40454
:1003F0000000000001104B6F7070656C323C3300E0
:100400000000C604C41C000001104B6F7070656CC6
:10041000313C33000000BC04D51C000001104B6FC0
:100420007070656C503C33000000B204E61C0000A4
:1004300001104B6F7070656C313C32000000A804F5
:10044000F71C000001104B6F7070656C503C32005F
:1004500000009E04081D000001104B6F7070656C59
:10046000503C310000009404191D000001104D495A
:100470004449204F666600000000D004F51D0000CE
:10048000C110536574757000000000007C08DA0428
:1004900000000000503C3180000000000000503C93
:1004A0003280000000000000313C3280000000007B
:1004B0000000503C3380000000000000313C3380DD
:1004C000000000000000323C33800000000000000B
:1004D0004D4F666600000000000053657475000013
:1004E000000000005374696D0000000000004D65BD
:1004F0006E7500000000000081004D494449000075
:10050000000000005C0500000000000001005461D4
:100510007374656E000000008C0700000000F11D80
:1005200001005374696D6D656E000000DC0700000A
:100530000000000001005374617475730000000036
:10054000B00B000000000000C1005365747570001E
:10055000000000007C0800000000000081004E6FD9
:100560007465734F6666000000000000F51D000012
:1005700009004163742E53656E736500000099078E
:100580000000EC2101004D494449696E0000000063
:10059000AC05000000002420C1004D4944496F759E
:1005A000740000002C08000000009E1F81004368BA
:1005B0002E31000000000000EC060000871D000046
:1005C000010043682E32000000000000EC0601002C
:1005D000871D0000010043682E330000000000006A
:1005E000EC060200871D0000010043682E34000065
:1005F00000000000EC060300871D000001004368B6
:100600002E35000000000000EC060400871D0000ED
:10061000010043682E36000000000000EC060500D3
:10062000871D0000010043682E3700000000000015
:10063000EC060600871D0000010043682E3800000C
:1006400000000000EC060700871D00000100436861
:100650002E39000000000000EC060800871D000095
:10066000010043682E31300000000000EC06090054
:10067000871D0000010043682E313100000000009A
:10068000EC060A00871D0000010043682E3132008D
:1006900000000000EC060B00871D0000010043680D
:1006A0002E31330000000000EC060C00871D000016
:1006B000010043682E31340000000000EC060D00FC
:1006C000871D0000010043682E3135000000000046
:1006D000EC060E00871D0000C10043682E31360075
:1006E00000000000EC060F00871D0000810053652C
:1006F00063742E31000000003C070000921D0000D2
:100700000100536563742E32000000003C070100B5
:10071000921D00000100536563742E330000000039
:100720003C070200921D0000C100536563742E3423
:10073000000000003C070300921D000087904D61FF
:100740006E75616C000000000000DF070000000013
:1007500004904D69644E6F74650000000000E0076E
:1007600000000000068052616E6765000000000016
:100770000000E10700000000C4904D616E4E6F74F0
:10078000650000000000E2070000000081085461DD
:100790007374653100000000CC030000DA1DBE2137
:1007A000010854617374653200000000CC0301003D
:1007B000DA1DBE2101085461737465330000000026
:1007C000CC030200DA1DBE21C10854617374653484
:1007D00000000000CC030300DA1DBE2181204D6122
:1007E0006E2E33000000000000000000651E0000B7
:1007F00001204D616E2E320000000000000001005B
:10080000651E000001204D616E2E310000000000C9
:1008100000000200651E0000C120506564616C008C
:100820000000000000000300651E0000831049491D
:1008300049000000000000000000DF080000000088
:100840000310494900000000000000000000E0081B
:10085000000000000310490000000000000000003C
:100860000000E10800000000C3105000000000007C
:10087000000000000000E2080000000081004D6F51
:1008800064756C6500000000440900000000000071
:10089000010055534200000000000000980A0000CB
:1008A000000000000100506F77657200000000003A
:1008B0000809000000000000C100454570726F6D1E
:1008C00000000000CC080000000000008100454549
:1008D0005361766500000000000000006322000004
:1008E000010045454261636B757000000000000027
:1008F0002F220000C1004545526573746F72650078
:1009000000000000492200008100506F7765724F9F
:100910006E00000000000000F02100000100506F98
:100920007765724F6666000000000000102200002C
:10093000C100502E52657374617274000000000093
:100940007D2200008A004D6F6452656164000000E2
:100950000000520300002C200A004D6F645772699A
:10096000746500000000510300002C200A084D6F40
:10097000644F4B000000000000004A02000000002D
:1009800001004D6F6454657374000000A8090000F5
:1009900000000000C1004D6F6441737369676E0011
:1009A000D40A00000000282081004D6F642E300022
:1009B00000000000480A00007C1D000001004D6F8F
:1009C000642E310000000000480A01007C1D000078
:1009D00001004D6F642E320000000000480A020042
:1009E0007C1D000001004D6F642E330000000000EC
:1009F000480A03007C1D000001004D6F642E340086
:100A000000000000480A04007C1D000001004D6F3A
:100A1000642E350000000000480A05007C1D00001F
:100A200001004D6F642E360000000000480A0600E9
:100A30007C1D0000C1004D6F642E370000000000D7
:100A4000480A07007C1D00008100526561640000B7
:100A500000000000000000000B1E00000B00577299
:100A6000697465000000000000005C052A1D501D2F
:100A70000100546573745074726E00000000000031
:100A80009F230000C1004C6F6F705473740000000E
:100A900000000000521E0000890041637469766501
:100AA0000000000000005F0B0000A821010053655A
:100AB0006E644C6F6700000000000000B120000071
:100AC000C100536E64485743666700000000000091
:100AD000D220000081004D616E2E33000000000026
:100AE000240B0000B01D000001004D616E2E32008D
:100AF00000000000240B0100B01D000001004D614A
:100B00006E2E310000000000240B0200B01D00001A
:100B1000C100506564616C0000000000240B0300FC
:100B2000B01D00008100536563742E310000000089
:100B3000740B0000BB1D00000100536563742E326E
:100B400000000000740B0100BB1D00000100536594
:100B500063742E3300000000740B0200BB1D000004
:100B6000C100536563742E3400000000740B030051
:100B7000BB1D000084904E6F7465426567000000E5
:100B80000000E3080000000004904E6F7465456E9D
:100B9000640000000000E40800000000C5804D6F04
:100BA00064756C652F4269740000E5080000000060
:100BB00081204C6F67000000000000000000000072
:100BC0003020000002404D4944492D496E0000008C
:100BD00000000000A21F0000C2404D4944492D4FB3
:100BE0007574000000000000E31F000056302E3531
:100BF0003600546578748000457869740045696EE4
:100C000080002D002B007F007E00090008000000FE
:100C10000E0E0E0E000004040404150E0400040E53
:100C20001504040404000D0A000011241FBECFEFB8
:100C3000D1E2DEBFCDBF00E00CBF12E0A0E0B2E029
:100C4000E8EEFBE700E00BBF02C007900D92AA3070
:100C5000B107D9F72CE0AAE0B2E001C01D92A93D8E
:100C6000B207E1F70E94CF1A0C94F23DC9C9EF9286
:100C7000FF920F931F93CF93DF9382E390E00E9444
:100C8000C83D7C01CFEFDFEF82E090E08C010F5F89
:100C90001F4F0E94C03D9E012827822F82958227E8
:100CA000082E869586958025082E86958025877046
:100CB000022E232F869507948795302D282706949A
:100CC000879530252827E901C80102531040F1F625
:100CD000EC16FD0669F080910A02816080930A0299
:100CE0008FEFDF91CF911F910F91FF90EF900895BB
:100CF00081E090E00E94C03D8D3469F740E350E010
:100D000062E070E083EE98E00E94B03D80E0E9CFC1
:100D1000EF92FF920F931F93CF93DF9385E391E0C0
:100D20000E94C83D7C01CFEFDFEF85E390E08C01AE
:100D30000F5F1F4F0E94C03D9E012827822F829582
:100D40008227082E869586958025082E86958025F3
:100D50008770022E232F869507948795302D28279C
:100D60000694879530252827E901C80105531140CD
:100D7000F1F6EC16FD0669F080910A02826080931C
:100D80000A028FEFDF91CF911F910F91FF90EF90AB
:100D9000089584E390E00E94C03D893469F740E003
:100DA00051E065E370E08FED97E00E94B03D80E098
:100DB000E9CFEF92FF920F931F93CF93DF938DE3D1
:100DC00091E00E94C83D7C01CFEFDFEF88E391E026
:100DD0008C010F5F1F4F0E94C03D9E012827822F6C
:100DE00082958227082E869586958025082E8695E1
:100DF00080258770022E232F869507948795302DA6
:100E000028270694879530252827E901C8010D5326
:100E10001140F1F6EC16FD0669F080910A0284603B
:100E200080930A028FEFDF91CF911F910F91FF9076
:100E3000EF90089587E391E00E94C03D8F3469F7F9
:100E400044E050E068E371E08FED98E00E94B03D2F
:100E50008CE391E00E94C03D8093990780E0E3CF4E
:100E60000F931F93CF9382E491E00E94C83D8C01C1
:100E700080E491E00E94C03DC82F8FEF9FEF8C2748
:100E8000282F22952827022E269526952025022EEA
:100E9000269520252770082E892F269507942795BB
:100EA000902D8227069427959025822708171907E9
:100EB00051F080910A02886080930A028FEFCF91EF
:100EC0001F910F9108958FE391E00E94C03D8936F4
:100ED00081F7C093520381E491E00E94C03D80936A
:100EE000510380E0ECCF0F931F93CF9386E491E002
:100EF0000E94C83D8C0185E491E00E94C03DC82F4E
:100F00008FEF9FEF8C27282F22952827022E2695DA
:100F100026952025022E269520252770082E892F1C
:100F2000269507942795902D82270694279590253E
:100F300082270817190751F080910A028860809370
:100F40000A028FEFCF911F910F91089584E491E0F1
:100F50000E94C03D853581F7C0935F0B80E0F2CFE2
:100F6000EF92FF920F931F93CF93DF9388E993E063
:100F70000E94C83D7C01CFEFDFEF80E993E08C0158
:100F80000F5F1F4F0E94C03D9E012827822F829530
:100F90008227082E869586958025082E86958025A1
:100FA0008770022E232F869507948795302D28274A
:100FB0000694879530252827E901C8010859134070
:100FC000F1F6EC16FD0669F080910A0280688093C4
:100FD0000A028FEFDF91CF911F910F91FF90EF9059
:100FE000089548E050E060E973E085E495E00E94F0
:100FF000B03D80E0EFCFCF93DF93E3EEF8E023E165
:1010000039E0CFEFDFEF8191BE016827862F82950F
:101010008627082E869586958025082E869580251C
:101020008770062E672F869507948795702D682701
:101030000694879570256827EB012E173F0719F74F
:101040000E94793C6DE481E090E00E94DC3D40E349
:1010500050E062E070E083EE98E00E94CD3DBE017A
:1010600082E390E00E94EE3D60E080E090E00E942C
:10107000DC3D65E68AE993E00E94DC3DDF91CF919B
:101080000C94863CCF93DF93EFEDF7E02FED38E043
:10109000CFEFDFEF8191BE016827862F82958627EB
:1010A000082E869586958025082E86958025877042
:1010B000062E672F869507948795702D68270694CE
:1010C000879570256827EB012E173F0719F70E94B7
:1010D000793C69E484E390E00E94DC3D40E051E02B
:1010E00065E370E08FED97E00E94CD3DBE0185E3A2
:1010F00091E00E94EE3D60E080E090E00E94DC3DE7
:1011000065E68AE993E00E94DC3DDF91CF910C9483
:10111000863CCF93DF93EFEDF8E08081CFEFDFEFF8
:10112000C8278C2F82958C27082E8695869580253A
:10113000082E8695802587700C2ECD2F86950794D6
:101140008795D02DC82706948795D025C8278181FB
:10115000C8278C2F82958C27082E8695869580250A
:10116000082E8695802587700C2ECD2F86950794A6
:101170008795D02DC82706948795D025C8278281CA
:10118000C8278C2F82958C27082E869586958025DA
:10119000082E8695802587700C2ECD2F8695079476
:1011A0008795D02DC82706948795D025C827838199
:1011B000C8278C2F82958C27082E869586958025AA
:1011C000082E8695802587700C2ECD2F8695079446
:1011D0008795D02DC82706948795D025C82780915C
:1011E0009907C8278C2F82958C27082E869586957F
:1011F0008025082E8695802587700C2ECD2F86950C
:1012000007948795D02DC82706948795D025C827A1
:101210000E94793C6FE487E391E00E94DC3D44E06A
:1012200050E068E371E08FED98E00E94CD3D609161
:1012300099078CE391E00E94DC3DBE018DE391E0D3
:101240000E94EE3D60E080E090E00E94DC3D65E6BB
:101250008AE993E00E94DC3DDF91CF910C94863CBB
:10126000CF93DF9380915203CFEFDFEFC8278C2F0E
:1012700082958C27082E869586958025082E869542
:10128000802587700C2ECD2F869507948795D02DBD
:10129000C82706948795D025C8270E94793C69E61F
:1012A0008FE391E00E94DC3D6091520380E491E085
:1012B0000E94DC3D6091510381E491E00E94DC3D9D
:1012C000BE0182E491E00E94EE3D60E080E090E0AB
:1012D0000E94DC3D65E68AE993E00E94DC3DDF91F7
:1012E000CF910C94863CCF93DF9380915F0BCFEF2F
:1012F000DFEFC8278C2F82958C27082E8695869540
:101300008025082E8695802587700C2ECD2F8695FA
:1013100007948795D02DC82706948795D025C82790
:101320000E94793C65E584E491E00E94DC3D609197
:101330005F0B85E491E00E94DC3DBE0186E491E014
:101340000E94EE3D60E080E090E00E94DC3D65E6BA
:101350008AE993E00E94DC3DDF91CF910C94863CBA
:10136000CF93DF938091DB076FEF7FEF6827862FA6
:1013700082958627082E869586958025082E869547
:1013800080258770062E672F869507948795702D88
:1013900068270694879570256827EB01EAE9F7E04E
:1013A0002AED37E08191BE016827862F8295862736
:1013B000082E869586958025082E8695802587702F
:1013C000062E672F869507948795702D68270694BB
:1013D000879570256827EB012E173F0719F70E94A4
:1013E000793C62E588E491E00E94DC3D6091DB0796
:1013F00089E491E00E94DC3D40E450E06AE471E061
:101400008AE997E00E94CD3DBE018AE891E00E9402
:10141000EE3D60E080E090E00E94DC3D65E68AE918
:1014200093E00E94DC3DDF91CF910C94863CCF93FA
:10143000DF93E3E1F9E023E13BE0CFEFDFEF8191E0
:10144000BE016827862F82958627082E8695869569
:101450008025082E869580258770062E672F869515
:1014600007948795702D68270694879570256827BF
:10147000EB012E173F0719F70E94793C60E58CE8D5
:1014800091E00E94DC3D40E052E06DE871E083E1D4
:1014900099E00E94CD3DBE018DE893E00E94EE3DB3
:1014A00060E080E090E00E94DC3D65E68AE993E040
:1014B0000E94DC3DDF91CF910C94863CCF93DF936B
:1014C000E5E4F5E08081CFEFDFEFC8278C2F829530
:1014D0008C27082E869586958025082E8695802552
:1014E00087700C2ECD2F869507948795D02DC82711
:1014F00006948795D025C8278181C8278C2F82958F
:101500008C27082E869586958025082E8695802521
:1015100087700C2ECD2F869507948795D02DC827E0
:1015200006948795D025C8278281C8278C2F82955D
:101530008C27082E869586958025082E86958025F1
:1015400087700C2ECD2F869507948795D02DC827B0
:1015500006948795D025C8278381C8278C2F82952C
:101560008C27082E869586958025082E86958025C1
:1015700087700C2ECD2F869507948795D02DC82780
:1015800006948795D025C8278481C8278C2F8295FB
:101590008C27082E869586958025082E8695802591
:1015A00087700C2ECD2F869507948795D02DC82750
:1015B00006948795D025C8278581C8278C2F8295CA
:1015C0008C27082E869586958025082E8695802561
:1015D00087700C2ECD2F869507948795D02DC82720
:1015E00006948795D025C8278681C8278C2F829599
:1015F0008C27082E869586958025082E8695802531
:1016000087700C2ECD2F869507948795D02DC827EF
:1016100006948795D025C8278781C8278C2F829567
:101620008C27082E869586958025082E8695802500
:1016300087700C2ECD2F869507948795D02DC827BF
:1016400006948795D025C8270E94793C6BE48FE8E3
:1016500093E00E94DC3D48E050E060E973E085E4FF
:1016600095E00E94CD3DBE0188E993E00E94EE3DE9
:1016700060E080E090E00E94DC3D65E68AE993E06E
:101680000E94DC3DDF91CF910C94863C0F931F9319
:10169000CF93DF93B0DCF6DC3CDD80915203CFEFDB
:1016A000DFEF8E010827802F82958027082E8695F0
:1016B00086958025082E869580258770002E012F1F
:1016C000869507948795102D0827069487951025F1
:1016D00008270E94793C69E68FE391E00E94DC3D97
:1016E0006091520380E491E00E94DC3D60915103DF
:1016F00081E491E00E94DC3DB80182E491E00E9427
:10170000EE3D60E080E090E00E94DC3D65E68AE925
:1017100093E00E94DC3D0E94863C80915F0B8E012D
:101720000827802F82958027082E8695869580250C
:10173000082E869580258770002E012F86950794A8
:101740008795102D082706948795102508270E9455
:10175000793C65E584E491E00E94DC3D60915F0B9B
:1017600085E491E00E94DC3DB80186E491E00E94AE
:10177000EE3D60E080E090E00E94DC3D65E68AE9B5
:1017800093E00E94DC3D0E94863CEADD50DEE5E409
:10179000F5E08081C8278C2F82958C27082E8695AE
:1017A00086958025082E8695802587700C2ECD2F56
:1017B000869507948795D02DC82706948795D025C0
:1017C000C8278181C8278C2F82958C27082E869563
:1017D00086958025082E8695802587700C2ECD2F26
:1017E000869507948795D02DC82706948795D02590
:1017F000C8278281C8278C2F82958C27082E869532
:1018000086958025082E8695802587700C2ECD2FF5
:10181000869507948795D02DC82706948795D0255F
:10182000C8278381C8278C2F82958C27082E869500
:1018300086958025082E8695802587700C2ECD2FC5
:10184000869507948795D02DC82706948795D0252F
:10185000C8278481C8278C2F82958C27082E8695CF
:1018600086958025082E8695802587700C2ECD2F95
:10187000869507948795D02DC82706948795D025FF
:10188000C8278581C8278C2F82958C27082E86959E
:1018900086958025082E8695802587700C2ECD2F65
:1018A000869507948795D02DC82706948795D025CF
:1018B000C8278681C8278C2F82958C27082E86956D
:1018C00086958025082E8695802587700C2ECD2F35
:1018D000869507948795D02DC82706948795D0259F
:1018E000C8278781C8278C2F82958C27082E86953C
:1018F00086958025082E8695802587700C2ECD2F05
:10190000869507948795D02DC82706948795D0256E
:10191000C8270E94793C6BE48FE893E00E94DC3D8D
:1019200048E050E060E973E085E495E00E94CD3D39
:10193000BE0188E993E00E94EE3D60E080E090E027
:101940000E94DC3D65E68AE993E00E94DC3DDF9180
:10195000CF911F910F910C94863C0F931F93CF93BF
:10196000DF930E94793CC0E0D0E08E010F5F1F4FF3
:10197000CE010E94C03D682FCE019C5F0E94DC3DDD
:10198000E8010050144089F7DF91CF911F910F912A
:101990000C94863C0F931F93CF93DF930E94793C66
:1019A000C0E0D4E08E010F5F1F4FCE010E94C03D0A
:1019B000682FCE0194500E94DC3DE8010050184091
:1019C00089F7DF91CF911F910F910C94863CE1E351
:1019D000F2E08FEF808311828283138284831582E9
:1019E000868317828087118682871386848715866F
:1019F00086871786808B118AE3E4F2E010821182D9
:101A00001282138280935903089582E084BD93E08B
:101A100095BD80936E0089EF87BD2F98279A089512
:101A200087E880937A0010927B008FE780937C0098
:101A300081E080937E0010927F00EBE4F3E010825F
:101A40008FEF8183828380930B02E3E5F3E08AE0EA
:101A50008083818382838383848386E08583089562
:101A60008FEF88B987B982B911B884B3876084BB16
:101A700083B3876083BB5F98579AEBE4F2E08FEF04
:101A800081838083389693E0EB34F907C9F710928D
:101A90004802109247020895CF93E2D9C82F8F3F92
:101AA00009F492C05F9884B3876084BBA29885E0F4
:101AB0008A95F1F70000A29A90E216C08AEA88B9E6
:101AC00080B180934A0380934903809348038093B5
:101AD00047038093460380934503A09885E08A9549
:101AE000F1F70000915029F0A09A90FDE7CF85E52D
:101AF000E6CF80E2A09A92E09A95F1F700C0A09814
:101B000092E09A95F1F700C08150A1F78FEF809392
:101B10004A0290E23FEF0EC085E5822720914A02FB
:101B2000822380934A02A09885E08A95F1F700000D
:101B3000915039F0A09A38B920B190FDEDCF8AEAE2
:101B4000ECCF00000000A09A84B3876084BBA29809
:101B500092E09A95F1F700C0A29AE3E4F3E09FEFD8
:101B60008381828384818383A09A918398B98581BC
:101B700084838681858380B1868382838383848303
:101B800085838783A098389782E0E334F80741F78C
:101B900000000000A09AA19818B895E09A95F1F776
:101BA0000000A19A9091520340914A028091510302
:101BB000892B841739F050E0592B60E082E0CF91F7
:101BC0000C94E016CF91089540E050E060E081E091
:101BD0000E94E016C0935203C093510363CF883034
:101BE00008F056C031E001C0330F8A95EAF780E86B
:101BF000809348025F9884B3876084BB54E0432F8E
:101C0000409588E095EA2FEF28B9969522E02A952D
:101C1000F1F700C0A09822E02A95F1F700C0A09A41
:101C2000815031F090FD02C0242FEECF2FEFECCF8A
:101C3000515039F780E292E09A95F1F700C0A098F0
:101C400022E02A95F1F700C0A09A8150A1F790E216
:101C500040E050E0BA01440F551F661F771F82E035
:101C60008A95F1F700C0A09880B1832309F0416004
:101C700022E02A95F1F700C0A09A915061F71092E6
:101C800048025F9A342F252FCB01632F722F0895BE
:101C900030E020E080E090E0632F722F089581E033
:101CA000809347028FB7F894E1E3F2E092E39283E6
:101CB00013828FBF089580914702813031F08231C5
:101CC00059F18FEF80933302089580E0EBE4F2E066
:101CD0002FEF21839681892B389693E0EB34F90717
:101CE000C1F790915203892369F42E9A82E180937F
:101CF00047028FB7F89491E0909333021092340228
:101D00008FBF08958FB7F8949CE09093330292E0D0
:101D1000909334028FBF0895EBE4F2E080E02FEF60
:101D200021839681892B389693E0EB34F907C1F72C
:101D300040915203842339F484E1809347028FEF6A
:101D4000809333020895482F50E060E085E00E94C0
:101D5000E0162E9880E880934702B3CF1F920F922F
:101D60000FB60F9211240BB60F92EF92FF920F93C2
:101D70001F932F933F934F935F936F937F938F9313
:101D80009F93AF93BF93CF93DF93EF93FF932F9ADC
:101D9000809149028F5F809349028370823009F4F9
:101DA000AEC0833009F472C08130E9F190910B022A
:101DB000992309F451C19F5F943008F4A7C1109290
:101DC0000B0280914B03282F2F712066807290E0C8
:101DD000959587959595879520937C0090917B00AC
:101DE0009F7D892B80937B0080917A008064809313
:101DF0007A002F98FF91EF91DF91CF91BF91AF9132
:101E00009F918F917F916F915F914F913F912F9112
:101E10001F910F91FF90EF900F900BBE0F900FBE90
:101E20000F901F90189580914802803811F384B369
:101E3000876084BBA298909151039095F2E0FA9547
:101E4000F1F700C0A29AE3E4F3E083818283848106
:101E50008383A09A8181892B88B985818483868137
:101E6000858380B18683A098389732E0E334F30706
:101E700061F700000000A09AA1988091480282605A
:101E80008093480218B85F9AA19AB3CF8091480214
:101E9000803809F4AECFE0905203F12CCBE4D2E0CD
:101EA00012C01E21802F8095812329F50F8328964B
:101EB00080914802816080934802F39483E0CB34A0
:101EC000D80709F496CF0E818D81082B8C81082BC1
:101ED0008B81082B8A81082B1F81812F80958E2171
:101EE0008023F9F29F2D90620E94F32D1E21802FF6
:101EF00080958123D9F29F2D0E94F32DD7CF809119
:101F0000310281508E3F50F4909132029F5F9530A4
:101F100018F08093310290E0909332028091330266
:101F200081508E3F50F4909134029F5F953018F0AD
:101F30008093330290E09093340280913502815077
:101F40008E3F50F4909136029F5F953018F0809349
:101F5000350290E0909336028091370281508E3F97
:101F600050F4909138029F5F953018F080933702BB
:101F700090E0909338028091390281508E3F50F466
:101F800090913A029F5F953018F08093390290E06B
:101F900090933A0280913B0281508E3F50F4909191
:101FA0003C029F5F953018F080933B0290E0909345
:101FB0003C0280913D0281508E3F50F490913E0250
:101FC0009F5F953018F080933D0290E090933E0221
:101FD00080913F0281508E3F50F4909140029F5F6C
:101FE000953018F080933F0290E0909340028091EA
:101FF000410281508E3F50F4909142029F5F953094
:1020000018F08093410290E0909342028091430245
:102010008F5F809343028A3F09F0EBCE8FEF80936E
:10202000590310924302809144028F5F8C3308F46D
:1020300050C010924402809145028F5F8C3308F4A7
:102040005FC010924502809146028F5F843608F48B
:102050005AC010924602CDCE80917A00982F90748B
:1020600086FD31C080914C032091790020934C0370
:10207000281790F1322F381B832F843020F522321D
:1020800008F44AC02F3308F496C0283608F497C0E5
:10209000263908F4B4C02F3B08F4B9C0283E08F430
:1020A000B2C0C0914D03CF3F71F08FEF80934D03CD
:1020B000EC2FF0E0EE5AFC4F808181FF04C080914C
:1020C0004E038370B9F081E080930B0280E02FE72C
:1020D00083CE809344028DCE821BCFCF838181300B
:1020E00009F069CE248135812C30310509F063CEA9
:1020F000158214828C2F0E94BC2D90910B025BCE16
:102100008093450276CE8093460273CE90930B0265
:10211000992309F456CEDACF23E030E084E0C09171
:102120004D03C81791F0CF3F09F0BFCF80934D0307
:102130001092500310924F0310924E03F901ED5A82
:10214000FC4F908190FFBFCFD6CF20914F033091AD
:1021500050032F5F3F4F3093500320934F03209144
:102160004F03309150032D35310569F1E82FF0E030
:10217000EE5AFC4F208123FFA6CF20E030E0F9018A
:10218000EE0FFF1FE20FF31FEE0FFF1FE55BFC4F8B
:1021900083818111A3CF248135812B34310509F04E
:1021A0000ACE81E08383158214828C2F0E94BC2D7D
:1021B00090910B0200CE22E030E083E0B0CF24E02B
:1021C00030E085E0ACCF082F10E00E5A1C4FF8012C
:1021D000208122FFD0CF80680E94BC2D90910B02FD
:1021E000292F30E086E0989FF0011124E55BFC4F39
:1021F00082E08383F801808183FFDDCDC0CF20E0C2
:1022000030E081E08CCF25E030E086E088CF21E02F
:1022100030E082E084CF8FEF82B985B988B98BB97D
:102220008EB981BB84BB80930201809305018093AA
:10223000080180930B01579A5F98269A2E9808956B
:10224000E1E0F1E08081806180838081886080832B
:102250006B9A9D9A80818064808380818062808374
:102260002FEF81EE94E0215080409040E1F700C0D4
:102270000000E2E0F1E080818F7D808380818F7BB0
:10228000808380818F7E80838081877F8083739A23
:10229000A59A80818064808325E02A95F1F700006B
:1022A00080818F7B808385E08A95F1F700008FE144
:1022B0009EE40197F1F700C0000080818F7E80834B
:1022C0008081877F8083739AA59A808180648083D0
:1022D00095E09A95F1F7000080818F7B808325E05F
:1022E0002A95F1F700008FE19EE40197F1F700C015
:1022F000000080818F7E80838081877F8083739AB6
:10230000A59A80818064808395E09A95F1F700001A
:1023100080818F7B808325E02A95F1F700008FE193
:102320009EE40197F1F700C0000080818F7E8083DA
:102330008081877F8083739AA59880818064808361
:1023400095E09A95F1F7000080818F7B808325E0EE
:102350002A95F1F700008FEF90E00197F1F700C0A8
:10236000000080818F7D808380818F7B808380814E
:102370008F7E80838081877F8083739AA5988081F8
:102380008064808395E09A95F1F7000080818F7BCF
:10239000808325E02A95F1F70000808180618083A9
:1023A0008081877F80837398A598808180648083F3
:1023B00085E08A95F1F7000080818F7B808395E02E
:1023C0009A95F1F700008FEF90E00197F1F700C0C8
:1023D000000080818F7D808380818F7B80838081DE
:1023E0008F7E80838081877F80837398A59880818A
:1023F0008064808395E09A95F1F7000080818F7B5F
:10240000808325E02A95F1F7000080818061808338
:102410008081877F80837398A59880818064808382
:1024200085E08A95F1F7000080818F7B808395E0BD
:102430009A95F1F700008FEF90E00197F1F700C057
:10244000000080818F7D808380818F7B808380816D
:102450008F7E80838081877F80837398A598808119
:102460008064808395E09A95F1F7000080818F7BEE
:10247000808325E02A95F1F7000080818F7E80839C
:102480008081877F80837398A59A80818064808310
:1024900085E08A95F1F7000080818F7B808395E04D
:1024A0009A95F1F700008FE097E20197F1F700C0ED
:1024B000000080818F7D808380818F7B80838081FD
:1024C0008F7E80838081877F80837398A5988081A9
:1024D0008064808395E09A95F1F7000080818F7B7E
:1024E000808325E02A95F1F7000080818F7E80832C
:1024F000808188608083739AA598808180648083BE
:1025000085E08A95F1F7000080818F7B808395E0DC
:102510009A95F1F700008FEF90E00197F1F700C076
:10252000000080818F7D808380818F7B808380818C
:102530008F7E80838081877F80837398A598808138
:102540008064808395E09A95F1F7000080818F7B0D
:10255000808325E02A95F1F70000808180618083E7
:102560008081886080837398A5988081806480834F
:1025700085E08A95F1F7000080818F7B808395E06C
:102580009A95F1F700008FEF90E00197F1F700C006
:102590000000089590910201906290930201909141
:1025A00002019F7B909302019091020187FD65C01B
:1025B0009F7E909302019091020186FF4BC098602C
:1025C0009093020185FF4BC0739A84FD4BC0A59880
:1025D0009091020190649093020195E09A95F1F731
:1025E0000000909102019F7B9093020195E09A95E3
:1025F000F1F70000982F9295907F83FD42C0809163
:1026000002018F7E809302018091020196FF31C00A
:1026100088608093020195FF27C0739A94FD27C0BC
:10262000A5988091020180648093020185E08A95DB
:10263000F1F70000809102018F7B8093020195E009
:102640009A95F1F700008FEF90E00197F1F700C045
:1026500000000895977F9093020185FDB5CF739890
:1026600084FFB5CFA59AB4CF739894FFD9CFA59A1C
:10267000D8CF877F80930201CECF906190930201E3
:102680009ACF80910201806180930201BDCF909129
:1026900002019F7D90930201909102019F7B909394
:1026A00002019091020187FD6CC09F7E9093020110
:1026B0009091020186FF4EC098609093020185FFC1
:1026C0004EC0739A84FD4EC0A5989091020190640B
:1026D0009093020195E09A95F1F700009091020124
:1026E0009F7B9093020195E09A95F1F70000982F57
:1026F0009295907F2091020183FD3FC02F7E209311
:1027000002012091020196FF34C02860209302014B
:1027100095FF2AC0739A94FD2AC0A5989091020152
:1027200090649093020195E09A95F1F700009091E2
:1027300002019F7B9093020195E09A95F1F70000CA
:102740008150823010F18FEF90E00197F1F700C0D7
:1027500000000895977F9093020185FDB2CF739892
:1027600084FFB2CFA59AB1CF739894FFD6CFA59A24
:10277000D5CF277F20930201CBCF20612093020188
:10278000C0CF90619093020193CF8FE097E20197C1
:10279000F1F700C00000089580935A0390E8980F65
:1027A000209102012F7D20930201209102012F7BB5
:1027B000209302012091020197FD6EC02F7E20938D
:1027C00002012091020196FF4EC028602093020171
:1027D00095FF4EC0739A94FD4EC0A59820910201BA
:1027E00020642093020125E02A95F1F70000209152
:1027F00002012F7B2093020125E02A95F1F70000CA
:10280000292F2295207F93FD41C0909102019F7E48
:10281000909302019091020126FF34C0986090933A
:10282000020125FF2AC0739A24FD2AC0A598909121
:10283000020190649093020195E09A95F1F70000EF
:10284000909102019F7B9093020125E02A95F1F778
:1028500000008158823020F18FEF90E00197F1F76E
:1028600000C000000895277F2093020195FDB2CF9C
:10287000739894FFB2CFA59AB1CF739824FFD6CFA7
:10288000A59AD5CF977F90930201CBCF909102016B
:10289000906190930201BECF20612093020191CFFD
:1028A0008FE097E20197F1F700C0000008951092C1
:1028B0005A03E2E0F1E080818F7D808380818F7B0D
:1028C000808380818F7E80838081877F80837398DF
:1028D000A59880818064808385E08A95F1F7000067
:1028E00080818F7B808395E09A95F1F7000080814D
:1028F0008F7E80838081877F80837398A59A808173
:102900008064808385E08A95F1F7000080818F7B69
:10291000808395E09A95F1F700008FE097E20197A8
:10292000F1F700C00000089590915A039F5F9F73D4
:1029300090935A03909102019062909302019091BA
:1029400002019F7B909302019091020187FD65C077
:102950009F7E909302019091020186FF4BC0986088
:102960009093020185FF4BC0739A84FD4BC0A598DC
:102970009091020190649093020195E09A95F1F78D
:102980000000909102019F7B9093020195E09A953F
:10299000F1F70000982F9295907F83FD42C08091BF
:1029A00002018F7E809302018091020196FF31C067
:1029B00088608093020195FF27C0739A94FD27C019
:1029C000A5988091020180648093020185E08A9538
:1029D000F1F70000809102018F7B8093020195E066
:1029E0009A95F1F700008FEF90E00197F1F700C0A2
:1029F00000000895977F9093020185FDB5CF7398ED
:102A000084FFB5CFA59AB4CF739894FFD9CFA59A78
:102A1000D8CF877F80930201CECF9061909302013F
:102A20009ACF80910201806180930201BDCF00970F
:102A300009F48CC0FC013196DC018C9181114EC0EF
:102A400085C098609093020185FF68C0739A84FDE9
:102A500068C0A59890910201906490930201B5E03E
:102A6000BA95F1F70000909102019F7B90930201CB
:102A700095E09A95F1F70000982F9295907F83FD4D
:102A80005BC0809102018F7E8093020180910201E0
:102A900096FF4EC088608093020195FF44C0739AF0
:102AA00094FD44C0A5988091020180648093020146
:102AB000A5E0AA95F1F70000809102018F7B809339
:102AC0000201B5E0BA95F1F700008FEF90E00197B1
:102AD000F1F700C0000081918823C1F190915A0361
:102AE0009F5F9F7390935A0390910201906290931D
:102AF0000201909102019F7B90930201909102014B
:102B000087FD20C09F7E909302019091020186FD77
:102B100098CF977F9093020185FD98CF739884FF9B
:102B200098CFA59A97CF739894FFBCCFA59ABBCFA7
:102B3000877F80930201B1CF8091020180618093F1
:102B40000201A4CF906190930201DFCF0895009716
:102B500009F490C09C012F5F3F4FFC0184918823B2
:102B600009F488C0F9014EC098609093020185FF76
:102B700069C0739A84FD69C0A59890910201906420
:102B80009093020195E09A95F1F70000909102016F
:102B90009F7B9093020195E09A95F1F70000982FA2
:102BA0009295907F83FD5CC0809102018F7E80931F
:102BB00002018091020196FF4FC08860809302015C
:102BC00095FF45C0739A94FD45C0A5988091020178
:102BD00080648093020185E08A95F1F7000080917E
:102BE00002018F7B8093020195E09A95F1F7000036
:102BF0008FEF90E00197F1F700C0000084913196CB
:102C00008823C1F190915A039F5F9F7390935A0359
:102C100090910201906290930201909102019F7B3A
:102C2000909302019091020187FD20C09F7E9093B6
:102C300002019091020186FD97CF977F9093020148
:102C400085FD97CF739884FF97CFA59A96CF7398F9
:102C500094FFBBCFA59ABACF877F80930201B0CFF4
:102C600080910201806180930201A3CF90619093D3
:102C70000201DFCF089584E893E0909317058093D5
:102C80001605909315058093140508952091140559
:102C900030911505409116055091170524173507F9
:102CA00010F420573E4F241B350B359527959DEC8E
:102CB000299F202D11248217E8F42AE0829FC00169
:102CC0001124FA01E80FF91F25E0EA30F20709F0B4
:102CD00098F5309779F086819781882309F443C06D
:102CE000813059F0823001F1833061F1843089F113
:102CF0008530A1F180E090E00895992309F44EC059
:102D0000913009F44EC0923009F44EC0933009F46A
:102D10004EC09430E9F19530F1F19630B1F1973031
:102D200049F788E090E023C0992309F446C0913028
:102D300009F78AE090E01BC080599140FA01E80F42
:102D4000F91FC7CF9923B1F19130A1F68CE090E043
:102D50000EC09111CFCF8DE090E009C09111CACF84
:102D60008EE090E004C09111C5CF80E090E0880F24
:102D7000991F9C01220F331F220F331F220F331F75
:102D8000820F931F88599E4F089587E090E0EFCF00
:102D900085E090E0ECCF86E090E0E9CF81E090E044
:102DA000E6CF82E090E0E3CF83E090E0E0CF84E004
:102DB00090E0DDCF8BE090E0DACF89E090E0D7CFF4
:102DC000CF93DF93E0911405F091150590914302A4
:102DD00090839091440291839091450292839091C7
:102DE0004602938395E49583868367835187408762
:102DF00080E8848380915F0B8F3FE1F13A9685E014
:102E0000EA30F80709F088F4F0931505E09314050B
:102E100080911605909117058E179F07A1F08FEFEF
:102E200080935B03DF91CF91089584E893E09093C2
:102E3000150580931405FC018091160590911705E6
:102E40008E179F0761F73A9685E0EA30F80769F038
:102E500060F084E893E090931705809316058FEF58
:102E600080935B03DF91CF910895F0931705E09372
:102E70001605D5CF80E691E00E947338C091140505
:102E8000D0911505209709F4AFC08B8181118FC0B7
:102E90008A816CE573E081114DC089810E94643A9A
:102EA000FC0183E780839881990F993108F4A4C0CD
:102EB00087EE890F893108F4A1C08EEC890F893122
:102EC00008F4A8C085EB890F893108F4A0C08CE90B
:102ED000890F893108F498C083E8890F893108F493
:102EE00090C08AE6890F893108F4A0C081E5890F76
:102EF000893108F498C088E3890F893108F490C0BB
:102F00008FE1890F893108F488C09A5F8AE0805D7B
:102F10008183990F953008F46DC020E001C0232F04
:102F2000955031E0320F9530D0F72F5CDF011396CA
:102F300022830CC00E94643ABC016F5F7F4F2DE674
:102F4000FC01208389810E94643ADC019C819034D9
:102F500009F445C09038F1F19032C1F1FD0131968C
:102F60008FE38C93BF016F5F7F4F8D8180838E8154
:102F70000E94BB3ABC018F810E94BB3ABC016F5FCB
:102F80007F4F2DE2FC012083888599850E94D63AE7
:102F9000FC0110828CE593E00E94A53886E29CE05B
:102FA0000E947338E0911405F091150527CF6CE568
:102FB00073E00E94643ABC016F5F7F4F28E6FC011A
:102FC00020838A810E94643ADC01C0CFFD013196E2
:102FD0009C93C8CFFD0131968AE28C93C3CFFD014B
:102FE000319685EA8C93BECF8DE280935C0310927C
:102FF0005D03D0CF20E39ACF80E38ACF982F81E082
:1030000086CF982F85E083CF982F84E080CF982FAC
:1030100083E07DCF982F82E07ACF982F89E077CF19
:10302000982F88E074CF982F87E071CF982F86E093
:103030006ECFCF93DF93E0911405F0911505909139
:103040004302908390914402918390914502928330
:1030500090914602938397E5958386836783518792
:10306000408780E8848380915F0B8F3FB1F13A966F
:1030700085E0EA30F80709F070F4F0931505E09365
:10308000140580911605909117058E179F0789F0FA
:10309000DF91CF91089584E893E090931505809394
:1030A0001405FC0180911605909117058E179F0756
:1030B00079F73A9685E0EA30F80751F048F084E86D
:1030C00093E09093170580931605DF91CF910895B3
:1030D000F0931705E0931605DBCF80E691E00E94A0
:1030E0007338C0911405D0911505209709F4AFC02D
:1030F0008B8181118FC08A816CE573E081114DC095
:1031000089810E94643AFC0183E780839881990F4A
:10311000993108F4A4C087EE890F893108F4A1C061
:103120008EEC890F893108F4A8C085EB890F8931AD
:1031300008F4A0C08CE9890F893108F498C083E8AD
:10314000890F893108F490C08AE6890F893108F423
:10315000A0C081E5890F893108F498C088E3890F00
:10316000893108F490C08FE1890F893108F488C053
:103170009A5F8AE0805D8183990F953008F46DC075
:1031800020E001C0232F955031E0320F9530D0F769
:103190002F5CDF01139622830CC00E94643ABC01AD
:1031A0006F5F7F4F2DE6FC01208389810E94643A86
:1031B000DC019C81903409F445C09038F1F19032E3
:1031C000C1F1FD0131968FE38C93BF016F5F7F4F9B
:1031D0008D8180838E810E94BB3ABC018F810E94C9
:1031E000BB3ABC016F5F7F4F2DE2FC0120838885D5
:1031F00099850E94D63AFC0110828CE593E00E94EA
:10320000A53886E29CE00E947338E0911405F091A5
:1032100015052DCF6CE573E00E94643ABC016F5F29
:103220007F4F28E6FC0120838A810E94643ADC01FA
:10323000C0CFFD0131969C93C8CFFD0131968AE243
:103240008C93C3CFFD01319685EA8C93BECF8DE27E
:1032500080935C0310925D03D0CF20E39ACF80E38C
:103260008ACF982F81E086CF982F85E083CF982F43
:1032700084E080CF982F83E07DCF982F82E07ACFB3
:10328000982F89E077CF982F88E074CF982F87E028
:1032900071CF982F86E06ECF80911405909115051F
:1032A00020911605309117058217930710F4805767
:1032B0009E4F821B930B959587959DEC899F802D42
:1032C000112408951F93CF93DF93009709F405C14C
:1032D000162FEC018B818111DFC08A816CE573E0D0
:1032E000811154C089810E94643AFC0183E7808384
:1032F0009881990F993108F401C187EE890F8931BE
:1033000008F4FEC08EEC890F893108F4FCC085EB0F
:10331000890F893108F4FAC08CE9890F893108F4E2
:10332000FEC083E8890F893108F4FCC08AE6890F62
:10333000893108F4FAC081E5890F893108F4F8C0B1
:1033400088E3890F893108F4E4C08FE1890F89315E
:1033500008F4E2C09A5F8AE0805D8183990F95301E
:1033600008F4CAC020E001C0232F955031E0320F8D
:103370009530D0F72F5CDF01139622839C81903427
:10338000A1F4FD01319685EA8C9319C00E94643A3C
:10339000BC016F5F7F4F2DE6FC01208389810E9475
:1033A000643ADC019C81903461F3903809F487C061
:1033B000903209F480C0FD0131968FE38C93BF01F8
:1033C0006F5F7F4F8D8180838E810E94BB3ABC01ED
:1033D0008F810E94BB3ABC016F5F7F4F2DE2FC01E1
:1033E0002083888599850E94D63AFC0110821F3F70
:1033F00009F44CC01C83609114057091150540912F
:10340000160550911705CB016417750710F4805706
:103410009E4F841B950B959587959DEC899F802DDC
:10342000112410925B03882389F181509B0120575E
:103430003E4F6417750708F447C0641B750B7595FC
:1034400067959DEC699F602D112401C0892F861717
:10345000C8F4FAE08F9F90011124FA01E20FF31FE4
:1034600095E0EA30F90731F028F0F901E059F14030
:10347000E40FF51F309731F09481903219F0958167
:103480009534B1F19FEF980F8111E0CF8CE593E077
:10349000DF91CF911F9108956CE573E00E94643A2B
:1034A000BC016F5F7F4F28E6FC0120838A810E9468
:1034B000643ADC0177CFFD0131969C9380CFFD010A
:1034C00031968AE28C937BCF241B350B359527955B
:1034D0006DEC269F602D1124BACF8DE280935C03A2
:1034E00010925D038CE593E0DF91CF911F910895D9
:1034F0008FEF80935B03CACF20E33DCF80E32DCFD6
:10350000982F81E029CF982F82E026CF982F83E053
:1035100023CF982F88E020CF982F89E01DCF982FB8
:1035200084E01ACF982F85E017CF982F86E014CF2C
:10353000982F87E011CF2091140530911505409107
:103540001605509117052417350710F420573E4FE4
:10355000241B350B359527959DEC299F202D112493
:10356000821740F08DE280935C0310925D038CE53E
:1035700093E008957AE0879F90011124CA01820F99
:10358000931F75E08A30970709F018F4009751F3FC
:1035900099CE20593140CA01820F931FF7CF0E9464
:1035A0000B1169DB0E947C370E94B52D0E94050D2E
:1035B0000E94E70C0E94100D0E94300D0E94983668
:1035C0000E944C0D0E94FF2E0E943E2F0E94312E21
:1035D0000E947C310E94842C0E94460B109265054B
:1035E0000E9420110E949E3962D983E4D5D886E8D2
:1035F00092E0ADDA8BE1D0D88CEE9BE0A8DA78943B
:103600002FEF87EA91E6215080409040E1F700C01B
:1036100000004DD90E944F0E8FEF80939607809344
:103620001805FF24FA94DFEF6DEFE62E12E367C072
:10363000809118058F3F09F47EC0FF24FA94809191
:103640003F02882309F480C080913D02811106C0A9
:1036500080916505811135C1D0933D02809133027F
:10366000882309F4E6C00E94E82E0E94D82EC0915B
:103670005A03009102020F3F09F4F5C080E08CD894
:10368000809100028F3F09F40FC1809102020E94D5
:10369000BF3B8EE749D9809100020E943B3C80E20B
:1036A00043D98C2F79D8D09302028FB7F894109316
:1036B000390210923A028FBF009104020F3F09F0C5
:1036C0004CC080913B02882309F4E2C080915903E9
:1036D0008F3F09F45EC0809197078F3F09F4A1C026
:1036E00090915E0B8091A60C981721F00E94ED3608
:1036F0000E940C300E94252E8F3F09F4F4C00E94D6
:10370000E62D882309F494CF0E94D02DC82F863847
:1037100009F418C1809118058F3F09F402C1809106
:1037200065058111E5C08C2F0E944E2980931805F4
:103730008F3F09F082CFEFEFFE1609F4A3C0F12C02
:1037400080913F02811180CFC0915A030E94682866
:103750008C2F22D8D0933F0277CF8FE01DD8809155
:1037600003020E943B3C8EE7DFD8809104020E9456
:10377000BF3B8C2F11D8D09304028FB7F8941093CD
:103780003B0210923C028FBF809159038F3F09F09A
:10379000A2CF1092590300915A03C091AB0CCF3FB6
:1037A00009F4DBC080914602882309F495C080911A
:1037B000440280FDAFC04AE3B42E56E4C52E52E069
:1037C000D52E87E00E94CC13F60180810E94123A28
:1037D0008B2DAAD8F601319780810E94123A409130
:1037E000A20B411190C04091A70C411185C080915E
:1037F000470284FF68C080E297D880915B038F3FC7
:1038000009F468C080E290D8802F0E94CC13CF3F8B
:1038100009F061CF0E946C3C809197078F3F09F0BF
:103820005FCF1092970740E050E060E084E0C8DA94
:1038300057CF0E945B0E0E949D2D809118058F3FEF
:1038400009F011CFC0915A0384E10E94CC138091FA
:103850004702813009F490C0823109F491C08C2F65
:103860000E94CC1300CF80913902811125CF0E9494
:10387000CC1386E00E944A3C8C2F0E94CC1300930C
:1038800039021ACF0E946E280E94CA2CF12C58CF00
:103890008FE00E94CC1385E00E944A3C8C2F0E944E
:1038A000CC1300933B0212CF809101020E942B3C6B
:1038B0008FE33AD8809102020E94BF3B80E234D865
:1038C000F0CE3CD6CBCE89E02FD880915B038F3FE2
:1038D00009F098CF85E497CF2AE3B22E35E4C32EC2
:1038E00032E0D32E6ECF0E94102E0E943E3207CFC0
:1038F000E092560523D69CCE50E061E083E060DA8A
:103900001092A70C74CF50E060E083E059DA109277
:10391000A20B69CF80E2B82E96E4C92E92E0D92E90
:1039200050CF8C2F8F73C530D9F09FEF980F943004
:1039300008F001CF0E94FC2C6C2F0E94072D809371
:10394000180578CE80E051D1809118058F3F09F09D
:10395000E6CEEFEFFE12F3CE95CF0E94733C22CF5E
:1039600060E070E080E090E003D70E9405291092AB
:103970001805FF24FA9463CE84E792E0E8D86FCF6D
:1039800084E10E944A3C6BCF811106C08091DD0723
:10399000882349F081E808958091DD078095809320
:1039A000DD078111F7CF82E80895811106C080916B
:1039B000170B882349F081E808958091170B8095B3
:1039C0008093170B8111F7CF82E80895811106C00B
:1039D0008091150B882349F081E808958091150B9B
:1039E00080958093150B8111F7CF82E8089581119E
:1039F00006C08091DA07882349F081E80895809114
:103A0000DA0780958093DA078111F7CF82E808956D
:103A1000811106C08091DE07882349F081E808956E
:103A20008091DE0780958093DE078111F7CF82E8D1
:103A30000895811106C08091160B882349F081E812
:103A400008958091160B80958093160B8111F7CF06
:103A500082E8089581E090E00090210502C0880F7F
:103A6000991F0A94E2F7982F40E050E0BA01E3E48E
:103A7000F3E0440F551F661F771F8181892309F0EA
:103A80004160389782E0E334F80799F740935C058A
:103A900050935D0560935E0570935F0580E0089527
:103AA000853011F080E0089580915C0590915D056E
:103AB000A0915E05B0915F0521E030E00090210506
:103AC00002C0220F331F0A94E2F7422FE3E4F3E02F
:103AD000322F30950BC023232183880F991FAA1FF3
:103AE000BB1F389722E0E334F207E1F22181B7FFF0
:103AF000F2CF242B2183F1CFE0915805F0915905A5
:103B00003E96859195918093210580E00895E091FE
:103B10005805F09159053E968591959180935705EA
:103B200080E00895E0915805F09159053E96259161
:103B3000359120936205809157058F7090E0880F32
:103B4000991F880F991F2370820F911D880F991F4D
:103B5000880F991F909361058093600580E0089518
:103B6000E0915805F09159053E9685919591809385
:103B7000200580E00895E0915805F09159053E96A2
:103B80002591359120936205809120058F7090E0FA
:103B9000880F991F880F991F2370820F911D9C0118
:103BA000220F331F820F931F90936105809360054E
:103BB00080E00895E0915805F09159053E96859171
:103BC0009591843060F4FC01FF27EE0FFF1FEB5B43
:103BD000FA4F80819181909371058093700580E008
:103BE00008950E945E0A80E008958EE10E94CC1341
:103BF00082E493E00E94A7158FB7F894E1E3F2E026
:103C000094E6968717868FBF0E9463368AE40E94E7
:103C1000CC1380E008950F931F93CF93DF9381E03F
:103C200090E00090210502C0880F991F0A94E2F7E6
:103C3000382FE3E4F3E080E090E0DC010BC08C017E
:103C4000DA2FCB2FC801AD2FBC2F389722E0E334F9
:103C5000F207A9F0880F991FAA1FBB1FAC01BD0175
:103C600041602681232359F38A01D62FC72FC8012B
:103C7000AD2FBC2F389722E0E334F20759F78EE1DD
:103C80000E94CC130093AD0C1093AE0CD093AF0CEC
:103C9000C093B00C0E94EE3980E0DF91CF911F916C
:103CA0000F9108958EE10E94CC13809121050E940E
:103CB000EF0D6093AD0C7093AE0C8093AF0C9093AE
:103CC000B00C0E94EE3980E008958F3F09F440C0A7
:103CD00060914F056F3FD1F1813009F4E5C0843028
:103CE00009F407C1833009F4D0C0982F9B7F92302C
:103CF00041F1853031F18EE10E94CC1380914F0566
:103D00000E94BF3B80E20E94941480910E028111B8
:103D1000E6C081E60E94941485E70E94941483E72C
:103D20000E94941461E080910E02882309F4ABC0D4
:103D300081E00E94503D882309F49BC00E94343DDD
:103D400098C040E0809120050E94EA3180E008950B
:103D50008093100210920F02E0915805F0915905DE
:103D60003E9685919591843008F088C08093200517
:103D70009927FC01EE0FFF1FDF01A80FB91FAA0F43
:103D8000BB1FAA0FBB1FAD51B74F13963C911397A2
:103D90002C91321708F4232FDF01A80FB91FAA0FA7
:103DA000BB1FAA0FBB1FAD51B74F16963C913217E0
:103DB00008F4232FDF01A80FB91FAA0FBB1FAA0FFA
:103DC000BB1FAD51B74F19963C91321708F4232F02
:103DD000DF01A80FB91FAA0FBB1FAA0FBB1FAD5150
:103DE000B74F14964C91149711963C91341708F4E0
:103DF000342FDF01A80FB91FAA0FBB1FAA0FBB1FCB
:103E0000AD51B74F17964C91341708F4342FE80F83
:103E1000F91FEE0FFF1FEE0FFF1FED51F74F9285B9
:103E2000832F391708F4892F2093100280930F02F3
:103E300027FD74C020934F0510920E0268EF7BE0BF
:103E400080E00E94933C6DEF7BE081E00E94933C18
:103E500062E07CE082E00E94933C64E07CE083E0EE
:103E60000E94933C0E94343D60914F056F3F09F0E2
:103E700042CF8EE10E94CC138FEF0895109220055F
:103E800080E090E076CF60E053CF80910E028823EF
:103E900009F44FC010920E0240E0809120050E946C
:103EA000EA3160914F05E2CF80910F02681708F068
:103EB00022CF40E0809120050E94EA3160914F05B9
:103EC0006F5F60934F0580910E02813079F641E07B
:103ED000809120050E94EA3160914F05C7CF85E6A9
:103EE0000E94941489E60E9494148EE60E94941411
:103EF00019CF80911002861708F0FDCE40E0809126
:103F000020050E94EA3160914F05615060934F0592
:103F100080910E02813009F0A9CFD9CF8EE10E94A5
:103F2000CC1387E393E00E94A7158FEF80934F0592
:103F300085CF81E080930E0241E0AFCF0E948908D7
:103F400080E008951F93CF93DF9384E10E94CC1308
:103F500082E593E00E94A7158091A80C9091A90C8E
:103F60000E94813B8DE20E9494148091A80C909154
:103F7000A90C049708F58091A80C9091A90C182F12
:103F8000C0915E0BD0E0C35ED44F882359F08BE024
:103F9000CE31D80710F4CDE3DBE088810E94D2391E
:103FA000115029F480E0DF91CF911F91089521975E
:103FB00080E20E949414EBCFC0915E0BD0E0C35E10
:103FC000D44F14E0E4CF1F93CF93DF9384E10E949A
:103FD000CC138DE493E00E94A7158091A30B9091E0
:103FE000A40B0E94813B8DE20E9494148091A30B4C
:103FF0009091A40B049708F58091A30B9091A40BCA
:10400000182FC091190BD0E0C35CD44F882359F00E
:104010008BE0CE33D80710F4CDE5DBE088810E9439
:10402000D239115029F480E0DF91CF911F9108958A
:10403000219780E20E949414EBCFC091190BD0E03D
:10404000C35CD44F14E0E4CF0E94420880E008959E
:104050000E94FB0780E008950E94300980E00895E7
:10406000CF93DF938F3F09F452C0843051F18130F8
:1040700009F460C0833039F0853029F0C0E08C2F1E
:10408000DF91CF91089580910C02809580930C026E
:1040900084E10E94CC1300D9811120C080E393E019
:1040A0000E94A715C0E061E080910C028F3F09F0EB
:1040B00060E081E00E94503D882309F30E94343D76
:1040C000DECF80910D02882319F3815080930D0279
:1040D00084E10E94CC13E0D8882301F380910D0283
:1040E0008F5F0E94123A8AE30E94941480910C021E
:1040F000882381F180910D020E9446160E94A71527
:104100000E94553C84E10E94CC13CFEFCCCFC4D8A1
:10411000815080930D0210920C0268EF7BE080E0EA
:104120000E94933C62EF7BE081E00E94933C0E94FE
:10413000343DAECFC0910D02D0E02196ADD890E0D5
:10414000C817D9070CF0A4CF80910D028F5F809320
:104150000D029ECF60E280910D02EDD90E941715ED
:10416000CFCFCF9382E193E00E94733895D8882314
:1041700091F0CFEFC80F6FEF8C2FDDD90E94A538DB
:1041800086E29CE00E9473388C2FC1508111F3CFDE
:1041900080E0CF91089588E193E00E94733880E039
:1041A000CF910895BF92CF92DF92EF92FF920F933B
:1041B0001F93CF93DF9380EE92E00E9473388DECD3
:1041C00092E00E94733861EB7CE0809152030E9480
:1041D000BB3A22E7FC012083BC016E5F7F4F20E2E7
:1041E0002183809151030E94BB3A27E7FC01208381
:1041F00081EB9CE00E94A5380E94E4388BEB92E0B2
:104200000E94733861EB7CE080914A020E94BB3AC5
:1042100081EB9CE00E94A5380E94E43833EEE32E47
:1042200038E0F32EC12C4DE3D42E82EB92E00E94B5
:10423000733861EB7CE08C2D0E94683B81EB9CE045
:104240000E94A5380E94E438E70110E38AEA92E070
:104250000E947338812F0E9417398DE20E9417390E
:1042600080E20E94173961EB7CE088810E94BB3AB2
:10427000BC016F5F7F4F00E2FC01008389810E94D7
:10428000BB3ABC016F5F7F4FFC0100838A810E94B3
:10429000BB3AFC01D08281EB9CE00E94A53888816A
:1042A00087FD51C061EB7CE00E940F3BBC016F5F5A
:1042B0007F4F2DE2B22EFC01B08289810E940F3B1C
:1042C000FC01008381EB9CE00E94A5388CE992E020
:1042D0000E9473388A81829586958770805D0E94DE
:1042E000173985E992E00E9473388A8161EB7CE09E
:1042F0008F710E94643AFC01B192BF019A819F7153
:104300008881981B8981890F0E94643A81EB9CE027
:104310000E94A5380E94E4381F5F2396143309F0E9
:1043200095CFC394FCE0EF0EF11C84E0C8127DCF62
:1043300080E0DF91CF911F910F91FF90EF90DF9080
:10434000CF90BF90089584EA92E00E947338E2CF44
:104350000E94730980915F0B8F3F11F080E00895F8
:1043600089EF92E00E9473388CEE9BE00E947338D4
:1043700086E29CE00E94733880E00895E091580541
:10438000F09159053E9685919591843010F080E02A
:10439000089540917005509171054115510529F01E
:1043A000FA0124912F73213051F0FC01FF27EE0F09
:1043B000FF1FEB5BFA4F1182108280E00895319667
:1043C000249124FFF2CFFC01FF27EE0FFF1FEB5BD0
:1043D000FA4F51834083DBCF0E94890880E0089523
:1043E000CF932E9A83E180934702C0915A038CE0C9
:1043F0000E94CC138091470284FD09C089E00E948D
:1044000094148C2F0E94CC1380E0CF91089580E209
:104410000E9494148C2F0E94CC1380E0CF910895B9
:10442000CF932E9810924702C0915A038CE00E94BD
:10443000CC138091470284FD09C089E00E94941446
:104440008C2F0E94CC1380E0CF91089580E20E94CF
:1044500094148C2F0E94CC1380E0CF9108958EE1AC
:104460000E94CC1388E293E00E94A7150E94AD0C35
:104470008EE10E94CC1380E293E00E94A7158FB7D3
:10448000F894E1E3F2E094E6968717868FBF80E028
:1044900008958EE10E94CC1388E293E00E94A71554
:1044A0000E94CA0C8EE10E94CC1380E293E00E942D
:1044B000A7158FB7F894E1E3F2E094E696871786A4
:1044C0008FBF80E008958EE10E94CC1388E293E0D4
:1044D0000E94A7150E94460B8EE10E94CC1380E239
:1044E00093E00E94A7158FB7F894E1E3F2E094E619
:1044F000968717868FBF80E00895CF932E9881E02E
:1045000080934702C0915A038CE00E94CC138091A3
:10451000470284FD11C089E00E9494148C2F0E94F0
:10452000CC138FB7F89492E3909333021092340235
:104530008FBF80E0CF91089580E2EECFCF93DF93DD
:10454000E09156058E2F8D7F8D3F09F445C0EE3FDB
:1045500009F4A9C040911A0550911B0560911C05F2
:1045600070911D05769567955795479540931A0567
:1045700050931B0560931C0570931D05AE2FB0E092
:1045800080916505AA0FBB1FAA0FBB1FAA0FBB1FF7
:10459000ED01C55BDD4F9E819823A1F0A55BBD4F6A
:1045A00011969C911197892B11968C93EF5FE09354
:1045B0005605E03208F4BFC0E03209F47EC0DF9156
:1045C000CF910895706840931A0550931B0560932E
:1045D0001C0570931D05E2CF0E94733C8EE10E9482
:1045E000CC138AE00E944A3C109296079091650590
:1045F000EBE4F2E08181892B8183389683E0EB3410
:10460000F807C1F7809156058F3F11F510925605B6
:10461000E0E0F0E0EE0FFF1FEE0FFF1FEE0FFF1FB9
:10462000E55BFD4F90958181982391838EE10E94F7
:10463000CC13809156050E94123A8FB7F89498E0F7
:1046400090933D0210923E028FBFDF91CF9108956B
:104650008EE10E94CC1381E60E94941482E60E94AF
:1046600094148FE60E94941482E70E94941484E7C5
:104670000E9494148EEF809356059FB7F89482E0C1
:1046800080933D0280933E029FBF8FB7F89494E6DB
:1046900090933F02109240028FBF8AE40E94CC1395
:1046A000E091560586CF8FEF8093960710926505AF
:1046B0000E946C3CE09156057CCF8EE10E94CC13A9
:1046C00080911A0590911B05A0911C05B0911D05C4
:1046D0000097A105B10541F18093AD0C9093AE0C0C
:1046E000A093AF0CB093B00C85E40E9494148AE3BD
:1046F0000E9494140E94EE398EEF809356059FB766
:10470000F89482E080933D0280933E029FBF8FB772
:10471000F89494E690933F02109240028FBF8AE48F
:10472000DF91CF910C94CC138FE60E9494148BE60A
:104730000E949414E1CFF0E0909165056BCF81E089
:1047400090E00090210502C0880F991F0A94E2F7BB
:10475000809365058FEF8093560510921A0510928D
:104760001B0510921C0510921D05E8DE80E00895DF
:1047700010921905009791F0909359058093580570
:1047800070934E0560934D058FEF80931F0580E673
:1047900093E09093230580932205089588EF94E099
:1047A000909359058093580586E593E090934E05C4
:1047B00080934D05E9CFE0911E058E2F90E0FC011E
:1047C0003297EA30F10570F58827EE58FF4F8F4F8A
:1047D0000C94A13D80915205982F9F7090936E0587
:1047E00082958F7080936D0580915305982F9F70EF
:1047F00090936C0582958F7080936B058091540522
:10480000982F9F7090936A0582958F7080936905A9
:1048100080915505982F9F709093680582958F70B1
:1048200080936705089580916405982F991F9927B3
:10483000991F90936705880F982F991F9927991FA3
:1048400090936805880F982F991F9927991F909327
:104850006905880F982F991F9927991F90936A05CA
:10486000880F982F991F9927991F90936B05880F90
:10487000982F991F9927991F90936C05880F982F4F
:10488000991F9927991F90936D05880F881F882776
:10489000881F80936E0510926405089580916405C9
:1048A000982F92959F70909367058F7080936805FD
:1048B000089580916405803108F466C08FEF80937D
:1048C000670508958091640587FD62C010926805B0
:1048D0008C3008F4A5CF91E001C0922F8C5021E0DC
:1048E000290F8C30D0F7909368058093640598CF9A
:1048F00080916405982F929596959770909367058F
:104900008F7180936405109268058A3060F091E0A1
:1049100001C0922F8A5021E0290F8A30D0F790935E
:104920006805809364058093690508951092670572
:104930001092680580916405843650F09CE9980FC8
:10494000943660F1885C92E08093640590936705EB
:104950008A3048F390E09F5F8A508A30E0F7DFCFDB
:1049600080916405843008F0A9CF5ACF8091640506
:10497000843008F455CF83E08093670508958091D3
:1049800064058093670508958F5F80936705089598
:10499000109267058FEF809368050895892F91E045
:1049A000D3CF0F931F93CF93DF93E0911E058E2FEC
:1049B00090E0FC013297EA30F10550F58827E45881
:1049C000FF4F8F4F0C94A13D909167059F3F09F4D5
:1049D00086C0809168058F3F09F481C02FE5209340
:1049E00028029B3009F4D2C0292F953008F0EBC083
:1049F00026952D5B2093270290FF03C093E29093AE
:104A000028028111D4C08DE68093290210922A02D7
:104A1000DF91CF911F910F9108958FE68093270228
:104A2000809167058111A3C086E680932802809358
:104A3000290210922A02ECCFC7E6D5E007E212E085
:104A400089910E949839F80181938F01F5E0CF3662
:104A5000DF07B1F7DF91CF911F910F9108958DE49A
:104A600080932702809167050E94983980932802DD
:104A700082E480932902809168050E94983980938E
:104A80002A02809169050E94983980932B02109226
:104A90002C02DF91CF911F910F91089580916705AE
:104AA0000E94983980932702809168050E94983966
:104AB00080932802809169050E9498398093290289
:104AC00010922A02DF91CF911F910F91089580914A
:104AD0006705833008F464C0833009F45BC08EE658
:104AE000809327029FE6909328028093290285E60F
:104AF00080932A0210922B028BCF80916705805DF4
:104B00008093270210922802DF91CF911F910F917D
:104B1000089583E48093270288E680932802809199
:104B200067058F3F09F449C08A3038F590E39093C8
:104B300029020E94983980932A0210922B02DF9159
:104B4000CF911F910F910895809167050E94983928
:104B500080932702809168050E94983980932802EB
:104B600010922902DF91CF911F910F9108958EE647
:104B700080932802109229024BCF91E3909329024F
:104B80008A500E94983980932A02D7CF98E4909354
:104B9000270237CF80E5809327021092280238CF72
:104BA00093E3981B909327021092280231CF8C3008
:104BB000F0F08DE28093290229CF8DE280932902C3
:104BC00080932A02BACF30E02550310935952795D8
:104BD0002A5B2093270290FD03C093E29093280262
:104BE000283409F00ECF91E4909327020ACF815028
:104BF0000E9498398093290209CF282FE091580507
:104C0000F091590531968491382F3071E0911E054D
:104C10008E2F90E0FC013297EA30F10500F58827ED
:104C2000EA57FF4F8F4F0C94A13D809168058F3F4D
:104C300009F4F3C021110BC1209167052C3008F055
:104C4000BAC02B3009F4B4C0211103C06F3F09F47E
:104C50001EC1260F209367052F3F09F0AFC00895AE
:104C6000809167058095809367050895E22FF0E0B5
:104C7000E959FA4F8081680F617060830895E22FCF
:104C8000F0E0E959FA4F8081680F6F7060830895F2
:104C900080916705311171C0613009F4A3C06F3F85
:104CA00019F4813009F4E5C0680F60936705089531
:104CB000222309F4ABC0E22FF0E0E959FA4F8081DA
:104CC000680F6A300CF470C060E0608390916805F2
:104CD000809169052AE0929F800D112480320CF0AA
:104CE000AFC087FFBCCF1092680510926905089588
:104CF000E22FF0E0E959FA4F8081680F6A30DCF565
:104D000067FD7DC0608320916705809168053AE06A
:104D1000839FC001112434E6239F800D911D11242F
:104D200020916905820F911D8F3F910509F00CF4C8
:104D300096CF82E08093670585E080936805809335
:104D400069050895E22FF0E0E959FA4F8081332395
:104D500019F1680F643009F454C06E3F09F43FC084
:104D600060830895E22FF0E0E959FA4F8081680FDF
:104D700063706083089560E0C5CF6130D1F16F3F0B
:104D800009F092CF8F3F09F474C0813009F08CCFC5
:104D90008FEF8093670508958823F9F0833011F42D
:104DA000613091F1680FDCCF67FF8FCF69E08DCF65
:104DB000613009F04ECF20E020936705682F660F21
:104DC000860F880F880F820F87FF49CF87E0809377
:104DD00067058AE08093680508956F3F19F783E0BF
:104DE00080830895803109F05FCF81E0809367056B
:104DF0000895803169F28F3F09F056CFF6CF69E010
:104E000081CF8FEF80830895108208958091670588
:104E1000680F6770609367050895332321F0613050
:104E2000F1F06F3F51F1680F6093680520916705BD
:104E30002F3F09F414CF6F3F09F411CF862FBECF57
:104E400083E08093680581E08093690508953111BE
:104E500016C0882331F38A3031F7613021F790E0B2
:104E600090936805209167052F3F09F4F8CE892FAC
:104E7000A5CF80E18093670508959AE0F1CF811175
:104E800008C06F3F81F68FEF8093680508952BE08F
:104E900093CF8A3041F6613031F6F5CFE0911E05AF
:104EA0008E2F90E0FC013297EA30F10570F58827EB
:104EB000E057FF4F8F4F0C94A13D80916E0590916C
:104EC0006D0520E1929F800D112480935205809101
:104ED0006C0590916B0530E1939F800D11248093B8
:104EE000530580916A059091690540E1949F800D7A
:104EF000112480935405809168059091670520E105
:104F0000929F800D11248093550508958091670527
:104F1000880F90916805890F880F90916905890F16
:104F2000880F90916A05890F880F90916B05890F02
:104F3000880F90916C05890F880F90916D05890FEE
:104F4000880F90916E05890F809364050895809174
:104F5000670520E1829FC0011124909168059F7030
:104F6000892B809364050895809167058F3F09F42C
:104F70003EC08150809364050895909167059F3FDE
:104F8000B1F1809168058F3F91F1282F220F820F98
:104F9000880F880F890F80936405089580916705B5
:104FA00030E2839FC001112430916805209169058A
:104FB0004AE0349F200D1124203278F18F618093D4
:104FC0006405089520916705809168053AE0839F04
:104FD000C001112444E6249F800D911D11242091CD
:104FE0006905820F911D8F3F9105A1F09CF08FEF15
:104FF00080936405089580916705809364058430EB
:10500000B0F70895809167058370809364050895D3
:1050100080916705809364050895822B80936405D1
:1050200008950F931F93CF93DF9389E40E94CC13CD
:10503000E0915805F0915905C491C07CC03809F43D
:1050400040C08FE70E94941466E07CE082E00E94FA
:10505000933CC03C89F168E07CE083E00E94933C93
:10506000DEE76CE07CE080E00E94933C6AE07CE05C
:1050700081E00E94933C00915805109159050E5F04
:105080001F4FCAE006C00F5F1F4F0E949414C1500B
:1050900051F0F80184918111F6CF8D2FD0E20E945A
:1050A0009414C150B1F70E94343D8AE4DF91CF914E
:1050B0001F910F910C94CC1383E00E94293DD0E204
:1050C000D0CF80E20E94941482E00E94293DC3CF99
:1050D0008EE10E94CC138AE00C944A3C80E40E944A
:1050E000CC138AE00E944A3C8AE40E94CC138AE0F6
:1050F0000E944A3C8EE10E94CC138AE00E944A3C06
:1051000084E10E94CC138AE00C944A3C0F931F93D5
:10511000CF938FEF80933F024091580550915905EE
:10512000FA0124912F73223008F44BC03E9665910A
:1051300075916115710509F444C0822F90E00197C3
:10514000FC01EE0FFF1FEE0FFF1FEE0FFF1FE80F1A
:10515000F91FE05AFC4FF0932305E0932205849158
:105160008093500520931E05FA013196849187FDA6
:1051700047C080E090E0FB01E80FF91F2B3099F168
:1051800080818093640517DB0CDC8EE10E94CC13D8
:10519000CAE007E212E006C00F5F1F4F0E9494149E
:1051A000C15049F0F80180818111F6CF80E20E9460
:1051B0009414C150B9F78AE4CF911F910F910C94C8
:1051C000CC138EE10E94CC138AE00E944A3C80E618
:1051D00093E090932305809322058AE4CF911F9159
:1051E0000F910C94CC1380819181A281B381809323
:1051F000520590935305A0935405B0935505C3CF22
:105200008091600590916105B6CF0F931F93CF9366
:10521000DF9384E10E94CC138AE00E944A3C76DF4F
:1052200080E40E94CC13E0911905E1111EC00091A9
:105230004D0510914E05CAE0DAE306C00F5F1F4F1F
:105240000E949414C15051F0F80184918111F6CF5D
:105250008D2FD0E20E949414C150B1F7E2DEDF91AD
:10526000CF911F910F910C946C3CF0E0EE0FFF1F5B
:10527000EE5DFA4F008111810E5F1F4FCAE0DAE345
:1052800006C00F5F1F4F0E949414C15039F3F801FC
:1052900084918111F6CF8D2FD0E2F5CF0F931F931C
:1052A000CF93DF93C82F0E946C3C0091580510915A
:1052B0005905F80184918F73813029F180911F0580
:1052C0008F3F09F1C33009F49CC008F4E0C0C53039
:1052D00009F4B9C008F48BC1C63009F08CC0F801DC
:1052E00072960590F491E02D309711F08C2F19955E
:1052F0008FEF80931F0595DE09DF80E0DF91CF916E
:105300001F910F910895C8010196FC01849186FDBB
:1053100008C1982F907285FF17C09801205F3F4FFA
:10532000F901259135912115310571F040911F0545
:105330004F3F51F08C2FF90119958F3F09F074C13F
:1053400010921F0580E0DACFC33009F415C108F4CC
:105350004CC0C53009F410C108F4FFC0C63009F0D4
:105360004AC084FF04C01092710510927005E0914C
:105370001905EE2309F483C1E150E0931905F0E02B
:10538000EE0FFF1FEC5DFA4F0190F081E02DF093DE
:105390005905E093580572960590F491E02D3097E9
:1053A00011F080E0199584E10E94CC138AE00E94FC
:1053B0004A3C80E40E94CC13E0911905E11176C1CA
:1053C00000914D0510914E05CAE0DAE307C00F5F6A
:1053D0001F4F0E949414C15009F48DCFF80184919D
:1053E0008111F5CF8D2FD0E2F4CFC13009F4EFC099
:1053F000C23009F4B6CF80E0DF91CF911F910F91B9
:1054000008956FEFFADB4ADDE0915805F0915905F8
:1054100084918F73823008F44CC0CDD9C2DA8EE10A
:105420000E94CC13CAE007E212E007C00F5F1F4FD3
:105430000E949414C15009F43CC0F801808181118C
:10544000F5CF80E2F5CF2ADD00915805109159057E
:10545000C8010E96FC01A591B591109709F43FCFB4
:105460000D97FC01849187FD1CC180E090E0A80F9E
:10547000B91FF80184918F738B3009F478C1809142
:1054800064058C93009158051091590528CFC130BF
:1054900009F4B8C0C23009F0AECF61E0AEDBFEDC8B
:1054A000E0915805F091590584918F73823008F08E
:1054B000D0C0E0912205F091230580911F05E80FEF
:1054C000F11D31968491825E0E94CC1320911F05BC
:1054D00030E0E0912205F0912305849190E001975E
:1054E0002817390784F568E07CE083E00E94933C4C
:1054F00080911F0581112BC082E00E94293D64E04C
:105500007CE080E00E94933C62E07CE081E00E94CD
:10551000933C0E94343D80E0DF91CF911F910F9129
:10552000089584E10E94CC138AE00E944A3C8AE4F8
:105530000E94CC130091580510915905C80101969D
:10554000FC018491E6CE83E00E94293DD1CF66E044
:105550007CE082E00E94933CD2CFF8018491807C71
:10556000803809F448CF7497F0935905E0935805B3
:10557000CDDD57DD80E0C2CEF80124912F732230BB
:1055800008F4AEC09801205F3F4FF9012591359195
:105590002115310561F08C2FF9011995B7DD0091C6
:1055A000580510915905C8010196FC01849183FDAD
:1055B00022CFF8013E9685919591892B09F41BCF56
:1055C00010921F05E0912205F09123057ACFF80192
:1055D0008491807C803C09F40ECFF8017496F0939E
:1055E0005905E093580592DD1CDD80E087CE8823C5
:1055F00009F401CF815080931F05E0912205F091BD
:1056000023055DCFE0912205F0912305482F50E05E
:10561000249130E021503109421753070CF0EBCEB2
:105620008F5F80931F054BCF84E10E94CC138AE0EB
:105630000E944A3C8EE10E94CC138AE00E944A3CC0
:105640008AE40E94CC138FEF80931F05EADC80E090
:1056500055CEB1D8A6D98EE10E94CC13CAE007E29C
:1056600012E007C00F5F1F4F0E949414C15009F44D
:1056700020CFF80180818111F5CF80E2F5CF80E065
:105680000E94293D81E00E94293D82E00E94293D3F
:1056900083E00E94293D0E94343D0E94733C8FEFBD
:1056A0002DCE8091600590916105E1CEF0E0EE0F86
:1056B000FF1FEE5DFA4F008111810E5F1F4FCAE0A0
:1056C000DAE307C00F5F1F4F0E949414C15009F422
:1056D00012CEF80184918111F5CF8D2FD0E2F4CF55
:1056E000CFEFC0931F0584FF50C010937105009346
:1056F0007005E0911905EE2309F47DCEE150E093A9
:105700001905F0E0EE0FFF1FEC5DFA4F0190F081FC
:10571000E02DF0935905E093580572960590F491A9
:10572000E02D309711F080E0199584E10E94CC13B0
:105730008AE00E944A3C80E40E94CC13E091190563
:10574000E11198C000914D0510914E05CAE0DAE3D1
:1057500007C00F5F1F4F0E949414C15009F4CBCDB6
:10576000F80184918111F5CF8D2FD0E2F4CF4091D3
:1057700052055091530560915405709155054D9314
:105780005D936D937C931397AACD9801205F3F4F53
:10579000F901259135912115310579F0992309F405
:1057A00056C08FEFF90119958F3F09F097C01092FD
:1057B0001F050091580510915905C8010C96FC0170
:1057C000259135913297232B09F415CEA091190517
:1057D000A03108F010CE21E02A0F20931905B0E087
:1057E000AA0FBB1FAC5DBA4F0D931C933B9724913E
:1057F00023FF38C0209170053091710521153105C6
:1058000089F1309359052093580584E10E94CC1307
:105810008AE00E944A3C80E40E94CC13E091190582
:10582000E11142C000914D0510914E05CAE0DAE346
:1058300007C00F5F1F4F0E949414C15009F45BCD45
:10584000F80184918111F5CF8D2FD0E2F4CF85E05E
:10585000F90119958AE40E94CC1300915805109122
:105860005905ABCFFC018591959190935905809393
:105870005805CBCFF0E0EE0FFF1FEE5DFA4F008131
:1058800011810E5F1F4FCAE0DAE307C00F5F1F4FA1
:105890000E949414C15009F42ECDF8018491811115
:1058A000F5CF8D2FD0E2F4CFF0E0EE0FFF1FEE5DCD
:1058B000FA4F008111810E5F1F4FCAE0DAE307C083
:1058C0000F5F1F4F0E949414C15009F414CDF801CA
:1058D00084918111F5CF8D2FD0E2F4CF84E10E9425
:1058E000CC138AE00E944A3C8EE10E94CC138AE0ED
:1058F0000E944A3C8AE40E94CC13C0931F05009189
:1059000058051091590559CF0F931F93CF93DF93EB
:105910000E94B0078F3F21F105E415E0C1E0D0E01F
:10592000D801ED91FD918D01309789F084918F73AD
:10593000813021F43196849184FD09C0AE0167E085
:1059400081E00E94E016F8013297118210822196C0
:10595000C530D10529F7DF91CF911F910F9108959F
:105960001092460510924505109248051092470581
:1059700010924A051092490510924C0510924B0561
:1059800040E050E067E081E0DF91CF911F910F91FF
:105990000C94E0160F931F93CF9305E415E0C0E03D
:1059A000D801ED91FC913E96659175918C2F611512
:1059B0007105F9F00E94933CD801ED91FC9170962D
:1059C0000590F491E02D309751F080E0199561E059
:1059D000813809F060E061958C2F0E94503DCF5FC7
:1059E0000E5F1F4FC430E1F6CF911F910F910C94C1
:1059F000343D0E94293DF3CF8150843030F4E82FAC
:105A0000F0E0EA5FFD4F808108958FEF08950F93D6
:105A10001F93CF93DF93843030F08FEFDF91CF91DE
:105A20001F910F910895E82FF0E0EE0FFF1FEB5B41
:105A3000FA4F008111810115110579F3F801949154
:105A40009F73913051F73196949194FFE6CFC82F10
:105A50003F960590F491E02D309751F0862F1995DF
:105A6000823809F460C0813809F462C00E94343D74
:105A7000F8013C9685919591009779F2109219055D
:105A800090935905809358050E5F1F4F10934E0554
:105A900000934D058FEF80931F0580E693E0909370
:105AA00023058093220584E10E94CC138AE00E94A2
:105AB0004A3C2CDB80E40E94CC13E0911905E111F3
:105AC00019C000914D0510914E05CAE0DAE306C0F9
:105AD0000F5F1F4F0E949414C15039F0F801849158
