S00D000050697065312E7372656358
S11300000C94170A0C94380A0C94380A0C94380A85
S11300100C94380A0C94380A0C94380A0C94380A54
S11300200C94380A0C94380A0C94380A0C94380A44
S11300300C94380A0C94380A0C94380A0C94380A34
S11300400C94380A0C94380A0C94380A0C94380A24
S11300500C94380A0C947D100C94380A0C94380AC9
S11300600C94380A0C9473390C94B9390C94380AEA
S11300700C94380A0C94380A0C94380A0C94380AF4
S11300800C94380A0C94380A0C94380A0C94380AE4
S11300900C9486370C94DB370C94380A0C94380A89
S11300A00C94380A0C94380A0C94380A0C94380AC4
S11300B00C94380A0C94380A0C94380A0C94380AB4
S11300C00C94380A0C94380A0C94380A0C94380AA4
S11300D00C94380A0C94380A0C94793A0C94D13A5A
S11300E00C94380A23222E223A2256227322942276
S11300F09F22AA22BF22D522DD22EB22BF2218236F
S113010028234C239E23B723CC23E523ED23122459
S113011012242B243824272493249B24E6244825C2
S113012072259E25CD25D525DB259324E325F725AA
S1130130DB25352642264E2663267C269F26AA26C4
S1130140B026B526C826E926FC26B526313D463D0F
S1130150343D253D373D3A3D283D3D3D2B3D403D19
S11301602E3D433D4C6F673A20000000496E697490
S113017069616C69736174696F6E000001004545C3
S11301803A4D6F64756C65000000000000000101C9
S113019045453A4D6964692D496E00000000000030
S11301A0010245453A4D6964692D4F75740000009C
S11301B00000010345453A4D616E2D4D6F64756C29
S11301C065000000010445453A5553420000000013
S11301D0000000000000010545453A526567697357
S11301E07465720000000000010645453A50726FC4
S11301F06772616D730000000000010745453A53C2
S11302006F66746B65797300000000000108454552
S11302103A4D696469546872750000000000020078
S11302204D6F643A4661696C0000000000000000F4
S113023002014D6F643A556E6B6E6F77496E7000B4
S1130240000003004F56464C3A4D696469496E00FC
S11302500000000003014F56464C3A4D6964694F53
S113026075740000000004004F56464C3A50697003
S1130270654D73670000000005005077723A4F75B2
S1130280707475744F6E0000000054EF6E65206149
S113029075730054617374656E2F5265672E206CFC
S11302A0EF73656E004D4944492D496E746572665D
S11302B0616365006E6F6E65004D6964692D5468F5
S11302C072753A20004D6964692D4F75743A004D7A
S11302D06964692D496E3A00646972656374204DDE
S11302E04944492D4F757428696E742920666F72CC
S11302F0206D616E75616C3A20002C204269747324
S11303003A004D6F64756C653A00656D70747900E0
S113031052656769737465723A0D0A0052616E67BB
S11303206520004D616E75616C3A20004D6F6475F7
S11303306C657320636865636B65643A20004D6F78
S113034064756C65732061737369676E65643A20C4
S113035000486172647761726520436F6E666967F5
S113036075726174696F6E0D0A000D0A4D49444936
S11303702D4F7267616E2D496E7465726661636597
S11303800D0A004C6F670D0A00656D7074790D0AD3
S113039000736176652E2E2E003C6E6F6E653E00F6
S11303A0756E61737369676E656400453A006F6BBF
S11303B0200061626F7274004D494449204E6F748D
S11303C0656E20617573002B002052656700205212
S11303D06567207E20004F75743A00496E3A004DDF
S11303E0656EF50000000000000000000000000041
S11303F000000200010000000000000103000000F2
S113040000000000020002000000000000030103DD
S113041004000000000003000102000000000001CD
S113042000000000000000000100000000000000C7
S113043000010000000000000000080001020304A5
S1130440050607080001020304050607020001006F
S1130450000000000002000100000000000008008D
S1130460010203040506070000000000000000006C
S113047081103C6E6F6E653E000000000000CC07EA
S11304800000000001104D656E75000000000000C2
S1130490D607C2070000000001105374696D6D6532
S11304A06E0000003A0DB8070000000001104B6F09
S11304B07070656C323C330000009A072E200000F7
S11304C001104B6F7070656C313C33000000900775
S11304D03120000001104B6F7070656C503C33008C
S11304E0000086073420000001104B6F7070656CAB
S11304F0313C320000007C073720000001104B6FB4
S11305007070656C503C3200000072073A200000A5
S113051001104B6F7070656C503C3100000068072F
S11305203D20000001104B6F7070656C333C32004D
S113053000005E074020000001104B6F7070656C76
S1130540333C3100000054074320000001104B6F7E
S11305507070656C333C500000004A074620000070
S113056001104B6F7070656C323C31000000400725
S11305704920000001104B6F7070656C323C5000D4
S1130580000036074C20000001104B6F7070656C42
S1130590313C500000002C074F2000000110507225
S11305A02E2B2F73657400000000FA06F82000005B
S11305B0011050722E2D2F636C7200000000F006A3
S11305C017210000011050726F672E203141000086
S11305D000002207DC200000011050726F672E20FB
S11305E03241000000001807DF20000001105072A3
S11305F06F672E203341000000000E07E220000048
S1130600011050726F672E2034410000000004076F
S1130610E5200000011050726F672E636C720000B9
S11306200000B406621B0000011050726F672E7345
S1130630657400000000BE066620000001105072C0
S11306406F672E2B000000000000E6062F2100003B
S1130650011050726F672E2D000000000000DC06B0
S11306604B2100000110507242616E6B2B000000A0
S11306700000D206672100000110507242616E6BC7
S11306802E2D00000000C8067221000001104D4903
S11306904449204F666600000000A407A228000019
S11306A0C110536574757000000000002A0EAE0777
S11306B00000000050636C720000000000005073E2
S11306C065740000000000005072422D000000001C
S11306D000005072422B000000000000502D00006A
S11306E0000000000000502B00000000000000008B
S11306F0502D2F63000000000000502B2F730000CA
S1130700000000005041340000000000000050418F
S113071033000000000000005041320000000000DF
S1130720000050413100000000000000313C5080C6
S1130730000000000000323C508000000000000077
S1130740323C3180000000000000333C5080000047
S113075000000000333C3180000000000000333C06
S11307603280000000000000503C31800000000096
S11307700000503C3280000000000000313C328018
S1130780000000000000503C338000000000000026
S1130790313C3380000000000000323C3380000014
S11307A0000000004D4F6666000000000000536525
S11307B074750000000000005374696D00000000AF
S11307C000004D656E750000000000000000000090
S11307D000000000000081004D616E75616C000036
S11307E000004E0800000000000001005265676927
S11307F073746572000076080000EA1F00000100AF
S11308004D494449000000000000420A0000000075
S11308100000010054617374656E00000000EA0C6E
S113082000000000851B010053746174757300009F
S113083000001613000000000000C1005365747529
S11308407000000000002A0E00000000000081007B
S11308504B6F7070656C00000000520900000000CE
S11308600000C1005374696D6D656E0000003A0D9F
S11308700000000000008C0050726F672E6C6164F1
S11308802E000000C9050000F71F0C0050726F67AE
S11308902E73702E00000000C90500007A1B0100B1
S11308A06175730000000000000000000000F11FEB
S11308B000000E005265672E312D38000000000044
S11308C08E0500003A1B0E005265672E392D313615
S11308D0000000008F0500003A1B0E005265672ED1
S11308E031372D3234000000900500003A1B0E0011
S11308F05265672E32352D33320000009105000019
S11309003A1B0E005265672E33332D34300000003D
S1130910920500003A1B0E005265672E34312D34C7
S113092038000000930500003A1B0E005265672E44
S113093034392D3534000000940500003A1BCA00F8
S11309405265672E35352D363400000095050000BC
S11309503A1B8900323C3300000000000000000014
S113096032080000671B0900313C3300000000001E
S11309700000000033080000671B0900313C32000E
S1130980000000000000000034080000671B09009C
S1130990503C330000000000000000003508000057
S11309A0671B0900503C32000000000000000000FA
S11309B036080000671B0900503C310000000000AD
S11309C00000000037080000671B0900333C3200B8
S11309D0000000000000000038080000671B090048
S11309E0333C310000000000000000003908000022
S11309F0671B0900333C50000000000000000000A9
S1130A003A080000671B0900323C31000000000076
S1130A10000000003B080000671B0900323C500046
S1130A2000000000000000003C080000671BC90033
S1130A30313C500000000000000000003D080000B0
S1130A40671B81004E6F7465734F6666000000007B
S1130A500000A228000001004D494449696E0000CD
S1130A6000000A0B00000000FD1C01004D49444930
S1130A706F75740000008A0D00000000F91C03105B
S1130A80546872752D496E0000000000470800008C
S1130A90361B0310546872752D4F757400000000E6
S1130AA048080000361B09004163636570742050D8
S1130AB04300000053090000F51C09004163742E33
S1130AC053656E736500000051090000F51C0900B0
S1130AD056656C5A344F66660000000052090000E7
S1130AE0F51C0608527842756655736500000000CF
S1130AF0621500000000C608547842756655736597
S1130B00000000006B1600000000810043682E31D5
S1130B100000000000004A0C0000971A00000100C9
S1130B2043682E320000000000004A0C0100971AAE
S1130B300000010043682E330000000000004A0C4E
S1130B400200971A0000010043682E3400000000E0
S1130B5000004A0C0300971A0000010043682E3578
S1130B600000000000004A0C0400971A0000010075
S1130B7043682E360000000000004A0C0500971A56
S1130B800000010043682E370000000000004A0CFA
S1130B900600971A0000010043682E380000000088
S1130BA000004A0C0700971A0000010043682E3920
S1130BB00000000000004A0C0800971A0000010021
S1130BC043682E313000000000004A0C0900971AD7
S1130BD00000010043682E313100000000004A0C7F
S1130BE00A00971A0000010043682E313200000009
S1130BF000004A0C0B00971A0000010043682E31D4
S1130C003300000000004A0C0C00971A0000010099
S1130C1043682E313400000000004A0C0D00971A7E
S1130C200000010043682E313500000000004A0C2A
S1130C300E00971A0000C10043682E3136000000F0
S1130C4000004A0C0F00971A00008100536563747A
S1130C502E31000000009A0C0000A21A00000100CE
S1130C60536563742E32000000009A0C0100A21A2E
S1130C7000000100536563742E33000000009A0CD9
S1130C800200A21A0000C100536563742E340000F0
S1130C9000009A0C0300A21A000087904D616E7543
S1130CA0616C00000000000049080000000004908E
S1130CB04D69644E6F746500000000004A0800002E
S1130CC00000068052616E676500000000000000AD
S1130CD04B0800000000C4904D616E4E6F746500B7
S1130CE0000000004C080000000081085461737487
S1130CF0653100000000700400001B1B452D010835
S1130D0054617374653200000000700401001B1B01
S1130D10452D0108546173746533000000007004AC
S1130D2002001B1B452DC108546173746534000017
S1130D300000700403001B1B452D81204D616E2EA5
S1130D4033000000000000000000CF1B0000012061
S1130D504D616E2E32000000000000000100CF1B28
S1130D60000001204D616E2E3100000000000000E3
S1130D700200CF1B0000C120506564616C000000BC
S1130D80000000000300CF1B000083104949490004
S1130D9000000000000000004909000000000310EA
S1130DA04949000000000000000000004B09000059
S1130DB000000310490000000000000000000000D3
S1130DC04D09000000000310500000000000000066
S1130DD0000000004F0900000000031049494928A1
S1130DE0696E7429000000004A0900000000031025
S1130DF0494928696E742900000000004C0900006C
S1130E00000003104928696E7429000000000000E6
S1130E104E0900000000C3105028696E74290000B8
S1130E200000000050090000000081004D6F64754F
S1130E306C6500000000F60F0000000000000100D7
S1130E40526567697374657200008E0E00000000BD
S1130E50321B0100555342000000000000006613DD
S1130E600000000000000100506F77657200000070
S1130E700000BA0F000000000000C1004545707278
S1130E806F6D000000007E0F000000000000810074
S1130E90536563742E31000000002E0F0000061B02
S1130EA000000100536563742E32000000002E0F11
S1130EB00100061B00000100536563742E3300001B
S1130EC000002E0F0200061B00000100536563742E
S1130ED02E34000000002E0F0300061B000001004A
S1130EE0536563742E35000000002E0F0400061BAA
S1130EF000000100536563742E36000000002E0FBD
S1130F000500061B00000100536563742E370000C2
S1130F1000002E0F0600061B0000C1005365637419
S1130F202E38000000002E0F0700061B00008280F0
S1130F30437572736F72000000000000000200002D
S1130F40000002804368617200000000000000009D
S1130F500102000000000D805265674265670000D1
S1130F6000000000020200000000CD8052656745C9
S1130F706E64000000000000030200000000810015
S1130F8045455361766500000000000000009A2189
S1130F900000010045454261636B7570000000006C
S1130FA0000082210000C1004545526573746F72D0
S1130FB06500000000008E2100008100506F7765FD
S1130FC0724F6E00000000000000092E00000100B6
S1130FD0506F7765724F6666000000000000122EA5
S1130FE00000C100502E52657374617274000000D9
S1130FF000001A2E00008A004D6F6452656164007F
S113100000000000750300000B1D0A004D6F6457BB
S11310107269746500000000760300000B1D0A0865
S11310204D6F644F4B000000000000006802000098
S1131030000001004D6F64546573740000005A1081
S1131040000000000000C1004D6F644173736967C4
S11310506E004A1100000000011D81004D6F642ED6
S1131060300000000000FA1000008C1A000001009B
S11310704D6F642E310000000000FA1001008C1A3C
S1131080000001004D6F642E320000000000FA10D1
S113109002008C1A000001004D6F642E3300000022
S11310A00000FA1003008C1A000001004D6F642E3A
S11310B0340000000000FA1004008C1A0000010043
S11310C04D6F642E350000000000FA1005008C1AE4
S11310D0000001004D6F642E360000000000FA107D
S11310E006008C1A0000C1004D6F642E370000000A
S11310F00000FA1007008C1A000081005265616438
S113110000000000000000000000891B00000B002C
S1131110577269746500000000000000CE05231AB0
S11311205F1A0100546573745074726E00000000FD
S11311300000A0290000C1004C6F6F70547374004C
S1131140000000000000BD1B000081004D616E2EF8
S11311503300000000004E120000C01A000001001D
S11311604D616E2E3200000000004E120100C01AC4
S1131170000001004D616E2E3100000000004E128F
S11311800200C01A00000100506564616C00000098
S113119000004E120300C01A0000C10052656769C6
S11311A0737465720000AE11040000000000810039
S11311B0536563742E31000000009E120000F01A83
S11311C000000100536563742E32000000009E127B
S11311D00100F01A00000100536563742E3300000F
S11311E000009E120200F01A0000010053656374AF
S11311F02E34000000009E120300F01A00000100CB
S1131200536563742E35000000009E120400F01A2A
S113121000000100536563742E36000000009E1226
S11312200500F01A00000100536563742E370000B6
S113123000009E120600F01A0000C100536563749A
S11312402E38000000009E120700F01A00008100F2
S1131250536563742E3100000000DA120000CB1ACB
S113126000000100536563742E3200000000DA129E
S11312700100CB1A00000100536563742E33000093
S11312800000DA120200CB1A0000C1005365637437
S11312902E3400000000DA120300CB1A00008D8007
S11312A052656742656700000000000018080000EE
S11312B000000D80526567456E6400000000000068
S11312C0190800000000C5804D6F64756C652F42DD
S11312D0697400001A080000000084904E6F746561
S11312E042656700000000005509000000000490FA
S11312F04E6F7465456E64000000000056090000DE
S11313000000C5804D6F64756C652F4269740000E0
S113131057090000000081204C6F670000000000A6
S1131320000000000000F9270000010055534200AE
S113133000000000000066130000000000000240EE
S11313404D4944492D496E000000000000007D27EE
S11313500000C2404D4944492D4F757400000000FF
S11313600000BB27000089004576656E744C6F67EA
S11313700000000073160000351D010053656E6403
S11313804C6F67000000000000000F1D0000C1004A
S1131390536E644857436667000000000000491D0F
S11313A0000056302E373500010002000201030010
S11313B0030103020001000201020003010302030E
S11313C03100300054657874800045786974007E7B
S11313D0617573007E65696E0045696E80002D003D
S11313E02B007F007E00090008001B1B1B1B1B1B1E
S11313F01B001B1B1818181818001B1B03030303DE
S113140003001B1B0000000000001818181818180F
S11314101800181800000000000004040404150E4D
S11314200400040E1504040404000D0A0000112431
S11314301FBECFEFD1E2DEBFCDBF00E00CBF12E094
S1131440A0E0B2E0E6E9FDE700E00BBF02C00790D0
S11314500D92A832B107D9F729E1A8E2B2E001C0A0
S11314601D92A234B207E1F70E9405170C94C93EFD
S11314700C940000FC018FEF9FEF1CC0DF0111965C
S113148020818227282F22952827022E269526950B
S11314902025022E269520252770082E892F269593
S11314A007942795902D82270694279590258227C7
S11314B0BA01FD01AB0141505109672BF9F60895BA
S11314C0EF92FF920F931F93CF93DF93CFEFDFEF52
S11314D021C07C012FEFE21AF20A0E94973E9E017E
S11314E02827822F82958227082E86958695802527
S11314F0082E869580258770022E232F86950794C3
S11315008795302D28270694879530252827E901CB
S1131510B801C7018B0101501109672BD1F6CE0127
S1131520DF91CF911F910F91FF90EF900895FC01EF
S1131530CA011CC0DF01119620818227282F229521
S11315402827022E269526952025022E269520252D
S11315502770082E892F269507942795902D82278A
S11315600694279590258227BA01FD01AB014150CD
S11315705109672BF9F60895EF92FF920F931F9389
S1131580CF93DF93EA0121C07C012FEFE21AF20A24
S11315900E94973EAE014827842F82958427082E07
S11315A0869586958025082E869580258770042E3D
S11315B0452F869507948795502D4827069487953F
S11315C050254827EA01B801C7018B0101501109D0
S11315D0672BD1F6CE01DF91CF911F910F91FF9030
S11315E0EF900895CF93DF9382E390E00E949F3EB3
S11315F0EC0160E370E082E090E062DFC817D90795
S113160081F481E090E00E94973E8D3451F440E3F0
S113161050E062E070E085E599E00E94873E80E05A
S113162006C0809128028160809328028FEFDF91A9
S1131630CF910895CF93DF9385E391E00E949F3E7D
S1131640EC0160E071E085E390E03ADFC817D90768
S113165081F484E390E00E94973E893451F440E0A1
S113166051E065E370E089E498E00E94873E80E001
S113167006C0809128028260809328028FEFDF9158
S1131680CF910895CF93DF9383E491E00E949F3E2E
S1131690EC016BE070E088E391E012DFC817D90732
S11316A0C1F487E391E00E94973E8F3491F448E0BF
S11316B050E068E371E089E499E00E94873E43E0EA
S11316C050E060E471E081E599E00E94873E80E0AB
S11316D006C0809128028460809328028FEFDF91F6
S11316E0CF910895CF93DF9388E491E00E949F3EC9
S11316F0EC0161E070E086E491E0E2DEC817D9070E
S1131700A1F485E491E00E94973E893671F486E461
S113171091E00E94973EC5E7D3E0888387E491E097
S11317200E94973E898380E006C0809128028860E9
S1131730809328028FEFDF91CF910895CF93DF93A9
S113174087EF93E00E949F3EEC0162E070E085EF3A
S113175093E0B6DEC817D90781F484EF93E00E94C2
S1131760973E843551F442E050E065EF73E087E43E
S113177098E00E94873E80E006C080912802826043
S1131780809328028FEFDF91CF910895CF93DF9359
S11317908CE491E00E949F3EEC0161E070E08BE4F8
S11317A091E08EDEC817D90771F48AE491E00E94B3
S11317B0973E853541F48BE491E00E94973E8093F7
S11317C0731680E006C08091280288608093280206
S11317D08FEFDF91CF910895CF93DF9361E070E0B5
S11317E08FE491E06DDEAC0168E170E080E591E0AA
S11317F0C3DEEC0188E691E00E949F3EC817D9073A
S1131800B1F48EE491E00E94973E823581F48FE436
S113181091E00E94973E8093310848E150E060E5F2
S113182071E088E198E00E94873E80E006C08091E4
S113183028028062809328028FEFDF91CF91089570
S1131840CF93DF938BEE93E00E949F3EEC0160E820
S113185072E08BE691E034DEC817D90781F48AE69A
S113186091E00E94973E803551F440E852E06BE6E7
S113187071E085E899E00E94873E80E006C080918F
S113188028028064809328028FEFDF91CF9108951E
S1131890CF93DF9382EF93E00E949F3EEC0164E0DC
S11318A070E08EEE93E00CDEC817D90751F444E0E3
S11318B050E06EEE73E084ED95E00E94873E80E098
S11318C006C0809128028068809328028FEFDF9100
S11318D0CF910895CF93DF938AE194E00E949F3ED5
S11318E0EC0160E270E08AEF93E0EADDC817D90703
S11318F051F440E250E06AEF73E080E092E00E942D
S1131900873E80E006C0809128028062809328028E
S11319108FEFDF91CF91089560E080E090E00E9426
S1131920B33E65E68CE194E00C94B33E0895CF9306
S1131930DF9360E370E085E599E09CDDEC010E94B3
S1131940B13D6DE481E090E00E94B33E40E350E09D
S113195062E070E085E599E00E94A43EBE0182E366
S113196090E00E94C53ED8DF0E94BF3DDF91CF9139
S11319700895CF93DF9360E071E089E498E07ADD25
S1131980EC010E94B13D69E484E390E00E94B33E1F
S113199040E051E065E370E089E498E00E94A43EF1
S11319A0BE0185E391E00E94C53EB6DF0E94BF3DC3
S11319B0DF91CF910895CF93DF9368E070E089E4DD
S11319C099E058DDAC0163E070E081E599E0AFDDBA
S11319D0EC010E94B13D6FE487E391E00E94B33EC5
S11319E048E050E068E371E089E499E00E94A43E95
S11319F043E050E060E471E081E599E00E94A43E98
S1131A00BE0183E491E00E94C53E86DF0E94BF3D93
S1131A10DF91CF9108950F931F93CF93DF9361E0EC
S1131A2070E085E793E026DD8C010E94B13D69E614
S1131A3085E491E00E94B33EC5E7D3E0688186E483
S1131A4091E00E94B33E698187E491E00E94B33E35
S1131A50B80188E491E00E94C53E5EDF0E94BF3D6C
S1131A60DF91CF911F910F910895CF93DF9361E0A0
S1131A7070E083E796E1FEDCEC010E94B13D65E590
S1131A808AE491E00E94B33E609173168BE491E086
S1131A900E94B33EBE018CE491E00E94C53E3CDF4F
S1131AA00E94BF3DDF91CF910895CF93DF9362E011
S1131AB070E087E498E0DEDCEC010E94B13D64E56F
S1131AC084EF93E00E94B33E42E050E065EF73E0A0
S1131AD087E498E00E94A43EBE0187EF93E00E9451
S1131AE0C53E1ADF0E94BF3DDF91CF910895CF9389
S1131AF0DF9361E070E081E398E0BCDCAC0168E175
S1131B0070E088E198E013DDEC010E94B13D62E5EC
S1131B108EE491E00E94B33E609131088FE491E03D
S1131B200E94B33E48E150E060E571E088E198E04E
S1131B300E94A43EBE0188E691E00E94C53EECDE10
S1131B400E94BF3DDF91CF910895CF93DF9360E86A
S1131B5072E085E899E08EDCEC010E94B13D60E51D
S1131B608AE691E00E94B33E40E852E06BE671E001
S1131B7085E899E00E94A43EBE018BEE93E00E94AA
S1131B80C53ECADE0E94BF3DDF91CF910895CF9339
S1131B90DF9364E070E084ED95E06CDCEC010E947E
S1131BA0B13D6BE48DEE93E00E94B33E44E050E01F
S1131BB06EEE73E084ED95E00E94A43EBE0182EFD8
S1131BC093E00E94C53EA8DE0E94BF3DDF91CF9105
S1131BD00895CF93DF9360E270E080E092E04ADC06
S1131BE0EC010E94B13D62E789EF93E00E94B33EAD
S1131BF040E250E06AEF73E080E092E00E94A43E8D
S1131C00BE018AE194E00E94C53E86DE0E94BF3D8B
S1131C10DF91CF9108958BDEACDECDDEFCDE25DFD7
S1131C2066DF93DFB4DF41DFD4CF0895CF92DF9234
S1131C30EF92FF920F931F93CF93DF93EB0111C0A9
S1131C407C012FEFE21AF20A0E94973E6E019FEF89
S1131C50C91AD90A682FCE010E94B33EA801E60131
S1131C60C7018A0101501109452B51F7DF91CF912A
S1131C701F910F91FF90EF90DF90CF9008950E94F5
S1131C80B13D40E058E060E078E080E090E0CEDFF5
S1131C900C94BF3D08950E94B13D40E058E060E0DF
S1131CA070E080E098E0C2DF0C94BF3D089580E0CE
S1131CB00AC0E82FF0E0EE0FFF1FE15BFD4F9FEF3E
S1131CC0908311828F5F8930A0F3E1E6F2E0108205
S1131CD01182128213828FEF80937703089582E03A
S1131CE084BD93E095BD80936E0089EF87BD85B177
S1131CF08F7785B984B1806884B9089587E8809323
S1131D007A0010927B008FE780937C0081E08093BF
S1131D107E0010927F00E9E6F3E010828FEF81836A
S1131D2082838093290280E010C0853039F4E82F43
S1131D30F0E0E159FC4F96E0908306C0E82FF0E014
S1131D40E159FC4F9AE090838F5F863070F30895D9
S1131D508FEF88B987B982B911B884B3876084BB1F
S1131D6083B3876083BB8BB18F778BB98AB180686B
S1131D708AB980E00EC0E82FF0E0EE0FFF1FEE0FEF
S1131D80FF1FEE0FFF1FE759FD4F9FEF91839083D5
S1131D908F5F803280F3109266021092650208957C
S1131DA0A1DC8F3F59F440E050E060E081E00E9404
S1131DB0EF16E5E7F3E08FEF808381838BB18F77B4
S1131DC08BB984B3876084BB84B38B7F84BB85E089
S1131DD08A95F1F7000084B3846084BB90E284B3F5
S1131DE0816084BB90FD02C085E501C08AEA88B9A0
S1131DF080B1809368038093670380936603809324
S1131E006503809364038093630384B38E7F84BBF0
S1131E1085E08A95F1F70000915009F790E20FC030
S1131E2084B3816084BB82E08A95F1F700C084B3F7
S1131E308E7F84BB82E08A95F1F700C091509111A6
S1131E40EFCF8FEF8093680290E284B3816084BB0C
S1131E508FEF88B920B190FD02C08AEA01C085E500
S1131E6082272091680282238093680284B38E7F44
S1131E7084BB85E08A95F1F70000915031F70000AA
S1131E80000084B3816084BB84B3876084BB84B363
S1131E908B7F84BB82E08A95F1F700C084B38460B1
S1131EA084BB90E2E1E6F3E08381828384818383CF
S1131EB084B3816084BB8FEF818388B985818483F7
S1131EC08681858380B186838283838384838583AB
S1131ED0878384B38E7F84BB3897915029F70000A1
S1131EE0000084B3816084BB84B38D7F84BB18B845
S1131EF085E08A95F1F7000084B3826084BB08957D
S1131F00883008F06AC031E001C0330F8A95EAF7DF
S1131F1080E8809366028BB18F778BB984B3876036
S1131F2084BB40E01DC020FD03C0832F809501C009
S1131F308FEF88B9269582E08A95F1F700C084B3C3
S1131F408E7F84BB82E08A95F1F700C084B3816000
S1131F5084BB9F5F02C090E025EA983020F34F5F76
S1131F604430C8F390E00FC082E08A95F1F700C0D6
S1131F7084B38E7F84BB82E08A95F1F700C084B37A
S1131F80816084BB9F5F903278F390E040E050E042
S1131F90BA0117C0440F551F661F771F82E08A9548
S1131FA0F1F700C084B38E7F84BB80B1832309F032
S1131FB0416082E08A95F1F700C084B3816084BBFC
S1131FC09F5F903238F3109266028BB180688BB9B0
S1131FD0342F252F862F972F04C030E020E080E097
S1131FE090E0632F722F089590E0E9E6F2E080E03C
S1131FF006C02FEF21832681822B38969F5F903273
S1132000C0F3909175038923909168028923089500
S1132010109266028091660281FFFCCF10926602E4
S11320208091660281FFFCCF089581E08093650270
S11320309FB7F89406C0EFE4F2E088E2828313824B
S113204080E08111F8CF9FBF0895809165028130AF
S113205031F5CADF811114C085B1806485B982E18C
S1132060809365029FB7F89481E006C0EFE4F2E044
S113207081E08283138280E08111F8CF9FBF0895AD
S11320809FB7F89481E007C0EFE4F2E08CE082832C
S113209082E0838380E08111F7CF9FBF089582316E
S11320A0B1F4A2DF811104C084E1809365020BC006
S11320B0482F50E060E085E092D685B18F7B85B9EA
S11320C080E8809365028FEF8093510208958FEF2B
S11320D080935102089590E00DC0943050F4E92F9C
S11320E0F0E0811102C02AE001C026E0E159FC4F72
S11320F020839F5F963088F308951F920F920FB646
S11321000F9211240BB60F92EF92FF920F931F932D
S11321102F933F934F935F936F937F938F939F93EB
S1132120AF93BF93CF93DF93EF93FF9385B1806811
S113213085B9809167028F5F8093670283708130D5
S113214009F458C138F0823009F4A5C1833009F488
S1132150CAC105C28091290281111AC190917A00E5
S113216096FD16C1282F30E0F901EE0FFF1FE20F94
S1132170F31FEE0FFF1FE759FC4F91814091790047
S11321804183491710F4941B03C0542F591B952FF6
S1132190943008F0FDC081110EC0423270F04F330C
S11321A070F0483670F0463970F04F3B70F0483E9E
S11321B070F4C6E00DC0CFEF0BC0C4E009C0C3E0AB
S11321C007C0C5E005C0C1E003C0C2E001C0CFEF55
S11321D0F901EE0FFF1FE20FF31FEE0FFF1FE75988
S11321E0FC4FD281DC1709F448C0DF3F19F0CF3F20
S11321F009F0CFEFF901EE0FFF1FE20FF31FEE0F0F
S1132200FF1FE759FC4FC283DF3FF9F4C901880F70
S1132210991FFC01E20FF31FEE0FFF1FE759FC4F5C
S113222015821482FC01E20FF31FEE0FFF1FE75922
S1132230FC4F1382EC2FF0E0E259FC4F808180FFC9
S1132240A7C08C2F0E94362EA3C0ED2FF0E0E259D8
S1132250FC4F808181FF9CC0F901EE0FFF1FE20F4C
S1132260F31FEE0FFF1FE759FC4F8381837009F0C2
S11322708FC08D2F0E94362E8BC0CF3F09F488C0AB
S1132280F901EE0FFF1FDF01A20FB31FAA0FBB1F3F
S1132290A759BC4F14968D919C911597019615964C
S11322A09C938E931497FD01848195818B349105C1
S11322B0A9F4ED2FF0E0E259FC4F808182FF0EC0BB
S11322C08C2F80680E94362EE091290286E0E89FD8
S11322D0F0011124E759FC4F82E08383ED2FF0E0F5
S11322E0E259FC4F808183FF53C08091290290E022
S11322F0FC01EE0FFF1FE80FF91FEE0FFF1FE75958
S1132300FC4F238121111EC0FC01EE0FFF1FE80FBB
S1132310F91FEE0FFF1FE759FC4F2481358122334B
S11323203105B1F526E0289FF001299FF00D112415
S1132330E759FC4F81E08383158214828C2F0E941D
S1132340362E26C0FC01EE0FFF1FE80FF91FEE0F1B
S1132350FF1FE759FC4F23812130D1F426E0289F49
S1132360F001299FF00D1124E759FC4F2481358198
S11323702C30310569F426E0289FF001299FF00DE7
S11323801124E759FC4F158214828C2F0E94362E9B
S1132390809129028F5F80932902843010F010927B
S11323A029028091290281110CC090E0FC01EE0FFA
S11323B0FF1FE80FF91FEE0FFF1FE759FC4F808145
S11323C001C08FE1982F9F71906690937C00EBE79A
S11323D0F0E02081807290E095958795959587959A
S11323E0922F9F7D892B8083EAE7F0E080818064CF
S11323F08083B5C080916602803809F4B0C084B38C
S1132400876084BB84B38B7F84BB20917603209543
S1132410E2E0EA95F1F700C084B3846084BB90E203
S1132420E1E6F3E0838182838481838384B38160E2
S113243084BB8181822B88B985818483868185834D
S113244080B1868384B38E7F84BB3897915051F7D3
S11324500000000084B3816084BB84B38D7F84BB9F
S11324608091660282608093660218B88BB180689E
S11324708BB984B3826084BB72C0808181508E3FEB
S113248038F421812F5F253010F0808320E02183F0
S113249032969F5F03C090E0EFE4F2E0993068F376
S11324A0E1E6F2E080818F5F80838A3F09F057C0C4
S11324B08FEF80937703108281818F5F81838C33C8
S11324C008F44DC0118282818F5F82838C3308F4BB
S11324D046C0128283818F5F8383843608F43FC0B1
S11324E0109264023CC0809166028038C1F1E09091
S11324F0750380916802E822F12C09E612E02CC0F1
S1132500F801C28183819C2F9823C82B848198234E
S1132510C82B25819223C22B86819823C82BD7816F
S1132520CD23C92BC7838D2F80958C238E2121F039
S11325309F2D90620E94762EC095CD238C2F8E21E4
S113254019F09F2D0E94762E085F1F4F809166021E
S1132550816080936602F394FFE1FF1588F685B1EC
S11325608F7785B9FF91EF91DF91CF91BF91AF91B3
S11325709F918F917F916F915F914F913F912F9197
S11325801F910F91FF90EF900F900BBE0F900FBE15
S11325900F901F901895E82FF0E0EE0FFF1FEE0F3D
S11325A0FF1FEE0FFF1FE759FD4F609581816823E0
S11325B061830895E82FF0E0EE0FFF1FEE0FFF1F79
S11325C0EE0FFF1FE759FD4F8181682B618308954A
S11325D08FEF82B985B988B98BB98EB981BB84BBB9
S11325E080930201809305018093080180930B017D
S11325F08AB180688AB98BB18F778BB984B18064D2
S113260084B985B18F7B85B984B1806384B9089519
S1132610882334F4E2E0F1E090819061908305C076
S1132620E2E0F1E090819F7E908386FF06C0E2E0C5
S1132630F1E090819860908305C0E2E0F1E0908140
S1132640977F908385FF04C09EB198609EB903C0B4
S11326509EB1977F9EB984FF04C084B3806284BB1B
S113266003C084B38F7D84BBE2E0F1E080818064A9
S1132670808385E08A95F1F7000080818F7B8083D9
S113268085E08A95F1F700000895CF93DF93D82F62
S1132690C5B1C07385B18F7C806185B9E2E0F1E09A
S11326A080818062808380818F7B80838D2FB0DFE7
S11326B08D2F8295807FACDF8FEF90E00197F1F74B
S11326C000C0000085B18073C82BC5B9DF91CF91DC
S11326D00895CF93DF93D82FC5B1C07385B18F7C94
S11326E0806185B9E2E0F1E080818F7D8083808123
S11326F08F7B80838D2F8CDF8D2F8295807F88DF69
S1132700D150D23038F48FE097E20197F1F700C04E
S1132710000006C08FEF90E00197F1F700C00000C1
S113272085B18073C82BC5B9DF91CF910895CF933C
S1132730C5B1C07385B18F7C806185B91092C9031E
S1132740E1E0F1E080818061808380818860808322
S11327508DB188608DB983B3806283BB80818064CE
S113276080838081806280832FEF81EE94E021500A
S113277080409040E1F700C00000E2E0F1E0808199
S11327808F7D808380818F7B808380E341DF8FE135
S11327909EE40197F1F700C0000080E339DF8FE188
S11327A09EE40197F1F700C0000080E331DF8FE180
S11327B09EE40197F1F700C0000088E229DF8FEF63
S11327C090E00197F1F700C0000088E282DF88E022
S11327D080DF81E07EDF86E07CDF8CE07ADF85B11C
S11327E08073C82BC5B9CF9108958093C8038058CE
S11327F070CF08951092C80381E06BDF80E0E8E7B2
S1132800F3E004C090E290838F5F31968035D0F37B
S11328100895843198F090EC980F943110F48C5210
S113282008959CEE980F943110F48C5E08959CEA00
S1132830980F943110F4885108958FEF0895CF9331
S1132840DF93D82F8091C903882331F08091C80386
S1132850803410F0843510F08D2F17DFC091C80339
S11328608C2FD7DF8F3F29F1D13A79F0D03879F026
S1132870D53A79F0DA3279F0D23E79F0D53F79F071
S1132880DF3E79F0D13E81F40EC0D0E20DC0D0E23B
S11328900BC0D4E109C0D5E107C0D3E105C0D2E142
S11328A003C0D1E101C0D0E1E82FF0E0E858FC4FCB
S11328B0D083CF5FCF77C093C803DF91CF910895C2
S11328C0CF93DF93FC01892B19F407C0B8DFFE0115
S11328D0EF01219680818111F9CFDF91CF91089585
S11328E0CF93DF93FC01892B19F407C0A8DFFE0105
S11328F0EF01219684918111F9CFDF91CF91089551
S1132900FF920F931F93CF93DF938C01F090C80332
S11329100E94683ED82F80E468DFC0E003C080E2F4
S1132920B4DECF5F2C2F30E084E190E08D1B910961
S1132930959587952817390794F304C00F5F1F4FA7
S1132940A4DECF5FF80180818111F8CF03C080E25B
S11329509CDEC12F11E01C0FC431C8F38F2D45DF5D
S11329608FEF8093C9039FB7F89481E006C0EFE42A
S1132970F2E084E68687178680E08111F8CF9FBF56
S1132980DF91CF911F910F91FF900895FF920F93C4
S11329901F93CF93DF938C01D091C8030E945E3EB6
S11329A0F82E80E422DFC0E003C080E26EDECF5F59
S11329B02C2F30E084E190E08F199109959587954B
S11329C02817390794F306C00F5F1F4FFC01849149
S11329D05CDECF5FC801F80124912111F5CF03C05B
S11329E080E253DEC12F11E01C0FC431C8F38D2FD8
S11329F0FCDE8FEF8093C9039FB7F89481E006C093
S1132A00EFE4F2E084E68687178680E08111F8CF50
S1132A109FBFDF91CF911F910F91FF9008950F9366
S1132A201F93CF93DF930091C80380E4F2DEC82F95
S1132A3080E4DBDED0E022C011E01C0FEC2FF0E0DC
S1132A40E858FC4F8081843159F0853159F0833145
S1132A5059F0823159F0813159F0803161F40AC062
S1132A6085EA09C08AE207C082EE05C085EF03C08B
S1132A708FEE01C081EE09DEDF5FC12FD431E0F2B9
S1132A80802FB3DE1092C903DF91CF911F910F9174
S1132A90089583EF93E09093860580938505909342
S1132AA0840580938305089580918305909184051E
S1132AB020918505309186058217930748F0821B83
S1132AC0930B959587959DEC899F802D11240895EE
S1132AD080579E4F821B930B959587959DEC899FFC
S1132AE0802D11240895CF93C82FDEDFC817F8F482
S1132AF040918505509186058C2F90E09C01220F12
S1132B00331F880F991F880F991F880F991F280F4B
S1132B10391FCA01820F931F65E08937960749F070
S1132B2040F020593140CA01820F931F02C080E057
S1132B3090E0CF910895D7DF0097F1F1FC01368141
S1132B40678120E034C0422F50E0FA01EE0FFF1FEE
S1132B50CF01880F991F880F991F880F991FE80FBD
S1132B60F91FE659FE4F8491381320C0FA01EE0F85
S1132B70FF1FCF01880F991F880F991F880F991F76
S1132B80E80FF91FE559FE4F849168130FC0440FF5
S1132B90551FCA01880F991F880F991F880F991F05
S1132BA0480F591FCA0184599E4F08952F5F203141
S1132BB050F280E090E0089580E090E00895CF9393
S1132BC073DF1092CA03811114C017C08C2F8BDFDE
S1132BD0009761F0FC012481203251F095818C2F03
S1132BE0953439F48FEF8093CA0307C08C2F01C04A
S1132BF08C2FCFEFC80F8111E9CFCF9108951F9388
S1132C00CF93DF93009709F47BC0162FEC018B81DF
S1132C10882379F06BEC73E00E94AB3BBC016F5FDF
S1132C207F4F28E6FC0120838A810E94AB3BDC01B4
S1132C302FC08A81882379F06BEC73E00E94AB3B50
S1132C40BC016F5F7F4F2DE6FC01208389810E94C8
S1132C50AB3BDC011DC06BEC73E089810E94AB3B94
S1132C60FC0183E780839881990F20E002C0995189
S1132C702F5F9931E0F7205D2183990F20E002C096
S1132C8095502F5F9530E0F7DF011396205D228386
S1132C909C81903451F0903819F0903281F40AC03C
S1132CA0FD0131968AE28C930EC0FD01319685EACE
S1132CB08C9309C0FD01319680E28C9304C0FD0120
S1132CC031968FE38C93BF016F5F7F4F8D8180833B
S1132CD08E810E94EE3BBC018F810E94EE3BBC01C1
S1132CE06F5F7F4F2DE2FC012083888599850E94C8
S1132CF0293CFC0110821F3F41F01C8360DF05C0AA
S1132D00EBECF3E08DE2808311828BEC93E0DF91B6
S1132D10CF911F910895E0918305F0918405A1E678
S1132D20B2E09C919083E0918305F0918405119623
S1132D309C9111979183E0918305F09184051296FB
S1132D409C911297928313969C91938325838683F7
S1132D5067835187408780E88483809173168F3F0F
S1132D6081F484E691E00E9409396FEF8091830534
S1132D709091840544DF0E945D398AE294E10E94C7
S1132D80093980918305909184050A96909384056E
S1132D90809383058957954039F030F083EF93E0B1
S1132DA09093840580938305209183053091840555
S1132DB080918505909186052817390779F40A963C
S1132DC090938605809385058957954039F030F0B6
S1132DD083EF93E09093860580938505089525E419
S1132DE09ADF8FEF8093CA030895CF93C62F7BDEBB
S1132DF0009719F06C2F03DF06C0EBECF3E08DE2D3
S1132E0080831182CF01CF910895E2DB85B18F7C5D
S1132E1085B93FDE0E941F390E942F2E0E946F0E3B
S1132E200E94570E0E947E0E0E94A80E0E946037D8
S1132E300E94D00E0E9497320E94D7320E94C12E67
S1132E400E943A2F0E9408320E9468330E94D02CBC
S1132E500E940B0E1092E3056ADC0E94343BCADC2C
S1132E6083E4C3DC85EA92E03BDD8BE1BEDC82EAED
S1132E7093E136DD78942FEF47E98AE3215040400F
S1132E808040E1F700C000000E94F239B3DCCDD8E5
S1132E908FEF80931408809388058EEF80938705C5
S1132EA0DFEF85B18F7C85B920911F1430912014F8
S1132EB080911A1490911B142817390709F466C0DD
S1132EC00E945C3AC82F809387050E9413388FE7CD
S1132ED08C0F863028F480E88C0F0E94362E56C062
S1132EE0C03909F053C080911214803909F04EC0E2
S1132EF091E0E92F092E000CFF0BEE5EFB4E808162
S1132F008D3319F09F5F9830A4F398300CF03EC0D5
S1132F10892F859520E006C0E22FF0E0E459F94EB0
S1132F2010822F5F2330C0F32CC0E92F092E000C30
S1132F30FF0BEE5EFB4E308120ED230F2A3010F0A4
S1132F4027ED230FA22FAF70ECE6F6E1628120E1BA
S1132F50629FB00111244181242F22952F70622B8E
S1132F60628320E1429FA00111242081322F3295F7
S1132F703F70432B418340E1249F900111242A2B6D
S1132F802083915019168CF20E942D360E94632ED4
S1132F90882309F450C085B1806385B90E944A2E04
S1132FA0C82F8638B1F40E9436370E9406350E9435
S1132FB0D8310E94B72E6DDD1092621510926B16F7
S1132FC085B1806485B983E1809365028AE892E0E3
S1132FD0DDDC809188058F3FF9F48C2F8F73C53029
S1132FE069F460E070E080E090E00E94A6210E9415
S1132FF0782A1092880580E06ED81DC09FEF980F44
S11330009430C8F40E94942D6C2F0E94A92D8093B3
S113301088050E94552D0FC08091E305811106C0DB
S11330208C2F0E947F2A8093880505C08DEF8093A2
S1133030C7050E94B728809188058F3F69F4DF3F58
S113304061F40E94C4290E94552D8FEF44D88FEF5C
S113305080933008D0E001C0DFEF85B18F7C85B963
S113306080915D02811104C0DADC8FEF80935D02F0
S113307080915B0281110AC08091E305882319F0D5
S11330800E94B72803C08FEF80935B0280915102A6
S113309081111BC00E9425100E94F52D8091880586
S11330A08F3F99F4C091C80384E19FDB809165024E
S11330B0813021F483E992E013DC05C0823119F4F4
S11330C084E10E94813D8C2F90DB809187059FE7EE
S11330D0980F963010F08E3F09F58091FC188F3FC1
S11330E031F48091C80395DB0E94263A03C08FE730
S11330F00E94263A81E80E94263AC0E0E8E7F3E01D
S113310008C08F010F5F1F4F80810E94263ACF5F56
S1133110F801C035B0F380E80E94263A8FEF80931F
S113312087050E9444370E941035C091C8038091DE
S11331305702882329F0809157028F3F09F067C016
S1133140809117088F3F09F062C0809123028F3F5E
S113315091F180E04ADB809121028F3F69F48091F4
S113316022020E945E3D8FE36ADB809123020E946B
S11331700D3D80E264DB0CC0809123020E940D3D72
S11331808EE75DDB809121020E946F3D80E257DB78
S11331908C2F2BDB8FEF809323029FB7F89481E071
S11331A006C0EFE4F2E083E28087118680E08111BB
S11331B0F8CF9FBF2CC0809120028F3FD9F080E0D0
S11331C014DB80E73CDB809120020E94913B8EE778
S11331D036DB8FEF809320029FB7F89481E006C01E
S11331E0EFE4F2E083E28087118680E08111F8CF7A
S11331F09FBF0DC080915702811109C0F6DA86E0A5
S11332000E94813D8C2FF1DA8FEF809357028091D9
S113321059028F3F21F08091590281115BC0809146
S113322025028F3FF9F08FE0E0DA809124020E94BA
S11332306F3D8EE704DB809125020E940D3D8C2FAB
S1133240D4DA8FEF809325029FB7F89481E006C00B
S1133250EFE4F2E088E28287138680E08111F8CF00
S11332609FBF38C0809154098F3F31F18FE0BDDAA0
S113327082E5E5DA809154098F770E94913B809131
S11332805409882314F088E001C089E0D8DA80E288
S1133290D6DA8C2FAADA8FEF809354099FB7F8946B
S11332A081E006C0EFE4F2E088E28287138680E0E2
S11332B08111F8CF9FBF0EC08091590281110AC0BD
S11332C08FE093DA85E00E94813D8C2F8EDA8FEFB8
S11332D080935902809130088F3F79F4109230081E
S11332E080E083DA0E94E731809117088F3F19F05C
S11332F00E940B3202C00E946E32809177038F3F8E
S113330009F07EC010927703F090C803C091FC18B6
S1133310CF3F11F40E94AB3D80916402882359F0A1
S11333208091620280FD0EC00F2EFAE3EF2EF02D85
S113333004E612E00CC00F2EFAE3EF2EF02D03E6A4
S113334012E005C06894EE24E5F804E612E087E094
S11333504CDAF80180810E94913B8E2D70DAF801DD
S1133360319780810E94913B40917016442331F043
S113337050E060E083E033DD1092701640917716E0
S1133380442331F050E061E083E029DD10927716A8
S11333908091650284FF02C080E201C089E04FDAB7
S11333A08091CA038F3F11F485E401C080E247DABB
S11333B08F2D1BDACF3F11F40E94A43D8091570258
S11333C08F3F69F49FB7F89481E006C0EFE4F2E020
S11333D08DE78087118680E08111F8CF9FBF8091AF
S11333E059028F3F69F49FB7F89481E006C0EFE477
S11333F0F2E08DE78287138680E08111F8CF9FBFCA
S1133400809115088F3F39F41092150840E050E080
S113341060E084E0E4DC85B18F7C806285B99091C2
S1133420651680917416981721F00E945C380E94EA
S113343099350E94AD2E8F3F09F033CD0E94982E0E
S11334400E945E362ECD1092CE051092CF051092BA
S1133450D0051092D10581E090E00090990502C05A
S1133460880F991F0A94E2F7482F30E0E1E6F3E071
S113347022C08091CE059091CF05A091D005B09146
S1133480D105880F991FAA1FBB1F8093CE05909367
S1133490CF05A093D005B093D1052181242349F011
S11334A081608093CE059093CF05A093D005B0930F
S11334B0D10538973F5F3032E0F280E008954091C3
S11334C0CE055091CF056091D0057091D10585301E
S11334D009F5A1E0B0E00090990502C0AA0FBB1F56
S11334E00A94E2F73A2F90E0E1E6F3E011C0772383
S11334F024F48181832B818305C021818A2F8095C7
S113350082238183440F551F661F771F38979F5F5F
S1133510903268F380E00895E091CA05F091CB05FC
S11335203E96859195918093990580E00895E09168
S1133530CA05F091CB053E96859195918093C80577
S113354080E00895E091CA05F091CB053E9625915F
S113355035912093D8058091C8058F7090E0237031
S1133560880F991F880F991F820F911D880F991F2B
S1133570880F991F9093D3058093D20580E0089516
S1133580E091CA05F091CB053E9685919591809383
S1133590980580E00895E091CA05F091CB053E9628
S11335A0859195918093D805209198052F7030E0EE
S11335B0837090E0A901440F551F240F351F220F7B
S11335C0331F220F331FAC01440F551F840F951F67
S11335D0820F931F9093D3058093D20580E00895C2
S11335E0E091CA05F091CB053E9685919591809323
S11335F0D805877090E09C01220F331F820F931F20
S11336009093D3058093D20580E00895E091CA0594
S1133610F091CB053E96859195918093D80587705E
S113362090E0880F991F880F991F9093D30580937A
S1133630D20580E00895E091CA05F091CB053E964D
S113364085919591843060F4FC01FF27EE0FFF1FF4
S1133650E552FA4F808191819093EF058093EE05B6
S113366080E008950E94E90D80E008950E94550DC0
S113367080E008951F93CF93DF938630F1F0E091BB
S1133680CA05F091CB053E960590F491E02DCF014B
S11336908E589540880F880F880FD081C0E00BC0EA
S11336A011E0180F6D2F661F6627661F0E948E306B
S11336B0DD0FCF5F812FC83098F380E0DF91CF9189
S11336C01F91089581110E94D83180E00895E091FE
S11336D0CA05F091CB053E96859195918253984009
S11336E0FC01FF27EE5CF74F208121110E94C82EB8
S11336F080E00895863039F08091C905803418F44B
S11337006FEF0E94B33080E008950E94C70D80E0FF
S11337100895CF92DF92EF92FF9281E090E00090C3
S1133720990502C0880F991F0A94E2F7282F90E0A8
S1133730E1E6F3E0C12CD12C76010BC0CC0CDD1CEE
S1133740EE1CFF1C8681822311F06894C0F8389720
S11337509F5F903298F38EE148D8C092FE18D092C1
S1133760FF18E0920019F09201190E946C3B80E06E
S1133770FF90EF90DF90CF9008958EE136D880913E
S113378099050E94800F6093FE187093FF18809330
S11337900019909301190E946C3B80E00895CF9327
S11337A08F3F09F078C080932E0210922D02E09191
S11337B0CA05F091CB053E96859195918093980525
S11337C0843010F01092980520E039C0809198055B
S11337D090E0E22FF0E0DF01AA0FBB1FAD014E0F16
S11337E05F1FDC01AA0FBB1FA80FB91FAA0FBB1FC5
S11337F0AA0FBB1FA40FB51FAB5AB64F3C91409103
S11338002E02341710F430932E02AF01440F551FCB
S1133810E40FF51FAC01440F551F840F951F880F4B
S1133820991F880F991FE80FF91FEB5AF64F8181F2
S113383090912D02981710F480932D022F5F24305D
S113384028F280912E02882354F48EE10E94F5130D
S113385080EA93E045D88FEF8093C00504C080933D
S1133860C00510922C026AEC73E180E00E94CD3D09
S113387069ED73E181E00E94CD3D6EED73E182E07C
S11338800E94CD3D60EE73E183E00E94CD3D0E9435
S11338901C3ECFEF71C06091C0056F3F09F461C059
S11338A08130D9F480912D02681708F05CC040E0A3
S11338B0809198050E940C346091C0056F5F6093FD
S11338C0C00580912C02813009F04FC041E0809105
S11338D098050E940C34CFEF4FC08430D1F480910E
S11338E02E02861708F043C040E0809198050E949C
S11338F00C346091C00561506093C00580912C0226
S11339008130B9F541E0809198050E940C34CFEFE5
S113391033C0833091F480912C02811104C081E082
S113392080932C0202C010922C0240912C028091B0
S113393098050E940C34CFEF1FC0823011F08630FE
S113394039F440E0809198050E940C34C0E014C022
S1133950853089F440E0809198050E940C34C0E0E1
S11339600BC0C0E009C0CFEF07C0CFEF05C0CFEF59
S113397003C0CFEF01C0CFEFCF3FA1F58091C005C9
S11339808F3F69F18EE10E94F5138091C0050E947A
S11339900D3D80E20E941F1480912C0281110AC007
S11339A081E60E941F1485E70E941F1483E70E948A
S11339B01F1409C085E60E941F1489E60E941F1483
S11339C08EE60E941F1461E080912C02811101C0D7
S11339D060E081E00E943B3E81110E941C3E8EE12A
S11339E00E94F5138C2FCF9108950E94DB0C80E088
S11339F008950E94DB0C80E008950E94B90C80E0D9
S1133A0008950E94970C0E94202F0E94770D0E9417
S1133A10113380E008950E940B0D80E00895CF9348
S1133A2083E893E00E9409393FD8811117C089E8DF
S1133A3093E00E94093916C06FEF8C2FD6D90E94EB
S1133A405D398AE294E10E9409398C2F74D80E946E
S1133A5009398AE294E10E9409398C2FCFEFC80F0B
S1133A608111EACF80E0CF9108950E94350D8091B5
S1133A7073168F3F61F48AE693E00E94093982EA63
S1133A8093E10E9409398AE294E10E94093980E0B5
S1133A9008959F92AF92BF92CF92DF92EF92FF92DE
S1133AA00F931F93CF93DF9381E593E00E9409392D
S1133AB00E941B398EE393E00E940939C5E7D3E0E5
S1133AC062E079E188810E94EE3B22E7FC012083D9
S1133AD0BC016E5F7F4F20E2218389810E94EE3B0F
S1133AE027E7FC01208382E099E10E945D390E946E
S1133AF01B398CE293E00E94093962E079E18091FC
S1133B0068020E94EE3B82E099E10E945D390E94C6
S1133B101B390E941B39E12CD1C083E293E00E943F
S1133B20093962E079E18E2D0E94C63C82E099E178
S1133B300E945D390E941B39F12CA4C08CE193E0F2
S1133B400E94093980E38F0D0E9413388AE30E9492
S1133B50133880E20E9413380E2D10E0CF2CD12CA4
S1133B60E601CC0FDD1FCE018C0D9D1DE801CC0FAD
S1133B70DD1FC00FD11FCC0FDD1FCC0FDD1FC80F01
S1133B80D91FCB5AD64F62E079E188810E94EE3B7F
S1133B90BC016F5F7F4F0F2EFEE2BF2EF02DFC01A4
S1133BA0B08289810E94EE3BBC016F5F7F4FFC01B4
S1133BB0B0828A810E94EE3BFC0180E280839DE317
S1133BC09183828382E099E10E945D398881882310
S1133BD02CF48AE093E00E94093951C062E079E153
S1133BE00E946A3CBC016F5F7F4F0F2EFDE29F2E47
S1133BF0F02DFC019082F601EE0FFF1FCE0EDF1EAA
S1133C005801AA0CBB1CE501C00FD11FCC0FDD1F4E
S1133C10CC0FDD1FCC0DDD1DCB5AD64F89810E9400
S1133C206A3C20E2FC012083118282E099E10E9437
S1133C305D3982E093E00E9409398A8182958695F4
S1133C408770805D0E9413388AEF92E00E940939E0
S1133C508A8162E079E18F710E94AB3BBC016F5FA6
S1133C607F4FFC0190828A81998128818F71890F0D
S1133C70821B0E94AB3B82E099E10E945D390E9465
S1133C801B39F394F3E0FF1508F058CF88ED92E068
S1133C900E940939EE2DF0E0EE0FFF1FE75BF64FAF
S1133CA062E079E181810E94063C82E099E10E9410
S1133CB05D390E941B390E941B39E39483E08E1501
S1133CC008F02BCF80E193E00E940939F12C94C0D5
S1133CD08CE193E00E94093980E38F0D0E94133830
S1133CE08AE30E94133880E20E941338CF2DD0E07B
S1133CF08E01000F111F0C0F1D1F085E174F62E08D
S1133D0079E1F80180810E94EE3BBC016F5F7F4F37
S1133D100F2EFEE2EF2EF02DFC01E082F8018181EE
S1133D200E94EE3BBC016F5F7F4FFC01E082F80113
S1133D3082810E94EE3BFC0180E280839DE39183BB
S1133D408283138282E099E10E945D39F8018081C7
S1133D508F3F29F48AE093E00E9409394AC0E2E0E7
S1133D60F9E192E590839EE2918364E079E18F5FCB
S1133D700E94C73BBC016F5F7F4F1DE2FC011083B3
S1133D80CE01880F991FC80FD91FC85ED74F8981EC
S1133D908F5F0E94C73B20E2FC012083118282E0F6
S1133DA099E10E945D3982E093E00E9409398A8199
S1133DB0829586958770805D0E9413388AEF92E021
S1133DC00E9409398A8162E079E18F710E94AB3BDC
S1133DD0BC016F5F7F4FFC0110838A819981288128
S1133DE08F71890F821B0E94AB3B82E099E10E9494
S1133DF05D390E941B39F394F7E0FF1508F068CF92
S1133E000E941B398FEC92E00E9409390E941B39F1
S1133E10E12C90E064C0CE2DD0E00F2D10E0FE0127
S1133E20EE0FFF1FEE0FFF1FE00FF11FEE0FFF1F3E
S1133E30EE0FFF1FE75BF74F80818F3F09F447C008
S1133E4062E079E18E2D0E94063CBC016F5F7F4FDA
S1133E500F2EF8E2DF2EF02DFC01D082CC0FDD1FF7
S1133E60CC0FDD1FC00FD11FCC0FDD1FCC0FDD1F0A
S1133E70C75BD74F89810E946A3CBC016F5F7F4F4B
S1133E802DE2FC01208399818A81890F0E946A3C7A
S1133E90FC0119E2108380E28183BF016D5F7F4FD3
S1133EA08EE3828388810E94C63CBC016F5F7F4F92
S1133EB0FC01D0828B810E946A3CFC011083118238
S1133EC082E099E10E945D390E941B399FEFF394CF
S1133ED001C0F12CF3E0FF1508F09DCFE3948FE0CF
S1133EE08E15B8F7911106C084EB92E00E9409394F
S1133EF00E941B390E941B3985EC92E00E9409390B
S1133F000E941B39C0E025C062E079E18C2F0E9439
S1133F10C63CDC01BC016F5F7F4F8AE38C93EC2FBE
S1133F20F0E0EE0FFF1FE75BF64F80818F3F19F043
S1133F300E94063C05C0CD0102962DE211962C93F9
S1133F40FC01108282E099E10E945D390E941B39D4
S1133F50CF5FC430C8F20E941B3989EB92E00E9403
S1133F600939C7E4D8E062E079E188810E94063C1F
S1133F70BC016F5F7F4F2EE3FC01208389810E9487
S1133F80063CFC01108282E099E10E945D390E94A6
S1133F901B3980E0DF91CF911F910F91FF90EF903B
S1133FA0DF90CF90BF90AF909F9008951F93CF93D1
S1133FB0DF9310E009C0C12FD0E0C257DA4F8881E7
S1133FC00E94723E88831F5F1830A8F3DF91CF915F
S1133FD01F9108958EE895E00E946230E7DF80E04B
S1133FE008950E94D83180E0F5DF80E0089586309E
S1133FF031F08091C905803410F40E944D3180E085
S1134000E9DF80E00895CF93C62F8823D9F0E62F07
S1134010F0E0DF01AE5CB74F8C91811108C0862FB0
S11340200E94C82E882371F00E94CB340BC0DF019C
S1134030AE5CB74F1C92EE0FFF1FE855FC4E849107
S11340400E94CB34EC2FF0E0EE5CF74F80818111BD
S113405002C082E801C081E8CF91089560E0D3CF27
S1134060089561E0D0CF089563E0CDCF089562E074
S1134070CACF089564E0C7CF089565E0C4CF08951A
S113408066E0C1CF089567E0BECF089569E0BBCF75
S1134090089568E0B8CF08956AE0B5CF08956BE05D
S11340A0B2CF0895CF93C62F62E079E10E94C73B57
S11340B0BC018EEC93E00E94DF3C6C2F0E94F53C27
S11340C082E099E10E948014CF910895CF938823D0
S11340D051F0C0911708CF3F31F06FEF8C2F0E9441
S11340E0B3306C2FDFDF80E0CF9108950F931F93DF
S11340F0CF93C82F82E099E10E94F53CBC016F5F29
S11341007F4F2EE7FC0120838C2F0E94C73BBC010C
S113411089EC93E00E94DF3C8C010E94081084E04B
S11341200E944E30C82F882349F0B80187EC93E0F1
S11341300E94DF3CBC018C2F0E94C73B82E099E1C6
S11341400E948014CF911F910F910895CF938034D2
S113415060F4909148089F3F41F0C82F892F806CEC
S11341600E9488388C2F0E948838CF910895CF936D
S1134170C62F88233CF46FEF8C2F0E94B3306C2F32
S113418091DF09C0882339F0862F0E944D316C2FAE
S1134190ADDF8C2FDBDF8C2F0E942331882339F095
S11341A08C2F0E94E830811104C081E803C082E8AA
S11341B001C082E8CF91089560E0D9CF089561E00D
S11341C0D6CF089562E0D3CF089563E0D0CF0895A9
S11341D080911708803430F4B9DF809117080E9469
S11341E04D3102C00E94D8318FEF8093300808957A
S11341F0CF9388235CF4C0911708CF3FA9F06FEFE9
S11342008C2F0E94B3306C2F4DDF0EC0882361F0D9
S1134210809117088F3321F48FEF8093170803C020
S11342208F5F80931708D4DF80E0CF9108958823AF
S113423034F40E94D8318FEF0E9443310EC088239A
S113424061F0809117088F3F21F48FE38093170862
S113425003C0815080931708BBDF80E00895882352
S1134260C1F04CF4809117088F3F91F0885F8873F8
S1134270809317080DC0882359F0809117088F3355
S113428021F48FEF8093170803C08F5F8093170882
S11342909FDF80E008958823C1F04CF480911708D3
S11342A08F3F91F088508873809317080DC088233E
S11342B059F0809117088F3F21F48FE380931708FA
S11342C003C081508093170883DF80E0089588231A
S11342D039F080911708885F88738093170878DF16
S11342E080E00895882339F08091170888508873F6
S11342F0809317086DDF80E008958EEA93E00C94B4
S1134300C61408958EE10E94F51381E993E00E949A
S113431070140E943F0EF1DF80E008958EE10E9448
S1134320F51381E993E00E9470140E944B0EE5DFBF
S113433080E0089581E993E00E9470148EE10E9468
S1134340F5130E940B0ED9DF80E0089510928905C1
S1134350009769F486ED97E09093CB058093CA05A6
S11343608FED93E09093BE058093BD0508C09093B4
S1134370CB058093CA057093BE056093BD058FEF8E
S11343808093970589EE93E090939B0580939A051B
S1134390089562EE73E182E00C94CD3D089564EEDD
S11343A073E183E00C94CD3D089566EE73E181E002
S11343B00C94CD3D089564ED73E181E00C94CD3D02
S11343C008956FEC73E181E00C94CD3D089568EE9F
S11343D073E180E00C94CD3D0895809196058A3078
S11343E011F08E3031F460EC73E180E00C94CD3D3B
S11343F0089560EE73E180E00C94CD3D08958091C2
S113440096058A3011F08E3031F462EC73E181E06C
S11344100C94CD3D08956EED73E181E00C94CD3D97
S11344200895CF93DF93E09196058E2F90E0FC01E1
S11344303297ED30F10508F0E4C08827EE58FF4FBD
S11344408F4F0C947F3E8091DA05E5EEF5E0982FCE
S113445092959F7090838F708183D3C08091DA0589
S1134460803120F08FEF8093E505CBC08F5F809380
S1134470E505C7C08091DA05882334F4E5EEF5E05C
S113448010828FEF8183BDC01092E60508C0E5EE6F
S1134490F5E091819F5F91838C508093DA05809140
S11344A0DA058C30A0F78093E505ABC08091DA057E
S11344B0E5EEF5E0982F92959695977090838F711D
S11344C08093DA05118208C0E5EEF5E091819F5FE3
S11344D091838A508093DA058091DA058A30A0F7B7
S11344E08093E7058EC0E5EEF5E01082118208C0E6
S11344F0E5EEF5E090819F5F908384568093DA0522
S11345008091DA058436A0F708C0E5EEF5E09181E4
S11345109F5F91838A508093DA058091DA058A300F
S1134520A0F78093E7056DC08091DA05843020F010
S11345308FEF8093E50565C08093E50562C08091A7
S1134540DA05843020F083E08093E5055AC0809337
S1134550E50557C08091DA058093E50552C0E92F3F
S1134560F0E08091DA05282F221F2227221FEB5129
S1134570FA4F2083880F8093DA059F5F01C090E093
S1134580983068F33EC08250F0E0DE019D91EB511B
S1134590FA4F9F709083E82FF0E09881EB51FA4F27
S11345A092959F709083ED0103C0C3ECD5E088E041
S11345B0EFEFE80F8111E7CF24C08091DA05E5EE33
S11345C0F5E0982F97709F5F9083869586958695E2
S11345D08F5F818316C08091DA058F5F8093DA053F
S11345E01092E50508C0E5EEF5E090819F5F9083A9
S11345F08A508093DA058091DA058A30A0F7809397
S1134600E605DF91CF9108950F931F93CF93DF9326
S1134610E09196058E2F90E0FC013297ED30F10584
S113462008F03BC18827E158FF4F8F4F0C947F3E21
S113463005EE15E0F80180810E940A3BC5E4D2E052
S11346408883F80181810E940A3B89831A8225C1EB
S1134650E5E4F2E083E4808388E681838091E505E4
S11346608F3F29F480E282838DE2838312C08A30F3
S113467048F0C5E4D2E091E39A838A500E940A3B51
S11346808B8307C0C5E4D2E090E29A830E940A3B80
S11346908B831092490201C18091E5058F3F21F07F
S11346A09091E6059F3F59F4E5E4F2E08EE68083BD
S11346B09FE69183828385E683831482EEC09FE51F
S11346C0909346028B3021F488E48093450220C005
S11346D0853058F4982F96959D5B9093450280FF02
S11346E017C083E28093460213C0282F30E0255080
S11346F03109359527952A5B2093450280FD03C037
S113470083E280934602283419F481E480934502BD
S11347108091E605811104C08DE6809347020BC0A9
S11347208C3030F481500E940A3B8093470203C0CE
S11347308DE28093470210924802AFC0C5E4D2E0F4
S11347408DE4888305EE15E0F80180810E940A3B20
S1134750898382E48A83F80181810E940A3B8B83E6
S1134760F80182810E940A3B8C831D8296C005EE6B
S113477015E0F80180810E940A3BC5E4D2E08883F9
S1134780F80181810E940A3B8983F80182810E9499
S11347900A3B8A831B8281C08091E505833038F40B
S11347A0E5E4F2E093E3981B9083118276C08330B2
S11347B031F4E5E4F2E080E5808311826EC0E5E443
S11347C0F2E08DE28083118268C08091E505E5E422
S11347D0F2E0805D8083118260C08091E5058111E3
S11347E009C0E5E4F2E081E4808385E7818383E71F
S11347F0828308C0E5E4F2E085E4808389E681836E
S11348008EE682831092480248C0C12FD0E0FE0198
S1134810EB51FA4F80810E940A3BCB5BDD4F8883CA
S11348201F5F01C010E0183080F337C0822F90E082
S1134830FC01EB51FA4F3081311102C03FE601C057
S113484039E4FC01EB5BFD4F30832F5F01C020E0B6
S1134850283060F322C0A5EEB5E08C91E5E4F2E0E7
S1134860805D808311968C91805C8183128215C057
S1134870E5EEF5E090818181292F282B31F4E5E4E0
S1134880F2E08DE28083818306C0E5E4F2E0905D8E
S11348909083805D818310924702DF91CF911F91B5
S11348A00F9108950F931F93CF938EE10E94F513F8
S11348B0C0E005E412E00BC0F8018081882319F000
S11348C00F5F1F4F01C080E20E941F14CF5FCA30E8
S11348D098F3CF911F910F9108958A301CF4882387
S11348E01CF0089580E0089589E008950F931F93C4
S11348F0CF93DF93C82FE091CA05F091CB05319691
S11349008491282F2071E09196058E2F90E0FC0170
S11349103297ED30F10508F093C18827E457FF4F33
S11349208F4F0C947F3ED0E0CB51DA4F8881680FD3
S11349306F70688385C121111BC0613041F480917F
S1134940E505803120F081E08093E50579C16F3F72
S113495049F48091E50582508F3020F080E1809306
S1134960E5056EC1E5EEF5E08081680F608368C1FE
S1134970613041F48091E505803121F48FEF80931B
S1134980E5055EC1613041F48091E5058F3F21F476
S113499081E08093E50554C16F3F41F48091E505C2
S11349A08F3F21F480E18093E5054AC16F3F41F4D4
S11349B08091E505813021F48FEF8093E50540C1B6
S11349C0E5EEF5E08081680F60833AC18091E605E9
S11349D08F3F09F4C1E0C11116C08091E5058C3008
S11349E050F48B3011F4613041F0811102C06F3FFB
S11349F031F0680F05C060E003C060E001C06BE007
S1134A006093E5052BC021110AC0811102C06F3FDC
S1134A10C1F08A3011F46130B1F0680F1DC081110A
S1134A2002C06F3F91F08A3011F4613081F08F3F02
S1134A3011F4613071F08F3F11F46F3F61F0680F32
S1134A400BC06AE009C060E007C06FEF05C06FEFFC
S1134A5003C060E001C06AE06093E6059091E5055B
S1134A609F3F09F4EDC08091E6058F3F09F4E8C04B
S1134A70282F220F820F282F220F220F920F0AF0C5
S1134A80DFC0E5EEF5E087E080838AE08183D8C06B
S1134A90C11107C0E5EEF5E08081680F677060839F
S1134AA0CFC0D0E005EE15E0CB51DA4F8881860FF8
S1134AB014DF8883F80181819281880F282F220FC7
S1134AC0220F820F890F80322CF083E0818381E0F2
S1134AD08283B6C088230CF0B3C0E5EEF5E0118202
S1134AE01282AEC0D0E005EE15E0CB51DA4F8881DA
S1134AF0860FF3DE8883F8012081818190E0AC0188
S1134B00440F551F880F991F880F991F880F991FED
S1134B10840F951FF4E62F9F800D911D1124F80139
S1134B202281820F911D8F3F910509F00CF488C0FA
S1134B3082E0808385E08183828382C02223A1F086
S1134B40D0E0FE01EB51FA4F8081680F608364303E
S1134B5019F48FEF808374C06E3F09F071C0CB519C
S1134B60DA4F83E088836CC0D0E0FE01EB51FA4F4A
S1134B708081811105C06F3F19F483E0808360C098
S1134B80833031F4613021F4CB51DA4F188258C0AC
S1134B90CB51DA4F680F688353C0D0E0CB51DA4F62
S1134BA08881680F637068834BC0E5EEF5E080810F
S1134BB08095808345C0D0E081E061FD80E0CB51E9
S1134BC0DA4F88833DC0613041F4D0E0CB51DA4FF5
S1134BD0888187708F5F888333C0EC2FF0E0EB51BE
S1134BE0FA4F8081825087708F5F808329C0E5EE01
S1134BF0F5E090818181990F292F220F220F920FC6
S1134C00890FC11107C0660F962F990F990F690F6D
S1134C10680F01C0680F66231CF061341CF403C0E4
S1134C2060E001C060E01092E50506C0E5EEF5E045
S1134C3080818F5F80836A506A30C4F76093E60591
S1134C40DF91CF911F910F910895E09196058E2FDA
S1134C5090E0FC013297ED30F10508F0DAC08827C6
S1134C60E756FF4F8F4F0C947F3EE5EEF5E08081D1
S1134C7020E1829FC001112491819F70892B809330
S1134C80DA0508959091E5058FEF890F803118F0CA
S1134C909093DA0508958093DA0508959091E505D7
S1134CA09F3F21F08091E6058F3F21F48FEF8093A1
S1134CB0DA050895282F220F820F880F880F890F95
S1134CC08093DA050895E5EEF5E0808130E2839F74
S1134CD0C001112421813281220F422F440F440F3D
S1134CE0240F230F203220F08F618093DA0508957A
S1134CF0822B8093DA050895E5EEF5E02081818129
S1134D0090E0AC01440F551F880F991F880F991F1D
S1134D10880F991F840F951F34E6239F800D911DE2
S1134D2011242281820F911D8F3F910529F020F0DB
S1134D308FEF8093DA0508958093DA0508958091C2
S1134D40E5058093DA05843008F463C08FEF80931F
S1134D50DA0508958091E50583708093DA05089556
S1134D608091E5058093DA0508951092DA0580E0D4
S1134D700CC09091DA05990FE82FF0E0EB51FA4F4F
S1134D802081920F9093DA058F5F883090F3089515
S1134D901092C3051092C4051092C5051092C60561
S1134DA0A3ECB5E088E010C08250F0E0EB51FA4F7C
S1134DB09081E82FF0E0EB51FA4F208130E1239FFE
S1134DC0900D11249C931196EFEFE80F8111ECCF15
S1134DD00895E5EEF5E020819181892F90E0019717
S1134DE0880F991F880F991F880F991F9FEF920FA3
S1134DF0892B8093DA050895E5EEF5E080819181B1
S1134E00880F282F220F220F820F890F8150809341
S1134E10DA0508950F931F93CF93DF938C01D62F58
S1134E20C0E00CC0F8018491882319F00F5F1F4F74
S1134E3002C08D2FD0E20E941F14CF5FCA3090F3BE
S1134E40DF91CF911F910F91089580E40E94F51393
S1134E50E0918905E11107C06AE38091BD05909155
S1134E60BE05D8CF0895F0E03197EE0FFF1FE4564A
S1134E70FA4F808191816AE30296CCCF0895E09144
S1134E80CA05F091CB0584918F7390E002971CF0D2
S1134E90C8DABADB07CD0895E0919A05F0919B0535
S1134EA080919705E80FF11D31968491825E0E94EE
S1134EB0F5132091970530E0E0919A05F0919B0558
S1134EC0849190E001972817390714F468DA03C035
S1134ED083E00E94083E80919705882311F059DAF7
S1134EE003C082E00E94083E78DA89DA0C941C3E02
S1134EF0089584E10C94F51308950F931F93CF93B1
S1134F00F8DF8BED93E00E9470148091FA18909171
S1134F10FB180E94053D8DE20E941F148091FA182F
S1134F209091FB18049730F48091FA189091FB1833
S1134F30C82F01C0C4E00091651610E00F591B4E44
S1134F4013C084E10236180710F0F80102C0E1E64C
S1134F50F5E18F010150110980810E94553BC15038
S1134F6019F080E20E941F14C111EBCF80E0CF91B1
S1134F701F910F9108950F931F93CF93BADF86ED7E
S1134F8093E00E94701480917116909172160E94A1
S1134F90053D8DE20E941F14809171169091721646
S1134FA0049730F48091711690917216C82F01C045
S1134FB0C4E00091101410E00E591A4E13C085E19C
S1134FC00336180710F0F80102C0E2E6F6E18F019B
S1134FD00150110980810E94553BC15019F080E2B3
S1134FE00E941F14C111EBCF80E0CF911F910F914C
S1134FF008950F931F93CF938F3FA9F40E945415E4
S1135000815080932B0210922A026AEC73E180E0B3
S11350100E94CD3D64EC73E181E00E94CD3D0E948D
S11350201C3ECFEF2FC0843049F480912B0288239B
S113503021F1815080932B02CFEF24C0813091F471
S113504000912B0210E00F5F1F4F0E94541590E057
S113505008171907A4F480912B028F5F80932B0209
S1135060CFEF10C0833011F0853059F480912A02BB
S1135070809580932A02CFEF05C0CFEF03C0CFEF16
S113508001C0C0E0CF3F09F054C033DF0E94541583
S1135090811106C089E993E00E947014C0E01DC02C
S11350A080912B028F5F0E94913B8AE30E941F1420
S11350B080912A02811108C060E280912B020E9433
S11350C0F5160E94601406C080912B020E949B1565
S11350D00E9470140E948D3D0CDF61E080912A02D1
S11350E08F3F09F060E081E00E943B3E00912B027B
S11350F010E00F5F1F4F0E94541590E00817190726
S113510034F464EE73E183E00E94CD3D03C083E098
S11351100E94083E80912B02882331F062EE73E1F5
S113512082E00E94CD3D03C082E00E94083E0E94BE
S11351301C3E8C2FCF911F910F9108958AE40C94FB
S1135140F513089588EB93E00E94C6140E94363745
S1135150F5DF80E00895CDDE8AE00C94813D08956A
S11351608EE10E94F5138AE00C94813D08958091AC
S1135170C7058F3F11F08D3F79F50E94AB3DF0DFFD
S11351801092140890E0E9E6F2E007C021818091D2
S1135190E305822B818338969F5F9032B8F3809128
S11351A0C7058F3F19F41092C7055CC082EB93E0EA
S11351B00E94C6148EEF8093C7059FB7F89481E0D0
S11351C006C0EFE4F2E082E08487858780E0811105
S11351D0F8CF9FBFB3DF46C08E3F41F48FEF80937B
S11351E014081092E3050E94A43D3CC040918A0536
S11351F050918B0560918C0570918D05769567951E
S11352005795479540938A0550938B0560938C0579
S113521070938D05E82FF0E0DF01AA0FBB1FAA0FE2
S1135220BB1FAA0FBB1FA759BD4F16962C91909177
S1135230E305292349F4706840938A0550938B054C
S113524060938C0570938D05EE0FFF1FEE0FFF1F0B
S1135250EE0FFF1FE759FD4F2181922B91838F5F42
S11352608093C705E091C705E03228F5F0E0EE0F22
S1135270FF1FEE0FFF1FEE0FFF1FE759FD4F809139
S1135280E305982F90958181892381838EE10E9483
S1135290F5138091C7050E94913B9FB7F89481E074
S11352A006C0EFE4F2E088E08487158680E081118F
S11352B0F8CF9FBF0895E03209F041C080918A057C
S11352C090918B05A0918C05B0918D050097A10557
S11352D0B10529F48EEA93E00E94C6141FC080939E
S11352E0FE189093FF18A0930019B093011962E07F
S11352F079E18BEA93E00E94DF3CAC0160918A057E
S113530070918B0580918C0590918D050E94463C8F
S1135310FC01108282E099E10E9480148EEF809358
S1135320C7059FB7F89481E006C0EFE4F2E082E09D
S11353308487858780E08111F8CF9FBFFFCE0895D1
S113534081E090E00090990502C0880F991F0A94AB
S1135350E2F78093E3058FEF8093C70510928A05E7
S113536010928B0510928C0510928D0500DF80E061
S1135370089580E40E94F5138AE00E94813DDEDEF8
S11353808AE00C94813D0895F4DFEADEE4CE0895CA
S1135390E091CA05F091CB0584918F73813011F4AB
S11353A004C808953E960590F491E02D309769F075
S11353B0893041F48081811103C00C94DB2108956C
S11353C000C808950C94D521089581E00C94083EFA
S11353D00895CF9389E40E94F513E091CA05F091F2
S11353E0CB05C491C07CC03839F480E20E941F14FC
S11353F082E00E94083E05C08FE70E941F140E94AD
S1135400C921C03C29F483E00E94083EC0E203C0E5
S11354100E94CF21CEE70E94E721BADF8091CA051E
S11354209091CB056C2F0296F5DC0E941C3E86DE23
S1135430CF9108958091CA059091CB05FC012491E8
S1135440622F6F73623008F449C09C01225F3F4FA2
S1135450F901459155914115510509F43FC0E62FD5
S1135460F0E031979F01220F331F220F331F220FC9
S1135470331FE20FF31FE751FC4FF0939B05E093BA
S11354809A0524912093C105FC0125912F73209343
S11354909605249122232CF42091D2053091D30532
S11354A002C020E030E0240F351FFC0184918F738B
S11354B08B3071F4F90180819181A281B381809351
S11354C0C3059093C405A093C505B093C60504C055
S11354D0F90180818093DA05D2DC07C041DE89EED0
S11354E093E090939B0580939A0552DF27CE08950D
S11354F032DEA0DFAADC6DDF0C94A43D0895CF93C7
S1135500C82F0E94A43DE091CA05F091CB05849177
S11355108F73813029F0809197058F3F09F068C11E
S11355203196849186FF02C016DE08DE6091CA05BA
S11355307091CB05CB010196FC018491982F907258
S113554085FF1FC09B01205F3F4FF90125913591D5
S113555021153105B1F0409197054F3F91F08C2F03
S1135560F90119958F3F21F41092970580E004C248
S1135570F2DDF6DDE3DD8FEF809397052ADF80E02F
S1135580FBC1C33009F464C028F4C13051F0C23007
S113559031F1DBC1C53009F45BC090F0C630F9F0DD
S11355A0D4C1FB018491807C803C09F4D0C1749601
S11355B0F093CB05E093CA053DDF0BDF80E0DCC14F
S11355C0FB018491807C803809F4C3C17497F09303
S11355D0CB05E093CA052EDFFCDE80E0CDC184FF5D
S11355E004C01092EF051092EE05E0918905EE23B8
S11355F0E9F0E150E0938905F0E0EE0FFF1FE45677
S1135600FA4F0190F081E02DF093CB05E093CA05A9
S113561072960590F491E02D309711F080E0199581
S11356209ADD13DCD6DE06DF80E0A6C180E00E94AE
S1135630083E81E00E94083E82E00E94083E83E02A
S11356400E94083E0E941C3E0E94AB3D8FEF94C115
S1135650FB0124912F7330E0223031050CF448C053
S113566070960590F491E02D309719F08C2F1995D0
S1135670E1DE2091CA053091CB05C9010196FC01F8
S1135680849183FD68C1C9010E96FC0185919591B1
S1135690892B09F462C1F90184918F73893019F55A
S11356A061E080E023D9D1DAE091CA05F091CB051D
S11356B03E960590F491E02D8091DA058083DFDB3E
S11356C067DE0E941C3E3ADDE091CA05F091CB05ED
S11356D072960590F491E02D309709F440C180E072
S11356E0199580E049C110929705D6DB80E044C14A
S11356F02FEF2093970584FF26C07093EF056093E6
S1135700EE05E0918905EE2309F42BC1E150E09305
S11357108905F0E0EE0FFF1FE456FA4F0190F08187
S1135720E02DF093CB05E093CA0572960590F491B1
S1135730E02D309711F080E019950DDD86DB49DE10
S113574079DE80E019C1FB0170960590F491E02D9B
S1135750309799F0992371F08FEF19958F3F19F4D1
S1135760109297050AC0F7DCFBDCE8DC8FEF80932E
S1135770970503C085E01995E1DC2091CA053091B5
S1135780CB05C9010C96FC0185919591892B09F4EF
S1135790EAC0A0918905A03108F0E7C081E08A0F32
S11357A080938905B0E0AA0FBB1FA456BA4F2D936E
S11357B03C93C9010196FC01849183FF0BC0809145
S11357C0EE059091EF05009729F09093CB05809317
S11357D0CA0508C0F9013C96859195919093CB0533
S11357E08093CA05B8DC31DBF4DD24DE80E0C4C07C
S11357F0C33009F449C028F4C13059F0C23031F142
S1135800B6C0C53009F45EC0C0F0C63009F48AC021
S1135810AEC0482F50E0E0919A05F0919B05249189
S113582030E021503109421753070CF0A2C08F5FBA
S11358308093970531DB80E09FC0882309F49BC0E7
S113584081508093970528DB80E096C061E04ED8B4
S1135850FCD915DB809196058A3011F08E3089F4DD
S113586020919705422F50E0E0919A05F0919B0515
S1135870849190E00197481759071CF42F5F2093F7
S113588097050ADB80E078C06FEF30D8DED9F7DA0D
S1135890809196058A3011F08E3089F42091970515
S11358A0422F50E0E0919A05F0919B05849190E09D
S11358B00197481759071CF42F5F20939705ECDADA
S11358C080E05AC0C2D92091CA053091CB05C901E4
S11358D00E96FC01A591B591109721F10D97FC014D
S11358E0849188232CF48091D2059091D30502C031
S11358F080E090E0A80FB91FF90184918F738B3079
S113590071F44091C3055091C4056091C50570912F
S1135910C6054D935D936D937C93139703C080915B
S1135920DA058C93E091CA05F091CB057296059047
S1135930F491E02D309711F08C2F19958FEF80930F
S1135940970547DD77DD80E017C080E015C080E073
S113595013C080E011C080E00FC080E00DC080E083
S11359600BC080E009C080E007C080E005C080E093
S113597003C080E001C080E0CF91089520E034E0CE
S11359808037930749F034E08037930738F0449721
S11359902F5FA9F780E00895822F089580E008958D
S11359A0CF930E94480C8F3FC9F40FC0822F90E020
S11359B0FC01EC52FA4F1082880F991FFC01E5524A
S11359C0FA4F118210822F5F01C020E0243070F35F
S11359D040E050E067E081E00E94EF16C0E025C09F
S11359E04C2F50E0FA01EC52FA4F80818D3170F463
S11359F024E1829FC001112480599B4F440F551FFD
S1135A00FA01E552FA4F918380830EC0FA01EE0F3A
S1135A10FF1FE552FA4F118210824F5F5F4F4061C2
S1135A2067E081E00E94EF16CF5FC430C8F2CF91E7
S1135A300895CF93DF93643028F50097B9F0FC0103
S1135A4024912F73213091F43196249124FF0EC0B8
S1135A50C62FD0E0FE01EE0FFF1FE552FA4F9183EF
S1135A6080838CDFCC52DA4F88830CC070E0FB015A
S1135A70EE0FFF1FE552FA4F11821082FB01EC5228
S1135A80FA4F1082DF91CF910895E091CA05F09109
S1135A90CB053E96659175918091EE059091EF0549
S1135AA0C8DF0E94C70D80E008950F931F93CF9322
S1135AB0C0E032C00C2F10E0F801EE0FFF1FE552DA
S1135AC0FA4F0190F081E02D309731F03E966591C8
S1135AD075916115710521F48C2F0E94083E1BC03D
S1135AE08C2F0E94CD3D000F111FF801E552FA4F93
S1135AF00190F081E02D70960590F491E02D30979F
S1135B0051F080E01995813811F46FEF01C060E025
S1135B108C2F0E943B3ECF5FC43060F20E941C3E3B
S1135B20CF911F910F910895823049F018F481307C
S1135B3051F00BC0833059F0843019F006C080E076
S1135B40089582E0089583E008958FEF089581E039
S1135B5008950F931F93CF938430D0F5E82FF0E08E
S1135B60EE0FFF1FE552FA4F008111810115110557
S1135B7089F1F80194919F73913071F53196949164
S1135B8094FF2CC0C82F3F960590F491E02D3097D8
S1135B9089F0862F1995823829F460E08C2F0E94B1
S1135BA03B3E06C0813821F46FEF8C2F0E943B3EB0
S1135BB00E941C3EF8013C9685919591009781F0D6
S1135BC0B8016E5F7F4F0E94A62192DC80E009C07D
S1135BD08FEF07C08FEF05C08FEF03C08FEF01C0B9
S1135BE08FEFCF911F910F910895CF93C091C80368
S1135BF08CE00E94F5138091650284FF02C080E26C
S1135C0001C089E00E941F148C2F0E94F513CF91CC
S1135C10089585B1806485B983E180936502E5DFE9
S1135C2080E0089585B18F7B85B910926502DDDF30
S1135C3080E0089585B18F7B85B981E0809365020A
S1135C40D4DF9FB7F89481E006C0EFE4F2E088E285
S1135C508283138280E08111F8CF9FBF0895109250
S1135C60F3071092F0051092F20708959091F3074C
S1135C70E92FF0E0EC50F84F80839F5F9F71809193
S1135C80F005981304C08FEF8093F2070895909362
S1135C90F30708954FB7F89421E011C09091F005EF
S1135CA03091F3078FEF20E0931749F0E92FF0E0EC
S1135CB0EC50F84F80819F5F9F719093F005211104
S1135CC0EDCF4FBF08954FB7F89491E008C03091DD
S1135CD0F0052091F30790E080E0321711F08FEF88
S1135CE001C090E09111F3CF4FBF0895AC019091A2
