:100000000C94F1080C9412090C9412090C94120926
:100010000C9412090C9412090C9412090C941209F4
:100020000C9412090C9412090C9412090C941209E4
:100030000C9412090C9412090C9412090C941209D4
:100040000C9412090C9412090C9412090C941209C4
:100050000C9412090C941A0F0C9412090C941209A6
:100060000C9412090C9479330C94A4330C94120957
:100070000C9412090C9412090C9412090C94120994
:100080000C9412090C9412090C9412090C94120984
:100090000C9485320C94C5320C9412090C941209FC
:1000A0000C9412090C9412090C9412090C94120964
:1000B0000C9412090C9412090C9412090C94120954
:1000C0000C9412090C9412090C9412090C94120944
:1000D0000C9412090C9412090C9450340C9496341C
:1000E0000C941209C21CCD1CD91CF51C121D331D09
:1000F0003E1D491D5E1D741D7C1D8A1D5E1DB71DA4
:10010000C71DEB1D3D1E561E6B1E841E8C1EB11E90
:10011000B11ECA1ED71EC61E321F3A1F851FE71FFB
:1001200011203D206C2074207A20321F82209620DE
:100130007A20D420E120ED2002211B213E214921FB
:100140004F215421672188219B215421AD36C2368D
:10015000B036A136B336B636A436B936A736BC3675
:10016000AA36BF364C6F673A20000000496E6974AA
:1001700069616C69736174696F6E000001004545C7
:100180003A4D6F64756C65000000000000000101CD
:1001900045453A4D6964692D496E00000000000034
:1001A000010245453A4D6964692D4F7574000000A0
:1001B0000000010345453A4D616E2D4D6F64756C2D
:1001C00065000000010445453A5553420000000017
:1001D000000000000000010545453A52656769735B
:1001E0007465720000000000010645453A50726FC8
:1001F0006772616D730000000000010745453A53C6
:100200006F66746B65797300000000000108454556
:100210003A4D69646954687275000000000002007C
:100220004D6F643A4661696C0000000000000000F8
:1002300002014D6F643A556E6B6E6F77496E7000B8
:10024000000003004F56464C3A4D696469496E0000
:100250000000000003014F56464C3A4D6964694F57
:1002600075740000000004004F56464C3A50697007
:10027000654D73670000000005005077723A4F75B6
:10028000707475744F6E0000000054EF6E6520614D
:1002900075730054617374656E2F5265672E206C00
:1002A000EF73656E004D4944492D496E7465726661
:1002B00061636500646972656374204D4944492D2A
:1002C0004F757428696E742920666F72206D616E97
:1002D00075616C3A20002C20426974733A004D6FAE
:1002E00064756C653A00656D707479005265676974
:1002F000737465723A0D0A0052616E676520004D95
:10030000616E75616C3A20004D6F64756C65732089
:10031000636865636B65643A20004D6F64756C6556
:10032000732061737369676E65643A200048617277
:10033000647761726520436F6E6669677572617478
:10034000696F6E0D0A000D0A4D4944492D4F7267C1
:10035000616E2D496E746572666163650D0A004CAD
:100360006F670D0A00656D7074790D0A0073617610
:10037000652E2E2E003C6E6F6E653E00756E6173AD
:100380007369676E656400453A006F6B0061626F68
:100390007274004D494449204E6F74656E2061753A
:1003A00073002B00205265672E67657365747A743D
:1003B00000205265672E696E204B6F6D622E676557
:1003C00073702E004F75743A00496E3A004D656E99
:1003D000F500000000000000000000000000000028
:1003E0000200010000000000000103000000000006
:1003F00000000200020000000000000301030400EE
:1004000000000000030001020000000000010000E5
:1004100000000000000001000000000000000001DA
:1004200000000000000000000800010203040506AF
:10043000070800010203040506070200010000008E
:10044000000000020001000000000000080001029E
:1004500003040506070000000000000000008110F2
:100460003C6E6F6E653E000000000000E806000074
:10047000000001104D656E75000000000000F206DE
:10048000DE060000000001105374696D6D656E009A
:1004900000002E0CD4060000000001104B6F70709D
:1004A000656C323C33000000B606211C00000110D0
:1004B0004B6F7070656C313C33000000AC06241C3F
:1004C000000001104B6F7070656C503C33000000F1
:1004D000A206271C000001104B6F7070656C313C48
:1004E0003200000098062A1C000001104B6F70704B
:1004F000656C503C320000008E062D1C000001107F
:100500004B6F7070656C503C310000008406301CED
:10051000000001104B6F7070656C333C32000000BE
:100520007A06331C000001104B6F7070656C333C11
:10053000310000007006361C000001104B6F707017
:10054000656C333C500000006606391C0000011049
:100550004B6F7070656C323C310000005C063C1CD7
:10056000000001104B6F7070656C323C5000000051
:1005700052063F1C000001104B6F7070656C313CDF
:10058000500000004806421C000001104B6F6D62D5
:10059000696E2031410000003E06882800000110ED
:1005A0004B6F6D62696E20324100000034068B286B
:1005B000000001104B6F6D62696E20334100000036
:1005C0002A068E28000001104B6F6D62696E203480
:1005D0004100000020069128000001105265672E9E
:1005E0006175730000000000160628180000011055
:1005F0004D494449204F666600000000C006912620
:100600000000C110536574757000000000001E0DDD
:10061000CA060000000052656709000000000000E3
:100620004B6234418000000000004B623341800087
:10063000000000004B6232418000000000004B626D
:100640003141800000000000313C5080000000007B
:100650000000323C5080000000000000323C31803D
:10066000000000000000333C50800000000000004B
:10067000333C3180000000000000333C3280000039
:1006800000000000503C3180000000000000503CA1
:100690003280000000000000313C32800000000089
:1006A0000000503C3380000000000000313C3380EB
:1006B000000000000000323C338000000000000019
:1006C0004D4F666600000000000053657475000021
:1006D000000000005374696D0000000000004D65CB
:1006E0006E75000000000000000000000000000027
:1006F000000081004D616E75616C000000006A07AA
:1007000000000000000001005265676973746572A3
:10071000000092070000DD1B000001004D49444924
:100720000000000000005E09000000000000010061
:1007300054617374656E00000000DE0B0000000061
:100740004B1801005374617475730000000042116E
:10075000000000000000C1005365747570000000C7
:1007600000001E0D00000000000081004B6F707043
:10077000656C000000006E08000000000000C10071
:100780005374696D6D656E0000002E0C0000000052
:1007900000008C004B6F6D622E6C61642E000000B7
:1007A000A8050000EA1B0C004B6F6D622E73702EC3
:1007B00000000000A80500004018010061757300EA
:1007C00000000000000000000000E41B00000E001C
:1007D0005265672E312D3800000000006D050000C5
:1007E00000180E005265672E392D313600000000CA
:1007F0006E05000000180E005265672E31372D324D
:10080000340000006F05000000180E005265672ECE
:1008100032352D33320000007005000000180E0044
:100820005265672E33332D3430000000710500000F
:1008300000180E005265672E34312D343800000048
:100840007205000000180E005265672E34392D35F0
:1008500034000000730500000018CA005265672EBE
:1008600035352D363400000074050000001889006D
:10087000323C330000000000000000000F080000C0
:100880002D180900313C330000000000000000007A
:10089000100800002D180900313C32000000000053
:1008A00000000000110800002D180900503C330022
:1008B0000000000000000000120800002D180900D0
:1008C000503C32000000000000000000130800004F
:1008D0002D180900503C310000000000000000000D
:1008E000140800002D180900333C320000000000FD
:1008F00000000000150800002D180900333C3100ED
:100900000000000000000000160800002D1809007B
:10091000333C5000000000000000000017080000F9
:100920002D180900323C31000000000000000000DA
:10093000180800002D180900323C5000000000008B
:1009400000000000190800002D18C900313C5000BB
:1009500000000000000000001A0800002D188100AF
:100960004E6F7465734F66660000000000009126AC
:10097000000001004D494449696E00000000FE0975
:1009800000000000B91901004D4944496F75740019
:1009900000007E0C00000000B51903105468727549
:1009A0002D496E000000000024080000FC17031011
:1009B000546872752D4F7574000000002508000002
:1009C000FC17090041636365707420504300000008
:1009D00030090000B11909004163742E53656E732C
:1009E000650000002E090000B119C90056656C3081
:1009F000344F6666000000002F090000B119810025
:100A000043682E310000000000003E0B0000761706
:100A10000000010043682E320000000000003E0B81
:100A2000010076170000010043682E33000000002B
:100A300000003E0B020076170000010043682E34D0
:100A40000000000000003E0B0300761700000100CC
:100A500043682E350000000000003E0B04007617AE
:100A60000000010043682E360000000000003E0B2D
:100A7000050076170000010043682E3700000000D3
:100A800000003E0B060076170000010043682E3878
:100A90000000000000003E0B070076170000010078
:100AA00043682E390000000000003E0B0800761756
:100AB0000000010043682E313000000000003E0BB2
:100AC000090076170000010043682E313100000054
:100AD00000003E0B0A0076170000010043682E312B
:100AE0003200000000003E0B0B00761700000100F2
:100AF00043682E313300000000003E0B0C007617D7
:100B00000000010043682E313400000000003E0B5D
:100B10000D0076170000010043682E3135000000FB
:100B200000003E0B0E0076170000C10043682E3116
:100B30003600000000003E0B0F0076170000810019
:100B4000536563742E31000000008E0B0000811786
:100B500000000100536563742E32000000008E0B0C
:100B60000100811700000100536563742E330000FB
:100B700000008E0B020081170000C10053656374F2
:100B80002E34000000008E0B0300811700008790B8
:100B90004D616E75616C00000000000026080000C9
:100BA000000004904D69644E6F7465000000000001
:100BB000270800000000068052616E676500000093
:100BC00000000000280800000000C4904D616E4E37
:100BD0006F74650000000000290800000000810813
:100BE000546173746531000000005E040000E51775
:100BF0001B290108546173746532000000005E0413
:100C00000100E5171B290108546173746533000066
:100C100000005E040200E5171B29C10854617374CB
:100C20006534000000005E040300E5171B298120E5
:100C30004D616E2E3300000000000000000095188A
:100C4000000001204D616E2E320000000000000007
:100C500001009518000001204D616E2E310000004A
:100C600000000000020095180000C120506564617A
:100C70006C000000000000000300951800008310C5
:100C8000494949000000000000000000260900005A
:100C900000000310494900000000000000000000AF
:100CA00028090000000003104900000000000000B7
:100CB000000000002A09000000000310500000009E
:100CC00000000000000000002C09000000000310DC
:100CD00049494928696E742900000000270900006D
:100CE00000000310494928696E74290000000000C3
:100CF00029090000000003104928696E74290000CA
:100D0000000000002B0900000000C3105028696E8D
:100D100074290000000000002D090000000081007F
:100D20004D6F64756C6500000000E60D000000006A
:100D300000000100555342000000000000003A0F7F
:100D40000000000000000100506F77657200000095
:100D50000000AA0D000000000000C10045457072AF
:100D60006F6D000000006E0D0000000000008100AB
:100D70004545536176650000000000000000A4278F
:100D80000000010045454261636B75700000000082
:100D900000008C270000C1004545526573746F72D6
:100DA000650000000000982700008100506F776503
:100DB000724F6E00000000000000DF2900000100FB
:100DC000506F7765724F6666000000000000E829EA
:100DD0000000C100502E52657374617274000000EF
:100DE0000000F02900008A004D6F645265616400C4
:100DF0000000000050030000C7190A004D6F64573F
:100E000072697465000000004F030000C7190A08EA
:100E10004D6F644F4B0000000000000048020000CE
:100E2000000001004D6F64546573740000004A0EA9
:100E3000000000000000C1004D6F644173736967DA
:100E40006E00760F00000000BD1981004D6F642E0A
:100E5000300000000000EA0E00006B1700000100E7
:100E60004D6F642E310000000000EA0E01006B1788
:100E7000000001004D6F642E320000000000EA0EF9
:100E800002006B17000001004D6F642E330000005C
:100E90000000EA0E03006B17000001004D6F642E86
:100EA000340000000000EA0E04006B17000001008F
:100EB0004D6F642E350000000000EA0E05006B1730
:100EC000000001004D6F642E360000000000EA0EA5
:100ED00006006B170000C1004D6F642E3700000044
:100EE0000000EA0E07006B17000081005265616484
:100EF000000000000000000000004F1800000B0080
:100F0000577269746500000000000000AD0502170B
:100F10003E170100546573745074726E0000000037
:100F200000006F270000C1004C6F6F705473740095
:100F3000000000000000831800008900416374690C
:100F400076650000000000003A0C0000F119010075
:100F500053656E644C6F6700000000000000CB1901
:100F60000000C100536E64485743666700000000EC
:100F70000000051A000081004D616E2E3300000054
:100F800000007A1000009F17000001004D616E2ED6
:100F90003200000000007A1001009F1700000100DD
:100FA0004D616E2E3100000000007A1002009F1784
:100FB00000000100506564616C00000000007A10C0
:100FC00003009F170000C100526567697374657262
:100FD0000000DA0F04000000000081005365637414
:100FE0002E3100000000CA100000CF1700000100E1
:100FF000536563742E3200000000CA100100CF1741
:1010000000000100536563742E3300000000CA1015
:101010000200CF1700000100536563742E340000F6
:101020000000CA100300CF1700000100536563746D
:101030002E3500000000CA100400CF170000010088
:10104000536563742E3600000000CA100500CF17E8
:1010500000000100536563742E3700000000CA10C1
:101060000600CF170000C100536563742E380000DE
:101070000000CA100700CF17000081005365637499
:101080002E310000000006110000AA170000010028
:10109000536563742E320000000006110100AA1788
:1010A00000000100536563742E3300000000061138
:1010B0000200AA170000C100536563742E340000BB
:1010C000000006110300AA1700008D8052656742D8
:1010D0006567000000000000F607000000000D80BA
:1010E000526567456E64000000000000F7070000CD
:1010F0000000C5804D6F64756C652F4269740000F7
:10110000F8070000000084904E6F74654265670028
:101110000000000032090000000004904E6F74656A
:10112000456E640000000000330900000000C58027
:101130004D6F64756C652F426974000034090000BE
:10114000000081204C6F67000000000000000000DC
:1011500000009822000002404D4944492D496E008C
:101160000000000000001C220000C2404D4944491C
:101170002D4F75740000000000005A220000563008
:101180002E363100010002000201030003010302B8
:1011900000010002010200030103020331003000DC
:1011A00054657874800045786974007E61757300B9
:1011B0007E65696E0045696E80002D002B007F0002
:1011C0007E000900080000000E0E0E0E0000040450
:1011D0000404150E0400040E1504040404000D0A92
:1011E000000011241FBECFEFD1E2DEBFCDBF00E073
:1011F0000CBF12E0A0E0B2E0EEE8F0E700E00BBFC9
:1012000002C007900D92A830B107D9F720E1A8E0FD
:10121000B2E001C01D92A533B207E1F70E94861427
:101220000C9445380C940000FC018FEF9FEF1CC01C
:10123000DF01119620818227282F22952827022E50
:10124000269526952025022E269520252770082EE6
:10125000892F269507942795902D82270694279508
:1012600090258227BA01FD01AB0141505109672B3E
:10127000F9F60895EF92FF920F931F93CF93DF93A8
:10128000CFEFDFEF21C07C012FEFE21AF20A0E94BC
:1012900013389E012827822F82958227082E869553
:1012A00086958025082E869580258770022E232F0F
:1012B000869507948795302D2827069487953025A5
:1012C0002827E901B801C7018B0101501109672BDB
:1012D000D1F6CE01DF91CF911F910F91FF90EF904A
:1012E0000895FC01CA011CC0DF01119620818227EC
:1012F000282F22952827022E269526952025022E76
:10130000269520252770082E892F26950794279546
:10131000902D82270694279590258227BA01FD01FA
:10132000AB0141505109672BF9F60895EF92FF92F6
:101330000F931F93CF93DF93EA0121C07C012FEF1E
:10134000E21AF20A0E941338AE014827842F8295D0
:101350008427082E869586958025082E86958025DB
:101360008770042E452F869507948795502D482722
:101370000694879550254827EA01B801C7018B01DB
:1013800001501109672BD1F6CE01DF91CF911F914A
:101390000F91FF90EF900895CF93DF9382E390E059
:1013A0000E941B38EC0160E370E082E090E062DFB5
:1013B000C817D90781F481E090E00E9413388D347A
:1013C00051F440E350E062E070E082E399E00E9473
:1013D000033880E006C08091080281608093080293
:1013E0008FEFDF91CF910895CF93DF9385E391E065
:1013F0000E941B38EC0160E071E085E390E03ADF89
:10140000C817D90781F484E390E00E941338893427
:1014100051F440E051E065E370E086E298E00E941C
:10142000033880E006C08091080282608093080241
:101430008FEFDF91CF910895CF93DF9383E491E015
:101440000E941B38EC016BE070E088E391E012DF52
:10145000C817D907C1F487E391E00E9413388F348D
:1014600091F448E050E068E371E086E299E00E9480
:10147000033843E050E060E471E08EE299E00E94BE
:10148000033880E006C080910802846080930802DF
:101490008FEFDF91CF910895CF93DF9388E491E0B0
:1014A0000E941B38EC0161E070E086E491E0E2DE2E
:1014B000C817D907A1F485E491E00E941338893652
:1014C00071F486E491E00E9413388093500387E41E
:1014D00091E00E94133880934F0380E006C0809112
:1014E00008028860809308028FEFDF91CF91089502
:1014F000CF93DF9387EF93E00E941B38EC0162E00B
:1015000070E085EF93E0B6DEC817D90781F484EF69
:1015100093E00E941338843551F442E050E065EFC7
:1015200073E084E298E00E94033880E006C0809176
:1015300008028260809308028FEFDF91CF910895B7
:10154000CF93DF938CE491E00E941B38EC0161E0C3
:1015500070E08BE491E08EDEC817D90771F48AE45D
:1015600091E00E941338853541F48BE491E00E94AC
:10157000133880933A0C80E006C08091080288609E
:10158000809308028FEFDF91CF910895CF93DF937F
:1015900061E070E08FE491E06DDEAC0168E170E045
:1015A00080E591E0C3DEEC0188E691E00E941B3803
:1015B000C817D907B1F48EE491E00E941338823540
:1015C00081F48FE491E00E94133880930E0848E183
:1015D00050E060E571E086EF97E00E94033880E01C
:1015E00006C0809108028062809308028FEFDF912D
:1015F000CF910895CF93DF938BEE93E00E941B3839
:10160000EC0160E872E08BE691E034DEC817D907A0
:1016100081F48AE691E00E941338803551F440E865
:1016200052E06BE671E082E699E00E94033880E0C8
:1016300006C0809108028064809308028FEFDF91DA
:10164000CF910895CF93DF9382EF93E00E941B38F0
:10165000EC0164E070E08EEE93E00CDEC817D90771
:1016600051F444E050E06EEE73E083EB95E00E94AD
:10167000033880E006C080910802806880930802E9
:101680008FEFDF91CF91089560E080E090E00E94BD
:101690002F3865E689EF93E00C942F380895CF93A7
:1016A000DF9360E370E082E399E0BEDDEC010E942D
:1016B0002D376DE481E090E00E942F3840E350E048
:1016C00062E070E082E399E00E942038BE0182E38C
:1016D00090E00E944138D8DF0E943B37DF91CF91E4
:1016E0000895CF93DF9360E071E086E298E09CDD9F
:1016F000EC010E942D3769E484E390E00E942F38CA
:1017000040E051E065E370E086E298E00E94203816
:10171000BE0185E391E00E944138B6DF0E943B376D
:10172000DF91CF910895CF93DF9368E070E086E278
:1017300099E07ADDAC0163E070E08EE299E0D1DD02
:10174000EC010E942D376FE487E391E00E942F386F
:1017500048E050E068E371E086E299E00E942038BA
:1017600043E050E060E471E08EE299E00E942038AE
:10177000BE0183E491E00E94413886DF0E943B373E
:10178000DF91CF910895CF93DF9361E070E080E522
:1017900093E04ADDEC010E942D3769E685E491E093
:1017A0000E942F386091500386E491E00E942F3808
:1017B00060914F0387E491E00E942F38BE0188E4D6
:1017C00091E00E94413860DF0E943B37DF91CF916A
:1017D0000895CF93DF9361E070E08AE39CE024DD1D
:1017E000EC010E942D3765E58AE491E00E942F38D4
:1017F00060913A0C8BE491E00E942F38BE018CE49A
:1018000091E00E94413840DF0E943B37DF91CF9149
:101810000895CF93DF9362E070E084E298E004DD06
:10182000EC010E942D3764E584EF93E00E942F388D
:1018300042E050E065EF73E084E298E00E942038D7
:10184000BE0187EF93E00E9441381EDF0E943B37C4
:10185000DF91CF910895CF93DF9361E070E08EE048
:1018600098E0E2DCAC0168E170E086EF97E039DDFA
:10187000EC010E942D3762E58EE491E00E942F3842
:1018800060910E088FE491E00E942F3848E150E00B
:1018900060E571E086EF97E00E942038BE0188E69F
:1018A00091E00E944138F0DE0E943B37DF91CF91FA
:1018B0000895CF93DF9360E872E082E699E0B4DCAC
:1018C000EC010E942D3760E58AE691E00E942F38F6
:1018D00040E852E06BE671E082E699E00E94203831
:1018E000BE018BEE93E00E944138CEDE0E943B3772
:1018F000DF91CF910895CF93DF9364E070E083EBA5
:1019000095E092DCEC010E942D376BE48DEE93E0C4
:101910000E942F3844E050E06EEE73E083EB95E0D8
:101920000E942038BE0182EF93E00E944138ACDE75
:101930000E943B37DF91CF910895B1DED2DEF3DE16
:1019400022DF47DF88DFB5DFD6DF63CF0895CF9290
:10195000DF92EF92FF920F931F93CF93DF93EB01F0
:1019600011C07C012FEFE21AF20A0E9413386E01B7
:101970009FEFC91AD90A682FCE010E942F38A801FB
:10198000E601C7018A0101501109452B51F7DF918A
:10199000CF911F910F91FF90EF90DF90CF9008951E
:1019A0000E942D3740E058E060E078E080E090E071
:1019B000CEDF0C943B3708950E942D3740E058E06D
:1019C00060E070E080E098E0C2DF0C943B3708955F
:1019D00080E00AC0E82FF0E0EE0FFF1FE15DFD4F51
:1019E0009FEF908311828F5F8930A0F3E1E4F2E0F2
:1019F00010821182128213828FEF80935703089511
:101A000082E084BD93E095BD80936E0089EF87BD31
:101A100085B18F7785B984B1806884B9089587E8E6
:101A200080937A0010927B008FE780937C0081E0A6
:101A300080937E0010927F00E9E4F3E010828FEF44
:101A4000818382838093090280E010C0853039F45D
:101A5000E82FF0E0EF5AFC4F96E0908306C0E82FA5
:101A6000F0E0EF5AFC4F9AE090838F5F863070F37E
:101A700008958FEF88B987B982B911B884B38760A8
:101A800084BB83B3876083BB8BB18F778BB98AB1FB
:101A900080688AB980E00EC0E82FF0E0EE0FFF1FEB
:101AA000EE0FFF1FEE0FFF1FE75BFD4F9FEF9183D0
:101AB00090838F5F803280F310924602109245022D
:101AC0000895EADC8F3F51F440E050E060E081E0AF
:101AD00007D78FEF8093500380934F038BB18F779D
:101AE0008BB984B3876084BB84B38B7F84BB85E070
:101AF0008A95F1F7000084B3846084BB90E284B3DC
:101B0000816084BB90FD02C085E501C08AEA88B986
:101B100080B180934803809347038093460380936A
:101B20004503809344038093430384B38E7F84BB37
:101B300085E08A95F1F70000915009F790E20FC017
:101B400084B3816084BB82E08A95F1F700C084B3DE
:101B50008E7F84BB82E08A95F1F700C0915091118D
:101B6000EFCF8FEF8093480290E284B3816084BB13
:101B70008FEF88B920B190FD02C08AEA01C085E5E7
:101B800082272091480282238093480284B38E7F6B
:101B900084BB85E08A95F1F70000915031F7000091
:101BA000000084B3816084BB84B3876084BB84B34A
:101BB0008B7F84BB82E08A95F1F700C084B3846098
:101BC00084BB90E2E1E4F3E08381828384818383B8
:101BD00084B3816084BB8FEF818388B985818483DE
:101BE0008681858380B18683828383838483858392
:101BF000878384B38E7F84BB3897915029F7000088
:101C0000000084B3816084BB84B38D7F84BB18B82B
:101C100085E08A95F1F7000084B3826084BB40912F
:101C2000500380914F03842B90914802891739F01B
:101C300050E0542F4427492B60E082E051C60895BC
:101C4000883008F06AC031E001C0330F8A95EAF7A6
:101C500080E8809346028BB18F778BB984B387601D
:101C600084BB40E01DC020FD03C0832F809501C0D0
:101C70008FEF88B9269582E08A95F1F700C084B38A
:101C80008E7F84BB82E08A95F1F700C084B38160C7
:101C900084BB9F5F02C090E025EA983020F34F5F3D
:101CA0004430C8F390E00FC082E08A95F1F700C09D
:101CB00084B38E7F84BB82E08A95F1F700C084B341
:101CC000816084BB9F5F903278F390E040E050E009
:101CD000BA0117C0440F551F661F771F82E08A950F
:101CE000F1F700C084B38E7F84BB80B1832309F0F9
:101CF000416082E08A95F1F700C084B3816084BBC3
:101D00009F5F903238F3109246028BB180688BB996
:101D1000342F252F862F972F04C030E020E080E05D
:101D200090E0632F722F089590E0E9E4F2E080E004
:101D300006C02FEF21832681822B38969F5F903239
:101D4000C0F3909150038923089510924602809128
:101D5000460281FFFCCF109246028091460281FF2D
:101D6000FCCF089581E0809345029FB7F89406C0A8
:101D7000EFE2F2E088E28283138280E08111F8CF03
:101D80009FBF089580914502813031F5CDDF8111EB
:101D900014C085B1806485B982E1809345029FB704
:101DA000F89481E006C0EFE2F2E081E082831382E2
:101DB00080E08111F8CF9FBF08959FB7F89481E02C
:101DC00007C0EFE2F2E08CE0828382E0838380E070
:101DD0008111F7CF9FBF08958231B1F4A5DF811142
:101DE00004C084E1809345020BC0482F50E060E0BE
:101DF00085E076D585B18F7B85B980E880934502F3
:101E00008FEF8093310208958FEF80933102089510
:101E100090E00DC0943050F4E92FF0E0811102C041
:101E20002AE001C026E0EF5AFC4F20839F5F9630E6
:101E300088F308951F920F920FB60F9211240BB6DC
:101E40000F92EF92FF920F931F932F933F934F9315
:101E50005F936F937F938F939F93AF93BF93CF9332
:101E6000DF93EF93FF9385B1806885B98091470236
:101E70008F5F809347028370813009F458C138F036
:101E8000823009F4A5C1833009F4C9C101C280912F
:101E9000090281111AC190917A0096FD16C1282F6E
:101EA00030E0F901EE0FFF1FE20FF31FEE0FFF1FEF
:101EB000E75BFC4F9181409179004183491710F411
:101EC000941B03C0542F591B952F943008F0FDC06C
:101ED00081110EC0423270F04F3370F0483670F00E
:101EE000463970F04F3B70F0483E70F4C6E00DC0CC
:101EF000CFEF0BC0C4E009C0C3E007C0C5E005C018
:101F0000C1E003C0C2E001C0CFEFF901EE0FFF1F37
:101F1000E20FF31FEE0FFF1FE75BFC4FD281DC17D0
:101F200009F448C0DF3F19F0CF3F09F0CFEFF901C6
:101F3000EE0FFF1FE20FF31FEE0FFF1FE75BFC4FDB
:101F4000C283DF3FF9F4C901880F991FFC01E20F3A
:101F5000F31FEE0FFF1FE75BFC4F15821482FC019D
:101F6000E20FF31FEE0FFF1FE75BFC4F1382EC2F16
:101F7000F0E0E05BFC4F808180FFA7C08C2F0E94C7
:101F80000C2AA3C0ED2FF0E0E05BFC4F808181FFC5
:101F90009CC0F901EE0FFF1FE20FF31FEE0FFF1FB2
:101FA000E75BFC4F8381837009F08FC08D2F0E9407
:101FB0000C2A8BC0CF3F09F488C0F901EE0FFF1F38
:101FC000DF01A20FB31FAA0FBB1FA75BBC4F149664
:101FD0008D919C911597019615969C938E931497CD
:101FE000FD01848195818B349105A9F4ED2FF0E0FA
:101FF000E05BFC4F808182FF0EC08C2F80680E94C6
:102000000C2AE091090286E0E89FF0011124E75BC9
:10201000FC4F82E08383ED2FF0E0E05BFC4F80819A
:1020200083FF53C08091090290E0FC01EE0FFF1F77
:10203000E80FF91FEE0FFF1FE75BFC4F2381211113
:102040001EC0FC01EE0FFF1FE80FF91FEE0FFF1F70
:10205000E75BFC4F2481358122333105B1F526E061
:10206000289FF001299FF00D1124E75BFC4F81E0D0
:102070008383158214828C2F0E940C2A26C0FC01B7
:10208000EE0FFF1FE80FF91FEE0FFF1FE75BFC4F7E
:1020900023812130D1F426E0289FF001299FF00D03
:1020A0001124E75BFC4F248135812C30310569F424
:1020B00026E0289FF001299FF00D1124E75BFC4FDB
:1020C000158214828C2F0E940C2A809109028F5F46
:1020D00080930902843010F0109209028091090265
:1020E00081110CC090E0FC01EE0FFF1FE80FF91FFB
:1020F000EE0FFF1FE75BFC4F808101C08FE1982F3F
:102100009F71906690937C00EBE7F0E020818072F5
:1021100090E09595879595958795922F9F7D892B32
:102120008083EAE7F0E0808180648083B1C08091A1
:102130004602803809F4ACC084B3876084BB84B3A2
:102140008B7F84BB20914F032095E2E0EA95F1F765
:1021500000C084B3846084BB90E2E1E4F3E0838157
:1021600082838481838384B3816084BB8181822B59
:1021700088B9858184838681858380B1868384B391
:102180008E7F84BB3897915051F70000000084B3D4
:10219000816084BB84B38D7F84BB80914602826062
:1021A0008093460218B88BB180688BB984B3826083
:1021B00084BB6EC0808181508E3F38F421812F5FB7
:1021C000253010F0808320E0218332969F5F03C08A
:1021D00090E0EFE2F2E0993068F3E1E4F2E0808130
:1021E0008F5F80838A3F09F053C08FEF809357033E
:1021F000108281818F5F81838C3308F449C0118202
:1022000082818F5F82838C3308F442C01282838183
:102210008F5F83838436E0F11092440239C080914D
:1022200046028038A9F1E0905003F12C09E412E055
:102230002CC0F801C28183819C2F9823C82B8481F4
:102240009823C82B25819223C22B86819823C82BE3
:10225000D781CD23C92BC7838D2F80958C238E21C9
:1022600021F09F2D90620E944C2AC095CD238C2F87
:102270008E2119F09F2D0E944C2A085F1F4F8091DC
:102280004602816080934602F394FFE1FF1588F6D1
:1022900085B18F7785B9FF91EF91DF91CF91BF9194
:1022A000AF919F918F917F916F915F914F913F91EE
:1022B0002F911F910F91FF90EF900F900BBE0F90F9
:1022C0000FBE0F901F9018958FEF82B985B988B90E
:1022D0008BB98EB981BB84BB8093020180930501C9
:1022E0008093080180930B018AB180688AB98BB111
:1022F0008F778BB984B1806484B985B18F7B85B9C0
:102300000895882334F4E2E0F1E0908190619083B5
:1023100005C0E2E0F1E090819F7E908386FF06C0D9
:10232000E2E0F1E090819860908305C0E2E0F1E0A6
:102330009081977F908385FF04C09EB198609EB97D
:1023400003C09EB1977F9EB984FF04C084B38062AE
:1023500084BB03C084B38F7D84BBE2E0F1E0808165
:102360008064808385E08A95F1F7000080818F7B0F
:10237000808385E08A95F1F700000895CF93C82FF8
:10238000E2E0F1E080818062808380818F7B8083C6
:102390008C2FB7DF8C2F8295807FB3DF8FEF90E09B
:1023A0000197F1F700C00000CF910895CF93C82F97
:1023B000E2E0F1E080818F7D808380818F7B80836C
:1023C0008C2F9FDF8C2F8295807F9BDFC150C23086
:1023D00038F48FE097E20197F1F700C0000006C0E3
:1023E0008FEF90E00197F1F700C00000CF910895C2
:1023F000E1E0F1E08081806180838081886080837A
:102400008DB188608DB983B3806283BB8081806425
:1024100080838081806280832FEF81EE94E0215061
:1024200080409040E1F700C00000E2E0F1E08081F0
:102430008F7D808380818F7B808380E362DF8FE16B
:102440009EE40197F1F700C0000080E35ADF8FE1BE
:102450009EE40197F1F700C0000080E352DF8FE1B6
:102460009EE40197F1F700C0000088E24ADF8FEF99
:1024700090E00197F1F700C0000088E297DF88E064
:1024800095DF81E093DF86E091DF8CE08FCF0895C8
:102490008093A80380588ACF08951092A80381E002
:1024A00085DF80E0E8E5F3E004C090E290838F5F91
:1024B00031968035D0F30895843198F090EC980FE0
:1024C000943110F48C5208959CEE980F943110F4CE
:1024D0008C5E08959CEA980F943110F48851089509
:1024E0008FEF0895CF93DF93D82FC091A8038C2F3F
:1024F000E3DF8F3F31F1D13A81F0D03881F0D53A26
:1025000081F0DA3081F0D23E81F0D53F81F0DF3EBC
:1025100081F0D13E81F09D2F0FC090E20DC090E27E
:102520000BC094E109C095E107C093E105C092E1B9
:1025300003C091E101C090E1E82FF0E0E85AFC4FC0
:102540009083CF5FCF77C093A8038D2F17DFDF91E4
:10255000CF910895CF93DF93FC01892B19F407C025
:10256000C1DFFE01EF01219680818111F9CFDF915A
:10257000CF910895CF93DF93FC01892B19F407C005
:10258000B1DFFE01EF01219684918111F9CFDF9136
:10259000CF91089582ED93E0909365058093640553
:1025A00090936305809362050895809162059091F0
:1025B000630520916405309165058217930748F003
:1025C000821B930B959587959DEC899F802D1124F7
:1025D000089580579E4F821B930B959587959DEC90
:1025E000899F802D11240895CF93C82FDEDFC8174F
:1025F000F8F440916405509165058C2F90E09C01A2
:10260000220F331F880F991F880F991F880F991F5A
:10261000280F391FCA01820F931F65E0883596077E
:1026200049F040F020593140CA01820F931F02C087
:1026300080E090E0CF910895D7DF0097F1F1FC01A1
:102640003681678120E034C0422F50E0FA01EE0F5E
:10265000FF1FCF01880F991F880F991F880F991F9F
:10266000E80FF91FE659FE4F8491381320C0FA0194
:10267000EE0FFF1FCF01880F991F880F991F880F3A
:10268000991FE80FF91FE559FE4F849168130FC099
:10269000440F551FCA01880F991F880F991F880F73
:1026A000991F480F591FCA0184599E4F08952F5FE3
:1026B000203150F280E090E0089580E090E00895AD
:1026C000CF9373DF1092A903811114C017C08C2F10
:1026D0008BDF009761F0FC012481203251F095815D
:1026E0008C2F953439F48FEF8093A90307C08C2F7A
:1026F00001C08C2FCFEFC80F8111E9CFCF91089582
:102700001F93CF93DF93009709F47BC0162FEC0142
:102710008B81882379F06AEA73E00E945C35BC0102
:102720006F5F7F4F28E6FC0120838A810E945C3521
:10273000DC012FC08A81882379F06AEA73E00E9465
:102740005C35BC016F5F7F4F2DE6FC0120838981E2
:102750000E945C35DC011DC06AEA73E089810E9439
:102760005C35FC0183E780839881990F20E002C0EB
:1027700099512F5F9931E0F7205D2183990F20E077
:1027800002C095502F5F9530E0F7DF011396205D72
:1027900022839C81903451F0903819F0903281F46A
:1027A0000AC0FD0131968AE28C930EC0FD0131967C
:1027B00085EA8C9309C0FD01319680E28C9304C0B8
:1027C000FD0131968FE38C93BF016F5F7F4F8D8149
:1027D00080838E810E949F35BC018F810E949F352E
:1027E000BC016F5F7F4F2DE2FC01208388859985B6
:1027F0000E94D935FC0110821F3F41F01C8360DF2D
:1028000005C0EAEAF3E08DE2808311828AEA93E070
:10281000DF91CF911F910895E0916205F0916305DA
:10282000A1E4B2E09C919083E0916205F091630590
:1028300011969C9111979183E0916205F091630547
:1028400012969C911297928313969C919383258361
:10285000868367835187408780E8848380913A0C20
:102860008F3F81F484E691E00E941B336FEF8091EB
:1028700062059091630544DF0E9463338EED91E120
:102880000E941B3380916205909163050A96909394
:102890006305809362058855954039F030F082EDEC
:1028A00093E09093630580936205209162053091D7
:1028B000630580916405909165052817390779F4BF
:1028C0000A9690936505809364058855954039F084
:1028D00030F082ED93E09093650580936405089550
:1028E00025E49ADF8FEF8093A9030895CF93C62F35
:1028F0007BDE009719F06C2F03DF06C0EAEAF3E0F5
:102900008DE280831182CF01CF910895DDDC42DE1C
:102910000E9431330E94052A73D85AD880D8A9D88A
:102920000E942632CED80E94C22D0E94022E0E9402
:10293000972A0E940B2B0E94932E0E94A6280E9489
:102940009D0C1092C20554DD0E94F934A6DD83E48B
:102950009FDD85EA92E00EDE8BE19ADD8EE791E164
:1029600009DE78942FEF87E99AE321508040904068
:10297000E1F700C000000E94D4338FDDF3D98FEF60
:102980008093F307809367058EEF80936605DFEFF2
:102990002091F20B3091F30B8091ED0B9091EE0BA7
:1029A0002817390779F00E943334C82F80936605C1
:1029B0000E94FE328FE78C0F863020F480E88C0F67
:1029C0000E940C2A0E94392A882309F442C00E94DE
:1029D000202AC82F863861F40E94F1310E94F42F1A
:1029E0000E94252D0E948D2A8AE892E00E94CE271F
:1029F000809167058F3FF1F48C2F8F73C53061F4A0
:102A000060E070E080E090E040D70E940A241092DD
:102A1000670580E0FDD91DC09FEF980F9430C8F482
:102A20000E946A296C2F0E947F29809367050E946B
:102A30002B290FC08091C205811106C08C2F0E94E6
:102A400011248093670505C08DEF8093A6050E9431
:102A50009926809167058F3F51F4DF3F49F40E942A
:102A600058230E942B298FEFD3D9D0E001C0DFEF8C
:102A700080913D02811109C0C091A8030E94BD2729
:102A80008C2F06DD8FEF80933D0280913B028111F8
:102A90000AC08091C205882319F00E94992603C0BC
:102AA0008FEF80933B028091310281111AC06AD965
:102AB0000E94CB29809167058F3F99F4C091A803AC
:102AC00084E1E6DC80914502813021F483E992E0E3
:102AD00051DD05C0823119F484E10E94FD368C2F4E
:102AE000D7DC809166059FE7980F963010F08E3FF7
:102AF00009F5809107108F3F31F48091A803DCDC49
:102B00000E94FD3303C08FE70E94FD3381E80E94DD
:102B1000FD33C0E0E8E5F3E008C08F010F5F1F4F11
:102B200080810E94FD33CF5FF801C035B0F380E8AB
:102B30000E94FD338FEF809366050E940B320E9446
:102B4000FE2FC091A803809103028F3F91F180E096
:102B50009FDC809101028F3F69F4809102020E9404
:102B6000DA368FE3BFDC809103020E94893680E26F
:102B7000B9DC0CC0809103020E9489368EE7B2DC7A
:102B8000809101020E94EB3680E2ACDC8C2F80DC6D
:102B90008FEF809303029FB7F89481E006C0EFE2C5
:102BA000F2E082E38087118680E08111F8CF9FBF39
:102BB0002CC0809100028F3FD9F080E069DC80E773
:102BC00091DC809100020E9442358EE78BDC8FEF12
:102BD000809300029FB7F89481E006C0EFE2F2E034
:102BE00082E38087118680E08111F8CF9FBF0DC0FE
:102BF00080913702811109C04BDC86E00E94FD36CE
:102C00008C2F46DC8FEF80933702809105028F3F37
:102C1000F9F08FE03DDC809104020E94EB368EE7F4
:102C200061DC809105020E9489368C2F31DC8FEFA8
:102C3000809305029FB7F89481E006C0EFE2F2E0CE
:102C400082E38287138680E08111F8CF9FBF38C06E
:102C5000809131098F3F31F18FE01ADC82E542DC4F
:102C6000809131098F770E94423580913109882304
:102C700014F088E001C089E035DC80E233DC8C2F81
:102C800007DC8FEF809331099FB7F89481E006C08D
:102C9000EFE2F2E082E38287138680E08111F8CFD1
:102CA0009FBF0EC08091390281110AC08FE0F0DB16
:102CB00085E00E94FD368C2FEBDB8FEF809339028D
:102CC000809157038F3F09F07EC010925703F09018
:102CD000A803C0910710CF3F11F40E9427378091BD
:102CE0004402882359F08091420280FD0EC00F2ECD
:102CF000FAE3EF2EF02D04E412E00CC00F2EFAE3FD
:102D0000EF2EF02D03E412E005C06894EE24E5F800
:102D100004E412E087E0BCDBF80180810E944235C8
:102D20008E2DE0DBF801319780810E944235409181
:102D30007E0C442331F050E060E083E0D1DD10925E
:102D40007E0C4091830D442331F050E061E083E03C
:102D5000C7DD1092830D8091450284FF02C080E29E
:102D600001C089E0BFDB8091A9038F3F11F485E4A6
:102D700001C080E2B7DB8F2D8BDBCF3F11F40E94C7
:102D80002037809137028F3F69F49FB7F89481E034
:102D900006C0EFE2F2E08DE78087118680E08111C6
:102DA000F8CF9FBF809139028F3F69F49FB7F894A5
:102DB00081E006C0EFE2F2E08DE78287138680E0D3
:102DC0008111F8CF9FBF8091F4078F3F39F41092A3
:102DD000F40740E050E060E084E082DD9091370C41
:102DE0008091820D981721F00E9470320E948730E6
:102DF0000E94832A8F3F09F0CBCD0E946E2A0E9449
:102E00001B31C6CD1092AD051092AE051092AF05E4
:102E10001092B00581E090E00090780502C0880F24
:102E2000991F0A94E2F7482F30E0E1E4F3E022C072
:102E30008091AD059091AE05A091AF05B091B00520
:102E4000880F991FAA1FBB1F8093AD059093AE05F5
:102E5000A093AF05B093B0052181242349F0816090
:102E60008093AD059093AE05A093AF05B093B005E8
:102E700038973F5F3032E0F280E008954091AD0531
:102E80005091AE056091AF057091B005853009F5A0
:102E9000A1E0B0E00090780502C0AA0FBB1F0A9421
:102EA000E2F73A2F90E0E1E4F3E011C0772324F455
:102EB0008181832B818305C021818A2F8095822384
:102EC0008183440F551F661F771F38979F5F90328D
:102ED00068F380E00895E091A905F091AA053E9677
:102EE000859195918093780580E00895E091A905FA
:102EF000F091AA053E96859195918093A70580E073
:102F00000895E091A905F091AA053E962591359185
:102F10002093B7058091A7058F7090E02370880FEC
:102F2000991F880F991F820F911D880F991F880F75
:102F3000991F9093B2058093B10580E00895E091C8
:102F4000A905F091AA053E96859195918093770504
:102F500080E00895E091A905F091AA053E9685913B
:102F600095918093B705209177052F7030E083709D
:102F700090E0A901440F551F240F351F220F331F66
:102F8000220F331FAC01440F551F840F951F820F72
:102F9000931F9093B2058093B10580E00895E0916E
:102FA000A905F091AA053E96859195918093B70564
:102FB000877090E09C01220F331F820F931F909324
:102FC000B2058093B10580E00895E091A905F091E4
:102FD000AA053E9685919591843060F4FC01FF2707
:102FE000EE0FFF1FE654FA4F808191819093CE053A
:102FF0008093CD0580E008950E94090C80E008953B
:103000001F93CF93DF938630F1F0E091A905F09103
:10301000AA053E960590F491E02DCF018D5695407E
:10302000880F880F880FD081C0E00BC011E0180F07
:103030006D2F661F6627661F0E94582CDD0FCF5F1D
:10304000812FC83098F380E0DF91CF911F910895D0
:1030500081110E94252D80E00895E091A905F0914D
:10306000AA053E96859195918F509840FC01FF27C7
:10307000E15FF74F208121110E94992A80E0089595
:10308000863039F08091A805803418F46FEF0E94E3
:10309000322D80E008950E947B0C80E00895CF924D
:1030A000DF92EF92FF9281E090E00090780502C0FD
:1030B000880F991F0A94E2F7282F90E0E1E4F3E0EB
:1030C000C12CD12C76010BC0CC0CDD1CEE1CFF1CDE
:1030D0008681822311F06894C0F838979F5F903200
:1030E00098F38EE1D5D9C0920910D0920A10E092DF
:1030F0000B10F0920C100E941D3580E0FF90EF90B5
:10310000DF90CF9008958EE1C3D9809178050E9419
:10311000200E6093091070930A1080930B10909307
:103120000C100E941D3580E00895CF938F3F09F069
:1031300077C080930E0210920D02E091A905F091E4
:10314000AA053E968591959180937705843010F07D
:103150001092770520E039C08091770590E0E22F4A
:10316000F0E0DF01AA0FBB1FAD014E0F5F1FDC01B6
:10317000AA0FBB1FA80FB91FAA0FBB1FAA0FBB1F07
:10318000A40FB51FAE5CB64F3C9140910E023417B0
:1031900010F430930E02AF01440F551FE40FF51FDA
:1031A000AC01440F551F840F951F880F991F880F7E
:1031B000991FE80FF91FEE5CF64F818190910D0287
:1031C000981710F480930D022F5F243028F280911D
:1031D0000E0288234CF48EE15BD98CE793E0CAD9C8
:1031E0008FEF80939F0504C080939F0510920C027F
:1031F00066EA71E180E00E94493765EB71E181E0A8
:103200000E9449376AEB71E182E00E9449376CEB1A
:1032100071E183E00E9449370E949837CFEF71C077
:1032200060919F056F3F09F461C08130D9F48091AE
:103230000D02681708F05CC040E0809177050E949D
:10324000102F60919F056F5F60939F0580910C0226
:10325000813009F04FC041E0809177050E94102F26
:10326000CFEF4FC08430D1F480910E02861708F062
:1032700043C040E0809177050E94102F60919F0528
:10328000615060939F0580910C028130B9F541E057
:10329000809177050E94102FCFEF33C0833091F4D7
:1032A00080910C02811104C081E080930C0202C065
:1032B00010920C0240910C02809177050E94102F11
:1032C000CFEF1FC0823011F0863039F440E080919A
:1032D00077050E94102FC0E014C0853089F440E0CB
:1032E000809177050E94102FC0E00BC0C0E009C09C
:1032F000CFEF07C0CFEF05C0CFEF03C0CFEF01C0C6
:10330000CFEFCF3F59F580919F058F3F29F18EE197
:10331000BFD880919F050E94893680E2E3D88091D2
:103320000C02811107C081E6DDD885E7DBD883E791
:10333000D9D806C085E6D6D889E6D4D88EE6D2D8C4
:1033400061E080910C02811101C060E081E00E9487
:10335000B73781110E9498378EE19AD88C2FCF9180
:1033600008950E94930B80E008950E94930B80E0E3
:1033700008950E94710B80E008950E944F0B0E94F7
:10338000F12A0E942B0C0E943C2E80E008950E949E
:10339000C30B80E00895CF938FE593E00E941B3329
:1033A00004D9811117C085E693E00E941B3316C033
:1033B0006FEF8C2F9BDA0E9463338EED91E10E94B8
:1033C0001B338C2F39D90E941B338EED91E10E9463
:1033D0001B338C2FCFEFC80F8111EACF80E0CF9144
:1033E00008950E94E90B80913A0C8F3F61F486E4C6
:1033F00093E00E941B338EE791E10E941B338EED18
:1034000091E10E941B3380E008959F92AF92BF929A
:10341000CF92DF92EF92FF920F931F93CF93DF93A0
:103420008DE293E00E941B330E942D338AE193E0EA
:103430000E941B336DE070E1809150030E949F3524
:1034400022E7FC012083BC016E5F7F4F20E22183D5
:1034500080914F030E949F3527E7FC0120838DE078
:1034600090E10E9463330E942D3388E093E00E9434
:103470001B336DE070E1809148020E949F358DE022
:1034800090E10E9463330E942D330E942D33E12C82
:10349000D1C08FEF92E00E941B336DE070E18E2D62
:1034A0000E9452368DE090E10E9463330E942D33DA
:1034B000F12CA4C088EF92E00E941B3380E38F0DB3
:1034C0000E94FE328AE30E94FE3280E20E94FE32B7
:1034D0000E2D10E0CF2CD12CE601CC0FDD1FCE013C
:1034E0008C0D9D1DE801CC0FDD1FC00FD11FCC0F2F
:1034F000DD1FCC0FDD1FC80FD91FCE5CD64F6DE08E
:1035000070E188810E949F35BC016F5F7F4F0F2E55
:10351000FEE2BF2EF02DFC01B08289810E949F3512
:10352000BC016F5F7F4FFC01B0828A810E949F3592
:10353000FC0180E280839DE3918382838DE090E1B2
:103540000E946333888188232CF486EE92E00E94E7
:103550001B3351C06DE070E10E94F635BC016F5F16
:103560007F4F0F2EFDE29F2EF02DFC019082F60181
:10357000EE0FFF1FCE0EDF1E5801AA0CBB1CE5018B
:10358000C00FD11FCC0FDD1FCC0FDD1FCC0DDD1DFB
:10359000CE5CD64F89810E94F63520E2FC01208363
:1035A00011828DE090E10E9463338EED92E00E94E3
:1035B0001B338A81829586958770805D0E94FE32DA
:1035C00086ED92E00E941B338A816DE070E18F717D
:1035D0000E945C35BC016F5F7F4FFC0190828A8145
:1035E000998128818F71890F821B0E945C358DE043
:1035F00090E10E9463330E942D33F394F3E0FF15B2
:1036000008F058CF84EB92E00E941B33EE2DF0E0DF
:10361000EE0FFF1FEA5DF64F6DE070E181810E94C1
:10362000B7358DE090E10E9463330E942D330E94F4
:103630002D33E39483E08E1508F02BCF8CEE92E0CF
:103640000E941B33F12C94C088EF92E00E941B3340
:1036500080E38F0D0E94FE328AE30E94FE3280E2F8
:103660000E94FE32CF2DD0E08E01000F111F0C0FF3
:103670001D1F0A50184F6DE070E1F80180810E9413
:103680009F35BC016F5F7F4F0F2EFEE2EF2EF02DB6
:10369000FC01E082F80181810E949F35BC016F5FCF
:1036A0007F4FFC01E082F80182810E949F35FC017E
:1036B00080E280839DE39183828313828DE090E199
:1036C0000E946333F80180818F3F29F486EE92E0F7
:1036D0000E941B334AC0EDE0F0E192E590839EE248
:1036E00091836FE070E18F5F0E947835BC016F5F5E
:1036F0007F4F1DE2FC011083CE01880F991FC80F78
:10370000D91FCA50D84F89818F5F0E94783520E237
:10371000FC01208311828DE090E10E9463338EEDE5
:1037200092E00E941B338A81829586958770805D26
:103730000E94FE3286ED92E00E941B338A816DE08A
:1037400070E18F710E945C35BC016F5F7F4FFC019F
:1037500010838A81998128818F71890F821B0E9431
:103760005C358DE090E10E9463330E942D33F39429
:10377000F7E0FF1508F068CF80E0DF91CF911F914F
:103780000F91FF90EF90DF90CF90BF90AF909F9000
:1037900008951F93CF93DF9310E009C0C12FD0E0AD
:1037A000C359DA4F88810E94EE3788831F5F183033
:1037B000A8F3DF91CF911F9108958DE695E00E94C7
:1037C0002C2CE7DF80E008950E94252D80E0F5DFB6
:1037D00080E00895863031F08091A805803410F49F
:1037E0000E94962C80E0E9DF80E00895CF93C62FF9
:1037F0008823D9F0E62FF0E0DF01A15FB74F8C916D
:10380000811108C0862F0E94992A882371F00E9496
:10381000C82F0BC0DF01A15FB74F1C92EE0FFF1F37
:10382000EC57FE4E84910E94C82FEC2FF0E0E15F30
:10383000F74F8081811102C082E801C081E8CF91F9
:10384000089560E0D3CF089561E0D0CF089563E09C
:10385000CDCF089562E0CACF089564E0C7CF089540
:1038600065E0C4CF089566E0C1CF089567E0BECF9C
:10387000089569E0BBCF089568E0B8CF08956AE085
:10388000B5CF08956BE0B2CF089510926805009708
:1038900069F482EF96E09093AA058093A9058DECD8
:1038A00093E090939D0580939C0508C09093AA0592
:1038B0008093A90570939D0560939C058FEF80937D
:1038C000760587ED93E090937A05809379050895C6
:1038D0006EEB71E182E00C944937089560EC71E180
:1038E00083E00C944937089562EC71E181E00C9417
:1038F0004937089560EB71E181E00C9449370895F0
:103900006BEA71E181E00C944937089564EC71E150
:1039100080E00C9449370895809175058A3011F044
:103920008E3031F46CE971E180E00C9449370895F0
:103930006CEB71E180E00C94493708958091750536
:103940008A3011F08E3031F46EE971E181E00C942F
:10395000493708956AEB71E181E00C944937089585
:10396000CF93DF93E09175058E2F90E0FC013297A5
:10397000ED30F10508F0E4C08827EE58FF4F8F4F77
:103980000C94FB378091B905E4ECF5E0982F929503
:103990009F7090838F708183D3C08091B9058031EF
:1039A00020F08FEF8093C405CBC08F5F8093C40558
:1039B000C7C08091B905882334F4E4ECF5E01082A7
:1039C0008FEF8183BDC01092C50508C0E4ECF5E01F
:1039D00091819F5F91838C508093B9058091B90547
:1039E0008C30A0F78093C405ABC08091B905E4EC9E
:1039F000F5E0982F92959695977090838F718093AC
:103A0000B905118208C0E4ECF5E091819F5F9183D4
:103A10008A508093B9058091B9058A30A0F78093C8
:103A2000C6058EC0E4ECF5E01082118208C0E4EC1B
:103A3000F5E090819F5F908384568093B9058091D3
:103A4000B9058436A0F708C0E4ECF5E091819F5FEA
:103A500091838A508093B9058091B9058A30A0F787
:103A60008093C6056DC08091B905843020F08FEF3A
:103A70008093C40565C08093C40562C08091B90578
:103A8000843020F083E08093C4055AC08093C4053D
:103A900057C08091B9058093C40552C0E92FF0E06A
:103AA0008091B905282F221F2227221FEC53FA4F9D
:103AB0002083880F8093B9059F5F01C090E0983004
:103AC00068F33EC08250F0E0DE019D91EC53FA4F66
:103AD0009F709083E82FF0E09881EC53FA4F929515
:103AE0009F709083ED0103C0C2EAD5E088E0EFEF5C
:103AF000E80F8111E7CF24C08091B905E4ECF5E02F
:103B0000982F97709F5F90838695869586958F5F97
:103B1000818316C08091B9058F5F8093B90510929B
:103B2000C40508C0E4ECF5E090819F5F90838A5063
:103B30008093B9058091B9058A30A0F78093C505B7
:103B4000DF91CF9108950F931F93CF93DF93E0916F
:103B500075058E2F90E0FC013297ED30F10508F0ED
:103B60003BC18827E158FF4F8F4F0C94FB3704EC83
:103B700015E0F80180810E94CF34C5E2D2E088834D
:103B8000F80181810E94CF3489831A8225C1E5E240
:103B9000F2E083E4808388E681838091C4058F3FCF
:103BA00029F480E282838DE2838312C08A3048F058
:103BB000C5E2D2E091E39A838A500E94CF348B838E
:103BC00007C0C5E2D2E090E29A830E94CF348B8393
:103BD0001092290201C18091C4058F3F21F090917C
:103BE000C5059F3F59F4E5E2F2E08EE680839FE64B
:103BF0009183828385E683831482EEC09FE5909350
:103C000026028B3021F488E48093250220C0853081
:103C100058F4982F96959D5B9093250280FF17C0CE
:103C200083E28093260213C0282F30E0255031090B
:103C3000359527952A5B2093250280FD03C083E2FA
:103C400080932602283419F481E480932502809120
:103C5000C505811104C08DE6809327020BC08C300E
:103C600030F481500E94CF348093270203C08DE24C
:103C70008093270210922802AFC0C5E2D2E08DE403
:103C8000888304EC15E0F80180810E94CF34898399
:103C900082E48A83F80181810E94CF348B83F8010A
:103CA00082810E94CF348C831D8296C004EC15E083
:103CB000F80180810E94CF34C5E2D2E08883F80108
:103CC00081810E94CF348983F80182810E94CF34A0
:103CD0008A831B8281C08091C405833038F4E5E279
:103CE000F2E093E3981B9083118276C0833031F425
:103CF000E5E2F2E080E5808311826EC0E5E2F2E069
:103D00008DE28083118268C08091C405E5E2F2E013
:103D1000805D8083118260C08091C405811109C0DB
:103D2000E5E2F2E081E4808385E7818383E78283B3
:103D300008C0E5E2F2E085E4808389E681838EE6CF
:103D400082831092280248C0C12FD0E0FE01EC53BC
:103D5000FA4F80810E94CF34CB5DDD4F88831F5F97
:103D600001C010E0183080F337C0822F90E0FC01D2
:103D7000EC53FA4F3081311102C03FE601C039E403
:103D8000FC01EB5DFD4F30832F5F01C020E0283048
:103D900060F322C0A4ECB5E08C91E5E2F2E0805D36
:103DA000808311968C91805C8183128215C0E4EC33
:103DB000F5E090818181292F282B31F4E5E2F2E0B2
:103DC0008DE28083818306C0E5E2F2E0905D90831E
:103DD000805D818310922702DF91CF911F910F9117
:103DE00008950F931F93CF938EE10E944812C0E075
:103DF00005E212E00BC0F8018081882319F00F5F03
:103E00001F4F01C080E20E947212CF5FCA3098F348
:103E1000CF911F910F9108958A301CF488231CF0D4
:103E2000089580E0089589E008950F931F93CF933C
:103E3000DF93C82FE091A905F091AA0531968491EE
:103E4000282F2071E09175058E2F90E0FC013297AC
:103E5000ED30F10508F093C18827E457FF4F8F4FED
:103E60000C94FB37D0E0CC53DA4F8881680F6F7029
:103E7000688385C121111BC0613041F48091C40564
:103E8000803120F081E08093C40579C16F3F49F40F
:103E90008091C40582508F3020F080E18093C4056A
:103EA0006EC1E4ECF5E08081680F608368C1613029
:103EB00041F48091C405803121F48FEF8093C405D3
:103EC0005EC1613041F48091C4058F3F21F481E0EF
:103ED0008093C40554C16F3F41F48091C4058F3F66
:103EE00021F480E18093C4054AC16F3F41F4809181
:103EF000C405813021F48FEF8093C40540C1E4EC08
:103F0000F5E08081680F60833AC18091C5058F3FDD
:103F100009F4C1E0C11116C08091C4058C3050F481
:103F20008B3011F4613041F0811102C06F3F31F0EC
:103F3000680F05C060E003C060E001C06BE0609303
:103F4000C4052BC021110AC0811102C06F3FC1F00E
:103F50008A3011F46130B1F0680F1DC0811102C0C8
:103F60006F3F91F08A3011F4613081F08F3F11F48E
:103F7000613071F08F3F11F46F3F61F0680F0BC03B
:103F80006AE009C060E007C06FEF05C06FEF03C0D3
:103F900060E001C06AE06093C5059091C4059F3F51
:103FA00009F4EDC08091C5058F3F09F4E8C0282FC2
:103FB000220F820F282F220F220F920F0AF0DFC04C
:103FC000E4ECF5E087E080838AE08183D8C0C1110A
:103FD00007C0E4ECF5E08081680F67706083CFC0B4
:103FE000D0E004EC15E0CC53DA4F8881860F14DF63
:103FF0008883F80181819281880F282F220F220F58
:10400000820F890F80322CF083E0818381E08283EC
:10401000B6C088230CF0B3C0E4ECF5E01182128244
:10402000AEC0D0E004EC15E0CC53DA4F8881860FA7
:10403000F3DE8883F8012081818190E0AC01440F98
:10404000551F880F991F880F991F880F991F840F7C
:10405000951FF4E62F9F800D911D1124F8012281F8
:10406000820F911D8F3F910509F00CF488C082E00A
:10407000808385E08183828382C02223A1F0D0E007
:10408000FE01EC53FA4F8081680F6083643019F4AD
:104090008FEF808374C06E3F09F071C0CC53DA4F4C
:1040A00083E088836CC0D0E0FE01EC53FA4F80813E
:1040B000811105C06F3F19F483E0808360C08330B5
:1040C00031F4613021F4CC53DA4F188258C0CC530C
:1040D000DA4F680F688353C0D0E0CC53DA4F888141
:1040E000680F637068834BC0E4ECF5E080818095D5
:1040F000808345C0D0E081E061FD80E0CC53DA4FA1
:1041000088833DC0613041F4D0E0CC53DA4F8881E0
:1041100087708F5F888333C0EC2FF0E0EC53FA4F49
:104120008081825087708F5F808329C0E4ECF5E046
:1041300090818181990F292F220F220F920F890FD1
:10414000C11107C0660F962F990F990F690F680F5D
:1041500001C0680F66231CF061341CF403C060E0EA
:1041600001C060E01092C40506C0E4ECF5E0808177
:104170008F5F80836A506A30C4F76093C505DF9112
:10418000CF911F910F910895E09175058E2F90E0CA
:10419000FC013297ED30F10508F0DAC08827E756C8
:1041A000FF4F8F4F0C94FB37E4ECF5E0808120E16A
:1041B000829FC001112491819F70892B8093B90542
:1041C00008959091C4058FEF890F803118F0909376
:1041D000B90508958093B90508959091C4059F3F4E
:1041E00021F08091C5058F3F21F48FEF8093B905B1
:1041F0000895282F220F820F880F880F890F809330
:10420000B9050895E4ECF5E0808130E2839FC001B8
:10421000112421813281220F422F440F440F240F99
:10422000230F203220F08F618093B9050895822BEF
:104230008093B9050895E4ECF5E02081818190E058
:10424000AC01440F551F880F991F880F991F880FC5
:10425000991F840F951F34E6239F800D911D112413
:104260002281820F911D8F3F910529F020F08FEF61
:104270008093B90508958093B90508958091C40588
:104280008093B905843008F463C08FEF8093B9053B
:1042900008958091C40583708093B9050895809135
:1042A000C4058093B90508951092B90580E00CC04B
:1042B0009091B905990FE82FF0E0EC53FA4F208167
:1042C000920F9093B9058F5F883090F30895109204
:1042D000A2051092A3051092A4051092A505A2EACA
:1042E000B5E088E010C08250F0E0EC53FA4F9081C6
:1042F000E82FF0E0EC53FA4F208130E1239F900D3E
:1043000011249C931196EFEFE80F8111ECCF0895E3
:10431000E4ECF5E020819181892F90E00197880FEE
:10432000991F880F991F880F991F9FEF920F892B54
:104330008093B9050895E4ECF5E080819181880FC0
:10434000282F220F220F820F890F81508093B905E9
:1043500008950F931F93CF93DF938C01D62FC0E066
:104360000CC0F8018491882319F00F5F1F4F02C021
:104370008D2FD0E20E947212CF5FCA3090F3DF918E
:10438000CF911F910F91089580E40E944812E0910F
:104390006805E11107C06AE380919C0590919D0535
:1043A000D8CF0895F0E03197EE0FFF1FE558FA4F90
:1043B000808191816AE30296CCCF0895E091A905AE
:1043C000F091AA0584918F7390E002971CF0C8DAEF
:1043D000BADB07CD0895E0917905F0917A058091D7
:1043E0007605E80FF11D31968491825E0E94481295
:1043F0002091760530E0E0917905F0917A0584917D
:1044000090E001972817390714F468DA03C083E0B5
:104410000E94843780917605882311F059DA03C011
:1044200082E00E94843778DA89DA0C94983708950C
:1044300084E10C94481208950F931F93CF93F8DFF3
:1044400089EC93E00E94BA128091041090910510BB
:104450000E9481368DE20E94721280910410909128
:104460000510049730F48091041090910510C82F26
:1044700001C0C4E00091370C10E00C50144F13C081
:104480008BE0053F180710F0F80102C0E4E1FCE002
:104490008F010150110980810E940635C15019F029
:1044A00080E20E947212C111EBCF80E0CF911F9188
:1044B0000F9108950F931F93CF93BADF84EC93E08D
:1044C0000E94BA1280917F0C9091800C0E948136DC
:1044D0008DE20E94721280917F0C9091800C049763
:1044E00030F480917F0C9091800CC82F01C0C4E003
:1044F0000091EB0B10E00C5E134F13C08CE0053104
:10450000180710F0F80102C0E4E3FCE08F0101504D
:10451000110980810E940635C15019F080E20E9485
:104520007212C111EBCF80E0CF911F910F910895CE
:104530000F931F93CF938F3FA9F40E94D512815000
:1045400080930B0210920A0266EA71E180E00E94F9
:10455000493760EA71E181E00E9449370E9498374B
:10456000CFEF2FC0843049F480910B02882321F1D2
:10457000815080930B02CFEF24C0813091F40091E1
:104580000B0210E00F5F1F4F0E94D51290E008173A
:104590001907A4F480910B028F5F80930B02CFEF79
:1045A00010C0833011F0853059F480910A02809553
:1045B00080930A02CFEF05C0CFEF03C0CFEF01C059
:1045C000C0E0CF3F09F054C033DF0E94D512811103
:1045D00006C085E793E00E94BA12C0E01DC080913A
:1045E0000B028F5F0E9442358AE30E947212809113
:1045F0000A02811108C060E280910B020E947614C9
:104600000E94AA1206C080910B020E941C130E94F5
:10461000BA120E9409370CDF61E080910A028F3FD5
:1046200009F060E081E00E94B73700910B0210E0D2
:104630000F5F1F4F0E94D51290E00817190734F43E
:1046400060EC71E183E00E94493703C083E00E947F
:10465000843780910B02882331F06EEB71E182E0A8
:104660000E94493703C082E00E9484370E94983735
:104670008C2FCF911F910F9108958AE40C944812CA
:104680000895D6DE8AE00C94FD3608958EE10E94EE
:1046900048128AE00C94FD36089580E40E94481286
:1046A0008AE00E94FD36E9DF8AE00C94FD36089529
:1046B000F4DFECDFE6CF0895E091A905F091AA05BB
:1046C00084918F73813011F40FC908953E9605903F
:1046D000F491E02D309759F0893039F480818111BF
:1046E00002C008C908950CC90895FEC8089581E064
:1046F0000C9484370895CF9389E40E944812E09186
:10470000A905F091AA05C491C07CC03839F480E2B3
:104710000E94721282E00E94843704C08FE70E94D8
:104720007212D6D8C03C29F483E00E948437C0E2DC
:1047300002C0D4D8CEE7EAD8BFDF8091A905909116
:10474000AA056C2F029605DE0E94983796DFCF915E
:1047500008958FEF80933D028091A9059091AA055D
:10476000FC012491622F6F73623008F449C09C01F0
:10477000225F3F4FF901459155914115510509F4CB
:104780003FC0E62FF0E031979F01220F331F220F29
:10479000331F220F331FE20FF31FE952FC4FF09338
:1047A0007A05E093790524912093A005FC012591D9
:1047B0002F7320937505249122232CF42091B105A9
:1047C0003091B20502C020E030E0240F351FFC011B
:1047D00084918F738B3071F4F90180819181A28172
:1047E000B3818093A2059093A305A093A405B093F1
:1047F000A50504C0F90180818093B905DFDD07C0FC
:1048000045DF87ED93E090937A058093790554DF37
:1048100034CF089536DF9DDFB7DD6DDF0C94203790
:104820000895CF93C82F0E942037E091A905F091F9
:10483000AA0584918F73813029F0809176058F3F8E
:1048400009F068C13196849186FF02C01ADF15DF36
:104850006091A9057091AA05CB010196FC01849194
:10486000982F907285FF1FC09B01205F3F4FF90179
:104870002591359121153105B1F0409176054F3FD5
:1048800091F08C2FF90119958F3F21F41092760544
:1048900080E004C2F6DEFADEF0DE8FEF809376056C
:1048A0002ADF80E0FBC1C33009F464C028F4C130C2
:1048B00051F0C23031F1DBC1C53009F45BC090F07A
:1048C000C630F9F0D4C1FB018491807C803C09F4AE
:1048D000D0C17496F093AA05E093A9053ADF0BDFE7
:1048E00080E0DCC1FB018491807C803809F4C3C185
:1048F0007497F093AA05E093A9052BDFFCDE80E016
:10490000CDC184FF04C01092CE051092CD05E09178
:104910006805EE23E9F0E150E0936805F0E0EE0F62
:10492000FF1FE558FA4F0190F081E02DF093AA05A2
:10493000E093A90572960590F491E02D309711F05F
:1049400080E019959EDE20DDD6DE03DF80E0A6C183
:1049500080E00E94843781E00E94843782E00E94D8
:10496000843783E00E9484370E9498370E9427375B
:104970008FEF94C1FB0124912F7330E02230310579
:104980000CF448C070960590F491E02D309719F022
:104990008C2F1995DEDE2091A9053091AA05C90159
:1049A0000196FC01849183FD68C1C9010E96FC014A
:1049B00085919591892B09F462C1F90184918F73D6
:1049C000893019F561E080E030DADEDBE091A9059D
:1049D000F091AA053E960590F491E02D8091B905DD
:1049E0008083ECDC69DE0E94983747DEE091A90500
:1049F000F091AA0572960590F491E02D309709F494
:104A000040C180E0199580E049C110927605E3DC51
:104A100080E044C12FEF2093760584FF26C0709379
:104A2000CE056093CD05E0916805EE2309F42BC116
:104A3000E150E0936805F0E0EE0FFF1FE558FA4FF4
:104A40000190F081E02DF093AA05E093A9057296FC
:104A50000590F491E02D309711F080E0199511DE6A
:104A600093DC49DE76DE80E019C1FB01709605908B
:104A7000F491E02D309799F0992371F08FEF19950B
:104A80008F3F19F4109276050AC0FBDDFFDDF5DDDE
:104A90008FEF8093760503C085E01995EEDD2091B8
:104AA000A9053091AA05C9010C96FC018591959143
:104AB000892B09F4EAC0A0916805A03108F0E7C08D
:104AC00081E08A0F80936805B0E0AA0FBB1FA5584C
:104AD000BA4F2D933C93C9010196FC01849183FF49
:104AE0000BC08091CD059091CE05009729F0909351
:104AF000AA058093A90508C0F9013C968591959176
:104B00009093AA058093A905BCDD3EDCF4DD21DE8F
:104B100080E0C4C0C33009F449C028F4C13059F062
:104B2000C23031F1B6C0C53009F45EC0C0F0C63045
:104B300009F48AC0AEC0482F50E0E0917905F091A9
:104B40007A05249130E021503109421753070CF0C7
:104B5000A2C08F5F809376053EDC80E09FC08823F3
:104B600009F49BC081508093760535DC80E096C0C7
:104B700061E05BD909DB22DC809175058A3011F098
:104B80008E3089F420917605422F50E0E09179052E
:104B9000F0917A05849190E00197481759071CF429
:104BA0002F5F2093760517DC80E078C06FEF3DD94A
:104BB000EBDA04DC809175058A3011F08E3089F4CF
:104BC00020917605422F50E0E0917905F0917A0529
:104BD000849190E00197481759071CF42F5F2093A8
:104BE0007605F9DB80E05AC0CFDA2091A905309133
:104BF000AA05C9010E96FC01A591B591109721F166
:104C00000D97FC01849188232CF48091B10590913B
:104C1000B20502C080E090E0A80FB91FF9018491AD
:104C20008F738B3071F44091A2055091A305609170
:104C3000A4057091A5054D935D936D937C93139797
:104C400003C08091B9058C93E091A905F091AA0564
:104C500072960590F491E02D309711F08C2F1995F4
:104C60008FEF8093760547DD74DD80E017C080E02C
:104C700015C080E013C080E011C080E00FC080E06C
:104C80000DC080E00BC080E009C080E007C080E07C
:104C900005C080E003C080E001C080E0CF910895AE
:104CA0000F931F93CF93DF93EC010091A803E09142
:104CB000A905F091AA0584918F73813091F4CE01FA
:104CC0000E94DA3724E130E0A901481B5109CA01EA
:104CD000959587958C5E0E94481283E080939E058F
:104CE00005C084E10E94481210929E051091A8030D
:104CF000CE010E94BA12802F0E9448129FB7F894EA
:104D000081E006C0EFE2F2E084E68687178680E065
:104D10008111F8CF9FBF812FDF91CF911F910F910C
:104D2000089583E993E0BCDF0E94F131A6DC80E0C6
:104D300008958091A6058F3F11F08D3F71F50E9477
:104D40002737A4DC1092F30790E0E9E4F2E007C013
:104D500021818091C205822B818338969F5F90329A
:104D6000B8F38091A6058F3F19F41092A6055BC099
:104D70008DE893E095DF8EEF8093A6059FB7F894BA
:104D800081E006C0EFE2F2E082E08487858780E080
:104D90008111F8CF9FBF71DC46C08E3F41F48FEF89
:104DA0008093F3071092C2050E9420373CC04091C7
:104DB000690550916A0560916B0570916C05769557
:104DC0006795579547954093690550936A05609399
:104DD0006B0570936C05E82FF0E0DF01AA0FBB1F95
:104DE000AA0FBB1FAA0FBB1FA75BBD4F16962C9126
:104DF0009091C205292349F4706840936905509346
:104E00006A0560936B0570936C05EE0FFF1FEE0F44
:104E1000FF1FEE0FFF1FE75BFD4F2181922B918358
:104E20008F5F8093A605E091A605E03228F5F0E0BB
:104E3000EE0FFF1FEE0FFF1FEE0FFF1FE75BFD4F93
:104E40008091C205982F90958181892381838EE17D
:104E50000E9448128091A6050E9442359FB7F8949F
:104E600081E006C0EFE2F2E088E08487158680E00A
:104E70008111F8CF9FBF0895E03281F580916905D7
:104E800090916A05A0916B05B0916C050097A10502
:104E9000B10521F48AE893E003DF0FC08093091085
:104EA00090930A10A0930B10B0930C1087E893E036
:104EB000F7DE0E9448120E941D358EEF8093A605F2
:104EC0009FB7F89481E006C0EFE2F2E082E08487C9
:104ED000858780E08111F8CF9FBFCFCB089581E017
:104EE00090E00090780502C0880F991F0A94E2F7BD
:104EF0008093C2058FEF8093A605109269051092EA
:104F00006A0510926B0510926C0513DF80E008951E
:104F10008AE893E0C5CE08958EE10E9448128DE69E
:104F200093E00E94BA120E94D00CF2DF80E0089554
:104F30008EE10E9448128DE693E00E94BA120E9410
:104F4000DC0CE6DF80E008958DE693E0A9DE8EE1DB
:104F50000E9448120E949D0CDBDF80E00895CF93F1
:104F6000C091A80380E40E94481284E10E94FD36AB
:104F70008C2F0E944812CF91089580919E05833016
:104F800019F47FDB83CB0895811102C07ACB089599
:104F9000813011F47BCB0895E2CF08950F931F93D6
:104FA000CF93DF93EC011091A8030E94DA37082F0A
:104FB00080E40E94481284E190E0801B910995955D
:104FC00087950E94FD36CE010E94BA129091A803E7
:104FD00084E5891B0E94FD36812F0E9448129FB7ED
:104FE000F89481E006C0EFE2F2E084E68687178657
:104FF00080E08111F8CF9FBF82E080939E05DF9112
:10500000CF911F910F9108950F931F93CF93DF932B
:10501000EC011091A8030E94E437082F80E40E945D
:10502000481284E190E0801B9109959587950E9434
:10503000FD36CE010E94AA129091A80384E5891B37
:105040000E94FD36812F0E9448129FB7F89481E09C
:1050500006C0EFE2F2E084E68687178680E08111E1
:10506000F8CF9FBF82E080939E05DF91CF911F9183
:105070000F9108956DE070E10E947835BC0181EBDD
:1050800093E00E946B368DE090E1BECF08950F93C0
:105090001F93CF936DE070E10E947835BC0184EAE4
:1050A00093E00E946B368C010E94A50E84E0C0D371
:1050B000C82F882349F0B80182EA93E00E946B363A
:1050C000BC018C2F0E9478358DE090E19DDFCF915F
:1050D0001F910F910895CF93C62F88232CF46FEF63
:1050E0008C2FC0D4C7DF05C0882319F0862F1ED4AB
:1050F000CEDF8C2F27D5882331F08C2FE8D4811177
:1051000004C081E803C082E801C082E8CF9108951D
:1051100060E0E1CF089561E0DECF089562E0DBCF8B
:10512000089563E0D8CF089520E034E08E359307EA
:1051300049F034E08E35930738F044972F5FA9F794
:1051400080E00895822F089580E00895CF930E9413
:10515000220B8F3FC9F40FC0822F90E0FC01ED5469
:10516000FA4F1082880F991FFC01E654FA4F118202
:1051700010822F5F01C020E0243070F340E050E047
:1051800067E081E00E947014C0E025C04C2F50E021
:10519000FA01ED54FA4F8081863170F424E1829F48
:1051A000C0011124825A9B4F440F551FFA01E65447
:1051B000FA4F918380830EC0FA01EE0FFF1FE65471
:1051C000FA4F118210824F5F5F4F406167E081E0CC
:1051D0000E947014CF5FC430C8F2CF910895CF936E
:1051E000DF93643028F50097B9F0FC0124912F7308
:1051F000213091F43196249124FF0EC0C62FD0E0C7
:10520000FE01EE0FFF1FE654FA4F918380838CDF7F
:10521000CD54DA4F88830CC070E0FB01EE0FFF1F06
:10522000E654FA4F11821082FB01ED54FA4F1082BE
:10523000DF91CF910895E091A905F091AA053E96DE
:10524000659175918091CD059091CE05C8DF0E9442
:105250007B0C80E008950F931F93CF93C0E032C082
:105260000C2F10E0F801EE0FFF1FE654FA4F0190EB
:10527000F081E02D309731F03E9665917591611582
:10528000710521F48C2F0E9484371BC08C2F0E9443
:105290004937000F111FF801E654FA4F0190F081D1
:1052A000E02D70960590F491E02D309751F080E05C
:1052B0001995813811F46FEF01C060E08C2F0E94C6
:1052C000B737CF5FC43060F20E949837CF911F91FB
:1052D0000F910895823049F018F4813051F00BC0DD
:1052E000833059F0843019F006C080E0089582E0E0
:1052F000089583E008958FEF089581E008950F9356
:105300001F93CF938430D0F5E82FF0E0EE0FFF1F0E
:10531000E654FA4F008111810115110589F1F80158
:1053200094919F73913071F53196949194FF2CC0B4
:10533000C82F3F960590F491E02D309789F0862F85
:105340001995823829F460E08C2F0E94B73706C087
:10535000813821F46FEF8C2F0E94B7370E94983765
:10536000F8013C9685919591009781F0B8016E5FA8
:105370007F4F0E94451C4EDA80E009C08FEF07C0C6
:105380008FEF05C08FEF03C08FEF01C08FEFCF917C
:105390001F910F910895CF93C091A8038CE00E94B4
:1053A00048128091450284FF02C080E201C089E07A
:1053B0000E9472128C2F0E944812CF91089585B1DD
:1053C000806485B983E180934502E5DF80E008953C
:1053D00085B18F7B85B910924502DDDF80E00895AD
:1053E00085B18F7B85B981E080934502D4DF9FB77B
:1053F000F89481E006C0EFE2F2E088E28283138253
:1054000080E08111F8CF9FBF08951092D2071092CB
:10541000CF051092D10708959091D207E92FF0E0BF
:10542000ED52F84F80839F5F9F718091CF05981355
:1054300004C08FEF8093D10708959093D207089509
:105440004FB7F89421E011C09091CF053091D20769
:105450008FEF20E0931749F0E92FF0E0ED52F84F7D
:1054600080819F5F9F719093CF052111EDCF4FBF3A
:1054700008954FB7F89491E008C03091CF0520917E
:10548000D20790E080E0321711F08FEF01C090E07A
:105490009111F3CF4FBF0895AC019091F307992379
:1054A000E1F09091D00721E0290F2093D007E92F58
:1054B000F0E0EE0FFF1FE053FA4F518340838091DD
:1054C000F50728130AC09093D0079F3F19F48FEF78
:1054D0008093D0078FEF8093F4070895E091F5074C
:1054E0008091D007E81303C08FEF9FEF089581E00C
:1054F0008E0F8093F507F0E0EE0FFF1FE053FA4F99
:105500008081918108959091F5078091D00798133B
:1055100002C080E008958FEF089580E0EFE0F8E0AA
:1055200003C010828F5F31968C30D8F30895F5CF89
:1055300008958C30E8F4E82FF0E0E15FF74F9FEF3B
:105540009083863010F0865001C08A5FE82FF0E02B
:10555000DF01A15FB74F8C91882359F0DF01A15F74
:10556000B74F1C92EE0FFF1FEC57FE4E849108952B
:1055700080E0089580E090E04BE001C0422F282FAA
:10558000392F220F331F822F932FE42FF0E0E15F9A
:10559000F74F50815F3F09F481602FEF240F4111D5
:1055A000EDCF089540E080FF07C0E42FF0E0E15F19
:1055B000F74F2FEF208305C0E42FF0E0E15FF74FB6
:1055C0001082282F392F36952795822F932F4F5FE2
:1055D0004C3048F3089580E8809346020C94390DCE
:1055E000089520E030E012C0822F90E0FC01EE0F21
:1055F000FF1F8E0F9F1FFC01EA50F84F81818F3FE4
:1056000021F0831710F031E0380F2F5F283060F35E
:1056100030930E0808958FEF8093310920E00EC07B
:10562000822F90E0FC01EE0FFF1FE80FF91FEA50F8
:10563000F84F8FEF8083818312822F5F283080F3B1
:105640000E94C60A8F3F49F410920E0840E050E0D5
:1056500065E081E00E94701401C0C3DF0E94FA0A75
:105660008F3FA1F52AC0832F90E0FC01EE0FFF1FB2
:10567000880F991F880F991F880F991FE80FF91F2E
:10568000EE59F64FE20FF11D10822F5F01C020E0AE
:10569000283048F3832F90E0FC01EE0FFF1F880FA6
:1056A000991F880F991F880F991FE80FF91FEE594E
:1056B000F64F118610863F5F01C030E0303438F37A
:1056C00040E050E066E081E00C9470140895909101
:1056D0000E088917A0F4803490F428E0E6EFF7E094
:1056E0003081831748F09181981730F02281982FEC
:1056F000931B80E0920F08953396215089F78FEF26
:1057000090E0089590E016C04091F807841788F063
:10571000682F70E0E6EFF7E0218130E0240F311DC3
:105720005081251B3109261737071CF0841B850F74
:1057300008959F5F983040F38FEF0895CF93909135
:105740000E08891708F03CC0C62FC1DF811130C098
:10575000292F2F7192959695977041E050E002C0E5
:10576000440F551F9A95E2F730E0F901EE0FFF1F45
:10577000EE0FFF1FEE0FFF1FE75BFD4F918194239C
:1057800011F4C1FD17C0220F331F220F331F220F48
:10579000331FF901E75BFD4F2681422311F0C0FD65
:1057A0000BC0992371F0442361F0C43051F406C05A
:1057B00080E007C081E005C081E003C081E001C056
:1057C00080E0CF91089590910E08891778F57FDFDA
:1057D000811128C0292F2F71392F329536953770B6
:1057E00081E090E002C0880F991F3A95E2F730E01F
:1057F000F901EE0FFF1FEE0FFF1FEE0FFF1FE75B1C
:10580000FD4F4181482381F0220F331F220F331FA8
:10581000220F331FF901E75BFD4F9681892339F091
:1058200081E0089580E0089582E0089580E0089581
:105830001F93CF93DF93182FC0E0D0E006C0612FF5
:105840008C2F7CDF8111DF5FCF5FC034C0F38D2FE1
:10585000DF91CF911F910895EF92FF920F931F93C5
:10586000CF93DF937C01C0E0D0E000E017C01C2F95
:10587000177009F4D0E0D69563E08C2F5FDF8823A2
:1058800011F0D0680F5F173041F4E114F10429F0F2
:10589000F701D083C70101967C01CF5FC03438F394
:1058A000802FDF91CF911F910F91FF90EF9008957E
:1058B000CF9390910E088917B8F5C62F08DF811194
:1058C00033C0E92FEF71929596959770C0FF17C07E
:1058D000F0E021E030E0A90102C0440F551F9A9585
:1058E000E2F7CA01EE0FFF1FEE0FFF1FEE0FFF1FC3
:1058F000E75BFD4F809591818923818315C0F0E09E
:1059000021E030E0A90102C0440F551F9A95E2F74B
:10591000CA01EE0FFF1FEE0FFF1FEE0FFF1FE75B29
:10592000FD4F9181892B8183CF910895BF92CF92B2
:10593000DF92EF92FF920F931F93CF93DF93803408
:1059400008F040C0E82EF12CF701EE0FFF1FC70151
:10595000880F991F880F991F880F991FE80FF91F4B
:10596000EE59F64FB12C10E000E018C06F018FEF38
:10597000C81AD80AC081D0E00DC08C2F8170C0FD3C
:105980000F5F61E0811101C060E0812F91DFC6955A
:105990001F5FDF5FD83088F3B394F60187E08B1583
:1059A00028F7F701EE0FFF1FEE0CFF1CEE0CFF1C9B
:1059B000EE0CFF1CEE0DFF1DEE59F64F8085918514
:1059C000F1DD01C000E0802FDF91CF911F910F9199
:1059D000FF90EF90DF90CF90BF900895CF93DF932B
:1059E000C82FD62F80913009811114C01FC0EC2F11
:1059F000F0E0EE0FFF1FEE0FFF1FE80FF11DEE0F9F
:105A0000FF1FEE0FFF1FEA5DF74F90819F3F39F4B4
:105A10008F5F01C080E0843050F380E001C08FEFE1
:105A20008F3F21F48D2F82DFD093000280912408D4
:105A3000C81308C0809125088F3F21F0806C26D5BF
:105A40008D2F24D5DF91CF910895CF93C0E004C06E
:105A500060E08C2F2DDFCF5F80910E08C817C0F358
:105A6000CF9108950F931F93CF93DF93C82F062FE5
:105A7000803490F4282F30E0C901880F991F220F3D
:105A8000331F220F331F220F331F820F931F8E5994
:105A9000964FE2DE182F01C010E0D0E06BDD9E01D2
:105AA000220F331FCC0FDD1FCC0FDD1FCC0FDD1FEE
:105AB000C20FD31FCE59D64F9987888701110E94F4
:105AC000590C812FDF91CF911F910F910895FF9273
:105AD0000F931F93CF93DF9390E08C01000F111F62
