S00D000050697065312E7372656358
S11300000C947B080C949C080C949C080C949C08FD
S11300100C949C080C949C080C949C080C949C08CC
S11300200C949C080C949C080C949C080C949C08BC
S11300300C949C080C949C080C949C080C949C08AC
S11300400C949C080C949C080C949C080C949C089C
S11300500C949C080C944C0E0C949C080C949C08D6
S11300600C949C080C94592F0C94842F0C949C0889
S11300700C949C080C949C080C949C080C949C086C
S11300800C949C080C949C080C949C080C949C085C
S11300900C945C2E0C949C2E0C949C080C949C0840
S11300A00C949C080C949C080C949C080C949C083C
S11300B00C949C080C949C080C949C080C949C082C
S11300C00C949C080C949C080C949C080C949C081C
S11300D00C949C080C949C080C949C080C949C080C
S11300E00C949C082A1A351A411A5D1A7A1A9B1A1A
S11300F0A61AB11AC61ADC1AE41AF21AC61A1F1B77
S11301002F1B531BA51BBE1BD31BEC1BF41B191C61
S1130110191C321C3F1C2E1C9A1CA21CEC1C4E1DCC
S1130120781DA41DD31DDB1DE11D9A1CE91DFD1DB9
S1130130E11D3B1E481E531E681E811EA41EAF1ED9
S1130140B51EBA1ECD1EEE1E011FBA1E48315D310A
S11301504B313C314E3151313F31543142315731C1
S113016045315A314C6F673A20000000496E69747A
S113017069616C69736174696F6E000001004545C3
S11301803A4D6F64756C65000000000000000101C9
S113019045453A4D6964692D496E00000000000030
S11301A0010245453A4D6964692D4F75740000009C
S11301B00000010345453A4D616E2D4D6F64756C29
S11301C065000000010445453A5553420000000013
S11301D0000000000000010545453A526567697357
S11301E07465720000000000010645453A50726FC4
S11301F06772616D730000000000010745453A53C2
S11302006F66746B657973000000000002004D6F27
S1130210643A4661696C00000000000000000201BD
S11302204D6F643A556E6B6E6F77496E70000000C7
S113023003004F56464C3A4D696469496E0000000C
S1130240000003014F56464C3A4D6964694F75747A
S11302500000000004004F56464C3A506970654D4A
S113026073670000000005005077723A4F75707490
S113027075744F6E0000000054EF6E652061757355
S11302800054617374656E2F5265672E206CEF7392
S1130290656E004D4944492D496E7465726661630B
S11302A065002C426974733A004D6F64756C653A4D
S11302B000656D7074790052616E67653A20004D77
S11302C0616E75616C3A20004D6F64756C657320C6
S11302D0636865636B65643A20004D6F64756C6593
S11302E0732061737369676E65643A2000486172B4
S11302F0647761726520436F6E66696775726174B5
S1130300696F6E0D0A000D0A4D4944492D4F7267FD
S1130310616E2D496E746572666163650D0A004CE9
S11303206F670D0A00656D7074790D0A007361764C
S1130330652E2E2E003C6E6F6E653E00756E6173E9
S11303407369676E656400453A006F6B0061626FA4
S11303507274004D494449204E6F74656E20617576
S11303607300205265672E2067656C6164656E00BA
S1130370205265672E2067657370656963686572CE
S113038074004F75743A00496E3A004D656EF5007D
S11303900000000000000000000000000000020057
S11303A00100000000000001030000000000000044
S11303B0020002000000000000030103040000002A
S11303C00000030001020000000000010000000022
S11303D00000000001000000000000000001000017
S11303E000000000000008000102030405060708DD
S11303F000010203040506070200010000000000DA
S113040000020001000000000000080001020304D3
S113041005060700000000000000000081103C6E8B
S11304206F6E653E000000000000880600000000BA
S113043001104D656E7500000000000092067E06F6
S11304400000000001105374696D6D656E000000BA
S1130450920B74060000000001104B6F7070656C05
S1130460323C3300000056068919000001104B6F1E
S11304707070656C313C330000004C068C19000030
S113048001104B6F7070656C503C330000004206E5
S11304908F19000001104B6F7070656C313C320095
S11304A0000038069219000001104B6F7070656CE3
S11304B0503C320000002E069519000001104B6FCD
S11304C07070656C503C31000000240698190000DF
S11304D001104B6F7070656C333C320000001A06DB
S11304E09B19000001104B6F7070656C333C310038
S11304F0000010069E19000001104B6F7070656CAF
S1130500333C500000000606A119000001104B6F97
S11305107070656C323C31000000FC05A4190000C9
S113052001104B6F7070656C323C50000000F20596
S1130530A719000001104B6F7070656C313C5000BE
S11305400000E805AA19000001104B6F6D62696E86
S1130550203141000000DE059B25000001104B6F97
S11305606D62696E203241000000D405A9250000A7
S113057001104B6F6D62696E203341000000CA05A3
S1130580B725000001104B6F6D62696E2034410085
S11305900000C005C525000001104D494449204F05
S11305A06666000000006006DD230000C11053658C
S11305B07475700000000000320C6A060000000030
S11305C04B6234410000000000004B6233410000E4
S11305D0000000004B6232410000000000004B624A
S11305E03141000000000000313C50800000000058
S11305F00000323C5080000000000000323C31809A
S1130600000000000000333C5080000000000000A7
S1130610333C3180000000000000333C3280000095
S113062000000000503C3180000000000000503CFD
S11306303280000000000000313C328000000000E5
S11306400000503C3380000000000000313C338047
S1130650000000000000323C338000000000000075
S11306604D4F66660000000000005365747500007D
S1130670000000005374696D0000000000004D6527
S11306806E75000000000000000000000000000083
S1130690000081004D616E75616C000000000A0766
S11306A00000000000000100526567697374657200
S11306B00000320700004519000001004D4944497B
S11306C0000000000000FE0800000000000001001F
S11306D054617374656E00000000420B000000005A
S11306E0791601005374617475730000000056108C
S11306F0000000000000C100536574757000000024
S11307000000320C00000000000081004B6F70708C
S1130710656C000000000E08000000000000C1002D
S11307205374696D6D656E000000920B000000004B
S113073000008C004B6F6D622E6C61642E00000013
S11307405505000052190C004B6F6D622E73702E0C
S113075000000000550500006E160100617573006D
S1130760000000000000000000004C1900000E0012
S11307705265672E312D3800000000001A05000074
S113078033160E005265672E392D313600000000F5
S11307901B05000033160E005265672E31372D32CB
S11307A0340000001C05000033160E005265672E4D
S11307B032352D33320000001D05000033160E00C3
S11307C05265672E33332D34300000001E050000BF
S11307D033160E005265672E34312D343800000074
S11307E01F05000033160E005265672E34392D356F
S11307F034000000200500003316CA005265672E3D
S113080035352D36340000002105000033168900EB
S1130810323C33000000000000000000BC07000070
S11308205B160900313C33000000000000000000AA
S1130830BD0700005B160900313C320000000000D7
S113084000000000BE0700005B160900503C3300A6
S11308500000000000000000BF0700005B16090054
S1130860503C32000000000000000000C0070000FF
S11308705B160900503C310000000000000000003D
S1130880C10700005B160900333C32000000000081
S113089000000000C20700005B160900333C310071
S11308A00000000000000000C30700005B16090000
S11308B0333C50000000000000000000C4070000AA
S11308C05B160900323C310000000000000000000B
S11308D0C50700005B160900323C50000000000010
S11308E000000000C60700005B16C900313C500040
S11308F00000000000000000C70700005B16810034
S11309004E6F7465734F6666000000000000DD23BF
S1130910000001004D494449696E0000000062096D
S113092000000000E71701004D4944496F75740049
S11309300000E20B00000000E31709004163742E7D
S113094053656E7365000000D5080000DF17C90009
S113095056656C30344F666600000000D60800000F
S1130960DF17810043682E31000000000000A20A56
S11309700000AD150000010043682E3200000000A5
S11309800000A20A0100AD150000010043682E33E7
S1130990000000000000A20A0200AD1500000100E2
S11309A043682E34000000000000A20A0300AD15C5
S11309B00000010043682E35000000000000A20A78
S11309C00400AD150000010043682E36000000004D
S11309D00000A20A0500AD150000010043682E378F
S11309E0000000000000A20A0600AD15000001008E
S11309F043682E38000000000000A20A0700AD156D
S1130A000000010043682E39000000000000A20A23
S1130A100800AD150000010043682E3130000000CD
S1130A200000A20A0900AD150000010043682E3140
S1130A30310000000000A20A0A00AD150000010008
S1130A4043682E31320000000000A20A0B00AD15ED
S1130A500000010043682E31330000000000A20AA8
S1130A600C00AD150000010043682E313400000075
S1130A700000A20A0D00AD150000010043682E31EC
S1130A80350000000000A20A0E00AD150000C100F0
S1130A9043682E31360000000000A20A0F00AD1595
S1130AA000008100536563742E3100000000F20AD7
S1130AB00000B81500000100536563742E32000075
S1130AC00000F20A0100B8150000010053656374C8
S1130AD02E3300000000F20A0200B8150000C10025
S1130AE0536563742E3400000000F20A0300B81545
S1130AF0000087904D616E75616C0000000000007D
S1130B00D1070000000004904D69644E6F746500C5
S1130B1000000000D20700000000068052616E67EA
S1130B206500000000000000D30700000000C4902E
S1130B304D616E4E6F74650000000000D407000024
S1130B4000008108546173746531000000001C04C6
S1130B5000001C165A2601085461737465320000A3
S1130B6000001C0401001C165A2601085461737409
S1130B706533000000001C0402001C165A26C1083C
S1130B80546173746534000000001C0403001C16D7
S1130B905A2681204D616E2E3300000000000000B3
S1130BA00000C316000001204D616E2E32000000CB
S1130BB0000000000100C316000001204D616E2EEC
S1130BC031000000000000000200C3160000C12034
S1130BD0506564616C000000000000000300C3164F
S1130BE00000831049494900000000000000000093
S1130BF0D108000000000310494900000000000073
S1130C0000000000D20800000000031049000000AA
S1130C100000000000000000D30800000000C31022
S1130C20500000000000000000000000D408000094
S1130C30000081004D6F64756C6500000000FA0CC3
S1130C4000000000000001005553420000000000B5
S1130C5000004E0E0000000000000100506F776598
S1130C60720000000000BE0C000000000000C10083
S1130C70454570726F6D00000000820C000000009A
S1130C8000008100454553617665000000000000C6
S1130C900000F0240000010045454261636B75705B
S1130CA0000000000000D8240000C1004545526542
S1130CB073746F72650000000000E424000081007A
S1130CC0506F7765724F6E000000000000001E2711
S1130CD000000100506F7765724F666600000000E7
S1130CE0000027270000C100502E52657374617202
S1130CF07400000000002F2700008A004D6F64522A
S1130D0065616400000000004E030000F5170A004E
S1130D104D6F645772697465000000004D03000054
S1130D20F5170A084D6F644F4B00000000000000E7
S1130D3046020000000001004D6F645465737400A6
S1130D4000005E0D000000000000C1004D6F644112
S1130D50737369676E008A0E00000000EB17810050
S1130D604D6F642E300000000000FE0D0000A2153F
S1130D70000001004D6F642E310000000000FE0DE4
S1130D800100A215000001004D6F642E3200000026
S1130D900000FE0D0200A215000001004D6F642E3C
S1130DA0330000000000FE0D0300A2150000010046
S1130DB04D6F642E340000000000FE0D0400A215E7
S1130DC0000001004D6F642E350000000000FE0D90
S1130DD00500A215000001004D6F642E36000000CE
S1130DE00000FE0D0600A2150000C1004D6F642E28
S1130DF0370000000000FE0D0700A215000081006E
S1130E0052656164000000000000000000007D16CF
S1130E1000000B00577269746500000000000000B8
S1130E205A05391575150100546573745074726E42
S1130E30000000000000BB240000C1004C6F6F7074
S1130E4054737400000000000000B1160000890013
S1130E50416374697665000000000000D00B000057
S1130E601718010053656E644C6F670000000000A2
S1130E700000F9170000C100536E644857436667C9
S1130E800000000000002B18000081004D616E2E50
S1130E903300000000008E0F0000D6150000010092
S1130EA04D616E2E3200000000008E0F0100D61539
S1130EB0000001004D616E2E3100000000008E0F15
S1130EC00200D61500000100506564616C0000004A
S1130ED000008E0F0300D6150000C100526567693B
S1130EE0737465720000EE0E0400000000008100BF
S1130EF0536563742E3100000000DE0F00000616F7
S1130F0000000100536563742E3200000000DE0F00
S1130F100100061600000100536563742E330000BF
S1130F200000DE0F02000616000001005365637422
S1130F302E3400000000DE0F03000616000001003E
S1130F40536563742E3500000000DE0F040006169E
S1130F5000000100536563742E3600000000DE0FAC
S1130F600500061600000100536563742E37000067
S1130F700000DE0F060006160000C100536563740E
S1130F802E3800000000DE0F070006160000810066
S1130F90536563742E31000000001A100000E1153F
S1130FA000000100536563742E32000000001A1023
S1130FB00100E11500000100536563742E33000045
S1130FC000001A100200E1150000C10053656374AB
S1130FD02E34000000001A100300E11500008D807B
S1130FE0526567426567000000000000A307000027
S1130FF000000D80526567456E640000000000002B
S1131000A40700000000C5804D6F64756C652F4215
S113101069740000A5070000000084904E6F746599
S11310204265670000000000D7080000000004903B
S11310304E6F7465456E640000000000D80800001F
S11310400000C5804D6F64756C652F4269740000A3
S1131050D9080000000081204C6F670000000000E8
S1131060000000000000FE1F000002404D494449FA
S11310702D496E00000000000000821F0000C240E5
S11310804D4944492D4F7574000000000000C01FF5
S1131090000056302E353800010002000201030022
S11310A00301030200010002010200030103020321
S11310B03100300054657874800045786974007E8E
S11310C0617573007E65696E0045696E80002D0050
S11310D02B007F007E000900080000000E0E0E0E9B
S11310E0000004040404150E0400040E1504040492
S11310F004000D0A000011241FBECFEFD1E2DEBFB1
S1131100CDBF00E00CBF12E0A0E0B2E0E6ECF5E6F3
S113111000E00BBF02C007900D92A630B107D9F7CB
S11311202DE0A6E0B2E001C01D92AA34B207E1F7B7
S11311300E946B130C94E1320C940000FC018FEFBD
S11311409FEF1CC0DF01119620818227282F229552
S11311502827022E269526952025022E2695202521
S11311602770082E892F269507942795902D82277E
S11311700694279590258227BA01FD01AB014150C1
S11311805109672BF9F60895EF92FF920F931F937D
S1131190CF93DF93CFEFDFEF21C07C012FEFE21A73
S11311A0F20A0E94AF329E012827822F829582275D
S11311B0082E869586958025082E8695802587702D
S11311C0022E232F869507948795302D2827069481
S11311D0879530252827E901B801C7018B01015003
S11311E01109672BD1F6CE01DF91CF911F910F9199
S11311F0FF90EF900895FC01CA011CC0DF01119615
S113120020818227282F22952827022E269526958D
S11312102025022E269520252770082E892F269515
S113122007942795902D8227069427959025822749
S1131230BA01FD01AB0141505109672BF9F608953C
S1131240EF92FF920F931F93CF93DF93EA0121C094
S11312507C012FEFE21AF20A0E94AF32AE01482756
S1131260842F82958427082E869586958025082EBE
S1131270869580258770042E452F8695079487953B
S1131280502D48270694879550254827EA01B80130
S1131290C7018B0101501109672BD1F6CE01DF91F3
S11312A0CF911F910F91FF90EF900895CF93DF930B
S11312B082E390E00E94B732EC0160E370E082E0E8
S11312C090E062DFC817D90781F481E090E00E94C2
S11312D0AF328D3451F440E350E062E070E087EDCA
S11312E098E00E949F3280E006C0809106028160EF
S11312F0809306028FEFDF91CF910895CF93DF9310
S113130085E391E00E94B732EC0160E071E085E38F
S113131090E03ADFC817D90781F484E390E00E9493
S1131320AF32893451F440E051E065E370E081ED7F
S113133097E00E949F3280E006C08091060282609E
S1131340809306028FEFDF91CF910895CF93DF93BF
S11313508EE391E00E94B732EC0166E070E088E32E
S113136091E012DFC817D907C1F487E391E00E9426
S1131370AF328F3491F444E050E068E371E081EDE2
S113138098E00E949F3242E050E06CE371E085ED0A
S113139098E00E949F3280E006C08091060284603B
S11313A0809306028FEFDF91CF910895CF93DF935F
S11313B083E491E00E94B732EC0161E070E081E4E3
S11313C091E0E2DEC817D907A1F480E491E00E941D
S11313D0AF32893671F481E491E00E94AF32809398
S11313E04E0382E491E00E94AF3280934D0380E08B
S11313F006C0809106028860809306028FEFDF9119
S1131400CF910895CF93DF9387E491E00E94B732A0
S1131410EC0161E070E086E491E0B6DEC817D9071C
S113142071F485E491E00E94AF32853541F486E49D
S113143091E00E94AF328093D00B80E006C080918F
S113144006028860809306028FEFDF91CF910895A2
S1131450CF93DF9361E070E08AE491E095DEAC0124
S113146068E170E08BE491E0EBDEEC0183E691E06F
S11314700E94B732C817D907B1F489E491E00E94F9
S1131480AF32823581F48AE491E00E94AF328093D6
S1131490BB0748E150E06BE471E083EA97E00E9407
S11314A09F3280E006C0809106028062809306022B
S11314B08FEFDF91CF910895CF93DF9386EE93E082
S11314C00E94B732EC0160E872E086E691E05CDEEF
S11314D0C817D90781F485E691E00E94AF328035C0
S11314E051F440E852E066E671E087E099E00E943A
S11314F09F3280E006C080910602806480930602D9
S11315008FEFDF91CF910895CF93DF938DEE93E02A
S11315100E94B732EC0164E070E089EE93E034DEBF
S1131520C817D90751F444E050E069EE73E080E64F
S113153095E00E949F3280E006C080910602806898
S1131540809306028FEFDF91CF91089560E080E0F1
S113155090E00E94CB3265E68FEE93E00C94CB32A0
S11315600895CF93DF9360E370E087ED98E0E6DDC4
S1131570EC010E94C9316DE481E090E00E94CB321D
S113158040E350E062E070E087ED98E00E94BC32F6
S1131590BE0182E390E00E94DD32D8DF0E94D731A1
S11315A0DF91CF910895CF93DF9360E071E081EDF7
S11315B097E0C4DDEC010E94C93169E484E390E062
S11315C00E94CB3240E051E065E370E081ED97E0AA
S11315D00E94BC32BE0185E391E00E94DD32B6DF99
S11315E00E94D731DF91CF910895CF93DF9364E0C8
S11315F070E081ED98E0A2DDAC0162E070E085ED81
S113160098E0F9DDEC010E94C9316FE487E391E0D1
S11316100E94CB3244E050E068E371E081ED98E051
S11316200E94BC3242E050E06CE371E085ED98E04A
S11316300E94BC32BE018EE391E00E94DD3286DF5F
S11316400E94D731DF91CF910895CF93DF9361E06A
S113165070E08EE493E072DDEC010E94C93169E62A
S113166080E491E00E94CB3260914E0381E491E0EA
S11316700E94CB3260914D0382E491E00E94CB3210
S1131680BE0183E491E00E94DD3260DF0E94D73125
S1131690DF91CF910895CF93DF9361E070E080ED07
S11316A09BE04CDDEC010E94C93165E585E491E0E5
S11316B00E94CB326091D00B86E491E00E94CB3241
S11316C0BE0187E491E00E94DD3240DF0E94D73101
S11316D0DF91CF910895CF93DF9361E070E08BEBBE
S11316E097E02CDDAC0168E170E083EA97E083DDEC
S11316F0EC010E94C93162E589E491E00E94CB3299
S11317006091BB078AE491E00E94CB3248E150E04B
S11317106BE471E083EA97E00E94BC32BE0183E689
S113172091E00E94DD3212DF0E94D731DF91CF9128
S11317300895CF93DF9360E872E087E099E0FEDCE0
S1131740EC010E94C93160E585E691E00E94CB324C
S113175040E852E066E671E087E099E00E94BC321E
S1131760BE0186EE93E00E94DD32F0DE0E94D731A6
S1131770DF91CF910895CF93DF9364E070E080E62A
S113178095E0DCDCEC010E94C9316BE488EE93E067
S11317900E94CB3244E050E069EE73E080E695E0CD
S11317A00E94BC32BE018DEE93E00E94DD32CEDE9B
S11317B00E94D731DF91CF910895D3DEF4DE15DF97
S11317C044DF69DF88DFB5DFD6CF0895CF92DF929B
S11317D0EF92FF920F931F93CF93DF93EB0111C00E
S11317E07C012FEFE21AF20A0E94AF326E019FEFE2
S11317F0C91AD90A682FCE010E94CB32A801E6018A
S1131800C7018A0101501109452B51F7DF91CF918E
S11318101F910F91FF90EF90DF90CF9008950E9459
S1131820C93140E058E060E078E080E090E0CEDF4D
S11318300C94D73108950E94C93140E058E060E02B
S113184070E080E098E0C2DF0C94D731089580E026
S11318500AC0E82FF0E0EE0FFF1FE35DFD4F9FEF9E
S1131860908311828F5F8930A0F3EFE3F2E010825E
S11318701182128213828FEF80935503089582E0C0
S113188084BD93E095BD80936E0089EF87BD85B1DB
S11318908F7785B984B1806884B9089587E8809387
S11318A07A0010927B008FE780937C0081E0809324
S11318B07E0010927F00E7E4F3E010828FEF8183D3
S11318C082838093070280E010C0853039F4E82FCA
S11318D0F0E0E15BFC4F96E0908306C0E82FF0E077
S11318E0E15BFC4F9AE090838F5F863070F308953C
S11318F08FEF88B987B982B911B884B3876084BB84
S113190083B3876083BB8BB18F778BB98AB18068CF
S11319108AB980E00EC0E82FF0E0EE0FFF1FEE0F53
S1131920FF1FEE0FFF1FE95BFD4F9FEF9183908335
S11319308F5F803280F31092440210924302089524
S113194035DD8F3F51F440E050E060E081E0AAD6FD
S11319508FEF80934E0380934D038BB18F778BB9B8
S113196084B3876084BB84B38B7F84BB85E08A9512
S1131970F1F7000084B3846084BB90E284B3816097
S113198084BB90FD02C085E501C08AEA88B980B1B4
S113199080934603809345038093440380934303D9
S11319A0809342038093410384B38E7F84BB85E09C
S11319B08A95F1F70000915009F790E20FC084B3C3
S11319C0816084BB82E08A95F1F700C084B38E7F86
S11319D084BB82E08A95F1F700C091509111EFCF5A
S11319E08FEF8093460290E284B3816084BB8FEFD3
S11319F088B920B190FD02C08AEA01C085E582273A
S1131A002091460282238093460284B38E7F84BB56
S1131A1085E08A95F1F70000915031F7000000004D
S1131A2084B3816084BB84B3876084BB84B38B7FBD
S1131A3084BB82E08A95F1F700C084B3846084BBE0
S1131A4090E2EFE3F3E0838182838481838384B330
S1131A50816084BB8FEF818388B98581848386818B
S1131A60858380B18683828383838483858387830C
S1131A7084B38E7F84BB3897915029F7000000000F
S1131A8084B3816084BB84B38D7F84BB18B885E044
S1131A908A95F1F7000084B3826084BB40914E03C1
S1131AA080914D03842B90914602891739F050E0C0
S1131AB0542F4427492B60E082E0F4C50895883010
S1131AC008F06AC031E001C0330F8A95EAF780E874
S1131AD0809344028BB18F778BB984B3876084BBC6
S1131AE040E01DC020FD03C0832F809501C08FEF0F
S1131AF088B9269582E08A95F1F700C084B38E7F79
S1131B0084BB82E08A95F1F700C084B3816084BB12
S1131B109F5F02C090E025EA983020F34F5F443085
S1131B20C8F390E00FC082E08A95F1F700C084B357
S1131B308E7F84BB82E08A95F1F700C084B3816014
S1131B4084BB9F5F903278F390E040E050E0BA01AC
S1131B5017C0440F551F661F771F82E08A95F1F75F
S1131B6000C084B38E7F84BB80B1832309F04160BD
S1131B7082E08A95F1F700C084B3816084BB9F5FE3
S1131B80903238F3109244028BB180688BB9342FB1
S1131B90252F862F972F04C030E020E080E090E0CE
S1131BA0632F722F089590E0E7E4F2E080E006C02E
S1131BB02FEF21832681822B38969F5F9032C0F3CA
S1131BC090914E038923089581E0809343029FB747
S1131BD0F89406C0EDE2F2E088E28283138280E0AA
S1131BE08111F8CF9FBF089580914302813031F570
S1131BF0DADF811114C085B1806485B982E18093F4
S1131C0043029FB7F89481E006C0EDE2F2E081E080
S1131C108283138280E08111F8CF9FBF08959FB71C
S1131C20F89481E007C0EDE2F2E08CE0828382E088
S1131C30838380E08111F7CF9FBF08958231B1F48F
S1131C40B2DF811104C084E1809343020BC0482FAA
S1131C5050E060E085E026D585B18F7B85B980E8CA
S1131C60809343028FEF80932F0208958FEF809328
S1131C702F02089590E00DC0943050F4E92FF0E065
S1131C80811102C02AE001C026E0E15BFC4F208301
S1131C909F5F963088F308951F920F920FB60F92AC
S1131CA011240BB60F92EF92FF920F931F932F9371
S1131CB03F934F935F936F937F938F939F93AF93D0
S1131CC0BF93CF93DF93EF93FF9385B1806885B97A
S1131CD0809145028F5F809345028370813009F4BF
S1131CE058C138F0823009F4A5C1833009F4C9C160
S1131CF001C28091070281111AC190917A0096FD68
S1131D0016C1282F30E0F901EE0FFF1FE20FF31F79
S1131D10EE0FFF1FE95BFC4F9181409179004183F5
S1131D20491710F4941B03C0542F591B952F94305A
S1131D3008F0FDC081110EC0423270F04F3370F0D4
S1131D40483670F0463970F04F3B70F0483E70F4FE
S1131D50C6E00DC0CFEF0BC0C4E009C0C3E007C0AC
S1131D60C5E005C0C1E003C0C2E001C0CFEFF90186
S1131D70EE0FFF1FE20FF31FEE0FFF1FE95BFC4F97
S1131D80D281DC1709F448C0DF3F19F0CF3F09F0D6
S1131D90CFEFF901EE0FFF1FE20FF31FEE0FFF1F4E
S1131DA0E95BFC4FC283DF3FF9F4C901880F991F37
S1131DB0FC01E20FF31FEE0FFF1FE95BFC4F1582DE
S1131DC01482FC01E20FF31FEE0FFF1FE95BFC4FCF
S1131DD01382EC2FF0E0E25BFC4F808180FFA7C010
S1131DE08C2F0E944B27A3C0ED2FF0E0E25BFC4F49
S1131DF0808181FF9CC0F901EE0FFF1FE20FF31FEA
S1131E00EE0FFF1FE95BFC4F8381837009F08FC0E5
S1131E108D2F0E944B278BC0CF3F09F488C0F90156
S1131E20EE0FFF1FDF01A20FB31FAA0FBB1FA95B99
S1131E30BC4F14968D919C911597019615969C9381
S1131E408E931497FD01848195818B349105A9F4B7
S1131E50ED2FF0E0E25BFC4F808182FF0EC08C2FFF
S1131E6080680E944B27E091070286E0E89FF0011A
S1131E701124E95BFC4F82E08383ED2FF0E0E25B09
S1131E80FC4F808183FF53C08091070290E0FC01E6
S1131E90EE0FFF1FE80FF91FEE0FFF1FE95BFC4F6A
S1131EA0238121111EC0FC01EE0FFF1FE80FF91F53
S1131EB0EE0FFF1FE95BFC4F24813581223331058E
S1131EC0B1F526E0289FF001299FF00D1124E95B6C
S1131ED0FC4F81E08383158214828C2F0E944B2750
S1131EE026C0FC01EE0FFF1FE80FF91FEE0FFF1FC6
S1131EF0E95BFC4F23812130D1F426E0289FF001D7
S1131F00299FF00D1124E95BFC4F248135812C308D
S1131F10310569F426E0289FF001299FF00D112472
S1131F20E95BFC4F158214828C2F0E944B27809111
S1131F3007028F5F80930702843010F0109207022B
S1131F408091070281110CC090E0FC01EE0FFF1F8D
S1131F50E80FF91FEE0FFF1FE95BFC4F808101C002
S1131F608FE1982F9F71906690937C00EBE7F0E0EF
S1131F702081807290E09595879595958795922F0D
S1131F809F7D892B8083EAE7F0E0808180648083F1
S1131F90B1C080914402803809F4ACC084B3876036
S1131FA084BB84B38B7F84BB20914D032095E2E0F6
S1131FB0EA95F1F700C084B3846084BB90E2EFE358
S1131FC0F3E0838182838481838384B3816084BBCF
S1131FD08181822B88B9858184838681858380B1C0
S1131FE0868384B38E7F84BB3897915051F7000069
S1131FF0000084B3816084BB84B38D7F84BB8091F3
S1132000440282608093440218B88BB180688BB913
S113201084B3826084BB6EC0808181508E3F38F46B
S113202021812F5F253010F0808320E021833296B8
S11320309F5F03C090E0EDE2F2E0993068F3EFE3D4
S1132040F2E080818F5F80838A3F09F053C08FEF75
S113205080935503108281818F5F81838C3308F4D0
S113206049C0118282818F5F82838C3308F442C01D
S1132070128283818F5F83838436E0F1109242025F
S113208039C0809144028038A9F1E0904E03F12CCC
S113209007E412E02CC0F801C28183819C2F9823AD
S11320A0C82B84819823C82B25819223C22B868137
S11320B09823C82BD781CD23C92BC7838D2F809517
S11320C08C238E2121F09F2D90620E948B27C09536
S11320D0CD238C2F8E2119F09F2D0E948B27085F12
S11320E01F4F80914402816080934402F394FFE186
S11320F0FF1588F685B18F7785B9FF91EF91DF9150
S1132100CF91BF91AF919F918F917F916F915F918B
S11321104F913F912F911F910F91FF90EF900F904E
S11321200BBE0F900FBE0F901F9018958FEF82B9C2
S113213085B988B98BB98EB981BB84BB8093020100
S1132140809305018093080180930B018AB1806814
S11321508AB98BB18F778BB984B1806484B985B126
S11321608F7B85B90895882334F4E2E0F1E090810F
S11321709061908305C0E2E0F1E090819F7E9083BE
S113218086FF06C0E2E0F1E090819860908305C08C
S1132190E2E0F1E09081977F908385FF04C09EB1D7
S11321A098609EB903C09EB1977F9EB984FF04C016
S11321B084B3806284BB03C084B38F7D84BBE2E0BC
S11321C0F1E080818064808385E08A95F1F70000E6
S11321D080818F7B808385E08A95F1F700000895E4
S11321E0CF93C82FE2E0F1E0808180628083808118
S11321F08F7B80838C2FB7DF8C2F8295807FB3DF1A
S11322008FEF90E00197F1F700C00000CF9108959F
S1132210CF93C82FE2E0F1E080818F7D80838081BD
S11322208F7B80838C2F9FDF8C2F8295807F9BDF19
S1132230C150C23038F48FE097E20197F1F700C043
S1132240000006C08FEF90E00197F1F700C0000096
S1132250CF910895E1E0F1E0808180618083808105
S1132260886080838DB188608DB983B3806283BBBD
S11322708081806480838081806280832FEF81EEFF
S113228094E0215080409040E1F700C00000E2E07B
S1132290F1E080818F7D808380818F7B808380E3E8
S11322A062DF8FE19EE40197F1F700C0000080E354
S11322B05ADF8FE19EE40197F1F700C0000080E34C
S11322C052DF8FE19EE40197F1F700C0000088E23D
S11322D04ADF8FEF90E00197F1F700C0000088E239
S11322E097DF88E095DF81E093DF86E091DF8CE083
S11322F08FCF08958093560380588ACF0895109203
S1132300560381E085CF0895909156039F5F9F7790
S11323109093560365CF0895CF93DF93FC01892BE7
S113232019F407C0F1DFFE01EF01219680818111CC
S1132330F9CFDF91CF910895CF93DF93FC01892BDF
S113234019F407C0E1DFFE01EF01219684918111A8
S1132350F9CFDF91CF91089580E893E0909313052E
S11323608093120590931105809310050895809130
S113237010059091110520911205309113058217D3
S1132380930748F0821B930B959587959DEC899F45
S1132390802D1124089580579E4F821B930B959591
S11323A087959DEC899F802D11240895CF93C82F84
S11323B0DEDFC817F8F440911205509113058C2FF5
S11323C090E09C01220F331F880F991F880F991FDB
S11323D0880F991F280F391FCA01820F931F65E0C8
S11323E08630960749F040F020593140CA01820FE7
S11323F0931F02C080E090E0CF910895D7DF00974B
S1132400F1F1FC013681678120E034C0422F50E0B5
S1132410FA01EE0FFF1FCF01880F991F880F991F34
S1132420880F991FE80FF91FE659FE4F849138135E
S113243020C0FA01EE0FFF1FCF01880F991F880FEC
S1132440991F880F991FE80FF91FE559FE4F8491D2
S113245068130FC0440F551FCA01880F991F880FB6
S1132460991F880F991F480F591FCA0184599E4FFD
S113247008952F5F2F3050F280E090E0089580E0BF
S113248090E00895CF9373DF10925703811114C025
S113249017C08C2F8BDF009761F0FC012481203260
S11324A051F095818C2F953439F48FEF8093570335
S11324B007C08C2F01C08C2FCFEFC80F8111E9CF3B
S11324C0CF9108951F93CF93DF93009709F47BC0B6
S11324D0162FEC018B81882379F068E573E00E9464
S11324E04130BC016F5F7F4F28E6FC0120838A8165
S11324F00E944130DC012FC08A81882379F068E58D
S113250073E00E944130BC016F5F7F4F2DE6FC01F8
S1132510208389810E944130DC011DC068E573E09D
S113252089810E944130FC0183E780839881990F5F
S113253020E002C099512F5F9931E0F7205D21839B
S1132540990F20E002C095502F5F9530E0F7DF012E
S11325501396205D22839C81903451F0903819F0B9
S1132560903281F40AC0FD0131968AE28C930EC048
S1132570FD01319685EA8C9309C0FD01319680E214
S11325808C9304C0FD0131968FE38C93BF016F5F80
S11325907F4F8D8180838E810E945D30BC018F814D
S11325A00E945D30BC016F5F7F4F2DE2FC012083F0
S11325B0888599850E947530FC0110821F3F41F087
S11325C01C8360DF05C0E8E5F3E08DE280831182BF
S11325D088E593E0DF91CF911F910895E091100574
S11325E0F0911105AFE3B2E09C919083E091100566
S11325F0F091110511969C9111979183E09110052A
S1132600F091110512969C911297928313969C91C6
S113261093832583868367835187408780E88483F7
S11326208091D00B8F3F81F484E691E00E94FB2ED1
S11326306FEF809110059091110544DF0E94432FA4
S113264082EF90E10E94FB2E80911005909111057C
S11326500A9690931105809310058650954039F0A1
S113266030F080E893E09093110580931005209159
S113267010053091110580911205909113052817CA
S1132680390779F40A9690931305809312058650BE
S1132690954039F030F080E893E0909313058093EF
S11326A01205089525E49ADF8FEF80935703089568
S11326B027E594CF0895CF93C62F78DE009719F0BD
S11326C06C2F00DF06C0E8E5F3E08DE28083118221
S11326D0CF01CF9108952ADD3FDE0E94112F0E9481
S11326E04427CDD8B4D8DAD803D90E94FD2D28D9EF
S11326F00E94072A0E94392A0E94D6270E944A284B
S11327000E94C42A0E94E52558D810926F05A2DDC4
S11327100E94DE2FF4DD83E4EDDD83E992E00CDE3C
S11327208BE1E8DD82E990E107DE78942FEF87E919
S11327309AE3215080409040E1F700C00000DFDDC3
S113274043DA8FEF8093A00780931405DFEF0E9494
S11327507827882309F442C00E945F27C82F86384F
S113276061F40E94CA2D0E94012C0E94C5290E9476
S1132770CC2788E792E00E941525809114058F3FAD
S1132780F1F48C2F8F73C53061F460E070E080E069
S113279090E0E3D50E9470211092140580E06ADA7B
S11327A01DC09FEF980F9430C8F40E94A9266C2F87
S11327B00E94BE26809314050E946A260FC0809151
S11327C06F05811106C08C2F0E9477218093140518
S11327D005C08DEF809353050E94E5238091140575
S11327E08F3F51F4DF3F49F40E94BE200E946A26C5
S11327F08FEF40DAD0E001C0DFEF80913B0281111E
S113280009C0C09156030E9409258C2F73DD8FEFF8
S113281080933B028091390281110AC080916F0537
S1132820882319F00E94E52303C08FEF80933902B7
S113283080912F0281111AC0D7D90E940A27809152
S113284014058F3F99F4C091560384E153DD8091C0
S11328504302813021F481E892E06EDD05C08231CB
S113286019F484E10E9499318C2F44DD0E94E22DF9
S11328700E940B2CC0915603809102028F3F91F16C
S113288080E038DD809100028F3F69F4809101027D
S11328900E9476318FE338DD809102020E94253157
S11328A080E232DD0CC0809102020E9425318EE765
S11328B02BDD809100020E94873180E225DD8C2F80
S11328C019DD8FEF809302029FB7F89481E006C070
S11328D0EDE2F2E082E38087118680E08111F8CF97
S11328E09FBF12C080913502882321F08091550347
S11328F08F3F51F480E0FEDC86E00E9499318C2FFA
S1132900F9DC8FEF80933502809104028F3FF9F058
S11329108FE0F0DC809103020E9487318EE7F4DCC3
S1132920809104020E9425318C2FE4DC8FEF809388
S113293004029FB7F89481E006C0EDE2F2E082E37E
S11329408287138680E08111F8CF9FBF12C08091E7
S11329503702882321F0809155038F3F51F48FE093
S1132960C9DC85E00E9499318C2FC4DC8FEF809301
S11329703702809155038F3F09F05CC010925503D4
S1132980F0905603C0911C0DCF3F11F40E94C33147
S113299080914202882359F08091400280FD0EC04C
S11329A00F2EFAE3EF2EF02D02E412E00CC00F2EEE
S11329B0FAE3EF2EF02D01E412E005C06894EE2452
S11329C0E5F802E412E087E095DCF80180810E94DA
S11329D027308E2D99DCF801319780810E942730B1
S11329E04091130C442331F050E060E083E05ADE60
S11329F01092130C4091180D442331F050E061E023
S1132A0083E050DE1092180D8091430284FF02C0CF
S1132A1080E201C089E078DC809157038F3F11F494
S1132A2085E401C080E270DC8F2D64DCCF3F11F4BB
S1132A300E94BC318091A1078F3F39F41092A10705
S1132A4040E050E060E084E02DDE9091CF0B809177
S1132A50170D981721F00E94472E0E94712C0E9496
S1132A60C2278F3F09F073CE0E94AD270E94022D2A
S1132A706ECE10925A0510925B0510925C0510926E
S1132A805D0581E090E00090250502C0880F991F44
S1132A900A94E2F7482F30E0EFE3F3E022C080919C
S1132AA05A0590915B05A0915C05B0915D05880F76
S1132AB0991FAA1FBB1F80935A0590935B05A0938F
S1132AC05C05B0935D052181242349F081608093E6
S1132AD05A0590935B05A0935C05B0935D05389708
S1132AE03F5F3032E0F280E0089540915A05509102
S1132AF05B0560915C0570915D05853009F5A1E089
S1132B00B0E00090250502C0AA0FBB1F0A94E2F7AB
S1132B103A2F90E0EFE3F3E011C0772324F48181AE
S1132B20832B818305C021818A2F80958223818311
S1132B30440F551F661F771F38979F5F903268F3C5
S1132B4080E00895E0915605F09157053E968591F1
S1132B5095918093250580E00895E0915605F091C4
S1132B6057053E96859195918093540580E008958C
S1132B70E0915605F09157053E96259135912093A5
S1132B806405809154058F7090E02370880F991F1D
S1132B90880F991F820F911D880F991F880F991F05
S1132BA090935F0580935E0580E00895E09156055B
S1132BB0F09157053E96859195918093240580E088
S1132BC00895E0915605F09157053E9685919591AB
S1132BD080936405209124052F7030E0837090E089
S1132BE0A901440F551F240F351F220F331F220F35
S1132BF0331FAC01440F551F840F951F820F931F81
S1132C0090935F0580935E0580E00895E0915605FA
S1132C10F09157053E968591959180936405877050
S1132C2090E09C01220F331F820F931F90935F0546
S1132C3080935E0580E00895E0915605F091570574
S1132C403E9685919591843060F4FC01FF27EE0F48
S1132C50FF1FE959FA4F8081918190937B058093FE
S1132C607A0580E008951F93CF93DF938630F1F0C7
S1132C70E0915605F09157053E960590F491E02DAC
S1132C80CF018A519540880F880F880FD081C0E00A
S1132C900BC011E0180F6D2F661F6627661F0E9478
S1132CA02F29DD0FCF5F812FC83098F380E0DF91AB
S1132CB0CF911F910895E0915605F09157053E96E6
S1132CC0859195918C5B9740FC01FF27E454F84F64
S1132CD0208121110E94D82780E00895863039F0A0
S1132CE080915505803418F46FEF0E94D22980E05A
S1132CF008950E94BB0B80E00895CF92DF92EF927B
S1132D00FF9281E090E00090250502C0880F991F92
S1132D100A94E2F7282F90E0EFE3F3E0C12CD12CE2
S1132D2076010BC0CC0CDD1CEE1CFF1C86818223BB
S1132D3011F06894C0F838979F5F903298F38EE151
S1132D40D9DAC0921E0DD0921F0DE092200DF092A0
S1132D50210D0E94023080E0FF90EF90DF90CF9031
S1132D6008958EE1C7DA809125050E945F0D609376
S1132D701E0D70931F0D8093200D9093210D0E94C2
S1132D80023080E00895CF938F3F09F077C080939D
S1132D900C0210920B02E0915605F09157053E96F5
S1132DA08591959180932405843010F01092240528
S1132DB020E039C08091240590E0E22FF0E0DF01AB
S1132DC0AA0FBB1FAD014E0F5F1FDC01AA0FBB1F73
S1132DD0A80FB91FAA0FBB1FAA0FBB1FA40FB51FB3
S1132DE0A952B74F3C9140910C02341710F4309320
S1132DF00C02AF01440F551FE40FF51FAC01440F43
S1132E00551F840F951F880F991F880F991FE80F6E
S1132E10F91FE952F74F818190910B02981710F432
S1132E2080930B022F5F243028F280910C028823B8
S1132E304CF48EE15FDA8CE393E07EDA8FEF8093DB
S1132E404C0504C080934C0510920A026AEB70E1B1
S1132E5080E00E94E53169EC70E181E00E94E53197
S1132E606EEC70E182E00E94E53160ED70E183E098
S1132E700E94E5310E943432CFEF71C060914C055D
S1132E806F3F09F461C08130D9F480910B02681757
S1132E9008F05CC040E0809124050E94472B6091BB
S1132EA04C056F5F60934C0580910A02813009F0F4
S1132EB04FC041E0809124050E94472BCFEF4FC0C3
S1132EC08430D1F480910C02861708F043C040E0AE
S1132ED0809124050E94472B60914C0561506093BA
S1132EE04C0580910A028130B9F541E080912405B6
S1132EF00E94472BCFEF33C0833091F480910A02B4
S1132F00811104C081E080930A0202C010920A0277
S1132F1040910A02809124050E94472BCFEF1FC0E5
S1132F20823011F0863039F440E0809124050E940B
S1132F30472BC0E014C0853089F440E0809124051B
S1132F400E94472BC0E00BC0C0E009C0CFEF07C010
S1132F50CFEF05C0CFEF03C0CFEF01C0CFEFCF3F1E
S1132F6059F580914C058F3F29F18EE1C3D98091A9
S1132F704C050E94253180E2C7D980910A02811153
S1132F8007C081E6C1D985E7BFD983E7BDD906C0AB
S1132F9085E6BAD989E6B8D98EE6B6D961E08091DA
S1132FA00A02811101C060E081E00E945332811164
S1132FB00E9434328EE19ED98C2FCF9108950E94C5
S1132FC0F50A80E008950E94F50A80E008950E94C1
S1132FD0D30A80E008950E94B10A0E9430280E941A
S1132FE06B0B0E946D2A80E008950E94250B80E0FF
S1132FF00895CF938FE193E00E94FB2EB8D98111FD
S11330000FC085E293E00E94FB2E0EC06FEF8C2F61
S113301052DB0E94432F82EF90E10E94FB2E8C2F03
S1133020CFEFC80F8111F2CF80E0CF9108950E94B5
S11330304B0B8091D00B8F3F61F486E093E00E94AC
S1133040FB2E82E990E10E94FB2E82EF90E10E9428
S1133050FB2E80E008959F92AF92BF92CF92DF92B1
S1133060EF92FF920F931F93CF93DF938DEE92E035
S11330700E94FB2E8AED92E00E94FB2E62E27DE02C
S113308080914E030E945D3022E7FC012083BC0145
S11330906E5F7F4F20E2218380914D030E945D305B
S11330A027E7FC01208382E29DE00E94432F0E94D7
S11330B00D2F88EC92E00E94FB2E62E27DE080916D
S11330C046020E945D3082E29DE00E94432F0E94EE
S11330D00D2FE12CB5C08FEB92E00E94FB2E62E233
S11330E07DE08E2D0E94EE3082E29DE00E94432F0F
S11330F00E940D2FF12C9FC087EB92E00E94FB2EC3
S113310080E38F0D0E94D52E8DE20E94D52E80E2A1
S11331100E94D52E0E2D10E0CF2CD12CE601CC0F21
S1133120DD1FCE018C0D9D1DE801CC0FDD1FC00FEE
S1133130D11FCC0FDD1FCC0FDD1FC80FD91FC95203
S1133140D74F62E27DE088810E945D30BC016F5FF1
S11331507F4F6894BB24B5F8FC01B08289810E943A
S11331605D30BC016F5F7F4FFC01B0828A810E9499
S11331705D302DE3FC01208382E29DE00E94432F19
S1133180888188232CF481EB92E00E94FB2E50C0AE
S113319062E27DE00E949230BC016F5F7F4F0F2E90
S11331A0FDE29F2EF02DFC019082F601EE0FFF1F31
S11331B0CE0EDF1E5801AA0CBB1CE501C00FD11FA7
S11331C0CC0FDD1FCC0FDD1FCC0DDD1DC952D74F39
S11331D089810E94923020E2FC01208382E29DE0FA
S11331E00E94432F89EA92E00E94FB2E8A818295F5
S11331F086958770805D0E94D52E82EA92E00E94B7
S1133200FB2E8A8162E27DE08F710E944130BC0115
S11332106F5F7F4FFC0190828A81998128818F7131
S1133220890F821B0E94413082E29DE00E94432F5D
S11332300E940D2FF394F3E0FF1508F05DCFE394A3
S113324083E08E1508F047CF80E0DF91CF911F9186
S11332500F91FF90EF90DF90CF90BF90AF909F9031
S113326008951F93CF93DF9310E009C0C12FD0E0DE
S1133270C65EDA4F88810E948A3288831F5F1830C5
S1133280A8F3DF91CF911F9108958AE195E00E9400
S11332900329E7DF80E008950E94C52980E0F5DF77
S11332A080E00895863031F080915505803410F423
S11332B00E946D2980E0E9DF80E00895CF93C62F56
S11332C08823D9F0E62FF0E0DF01A454B84F8C91A5
S11332D0811108C0862F0E94D827882371F00E948C
S11332E0D52B0BC0DF01A454B84F1C92EE0FFF1F67
S11332F0E856FF4E84910E94D52BEC2FF0E0E45465
S1133300F84F8081811102C082E801C081E8CF9129
S1133310089560E0D3CF089561E0D0CF089563E0CD
S1133320CDCF089562E0CACF089564E0C7CF089571
S113333065E0C4CF089566E0C1CF089567E0BECFCD
S1133340089569E0BBCF089568E0B8CF08956AE0B6
S1133350B5CF08956BE0B2CF08951092150500978C
S113336069F482E996E090935705809356058BE8BB
S113337093E090934A058093490508C090935705BC
S11333808093560570934A05609349058FEF8093A7
S1133390230585E993E090932705809326050895F6
S11333A062ED70E182E00C94E531089564ED70E122
S11333B083E00C94E531089566ED70E181E00C94AE
S11333C0E531089564EC70E181E00C94E5310895F1
S11333D06FEB70E181E00C94E531089568ED70E1E4
S11333E080E00C94E5310895809122058A3011F033
S11333F08E3031F460EB70E180E00C94E531089597
S113340060ED70E180E00C94E5310895809122052F
S11334108A3011F08E3031F462EB70E181E00C946B
S1133420E53108956EEC70E181E00C94E531089586
S1133430CF93DF93E09122058E2F90E0FC01329729
S1133440ED30F10508F0E4C08827EE58FF4F8F4FA8
S11334500C94973280916605E1E7F5E0982F9295F8
S11334609F7090838F708183D3C080916605803173
S113347020F08FEF80937105CBC08F5F809371052F
S1133480C7C080916605882334F4E1E7F5E0108233
S11334908FEF8183BDC01092720508C0E1E7F5E0AB
S11334A091819F5F91838C5080936605809166051E
S11334B08C30A0F780937105ABC080916605E1E77D
S11334C0F5E0982F92959695977090838F718093DD
S11334D06605118208C0E1E7F5E091819F5F918361
S11334E08A5080936605809166058A30A0F78093A0
S11334F073058EC0E1E7F5E01082118208C0E1E7B0
S1133500F5E090819F5F9083845680936605809157
S113351066058436A0F708C0E1E7F5E091819F5F76
S113352091838A5080936605809166058A30A0F75E
S1133530809373056DC080916605843020F08FEF11
S11335408093710565C08093710562C080916605A2
S1133550843020F083E0809371055AC08093710514
S113356057C0809166058093710552C0E92FF0E041
S113357080916605282F221F2227221FEF58FA4F19
S11335802083880F809366059F5F01C090E0983088
S113359068F33EC08250F0E0DE019D91EF58FA4F8F
S11335A09F709083E82FF0E09881EF58FA4F92953E
S11335B09F709083ED0103C0CFE4D5E088E0EFEF86
S11335C0E80F8111E7CF24C080916605E1E7F5E0BB
S11335D0982F97709F5F90838695869586958F5FC9
S11335E0818316C0809166058F5F80936605109273
S11335F0710508C0E1E7F5E090819F5F90838A50F0
S113360080936605809166058A30A0F780937205E1
S1133610DF91CF9108950F931F93CF93DF93E091A0
S113362022058E2F90E0FC013297ED30F10508F071
S11336303BC18827E158FF4F8F4F0C94973201E725
S113364015E0F80180810E94B42FC3E2D2E08883A0
S1133650F80181810E94B42F89831A8225C1E3E293
S1133660F2E083E4808388E68183809171058F3F53
S113367029F480E282838DE2838312C08A3048F089
S1133680C3E2D2E091E39A838A500E94B42F8B83E1
S113369007C0C3E2D2E090E39A830E94B42F8B83E5
S11336A01092270201C1809171058F3F21F0909102
S11336B072059F3F59F4E3E2F2E08EE680839FE6D1
S11336C09183828385E683831482EEC09FE5909381
S11336D024028B3021F488E48093230220C08530B7
S11336E058F4982F96959D5B9093230280FF17C002
S11336F083E28093240213C0282F30E0255031093F
S1133700359527952A5B2093230280FD03C083E22D
S113371080932402283419F481E480932302809155
S11337207205811104C08DE6809325020BC08C3094
S113373030F481500E94B42F8093250203C08DE29F
S11337408093250210922602AFC0C3E2D2E08DE43A
S1133750888301E715E0F80180810E94B42F8983F2
S113376082E48A83F80181810E94B42F8B83F8015B
S113377082810E94B42F8C831D8296C001E715E0DC
S1133780F80180810E94B42FC3E2D2E08883F8015B
S113379081810E94B42F8983F80182810E94B42F11
S11337A08A831B8281C080917105833038F4E3E2FF
S11337B0F2E093E3981B9083118276C0833031F456
S11337C0E3E2F2E080E5808311826EC0E3E2F2E09E
S11337D08DE28083118268C080917105E3E2F2E09A
S11337E0805D8083118260C080917105811109C060
S11337F0E3E2F2E081E4808385E7818383E78283E7
S113380008C0E3E2F2E085E4808389E681838EE602
S113381082831092260248C0C12FD0E0FE01EF58E7
S1133820FA4F80810E94B42FCD5DDD4F88831F5FE6
S113383001C010E0183080F337C0822F90E0FC0103
S1133840EF58FA4F3081311102C03FE601C039E42C
S1133850FC01ED5DFD4F30832F5F01C020E0283077
S113386060F322C0A1E7B5E08C91E3E2F2E0805D71
S1133870808311968C91805C8183128215C0E1E76C
S1133880F5E090818181292F282B31F4E3E2F2E0E5
S11338908DE28083818306C0E3E2F2E0905D908351
S11338A0805D818310922502DF91CF911F910F914A
S11338B008950F931F93CF938EE10E947A11C0E075
S11338C003E212E00BC0F8018081882319F00F5F36
S11338D01F4F01C080E20E948411CF5FCA3098F369
S11338E0CF911F910F9108958A301CF488231CF006
S11338F0089580E0089589E008950F931F93CF936E
S1133900DF93C82FE0915605F091570531968491C5
S1133910282F2071E09122058E2F90E0FC01329730
S1133920ED30F10508F092C18827E457FF4F8F4F1F
S11339300C949732D0E0CF58DA4F8881680F6F70BB
S1133940688384C121111AC0613041F480917105EA
S1133950803121F481E08093710578C16F3F41F497
S113396080917105813021F480E1809371056EC1ED
S1133970E1E7F5E08081680F608368C1613041F45C
S113398080917105803121F48FEF809371055EC1C0
S1133990613041F4809171058F3F21F481E080937F
S11339A0710554C16F3F41F4809171058F3F21F43B
S11339B080E1809371054AC16F3F41F480917105A4
S11339C0813021F48FEF8093710540C1E1E7F5E088
S11339D08081680F60833AC1809172058F3F09F43A
S11339E0C1E0C11116C0809171058C3050F48B3048
S11339F011F4613041F0811102C06F3F31F0680F62
S1133A0005C060E003C060E001C06BE06093710535
S1133A102BC021110AC0811102C06F3FC1F08A304E
S1133A2011F46130B1F0680F1DC0811102C06F3F05
S1133A3091F08A3011F4613081F08F3F11F46130DC
S1133A4071F08F3F11F46F3F61F0680F0BC06AE0B3
S1133A5009C060E007C06FEF05C06FEF03C060E00E
S1133A6001C06AE060937205909171059F3F09F46B
S1133A70EDC0809172058F3F09F4E8C0282F220F12
S1133A80820F282F220F220F920F0AF0DFC0E1E7E6
S1133A90F5E087E080838AE08183D8C0C11107C044
S1133AA0E1E7F5E08081680F67706083CFC0D0E004
S1133AB001E715E0CF58DA4F8881860F15DF888338
S1133AC0F80181819281880F282F220F220F820F03
S1133AD0890F80322CF083E0818381E08283B6C039
S1133AE088230CF0B3C0E1E7F5E011821282AEC086
S1133AF0D0E001E715E0CF58DA4F8881860FF4DE75
S1133B008883F8012081818190E0AC01440F551F26
S1133B10880F991F880F991F880F991F840F951F6D
S1133B20F4E62F9F800D911D1124F8012281820F4C
S1133B30911D8F3F910509F00CF488C082E08083C9
S1133B4085E08183828382C02223A1F0D0E0FE013C
S1133B50EF58FA4F8081680F6083643019F48FEF57
S1133B60808374C06E3F09F071C0CF58DA4F83E090
S1133B7088836CC0D0E0FE01EF58FA4F8081811138
S1133B8005C06F3F19F483E0808360C0833031F453
S1133B90613021F4CF58DA4F188258C0CF58DA4F29
S1133BA0680F688353C0D0E0CF58DA4F8881680F1C
S1133BB0637068834BC0E1E7F5E080818095808382
S1133BC045C0D0E081E061FD80E0CF58DA4F8883C2
S1133BD03DC0613041F4D0E0CF58DA4F888187701E
S1133BE08F5F888333C0EC2FF0E0EF58FA4F808169
S1133BF0825087708F5F808329C0E1E7F5E0908170
S1133C008181990F292F220F220F920F890FC11141
S1133C1007C0660F962F990F990F690F680F01C09F
S1133C20680F66231CF061341CF403C060E001C01B
S1133C3060E01092710506C0E1E7F5E080818F5FD6
S1133C4080836A506A30C4F760937205DF91CF9124
S1133C501F910F910895E09122058E2F90E0FC01B1
S1133C603297ED30F10508F0D9C08827E756FF4FA9
S1133C708F4F0C949732E1E7F5E0808120E1829F39
S1133C80C001112491819F70892B8093660508954A
S1133C90809171058F3F19F48093660508958150D2
S1133CA0809366050895909171059F3F21F080915E
S1133CB072058F3F21F48FEF809366050895282FB6
S1133CC0220F820F880F880F890F8093660508954D
S1133CD0E1E7F5E0808130E2839FC0011124218176
S1133CE03281220F422F440F440F240F230F20321E
S1133CF020F08F61809366050895822B809366057A
S1133D000895E1E7F5E02081818190E0AC01440F62
S1133D10551F880F991F880F991F880F991F840FAB
S1133D20951F34E6239F800D911D11242281820F5B
S1133D30911D8F3F910529F020F08FEF8093660548
S1133D4008958093660508958091710580936605B2
S1133D50843008F463C08FEF8093660508958091E2
S1133D607105837080936605089580917105809331
S1133D70660508951092660580E00CC09091660572
S1133D80990FE82FF0E0EF58FA4F2081920F9093AB
S1133D9066058F5F883090F3089510924F05109256
S1133DA050051092510510925205AFE4B5E088E039
S1133DB010C08250F0E0EF58FA4F9081E82FF0E005
S1133DC0EF58FA4F208130E1239F900D11249C93EA
S1133DD01196EFEFE80F8111ECCF0895E1E7F5E0DC
S1133DE020819181892F90E00197880F991F880F76
S1133DF0991F880F991F9FEF920F892B8093660557
S1133E000895E1E7F5E080819181880F282F220F42
S1133E10220F820F890F81508093660508950F93B6
S1133E201F93CF93DF938C01D62FC0E00CC0F80111
S1133E308491882319F00F5F1F4F02C08D2FD0E2A9
S1133E400E948411CF5FCA3090F3DF91CF911F910C
S1133E500F91089580E40E947A11E0911505E11113
S1133E6007C06AE38091490590914A05D8CF089527
S1133E70F0E03197EE0FFF1FE85DFA4F80819181EA
S1133E806AE30296CCCF0895E0915605F091570568
S1133E9084918F7390E002971CF0CADABCDB09CDE1
S1133EA00895E0912605F091270580912305E80FF8
S1133EB0F11D31968491825E0E947A11209123052E
S1133EC030E0E0912605F0912705849190E0019778
S1133ED02817390714F46ADA03C083E00E942032F9
S1133EE080912305882311F05BDA03C082E00E94ED
S1133EF020327ADA8BDA0C943432089584E10C940B
S1133F007A1108950F931F93CF93F8DF87E893E016
S1133F100E949C118091190D90911A0D0E941D31DF
S1133F208DE20E9484118091190D90911A0D0497CD
S1133F3030F48091190D90911A0DC82F01C0C4E07E
S1133F400091CF0B10E00257144F13C08BE00F38D1
S1133F50180710F0F80102C0EEEAFBE08F010150EF
S1133F60110980810E94EB2FC15019F080E20E9458
S1133F708411C111EBCF80E0CF911F910F9108956F
S1133F800F931F93CF93BADF82E893E00E949C11B2
S1133F908091140C9091150C0E941D318DE20E94A9
S1133FA084118091140C9091150C049730F4809135
S1133FB0140C9091150CC82F01C0C4E000918A0B19
S1133FC010E00255144F13C08BE00F3A180710F09D
S1133FD0F80102C0EEECFBE08F0101501109808171
S1133FE00E94EB2FC15019F080E20E948411C1118C
S1133FF0EBCF80E0CF911F910F9108950F931F9302
S1134000CF938F3FA9F40E94B71181508093090286
S1134010109208026AEB70E180E00E94E53164EBE3
S113402070E181E00E94E5310E943432CFEF2FC06D
S1134030843049F480910902882321F181508093CE
S11340400902CFEF24C0813091F40091090210E0FD
S11340500F5F1F4F0E94B71190E008171907A4F4CF
S1134060809109028F5F80930902CFEF10C08330E3
S113407011F0853059F480910802809580930802EC
S1134080CFEF05C0CFEF03C0CFEF01C0C0E0CF3FFB
S113409009F054C033DF0E94B711811106C085E3D3
S11340A093E00E949C11C0E01DC0809109028F5FC3
S11340B00E9427308AE30E948411809108028111B2
S11340C008C060E2809109020E945B130E948C1177
S11340D006C0809109020E94FE110E949C110E9458
S11340E0A5310CDF61E0809108028F3F09F060E0A8
S11340F081E00E9453320091090210E00F5F1F4FCC
S11341000E94B71190E00817190734F464ED70E1C8
S113411083E00E94E53103C083E00E942032809155
S11341200902882331F062ED70E182E00E94E531FA
S113413003C082E00E9420320E9434328C2FCF913F
S11341401F910F9108958AE40C947A110895D6DE94
S11341508AE00C94993108958EE10E947A118AE0E4
S11341600C949931089580E40E947A118AE00E94A7
S11341709931E9DF8AE00C9499310895F4DFECDF9A
S1134180E6CF0895E0915605F091570584918F7319
S1134190813011F411C908953E960590F491E02DF3
S11341A0309759F0893039F48081811102C00AC9ED
S11341B008950EC9089500C9089581E00C94203231
S11341C00895CF9389E40E947A11E0915605F09105
S11341D05705C491C07CC03839F480E20E94841130
S11341E082E00E94203204C08FE70E948411D8D854
S11341F0C03C29F483E00E942032C0E202C0D6D839
S1134200CEE7ECD8BFDF80915605909157056C2F0F
S1134210029605DE0E94343296DFCF9108958FEF27
S113422080933B028091560590915705FC0124919F
S1134230622F6F73623008F449C09C01225F3F4FC4
S1134240F901459155914115510509F43FC0E62FF7
S1134250F0E031979F01220F331F220F331F220FEB
S1134260331FE20FF31FEB56FC4FF0932705E09347
S11342702605249120934D05FC0125912F7320934D
S11342802205249122232CF420915E0530915F05B0
S113429002C020E030E0240F351FFC0184918F73AD
S11342A08B3071F4F90180819181A281B381809373
S11342B04F0590935005A0935105B093520504C047
S11342C0F901808180936605DFDD07C045DF85E95C
S11342D093E0909327058093260554DF34CF089507
S11342E036DF9DDFB7DD6DDF0C94BC310895CF93CD
S11342F0C82F0E94BC31E0915605F0915705849176
S11343008F73813029F0809123058F3F09F05BC1C1
S11343103196849186FF02C01ADF15DF609156053D
S113432070915705CB010196FC018491982F9072EE
S113433085FF1FC09B01205F3F4FF90125913591F7
S113434021153105B1F0409123054F3F91F08C2F99
S1134350F90119958F3F21F41092230580E0F5C1EE
S1134360F6DEFADEF0DE8FEF809323052ADF80E0AD
S1134370ECC1C33009F464C028F4C13051F0C23038
S113438031F1CEC1C53009F45BC090F0C630F9F00C
S1134390C7C1FB018491807C803C09F4C3C174963D
S11343A0F0935705E09356053ADF0BDF80E0CDC16B
S11343B0FB018491807C803809F4B6C17497F09332
S11343C05705E09356052BDFFCDE80E0BEC184FF79
S11343D004C010927B0510927A05E0911505EE2336
S11343E0E9F0E150E0931505F0E0EE0FFF1FE85D02
S11343F0FA4F0190F081E02DF0935705E0935605B4
S113440072960590F491E02D309711F080E01995A3
S11344109EDE20DDD6DE03DF80E097C180E00E94CF
S1134420203281E00E94203282E00E94203283E028
S11344300E9420320E9434320E94C3318FEF85C122
S1134440FB0124912F7330E0223031050CF43BC082
S113445070960590F491E02D309719F08C2F1995F2
S1134460DEDE2091560530915705C9010196FC0105
S1134470849183FD5BC1C9010E96FC0185919591E0
S1134480892B09F455C1F90184918F738930B1F4F2
S113449061E080E032DADFDBE0915605F091570508
S11344A03E960590F491E02D809166058083ECDCC6
S11344B069DE0E94343247DE80E047C11092230552
S11344C0F0DC80E042C12FEF2093230584FF26C057
S11344D070937B0560937A05E0911505EE2309F44A
S11344E029C1E150E0931505F0E0EE0FFF1FE85DF0
S11344F0FA4F0190F081E02DF0935705E0935605B3
S113450072960590F491E02D309711F080E01995A2
S11345101EDEA0DC56DE83DE80E017C1FB01709650
S11345200590F491E02D309799F0992371F08FEF75
S113453019958F3F19F4109223050AC008DE0CDE8A
S113454002DE8FEF8093230503C085E01995FBDD20
S11345502091560530915705C9010C96FC018591AF
S11345609591892B09F4E8C0A0911505A03108F0B4
S1134570E5C081E08A0F80931505B0E0AA0FBB1F48
S1134580A85DBA4F2D933C93C9010196FC01849117
S113459083FF0BC080917A0590917B05009729F0E9
S11345A0909357058093560508C0F9013C96859170
S11345B095919093570580935605C9DD4BDC01DE38
S11345C02EDE80E0C2C0C33009F449C028F4C130F3
S11345D059F0C23031F1B4C0C53009F45EC0C0F046
S11345E0C63009F48AC0ACC0482F50E0E0912605DB
S11345F0F0912705249130E02150310942175307E7
S11346000CF0A0C08F5F809323054BDC80E09DC03D
S1134610882309F499C081508093230542DC80E00B
S113462094C061E06AD917DB2FDC809122058A30BF
S113463011F08E3089F420912305422F50E0E0914F
S11346402605F0912705849190E0019748175907B2
S11346501CF42F5F2093230524DC80E076C06FEFE9
S11346604CD9F9DA11DC809122058A3011F08E30B0
S113467089F420912305422F50E0E0912605F09122
S11346802705849190E00197481759071CF42F5F80
S11346902093230506DC80E058C0DDDA209156051E
S11346A030915705C9010E96FC01A591B59110975B
S11346B021F10D97FC01849188232CF480915E05EF
S11346C090915F0502C080E090E0A80FB91FF90146
S11346D084918F738B3071F440914F055091500544
S11346E060915105709152054D935D936D937C9348
S11346F0139703C0809166058C93E0915605F09161
S1134700570572960590F491E02D309711F08C2F97
S113471019958FEF8093230554DD81DD80E015C06A
S113472080E013C080E011C080E00FC080E00DC0C5
S113473080E00BC080E009C080E007C080E005C0D5
S113474080E003C080E001C080E0CF9108950F9322
S11347501F93CF93DF938C01D0915603E0915605BC
S1134760F091570584918F73813039F48EE10E9462
S11347707A1181E080934B0505C084E10E947A118F
S113478010924B05C0915603C8010E949C118D2FB5
S11347900E947A119FB7F89481E006C0EDE2F2E03E
S11347A084E68687178680E08111F8CF9FBF8C2F1F
S11347B0DF91CF911F910F91089583E593E0C7DFB7
S11347C00E94CA2DC0DC80E00895809153058F3F7C
S11347D011F08D3F71F50E94C331BEDC1092A00729
S11347E090E0E7E4F2E007C0218180916F05822B1D
S11347F0818338969F5F9032B8F3809153058F3F41
S113480019F4109253055BC08DE493E0A0DF8EEFA2
S1134810809353059FB7F89481E006C0EDE2F2E07F
S113482082E08487858780E08111F8CF9FBF8BDC8D
S113483046C08E3F41F48FEF8093A00710926F051E
S11348400E94BC313CC040911605509117056091FF
S11348501805709119057695679557954795409376
S11348601605509317056093180570931905E82FE2
S1134870F0E0DF01AA0FBB1FAA0FBB1FAA0FBB1FCB
S1134880A95BBD4F16962C9190916F05292349F48D
S1134890706840931605509317056093180570933C
S11348A01905EE0FFF1FEE0FFF1FEE0FFF1FE95B51
S11348B0FD4F2181922B91838F5F80935305E0916B
S11348C05305E03228F5F0E0EE0FFF1FEE0FFF1F57
S11348D0EE0FFF1FE95BFD4F80916F05982F9095B8
S11348E08181892381838EE10E947A11809153050D
S11348F00E9427309FB7F89481E006C0EDE2F2E011
S113490088E08487158680E08111F8CF9FBF0895E1
S1134910E03281F58091160590911705A091180554
S1134920B09119050097A105B10521F48AE493E03B
S11349300EDF0FC080931E0D90931F0DA093200DCA
S1134940B093210D87E493E002DF0E947A110E9464
S113495002308EEF809353059FB7F89481E006C030
S1134960EDE2F2E082E08487858780E08111F8CF70
S11349709FBFE9CB089581E090E00090250502C037
S1134980880F991F0A94E2F780936F058FEF809345
S113499053051092160510921705109218051092DF
S11349A0190513DF80E008958AE493E0D0CE0895DA
S11349B08EE10E947A118DE293E00E949C110E9484
S11349C00F0CF2DF80E008958EE10E947A118DE2EF
S11349D093E00E949C110E941B0CE6DF80E0089586
S11349E08DE293E0B4DE8EE10E947A110E94DD0B29
S11349F0DBDF80E00895CF93C091560380E40E94EA
S1134A007A1184E10E9499318C2F0E947A11CF91FE
S1134A10089580914B05811102C099CB089581308E
S1134A2011F49ACB0895E7CF08950F931F93CF9372
S1134A30DF93EC01109156030E947632082F80E434
S1134A400E947A1184E190E0801B910995958795E5
S1134A500E949931CE010E949C119091560384E5E5
S1134A60891B0E949931812F0E947A119FB7F89473
S1134A7081E006C0EDE2F2E084E68687178680E0F6
S1134A808111F8CF9FBF82E080934B05DF91CF91D6
S1134A901F910F9108950F931F93CF93DF93EC0110
S1134AA0109156030E948032082F80E40E947A11EC
S1134AB084E190E0801B9109959587950E94993136
S1134AC0CE010E948C119091560384E5891B0E94AB
S1134AD09931812F0E947A119FB7F89481E006C022
S1134AE0EDE2F2E084E68687178680E08111F8CF54
S1134AF09FBF82E080934B05DF91CF911F910F916F
S1134B00089562E27DE00E944130BC0180E793E0B9
S1134B100E94073182E29DE0BECF089562E27DE00B
S1134B200E944130BC0182E693E00E94073182E298
S1134B309DE0B1CF089588232CF46FEF80E032D448
S1134B40E0DF05C0882319F080E0C7D3E7DF80E009
S1134B50089588232CF46FEF81E024D4D2DF05C0BC
S1134B60882319F081E0B9D3D9DF80E00895882340
S1134B702CF46FEF82E016D4C4DF05C0882319F04B
S1134B8082E0ABD3CBDF80E0089588232CF46FEF71
S1134B9083E008D4B6DF05C0882319F083E09DD3F1
S1134BA0BDDF80E0089520E034E08C31930749F0C4
S1134BB034E08C31930738F044972F5FA9F780E0F5
S1134BC00895822F089580E00895CF930E94840A67
S1134BD08F3FC9F40FC0822F90E0FC01E05AFA4FD6
S1134BE01082880F991FFC01E959FA4F1182108233
S1134BF02F5F01C020E0243070F340E050E067E014
S1134C0081E00E945213C0E025C04C2F50E0FA010D
S1134C10E05AFA4F8081853170F424E1829FC0010B
S1134C201124845E9B4F440F551FFA01E959FA4F32
S1134C30918380830EC0FA01EE0FFF1FE959FA4FEA
S1134C40118210824F5F5F4F406167E081E00E94F4
S1134C505213CF5FC430C8F2CF910895CF93DF933E
S1134C60643028F50097B9F0FC0124912F732130AA
S1134C7091F43196249124FF0EC0C62FD0E0FE019A
S1134C80EE0FFF1FE959FA4F918380838CDFC05ADE
S1134C90DA4F88830CC070E0FB01EE0FFF1FE95967
S1134CA0FA4F11821082FB01E05AFA4F1082DF9111
S1134CB0CF910895E0915605F09157053E96659180
S1134CC0759180917A0590917B05C8DF0E94BB0B9A
S1134CD080E008950F931F93CF93C0E032C00C2F50
S1134CE010E0F801EE0FFF1FE959FA4F0190F0812F
S1134CF0E02D309731F03E966591759161157105FF
S1134D0021F48C2F0E9420321BC08C2F0E94E5318D
S1134D10000F111FF801E959FA4F0190F081E02DBD
S1134D2070960590F491E02D309751F080E019953C
S1134D30813811F46FEF01C060E08C2F0E94533270
S1134D40CF5FC43060F20E943432CF911F910F9133
S1134D500895823049F018F4813051F00BC083304B
S1134D6059F0843019F006C080E0089582E0089577
S1134D7083E008958FEF089581E008950F931F93C2
S1134D80CF938430D0F5E82FF0E0EE0FFF1FE95900
S1134D90FA4F008111810115110589F1F8019491EF
S1134DA09F73913071F53196949194FF2CC0C82F64
S1134DB03F960590F491E02D309789F0862F199550
S1134DC0823829F460E08C2F0E94533206C0813867
S1134DD021F46FEF8C2F0E9453320E943432F80179
S1134DE03C9685919591009781F0B8016E5F7F4F55
S1134DF00E94AD1975DA80E009C08FEF07C08FEF0C
S1134E0005C08FEF03C08FEF01C08FEFCF911F91CB
S1134E100F910895CF93C09156038CE00E947A11AC
S1134E208091430284FF02C080E201C089E00E94B5
S1134E3084118C2F0E947A11CF91089585B18064DA
S1134E4085B983E180934302E5DF80E0089585B16D
S1134E508F7B85B910924302DDDF80E0089585B130
S1134E608F7B85B981E080934302D4DF9FB7F894A8
S1134E7081E006C0EDE2F2E088E28283138280E002
S1134E808111F8CF9FBF089510927F0710927C057F
S1134E9010927E07089590917F07E92FF0E0E05883
S1134EA0F84F80839F5F9F7180917C05981304C0A5
S1134EB08FEF80937E07089590937F0708954FB7EF
S1134EC0F89421E011C090917C0530917F078FEF19
S1134ED020E0931749F0E92FF0E0E058F84F808183
S1134EE09F5F9F7190937C052111EDCF4FBF089573
S1134EF04FB7F89491E008C030917C0520917F076A
S1134F0090E080E0321711F08FEF01C090E0911132
S1134F10F3CF4FBF0895AC019091A0079923E1F01E
S1134F2090917D0721E0290F20937D07E92FF0E080
S1134F30EE0FFF1FE358FA4F518340838091A2077D
S1134F4028130AC090937D079F3F19F48FEF809335
S1134F507D078FEF8093A1070895E091A2078091C8
S1134F607D07E81303C08FEF9FEF089581E08E0F54
S1134F708093A207F0E0EE0FFF1FE358FA4F808101
S1134F80918108959091A20780917D07981302C0A2
S1134F9080E008958FEF089580E0ECEBF7E003C024
S1134FA010828F5F31968C30D8F30895F5CF089531
S1134FB08C30E8F4E82FF0E0E454F84F9FEF90834E
S1134FC0863010F0865001C08A5FE82FF0E0DF01E0
S1134FD0A454B84F8C91882359F0DF01A454B84FDE
S1134FE01C92EE0FFF1FE856FF4E8491089580E057
S1134FF0089580E090E04BE001C0422F282F392F24
S1135000220F331F822F932FE42FF0E0E454F84F44
S113501050815F3F09F481602FEF240F4111EDCFE0
S1135020089540E080FF07C0E42FF0E0E454F84F17
S11350302FEF208305C0E42FF0E0E454F84F1082F2
S1135040282F392F36952795822F932F4F5F4C3079
S113505048F3089580E8809344020C94780C0895F2
S113506020E030E012C0822F90E0FC01EE0FFF1F21
S11350708E0F9F1FFC01ED55F84F81818F3F21F06A
S1135080831710F031E0380F2F5F283060F330932E
S1135090BB07089520E00EC0822F90E0FC01EE0FC4
S11350A0FF1FE80FF91FED55F84F8FEF80838183C1
S11350B012822F5F283080F30E94280A8F3F49F420
S11350C01092BB0740E050E065E081E00E9452137B
S11350D001C0C6DF0E945C0A8F3FA1F52AC0832F5E
S11350E090E0FC01EE0FFF1F880F991F880F991F96
S11350F0880F991FE80FF91FE95FF64FE20FF11DC2
S113510010822F5F01C020E0283048F3832F90E005
S1135110FC01EE0FFF1F880F991F880F991F880F3E
S1135120991FE80FF91FE95FF64F118610863F5F5C
S113513001C030E0303438F340E050E066E081E014
S11351400C94521308959091BB078917A0F48034EE
S113515090F428E0E3EAF7E03081831748F0918186
S1135160981730F02281982F931B80E0920F0895B6
S11351703396215089F78FEF90E00895CF93909163
S1135180BB07891708F03CC0C62FDDDF811130C092
S1135190292F2F7192959695977041E050E002C0A7
S11351A0440F551F9A95E2F730E0F901EE0FFF1F07
S11351B0EE0FFF1FEE0FFF1FE95BFD4F918194235C
S11351C011F4C1FD17C0220F331F220F331F220F0A
S11351D0331FF901E95BFD4F2681422311F0C0FD25
S11351E00BC0992371F0442361F0C43051F406C01C
S11351F080E007C081E005C081E003C081E001C018
S113520080E0CF910895EF92FF920F931F93CF9375
S1135210DF937C01C0E0D0E000E017C01C2F1770C2
S113522009F4D0E0D69563E08C2FA8DF882311F031
S1135230D0680F5F173041F4E114F10429F0F7014D
S1135240D083C70101967C01CF5FC03438F3802F2F
S1135250DF91CF911F910F91FF90EF900895CF931D
S11352609091BB078917B8F5C62F6DDF811133C044
S1135270E92FEF71929596959770C0FF17C0F0E0F3
S113528021E030E0A90102C0440F551F9A95E2F7CE
S1135290CA01EE0FFF1FEE0FFF1FEE0FFF1FE95BAA
S11352A0FD4F809591818923818315C0F0E021E031
S11352B030E0A90102C0440F551F9A95E2F7CA01D4
S11352C0EE0FFF1FEE0FFF1FEE0FFF1FE95BFD4FF9
S11352D09181892B8183CF910895BF92CF92DF92E0
S11352E0EF92FF920F931F93CF93DF93803408F0D4
S11352F040C0E82EF12CF701EE0FFF1FC701880F05
S1135300991F880F991F880F991FE80FF91FE95FEC
S1135310F64FB12C10E000E018C06F018FEFC81AEF
S1135320D80AC081D0E00DC08C2F8170C0FD0F5F02
S113533061E0811101C060E0812F91DFC6951F5F9C
S1135340DF5FD83088F3B394F60187E08B1528F734
S1135350F701EE0FFF1FEE0CFF1CEE0CFF1CEE0C12
S1135360FF1CEE0DFF1DE95FF64F8085918559DE28
S113537001C000E0802FDF91CF911F910F91FF902A
S1135380EF90DF90CF90BF900895CF93C0E004C01A
S113539060E08C2F64DFCF5F8091BB07C817C0F338
S11353A0CF9108950F931F93CF93DF93C82F062FA8
S11353B0803490F4282F30E0C901880F991F220F00
S11353C0331F220F331F220F331F820F931F895F56
S11353D0964F19DF182F01C010E0D0E00ADE9E01BD
S11353E0220F331FCC0FDD1FCC0FDD1FCC0FDD1FB1
S11353F0C20FD31FC95FD64F9987888701110E94B6
S1135400990B812FDF91CF911F910F91089590E413
S1135410E1EDF7E007C08FEF8083818383831282FD
S1135420349691509111F7CF0E947E098F3F01F578
S113543080930D02E1EDF7E0108284E2818383839F
S113544098E3928321E0208B818B838B928B22E0E3
S113545020A381A383A392A393E090AB81AB83ABFE
S11354608EE182AB40E050E061E081E00C945213A5
S1135470089520E006C0FC01EF52F74F3FEF308360
S11354802F5F822F90E00097B1F70E94A6098F3F0B
S1135490A9F480930D02E1EDF8E0108281E08183AC
S11354A082E0828383E08383E5EDF8E01082118259
S11354B040E050E062E081E00C9452130895E82F3C
S11354C08FEF9FEFE43040F4F0E0EF52F74F20818C
S11354D02F3F11F0822F962F089570E052C0872F2E
S11354E090E0242F30E0F901EE0FFF1FDF01A20F3F
S11354F0B31FFC01EE0FFF1FE80FF91FEE0FFF1F94
S1135500EE0FFF1FEA0FFB1FE952F74FA081AF3FD9
S1135510D9F0F901EE0FFF1FE20FF31F9C01220FD8
S1135520331F280F391F220F331F220F331FE20F9F
S1135530F31FE952F74F21812F3F31F0A61708F4EA
S11355406A2F521708F4522F552311F06F3F49F474
S1135550880F991FFC01E753F84F8FEF80838183F5
S113556007C0880F991FFC01E753F84F60835183EC
S11355704F5F03C040E06FEF50E0443008F4AFCF1A
S11355807F5F7430B8F3089563E028C0862F062E39
S1135590000C990B422F022E000C550BFA01EE0F52
S11355A0FF1FE40FF51FAC01440F551FDA01A80FCC
S11355B0B91FAA0FBB1FAA0FBB1FAE0FBF1FA95253
S11355C0B74F3FEF3C9311963C931197FD01128224
S11355D0215001C023E02223CCF661506623D4F786
S11355E00E9456098F3F41F480930D0240E050E041
S11355F063E081E00E94521370CF08958430D8F4A0
S113560090E0FC01EE0FFF1FE80FF91FEE0FFF1FE4
S1135610EE0FFF1FE952F74F84E02081621740F03C
S11356209181961728F09281621B80E0960F08956D
S11356303396815091F78FEF90E0089570E0E7ED95
S1135640F8E054E016C06281861788F0A82FB0E015
S11356502181908130E0291B3109260F311D2A1741
S11356603B072CF0482F461B872F940F0895339641
S113567051505111E8CF7F5F753018F3482F50E037
S113568061E082E00E9458138FEF90E00895CF9379
S1135690C42FB4DF811133C0E92FEF719295969531
S11356A09770C11116C0F0E021E030E0A90102C0FA
S11356B0440F551F9A95E2F7CA01EE0FFF1FEE0F34
S11356C0FF1FEE0FFF1FE95BFD4F9181892B818343
S11356D016C0F0E021E030E0A90102C0440F551FDC
S11356E09A95E2F7CA01EE0FFF1FEE0FFF1FEE0FB0
S11356F0FF1FE95BFD4F8095918189238183CF91C1
S11357000895CF92DF92EF92FF920F931F93CF935E
S1135710DF93C82ED12C3CC00C2D10E0CD2DD0E051
S1135720F801EE0FFF1FEE0FFF1FEC0FFD1FEE0F32
S1135730FF1FEE0FFF1FEF52F84F8081843038F5C2
S1135740F801EE0FFF1FEE0FFF1FEC0FFD1FEE0F12
S1135750FF1FEE0FFF1FEF52F84F6381F28015C059
S1135760EE24E394E60EF801EE0FFF1FEE0FFF1F89
S1135770EC0FFD1FEE0FFF1FEE0FFF1FEF52F84F50
S113578040E0808184DFFA946E2DF110E9CFD39448
S113579083E08D1508F0C0CFDF91CF911F910F9159
S11357A0FF90EF90DF90CF9008950F931F93CF93C6
S11357B0DF93843008F5082F10E0F801EE0FFF1F87
S11357C0E753F84FC081CF3FB9F0D82FF801EE0F5F
S11357D0FF1FE753F84F81818F3F31F40DC040E044
S11357E06C2F8D2F54DFCF5FF801EE0FFF1FE753AF
S11357F0F84F91819C1798F7DF91CF911F910F91EA
S11358000895CF93C0E003C08C2FCFDFCF5FC430A7
S1135810D8F3CF91089580910E02882339F08091B6
S11358203302811103C0EDDF10920E0208950F932D
S11358301F93CF93DF93062F142FD82FDF70C0E070
S113584090E03CC04D2F50E02C2F30E0FA01EE0FD9
S1135850FF1FEE0FFF1FE20FF31FEE0FFF1FEE0FF0
S1135860FF1FEF52F84F8081843038F5DF016181EA
S1135870702F761B672F0AF1FD01E281F0E0A72F5C
S1135880770FBB0BAE17BF07C4F4FA01EE0FFF1F6F
S1135890EE0FFF1FE20FF31FEE0FFF1FEE0FFF1FB0
S11358A0EF52F84F9381690F113021F48093000275
S11358B060930202412FEBDE9FEFCF5FC43008F408
S11358C0C1CF113049F4911107C000930202D09363
S11358D001028FEF80930002DF91CF911F910F910E
S11358E0089588230CF04CC0883FB8F08E3F81F4B3
S11358F081E080930E029FB7F89406C0EDE2F2E0D7
S113590089E18683178280E08111F8CF9FBF0895D3
S11359108F3F09F076C09ECB08958093890B109237
S1135920C80790E8980F903420F482E08093050231
S1135930089590E2980F903120F482E0809305025C
S11359400895823F21F482E0809305020895803F08
S113595021F48FEF80930502089590E4980F90321C
S113596020F481E0809305020895813F11F0833F84
S113597021F481E0809305020895109205020895B0
S1135980E091C807E23040F491E09E0F9093C8077D
S1135990F0E0E957F44F8083809105028F3F89F14D
S11359A09091C807981768F19091890B903F38F54A
S11359B0892F8F70907F903971F018F4903831F0FE
S11359C01EC0903B99F0903CB9F019C040E0609142
S11359D0870B2DDF14C09091880B911102C040E019
S11359E001C041E06091870B22DF09C09091870BD1
S11359F09B3729F486DE03C08091870B6EDC1092FE
S1135A00C8070895CF92DF92EF92FF920F931F93EE
S1135A10CF93DF93192F107E9F71D92ED82F103278
S1135A2009F4A9C0112309F4A8C0ABC0D0FFA0C0D9
S1135A3020E2C29FC00111248D2900DEF82EE92E38
S1135A40082F8F3F09F494C0692F39DDC92E8F3F89
S1135A5009F1103231F09091D608992321F090E9A0
S1135A6003C090E901C090E8892BE7D08C2DE5D0E4
S1135A70111106C08091D608811104C080E403C0CE
S1135A8080E401C080E0D9D0103221F4F092030206
S1135A90E092040241E0103209F040E0F42E0111DA
S1135AA019C08091BC078F3F19F46E2D81E0EFDDA2
S1135AB08091BD078F3F21F44F2D6E2D82E0E7DDED
S1135AC08091BF078F3F09F053C04F2D6E2D83E0A7
S1135AD0DEDD4EC00130C9F48091BE078F3F19F45A
S1135AE06E2D82E0D4DD8091C0078F3F21F44F2DCD
S1135AF06E2D83E0CCDD8091C2078F3F09F038C062
S1135B004F2D6E2D80E0C3DD33C00230C1F480918F
S1135B10C1078F3F19F46E2D83E0B9DD8091C3076F
S1135B208F3F21F44F2D6E2D80E0B1DD8091C407AD
S1135B308F3FF1F44F2D6E2D81E0A9DD19C00330A4
S1135B40B9F48091C5078F3F19F46E2D80E09FDD75
S1135B508091C6078F3F21F44F2D6E2D81E097DD94
S1135B608091C7078F3F21F44F2D6E2D82E08FDD8A
S1135B70D695CF5F03C0C0E001C0C0E0C83008F4D0
S1135B8055CFDF91CF911F910F91FF90EF90DF9050
S1135B90CF900895CF93C0E00EC0EC2FF0E0EF5209
S1135BA0F74F8081803130F4806B47D08BE745D04C
S1135BB080E043D0CF5FC43080F3CF9108958EEF5F
S1135BC03CC008958091D5088823B1F080913D02AE
S1135BD0882321F080913D028F3F71F49FB7F894A0
S1135BE081E006C0EDE2F2E08AE0808B118A80E079
S1135BF08111F8CF9FBFE3CF08951092CD008FE1BC
S1135C008093CC00E9ECF0E0808188698083EAEC41
S1135C10F0E08081866080831092CF0B1092170D84
S1135C2010928A0B10928C0B10928B0B10928E0B8D
S1135C301092130C1092180D0895E9ECF0E0908185
S1135C409F7D9083E0918A0BF0E0E155F44F8083CF
S1135C5080918A0B8F5F8F7180938A0B90918A0B4E
S1135C6080918C0B98130DC08091180D882331F00E
S1135C708F3F39F08F5F8093180D03C081E08093CC
S1135C80180DE9ECF0E080818062808308959091A2
S1135C90CF0B8091170D981769F0E091170DF0E084
S1135CA0E157F44F80819091170D9F5F9F719093FE
S1135CB0170D08958DEF08951F920F920FB60F924E
S1135CC011240BB60F928F939F93EF93FF938091C0
S1135CD0CE00E091CF0BF0E0E157F44F8083809148
S1135CE0CF0B8F5F8F718093CF0B9091CF0B8091EF
