:100000005CC600007BC6000079C6000077C6000011
:1000100075C6000073C6000071C600006FC6000000
:100020006DC600006BC6000069C6000067C6000010
:1000300065C6000063C6000061C600005FC6000020
:100040005DC600005BC6000059C6000057C6000030
:1000500055C600000C94850B51C600004FC6000029
:100060004DC600000C94E9270C94142847C60000E4
:1000700045C6000043C6000041C600003FC6000060
:100080003DC600003BC6000039C6000037C6000070
:100090000C94EC260C942C2731C600002FC60000CF
:1000A0002DC600002BC6000029C6000027C6000090
:1000B00025C6000023C6000021C600001FC60000A0
:1000C0001DC600001BC6000019C6000017C60000B0
:1000D00015C6000013C6000011C600000FC60000C0
:1000E0000DC60000ED16F816041720173D175E1711
:1000F0006917741789179F17BD17CD17F117431884
:100100005C1871188A189218B318B318FC180419DF
:100110004E19B019DA19061A341A3C1A421AFC1888
:100120005E1A6B1A761A8B1AA41AC71AD21AD81A20
:10013000DD1AF01AC229D729C529B629C829CB2921
:10014000B929CE29BC29D129BF29D4294C6F673AB6
:1001500020000000496E697469616C69736174699B
:100160006F6E0000010045453A4D6F64756C650087
:10017000000000000000010145453A4D6964692D09
:10018000496E000000000000010245453A4D6964D7
:10019000692D4F75740000000000010345453A4D7C
:1001A000616E2D4D6F64756C65000000010445455E
:1001B0003A55534200000000000000000000010515
:1001C00045453A5265676973746572000000000026
:1001D000010645453A50726F6772616D7300000009
:1001E0000000010745453A536F66746B65797300EB
:1001F0000000000002004D6F643A4661696C000027
:1002000000000000000002014D6F643A556E6B6EF5
:100210006F77496E7000000003004F56464C3A4D10
:10022000696469496E000000000003014F56464CA6
:100230003A4D6964694F75740000000004004F5620
:10024000464C3A506970654D736700000000050028
:100250005077723A4F75707475744F6E00000000DD
:1002600054617374656E2F5265672E206CEF736551
:100270006E004D4944492D496E746572666163652F
:10028000002C426974733A004D6F64756C653A00D6
:10029000656D7074790052616E67653A20004D613A
:1002A0006E75616C3A20004D6F64756C65732063E8
:1002B0006865636B65643A20004D6F64756C6573A7
:1002C0002061737369676E65643A200048617264E7
:1002D0007761726520436F6E6669677572617469D4
:1002E0006F6E0D0A000D0A4D4944492D4F7267612A
:1002F0006E2D496E746572666163650D0A004C6F00
:10030000670D0A00656D7074790D0A006F6B20200F
:1003100020202000736176652E2E2E003C6E6F6EBD
:10032000653E00756E61737369676E6564004E2E7D
:100330006F66662073656E74004F75743A00496E7F
:100340003A004D656EF5000000000000000000005E
:100350000000000000020001000000000000010396
:100360000000000000000002000200000000000089
:10037000030103040000000000030001020000006C
:10038000000001000000000000000001000000006B
:100390000000000001000000000000000008000153
:1003A000020304050607080001020304050607000E
:1003B000000000000000000081104D656E75000017
:1003C00000000000E404DA0400000000011053748F
:1003D000696D6D656E0000006808D00400000000C3
:1003E00001104B6F7070656C323C33000000B2043A
:1003F0000116000001104B6F7070656C313C3300CA
:100400000000A8040E16000001104B6F7070656CA0
:10041000503C330000009E041B16000001104B6F7F
:100420007070656C313C32000000940428160000A6
:1004300001104B6F7070656C503C320000008A04F4
:100440003516000001104B6F7070656C503C310028
:10045000000080044216000001104D494449204F1D
:10046000666600000000BC04871C0000C1105365D4
:1004700074757000000000000809C6040000000048
:10048000503C3180000000000000503C32800000F1
:1004900000000000313C3280000000000000503CB1
:1004A0003380000000000000313C33800000000079
:1004B0000000323C33800000000000004D4F6666B3
:1004C000000000000000536574750000000000008B
:1004D0005374696D0000000000004D656E750000EA
:1004E0000000000081004D49444900000000000068
:1004F000E80500000000000001004D616E75616CB0
:1005000000000000480500000000000001005461E8
:100510007374656E000000001808000000003F13AF
:100520000100537461747573000000003C0C0000FE
:1005300000000000C10053657475700000000000E9
:10054000080900000000000081004B6F70706C65AE
:10055000720000007005000000000000C10053742C
:10056000696D6D656E000000680800000000000005
:100570008900323C33000000000000000000E10769
:10058000000059120900313C330000000000000057
:1005900000001B0B000059120900313C3200000022
:1005A000000000000000D607000059120900503C6E
:1005B00033000000000000000000190B0000591279
:1005C0000900503C32000000000000000000E2077B
:1005D000000059120900503C3100000000000000EA
:1005E00000001A0B0000591281004E6F7465734FA2
:1005F0006666000000000000871C000009004163DF
:10060000742E53656E736500000095070000A514F5
:1006100001004D494449696E0000000038060000A1
:100620000000AD14C1004D4944496F7574000000CD
:10063000B80800000000A914810043682E310000B2
:100640000000000078070000CF120000010043689E
:100650002E3200000000000078070100CF120000D9
:10066000010043682E3300000000000078070200FC
:10067000CF120000010043682E340000000000008B
:1006800078070300CF120000010043682E350000F8
:100690000000000078070400CF120000010043684A
:1006A0002E3600000000000078070500CF12000081
:1006B000010043682E3700000000000078070600A4
:1006C000CF120000010043682E3800000000000037
:1006D00078070700CF120000010043682E390000A0
:1006E0000000000078070800CF12000001004368F6
:1006F0002E3130000000000078070900CF12000002
:10070000010043682E3131000000000078070A0024
:10071000CF120000010043682E31320000000000BB
:1007200078070B00CF120000010043682E31330020
:100730000000000078070C00CF12000001004368A1
:100740002E3134000000000078070D00CF120000A9
:10075000010043682E3135000000000078070E00CC
:10076000CF120000C10043682E31360000000000A7
:1007700078070F00CF1200008100536563742E319B
:1007800000000000C8070000DA12000001005365F5
:1007900063742E3200000000C8070100DA12000066
:1007A0000100536563742E3300000000C807020087
:1007B000DA120000C100536563742E34000000009B
:1007C000C8070300DA12000087904D616E75616CF6
:1007D000000000000000E3070000000004904D69E5
:1007E000644E6F74650000000000E4070000000024
:1007F000068052616E676500000000000000E5079A
:1008000000000000C4904D616E4E6F7465000000E2
:100810000000E60700000000810854617374653130
:1008200000000000B80300002813E520010854610F
:100830007374653200000000B80301002813E5203E
:10084000010854617374653300000000B8030200AE
:100850002813E520C108546173746534000000005A
:10086000B80303002813E52081204D616E2E33006C
:1008700000000000000000008913000001204D610D
:100880006E2E3200000000000000010089130000FD
:1008900001204D616E2E31000000000000000200BA
:1008A00089130000C120506564616C0000000000E5
:1008B000000003008913000083104949490000002B
:1008C000000000000000E308000000000310494998
:1008D00000000000000000000000E408000000002C
:1008E0000310490000000000000000000000E508BF
:1008F00000000000C31050000000000000000000D5
:100900000000E6080000000081004D6F64756C6512
:1009100000000000D0090000000000000100555355
:100920004200000000000000240B00000000000056
:100930000100506F7765720000000000940900000C
:1009400000000000C100454570726F6D000000009E
:10095000580900000000000081004545536176659C
:100960000000000000000000761600000100454570
:100970004261636B757000000000000062160000A9
:10098000C1004545526573746F7265000000000038
:100990006C1600008100506F7765724F6E0000008A
:1009A00000000000A72100000100506F7765724F22
:1009B0006666000000000000B0210000C100502E5B
:1009C000526573746172740000000000B821000069
:1009D0008A004D6F645265616400000000004E03A0
:1009E0000000B7140A004D6F645772697465000007
:1009F00000004D03000000000A084D6F644F4B00DB
:100A000000000000000046020000000001004D6FE1
:100A10006454657374000000340A00000000000094
:100A2000C1004D6F6441737369676E00600B000015
:100A30000000B11481004D6F642E300000000000F2
:100A4000D40A0000C412000001004D6F642E310072
:100A500000000000D40A0100C412000001004D6F24
:100A6000642E320000000000D40A0200C41200000C
:100A700001004D6F642E330000000000D40A030013
:100A8000C412000001004D6F642E3400000000000D
:100A9000D40A0400C412000001004D6F642E35001A
:100AA00000000000D40A0500C412000001004D6FD0
:100AB000642E360000000000D40A0600C4120000B4
:100AC000C1004D6F642E370000000000D40A0700FB
:100AD000C412000081005265616400000000000043
:100AE00000000000431300000B005772697465009A
:100AF00000000000000058055B12971201005465C9
:100B000073745074726E000000000000E21D00005B
:100B1000C1004C6F6F70547374000000000000003F
:100B20007713000089004163746976650000000056
:100B30000000630B0000D914010053656E644C6F14
:100B40006700000000000000BB140000C100536EED
:100B5000644857436667000000000000ED14000081
:100B600081004D616E2E330000000000B00B0000CC
:100B7000F812000001004D616E2E320000000000EE
:100B8000B00B0100F812000001004D616E2E310023
:100B900000000000B00B0200F8120000C100506518
:100BA00064616C0000000000B00B0300F81200004C
:100BB0008100536563742E3100000000000C0000BA
:100BC000031300000100536563742E32000000001F
:100BD000000C0100031300000100536563742E3301
:100BE00000000000000C020003130000C100536568
:100BF00063742E3400000000000C03000313000097
:100C000084904E6F74654265670000000000E7083D
:100C10000000000004904E6F7465456E6400000093
:100C20000000E80800000000C5804D6F64756C6529
:100C30002F4269740000E9080000000081204C6F19
:100C4000670000000000000000000000001C000021
:100C500002404D4944492D496E000000000000004B
:100C6000841B0000C2404D4944492D4F757400005B
:100C700000000000C21B000056302E353600310047
:100C80003000546578748000457869740045696E59
:100C900080002D002B007F007E000900080000006E
:100CA0000E0E0E0E000004040404150E0400040EC3
:100CB0001504040404000D0A000011241FBECFEF28
:100CC000D1E2DEBFCDBF00E00CBF12E0A0E0B2E099
:100CD000E8E7F6E500E00BBF02C007900D92A630F2
:100CE000B107D9F72CE0A6E0B2E001C01D92AD3DFE
:100CF000B207E1F70E94A4100C943A2B81C9FC01C1
:100D00008FEF9FEF1CC0DF01119620818227282FD3
:100D100022952827022E269526952025022E2695F7
:100D200020252770082E892F269507942795902D2A
:100D300082270694279590258227BA01FD01AB01F1
:100D400041505109672BF9F60895EF92FF920F93E6
:100D50001F93CF93DF93CFEFDFEF21C07C012FEF05
:100D6000E21AF20A0E94082B9E012827822F829500
:100D70008227082E869586958025082E86958025C3
:100D80008770022E232F869507948795302D28276C
:100D90000694879530252827E901B801C7018B0102
:100DA00001501109672BD1F6CE01DF91CF911F9130
:100DB0000F91FF90EF900895FC01CA011CC0DF0164
:100DC000119620818227282F22952827022E2695EA
:100DD00026952025022E269520252770082E892F5E
:100DE000269507942795902D822706942795902580
:100DF0008227BA01FD01AB0141505109672BF9F679
:100E00000895CF93DF9382E390E00E94102BEC01D2
:100E100060E370E082E090E098DFC817D90781F4C2
:100E200081E090E00E94082B8D3451F440E350E0C3
:100E300062E070E087EE98E00E94F82A80E006C049
:100E4000809106028160809306028FEFDF91CF913F
:100E50000895CF93DF9385E391E00E94102BEC017E
:100E600060E071E085E390E070DFC817D90781F496
:100E700084E390E00E94082B893451F440E051E073
:100E800065E370E083EE97E00E94F82A80E006C0F8
:100E9000809106028260809306028FEFDF91CF91EE
:100EA0000895CF93DF938DE391E00E94102BEC0126
:100EB00065E070E088E391E048DFC817D907B1F436
:100EC00087E391E00E94082B8F3481F444E050E0E6
:100ED00068E371E083EE98E00E94F82A8CE391E0E9
:100EE0000E94082B8093950780E006C0809106023F
:100EF0008460809306028FEFDF91CF910895CF93A6
:100F0000DF9382E491E00E94102BEC0161E070E03D
:100F100080E491E01ADFC817D907A1F48FE391E0CC
:100F20000E94082B893671F480E491E00E94082B1E
:100F300080934E0381E491E00E94082B80934D033F
:100F400080E006C0809106028860809306028FEFE1
:100F5000DF91CF910895CF93DF9386E491E00E94D3
:100F6000102BEC0161E070E085E491E0EEDEC81743
:100F7000D90771F484E491E00E94082B853541F48F
:100F800085E491E00E94082B8093630B80E006C00B
:100F9000809106028860809306028FEFDF91CF91E7
:100FA0000895CF93DF9388E993E00E94102BEC0122
:100FB00068E070E080E993E0C8DEC817D90751F413
:100FC00048E050E060E973E081E495E00E94F82A8F
:100FD00080E006C0809106028068809306028FEF51
:100FE000DF91CF91089560E080E090E00E94242B93
:100FF00065E68AE993E00C94242B0895CF93DF9360
:1010000060E370E087EE98E07ADEEC010E94432A0C
:101010006DE481E090E00E94242B40E350E062E028
:1010200070E087EE98E00E94152BBE0182E390E00D
:101030000E94362BD8DF0E94512ADF91CF9108956C
:10104000CF93DF9360E071E083EE97E058DEEC0130
:101050000E94432A69E484E390E00E94242B40E04C
:1010600051E065E370E083EE97E00E94152BBE012E
:1010700085E391E00E94362BB6DF0E94512ADF9172
:10108000CF910895CF93DF9364E070E083EE98E012
:1010900036DEAC0161E070E085E997E08DDEEC01C1
:1010A0000E94432A6FE487E391E00E94242B44E0EE
:1010B00050E068E371E083EE98E00E94152B6091A8
:1010C00095078CE391E00E94242BBE018DE391E013
:1010D0000E94362B88DF0E94512ADF91CF9108951C
:1010E000CF93DF9361E070E08EE493E008DEEC01E3
:1010F0000E94432A69E68FE391E00E94242B6091CD
:101100004E0380E491E00E94242B60914D0381E422
:1011100091E00E94242BBE0182E491E00E94362BD4
:1011200062DF0E94512ADF91CF910895CF93DF9320
:1011300061E070E083E69BE0E2DDEC010E94432A7F
:1011400065E584E491E00E94242B6091630B85E4C3
:1011500091E00E94242BBE0186E491E00E94362B90
:1011600042DF0E94512ADF91CF910895CF93DF9300
:1011700061E070E087ED97E0C2DDAC0160E470E013
:1011800086E997E019DEEC010E94432A62E588E4D3
:1011900091E00E94242B6091D70789E491E00E949E
:1011A000242B40E450E06AE471E086E997E00E9475
:1011B000152BBE018AE891E00E94362B14DF0E94B5
:1011C000512ADF91CF910895CF93DF9360E072E0D1
:1011D00087E199E094DDEC010E94432A60E58CE808
:1011E00091E00E94242B40E052E06DE871E087E13D
:1011F00099E00E94152BBE018DE893E00E94362BEA
:10120000F2DE0E94512ADF91CF910895CF93DF93B0
:1012100068E070E081E495E072DDEC010E94432A11
:101220006BE48FE893E00E94242B48E050E060E9F3
:1012300073E081E495E00E94152BBE0188E993E0FC
:101240000E94362BD0DE0E94512ADF91CF91089563
:10125000D5DEF6DE17DF44DF69DF88DFB5DFD6CF06
:101260000895CF92DF92EF92FF920F931F93CF9347
:10127000DF93EB0111C07C012FEFE21AF20A0E940A
:10128000082B6E019FEFC91AD90A682FCE010E9460
:10129000242BA801E601C7018A0101501109452B41
:1012A00051F7DF91CF911F910F91FF90EF90DF9059
:1012B000CF9008950E94432A40E054E060E074E03B
:1012C00080E090E0CEDF0C94512A08950E94432ADA
:1012D00040E054E060E070E080E094E0C2DF0C9415
:1012E000512A089580E00AC0E82FF0E0EE0FFF1FBA
:1012F000E35DFD4F9FEF908311828F5F8930A0F3F4
:10130000EFE3F2E010821182128213828FEF80935A
:101310005503089582E084BD93E095BD80936E00EF
:1013200089EF87BD85B18F7785B984B1806884B92D
:10133000089587E880937A0010927B008FE780936E
:101340007C0081E080937E0010927F00E7E4F3E070
:1013500010828FEF818382838093070280E010C028
:10136000853039F4E82FF0E0E15BFC4F96E09083A4
:1013700006C0E82FF0E0E15BFC4F9AE090838F5FBE
:10138000863070F308958FEF88B987B982B911B8A4
:1013900084B3876084BB83B3876083BB8BB18F7753
:1013A0008BB98AB180688AB980E00EC0E82FF0E07E
:1013B000EE0FFF1FEE0FFF1FEE0FFF1FE95BFD4F4C
:1013C0009FEF918390838F5F803280F3109244026D
:1013D00010924302089593DD8F3F51F440E050E0B6
:1013E00060E081E098D68FEF80934E0380934D03A9
:1013F0008BB18F778BB984B3876084BB84B38B7FC9
:1014000084BB85E08A95F1F7000084B3846084BBD7
:1014100090E284B3816084BB90FD02C085E501C089
:101420008AEA88B980B1809346038093450380930C
:10143000440380934303809342038093410384B326
:101440008E7F84BB85E08A95F1F70000915009F703
:1014500090E20FC084B3816084BB82E08A95F1F78B
:1014600000C084B38E7F84BB82E08A95F1F700C010
:1014700091509111EFCF8FEF8093460290E284B3A9
:10148000816084BB8FEF88B920B190FD02C08AEAE9
:1014900001C085E58227209146028223809346027F
:1014A00084B38E7F84BB85E08A95F1F7000091506C
:1014B00031F70000000084B3816084BB84B387608F
:1014C00084BB84B38B7F84BB82E08A95F1F700C034
:1014D00084B3846084BB90E2EFE3F3E08381828392
:1014E0008481838384B3816084BB8FEF818388B9D7
:1014F000858184838681858380B18683828383838B
:1015000084838583878384B38E7F84BB389791508F
:1015100029F70000000084B3816084BB84B38D7F11
:1015200084BB18B885E08A95F1F7000084B3826027
:1015300084BB40914E0380914D03842B90914602D1
:10154000891739F050E0542F4427492B60E082E09E
:10155000E2C50895883008F06AC031E001C0330F59
:101560008A95EAF780E8809344028BB18F778BB934
:1015700084B3876084BB40E01DC020FD03C0832F7F
:10158000809501C08FEF88B9269582E08A95F1F7A2
:1015900000C084B38E7F84BB82E08A95F1F700C0DF
:1015A00084B3816084BB9F5F02C090E025EA9830DD
:1015B00020F34F5F4430C8F390E00FC082E08A957B
:1015C000F1F700C084B38E7F84BB82E08A95F1F787
:1015D00000C084B3816084BB9F5F903278F390E059
:1015E00040E050E0BA0117C0440F551F661F771F37
:1015F00082E08A95F1F700C084B38E7F84BB80B10E
:10160000832309F0416082E08A95F1F700C084B33A
:10161000816084BB9F5F903238F3109244028BB19B
:1016200080688BB9342F252F862F972F04C030E088
:1016300020E080E090E0632F722F089590E0E7E4CF
:10164000F2E080E006C02FEF21832681822B3896BE
:101650009F5F9032C0F390914E038923089581E0FB
:10166000809343029FB7F89406C0EDE2F2E082E374
:101670008283138280E08111F8CF9FBF089580910B
:101680004302813031F5DADF811114C085B1806405
:1016900085B982E1809343029FB7F89481E006C048
:1016A000EDE2F2E081E08283138280E08111F8CFE5
:1016B0009FBF08959FB7F89481E007C0EDE2F2E084
:1016C0008CE0828382E0838380E08111F7CF9FBF2B
:1016D00008958231B1F4B2DF811104C084E18093B6
:1016E00043020BC0482F50E060E085E014D585B17F
:1016F0008F7B85B980E8809343028FEF80932F0220
:1017000008958FEF80932F0208951F920F920FB6C6
:101710000F9211240BB60F92EF92FF920F931F932B
:101720002F933F934F935F936F937F938F939F93E9
:10173000AF93BF93CF93DF93EF93FF9385B180680F
:1017400085B9809145028F5F809345028370813017
:1017500009F458C138F0823009F4A5C1833009F486
:10176000C9C101C28091070281111AC190917A000A
:1017700096FD16C1282F30E0F901EE0FFF1FE20F92
:10178000F31FEE0FFF1FE95BFC4F91814091790041
:101790004183491710F4941B03C0542F591B952FF4
:1017A000943008F0FDC081110EC0423270F04F330A
:1017B00070F0483670F0463970F04F3B70F0483E9C
:1017C00070F4C6E00DC0CFEF0BC0C4E009C0C3E0A9
:1017D00007C0C5E005C0C1E003C0C2E001C0CFEF53
:1017E000F901EE0FFF1FE20FF31FEE0FFF1FE95B82
:1017F000FC4FD281DC1709F448C0DF3F19F0CF3F1E
:1018000009F0CFEFF901EE0FFF1FE20FF31FEE0F0C
:10181000FF1FE95BFC4FC283DF3FF9F4C901880F6A
:10182000991FFC01E20FF31FEE0FFF1FE95BFC4F56
:1018300015821482FC01E20FF31FEE0FFF1FE95B1C
:10184000FC4F1382EC2FF0E0E25BFC4F808180FFC5
:10185000A7C08C2F0E94D421A3C0ED2FF0E0E25B43
:10186000FC4F808181FF9CC0F901EE0FFF1FE20F4A
:10187000F31FEE0FFF1FE95BFC4F8381837009F0BC
:101880008FC08D2F0E94D4218BC0CF3F09F488C018
:10189000F901EE0FFF1FDF01A20FB31FAA0FBB1F3D
:1018A000A95BBC4F14968D919C9115970196159646
:1018B0009C938E931497FD01848195818D359105BC
:1018C000A9F4ED2FF0E0E25BFC4F808182FF0EC0B7
:1018D0008C2F80680E94D421E091070286E0E89F67
:1018E000F0011124E95BFC4F82E08383ED2FF0E0EF
:1018F000E25BFC4F808183FF53C08091070290E040
:10190000FC01EE0FFF1FE80FF91FEE0FFF1FE95B51
:10191000FC4F238121111EC0FC01EE0FFF1FE80FB9
:10192000F91FEE0FFF1FE95BFC4F248135812B343B
:101930003105B1F526E0289FF001299FF00D112413
:10194000E95BFC4F81E08383158214828C2F0E9417
:10195000D42126C0FC01EE0FFF1FE80FF91FEE0F88
:10196000FF1FE95BFC4F23812130D1F426E0289F43
:10197000F001299FF00D1124E95BFC4F2481358192
:101980002C30310569F426E0289FF001299FF00DE5
:101990001124E95BFC4F158214828C2F0E94D42104
:1019A000809107028F5F80930702843010F01092BD
:1019B00007028091070281110CC090E0FC01EE0F3C
:1019C000FF1FE80FF91FEE0FFF1FE95BFC4F80813F
:1019D00001C08FE1982F9F71906690937C00EBE798
:1019E000F0E02081807290E0959587959595879598
:1019F000922F9F7D892B8083EAE7F0E080818064CD
:101A00008083B1C080914402803809F4ACC084B3B3
:101A1000876084BB84B38B7F84BB20914D0320956A
:101A2000E2E0EA95F1F700C084B3846084BB90E201
:101A3000EFE3F3E0838182838481838384B38160D5
:101A400084BB8181822B88B985818483868185834B
:101A500080B1868384B38E7F84BB3897915051F7D1
:101A60000000000084B3816084BB84B38D7F84BB9D
:101A70008091440282608093440218B88BB18068E0
:101A80008BB984B3826084BB6EC0808181508E3FED
:101A900038F421812F5F253010F0808320E02183EE
:101AA00032969F5F03C090E0EDE2F2E0993068F378
:101AB000EFE3F2E080818F5F80838A3F09F053C0BB
:101AC0008FEF80935503108281818F5F81838C33E8
:101AD00008F449C0118282818F5F82838C3308F4BD
:101AE00042C0128283818F5F83838436E0F110923B
:101AF000420239C0809144028038A9F1E0904E033F
:101B0000F12C07E412E02CC0F801C28183819C2FE4
:101B10009823C82B84819823C82B25819223C22B1C
:101B200086819823C82BD781CD23C92BC7838D2FBE
:101B300080958C238E2121F09F2D90620E9414228B
:101B4000C095CD238C2F8E2119F09F2D0E94142239
:101B5000085F1F4F80914402816080934402F39498
:101B6000FFE1FF1588F685B18F7785B9FF91EF9179
:101B7000DF91CF91BF91AF919F918F917F916F91A5
:101B80005F914F913F912F911F910F91FF90EF9097
:101B90000F900BBE0F900FBE0F901F9018958FEFF8
:101BA00082B985B988B98BB98EB981BB84BB809362
:101BB0000201809305018093080180930B018AB193
:101BC00080688AB98BB18F778BB984B1806484B90E
:101BD00085B18F7B85B90895882334F4E2E0F1E084
:101BE00090819061908305C0E2E0F1E090819F7E5A
:101BF000908386FF06C0E2E0F1E0908198609083D8
:101C000005C0E2E0F1E09081977F908385FF04C0FA
:101C10009EB198609EB903C09EB1977F9EB984FF24
:101C200004C084B3806284BB03C084B38F7D84BB53
:101C3000E2E0F1E080818064808385E08A95F1F7BD
:101C4000000080818F7B808385E08A95F1F700001A
:101C50000895CF93C82FE2E0F1E080818062808315
:101C600080818F7B80838C2FB7DF8C2F8295807F44
:101C7000B3DF8FEF90E00197F1F700C00000CF9144
:101C80000895CF93C82FE2E0F1E080818F7D8083BB
:101C900080818F7B80838C2F9FDF8C2F8295807F2C
:101CA0009BDFC150C23038F48FE097E20197F1F723
:101CB00000C0000006C08FEF90E00197F1F700C070
:101CC0000000CF910895E1E0F1E0808180618083A0
:101CD0008081886080838DB188608DB983B3806294
:101CE00083BB8081806480838081806280832FEFCA
:101CF00081EE94E0215080409040E1F700C0000068
:101D0000E2E0F1E080818F7D808380818F7B808322
:101D100080E362DF8FE19EE40197F1F700C00000ED
:101D200080E35ADF8FE19EE40197F1F700C00000E5
:101D300080E352DF8FE19EE40197F1F700C00000DD
:101D400088E24ADF8FEF90E00197F1F700C00000D2
:101D500088E297DF88E095DF81E093DF86E091DF1E
:101D60008CE08FCF08958093560380588ACF0895D2
:101D70001092560381E085CF0895909156039F5F9E
:101D80009F739093560365CF0895CF93DF93FC0123
:101D9000892B19F407C0F1DFFE01EF012196808144
:101DA0008111F9CFDF91CF910895CF93DF93FC019B
:101DB000892B19F407C0E1DFFE01EF012196849120
:101DC0008111F9CFDF91CF91089580E893E090934E
:101DD00013058093120590931105809310050895C3
:101DE00080911005909111052091120530911305F5
:101DF0008217930748F0821B930B959587959DEC6E
:101E0000899F802D1124089580579E4F821B930B2C
:101E1000959587959DEC899F802D11240895CF93EA
:101E2000C82FDEDFC817F8F4409112055091130552
:101E30008C2F90E09C01220F331F880F991F880F71
:101E4000991F880F991F280F391FCA01820F931FEE
:101E500065E08630960749F040F020593140CA01CC
:101E6000820F931F02C080E090E0CF910895D7DFEA
:101E70000097F1F1FC013681678120E034C0422FE8
:101E800050E0FA01EE0FFF1FCF01880F991F880F56
:101E9000991F880F991FE80FF91FEE5AFE4F849182
:101EA000381320C0FA01EE0FFF1FCF01880F991FD2
:101EB000880F991F880F991FE80FF91FED5AFE4FE1
:101EC000849168130FC0440F551FCA01880F991FD2
:101ED000880F991F880F991F480F591FCA018C5AE4
:101EE0009E4F08952F5F2F3050F280E090E00895CC
:101EF00080E090E00895CF9373DF10925703811133
:101F000014C017C08C2F8BDF009761F0FC01248177
:101F1000203251F095818C2F953439F48FEF8093D6
:101F2000570307C08C2F01C08C2FCFEFC80F811132
:101F3000E9CFCF9108951F93CF93DF93009709F4D2
:101F40007BC0162FEC018B81882379F068E573E064
:101F50000E94D128BC016F5F7F4F28E6FC012083DF
:101F60008A810E94D128DC012FC08A81882379F0E0
:101F700068E573E00E94D128BC016F5F7F4F2DE6BA
:101F8000FC01208389810E94D128DC011DC068E505
:101F900073E089810E94D128FC0183E780839881C6
:101FA000990F20E002C099512F5F9931E0F7205D31
:101FB0002183990F20E002C095502F5F9530E0F704
:101FC000DF011396205D22839C81903451F090387C
:101FD00019F0903281F40AC0FD0131968AE28C93A7
:101FE0000EC0FD01319685EA8C9309C0FD01319642
:101FF00080E28C9304C0FD0131968FE38C93BF0186
:102000006F5F7F4F8D8180838E810E94ED28BC01A0
:102010008F810E94ED28BC016F5F7F4F2DE2FC0194
:102020002083888599850E940529FC0110821F3F25
:1020300041F01C8360DF05C0E8E5F3E08DE28083BA
:10204000118288E593E0DF91CF911F910895E0918F
:102050001005F0911105AFE3B2E09C919083E091FF
:102060001005F091110511969C9111979183E091C3
:102070001005F091110512969C9112979283139678
:102080009C9193832583868367835187408780E86B
:1020900084838091630B8F3F81F48CE491E00E94F4
:1020A0008B276FEF809110059091110544DF0E94FE
:1020B000D32786EB9CE00E948B278091100590919E
:1020C00011050A969093110580931005865095404E
:1020D00039F030F080E893E090931105809310057B
:1020E00020911005309111058091120590911305F2
:1020F0002817390779F40A969093130580931205EF
:102100008650954039F030F080E893E090931305C5
:1021100080931205089525E49ADF8FEF809357038B
:10212000089527E594CF0895CF93C62F78DE0097C2
:1021300019F06C2F00DF06C0E8E5F3E08DE2808344
:102140001182CF01CF9108952ADD3FDE0E94A127A1
:102150000E94CD21DFD8C6D8ECD815D90E948D2693
:102160003AD90E94E0220E9412230E9455220E9426
:102170009B230E9481206CD810926105A4DD0E94EF
:102180006E28F6DD83E4EFDD82E792E00EDE8BE180
:10219000EADD88E79CE009DE78942FEF87EA91E694
:1021A000215080409040E1F700C00000E1DD57DAA7
:1021B0008FEF8093920780931405DFEF0E94012236
:1021C0008823B9F10E94E821C82F863829F480E0DD
:1021D0000E94871C0E94D824809114058F3FD1F45F
:1021E0008C2F8F73C53051F460E070E080E090E098
:1021F00087D50E946C1E109214051BC09FEF980F8C
:102200009430B8F40E9432216C2F0E9447218093B1
:1022100014050FC080916105811106C08C2F0E94AA
:10222000731E8093140505C08DEF809352050E94A4
:10223000DA1C809114058F3F41F4DF3F39F40E948E
:10224000061E0E94F320D0E001C0DFEF80913B0228
:10225000811109C0C09156030E94D31C8C2F83DDCD
:102260008FEF80933B028091390281110AC08091E7
:102270006105882319F00E94DA1C03C08FEF809358
:10228000390280912F0281111AC0F9D90E9493213D
:10229000809114058F3F99F4C091560384E163DD6A
:1022A00080914302813021F480E692E07EDD05C01A
:1022B000823119F484E10E94132A8C2F54DD0E948C
:1022C00072260E94E224C0915603809102028F3F41
:1022D00091F180E048DD809100028F3F69F48091A8
:1022E00001020E94F0298FE348DD809102020E94E2
:1022F0009F2980E242DD0CC0809102020E949F294A
:102300008EE73BDD809100020E94012A80E235DDEC
:102310008C2F29DD8FEF809302029FB7F89481E024
:1023200006C0EDE2F2E082E38087118680E0811151
:10233000F8CF9FBF0DC080913502811109C013DD18
:1023400086E00E94132A8C2F0EDD8FEF80933502DA
:10235000809104028F3FF9F08FE005DD8091030248
:102360000E94012A8EE709DD809104020E949F29C4
:102370008C2FF9DC8FEF809304029FB7F89481E0F3
:1023800006C0EDE2F2E082E38287138680E08111ED
:10239000F8CF9FBF0EC08091370281110AC08FE035
:1023A000E2DC85E00E94132A8C2FDDDC8FEF809326
:1023B0003702809155038F3F09F05CC0109255039E
:1023C000F0905603C091AF0CCF3F11F40E943D2A0C
:1023D00080914202882359F08091400280FD0EC016
:1023E0000F2EFAE3EF2EF02D02E412E00CC00F2EB8
:1023F000FAE3EF2EF02D01E412E005C06894EE241C
:10240000E5F802E412E087E0AEDCF80180810E948A
:10241000B7288E2DB2DCF801319780810E94B72851
:102420004091A60B442331F050E060E083E073DE7E
:102430001092A60B4091AB0C442331F050E061E0C8
:1024400083E069DE1092AB0C8091430284FF02C0EE
:1024500080E201C089E091DC809157038F3F11F445
:1024600085E401C080E289DC8F2D7DDCCF3F11F453
:102470000E94362A809193078F3F39F41092930778
:1024800040E050E060E084E046DE9091620B809195
:10249000AA0C981721F00E94D7260E9448250E9476
:1024A0004B228F3F09F08ACE0E9436220E94D62509
:1024B00085CE80E00895109258051092590510922B
:1024C0005A0510925B0581E090E000901D0502C066
:1024D000880F991F0A94E2F7482F30E0EFE3F3E00A
:1024E00022C08091580590915905A0915A05B0914C
:1024F0005B05880F991FAA1FBB1F809358059093F7
:102500005905A0935A05B0935B052181242349F016
:1025100081608093580590935905A0935A05B09314
:102520005B0538973F5F3032E0F280E008954091DC
:1025300058055091590560915A0570915B05853099
:1025400009F5A1E0B0E000901D0502C0AA0FBB1F75
:102550000A94E2F73A2F90E0EFE3F3E011C077231B
:1025600024F48181832B818305C021818A2F80956A
:1025700082238183440F551F661F771F38979F5F03
:10258000903268F380E00895E0915405F09155058C
:102590003E968591959180931D0580E00895E09188
:1025A0005405F09155053E9685919591809353057C
:1025B00080E00895E0915405F09155053E962591EF
:1025C000359120935E05809153058F7090E02370C4
:1025D000880F991F880F991F820F911D880F991FCF
:1025E000880F991F90935D0580935C0580E00895A6
:1025F000E0915405F09155053E9685919591809313
:102600001C0580E00895E0915405F09155053E9633
:102610008591959180935E0520911C052F7030E087
:10262000837090E0A901440F551F240F351F220F1E
:10263000331F220F331FAC01440F551F840F951F0A
:10264000820F931F90935D0580935C0580E0089551
:10265000E0915405F09155053E9685919591843011
:1026600060F4FC01FF27EE0FFF1FEF5BFA4F808144
:10267000918190936D0580936C0580E008950E9490
:10268000060980E00895CF92DF92EF92FF9281E0F9
:1026900090E000901D0502C0880F991F0A94E2F790
:1026A000282F90E0EFE3F3E0C12CD12C76010BC092
:1026B000CC0CDD1CEE1CFF1C8681822311F068947B
:1026C000C0F838979F5F903298F38EE14CDBC09250
:1026D000B10CD092B20CE092B30CF092B40C0E9408
:1026E000922880E0FF90EF90DF90CF9008958EE1E8
:1026F0003ADB80911D050E94AA0A6093B10C709389
:10270000B20C8093B30C9093B40C0E94922880E09A
:102710000895CF938F3F09F077C080930C021092F9
:102720000B02E0915405F09155053E9685919591E7
:1027300080931C05843010F010921C0520E039C0F5
:1027400080911C0590E0E22FF0E0DF01AA0FBB1F93
:10275000AD014E0F5F1FDC01AA0FBB1FA80FB91FF1
:10276000AA0FBB1FAA0FBB1FA40FB51FA951B74FBC
:102770003C9140910C02341710F430930C02AF01DD
:10278000440F551FE40FF51FAC01440F551F840F74
:10279000951F880F991F880F991FE80FF91FE9519E
:1027A000F74F818190910B02981710F480930B02E0
:1027B0002F5F243028F280910C0288234CF48EE1A4
:1027C000D2DA83E293E0F1DA8FEF80934B0504C015
:1027D00080934B0510920A0268E87CE080E00E943A
:1027E0005F2A6DE87CE081E00E945F2A62E97CE07C
:1027F00082E00E945F2A64E97CE083E00E945F2A15
:102800000E94AE2ACFEF71C060914B056F3F09F473
:1028100061C08130D9F480910B02681708F05CC068
:1028200040E080911C050E941E2460914B056F5F63
:1028300060934B0580910A02813009F04FC041E05E
:1028400080911C050E941E24CFEF4FC08430D1F42C
:1028500080910C02861708F043C040E080911C056F
:102860000E941E2460914B05615060934B0580913E
:102870000A028130B9F541E080911C050E941E24B6
:10288000CFEF33C0833091F480910A02811104C0EC
:1028900081E080930A0202C010920A0240910A026B
:1028A00080911C050E941E24CFEF1FC0823011F0C2
:1028B000863039F440E080911C050E941E24C0E05F
:1028C00014C0853089F440E080911C050E941E24CC
:1028D000C0E00BC0C0E009C0CFEF07C0CFEF05C01C
:1028E000CFEF03C0CFEF01C0CFEFCF3F59F58091BD
:1028F0004B058F3F29F18EE136DA80914B050E941E
:102900009F2980E23ADA80910A02811107C081E6AC
:1029100034DA85E732DA83E730DA06C085E62DDA85
:1029200089E62BDA8EE629DA61E080910A028111CC
:1029300001C060E081E00E94CD2A81110E94AE2A90
:102940008EE111DA8C2FCF9108950E94420880E029
:1029500008950E94420880E008950E94200880E0C7
:1029600008950E94FE070E94442380E008950E947B
:10297000700880E00895CF938EEF92E00E948B273D
:102980002FDA81110FC084E093E00E948B270EC0E4
:102990006FEF8C2FC9DB0E94D32786EB9CE00E944F
:1029A0008B278C2FCFEFC80F8111F2CF80E0CF9112
:1029B00008950E9496088091630B8F3F61F485EE25
:1029C00092E00E948B2788E79CE00E948B2786EB91
:1029D0009CE00E948B2780E008959F92AF92BF9267
:1029E000CF92DF92EF92FF920F931F93CF93DF93DB
:1029F0008CEC92E00E948B2789EB92E00E948B275F
:102A000065EB7CE080914E030E94ED2822E7FC01FB
:102A10002083BC016E5F7F4F20E2218380914D03B4
:102A20000E94ED2827E7FC01208385EB9CE00E94B3
:102A3000D3270E949D2787EA92E00E948B2765EBAF
:102A40007CE0809146020E94ED2885EB9CE00E948C
:102A5000D3270E949D27E12CB5C08EE992E00E9409
:102A60008B2765EB7CE08E2D0E947E2985EB9CE018
:102A70000E94D3270E949D27F12C9FC086E992E0F7
:102A80000E948B2780E38F0D0E9465278DE20E94B4
:102A9000652780E20E9465270E2D10E0CF2CD12CF7
:102AA000E601CC0FDD1FCE018C0D9D1DE801CC0F82
:102AB000DD1FC00FD11FCC0FDD1FCC0FDD1FC80FD6
:102AC000D91FC951D74F65EB7CE088810E94ED2862
:102AD000BC016F5F7F4F6894BB24B5F8FC01B082E6
:102AE00089810E94ED28BC016F5F7F4FFC01B0829D
:102AF0008A810E94ED282DE3FC01208385EB9CE078
:102B00000E94D327888188232CF480E992E00E94D8
:102B10008B2750C065EB7CE00E942229BC016F5FCF
:102B20007F4F0F2EFDE29F2EF02DFC019082F601CB
:102B3000EE0FFF1FCE0EDF1E5801AA0CBB1CE501D5
:102B4000C00FD11FCC0FDD1FCC0FDD1FCC0DDD1D45
:102B5000C951D74F89810E94222920E2FC0120839C
:102B600085EB9CE00E94D32788E892E00E948B27A7
:102B70008A81829586958770805D0E94652781E8AD
:102B800092E00E948B278A8165EB7CE08F710E9426
:102B9000D128BC016F5F7F4FFC0190828A819981AF
:102BA00028818F71890F821B0E94D12885EB9CE0C0
:102BB0000E94D3270E949D27F394F3E0FF1508F0AD
:102BC0005DCFE39483E08E1508F047CF80E0DF917E
:102BD000CF911F910F91FF90EF90DF90CF90BF901A
:102BE000AF909F900895882321F0FB01808180950C
:102BF0008083FB018081811102C082E8089581E811
:102C00000895CF9361EE77E0EEDFC82F823819F494
:102C100081E00E94AC248C2FCF910895CF936BE17B
:102C20007BE0E1DFC82F823819F482E00E94AC24F7
:102C30008C2FCF910895CF9369E17BE0D4DFC82F2B
:102C4000823819F483E00E94AC248C2FCF91089530
:102C5000CF9366ED77E0C7DFC82F823819F482E0A2
:102C60000E94AC248C2FCF910895CF9362EE77E031
:102C7000BADFC82F823819F483E00E94AC248C2F6D
:102C8000CF910895CF936AE17BE0ADDFC82F823802
:102C900019F483E00E94AC248C2FCF9108958EE12B
:102CA00062D88CE093E081D89FB7F89481E006C0A9
:102CB000EDE2F2E084E68687178680E08111F8CFA6
:102CC0009FBF08958EE14FD884E193E06ED80E94B3
:102CD0005A09E5DF80E008958EE145D884E193E06C
:102CE00064D80E946609DBDF80E008958EE13BD85E
:102CF00084E193E05AD80E942809D1DF80E008954A
:102D000010921505009769F484EE94E090935505B0
:102D10008093540582E493E090934A05809349059B
:102D200008C0909355058093540570934A056093AD
:102D300049058FEF80931B058CE493E090931F056A
:102D400080931E05089566E97CE082E00C945F2A7A
:102D5000089568E97CE083E00C945F2A08956AE9AD
:102D60007CE081E00C945F2A08956CE97CE080E0CF
:102D70000C945F2A089580911A058A3031F46EE729
:102D80007CE080E00C945F2A089564E97CE080E0B8
:102D90000C945F2A089580911A058A3031F460E816
:102DA0007CE081E00C945F2A089562E97CE081E098
:102DB0000C945F2A0895CF93DF93E0911A058E2F2C
:102DC00090E0FC013297EA30F10508F0BFC0882797
:102DD000EE58FF4F8F4F0C94F02A80916005E3E688
:102DE000F5E0982F92959F7090838F708183AEC08D
:102DF00080916005803120F08FEF80936305A6C03D
:102E00008F5F80936305A2C080916005882334F4AE
:102E1000E3E6F5E010828FEF818398C0109264059D
:102E200008C0E3E6F5E091819F5F91838C50809329
:102E30006005809160058C30A0F78093630586C0A3
:102E400080916005E3E6F5E0982F9295969597704E
:102E500090838F7180936005118208C0E3E6F5E0EE
:102E600091819F5F91838A50809360058091600576
:102E70008A30A0F78093650569C0E3E6F5E010822B
:102E8000118208C0E3E6F5E090819F5F908384564D
:102E900080936005809160058436A0F708C0E3E662
:102EA000F5E091819F5F91838A50809360058091C6
:102EB00060058A30A0F78093650548C08091600561
:102EC000843020F08FEF8093630540C080936305CA
:102ED0003DC080916005843020F083E080936305DD
:102EE00035C08093630532C080916005809363058F
:102EF0002DC0E92FF0E080916005282F221F2227A6
:102F0000221FED59FA4F2083880F809360059F5F41
:102F100001C090E0983068F319C08250F0E0DE0103
:102F20009D91ED59FA4F9F709083E82FF0E09881C2
:102F3000ED59FA4F92959F709083ED0103C0CEE456
:102F4000D5E088E0EFEFE80F8111E7CFDF91CF9177
:102F500008950F931F93CF93DF93E0911A058E2F5F
:102F600090E0FC013297EA30F10508F0FFC08827B5
:102F7000E458FF4F8F4F0C94F02A03E615E0F80158
:102F800080810E944428C3E2D2E08883F8018181D5
:102F90000E94442889831A82E9C0E3E2F2E083E4D4
:102FA000808388E68183809163058F3F29F480E2E6
:102FB00082838DE2838312C08A3048F0C3E2D2E07C
:102FC00091E39A838A500E9444288B8307C0C3E20E
:102FD000D2E090E39A830E9444288B8310922702C8
:102FE000C5C0809163058F3F21F0909164059F3F9C
:102FF00059F4E3E2F2E08EE680839FE691838283D8
:1030000085E683831482B2C09FE5909324028B30BF
:1030100021F488E48093230220C0853058F4982F4F
:1030200096959D5B9093230280FF17C083E2809367
:10303000240213C0282F30E02550310935952795FB
:103040002A5B2093230280FD03C083E28093240245
:10305000283419F481E4809323028091640581115E
:1030600004C08DE6809325020BC08C3030F4815073
:103070000E9444288093250203C08DE2809325029C
:103080001092260273C0C3E2D2E08DE4888303E687
:1030900015E0F80180810E944428898382E48A83B4
:1030A000F80181810E9444288B83F80182810E946B
:1030B00044288C831D825AC003E615E0F801808104
:1030C0000E944428C3E2D2E08883F80181810E94F3
:1030D00044288983F80182810E9444288A831B82C4
:1030E00045C080916305833038F4E3E2F2E093E376
:1030F000981B908311823AC0833031F4E3E2F2E00E
:1031000080E58083118232C0E3E2F2E08DE28083C9
:1031100011822CC080916305E3E2F2E0805D808340
:10312000118224C08FE68093230280916305811170
:1031300007C0E3E2F2E086E681838283138216C051
:10314000E3E2F2E08EE68183128210C0C12FD0E06C
:10315000FE01ED59FA4F80810E944428CD5DDD4F7C
:1031600088831F5F01C010E0183080F3DF91CF919A
:103170001F910F9108950F931F93CF938EE10E949B
:10318000B30EC0E003E212E00BC0F8018081882397
:1031900019F00F5F1F4F01C080E20E94BD0ECF5F8C
:1031A000CA3098F3CF911F910F9108958A301CF483
:1031B00088231CF0089580E0089589E008950F9316
:1031C0001F93CF93DF93C82FE0915405F0915505DD
:1031D00031968491282F2071E0911A058E2F90E06E
:1031E000FC013297EA30F10508F053C18827EA570D
:1031F000FF4F8F4F0C94F02AD0E0CD59DA4F8881E1
:10320000680F6F70688345C121111AC0613041F4A5
:1032100080916305803121F481E08093630539C199
:103220006F3F41F480916305813021F480E1809308
:1032300063052FC1E3E6F5E08081680F608329C153
:10324000613041F480916305803121F48FEF8093E8
:1032500063051FC1613041F4809163058F3F21F404
:1032600081E08093630515C16F3F41F48091630550
:103270008F3F21F480E1809363050BC16F3F41F4E0
:1032800080916305813021F48FEF8093630501C144
:10329000E3E6F5E08081680F6083FBC08091640500
:1032A0008F3F09F4C1E0C11116C0809163058C30D5
:1032B00050F48B3011F4613041F0811102C06F3F46
:1032C00031F0680F05C060E003C060E001C06BE052
:1032D000609363052BC021110AC0811102C06F3FAA
:1032E000C1F08A3011F46130B1F0680F1DC0811156
:1032F00002C06F3F91F08A3011F4613081F08F3F4E
:1033000011F4613071F08F3F11F46F3F61F0680F7D
:103310000BC06AE009C060E007C06FEF05C06FEF47
:1033200003C060E001C06AE06093640590916305AA
:103330009F3F09F4AEC0809164058F3F09F4A9C096
:10334000282F220F820F282F220F220F920F0AF010
:10335000A0C0E3E6F5E087E080838AE0818399C03E
:10336000C11107C0E3E6F5E08081680F67706083F4
:1033700090C0D0E003E615E0CD59DA4F8881860F82
:1033800015DF8883F80181819281880F282F220F11
:10339000220F820F890F80322CF083E0818381E03D
:1033A000828377C088230CF074C0E3E6F5E01182D5
:1033B00012826FC0D0E003E615E0CD59DA4F888164
:1033C000860FF4DE8883F8012081818190E0AC01D2
:1033D000440F551F880F991F880F991F880F991F39
:1033E000840F951FF4E62F9F800D911D1124F80185
:1033F0002281820F911D8F3F910509F00CF449C085
:1034000082E0808385E08183828343C0222399F018
:10341000D0E0FE01ED59FA4F8081680F608364307F
:1034200019F48FEF808335C06E3F99F5CD59DA4F8F
:1034300083E088832EC0D0E0FE01ED59FA4F8081F1
:10344000811105C06F3F19F483E0808322C083306F
:1034500031F4613021F4CD59DA4F18821AC0CD59B8
:10346000DA4F680F688315C0D0E0CD59DA4F8881F4
:10347000680F637068830DC0E3E6F5E08081809596
:10348000808307C0D0E081E061FD80E0CD59DA4F54
:103490008883DF91CF911F910F910895E0911A05D4
:1034A0008E2F90E0FC013297EA30F10508F0B8C0A9
:1034B0008827E057FF4F8F4F0C94F02AE3E6F5E0A2
:1034C000808120E1829FC001112491819F70892B0E
:1034D000809360050895809163058F3F19F4809370
:1034E000600508958150809360050895909163056B
:1034F0009F3F21F0809164058F3F21F48FEF8093EF
:1035000060050895282F220F820F880F880F890FDA
:10351000809360050895E3E6F5E0808130E2839FC3
:10352000C001112421813281220F422F440F440F08
:10353000240F230F203220F08F61809360050895BF
:10354000822B809360050895E3E6F5E02081818178
:1035500090E0AC01440F551F880F991F880F991FE9
:10356000880F991F840F951F34E6239F800D911DAE
:1035700011242281820F911D8F3F910529F020F0A7
:103580008FEF809360050895809360050895809182
:10359000630580936005843008F442C08FEF809308
:1035A0006005089580916305837080936005089598
:1035B000809163058093600508951092600580E016
:1035C0000CC090916005990FE82FF0E0ED59FA4F8B
:1035D0002081920F909360058F5F883090F308955B
:1035E00010924E0510924F05109250051092510501
:1035F000AEE4B5E088E010C08250F0E0ED59FA4F3B
:103600009081E82FF0E0ED59FA4F208130E1239FBF
:10361000900D11249C931196EFEFE80F8111ECCFE0
:1036200008950F931F93CF93DF938C01D62FC0E0A3
:103630000CC0F8018491882319F00F5F1F4F02C05E
:103640008D2FD0E20E94BD0ECF5FCA3090F3DF9184
:10365000CF911F910F91089580E40E94B30EE091E5
:103660001505E11107C06AE38091490590914A056B
:10367000D8CF0895F0E03197EE0FFF1FE05EFA4FCC
:10368000808191816AE30296CCCF0895E091540540
:10369000F091550584918F7390E002971CF08BDBBD
:1036A00058DC69CD0895E0911E05F0911F058091C9
:1036B0001B05E80FF11D31968491825E0E94B30EC6
:1036C00020911B0530E0E0911E05F0911F058491CB
:1036D00090E001972817390714F43BDB03C083E01F
:1036E0000E949A2A80911B05882311F02CDB03C0CD
:1036F00082E00E949A2A3FDB4EDB0C94AE2A0895AA
:1037000084E10C94B30E08950F931F93CF93F8DFC9
:103710008EE393E00E94D50E8091AC0C9091AD0C9D
:103720000E9497298DE20E94BD0E8091AC0C909171
:10373000AD0C049730F48091AC0C9091AD0CC82F77
:1037400001C0C4E00091620B10E00F5D144F13C084
:103750008BE00232180710F0F80102C0E1E4FBE050
:103760008F010150110980810E947B28C15019F0FE
:1037700080E20E94BD0EC111EBCF80E0CF911F917E
:103780000F9108950F931F93CF93BADF89E393E0CE
:103790000E94D50E8091A70B9091A80B0E949729AB
:1037A0008DE20E94BD0E8091A70B9091A80B04970B
:1037B00030F48091A70B9091A80BC82F01C0C4E0F2
:1037C00000911D0B10E00F5B144F13C08BE002340F
:1037D000180710F0F80102C0E1E6FBE08F0101508C
:1037E000110980810E947B28C15019F080E20E945B
:1037F000BD0EC111EBCF80E0CF911F910F910895C5
:10380000CF93DF938F3FA9F40E94F00E81508093F5
:1038100009021092080268E87CE080E00E945F2ABA
:1038200062E87CE081E00E945F2A0E94AE2ACFEF2E
:103830002EC0843049F480910902882319F1815007
:1038400080930902CFEF23C0813089F4C09109022F
:10385000D0E021960E94F00E90E0C817D907A4F49A
:10386000809109028F5F80930902CFEF10C08330EF
:1038700011F0853059F480910802809580930802F8
:10388000CFEF05C0CFEF03C0CFEF01C0C0E0CF3F07
:10389000B1F584E10E94B30E0E94F00E811106C0C2
:1038A0008CE193E00E94D50EC0E01DC0809109021A
:1038B0008F5F0E94B7288AE30E94BD0E80910802A4
:1038C000811108C060E2809109020E9494100E9458
:1038D000C50E06C0809109020E94370F0E94D50EC6
:1038E0000E941F2A0DDF61E0809108028F3F09F0DE
:1038F00060E081E00E94CD2A81110E94AE2A8C2FC7
:10390000DF91CF9108958AE40C94B30E08958EE16F
:103910000E94B30E8EE293E00E94D50E9FB7F894FA
:1039200081E006C0EDE2F2E084E68687178680E05B
:103930008111F8CF9FBF0E945A26E5DF80E00895ED
:10394000CF9389E40E94B30EE0915405F0915505A0
:10395000C491C07CC03839F480E20E94BD0E82E080
:103960000E949A2A04C08FE70E94BD0EECD9C03C89
:1039700029F483E00E949A2AC0E202C0EAD9CEE785
:10398000F4D9EDD980915405909155056C2F02968C
:1039900048DE0E94AE2AB7DFCF910895B1DE8AE0FB
:1039A0000C94132A08958EE10E94B30E8AE00C94C1
:1039B000132A0895809152058F3F19F08D3F09F029
:1039C0004AC00E943D2AEFDF1092920790E0E7E4A0
:1039D000F2E007C0218180916105822B81833896B6
:1039E0009F5F9032B8F3809152058F3F19F4109287
:1039F000520577C08EE10E94B30E81E60E94BD0E93
:103A000082E60E94BD0E8FE60E94BD0E82E70E94F4
:103A1000BD0E84E70E94BD0E8EEF809352059FB7C6
:103A2000F89481E006C0EDE2F2E082E084878587C9
:103A300080E08111F8CF9FBF9FB7F89481E006C066
:103A4000EDE2F2E084E68687178680E08111F8CF08
:103A50009FBF59DF46C08E3F41F48FEF809392079E
:103A6000109261050E94362A3CC040911605509183
:103A7000170560911805709119057695679557950A
:103A8000479540931605509317056093180570935A
:103A90001905E82FF0E0DF01AA0FBB1FAA0FBB1F1B
:103AA000AA0FBB1FA95BBD4F16962C919091610583
:103AB000292349F4706840931605509317056093C5
:103AC000180570931905EE0FFF1FEE0FFF1FEE0F85
:103AD000FF1FE95BFD4F2181922B91838F5F8093C4
:103AE0005205E0915205E03228F5F0E0EE0FFF1F9D
:103AF000EE0FFF1FEE0FFF1FE95BFD4F8091610589
:103B0000982F90958181892381838EE10E94B30E45
:103B1000809152050E94B7289FB7F89481E006C0B3
:103B2000EDE2F2E088E08487158680E08111F8CF2D
:103B30009FBF0895E03209F044C08EE10E94B30EA9
:103B40008091160590911705A0911805B09119055F
:103B50000097A105B10539F48FE60E94BD0E8BE6F2
:103B60000E94BD0E10C08093B10C9093B20CA09334
:103B7000B30CB093B40C85E40E94BD0E8AE30E949E
:103B8000BD0E0E9492288EEF809352059FB7F89445
:103B900081E006C0EDE2F2E082E08487858780E084
:103BA0008111F8CF9FBF9FB7F89481E006C0EDE286
:103BB000F2E084E68687178680E08111F8CF9FBF08
:103BC000A2CE089581E090E000901D0502C0880F0C
:103BD000991F0A94E2F7809361058FEF8093520555
:103BE00010921605109217051092180510921905DB
:103BF000E1DE80E0089580E40E94B30E8AE00E9436
:103C0000132A81DE8AE00C94132A0895F4DFCBDEB8
:103C1000C5CE08958FEF80933B028091540590911B
:103C20005505FC012491E22FEF736E2F70E0623096
:103C300071050CF448C09C01225F3F4FF90145918A
:103C400055914115510509F43EC0FB0131979F0183
:103C5000220F331F220F331F220F331FE20FF31FD8
:103C6000E45BFC4FF0931F05E0931E052491209325
:103C70004C05FC0125912F7320931A0524912223D2
:103C80002CF420915C0530915D0502C020E030E00D
:103C9000240F351FFC0184918F738B3071F4F9016F
:103CA00080819181A281B38180934E0590934F05CD
:103CB000A0935005B093510504C0F9018081809311
:103CC0006005E4DC07C06FDE8CE493E090931F0591
:103CD00080931E0518CE089561DE9CDFBDDC30DECA
:103CE0000C94362A0895CF93C82F0E94362AE0916B
:103CF0005405F091550584918F73813029F080919E
:103D00001B058F3F09F03DC13196849186FF02C0AB
:103D100045DEF9DD6091540570915505CB010196A2
:103D2000FC018491982F907285FF1FC09B01205F3A
:103D30003F4FF9012591359121153105B1F04091A1
:103D40001B054F3F91F08C2FF90119958F3F21F4FE
:103D500010921B0580E0D3C121DE25DED4DD8FEF7C
:103D600080931B05EDDD80E0CAC1C33009F464C057
:103D700028F4C13051F0C23031F1ACC1C53009F482
:103D80005BC090F0C630F9F0A5C1FB018491807C46
:103D9000803C09F4A1C17496F0935505E093540555
:103DA00039DFCEDD80E0ABC1FB018491807C8038BF
:103DB00009F494C17497F0935505E09354052ADFF4
:103DC000BFDD80E09CC184FF04C010926D0510929D
:103DD0006C05E0911505EE23E9F0E150E09315053F
:103DE000F0E0EE0FFF1FE05EFA4F0190F081E02D52
:103DF000F0935505E093540572960590F491E02DEB
:103E0000309711F080E01995C9DD26DC99DD02DFDD
:103E100080E075C180E00E949A2A81E00E949A2A7F
:103E200082E00E949A2A83E00E949A2A0E94AE2A87
:103E30000E943D2A8FEF63C1FB0124912F7330E074
:103E400022303105F4F070960590F491E02D309712
:103E500019F08C2F1995DEDE20915405309155050F
:103E6000C9010196FC01849183FD3AC13D9685917B
:103E70009591892B09F436C110921B0514DC80E062
:103E80003EC12FEF20931B0584FF26C070936D0564
:103E900060936C05E0911505EE2309F425C1E1500E
:103EA000E0931505F0E0EE0FFF1FE05EFA4F019082
:103EB000F081E02DF0935505E0935405729605903E
:103EC000F491E02D309711F080E0199567DDC4DBA7
:103ED00037DDA0DE80E013C1FB0170960590F49100
:103EE000E02D309799F0992371F08FEF19958F3F5E
:103EF00019F410921B050AC051DD55DD04DD8FEF6A
:103F000080931B0503C085E01995FDDC20915405C5
:103F100030915505C9010C96FC0185919591892B2D
:103F200009F4E4C0A0911505A03108F0E1C081E0DA
:103F30008A0F80931505B0E0AA0FBB1FA05EBA4F91
:103F40002D933C93C9010196FC01849183FF0BC022
:103F500080916C0590916D05009729F0909355051F
:103F60008093540508C0F9013C96859195919093F2
:103F700055058093540512DD6FDBE2DC4BDE80E0FB
:103F8000BEC0C33009F447C028F4C13059F0C23074
:103F900031F1B0C0C53009F45AC0C0F0C63009F4E0
:103FA00086C0A8C0482F50E0E0911E05F0911F0583
:103FB000249130E021503109421753070CF09CC086
:103FC0008F5F80931B056FDB80E099C0882309F425
:103FD00095C0815080931B0566DB80E090C061E056
:103FE000EED85CDA53DB80911A058A3089F420918F
:103FF0001B05422F50E0E0911E05F0911F058491B2
:1040000090E00197481759071CF42F5F20931B0578
:104010004ADB80E074C06FEFD2D840DA37DB8091A2
:104020001A058A3089F420911B05422F50E0E09157
:104030001E05F0911F05849190E0019748175907DC
:104040001CF42F5F20931B052EDB80E058C026DA7E
:104050002091540530915505C9010E96FC01A5919A
:10406000B591109721F10D97FC01849188232CF4D0
:1040700080915C0590915D0502C080E090E0A80F02
:10408000B91FF90184918F738B3071F440914E0503
:1040900050914F0560915005709151054D935D937E
:1040A0006D937C93139703C0809160058C93E0918E
:1040B0005405F091550572960590F491E02D3097D6
:1040C00011F08C2F19958FEF80931B0539DCA2DD41
:1040D00080E015C080E013C080E011C080E00FC018
:1040E00080E00DC080E00BC080E009C080E007C028
:1040F00080E005C080E003C080E001C080E0CF9197
:1041000008951F93CF93DF930E94D1078F3F61F0F3
:1041100010E036C0E82FF0E0EE0FFF1FEF5BFA4F24
:10412000118210828F5F01C080E0843098F340E0FC
:1041300050E067E081E00E948B1024C0C12FD0E0E6
:10414000FE01EE0FFF1FEF5BFA4F0190F081E02DB3
:104150003097A9F084918F73813021F43196849146
:1041600084FD0DC0AE014F5F5F4F67E081E00E94AC
:104170008B10CC0FDD1FCF5BDA4F198218821F5FC7
:104180001430E0F2DF91CF911F9108956430E0F494
:10419000009791F0FC0124912F73213069F431963E
:1041A000249124FF09C0A62FB0E0AA0FBB1FAF5B6C
:1041B000BA4F8D939C930895E62FF0E0EE0FFF1F0A
:1041C000EF5BFA4F118210820895E0915405F0914F
:1041D00055053E966591759180916C0590916D05A0
:1041E000D5DF80E008951F93CF93DF9310E032C0B6
:1041F000C12FD0E0FE01EE0FFF1FEF5BFA4F2081D1
:104200003181C9010E96FC0185919591892B21F48C
:10421000812F0E949A2A1DC0F9013E9665917591E1
:10422000812F0E945F2ACC0FDD1FCF5BDA4FE88120
:10423000F98170960590F491E02D309751F080E06F
:104240001995813811F46FEF01C060E0812F0E9451
:10425000CD2A1F5F143060F20E94AE2ADF91CF9109
:104260001F910895823049F018F4813051F00BC04D
:10427000833059F0843019F006C080E0089582E060
:10428000089583E008958FEF089581E008950F93D6
:104290001F93CF938430D0F5E82FF0E0EE0FFF1F8F
:1042A000EF5BFA4F008111810115110589F1F801C9
:1042B00094919F73913071F53196949194FF2CC035
:1042C000C82F3F960590F491E02D309789F0862F06
:1042D0001995823829F460E08C2F0E94CD2A06C0FF
:1042E000813821F46FEF8C2F0E94CD2A0E94AE2AD4
:1042F000F8013C9685919591009781F0B8016E5F29
:104300007F4F0E948016E8DC80E009C08FEF07C075
:104310008FEF05C08FEF03C08FEF01C08FEFCF91FC
:104320001F910F910895CF93C09156038CE00E9486
:10433000B30E8091430284FF02C080E201C089E095
:104340000E94BD0E8C2F0E94B30ECF91089585B1AF
:10435000806485B983E180934302E5DF80E00895BE
:1043600085B18F7B85B910924302DDDF80E008952F
:1043700085B18F7B85B981E080934302D4DF9FB7FD
:10438000F89481E006C0EDE2F2E082E382831382DA
:1043900080E08111F8CF9FBF0895109271071092AD
:1043A0006E0510927007089590917107E92FF0E063
:1043B000EE58F84F80839F5F9F7180916E05981330
:1043C00004C08FEF8093700708959093710708954C
:1043D0004FB7F89421E011C090916E0530917107AC
:1043E0008FEF20E0931749F0E92FF0E0EE58F84FF7
:1043F00080819F5F9F7190936E052111EDCF4FBF1C
:1044000008954FB7F89491E008C030916E0520915F
:10441000710790E080E0321711F08FEF01C090E05B
:104420009111F3CF4FBF0895AC019091920799235A
:10443000E1F090916F0721E0290F20936F07E92F9A
:10444000F0E0EE0FFF1FE159FA4F51834083809156
:10445000940728130AC090936F079F3F19F48FEFBA
:1044600080936F078FEF809393070895E0919407EF
:1044700080916F07E81303C08FEF9FEF089581E0ED
:104480008E0F80939407F0E0EE0FFF1FE159FA4F73
:104490008081918108959091940780916F0798137E
:1044A00002C080E008958FEF08951092E107109206
:1044B0001B0B1092D6071092190B1092E207109264
:1044C0001A0B089580E8809344020C94C309089560
:1044D0009091D7078917C0F5E82FF0E0EA56F84F1A
:1044E0008081E82FEF7182958695877060FF17C0F5
:1044F000F0E021E030E0A90102C0440F551F8A9589
:10450000E2F7CA01EE0FFF1FEE0FFF1FEE0FFF1FB6
:10451000E95BFD4F80959181892381830895F0E0C7
:1045200021E030E0A90102C0440F551F8A95E2F74F
:10453000CA01EE0FFF1FEE0FFF1FEE0FFF1FE95B1B
:10454000FD4F9181892B81830895EF92FF921F93F4
:10455000CF93DF93803470F5E82FF0E0EE0FFF1F6C
:10456000EE0FFF1FEE0FFF1FE95EF64F10E020C0B9
:104570007F018FEFE81AF80AD081C0E015C0812FC3
:1045800090E0880F991F880F991F880F991F009737
:1045900029F4CC2329F081E090E002C081E090E092
:1045A0006D2F96DFD695CF5FC83048F31F5FF701B8
:1045B0001830F0F2DF91CF911F91FF90EF900895A6
:1045C00090E4E3EEF7E007C08FEF8083818383837D
:1045D0001282349691509111F7CF0E9429078F3F94
:1045E00001F580930D02E3EEF7E0108284E281830F
:1045F000838398E3928321E0208B818B838B928B42
:1046000022E020A381A383A392A393E090AB81AB8C
:1046100083AB8EE182AB40E050E061E081E00C943E
:104620008B10089520E006C0FC01ED51F74F3FEFDD
:1046300030832F5F822F90E00097B1F70E945107DF
:104640008F3F99F480930D02E3EEF8E0108281E051
:10465000818382E0828383E083831092950740E028
:1046600050E062E081E00C948B100895E82F8FEF0A
:104670009FEFE43040F4F0E0ED51F74F20812F3F01
:1046800011F0822F962F089570E052C0872F90E08E
:10469000242F30E0F901EE0FFF1FDF01A20FB31F3F
:1046A000FC01EE0FFF1FE80FF91FEE0FFF1FEE0FCB
:1046B000FF1FEA0FFB1FE951F74FA081AF3FD9F071
:1046C000F901EE0FFF1FE20FF31F9C01220F331FB2
:1046D000280F391F220F331F220F331FE20FF31F42
:1046E000E951F74F21812F3F31F0A61708F46A2FC7
:1046F000521708F4522F552311F06F3F49F4880FD9
:10470000991FFC01E752F84F8FEF8083818307C028
:10471000880F991FFC01E752F84F608351834F5F68
:1047200003C040E06FEF50E0443008F4AFCF7F5F4C
:104730007430B8F3089563E028C0862F062E000C6D
:10474000990B422F022E000C550BFA01EE0FFF1FA2
:10475000E40FF51FAC01440F551FDA01A80FB91F74
:10476000AA0FBB1FAA0FBB1FAE0FBF1FA951B74F88
:104770003FEF3C9311963C931197FD01128221501B
:1047800001C023E02223CCF661506623D4F70E94B7
:1047900001078F3F41F480930D0240E050E063E059
:1047A00081E00E948B1070CF08958430D8F490E09F
:1047B000FC01EE0FFF1FE80FF91FEE0FFF1FEE0FBA
:1047C000FF1FE951F74F84E02081621740F091818B
:1047D000961728F09281621B80E0960F0895339619
:1047E000815091F78FEF90E0089570E0E7EEF8E0E8
:1047F00054E016C06281861788F0A82FB0E02181AE
:10480000908130E0291B3109260F311D2A173B0703
:104810002CF0482F461B872F940F08953396515044
:104820005111E8CF7F5F753018F3482F50E061E0F9
:1048300082E00E9491108FEF90E00895CF93C42FF3
:10484000B4DF811133C0E92FEF719295969597707F
:10485000C11116C0F0E021E030E0A90102C0440F10
:10486000551F9A95E2F7CA01EE0FFF1FEE0FFF1FCB
:10487000EE0FFF1FE95BFD4F9181892B818316C0ED
:10488000F0E021E030E0A90102C0440F551F9A95E5
:10489000E2F7CA01EE0FFF1FEE0FFF1FEE0FFF1F23
:1048A000E95BFD4F8095918189238183CF910895A4
:1048B000CF92DF92EF92FF920F931F93CF93DF93EC
:1048C000C82ED12C3CC00C2D10E0CD2DD0E0F8012D
:1048D000EE0FFF1FEE0FFF1FEC0FFD1FEE0FFF1F70
:1048E000EE0FFF1FED51F84F8081843038F5F8014D
:1048F000EE0FFF1FEE0FFF1FEC0FFD1FEE0FFF1F50
:10490000EE0FFF1FED51F84F6381F28015C0EE24CA
:10491000E394E60EF801EE0FFF1FEE0FFF1FEC0F02
:10492000FD1FEE0FFF1FEE0FFF1FED51F84F40E090
:10493000808184DFFA946E2DF110E9CFD39483E067
:104940008D1508F0C0CFDF91CF911F910F91FF908F
:10495000EF90DF90CF9008950F931F93CF93DF9345
:10496000843008F5082F10E0F801EE0FFF1FE75222
:10497000F84FC081CF3FB9F0D82FF801EE0FFF1FDD
:10498000E752F84F81818F3F31F40DC040E06C2F2A
:104990008D2F54DFCF5FF801EE0FFF1FE752F84F66
:1049A00091819C1798F7DF91CF911F910F910895F6
:1049B000CF93C0E003C08C2FCFDFCF5FC430D8F3DC
:1049C000CF91089580910E02882339F080913302AF
:1049D000811103C0EDDF10920E0208950F931F9313
:1049E000CF93DF93062F142FD82FDF70C0E090E015
:1049F0003CC04D2F50E02C2F30E0FA01EE0FFF1F8E
:104A0000EE0FFF1FE20FF31FEE0FFF1FEE0FFF1F52
:104A1000ED51F84F8081843038F5DF016181702FCE
:104A2000761B672F0AF1FD01E281F0E0A72F770FD7
:104A3000BB0BAE17BF07C4F4FA01EE0FFF1FEE0F5A
:104A4000FF1FE20FF31FEE0FFF1FEE0FFF1FED51D1
:104A5000F84F9381690F113021F480930002609325
:104A60000202412FEBDE9FEFCF5FC43008F4C1CFCD
:104A7000113049F4911107C000930202D093010252
:104A80008FEF80930002DF91CF911F910F910895D6
:104A900088230CF049C080931C0B1092D80790E833
:104AA000980F903420F482E080930502089590E2FC
:104AB000980F903120F482E0809305020895823FA0
:104AC00021F482E0809305020895803F21F48FEF66
:104AD00080930502089590E4980F903220F481E0CD
:104AE000809305020895813F11F0833F21F481E016
:104AF000809305020895109205028E3F81F481E0B3
:104B000080930E029FB7F89406C0EDE2F2E089E1CF
:104B10008683178280E08111F8CF9FBF08958F3F71
:104B200009F043C0CFCC0895E091D807E23040F4BB
:104B300091E09E0F9093D807F0E0E95EF44F8083F8
:104B4000809105028F3F89F19091D807981768F1FD
:104B500090911C0B903F38F5892F8F70907F903982
:104B600071F018F4903831F01EC0903B99F0903CF1
:104B7000B9F019C040E06091170B30DF14C090917C
:104B8000180B911102C040E001C041E06091170B89
:104B900025DF09C09091170B9B3729F489DE03C0EC
:104BA0008091170BD2DC1092D8070895CF92DF9234
:104BB000EF92FF920F931F93CF93DF93092F007E05
:104BC0009F71E92ED82F003209F465C0002309F443
:104BD00064C067C0D0FF5CC020E2C29FC001112446
:104BE0008E2903DED82EF92E182F8F3F09F450C0DE
:104BF000692F3CDDC92E8F3F89F0003211F490E916
:104C000001C090E8892BA9D08C2DA7D080E4A5D035
:104C1000003221F4D0920302F092040241E000320B
:104C200009F040E0D42E111118C08091E1078F3FA8
:104C300019F46F2D81E002DE80911B0B8F3F21F470
:104C40004D2D6F2D82E0FADD8091190B8F3F01F51C
:104C50004D2D6F2D83E0F2DD1BC0113081F480916A
:104C6000D6078F3F19F46F2D82E0E8DD8091E207CF
:104C70008F3F71F44D2D6F2D83E0E0DD09C01230C0
:104C800039F480911A0B8F3F19F46F2D83E0D6DD34
:104C9000D695CF5F03C0C0E001C0C0E0C83008F4C3
:104CA00099CFDF91CF911F910F91FF90EF90DF90FF
:104CB000CF900895CF93C0E00EC0EC2FF0E0ED51FF
:104CC000F74F8081803130F4806B47D08BE745D03F
:104CD00080E043D0CF5FC43080F3CF9108958EEF52
:104CE0003CC00895809195078823B1F080913D02E2
:104CF000882321F080913D028F3F71F49FB7F89493
:104D000081E006C0EDE2F2E08AE0808B118A80E06B
:104D10008111F8CF9FBFE3CF08951092CD008FE1AE
:104D20008093CC00E9ECF0E0808188698083EAEC34
:104D3000F0E08081866080831092620B1092AA0C52
:104D400010921D0B10921F0B10921E0B1092210B34
:104D50001092A60B1092AB0C0895E9ECF0E0908154
:104D60009F7D9083E0911D0BF0E0EE5BF44F80831C
:104D700080911D0B8F5F8F7180931D0B90911D0B88
:104D800080911F0B98130DC08091AB0C882331F0DC
:104D90008F3F39F08F5F8093AB0C03C081E080932D
:104DA000AB0CE9ECF0E08081806280830895909103
:104DB000620B8091AA0C981769F0E091AA0CF0E0C0
:104DC000EE5DF44F80819091AA0C9F5F9F7190934C
:104DD000AA0C08958DEF08951F920F920FB60F92AF
:104DE00011240BB60F928F939F93EF93FF938091B3
:104DF000CE00E091620BF0E0EE5DF44F8083809195
:104E0000620B8F5F8F718093620B9091620B809128
:104E1000AA0C98130DC08091A60B882331F08F3F08
:104E200039F08F5F8093A60B03C081E08093A60BBF
:104E30008091AC0C9091AD0C01969093AD0C809349
:104E4000AC0CFF91EF919F918F910F900BBE0F9043
:104E50000FBE0F901F9018951F920F920FB60F92D2
:104E600011240BB60F928F939F93EF93FF93909122
:104E70001F0B80911D0B9817C1F0E0911F0BF0E004
:104E8000EE5BF44F80818093CE0080911F0B8F5F8B
:104E90008F7180931F0B8091A70B9091A80B0196A7
:104EA0009093A80B8093A70B05C0E9ECF0E08081FC
:104EB0008F7D8083FF91EF919F918F910F900BBE1B
:104EC0000F900FBE0F901F9018959091640BE1EC1E
:104ED000F0E020812F7D2083E92FF0E0E755F44FAB
:104EE000808381E0890F9091200B89130CC0E1EC45
:104EF000F0E09081906290839091200B8917E1F30C
:104F00008093640B08958093640BE1ECF0E0808162
:104F1000806280830895CF93DF93FC0102C0D5DFC8
:104F2000FE01EF0121968491882321F09091A90C34
:104F30009F3FA9F7DF91CF91089586EB9CE0EBCFDF
:104F400008951092C50083E38093C400E1ECF0E083
:104F5000808188698083E2ECF0E0808186608083D4
:104F60001092620B1092AA0C10921D0B10921F0B44
:104F70001092A90C0E94AB078F3F41F41092630B73
:104F800040E050E064E081E00E948B108091630B70
:104F90008F3F41F485EE92E0BEDF88E79CE0BBDF07
:104FA000CCDFCBCF08951F93CF93DF93EC0110E5B7
:104FB00003C021968ADF11508881882331F09091B7
:104FC000A90C9F3F11F01111F4CFDF91CF911F91E8
:104FD00008951F920F920FB60F9211240BB60F92E5
:104FE0008F939F93EF93FF93E091AE0C9091C60047
:104FF00081E08E0FF0E0EA59F44F90838F73909127
:10500000650B891304C08FEF8093A90C02C08093B5
:10501000AE0CFF91EF919F918F910F900BBE0F906F
:105020000FBE0F901F9018951F920F920FB60F9200
:1050300011240BB60F922F938F939F93EF93FF93AF
:105040008091200B2091640B9091200B291759F02F
:10505000E82FF0E0E755F44F90819093C6008F5F02
:105060008093200B05C0E1ECF0E080818F7D808390
:10507000FF91EF919F918F912F910F900BBE0F9009
:105080000FBE0F901F9018958A3010F0895C08951C
:10509000805D0895EF92FF921F93CF93DF93EB0112
:1050A00090E0880F991F880F991F880F991F8064BF
:1050B0000E94410E10E00AC07E018FEFE81AF80A44
:1050C000FE0184910E94290E1F5FE7011830A0F3B2
:1050D000DF91CF911F91FF90EF9008956EEA7CE0F1
:1050E00080E0D8DF66EA7CE081E0D4DF6EE97CE036
:1050F00082E0D0CF0895CF93C82F82958F708A30E9
:1051000010F0895C01C0805D0E94BD0ECF70CA3076
:1051100018F087E38C0F02C080E38C0F0E94BD0E55
:10512000CF910895CF93DF93D3E01CC0ED2F0D2EC8
:10513000000CFF0BEF54F34FC0818C2F82958F70C2
:105140008A3010F0895C01C0805D0E94BD0ECF7076
:10515000CA3018F087E38C0F02C080E38C0F0E94E6
:10516000BD0ED150DD2314F7DF91CF910895CF9379
:10517000C82F843650F08DE20E94BD0E8DE20E9451
:10518000BD0E0DC0CA508F5F01C080E0CA30D0F79D
:10519000805D0E94BD0E80E38C0F0E94BD0ECF91FA
:1051A0000895843658F08DE2DB018C93FB01329632
:1051B00011968C930FC08A509F5F01C090E08A3097
:1051C000D0F7905DFB019083329690E3980FDB015E
:1051D00011969C931082CF010895FB01982F929510
:1051E0009F709A3010F0995C01C0905D9083982F69
:1051F0009F709F012E5F3F4F9A3010F0995C01C065
:10520000905D91831282C9010895AC01FB0134962F
:10521000DB0114961C9220E010C0942F9F703197F0
:105220009A3010F0995C01C0905D90835295429540
:105230004F7045275F7045272F5F243070F3CF01F3
:105240000496089588238CF48DE2DB018C939EE60E
:1052500011969C93119712968C9312971496FB01BA
:10526000138249C08C509F5F01C090E08C30D0F712
:105270008B3039F4FB01319688E4DB018C938FE5A8
:1052800027C0853058F4FB013196282F26952D5BD9
:10529000DB012C9380FD19C08FE51AC0893030F0F6
:1052A000FB01319621E4DB012C930BC0FB0131960D
:1052B000282F30E025503109359527952A5BDB01F1
:1052C0002C9380FF04C08FE503C083E201C083E21A
:1052D0008083911105C0DF0112968DE681830BC09A
:1052E0009C3028F4DF011296915D918304C0DF01A8
:1052F00012968DE281831C92CD010895833038F49B
:10530000FB01319693E3981BDB019C930DC0833026
:1053100031F4FB01319680E5DB018C9305C0FB0184
:1053200031968DE2DB018C931082CF010895CF93EB
:10533000C82F892FE0DE8C2FDEDECF910895CF932A
:10534000DF938823DCF190E002C09F5F8C508C30AB
:10535000E0F7482F50E04C30510530F4FA0188272F
:10536000E656FF4F8F4F3CC1D3E223C0D3E224E483
:1053700020C0D3E226E41DC0D3E227E41AC0D3E262
:1053800021E417C0D5EA23E414C0D5EA24E411C00F
:10539000D5EA25E40EC0D5EA26E40BC0D5EA27E419
:1053A00008C0D5EA21E405C0D5EA28E402C0D3E26A
:1053B00023E4992339F0CFE2C90F05C0CDE2DDE245
:1053C0002DE201C0CDE2822F0E94BD0E8D2F0E94E2
:1053D000BD0E8C2F0E94BD0E83E0DF91CF9108950A
:1053E000CF93C82FCF7081E08C0F8A3028F081E3F3
:1053F0000E94BD0E87EF8C0F805D0E94BD0ECF9185
:105400000895843020F08DE20C94BD0E0895833011
:1054100021F480E50C94BD0E089593E3981B892F29
:105420000C94BD0E0895CF9304C080E20E94BD0E7F
:105430008C2FCFEFC80F8111F8CFCF910895CF9364
:1054400090E004C080E20E94BD0E9C2F8091560324
:10545000843151F0843541F0883231F0883621F0C2
:10546000C1E0C90F943170F3CF9108958DE00E948F
:10547000410E8FEF8093AF0C08958CE00E94410E97
:105480001092AF0C0895CF93C09156038CE00E9408
:10549000B30E81EA0E94BD0E8C2F0E94B30ECF91F5
:1054A0000895CF93C09156038CE00E94B30E80E222
:1054B0000E94BD0E8C2F0E94B30ECF9108958430B0
:1054C00028F020E00DC02F5FFA0102C0FB0120E0B0
:1054D000AF014F5F5F4F9491992311F0253098F3FE
:1054E00090E0DC01AA0FBB1FAA0FBB1F8A0F9B1FF6
:1054F000DC01A15FBD4F45E050E0421B5109CA01EC
:1055000099230CF4019695958795382F820F90E09A
:105510000EC0931710F0981718F020E22C9305C0D6
:10552000FB0124912C936F5F7F4F11969F5F953005
:1055300080F3089590E0FC01EE0FFF1FEE0FFF1FB8
:105540008E0F9F1FFC01E15FFD4F80E004C090E2E1
:1055500090838F5F31968530D0F308950F931F931A
:10556000CF93DF93D091560384E50E94B30EC0E041
:10557000EFE0F2E008C08F010F5F1F4F80810E94B3
:10558000BD0ECF5FF801C431B0F38D2F0E94B30E72
:10559000DF91CF911F910F91089590E0FC01EE0FE4
:1055A000FF1FEE0FFF1F8E0F9F1FFC01E15FFD4FDE
:1055B00090E080E012C02081611106C02A3021F401
:1055C00080E880838FEF07C0662329F0203819F424
:1055D0008AE080838FEF31969F5F953060F3089566
:1055E000EE0FFF1F881F8BBF0790F691E02D1994D7
:1055F000DC01CB01FC01F999FECF06C0F2BDE1BD93
:10560000F89A319600B40D9241505040B8F7089581
:10561000F999FECF92BD81BDF89A992780B508957A
:10562000A8E1B0E042E050E0E5CFDC01A40FB51FF7
:105630004150504040F0CB01840F951F2E9105D072
:1056400041505040D8F70895262FF999FECF92BDCA
:1056500081BDF89A019700B4021639F01FBA20BD37
:105660000FB6F894FA9AF99A0FBE08950196272F6B
:08567000ECDFEACFF894FFCF54
:06567800FFFFFFFFFFFF32
:00000001FF
