:100000000C94B2080C94D3080C94D3080C94D30825
:100010000C94D3080C94D3080C94D3080C94D308F4
:100020000C94D3080C94D3080C94D3080C94D308E4
:100030000C94D3080C94D3080C94D3080C94D308D4
:100040000C94D3080C94D3080C94D3080C94D308C4
:100050000C94D3080C94DB0E0C94D3080C94D308A6
:100060000C94D3080C94A8310C94D3310C94D3087D
:100070000C94D3080C94D3080C94D3080C94D30894
:100080000C94D3080C94D3080C94D3080C94D30884
:100090000C94AB300C94EB300C94D3080C94D30834
:1000A0000C94D3080C94D3080C94D3080C94D30864
:1000B0000C94D3080C94D3080C94D3080C94D30854
:1000C0000C94D3080C94D3080C94D3080C94D30844
:1000D0000C94D3080C94D3080C94D3080C94D30834
:1000E0000C94D308211B2C1B381B541B711B921B17
:1000F0009D1BA81BBD1BD31BDB1BE91BBD1B161CBB
:10010000261C4A1C9C1CB51CCA1CE31CEB1C101DA5
:10011000101D291D361D251D911D991DE41D461E0E
:10012000701E9C1ECB1ED31ED91E911DE11EF51EF6
:10013000D91E331F401F4C1F611F7A1F9D1FA81F10
:10014000AE1FB31FC61FE71FFA1FB31FBE33D33343
:10015000C133B233C433C733B533CA33B833CD3305
:10016000BB33D0334C6F673A20000000496E69748E
:1001700069616C69736174696F6E000001004545C7
:100180003A4D6F64756C65000000000000000101CD
:1001900045453A4D6964692D496E00000000000034
:1001A000010245453A4D6964692D4F7574000000A0
:1001B0000000010345453A4D616E2D4D6F64756C2D
:1001C00065000000010445453A5553420000000017
:1001D000000000000000010545453A52656769735B
:1001E0007465720000000000010645453A50726FC8
:1001F0006772616D730000000000010745453A53C6
:100200006F66746B65797300000000000108454556
:100210003A4D69646954687275000000000002007C
:100220004D6F643A4661696C0000000000000000F8
:1002300002014D6F643A556E6B6E6F77496E7000B8
:10024000000003004F56464C3A4D696469496E0000
:100250000000000003014F56464C3A4D6964694F57
:1002600075740000000004004F56464C3A50697007
:10027000654D73670000000005005077723A4F75B6
:10028000707475744F6E0000000054EF6E6520614D
:1002900075730054617374656E2F5265672E206C00
:1002A000EF73656E004D4944492D496E7465726661
:1002B000616365002C426974733A004D6F64756C1C
:1002C000653A00656D7074790052616E67653A2019
:1002D000004D616E75616C3A20004D6F64756C6500
:1002E0007320636865636B65643A20004D6F6475C5
:1002F0006C65732061737369676E65643A200048AA
:100300006172647761726520436F6E6669677572AA
:100310006174696F6E0D0A000D0A4D4944492D4FF5
:100320007267616E2D496E746572666163650D0A50
:10033000004C6F670D0A00656D7074790D0A0073CB
:100340006176652E2E2E003C6E6F6E653E00756EDA
:1003500061737369676E656400453A006F6B006195
:10036000626F7274004D494449204E6F74656E206F
:10037000617573002B00205265672E676573657485
:100380007A7400205265672E696E204B6F6D622E65
:10039000676573702E004F75743A00496E3A004DD0
:1003A000656EF50000000000000000000000000085
:1003B0000000020001000000000000010300000036
:1003C0000000000002000200000000000003010322
:1003D0000400000000000300010200000000000112
:1003E000000000000000000001000000000000000C
:1003F00000010000000000000000080001020304EA
:1004000005060708000102030405060702000100B3
:1004100000000000000200010000000000000800D1
:1004200001020304050607000000000000000000B0
:1004300081103C6E6F6E653E000000000000BA0641
:100440000000000001104D656E7500000000000006
:10045000C406B0060000000001105374696D6D659C
:100460006E000000000CA6060000000001104B6F9B
:100470007070656C323C330000008806801A000002
:1004800001104B6F7070656C313C330000007E06CC
:10049000831A000001104B6F7070656C503C330084
:1004A00000007406861A000001104B6F7070656CB6
:1004B000313C320000006A06891A000001104B6FBF
:1004C0007070656C503C3200000060068C1A0000B1
:1004D00001104B6F7070656C503C31000000560687
:1004E0008F1A000001104B6F7070656C333C320046
:1004F00000004C06921A000001104B6F7070656C82
:10050000333C310000004206951A000001104B6F89
:100510007070656C333C500000003806981A00007B
:1005200001104B6F7070656C323C310000002E067C
:100530009B1A000001104B6F7070656C323C5000CC
:10054000000024069E1A000001104B6F7070656C4D
:10055000313C500000001A06A11A000001104B6F38
:100560006D62696E2031410000001006BB2600005C
:1005700001104B6F6D62696E20324100000006066B
:10058000CF26000001104B6F6D62696E2033410071
:100590000000FC05E326000001104B6F6D62696EE0
:1005A000203441000000F205F726000001105265DA
:1005B000672E6175730000000000E8054D1700000C
:1005C00001104D494449204F666600000000920624
:1005D000E1240000C1105365747570000000000034
:1005E000A00C9C0600000000526567090000000096
:1005F00000004B6234418000000000004B62334138
:100600008000000000004B623241800000000000CA
:100610004B623141800000000000313C50800000FE
:1006200000000000323C5080000000000000323C1E
:100630003180000000000000333C508000000000CA
:100640000000333C3180000000000000333C328069
:10065000000000000000503C31800000000000005D
:10066000503C3280000000000000313C328000002D
:1006700000000000503C3380000000000000313CCE
:100680003380000000000000323C33800000000096
:1006900000004D4F66660000000000005365747551
:1006A0000000000000005374696D000000000000AD
:1006B0004D656E75000000000000000000000000A5
:1006C0000000000081004D616E75616C000000004B
:1006D0003C07000000000000010052656769737468
:1006E00065720000640700003C1A000001004D49DB
:1006F0004449000000000000300900000000000034
:10070000010054617374656E00000000B00B0000BE
:1007100000007017010053746174757300000000CD
:10072000C410000000000000C10053657475700023
:1007300000000000A00C00000000000081004B6FD2
:100740007070656C000000004008000000000000B0
:10075000C1005374696D6D656E000000000C0000EF
:10076000000000008C004B6F6D622E6C61642E00E7
:10077000000057050000491A0C004B6F6D622E7384
:10078000702E00000000570500006517010061751C
:10079000730000000000000000000000431A000089
:1007A0000E005265672E312D3800000000001C0538
:1007B000000025170E005265672E392D31360000D6
:1007C00000001D05000025170E005265672E313709
:1007D0002D32340000001E05000025170E00526562
:1007E000672E32352D33320000001F05000025171B
:1007F0000E005265672E33332D3430000000200583
:10080000000025170E005265672E34312D34380054
:1008100000002105000025170E005265672E3439AF
:100820002D3534000000220500002517CA0052654E
:10083000672E35352D3634000000230500002517BE
:100840008900323C33000000000000000000BE07B9
:10085000000052170900313C330000000000000086
:100860000000BF07000052170900313C32000000B1
:10087000000000000000C007000052170900503CB3
:1008800033000000000000000000C1070000521704
:100890000900503C32000000000000000000C207C8
:1008A000000052170900503C310000000000000019
:1008B0000000C307000052170900333C320000005B
:1008C000000000000000C407000052170900333C7C
:1008D00031000000000000000000C50700005217B2
:1008E0000900333C50000000000000000000C60773
:1008F000000052170900323C3100000000000000E7
:100900000000C707000052170900323C50000000E9
:10091000000000000000C80700005217C900313C69
:1009200050000000000000000000C907000052173E
:1009300081004E6F7465734F666600000000000012
:10094000E124000001004D494449696E00000000A7
:10095000D00900000000DE1801004D4944496F75C0
:1009600074000000500C00000000DA1803105468F6
:1009700072752D496E0000000000D307000021179A
:100980000310546872752D4F757400000000D40771
:100990000000211709004163636570742050430013
:1009A0000000DB080000D61809004163742E53656F
:1009B0006E7365000000D9080000D618C90056659E
:1009C0006C30344F666600000000DA080000D6186C
:1009D000810043682E31000000000000100B000071
:1009E0009B160000010043682E320000000000004A
:1009F000100B01009B160000010043682E3300001D
:100A000000000000100B02009B160000010043686C
:100A10002E34000000000000100B03009B160000A5
:100A2000010043682E35000000000000100B040098
:100A30009B160000010043682E36000000000000F5
:100A4000100B05009B160000010043682E370000C4
:100A500000000000100B06009B1600000100436818
:100A60002E38000000000000100B07009B1600004D
:100A7000010043682E39000000000000100B080040
:100A80009B160000010043682E313000000000007A
:100A9000100B09009B160000010043682E31310045
:100AA00000000000100B0A009B16000001004368C4
:100AB0002E31320000000000100B0B009B160000CE
:100AC000010043682E31330000000000100B0C00C1
:100AD0009B160000010043682E3134000000000026
:100AE000100B0D009B160000010043682E313500ED
:100AF00000000000100B0E009B160000C1004368B0
:100B00002E31360000000000100B0F009B16000075
:100B10008100536563742E3100000000600B0000FB
:100B2000A61600000100536563742E320000000019
:100B3000600B0100A61600000100536563742E339C
:100B400000000000600B0200A6160000C100536503
:100B500063742E3400000000600B0300A616000032
:100B600087904D616E75616C000000000000D50734
:100B70000000000004904D69644E6F746500000031
:100B80000000D60700000000068052616E67650015
:100B9000000000000000D70700000000C4904D6175
:100BA0006E4E6F74650000000000D8070000000062
:100BB0008108546173746531000000003004000046
:100BC0000A1792270108546173746532000000000F
:100BD000300401000A1792270108546173746533C9
:100BE00000000000300402000A179227C108546177
:100BF0007374653400000000300403000A17922764
:100C000081204D616E2E33000000000000000000C6
:100C1000BA17000001204D616E2E32000000000066
:100C200000000100BA17000001204D616E2E310056
:100C30000000000000000200BA170000C12050654B
:100C400064616C000000000000000300BA1700009F
:100C50008310494949000000000000000000D50849
:100C600000000000031049490000000000000000DF
:100C70000000D6080000000003104900000000003A
:100C8000000000000000D70800000000C310500062
:100C900000000000000000000000D8080000000074
:100CA00081004D6F64756C6500000000680D0000E8
:100CB0000000000001005553420000000000000049
:100CC000BC0E0000000000000100506F776572004C
:100CD000000000002C0D000000000000C100454590
:100CE00070726F6D00000000F00C0000000000004A
:100CF000810045455361766500000000000000005A
:100D0000F4250000010045454261636B75700000E9
:100D100000000000DC250000C100454552657374E9
:100D20006F72650000000000E82500008100506F30
:100D30007765724F6E00000000000000562800002A
:100D40000100506F7765724F66660000000000007A
:100D50005F280000C100502E5265737461727400E8
:100D600000000000672800008A004D6F6452656132
:100D700064000000000050030000EC180A004D6FF2
:100D8000645772697465000000004F030000EC189E
:100D90000A084D6F644F4B0000000000000048023D
:100DA0000000000001004D6F645465737400000082
:100DB000CC0D000000000000C1004D6F6441737352
:100DC00069676E00F80E00000000E21881004D6FA8
:100DD000642E3000000000006C0E00009016000031
:100DE00001004D6F642E3100000000006C0E010008
:100DF0009016000001004D6F642E320000000000CC
:100E00006C0E02009016000001004D6F642E33003E
:100E1000000000006C0E03009016000001004D6FF2
:100E2000642E3400000000006C0E040090160000D8
:100E300001004D6F642E3500000000006C0E0500AF
:100E40009016000001004D6F642E36000000000077
:100E50006C0E060090160000C1004D6F642E370026
:100E6000000000006C0E0700901600008100526523
:100E70006164000000000000000000007417000022
:100E80000B005772697465000000000000005C05EB
:100E9000271663160100546573745074726E000057
:100EA00000000000BF250000C1004C6F6F7054733C
:100EB0007400000000000000A817000089004163D2
:100EC00074697665000000000000DC0B00000E195C
:100ED000010053656E644C6F670000000000000065
:100EE000F0180000C100536E644857436667000065
:100EF000000000002219000081004D616E2E3300B9
:100F000000000000FC0F0000C416000001004D614D
:100F10006E2E320000000000FC0F0100C41600001D
:100F200001004D616E2E310000000000FC0F020038
:100F3000C41600000100506564616C0000000000F0
:100F4000FC0F0300C4160000C1005265676973748A
:100F5000657200005C0F0400000000008100536512
:100F600063742E31000000004C100000F4160000E5
:100F70000100536563742E32000000004C10010024
:100F8000F41600000100536563742E330000000066
:100F90004C100200F41600000100536563742E34F7
:100FA000000000004C100300F4160000010053651F
:100FB00063742E35000000004C100400F41600008D
:100FC0000100536563742E36000000004C100500CC
:100FD000F41600000100536563742E370000000012
:100FE0004C100600F4160000C100536563742E38DF
:100FF000000000004C100700F4160000810053654B
:1010000063742E310000000088100000CF1600002D
:101010000100536563742E32000000008810010047
:10102000CF1600000100536563742E3300000000EA
:1010300088100200CF160000C100536563742E347F
:101040000000000088100300CF1600008D8052655C
:1010500067426567000000000000A507000000006F
:101060000D80526567456E64000000000000A60711
:1010700000000000C5804D6F64756C652F42697477
:101080000000A7070000000084904E6F7465426561
:10109000670000000000DD080000000004904E6FB3
:1010A0007465456E640000000000DE08000000006A
:1010B000C5804D6F64756C652F4269740000DF0850
:1010C0000000000081204C6F67000000000000005D
:1010D00000000000F720000002404D4944492D491E
:1010E0006E000000000000007B200000C2404D495F
:1010F00044492D4F7574000000000000B920000025
:1011000056302E35390001000200020103000301B0
:101110000302000100020102000301030203310087
:10112000300054657874800045786974007E61757C
:1011300073007E65696E0045696E80002D002B008E
:101140007F007E000900080000000E0E0E0E000059
:1011500004040404150E0400040E15040404040021
:101160000D0A000011241FBECFEFD1E2DEBFCDBFBC
:1011700000E00CBF12E0A0E0B2E0E2EBFAE600E033
:101180000BBF02C007900D92A830B107D9F72DE030
:10119000A8E0B2E001C01D92A635B207E1F70E94B7
:1011A000F7130C9457350C940000FC018FEF9FEF60
:1011B0001CC0DF01119620818227282F2295282725
:1011C000022E269526952025022E2695202527706D
:1011D000082E892F269507942795902D822706940F
:1011E000279590258227BA01FD01AB014150510995
:1011F000672BF9F60895EF92FF920F931F93CF9309
:10120000DF93CFEFDFEF21C07C012FEFE21AF20A6C
:101210000E9425359E012827822F82958227082E3D
:10122000869586958025082E869580258770022EC6
:10123000232F869507948795302D28270694879528
:1012400030252827E901B801C7018B010150110998
:10125000672BD1F6CE01DF91CF911F910F91FF90B7
:10126000EF900895FC01CA011CC0DF011196208196
:101270008227282F22952827022E2695269520257D
:10128000022E269520252770082E892F2695079453
:101290002795902D82270694279590258227BA01BD
:1012A000FD01AB0141505109672BF9F60895EF920A
:1012B000FF920F931F93CF93DF93EA0121C07C012C
:1012C0002FEFE21AF20A0E942535AE014827842F3B
:1012D00082958427082E869586958025082E8695EA
:1012E00080258770042E452F869507948795502D6D
:1012F00048270694879550254827EA01B801C70179
:101300008B0101501109672BD1F6CE01DF91CF91EE
:101310001F910F91FF90EF900895CF93DF9382E399
:1013200090E00E942D35EC0160E370E082E090E0F7
:1013300062DFC817D90781F481E090E00E9425356B
:101340008D3451F440E350E062E070E08DED98E0C0
:101350000E94153580E006C080910802816080936C
:1013600008028FEFDF91CF910895CF93DF9385E34C
:1013700091E00E942D35EC0160E071E085E390E0A2
:101380003ADFC817D90781F484E390E00E9425353D
:10139000893451F440E051E065E370E085ED97E079
:1013A0000E94153580E006C080910802826080931B
:1013B00008028FEFDF91CF910895CF93DF938FE3F2
:1013C00091E00E942D35EC0167E070E088E391E048
:1013D00012DFC817D907C1F487E391E00E942535D1
:1013E0008F3491F444E050E068E371E085ED98E0DB
:1013F0000E94153543E050E06CE371E089ED98E020
:101400000E94153580E006C08091080284608093B8
:1014100008028FEFDF91CF910895CF93DF9384E49B
:1014200091E00E942D35EC0161E070E082E491E0F2
:10143000E2DEC817D907A1F481E491E00E942535C6
:10144000893671F482E491E00E942535809350033F
:1014500083E491E00E94253580934F0380E006C02D
:10146000809108028860809308028FEFDF91CF910E
:101470000895CF93DF9383EF93E00E942D35EC0125
:1014800062E070E081EF93E0B6DEC817D90781F41F
:1014900080EF93E00E942535843551F442E050E01E
:1014A00061EF73E083ED97E00E94153580E006C0A0
:1014B000809108028260809308028FEFDF91CF91C4
:1014C0000895CF93DF9388E491E00E942D35EC01DD
:1014D00061E070E087E491E08EDEC817D90771F40F
:1014E00086E491E00E942535853541F487E491E05A
:1014F0000E9425358093DC0B80E006C080910802B5
:101500008860809308028FEFDF91CF910895CF9389
:10151000DF9361E070E08BE491E06DDEAC0168E1A7
:1015200070E08CE491E0C3DEEC0184E691E00E947F
:101530002D35C817D907B1F48AE491E00E9425350A
:10154000823581F48BE491E00E9425358093BD07BC
:1015500048E150E06CE471E085EA97E00E941535BF
:1015600080E006C0809108028062809308028FEFBD
:10157000DF91CF910895CF93DF9387EE93E00E94A0
:101580002D35EC0160E872E087E691E034DEC817A3
:10159000D90781F486E691E00E942535803551F423
:1015A00040E852E067E671E08DE099E00E94153571
:1015B00080E006C0809108028064809308028FEF6B
:1015C000DF91CF910895CF93DF938EEE93E00E9449
:1015D0002D35EC0164E070E08AEE93E00CDEC81774
:1015E000D90751F444E050E06AEE73E082E695E0FA
:1015F0000E94153580E006C08091080280688093C3
:1016000008028FEFDF91CF91089560E080E090E0D5
:101610000E94413565E685EF93E00C9441350895CD
:10162000CF93DF9360E370E08DED98E0BEDDEC01D9
:101630000E943F346DE481E090E00E94413540E338
:1016400050E062E070E08DED98E00E943235BE011E
:1016500082E390E00E945335D8DF0E944D34DF9141
:10166000CF910895CF93DF9360E071E085ED97E02F
:101670009CDDEC010E943F3469E484E390E00E9429
:10168000413540E051E065E370E085ED97E00E9470
:101690003235BE0185E391E00E945335B6DF0E94EA
:1016A0004D34DF91CF910895CF93DF9364E070E0E4
:1016B00085ED98E07ADDAC0163E070E089ED98E0BB
:1016C000D1DDEC010E943F346FE487E391E00E949A
:1016D000413544E050E068E371E085ED98E00E9418
:1016E000323543E050E06CE371E089ED98E00E9410
:1016F0003235BE018FE391E00E94533586DF0E94B0
:101700004D34DF91CF910895CF93DF9361E070E086
:1017100080E593E04ADDEC010E943F3469E681E414
:1017200091E00E9441356091500382E491E00E9473
:10173000413560914F0383E491E00E944135BE0141
:1017400084E491E00E94533560DF0E944D34DF91C4
:10175000CF910895CF93DF9361E070E08CED9BE033
:1017600024DDEC010E943F3465E586E491E00E94AF
:1017700041356091DC0B87E491E00E944135BE0168
:1017800088E491E00E94533540DF0E944D34DF91A0
:10179000CF910895CF93DF9362E070E083ED97E0FF
:1017A00004DDEC010E943F3464E580EF93E00E9489
:1017B000413542E050E061EF73E083ED97E00E9435
:1017C0003235BE0183EF93E00E9453351EDF0E9445
:1017D0004D34DF91CF910895CF93DF9361E070E0B6
:1017E0008DEB97E0E2DCAC0168E170E085EA97E020
:1017F00039DDEC010E943F3462E58AE491E00E9409
:1018000041356091BD078BE491E00E94413548E18C
:1018100050E06CE471E085EA97E00E943235BE0149
:1018200084E691E00E945335F0DE0E944D34DF9152
:10183000CF910895CF93DF9360E872E08DE099E057
:10184000B4DCEC010E943F3460E586E691E00E9442
:10185000413540E852E067E671E08DE099E00E9492
:101860003235BE0187EE93E00E945335CEDE0E94F2
:101870004D34DF91CF910895CF93DF9364E070E012
:1018800082E695E092DCEC010E943F346BE489EE45
:1018900093E00E94413544E050E06AEE73E082E656
:1018A00095E00E943235BE018EEE93E00E945335E2
:1018B000ACDE0E944D34DF91CF910895B1DED2DECF
:1018C000F3DE22DF47DF88DFB5DFD6DF63CF0895A1
:1018D000CF92DF92EF92FF920F931F93CF93DF93FC
:1018E000EB0111C07C012FEFE21AF20A0E942535AC
:1018F0006E019FEFC91AD90A682FCE010E944135A7
:10190000A801E601C7018A0101501109452B51F7D1
:10191000DF91CF911F910F91FF90EF90DF90CF90CB
:1019200008950E943F3440E058E060E078E080E0B5
:1019300090E0CEDF0C944D3408950E943F3440E097
:1019400058E060E070E080E098E0C2DF0C944D3435
:10195000089580E00AC0E82FF0E0EE0FFF1FE15D80
:10196000FD4F9FEF908311828F5F8930A0F3E1E4F8
:10197000F2E010821182128213828FEF809357035C
:10198000089582E084BD93E095BD80936E0089EF59
:1019900087BD85B18F7785B984B1806884B9089592
:1019A00087E880937A0010927B008FE780937C0019
:1019B00081E080937E0010927F00E9E4F3E01082E2
:1019C0008FEF818382838093090280E010C085308D
:1019D00039F4E82FF0E0EF5AFC4F96E0908306C010
:1019E000E82FF0E0EF5AFC4F9AE090838F5F86304B
:1019F00070F308958FEF88B987B982B911B884B3AD
:101A0000876084BB83B3876083BB8BB18F778BB9CF
:101A10008AB180688AB980E00EC0E82FF0E0EE0F4E
:101A2000FF1FEE0FFF1FEE0FFF1FE75BFD4F9FEF46
:101A3000918390838F5F803280F3109246021092E0
:101A400045020895EADC8F3F51F440E050E060E049
:101A500081E0B7D68FEF8093500380934F038BB113
:101A60008F778BB984B3876084BB84B38B7F84BB4F
:101A700085E08A95F1F7000084B3846084BB90E22E
:101A800084B3816084BB90FD02C085E501C08AEA11
:101A900088B980B1809348038093470380934603BD
:101AA00080934503809344038093430384B38E7FE4
:101AB00084BB85E08A95F1F70000915009F790E228
:101AC0000FC084B3816084BB82E08A95F1F700C0C7
:101AD00084B38E7F84BB82E08A95F1F700C0915079
:101AE0009111EFCF8FEF8093480290E284B3816031
:101AF00084BB8FEF88B920B190FD02C08AEA01C093
:101B000085E582272091480282238093480284B38E
:101B10008E7F84BB85E08A95F1F70000915031F704
:101B20000000000084B3816084BB84B3876084BB01
:101B300084B38B7F84BB82E08A95F1F700C084B3C5
:101B4000846084BB90E2E1E4F3E08381828384815A
:101B5000838384B3816084BB8FEF818388B985815F
:101B600084838681858380B1868382838383848313
:101B70008583878384B38E7F84BB3897915029F700
:101B80000000000084B3816084BB84B38D7F84BB7C
:101B900018B885E08A95F1F7000084B3826084BBB1
:101BA0004091500380914F03842B909148028917F4
:101BB00039F050E0542F4427492B60E082E001C601
:101BC0000895883008F06AC031E001C0330F8A956B
:101BD000EAF780E8809346028BB18F778BB984B3A4
:101BE000876084BB40E01DC020FD03C0832F80952B
:101BF00001C08FEF88B9269582E08A95F1F700C081
:101C000084B38E7F84BB82E08A95F1F700C084B3F1
:101C1000816084BB9F5F02C090E025EA983020F38A
:101C20004F5F4430C8F390E00FC082E08A95F1F72F
:101C300000C084B38E7F84BB82E08A95F1F700C038
:101C400084B3816084BB9F5F903278F390E040E082
:101C500050E0BA0117C0440F551F661F771F82E07E
:101C60008A95F1F700C084B38E7F84BB80B1832353
:101C700009F0416082E08A95F1F700C084B3816089
:101C800084BB9F5F903238F3109246028BB180681C
:101C90008BB9342F252F862F972F04C030E020E0FA
:101CA00080E090E0632F722F089590E0E9E4F2E085
:101CB00080E006C02FEF21832681822B38969F5F1C
:101CC0009032C0F3909150038923089510924602F8
:101CD0008091460281FFFCCF10924602809146021D
:101CE00081FFFCCF089581E0809345029FB7F8946F
:101CF00006C0EFE2F2E088E28283138280E0811185
:101D0000F8CF9FBF089580914502813031F5CDDF36
:101D1000811114C085B1806485B982E18093450248
:101D20009FB7F89481E006C0EFE2F2E081E08283A1
:101D3000138280E08111F8CF9FBF08959FB7F89478
:101D400081E007C0EFE2F2E08CE0828382E08383EF
:101D500080E08111F7CF9FBF08958231B1F4A5DFF4
:101D6000811104C084E1809345020BC0482F50E0EC
:101D700060E085E026D585B18F7B85B980E88093CA
:101D800045028FEF8093310208958FEF80933102E7
:101D9000089590E00DC0943050F4E92FF0E08111E7
:101DA00002C02AE001C026E0EF5AFC4F20839F5F6B
:101DB000963088F308951F920F920FB60F92112458
:101DC0000BB60F92EF92FF920F931F932F933F93B7
:101DD0004F935F936F937F938F939F93AF93BF9333
:101DE000CF93DF93EF93FF9385B1806885B980919E
:101DF00047028F5F809347028370813009F458C196
:101E000038F0823009F4A5C1833009F4C9C101C298
:101E10008091090281111AC190917A0096FD16C134
:101E2000282F30E0F901EE0FFF1FE20FF31FEE0F36
:101E3000FF1FE75BFC4F9181409179004183491777
:101E400010F4941B03C0542F591B952F943008F0A5
:101E5000FDC081110EC0423270F04F3370F0483631
:101E600070F0463970F04F3B70F0483E70F4C6E0B9
:101E70000DC0CFEF0BC0C4E009C0C3E007C0C5E090
:101E800005C0C1E003C0C2E001C0CFEFF901EE0F11
:101E9000FF1FE20FF31FEE0FFF1FE75BFC4FD28126
:101EA000DC1709F448C0DF3F19F0CF3F09F0CFEF4E
:101EB000F901EE0FFF1FE20FF31FEE0FFF1FE75BAD
:101EC000FC4FC283DF3FF9F4C901880F991FFC0161
:101ED000E20FF31FEE0FFF1FE75BFC4F158214822A
:101EE000FC01E20FF31FEE0FFF1FE75BFC4F1382B5
:101EF000EC2FF0E0E05BFC4F808180FFA7C08C2FCF
:101F00000E948328A3C0ED2FF0E0E05BFC4F8081AE
:101F100081FF9CC0F901EE0FFF1FE20FF31FEE0FD0
:101F2000FF1FE75BFC4F8381837009F08FC08D2F0B
:101F30000E9483288BC0CF3F09F488C0F901EE0FBF
:101F4000FF1FDF01A20FB31FAA0FBB1FA75BBC4F70
:101F500014968D919C911597019615969C938E934E
:101F60001497FD01848195818B349105A9F4ED2F9F
:101F7000F0E0E05BFC4F808182FF0EC08C2F806818
:101F80000E948328E091090286E0E89FF001112475
:101F9000E75BFC4F82E08383ED2FF0E0E05BFC4FDA
:101FA000808183FF53C08091090290E0FC01EE0F15
:101FB000FF1FE80FF91FEE0FFF1FE75BFC4F2381A8
:101FC00021111EC0FC01EE0FFF1FE80FF91FEE0FDD
:101FD000FF1FE75BFC4F2481358122333105B1F5CA
:101FE00026E0289FF001299FF00D1124E75BFC4FAC
:101FF00081E08383158214828C2F0E94832826C05F
:10200000FC01EE0FFF1FE80FF91FEE0FFF1FE75B4C
:10201000FC4F23812130D1F426E0289FF001299F35
:10202000F00D1124E75BFC4F248135812C30310504
:1020300069F426E0289FF001299FF00D1124E75B49
:10204000FC4F158214828C2F0E94832880910902F4
:102050008F5F80930902843010F010920902809102
:10206000090281110CC090E0FC01EE0FFF1FE80F88
:10207000F91FEE0FFF1FE75BFC4F808101C08FE16E
:10208000982F9F71906690937C00EBE7F0E02081A1
:10209000807290E09595879595958795922F9F7D75
:1020A000892B8083EAE7F0E0808180648083B1C07F
:1020B00080914602803809F4ACC084B3876084BB49
:1020C00084B38B7F84BB20914F032095E2E0EA9597
:1020D000F1F700C084B3846084BB90E2E1E4F3E0F4
:1020E000838182838481838384B3816084BB818183
:1020F000822B88B9858184838681858380B186839C
:1021000084B38E7F84BB3897915051F70000000054
:1021100084B3816084BB84B38D7F84BB809146028D
:1021200082608093460218B88BB180688BB984B303
:10213000826084BB6EC0808181508E3F38F42181E3
:102140002F5F253010F0808320E0218332969F5F3F
:1021500003C090E0EFE2F2E0993068F3E1E4F2E0EE
:1021600080818F5F80838A3F09F053C08FEF809317
:102170005703108281818F5F81838C3308F449C0BB
:10218000118282818F5F82838C3308F442C0128275
:1021900083818F5F83838436E0F11092440239C0DB
:1021A000809146028038A9F1E0905003F12C09E4B7
:1021B00012E02CC0F801C28183819C2F9823C82B88
:1021C00084819823C82B25819223C22B8681982352
:1021D000C82BD781CD23C92BC7838D2F80958C2306
:1021E0008E2121F09F2D90620E94C328C095CD239F
:1021F0008C2F8E2119F09F2D0E94C328085F1F4F3E
:1022000080914602816080934602F394FFE1FF15BE
:1022100088F685B18F7785B9FF91EF91DF91CF91E6
:10222000BF91AF919F918F917F916F915F914F91EE
:102230003F912F911F910F91FF90EF900F900BBE48
:102240000F900FBE0F901F9018958FEF82B985B930
:1022500088B98BB98EB981BB84BB8093020180930E
:1022600005018093080180930B018AB180688AB9C7
:102270008BB18F778BB984B1806484B985B18F7B42
:1022800085B90895882334F4E2E0F1E0908190610B
:10229000908305C0E2E0F1E090819F7E908386FF0D
:1022A00006C0E2E0F1E090819860908305C0E2E032
:1022B000F1E09081977F908385FF04C09EB1986084
:1022C0009EB903C09EB1977F9EB984FF04C084B3BA
:1022D000806284BB03C084B38F7D84BBE2E0F1E005
:1022E00080818064808385E08A95F1F70000808199
:1022F0008F7B808385E08A95F1F700000895CF9366
:10230000C82FE2E0F1E080818062808380818F7B52
:1023100080838C2FB7DF8C2F8295807FB3DF8FEF88
:1023200090E00197F1F700C00000CF910895CF939E
:10233000C82FE2E0F1E080818F7D808380818F7BF8
:1023400080838C2F9FDF8C2F8295807F9BDFC150F5
:10235000C23038F48FE097E20197F1F700C0000037
:1023600006C08FEF90E00197F1F700C00000CF9119
:102370000895E1E0F1E08081806180838081886060
:1023800080838DB188608DB983B3806283BB808187
:10239000806480838081806280832FEF81EE94E06F
:1023A000215080409040E1F700C00000E2E0F1E001
:1023B00080818F7D808380818F7B808380E362DF5B
:1023C0008FE19EE40197F1F700C0000080E35ADF3F
:1023D0008FE19EE40197F1F700C0000080E352DF37
:1023E0008FE19EE40197F1F700C0000088E24ADF28
:1023F0008FEF90E00197F1F700C0000088E297DFCF
:1024000088E095DF81E093DF86E091DF8CE08FCF7D
:1024100008958093580380588ACF089510925803E6
:1024200081E085CF0895909158039F5F9F779093A7
:10243000580365CF0895CF93DF93FC01892B19F4DE
:1024400007C0F1DFFE01EF01219680818111F9CFF4
:10245000DF91CF910895CF93DF93FC01892B19F47D
:1024600007C0E1DFFE01EF01219684918111F9CFD0
:10247000DF91CF91089582E893E0909315058093C2
:102480001405909313058093120508958091120509
:10249000909113052091140530911505821793072B
:1024A00048F0821B930B959587959DEC899F802D15
:1024B0001124089580579E4F821B930B9595879505
:1024C0009DEC899F802D11240895CF93C82FDEDFC6
:1024D000C817F8F440911405509115058C2F90E021
:1024E0009C01220F331F880F991F880F991F880F97
:1024F000991F280F391FCA01820F931F65E088308A
:10250000960749F040F020593140CA01820F931FCD
:1025100002C080E090E0CF910895D7DF0097F1F1FD
:10252000FC013681678120E034C0422F50E0FA017F
:10253000EE0FFF1FCF01880F991F880F991F880F7B
:10254000991FE80FF91FE659FE4F8491381320C0F8
:10255000FA01EE0FFF1FCF01880F991F880F991FF7
:10256000880F991FE80FF91FE559FE4F84916813F2
:102570000FC0440F551FCA01880F991F880F991F5C
:10258000880F991F480F591FCA0184599E4F0895FB
:102590002F5F203150F280E090E0089580E090E0DD
:1025A0000895CF9373DF10925903811114C017C09F
:1025B0008C2F8BDF009761F0FC012481203251F0D9
:1025C00095818C2F953439F48FEF8093590307C090
:1025D0008C2F01C08C2FCFEFC80F8111E9CFCF9185
:1025E00008951F93CF93DF93009709F47BC0162FB4
:1025F000EC018B81882379F06AE573E00E949032C8
:10260000BC016F5F7F4F28E6FC0120838A810E9416
:102610009032DC012FC08A81882379F06AE573E06B
:102620000E949032BC016F5F7F4F2DE6FC0120833A
:1026300089810E949032DC011DC06AE573E08981C6
:102640000E949032FC0183E780839881990F20E0FB
:1026500002C099512F5F9931E0F7205D2183990FD6
:1026600020E002C095502F5F9530E0F7DF01139610
:10267000205D22839C81903451F0903819F0903283
:1026800081F40AC0FD0131968AE28C930EC0FD01EF
:10269000319685EA8C9309C0FD01319680E28C93D6
:1026A00004C0FD0131968FE38C93BF016F5F7F4FB4
:1026B0008D8180838E810E94D332BC018F810E94E4
:1026C000D332BC016F5F7F4F2DE2FC0120838885F0
:1026D00099850E94EB32FC0110821F3F41F01C8360
:1026E00060DF05C0EAE5F3E08DE2808311828AE5D0
:1026F00093E0DF91CF911F910895E0911205F09141
:102700001305A1E4B2E09C919083E0911205F09151
:10271000130511969C9111979183E0911205F09108
:10272000130512969C911297928313969C91938312
:102730002583868367835187408780E884838091DF
:10274000DC0B8F3F81F484E691E00E944A316FEF09
:10275000809112059091130544DF0E94923180E62A
:1027600091E10E944A3180911205909113050A96D9
:1027700090931305809312058850954039F030F0FE
:1027800082E893E09093130580931205209112053F
:10279000309113058091140590911505281739077C
:1027A00079F40A9690931505809314058850954006
:1027B00039F030F082E893E090931505809314058A
:1027C000089525E49ADF8FEF809359030895CF93FE
:1027D000C62F7BDE009719F06C2F03DF06C0EAE5F9
:1027E000F3E08DE280831182CF01CF9108952DDD3A
:1027F00042DE0E9460310E947C28C3D8AAD8D0D87B
:10280000F9D80E944C301ED90E94192C0E94592CD4
:102810000E940E290E9482290E94E52C0E941D27F9
:102820004DD810927105A5DD0E942D32F7DD83E4AD
:10283000F0DD85EA92E00FDE8BE1EBDD80E091E1F7
:102840000ADE78942FEF87E99AE321508040904088
:10285000E1F700C00000E2DD46DA8FEF8093A207C7
:1028600080931605DFEF0E94B028882309F442C048
:102870000E949728C82F863861F40E9419300E9460
:102880001C2E0E949C2B0E9404298AE892E00E9440
:102890001E26809116058F3FF1F48C2F8F73C53063
:1028A00061F460E070E080E090E04ED60E94692222
:1028B0001092160580E06DDA1DC09FEF980F9430DE
:1028C000C8F40E94E1276C2F0E94F627809316051A
:1028D0000E94A2270FC080917105811106C08C2F24
:1028E0000E9470228093160505C08DEF80935505D8
:1028F0000E94E924809116058F3F51F4DF3F49F48F
:102900000E94B7210E94A2278FEF43DAD0E001C0D6
:10291000DFEF80913D02811109C0C09158030E94F0
:102920000D268C2F76DD8FEF80933D0280913B0248
:1029300081110AC080917105882319F00E94E92451
:1029400003C08FEF80933B028091310281111AC046
:10295000DAD90E944228809116058F3F99F4C091E0
:10296000580384E156DD80914502813021F483E9EA
:1029700092E071DD05C0823119F484E10E940F34C8
:102980008C2F47DD0E9431300E94262EC0915803C3
:10299000809103028F3F91F180E03BDD8091010245
:1029A0008F3F69F4809102020E94EC338FE33BDD9C
:1029B000809103020E949B3380E235DD0CC0809140
:1029C00003020E949B338EE72EDD809101020E945C
:1029D000FD3380E228DD8C2F1CDD8FEF8093030216
:1029E0009FB7F89481E006C0EFE2F2E082E38087CF
:1029F000118680E08111F8CF9FBF2CC0809100022A
:102A00008F3FD9F080E005DD80E70DDD8091000289
:102A10000E9476328EE707DD8FEF809300029FB72A
:102A2000F89481E006C0EFE2F2E082E3808711864D
:102A300080E08111F8CF9FBF0DC0809137028111D6
:102A400009C0E7DC86E00E940F348C2FE2DC8FEFB8
:102A500080933702809105028F3FF9F08FE0D9DC37
:102A6000809104020E94FD338EE7DDDC8091050237
:102A70000E949B338C2FCDDC8FEF809305029FB794
:102A8000F89481E006C0EFE2F2E082E382871386E9
:102A900080E08111F8CF9FBF38C08091DC088F3F64
:102AA00031F18FE0B6DC82E5BEDC8091DC088F7707
:102AB0000E9476328091DC08882314F089E001C0FE
:102AC00088E0B1DC80E2AFDC8C2FA3DC8FEF809359
:102AD000DC089FB7F89481E006C0EFE2F2E082E301
:102AE0008287138680E08111F8CF9FBF0EC080914E
:102AF000390281110AC08FE08CDC85E00E940F341E
:102B00008C2F87DC8FEF80933902809157038F3FA2
:102B100009F07EC010925703F0905803C091280D21
:102B2000CF3F11F40E94393480914402882359F038
:102B30008091420280FD0EC00F2EFAE3EF2EF02DA1
:102B400004E412E00CC00F2EFAE3EF2EF02D03E4A4
:102B500012E005C06894EE24E5F804E412E087E092
:102B600058DCF80180810E9476328E2D5CDCF80101
:102B7000319780810E94763240911F0C442331F0BE
:102B800050E060E083E01DDE10921F0C4091240DA8
:102B9000442331F050E061E083E013DE1092240D15
:102BA0008091450284FF02C080E201C089E03BDCE5
:102BB000809159038F3F11F485E401C080E233DC3A
:102BC0008F2D27DCCF3F11F40E94323480913702E1
:102BD0008F3F69F49FB7F89481E006C0EFE2F2E01E
:102BE0008DE78087118680E08111F8CF9FBF8091AB
:102BF00039028F3F69F49FB7F89481E006C0EFE295
:102C0000F2E08DE78287138680E08111F8CF9FBFC5
:102C10008091A3078F3F39F41092A30740E050E062
:102C200060E084E0CEDD9091DB0B8091230D98175E
:102C300021F00E9496300E94AF2E0E94FA288F3F0A
:102C400009F011CE0E94E5280E94432F0CCE10926D
:102C50005C0510925D0510925E0510925F0581E0A3
:102C600090E00090270502C0880F991F0A94E2F7B0
:102C7000482F30E0E1E4F3E022C080915C059091C0
:102C80005D05A0915E05B0915F05880F991FAA1F91
:102C9000BB1F80935C0590935D05A0935E05B09388
:102CA0005F052181242349F0816080935C05909326
:102CB0005D05A0935E05B0935F0538973F5F3032A6
:102CC000E0F280E0089540915C0550915D056091CF
:102CD0005E0570915F05853009F5A1E0B0E00090D8
:102CE000270502C0AA0FBB1F0A94E2F73A2F90E013
:102CF000E1E4F3E011C0772324F48181832B818305
:102D000005C021818A2F809582238183440F551F1E
:102D1000661F771F38979F5F903268F380E00895B1
:102D2000E0915805F09159053E96859195918093D3
:102D3000270580E00895E0915805F09159053E96E9
:102D4000859195918093560580E00895E09158050E
:102D5000F09159053E962591359120936605809115
:102D600056058F7090E02370880F991F880F991F68
:102D7000820F911D880F991F880F991F90936105ED
:102D80008093600580E00895E0915805F091590521
:102D90003E96859195918093260580E00895E09177
:102DA0005805F09159053E96859195918093660559
:102DB000209126052F7030E0837090E0A901440F28
:102DC000551F240F351F220F331F220F331FAC0155
:102DD000440F551F840F951F820F931F9093610519
:102DE0008093600580E00895E0915805F0915905C1
:102DF0003E968591959180936605877090E09C0141
:102E0000220F331F820F931F9093610580936005FB
:102E100080E00895E0915805F09159053E9685911E
:102E20009591843060F4FC01FF27EE0FFF1FE759F6
:102E3000FA4F8081918190937D0580937C0580E09D
:102E400008950E94CA0B80E008951F93CF93DF93EB
:102E50008630F1F0E0915805F09159053E960590C5
:102E6000F491E02DCF018C519540880F880F880F89
:102E7000D081C0E00BC011E0180F6D2F661F6627D0
:102E8000661F0E94CF2ADD0FCF5F812FC83098F3D5
:102E900080E0DF91CF911F91089581110E949C2BBA
:102EA00080E00895E0915805F09159053E9685918E
:102EB00095918E5B9740FC01FF27E254F84F2081EB
:102EC00021110E94102980E00895863039F0809108
:102ED0005705803418F46FEF0E94A92B80E0089505
:102EE0000E943C0C80E00895CF92DF92EF92FF9217
:102EF00081E090E00090270502C0880F991F0A9496
:102F0000E2F7282F90E0E1E4F3E0C12CD12C760128
:102F10000BC0CC0CDD1CEE1CFF1C8681822311F043
:102F20006894C0F838979F5F903298F38EE171DA19
:102F3000C0922A0DD0922B0DE0922C0DF0922D0D07
:102F40000E94513280E0FF90EF90DF90CF90089583
:102F50008EE15FDA809127050E94E10D60932A0DD2
:102F600070932B0D80932C0D90932D0D0E94513258
:102F700080E00895CF938F3F09F077C080930E02D1
:102F800010920D02E0915805F09159053E968591F9
:102F9000959180932605843010F01092260520E04C
:102FA00039C08091260590E0E22FF0E0DF01AA0F02
:102FB000BB1FAD014E0F5F1FDC01AA0FBB1FA80F87
:102FC000B91FAA0FBB1FAA0FBB1FA40FB51FA35287
:102FD000B74F3C9140910E02341710F430930E021B
:102FE000AF01440F551FE40FF51FAC01440F551FEF
:102FF000840F951F880F991F880F991FE80FF91FDD
:10300000E352F74F818190910D02981710F480934D
:103010000D022F5F243028F280910E0288234CF499
:103020008EE1F7D98EE493E016DA8FEF80934E05A8
:1030300004C080934E0510920C0268E271E180E0BA
:103040000E945B3467E371E181E00E945B346CE3D2
:1030500071E182E00E945B346EE371E183E00E94E3
:103060005B340E94AA34CFEF71C060914E056F3F70
:1030700009F461C08130D9F480910D02681708F01D
:103080005CC040E0809126050E94622D60914E0553
:103090006F5F60934E0580910C02813009F04FC044
:1030A00041E0809126050E94622DCFEF4FC0843011
:1030B000D1F480910E02861708F043C040E0809161
:1030C00026050E94622D60914E05615060934E0569
:1030D00080910C028130B9F541E0809126050E9473
:1030E000622DCFEF33C0833091F480910C028111B7
:1030F00004C081E080930C0202C010920C02409147
:103100000C02809126050E94622DCFEF1FC08230F5
:1031100011F0863039F440E0809126050E94622D3E
:10312000C0E014C0853089F440E0809126050E94FB
:10313000622DC0E00BC0C0E009C0CFEF07C0CFEFE9
:1031400005C0CFEF03C0CFEF01C0CFEFCF3F59F5A0
:1031500080914E058F3F29F18EE15BD980914E051C
:103160000E949B3380E25FD980910C02811107C0DD
:1031700081E659D985E757D983E755D906C085E651
:1031800052D989E650D98EE64ED961E080910C0281
:10319000811101C060E081E00E94C93481110E9468
:1031A000AA348EE136D98C2FCF9108950E94540B0A
:1031B00080E008950E94540B80E008950E94320B35
:1031C00080E008950E94100B0E9468290E94EC0B79
:1031D0000E948E2C80E008950E94840B80E0089568
:1031E000CF9381E393E00E944A3150D981110FC0FF
:1031F00087E393E00E944A310EC06FEF8C2FE7DA2D
:103200000E94923180E691E10E944A318C2FCFEFEB
:10321000C80F8111F2CF80E0CF9108950E94AA0BD0
:103220008091DC0B8F3F61F488E193E00E944A318A
:1032300080E091E10E944A3180E691E10E944A31AA
:1032400080E008959F92AF92BF92CF92DF92EF926B
:10325000FF920F931F93CF93DF938FEF92E00E9423
:103260004A318CEE92E00E944A316EE27DE080911C
:1032700050030E94D33222E7FC012083BC016E5F21
:103280007F4F20E2218380914F030E94D33227E7B2
:10329000FC0120838EE29DE00E9492310E945C310D
:1032A0008AED92E00E944A316EE27DE08091480210
:1032B0000E94D3328EE29DE00E9492310E945C31E6
:1032C000E12CB5C081ED92E00E944A316EE27DE0D2
:1032D0008E2D0E9464338EE29DE00E9492310E9406
:1032E0005C31F12C9FC089EC92E00E944A3180E36E
:1032F0008F0D0E9424318DE20E94243180E20E94D1
:1033000024310E2D10E0CF2CD12CE601CC0FDD1F87
:10331000CE018C0D9D1DE801CC0FDD1FC00FD11F0C
:10332000CC0FDD1FCC0FDD1FC80FD91FC352D74FE5
:103330006EE27DE088810E94D332BC016F5F7F4FD7
:103340006894BB24B5F8FC01B08289810E94D33215
:10335000BC016F5F7F4FFC01B0828A810E94D33233
:103360002DE3FC0120838EE29DE00E949231888152
:1033700088232CF483EC92E00E944A3150C06EE224
:103380007DE00E940833BC016F5F7F4F0F2EFDE28E
:103390009F2EF02DFC019082F601EE0FFF1FCE0E46
:1033A000DF1E5801AA0CBB1CE501C00FD11FCC0FBA
:1033B000DD1FCC0FDD1FCC0DDD1DC352D74F898122
:1033C0000E94083320E2FC0120838EE29DE00E94EF
:1033D00092318BEB92E00E944A318A8182958695E8
:1033E0008770805D0E94243184EB92E00E944A3114
:1033F0008A816EE27DE08F710E949032BC016F5F26
:103400007F4FFC0190828A81998128818F71890F79
:10341000821B0E9490328EE29DE00E9492310E94B7
:103420005C31F394F3E0FF1508F05DCFE39483E0A3
:103430008E1508F047CF80E0DF91CF911F910F915B
:10344000FF90EF90DF90CF90BF90AF909F90089546
:103450001F93CF93DF9310E009C0C12FD0E0C45E6B
:10346000DA4F88810E94003588831F5F1830A8F3E7
:10347000DF91CF911F9108958CE195E00E94A32ADE
:10348000E7DF80E008950E949C2B80E0F5DF80E07C
:103490000895863031F080915705803410F40E94F1
:1034A0000D2B80E0E9DF80E00895CF93C62F8823BD
:1034B000D9F0E62FF0E0DF01A254B84F8C918111D2
:1034C00008C0862F0E941029882371F00E94F02DD9
:1034D0000BC0DF01A254B84F1C92EE0FFF1FEA5F32
:1034E000FE4E84910E94F02DEC2FF0E0E254F84F54
:1034F0008081811102C082E801C081E8CF910895E6
:1035000060E0D3CF089561E0D0CF089563E0CDCFE0
:10351000089562E0CACF089564E0C7CF089565E0DA
:10352000C4CF089566E0C1CF089567E0BECF089587
:1035300069E0BBCF089568E0B8CF08956AE0B5CFE1
:1035400008956BE0B2CF089510921705009769F4C3
:1035500084EC96E090935905809358058FE993E0A9
:1035600090934C0580934B0508C090935905809328
:10357000580570934C0560934B058FEF809325059C
:1035800089EA93E09093290580932805089560E4E3
:1035900071E182E00C945B34089562E471E183E0B0
:1035A0000C945B34089564E471E181E00C945B3425
:1035B000089562E371E181E00C945B3408956DE25B
:1035C00071E181E00C945B34089566E471E180E080
:1035D0000C945B340895809124058A3011F08E306C
:1035E00031F46EE171E180E00C945B3408956EE398
:1035F00071E180E00C945B340895809124058A3059
:1036000011F08E3031F460E271E181E00C945B34B2
:1036100008956CE371E181E00C945B340895CF93DD
:10362000DF93E09124058E2F90E0FC013297ED307E
:10363000F10508F0E4C08827EE58FF4F8F4F0C9437
:103640000D3580916805E3E7F5E0982F92959F701E
:1036500090838F708183D3C080916805803120F082
:103660008FEF80937305CBC08F5F80937305C7C0C6
:1036700080916805882334F4E3E7F5E010828FEF4A
:103680008183BDC01092740508C0E3E7F5E0918125
:103690009F5F91838C5080936805809168058C3082
:1036A000A0F780937305ABC080916805E3E7F5E070
:1036B000982F92959695977090838F718093680557
:1036C000118208C0E3E7F5E091819F5F91838A5002
:1036D00080936805809168058A30A0F7809375050E
:1036E0008EC0E3E7F5E01082118208C0E3E7F5E061
:1036F00090819F5F908384568093680580916805D0
:103700008436A0F708C0E3E7F5E091819F5F9183DD
:103710008A5080936805809168058A30A0F780936D
:1037200075056DC080916805843020F08FEF80931F
:10373000730565C08093730562C08091680584300D
:1037400020F083E0809373055AC08093730557C0BF
:10375000809168058093730552C0E92FF0E0809155
:103760006805282F221F2227221FED58FA4F208399
:10377000880F809368059F5F01C090E0983068F3E0
:103780003EC08250F0E0DE019D91ED58FA4F9F70EF
:103790009083E82FF0E09881ED58FA4F92959F7052
:1037A0009083ED0103C0C1E5D5E088E0EFEFE80FBD
:1037B0008111E7CF24C080916805E3E7F5E0982FF9
:1037C00097709F5F90838695869586958F5F81839E
:1037D00016C0809168058F5F80936805109273050D
:1037E00008C0E3E7F5E090819F5F90838A50809363
:1037F0006805809168058A30A0F780937405DF9191
:10380000CF9108950F931F93CF93DF93E0912405F9
:103810008E2F90E0FC013297ED30F10508F03BC1AE
:103820008827E158FF4F8F4F0C940D3503E715E0C3
:10383000F80180810E940332C5E2D2E08883F8015A
:1038400081810E94033289831A8225C1E5E2F2E078
:1038500083E4808388E68183809173058F3F29F418
:1038600080E282838DE2838312C08A3048F0C5E211
:10387000D2E091E39A838A500E9403328B8307C07F
:10388000C5E2D2E090E29A830E9403328B831092C9
:10389000290201C1809173058F3F21F09091740539
:1038A0009F3F59F4E5E2F2E08EE680839FE6918344
:1038B000828385E683831482EEC09FE5909326027F
:1038C0008B3021F488E48093250220C0853058F4A1
:1038D000982F96959D5B9093250280FF17C083E2F9
:1038E0008093260213C0282F30E0255031093595EA
:1038F00027952A5B2093250280FD03C083E28093F5
:103900002602283419F481E48093250280917405FD
:10391000811104C08DE6809327020BC08C3030F4F7
:1039200081500E9403328093270203C08DE280936E
:10393000270210922802AFC0C5E2D2E08DE488834E
:1039400003E715E0F80180810E940332898382E455
:103950008A83F80181810E9403328B83F80182817E
:103960000E9403328C831D8296C003E715E0F801A4
:1039700080810E940332C5E2D2E08883F801818110
:103980000E9403328983F80182810E9403328A8374
:103990001B8281C080917305833038F4E5E2F2E048
:1039A00093E3981B9083118276C0833031F4E5E273
:1039B000F2E080E5808311826EC0E5E2F2E08DE204
:1039C0008083118268C080917305E5E2F2E0805D3A
:1039D0008083118260C080917305811109C0E5E286
:1039E000F2E081E4808385E7818383E7828308C0F6
:1039F000E5E2F2E085E4808389E681838EE68283D6
:103A00001092280248C0C12FD0E0FE01ED58FA4FB5
:103A100080810E940332CB5DDD4F88831F5F01C030
:103A200010E0183080F337C0822F90E0FC01ED5891
:103A3000FA4F3081311102C03FE601C039E4FC0188
:103A4000EB5DFD4F30832F5F01C020E0283060F335
:103A500022C0A3E7B5E08C91E5E2F2E0805D8083CF
:103A600011968C91805C8183128215C0E3E7F5E0AA
:103A700090818181292F282B31F4E5E2F2E08DE25B
:103A80008083818306C0E5E2F2E0905D9083805DF3
:103A9000818310922702DF91CF911F910F9108959A
:103AA0000F931F93CF938EE10E940912C0E005E2AD
:103AB00012E00BC0F8018081882319F00F5F1F4FBF
:103AC00001C080E20E941312CF5FCA3098F3CF91F9
:103AD0001F910F9108958A301CF488231CF00895DB
:103AE00080E0089589E008950F931F93CF93DF93AB
:103AF000C82FE0915805F091590531968491282FEF
:103B00002071E09124058E2F90E0FC013297ED307A
:103B1000F10508F093C18827E457FF4F8F4F0C94AD
:103B20000D35D0E0CD58DA4F8881680F6F7068830B
:103B300085C121111BC0613041F480917305803132
:103B400020F081E08093730579C16F3F49F4809143
:103B5000730582508F3020F080E1809373056EC131
:103B6000E3E7F5E08081680F608368C1613041F46C
:103B700080917305803121F48FEF809373055EC1CE
:103B8000613041F4809173058F3F21F481E080938F
:103B9000730554C16F3F41F4809173058F3F21F449
:103BA00080E1809373054AC16F3F41F480917305B2
:103BB000813021F48FEF8093730540C1E3E7F5E096
:103BC0008081680F60833AC1809174058F3F09F44A
:103BD000C1E0C11116C0809173058C3050F48B3058
:103BE00011F4613041F0811102C06F3F31F0680F74
:103BF00005C060E003C060E001C06BE06093730546
:103C00002BC021110AC0811102C06F3FC1F08A3060
:103C100011F46130B1F0680F1DC0811102C06F3F17
:103C200091F08A3011F4613081F08F3F11F46130EE
:103C300071F08F3F11F46F3F61F0680F0BC06AE0C5
:103C400009C060E007C06FEF05C06FEF03C060E020
:103C500001C06AE060937405909173059F3F09F479
:103C6000EDC0809174058F3F09F4E8C0282F220F22
:103C7000820F282F220F220F920F0AF0DFC0E3E7F6
:103C8000F5E087E080838AE08183D8C0C11107C056
:103C9000E3E7F5E08081680F67706083CFC0D0E014
:103CA00003E715E0CD58DA4F8881860F14DF88834B
:103CB000F80181819281880F282F220F220F820F15
:103CC000890F80322CF083E0818381E08283B6C04B
:103CD00088230CF0B3C0E3E7F5E011821282AEC096
:103CE000D0E003E715E0CD58DA4F8881860FF3DE88
:103CF0008883F8012081818190E0AC01440F551F39
:103D0000880F991F880F991F880F991F840F951F7F
:103D1000F4E62F9F800D911D1124F8012281820F5E
:103D2000911D8F3F910509F00CF488C082E08083DB
:103D300085E08183828382C02223A1F0D0E0FE014E
:103D4000ED58FA4F8081680F6083643019F48FEF6B
:103D5000808374C06E3F09F071C0CD58DA4F83E0A4
:103D600088836CC0D0E0FE01ED58FA4F808181114C
:103D700005C06F3F19F483E0808360C0833031F465
:103D8000613021F4CD58DA4F188258C0CD58DA4F3F
:103D9000680F688353C0D0E0CD58DA4F8881680F30
:103DA000637068834BC0E3E7F5E080818095808392
:103DB00045C0D0E081E061FD80E0CD58DA4F8883D6
:103DC0003DC0613041F4D0E0CD58DA4F8881877032
:103DD0008F5F888333C0EC2FF0E0ED58FA4F80817D
:103DE000825087708F5F808329C0E3E7F5E0908180
:103DF0008181990F292F220F220F920F890FC11154
:103E000007C0660F962F990F990F690F680F01C0B1
:103E1000680F66231CF061341CF403C060E001C02D
:103E200060E01092730506C0E3E7F5E080818F5FE4
:103E300080836A506A30C4F760937405DF91CF9134
:103E40001F910F910895E09124058E2F90E0FC01C1
:103E50003297ED30F10508F0DAC08827E756FF4FBA
:103E60008F4F0C940D35E3E7F5E0808120E1829FD0
:103E7000C001112491819F70892B8093680508955A
:103E8000909173058FEF890F803118F0909368053A
:103E90000895809368050895909173059F3F21F0E0
:103EA000809174058F3F21F48FEF8093680508950A
:103EB000282F220F820F880F880F890F80936805A3
:103EC0000895E3E7F5E0808130E2839FC00111248B
:103ED00021813281220F422F440F440F240F230FE0
:103EE000203220F08F61809368050895822B8093A3
:103EF00068050895E3E7F5E02081818190E0AC0159
:103F0000440F551F880F991F880F991F880F991FFD
:103F1000840F951F34E6239F800D911D112422816B
:103F2000820F911D8F3F910529F020F08FEF809334
:103F300068050895809368050895809173058093BE
:103F40006805843008F463C08FEF80936805089596
:103F5000809173058370809368050895809173053F
:103F60008093680508951092680580E00CC09091D8
:103F70006805990FE82FF0E0ED58FA4F2081920F75
:103F8000909368058F5F883090F3089510925105E3
:103F9000109252051092530510925405A1E5B5E018
:103FA00088E010C08250F0E0ED58FA4F9081E82F81
:103FB000F0E0ED58FA4F208130E1239F900D11245D
:103FC0009C931196EFEFE80F8111ECCF0895E3E792
:103FD000F5E020819181892F90E00197880F991F4A
:103FE000880F991F880F991F9FEF920F892B80933D
:103FF00068050895E3E7F5E080819181880F282F17
:10400000220F220F820F890F815080936805089537
:104010000F931F93CF93DF938C01D62FC0E00CC07A
:10402000F8018491882319F00F5F1F4F02C08D2F74
:10403000D0E20E941312CF5FCA3090F3DF91CF918C
:104040001F910F91089580E40E940912E0911705D5
:10405000E11107C06AE380914B0590914C05D8CFE0
:104060000895F0E03197EE0FFF1FE65DFA4F808173
:1040700091816AE30296CCCF0895E0915805F091C2
:10408000590584918F7390E002971CF0C8DABADB6F
:1040900007CD0895E0912805F09129058091250527
:1040A000E80FF11D31968491825E0E9409122091E1
:1040B000250530E0E0912805F0912905849190E0F4
:1040C00001972817390714F468DA03C083E00E94C7
:1040D000963480912505882311F059DA03C082E0D7
:1040E0000E94963478DA89DA0C94AA34089584E12F
:1040F0000C94091208950F931F93CF93F8DF8BE967
:1041000093E00E942B128091250D9091260D0E9424
:1041100093338DE20E9413128091250D9091260D0C
:10412000049730F48091250D9091260DC82F01C081
:10413000C4E00091DB0B10E00656144F13C08BE077
:104140000B39180710F0F80102C0EAEBFBE08F0111
:104150000150110980810E943A32C15019F080E269
:104160000E941312C111EBCF80E0CF911F910F91EC
:1041700008950F931F93CF93BADF86E993E00E94CF
:104180002B128091200C9091210C0E9493338DE290
:104190000E9413128091200C9091210C049730F40E
:1041A0008091200C9091210CC82F01C0C4E0009197
:1041B000960B10E00654144F13C08BE00B3B18070E
:1041C00010F0F80102C0EAEDFBE08F010150110987
:1041D00080810E943A32C15019F080E20E9413128D
:1041E000C111EBCF80E0CF911F910F9108950F93F4
:1041F0001F93CF938F3FA9F40E9446128150809362
:104200000B0210920A0268E271E180E00E945B34C6
:1042100062E271E181E00E945B340E94AA34CFEF38
:104220002FC0843049F480910B02882321F1815002
:1042300080930B02CFEF24C0813091F400910B02E8
:1042400010E00F5F1F4F0E94461290E008171907F9
:10425000A4F480910B028F5F80930B02CFEF10C00C
:10426000833011F0853059F480910A028095809353
:104270000A02CFEF05C0CFEF03C0CFEF01C0C0E00F
:10428000CF3F09F054C033DF0E944612811106C0AF
:1042900087E493E00E942B12C0E01DC080910B02C6
:1042A0008F5F0E9476328AE30E94131280910A0285
:1042B000811108C060E280910B020E94E7130E9406
:1042C0001B1206C080910B020E948D120E942B12BD
:1042D0000E941B340CDF61E080910A028F3F09F0DD
:1042E00060E081E00E94C93400910B0210E00F5F92
:1042F0001F4F0E94461290E00817190734F462E439
:1043000071E183E00E945B3403C083E00E94963435
:1043100080910B02882331F060E471E182E00E9419
:104320005B3403C082E00E9496340E94AA348C2F32
:10433000CF911F910F9108958AE40C94091208956A
:10434000D6DE8AE00C940F3408958EE10E940912A3
:104350008AE00C940F34089580E40E9409128AE0E8
:104360000E940F34E9DF8AE00C940F340895F4DFE3
:10437000ECDFE6CF0895E0915805F091590584915E
:104380008F73813011F40FC908953E960590F49112
:10439000E02D309759F0893039F48081811102C0C5
:1043A00008C908950CC90895FEC8089581E00C94C9
:1043B00096340895CF9389E40E940912E09158053C
:1043C000F0915905C491C07CC03839F480E20E9454
:1043D000131282E00E94963404C08FE70E941312E9
:1043E000D6D8C03C29F483E00E949634C0E202C0D3
:1043F000D4D8CEE7EAD8BFDF80915805909159050F
:104400006C2F029605DE0E94AA3496DFCF910895A4
:104410008FEF80933D028091580590915905FC01E2
:104420002491622F6F73623008F449C09C01225FAF
:104430003F4FF901459155914115510509F43FC090
:10444000E62FF0E031979F01220F331F220F331F19
:10445000220F331FE20FF31FE755FC4FF09329059E
:10446000E0932805249120934F05FC0125912F739B
:1044700020932405249122232CF42091600530916F
:10448000610502C020E030E0240F351FFC0184915B
:104490008F738B3071F4F90180819181A281B38196
:1044A0008093510590935205A0935305B093540502
:1044B00004C0F901808180936805DFDD07C045DF16
:1044C00089EA93E0909329058093280554DF34CF3F
:1044D000089536DF9DDFB7DD6DDF0C94323408952B
:1044E000CF93C82F0E943234E0915805F0915905BE
:1044F00084918F73813029F0809125058F3F09F0D9
:104500005BC13196849186FF02C01ADF15DF60918E
:10451000580570915905CB010196FC018491982FA3
:10452000907285FF1FC09B01205F3F4FF9012591CD
:10453000359121153105B1F0409125054F3F91F09E
:104540008C2FF90119958F3F21F41092250580E0F9
:10455000F5C1F6DEFADEF0DE8FEF809325052ADF67
:1045600080E0ECC1C33009F464C028F4C13051F0DC
:10457000C23031F1CEC1C53009F45BC090F0C63015
:10458000F9F0C7C1FB018491807C803C09F4C3C170
:104590007496F0935905E09358053ADF0BDF80E0FD
:1045A000CDC1FB018491807C803809F4B6C1749739
:1045B000F0935905E09358052BDFFCDE80E0BEC187
:1045C00084FF04C010927D0510927C05E0911705D0
:1045D000EE23E9F0E150E0931705F0E0EE0FFF1F46
:1045E000E65DFA4F0190F081E02DF0935905E093DC
:1045F000580572960590F491E02D309711F080E007
:1046000019959EDE20DDD6DE03DF80E097C180E0D5
:104610000E94963481E00E94963482E00E94963493
:1046200083E00E9496340E94AA340E9439348FEFAE
:1046300085C1FB0124912F7330E0223031050CF449
:104640003BC070960590F491E02D309719F08C2FB7
:104650001995DEDE2091580530915905C901019662
:10466000FC01849183FD5BC1C9010E96FC0185911B
:104670009591892B09F455C1F90184918F73893083
:10468000B1F461E080E030DADEDBE0915805F091D2
:1046900059053E960590F491E02D80916805808340
:1046A000ECDC69DE0E94AA3447DE80E047C110924C
:1046B0002505F0DC80E042C12FEF2093250584FF23
:1046C00026C070937D0560937C05E0911705EE236D
:1046D00009F429C1E150E0931705F0E0EE0FFF1F48
:1046E000E65DFA4F0190F081E02DF0935905E093DB
:1046F000580572960590F491E02D309711F080E006
:1047000019951EDEA0DC56DE83DE80E017C1FB01BA
:1047100070960590F491E02D309799F0992371F0FF
:104720008FEF19958F3F19F4109225050AC008DE06
:104730000CDE02DE8FEF8093250503C085E019951E
:10474000FBDD2091580530915905C9010C96FC01FB
:1047500085919591892B09F4E8C0A0911705A031A6
:1047600008F0E5C081E08A0F80931705B0E0AA0F3A
:10477000BB1FA65DBA4F2D933C93C9010196FC0166
:10478000849183FF0BC080917C0590917D050097FB
:1047900029F0909359058093580508C0F9013C967B
:1047A000859195919093590580935805C9DD4BDC0F
:1047B00001DE2EDE80E0C2C0C33009F449C028F417
:1047C000C13059F0C23031F1B4C0C53009F45EC017
:1047D000C0F0C63009F48AC0ACC0482F50E0E09168
:1047E0002805F0912905249130E021503109421724
:1047F00053070CF0A0C08F5F809325054BDC80E051
:104800009DC0882309F499C081508093250542DC1E
:1048100080E094C061E068D916DB2FDC809124052C
:104820008A3011F08E3089F420912505422F50E016
:10483000E0912805F0912905849190E001974817AF
:1048400059071CF42F5F2093250524DC80E076C0F7
:104850006FEF4AD9F8DA11DC809124058A3011F023
:104860008E3089F420912505422F50E0E0912805F3
:10487000F0912905849190E00197481759071CF49D
:104880002F5F2093250506DC80E058C0DCDA2091FC
:10489000580530915905C9010E96FC01A591B591B5
:1048A000109721F10D97FC01849188232CF48091BD
:1048B00060059091610502C080E090E0A80FB91FEB
:1048C000F90184918F738B3071F4409151055091AF
:1048D000520560915305709154054D935D936D930E
:1048E0007C93139703C0809168058C93E0915805E1
:1048F000F091590572960590F491E02D309711F0E2
:104900008C2F19958FEF8093250554DD81DD80E094
:1049100015C080E013C080E011C080E00FC080E0CF
:104920000DC080E00BC080E009C080E007C080E0DF
:1049300005C080E003C080E001C080E0CF91089511
:104940000F931F93CF93DF93EC0100915803E091F5
:104950005805F091590584918F73813091F4CE01FF
:104960000E94EC3424E130E0A901481B5109CA013E
:10497000959587958C5E0E94091283E080934D0582
:1049800005C084E10E94091210924D051091580350
:10499000CE010E942B12802F0E9409129FB7F8941B
:1049A00081E006C0EFE2F2E084E68687178680E0C9
:1049B0008111F8CF9FBF812FDF91CF911F910F9170
:1049C000089585E693E0BCDF0E941930B5DC80E0F5
:1049D0000895809155058F3F11F08D3F71F50E942C
:1049E0003934B3DC1092A20790E0E9E4F2E007C0AA
:1049F000218180917105822B818338969F5F90324F
:104A0000B8F3809155058F3F19F4109255055BC09E
:104A10008FE593E095DF8EEF809355059FB7F8946F
:104A200081E006C0EFE2F2E082E08487858780E0E3
:104A30008111F8CF9FBF80DC46C08E3F41F48FEFDD
:104A40008093A207109271050E9432343CC04091BD
:104A500018055091190560911A0570911B057695FE
:104A6000679557954795409318055093190560939E
:104A70001A0570931B05E82FF0E0DF01AA0FBB1F9A
:104A8000AA0FBB1FAA0FBB1FA75BBD4F16962C9189
:104A900090917105292349F470684093180550934B
:104AA000190560931A0570931B05EE0FFF1FEE0F9B
:104AB000FF1FEE0FFF1FE75BFD4F2181922B9183BC
:104AC0008F5F80935505E0915505E03228F5F0E0C1
:104AD000EE0FFF1FEE0FFF1FEE0FFF1FE75BFD4FF7
:104AE00080917105982F90958181892381838EE132
:104AF0000E940912809155050E9476329FB7F89462
:104B000081E006C0EFE2F2E088E08487158680E06D
:104B10008111F8CF9FBF0895E03281F5809118058B
:104B200090911905A0911A05B0911B050097A10558
:104B3000B10521F48CE593E003DF0FC080932A0DCB
:104B400090932B0DA0932C0DB0932D0D89E593E040
:104B5000F7DE0E9409120E9451328EEF80935505B4
:104B60009FB7F89481E006C0EFE2F2E082E084872C
:104B7000858780E08111F8CF9FBFDECB089581E06B
:104B800090E00090270502C0880F991F0A94E2F771
:104B9000809371058FEF8093550510921805109240
:104BA000190510921A0510921B0513DF80E0089575
:104BB0008CE593E0C5CE08958EE10E9409128FE343
:104BC00093E00E942B120E94910CF2DF80E0089586
:104BD0008EE10E9409128FE393E00E942B120E9443
:104BE0009D0CE6DF80E008958FE393E0A9DE8EE17F
:104BF0000E9409120E945E0CDBDF80E00895CF93D3
:104C0000C091580380E40E94091284E10E940F348D
:104C10008C2F0E940912CF91089580914D05833009
:104C200019F48EDB92CB0895811102C089CB0895CF
:104C3000813011F48ACB0895E2CF08950F931F932A
:104C4000CF93DF93EC01109158030E94EC34082FAE
:104C500080E40E94091284E190E0801B91099595FF
:104C600087950E940F34CE010E942B129091580319
:104C700084E5891B0E940F34812F0E9409129FB77F
:104C8000F89481E006C0EFE2F2E084E686871786BA
:104C900080E08111F8CF9FBF82E080934D05DF91C6
:104CA000CF911F910F9108950F931F93CF93DF938F
:104CB000EC01109158030E94F634082F80E40E9402
:104CC000091284E190E0801B9109959587950E94D7
:104CD0000F34CE010E941B129091580384E5891B6A
:104CE0000E940F34812F0E9409129FB7F89481E02F
:104CF00006C0EFE2F2E084E68687178680E0811145
:104D0000F8CF9FBF82E080934D05DF91CF911F9137
:104D10000F9108956EE27DE00E94AC32BC0183E801
:104D200093E00E947D338EE29DE0BECF08950F9305
:104D30001F93CF936EE27DE00E94AC32BC0186E708
:104D400093E00E947D338C010E94660E84E0E7D3DD
:104D5000C82F882349F0B80184E793E00E947D338F
:104D6000BC018C2F0E94AC328EE29DE09DDFCF9182
:104D70001F910F91089588232CF46FEF80E0E9D400
:104D8000C9DF05C0882319F080E047D4D0DF80E078
:104D900015D5811102C081E8089582E8089588231D
:104DA0002CF46FEF81E0D5D4B5DF05C0882319F06E
:104DB00081E033D4BCDF81E001D5811102C081E8FC
:104DC000089582E8089588232CF46FEF82E0C1D41F
:104DD000A1DF05C0882319F082E01FD4A8DF82E09C
:104DE000EDD4811102C081E8089582E808958823F6
:104DF0002CF46FEF83E0ADD48DDF05C0882319F06C
:104E000083E00BD494DF83E0D9D4811102C081E820
:104E1000089582E8089520E034E08033930749F054
:104E200034E08033930738F044972F5FA9F780E090
:104E30000895822F089580E00895CF930E94E30A99
:104E40008F3FC9F40FC0822F90E0FC01EE59FA4F5A
:104E50001082880F991FFC01E759FA4F11821082C6
:104E60002F5F01C020E0243070F340E050E067E0A5
:104E700081E00E94E113C0E025C04C2F50E0FA0110
:104E8000EE59FA4F8081863170F424E1829FC0018F
:104E90001124805D9B4F440F551FFA01E759FA4FCB
:104EA000918380830EC0FA01EE0FFF1FE759FA4F7E
:104EB000118210824F5F5F4F406167E081E00E9486
:104EC000E113CF5FC430C8F2CF910895CF93DF9341
:104ED000643028F50097B9F0FC0124912F7321303C
:104EE00091F43196249124FF0EC0C62FD0E0FE012C
:104EF000EE0FFF1FE759FA4F918380838CDFCE5965
:104F0000DA4F88830CC070E0FB01EE0FFF1FE759FA
:104F1000FA4F11821082FB01EE59FA4F1082DF9195
:104F2000CF910895E0915805F09159053E9665910D
:104F3000759180917C0590917D05C8DF0E943C0CA5
:104F400080E008950F931F93CF93C0E032C00C2FE1
:104F500010E0F801EE0FFF1FE759FA4F0190F081C2
:104F6000E02D309731F03E96659175916115710590
:104F700021F48C2F0E9496341BC08C2F0E945B342E
:104F8000000F111FF801E759FA4F0190F081E02D51
:104F900070960590F491E02D309751F080E01995CE
:104FA000813811F46FEF01C060E08C2F0E94C9348A
:104FB000CF5FC43060F20E94AA34CF911F910F914D
:104FC0000895823049F018F4813051F00BC08330DD
:104FD00059F0843019F006C080E0089582E0089509
:104FE00083E008958FEF089581E008950F931F9354
:104FF000CF938430D0F5E82FF0E0EE0FFF1FE75994
:10500000FA4F008111810115110589F1F801949180
:105010009F73913071F53196949194FF2CC0C82FF5
:105020003F960590F491E02D309789F0862F1995E1
:10503000823829F460E08C2F0E94C93406C0813880
:1050400021F46FEF8C2F0E94C9340E94AA34F8011A
:105050003C9685919591009781F0B8016E5F7F4FE6
:105060000E94A41A36DA80E009C08FEF07C08FEFE4
:1050700005C08FEF03C08FEF01C08FEFCF911F915D
:105080000F910895CF93C09158038CE00E940912AC
:105090008091450284FF02C080E201C089E00E9445
:1050A00013128C2F0E940912CF91089585B180644C
:1050B00085B983E180934502E5DF80E0089585B1FD
:1050C0008F7B85B910924502DDDF80E0089585B1C0
:1050D0008F7B85B981E080934502D4DF9FB7F89438
:1050E00081E006C0EFE2F2E088E28283138280E092
:1050F0008111F8CF9FBF08951092810710927E050D
:1051000010928007089590918107E92FF0E0EE5703
:10511000F84F80839F5F9F7180917E05981304C034
:105120008FEF8093800708959093810708954FB77C
:10513000F89421E011C090917E05309181078FEFA6
:1051400020E0931749F0E92FF0E0EE57F84F808107
:105150009F5F9F7190937E052111EDCF4FBF089502
:105160004FB7F89491E008C030917E0520918107F7
:1051700090E080E0321711F08FEF01C090E09111C4
:10518000F3CF4FBF0895AC019091A2079923E1F0AE
:1051900090917F0721E0290F20937F07E92FF0E00E
:1051A000EE0FFF1FE158FA4F518340838091A4070F
:1051B00028130AC090937F079F3F19F48FEF8093C5
:1051C0007F078FEF8093A3070895E091A407809154
:1051D0007F07E81303C08FEF9FEF089581E08E0FE4
:1051E0008093A407F0E0EE0FFF1FE158FA4F808193
:1051F000918108959091A40780917F07981302C030
:1052000080E008958FEF089580E0EEEBF7E003C0B3
:1052100010828F5F31968C30D8F30895F5CF0895C2
:105220008C30E8F4E82FF0E0E254F84F9FEF9083E1
:10523000863010F0865001C08A5FE82FF0E0DF0171
:10524000A254B84F8C91882359F0DF01A254B84F73
:105250001C92EE0FFF1FEA5FFE4E8491089580E0DE
:10526000089580E090E04BE001C0422F282F392FB5
:10527000220F331F822F932FE42FF0E0E254F84FD8
:1052800050815F3F09F481602FEF240F4111EDCF72
:10529000089540E080FF07C0E42FF0E0E254F84FAB
:1052A0002FEF208305C0E42FF0E0E254F84F108286
:1052B000282F392F36952795822F932F4F5F4C300B
:1052C00048F3089580E8809346020C94FA0C089500
:1052D00020E030E012C0822F90E0FC01EE0FFF1FB3
:1052E0008E0F9F1FFC01EB55F84F81818F3F21F0FE
:1052F000831710F031E0380F2F5F283060F33093C0
:10530000BD0708958FEF8093DC0820E00EC0822F48
:1053100090E0FC01EE0FFF1FE80FF91FEB55F84F6F
:105320008FEF8083818312822F5F283080F30E9469
:10533000870A8F3F49F41092BD0740E050E065E0D6
:1053400081E00E94E11301C0C3DF0E94BB0A8F3FCE
:10535000A1F52AC0832F90E0FC01EE0FFF1F880FFC
:10536000991F880F991F880F991FE80FF91FE35F96
:10537000F64FE20FF11D10822F5F01C020E02830B0
:1053800048F3832F90E0FC01EE0FFF1F880F991F59
:10539000880F991F880F991FE80FF91FE35FF64FD9
:1053A000118610863F5F01C030E0303438F340E0B2
:1053B00050E066E081E00C94E11308959091BD0700
:1053C0008917A0F4803490F428E0E5EAF7E0308112
:1053D000831748F09181981730F02281982F931B02
:1053E00080E0920F08953396215089F78FEF90E077
:1053F000089590E016C04091A707841788F0682FA1
:1054000070E0E5EAF7E0218130E0240F311D5081A2
:10541000251B3109261737071CF0841B850F0895BB
:105420009F5F983040F38FEF0895CF939091BD0721
:10543000891708F03CC0C62FC1DF811130C0292F69
:105440002F7192959695977041E050E002C0440FFD
:10545000551F9A95E2F730E0F901EE0FFF1FEE0FAE
:10546000FF1FEE0FFF1FE75BFD4F9181942311F4A7
:10547000C1FD17C0220F331F220F331F220F331F0E
:10548000F901E75BFD4F2681422311F0C0FD0BC0FF
:10549000992371F0442361F0C43051F406C080E0D8
:1054A00007C081E005C081E003C081E001C080E069
:1054B000CF9108959091BD07891778F57FDF81110D
:1054C00028C0292F2F71392F32953695377081E0FA
:1054D00090E002C0880F991F3A95E2F730E0F90199
:1054E000EE0FFF1FEE0FFF1FEE0FFF1FE75BFD4FDD
:1054F0004181482381F0220F331F220F331F220FD7
:10550000331FF901E75BFD4F9681892339F081E074
:10551000089580E0089582E0089580E008951F9343
:10552000CF93DF93182FC0E0D0E006C0612F8C2FFF
:105530007CDF8111DF5FCF5FC034C0F38D2FDF913F
:10554000CF911F910895EF92FF920F931F93CF93E6
:10555000DF937C01C0E0D0E000E017C01C2F177083
:1055600009F4D0E0D69563E08C2F5FDF882311F03B
:10557000D0680F5F173041F4E114F10429F0F7010E
:10558000D083C70101967C01CF5FC03438F3802FF0
:10559000DF91CF911F910F91FF90EF900895CF93DE
:1055A0009091BD078917B8F5C62F08DF811133C068
:1055B000E92FEF71929596959770C0FF17C0F0E0B4
:1055C00021E030E0A90102C0440F551F9A95E2F78F
:1055D000CA01EE0FFF1FEE0FFF1FEE0FFF1FE75B6D
:1055E000FD4F809591818923818315C0F0E021E0F2
:1055F00030E0A90102C0440F551F9A95E2F7CA0195
:10560000EE0FFF1FEE0FFF1FEE0FFF1FE75BFD4FBB
:105610009181892B8183CF910895BF92CF92DF92A0
:10562000EF92FF920F931F93CF93DF93803408F094
:1056300040C0E82EF12CF701EE0FFF1FC701880FC5
:10564000991F880F991F880F991FE80FF91FE35FB3
:10565000F64FB12C10E000E018C06F018FEFC81AB0
:10566000D80AC081D0E00DC08C2F8170C0FD0F5FC3
:1056700061E0811101C060E0812F91DFC6951F5F5D
:10568000DF5FD83088F3B394F60187E08B1528F7F5
:10569000F701EE0FFF1FEE0CFF1CEE0CFF1CEE0CD3
:1056A000FF1CEE0DFF1DE35FF64F80859185F1DD58
:1056B00001C000E0802FDF91CF911F910F91FF90EB
:1056C000EF90DF90CF90BF900895CF93DF93C82FD6
:1056D000D62F8091DB08811114C01FC0EC2FF0E0A1
:1056E000EE0FFF1FEE0FFF1FE80FF11DEE0FFF1F64
:1056F000EE0FFF1FEB52F84F90819F3F39F48F5F01
:1057000001C080E0843050F380E001C08FEF8F3F14
:1057100021F48D2F82DFD09300028091D307C8132C
:1057200008C08091D4078F3F21F0806CD5D48D2F95
:10573000D3D4DF91CF910895CF93C0E004C060E04F
:105740008C2F2DDFCF5F8091BD07C817C0F3CF919D
:1057500008950F931F93CF93DF93C82F062F8034A4
:1057600090F4282F30E0C901880F991F220F331FB2
:10577000220F331F220F331F820F931F835F964F19
:10578000E2DE182F01C010E0D0E06BDD9E01220F99
:10579000331FCC0FDD1FCC0FDD1FCC0FDD1FC20F61
:1057A000D31FC35FD64F9987888701110E941A0CB7
:1057B000812FDF91CF911F910F910895FF920F9349
:1057C0001F93CF93DF9390E08C01000F111F880F80
:1057D000991F880F991F880F991F080F191F035FC2
:1057E000164FC0E0D0E0F12C15C09C2F977021F42B
:1057F000F801D0810F5F1F4F8C2F5CDED0FF03C0FC
:10580000823031F00DC0823069F0813009F4F394B8
:10581000D695CF5F9091BD07C91738F38F2D03C080
:105820008FEF01C08FEFDF91CF911F910F91FF900C
:10583000089590E4E5EDF7E007C08FEF8083818362
:1058400083831282349691509111F7CF0E94B5094B
:105850008F3F01F580930F02E5EDF7E0108284E2BF
:105860008183838398E3928321E0208B818B838BD8
:10587000928B22E020A381A383A392A393E090AB19
:1058800081AB83AB8EE182AB40E050E061E081E030
:105890000E94E1130E94390A8F3F51F4E3EDF7E0D3
:1058A0008083818340E050E061E081E00C94E1136B
:1058B000089520E006C0FC01EB52F74F3FEF308324
:1058C0002F5F822F90E00097B1F70E94DD098F3F94
:1058D000B1F480930F02E5EDF8E0108291E091833E
:1058E00092E0928393E09383E9EDF8E010821182D5
:1058F000828340E050E062E081E00C94E11308957F
:10590000E82F8FEF9FEFE43040F4F0E0EB52F74FD9
:1059100020812F3F11F0822F962F089570E052C002
:10592000872F90E0242F30E0F901EE0FFF1FDF01F9
:10593000A20FB31FFC01EE0FFF1FE80FF91FEE0FC0
:10594000FF1FEE0FFF1FEA0FFB1FE352F74FA0816F
:10595000AF3FD9F0F901EE0FFF1FE20FF31F9C01DB
:10596000220F331F280F391F220F331F220F331F1F
:10597000E20FF31FE352F74F21812F3F31F0A617BB
:1059800008F46A2F521708F4522F552311F06F3F75
:1059900049F4880F991FFC01E553F84F8FEF80837E
:1059A000818307C0880F991FFC01E553F84F60837E
:1059B00051834F5F03C040E06FEF50E0443008F484
:1059C000AFCF7F5F7430B8F3089563E028C0862FAF
:1059D000062E000C990B422F022E000C550BFA01DB
:1059E000EE0FFF1FE40FF51FAC01440F551FDA0146
:1059F000A80FB91FAA0FBB1FAA0FBB1FAE0FBF1F57
:105A0000A352B74F3FEF3C9311963C931197FD0182
:105A10001282215001C023E02223CCF6615066237C
:105A2000D4F70E948D098F3F41F480930F0240E02C
:105A300050E063E081E00E94E11370CF089584306C
:105A4000D8F490E0FC01EE0FFF1FE80FF91FEE0FF6
:105A5000FF1FEE0FFF1FE352F74F84E02081621714
:105A600040F09181961728F09281621B80E0960F9A
:105A700008953396815091F78FEF90E00895B0E04C
:105A8000EDEDF8E044E016C05281851788F0682FEC
:105A900070E02181A08130E02A1B3109250F311DE2
:105AA000261737072CF0982F951B8B2F9A0F0895E8
:105AB000339641504111E8CFBF5FB53018F38FEFF7
:105AC00090E00895CF93C42FBADF811133C0E92F3E
:105AD000EF71929596959770C11116C0F0E021E094
