:10000000FAC700000C941C080C941C080C941C08E3
:100010000C941C080C941C080C941C080C941C08D0
:100020000C941C080C941C080C941C080C941C08C0
:100030000C941C080C941C080C941C08FDC70000B0
:10004000FBC70000F9C70000F7C70000F5C70000B4
:10005000F3C700000C94CC0DEFC70000EDC7000003
:10006000EBC700000C94EB2C0C94162DE5C7000098
:10007000E3C70000E1C70000DFC70000DDC70000E4
:10008000DBC70000D9C70000D7C70000D5C70000F4
:100090000C94EE2B0C942E2CCFC70000CDC7000083
:1000A000CBC70000C9C70000C7C70000C5C7000014
:1000B000C3C70000C1C70000BFC70000BDC7000024
:1000C000BBC70000B9C70000B7C70000B5C7000034
:1000D000B3C70000B1C70000AFC70000ADC7000044
:1000E000ABC70000B419BF19CB19E719041A251AB8
:1000F000301A3B1A501A661A6E1A7C1AA91AB91AC3
:10010000DD1A2F1B481B5D1B761B7E1BA31BA31B2D
:10011000A71BB41B0F1C171C611CC31CED1C191D55
:10012000481D501D561D0F1C5E1D721DB01DBD1DAE
:10013000C81DDD1DF61D191E241E2A1E2F1E421E5F
:10014000631E761EC42ED92EC72EB82ECA2ECD2ED3
:10015000BB2ED02EBE2ED32EC12ED62E4C6F673A7C
:1001600020000000496E697469616C69736174698B
:100170006F6E0000010045453A4D6F64756C650077
:10018000000000000000010145453A4D6964692DF9
:10019000496E000000000000010245453A4D6964C7
:1001A000692D4F75740000000000010345453A4D6C
:1001B000616E2D4D6F64756C65000000010445454E
:1001C0003A55534200000000000000000000010505
:1001D00045453A5265676973746572000000000016
:1001E000010645453A50726F6772616D73000000F9
:1001F0000000010745453A536F66746B65797300DB
:100200000000000002004D6F643A4661696C000016
:1002100000000000000002014D6F643A556E6B6EE5
:100220006F77496E7000000003004F56464C3A4D00
:10023000696469496E000000000003014F56464C96
:100240003A4D6964694F75740000000004004F5610
:10025000464C3A506970654D736700000000050018
:100260005077723A4F75707475744F6E00000000CD
:1002700054617374656E2F5265672E206CEF736541
:100280006E004D4944492D496E746572666163651F
:10029000002C426974733A004D6F64756C653A00C6
:1002A000656D7074790052616E67653A20004D612A
:1002B0006E75616C3A20004D6F64756C65732063D8
:1002C0006865636B65643A20004D6F64756C657397
:1002D0002061737369676E65643A200048617264D7
:1002E0007761726520436F6E6669677572617469C4
:1002F0006F6E0D0A000D0A4D4944492D4F7267611A
:100300006E2D496E746572666163650D0A004C6FEF
:10031000670D0A00656D7074790D0A006F6B2020FF
:1003200020202000736176652E2E2E003C6E6F6EAD
:10033000653E00756E61737369676E6564004E2E6D
:100340006F66662073656E74004F75743A00496E6F
:100350003A004D656EF5000000000000000000004E
:100360000000000000020001000000000000010386
:100370000000000000000002000200000000000079
:10038000030103040000000000030001020000005C
:10039000000001000000000000000001000000005B
:1003A0000000000001000000000000000008000143
:1003B00002030405060708000102030405060702FC
:1003C0000001000000000000020001000000000029
:1003D0000000000000000000000081103C6E6F6E05
:1003E000653E00000000000046060000000001100D
:1003F0004D656E7500000000000050063C060000D0
:10040000000001105374696D6D656E0000009C0A58
:1004100032060000000001104B6F7070656C323CBA
:10042000330000001406EB18000001104B6F7070D1
:10043000656C313C330000000A06EE180000011024
:100440004B6F7070656C503C330000000006F11873
:10045000000001104B6F7070656C313C3200000081
:10046000F605F418000001104B6F7070656C503C7D
:1004700032000000EC05F718000001104B6F70709F
:10048000656C503C31000000E205FA1800000110D4
:100490004B6F7070656C333C32000000D805FD185E
:1004A000000001104B6F7070656C333C3100000030
:1004B000CE050019000001104B6F7070656C333C65
:1004C00050000000C4050319000001104B6F70704C
:1004D000656C323C31000000BA05061900000110BD
:1004E0004B6F7070656C323C50000000B00509190C
:1004F000000001104B6F7070656C313C50000000C3
:10050000A6050C19000001104B6F6D62696E203159
:10051000410000009C05BE15000001104B6F6D628C
:10052000696E2032410000009205CB1500000110D9
:100530004B6F6D62696E2033410000008805D8154D
:10054000000001104B6F6D62696E203441000000A5
:100550007E05E515000001104D494449204F6666AF
:10056000000000001E061E200000C11053657475B7
:100570007000000000003C0B2806000000004B62E9
:1005800034410000000000004B62334100000000D5
:1005900000004B6232410000000000004B6231411C
:1005A000000000000000313C50800000000000000E
:1005B000323C5080000000000000323C31800000DE
:1005C00000000000333C5080000000000000333C7D
:1005D0003180000000000000333C32800000000049
:1005E0000000503C3180000000000000503C328090
:1005F000000000000000313C3280000000000000DC
:10060000503C3380000000000000313C338000008B
:1006100000000000323C33800000000000004D4F1D
:10062000666600000000000053657475000000005D
:1006300000005374696D0000000000004D656E7588
:1006400000000000000000000000000000000000AA
:1006500081004D616E75616C00000000B406000001
:100660000000000001004D49444900000000000066
:100670000808000000000000010054617374656EFA
:10068000000000004C0A000000000816010053742E
:100690006174757300000000600F0000000000002E
:1006A000C100536574757000000000003C0B000031
:1006B0000000000081004B6F6D62696E2E0000002B
:1006C000F00600000000000001004B6F70706C65C8
:1006D000720000001807000000000000C100537401
:1006E000696D6D656E0000009C0A0000000000004E
:1006F0008C004C6164656E000000000000004C0539
:100700000000F215CC0053706569636865726E0075
:1007100000004C050000FC158900323C330000004D
:10072000000000000000B3070000AB150900313CD9
:1007300033000000000000000000B4070000AB150B
:100740000900313C32000000000000000000B50745
:100750000000AB150900503C330000000000000011
:100760000000B6070000AB150900503C3200000045
:10077000000000000000B7070000AB150900503C66
:1007800031000000000000000000B8070000AB15B9
:100790000900333C32000000000000000000B907EF
:1007A0000000AB150900333C3100000000000000E0
:1007B0000000BA070000AB150900333C50000000F0
:1007C000000000000000BB070000AB150900323C30
:1007D00031000000000000000000BC070000AB1565
:1007E0000900323C50000000000000000000BD077E
:1007F0000000AB15C900313C5000000000000000B3
:100800000000BE070000AB1581004E6F7465734F8A
:1008100066660000000000001E20000001004D4937
:100820004449696E000000006C0800000000761763
:1008300001004D4944496F7574000000EC0A000046
:100840000000721709004163742E53656E736500D2
:100850000000CC0800006E17C90056656C30344F9C
:10086000666600000000CD0800006E178100436836
:100870002E31000000000000AC090000251500002A
:10088000010043682E32000000000000AC090100A6
:1008900025150000010043682E3300000000000011
:1008A000AC09020025150000010043682E34000049
:1008B00000000000AC09030025150000010043689A
:1008C0002E35000000000000AC09040025150000D2
:1008D000010043682E36000000000000AC0905004E
:1008E00025150000010043682E37000000000000BD
:1008F000AC09060025150000010043682E380000F1
:1009000000000000AC090700251500000100436845
:100910002E39000000000000AC0908002515000079
:10092000010043682E31300000000000AC090900CE
:1009300025150000010043682E3131000000000041
:10094000AC090A0025150000010043682E31320071
:1009500000000000AC090B002515000001004368F1
:100960002E31330000000000AC090C0025150000FA
:10097000010043682E31340000000000AC090D0076
:1009800025150000010043682E31350000000000ED
:10099000AC090E0025150000C10043682E31360059
:1009A00000000000AC090F00251500008100536510
:1009B00063742E3100000000FC09000030150000B7
:1009C0000100536563742E3200000000FC09010031
:1009D000301500000100536563742E3300000000E1
:1009E000FC09020030150000C100536563742E3409
:1009F00000000000FC0903003015000087904D61E5
:100A00006E75616C000000000000C8070000000067
:100A100004904D69644E6F74650000000000C907C2
:100A200000000000068052616E6765000000000053
:100A30000000CA0700000000C4904D616E4E6F7444
:100A4000650000000000CB07000000008108546131
:100A50007374653100000000DA0300009415A224CD
:100A6000010854617374653200000000DA0301006C
:100A70009415A224010854617374653300000000CA
:100A8000DA0302009415A224C1085461737465341A
:100A900000000000DA0303009415A22481204D61B8
:100AA0006E2E33000000000000000000521600000F
:100AB00001204D616E2E3200000000000000010098
:100AC0005216000001204D616E2E31000000000022
:100AD0000000020052160000C120506564616C00E5
:100AE0000000000000000300521600008310494976
:100AF00049000000000000000000C80800000000DD
:100B00000310494900000000000000000000C9086F
:100B10000000000003104900000000000000000079
:100B20000000CA0800000000C310500000000000D0
:100B3000000000000000CB080000000081004D6FA5
:100B400064756C6500000000040C000000000000EB
:100B5000010055534200000000000000580D000045
:100B6000000000000100506F776572000000000077
:100B7000C80B000000000000C100454570726F6D99
:100B8000000000008C0B00000000000081004545C3
:100B90005361766500000000000000003B19000072
:100BA000010045454261636B757000000000000064
:100BB00023190000C1004545526573746F726500CA
:100BC000000000002F1900008100506F7765724F00
:100BD0006E00000000000000642500000100506F5E
:100BE0007765724F66660000000000006D2500000A
:100BF000C100502E526573746172740000000000D1
:100C0000752500008A004D6F645265616400000024
:100C100000004E03000084170A004D6F645772698C
:100C20007465000000004D03000084170A084D6F32
:100C3000644F4B000000000000004602000000006E
:100C400001004D6F6454657374000000680C00006F
:100C500000000000C1004D6F6441737369676E004E
:100C6000940D000000007A1781004D6F642E300053
:100C700000000000080D00001A15000001004D6F73
:100C8000642E310000000000080D01001A1500005C
:100C900001004D6F642E320000000000080D0200BC
:100CA0001A15000001004D6F642E33000000000093
:100CB000080D03001A15000001004D6F642E34006A
:100CC00000000000080D04001A15000001004D6F1F
:100CD000642E350000000000080D05001A15000004
:100CE00001004D6F642E360000000000080D060064
:100CF0001A150000C1004D6F642E3700000000007F
:100D0000080D07001A15000081005265616400009B
:100D100000000000000000000C1600000B005772DD
:100D2000697465000000000000005105B114ED1465
:100D30000100546573745074726E0000000000006E
:100D400079210000C1004C6F6F7054737400000073
:100D50000000000040160000890041637469766558
:100D6000000000000000470B0000A61701005365BB
:100D70006E644C6F670000000000000088170000E0
:100D8000C100536E644857436667000000000000CE
:100D9000BA17000081004D616E2E33000000000084
:100DA000980E00004E15000001004D616E2E3200BD
:100DB00000000000980E01004E15000001004D617A
:100DC0006E2E310000000000980E02004E1500004B
:100DD0000100506564616C0000000000980E030083
:100DE0004E150000C100526567697374657200009A
:100DF000F80D0400000000008100536563742E317B
:100E000000000000E80E00007E15000001005365A0
:100E100063742E3200000000E80E01007E15000011
:100E20000100536563742E3300000000E80E0200D9
:100E30007E1500000100536563742E34000000002D
:100E4000E80E03007E1500000100536563742E3523
:100E500000000000E80E04007E150000010053654C
:100E600063742E3600000000E80E05007E150000B9
:100E70000100536563742E3700000000E80E060081
:100E80007E150000C100536563742E380000000019
:100E9000E80E07007E1500008100536563742E3153
:100EA00000000000240F00005915000001005365E8
:100EB00063742E3200000000240F01005915000059
:100EC0000100536563742E3300000000240F0200FC
:100ED00059150000C100536563742E3400000000F2
:100EE000240F0300591500008D8052656742656725
:100EF0000000000000009A07000000000D8052650D
:100F000067456E640000000000009B0700000000C1
:100F1000C5804D6F64756C652F42697400009C0735
:100F20000000000084904E6F746542656700000009
:100F30000000CE080000000004904E6F7465456EFE
:100F4000640000000000CF0800000000C5804D6F65
:100F500064756C652F4269740000D00800000000C1
:100F600081204C6F670000000000000000000000BE
:100F7000731F000002404D4944492D496E00000096
:100F800000000000F71E0000C2404D4944492D4FAB
:100F90007574000000000000351F000056302E352B
:100FA00037000100020002010300030103020001F7
:100FB0000002010200030103020331003000546506
:100FC00078748000457869740045696E80002D0052
:100FD0002B007F007E000900080000000E0E0E0EA0
:100FE000000004040404150E0400040E1504040497
:100FF00004000D0A000011241FBECFEFD1E2DEBFB6
:10100000CDBF00E00CBF12E0A0E0B2E0EAE9F0E6FC
:1010100000E00BBF02C007900D92A630B107D9F7D0
:101020002CE0A6E0B2E001C01D92A13CB207E1F7BE
:101030000E94EB120C944B300C940000FC018FEFDB
:101040009FEF1CC0DF01119620818227282F229557
:101050002827022E269526952025022E2695202526
:101060002770082E892F269507942795902D822783
:101070000694279590258227BA01FD01AB014150C6
:101080005109672BF9F60895EF92FF920F931F9382
:10109000CF93DF93CFEFDFEF21C07C012FEFE21A78
:1010A000F20A0E9419309E012827822F82958227FA
:1010B000082E869586958025082E86958025877032
:1010C000022E232F869507948795302D2827069486
:1010D000879530252827E901B801C7018B01015008
:1010E0001109672BD1F6CE01DF91CF911F910F919E
:1010F000FF90EF900895FC01CA011CC0DF0111961A
:1011000020818227282F22952827022E2695269592
:101110002025022E269520252770082E892F26951A
:1011200007942795902D822706942795902582274E
:10113000BA01FD01AB0141505109672BF9F6089541
:10114000EF92FF920F931F93CF93DF93EA0121C099
:101150007C012FEFE21AF20A0E941930AE014827F3
:10116000842F82958427082E869586958025082EC3
:10117000869580258770042E452F86950794879540
:10118000502D48270694879550254827EA01B80135
:10119000C7018B0101501109672BD1F6CE01DF91F8
:1011A000CF911F910F91FF90EF900895CF93DF9310
:1011B00082E390E00E942130EC0160E370E082E085
:1011C00090E062DFC817D90781F481E090E00E94C7
:1011D00019308D3451F440E350E062E070E08EEC61
:1011E00098E00E94093080E006C08091060281608C
:1011F000809306028FEFDF91CF910895CF93DF9315
:1012000085E391E00E942130EC0160E071E085E32C
:1012100090E03ADFC817D90781F484E390E00E9498
:101220001930893451F440E051E065E370E088EC16
:1012300097E00E94093080E006C08091060282603B
:10124000809306028FEFDF91CF910895CF93DF93C4
:101250008EE391E00E942130EC0166E070E088E3CB
:1012600091E012DFC817D907C1F487E391E00E942B
:1012700019308F3491F444E050E068E371E088EC79
:1012800098E00E94093042E050E06CE371E08CECA1
:1012900098E00E94093080E006C0809106028460D8
:1012A000809306028FEFDF91CF910895CF93DF9364
:1012B00083E491E00E942130EC0161E070E081E480
:1012C00091E0E2DEC817D907A1F480E491E00E9422
:1012D0001930893671F481E491E00E9419308093CD
:1012E0004E0382E491E00E94193080934D0380E028
:1012F00006C0809106028860809306028FEFDF911E
:10130000CF910895CF93DF9387E491E00E9421303D
:10131000EC0161E070E086E491E0B6DEC817D90721
:1013200071F485E491E00E941930853541F486E43A
:1013300091E00E9419308093470B80E006C08091B5
:1013400006028860809306028FEFDF91CF910895A7
:10135000CF93DF9361E070E08AE491E095DEAC0129
:1013600068E170E08BE491E0EBDEEC0183E691E074
:101370000E942130C817D907B1F489E491E00E9496
:101380001930823581F48AE491E00E94193080930B
:10139000B20748E150E06BE471E08AE997E00E940F
:1013A000093080E006C080910602806280930602C8
:1013B0008FEFDF91CF910895CF93DF9386E693E08F
:1013C0000E942130EC0160E072E086E691E05CDE94
:1013D000C817D90781F485E691E00E94193080355D
:1013E00051F440E052E066E671E08EEF98E00E9432
:1013F000093080E006C08091060280648093060276
:101400008FEFDF91CF910895CF93DF938DE693E037
:101410000E942130EC0164E070E089E693E034DE64
:10142000C817D90751F444E050E069E673E087E556
:1014300095E00E94093080E006C080910602806835
:10144000809306028FEFDF91CF91089560E080E0F6
:1014500090E00E94353065E68FE693E00C943530DD
:101460000895CF93DF9360E370E08EEC98E0E6DDC3
:10147000EC010E94452F6DE481E090E00E94353040
:1014800040E350E062E070E08EEC98E00E9426308D
:10149000BE0182E390E00E944730D8DF0E94532FC4
:1014A000DF91CF910895CF93DF9360E071E088ECF6
:1014B00097E0C4DDEC010E94452F69E484E390E0ED
:1014C0000E94353040E051E065E370E088EC97E041
:1014D0000E942630BE0185E391E00E944730B6DFCE
:1014E0000E94532FDF91CF910895CF93DF9364E053
:1014F00070E088EC98E0A2DDAC0162E070E08CEC7A
:1015000098E0F9DDEC010E94452F6FE487E391E05C
:101510000E94353044E050E068E371E088EC98E0E8
:101520000E94263042E050E06CE371E08CEC98E0E1
:101530000E942630BE018EE391E00E94473086DF94
:101540000E94532FDF91CF910895CF93DF9361E0F5
:1015500070E08EE493E072DDEC010E94452F69E6B5
:1015600080E491E00E94353060914E0381E491E087
:101570000E94353060914D0382E491E00E94353045
:10158000BE0183E491E00E94473060DF0E94532F48
:10159000DF91CF910895CF93DF9361E070E087E40E
:1015A0009BE04CDDEC010E94452F65E585E491E070
:1015B0000E9435306091470B86E491E00E943530FF
:1015C000BE0187E491E00E94473040DF0E94532F24
:1015D000DF91CF910895CF93DF9361E070E082EBCC
:1015E00097E02CDDAC0168E170E08AE997E083DDEB
:1015F000EC010E94452F62E589E491E00E943530BC
:101600006091B2078AE491E00E94353048E150E0F1
:101610006BE471E08AE997E00E942630BE0183E620
:1016200091E00E94473012DF0E94532FDF91CF914B
:101630000895CF93DF9360E072E08EEF98E0FEDCD8
:10164000EC010E94452F60E585E691E00E9435306F
:1016500040E052E066E671E08EEF98E00E942630AE
:10166000BE0186E693E00E944730F0DE0E94532FD1
:10167000DF91CF910895CF93DF9364E070E087E529
:1016800095E0DCDCEC010E94452F6BE488E693E0FA
:101690000E94353044E050E069E673E087E595E06C
:1016A0000E942630BE018DE693E00E944730CEDED8
:1016B0000E94532FDF91CF910895D3DEF4DE15DF22
:1016C00044DF69DF88DFB5DFD6CF0895CF92DF92A0
:1016D000EF92FF920F931F93CF93DF93EB0111C013
:1016E0007C012FEFE21AF20A0E9419306E019FEF7F
:1016F000C91AD90A682FCE010E943530A801E60127
:10170000C7018A0101501109452B51F7DF91CF9193
:101710001F910F91FF90EF90DF90CF9008950E945E
:10172000452F40E054E060E074E080E090E0CEDFE0
:101730000C94532F08950E94452F40E054E060E040
:1017400070E080E094E0C2DF0C94532F089580E0B5
:101750000AC0E82FF0E0EE0FFF1FE35DFD4F9FEFA3
:10176000908311828F5F8930A0F3EFE3F2E0108263
:101770001182128213828FEF80935503089582E0C5
:1017800084BD93E095BD80936E0089EF87BD85B1E0
:101790008F7785B984B1806884B9089587E880938C
:1017A0007A0010927B008FE780937C0081E0809329
:1017B0007E0010927F00E7E4F3E010828FEF8183D8
:1017C00082838093070280E010C0853039F4E82FCF
:1017D000F0E0E15BFC4F96E0908306C0E82FF0E07C
:1017E000E15BFC4F9AE090838F5F863070F3089541
:1017F0008FEF88B987B982B911B884B3876084BB89
:1018000083B3876083BB8BB18F778BB98AB18068D4
:101810008AB980E00EC0E82FF0E0EE0FFF1FEE0F58
:10182000FF1FEE0FFF1FE95BFD4F9FEF918390833A
:101830008F5F803280F31092440210924302089529
:1018400035DD8F3F51F440E050E060E081E0AAD602
:101850008FEF80934E0380934D038BB18F778BB9BD
:1018600084B3876084BB84B38B7F84BB85E08A9517
:10187000F1F7000084B3846084BB90E284B381609C
:1018800084BB90FD02C085E501C08AEA88B980B1B9
:1018900080934603809345038093440380934303DE
:1018A000809342038093410384B38E7F84BB85E0A1
:1018B0008A95F1F70000915009F790E20FC084B3C8
:1018C000816084BB82E08A95F1F700C084B38E7F8B
:1018D00084BB82E08A95F1F700C091509111EFCF5F
:1018E0008FEF8093460290E284B3816084BB8FEFD8
:1018F00088B920B190FD02C08AEA01C085E582273F
:101900002091460282238093460284B38E7F84BB5B
:1019100085E08A95F1F70000915031F70000000052
:1019200084B3816084BB84B3876084BB84B38B7FC2
:1019300084BB82E08A95F1F700C084B3846084BBE5
:1019400090E2EFE3F3E0838182838481838384B335
:10195000816084BB8FEF818388B985818483868190
:10196000858380B186838283838384838583878311
:1019700084B38E7F84BB3897915029F70000000014
:1019800084B3816084BB84B38D7F84BB18B885E049
:101990008A95F1F7000084B3826084BB40914E03C6
:1019A00080914D03842B90914602891739F050E0C5
:1019B000542F4427492B60E082E0F4C50895883015
:1019C00008F06AC031E001C0330F8A95EAF780E879
:1019D000809344028BB18F778BB984B3876084BBCB
:1019E00040E01DC020FD03C0832F809501C08FEF14
:1019F00088B9269582E08A95F1F700C084B38E7F7E
:101A000084BB82E08A95F1F700C084B3816084BB17
:101A10009F5F02C090E025EA983020F34F5F44308A
:101A2000C8F390E00FC082E08A95F1F700C084B35C
:101A30008E7F84BB82E08A95F1F700C084B3816019
:101A400084BB9F5F903278F390E040E050E0BA01B1
:101A500017C0440F551F661F771F82E08A95F1F764
:101A600000C084B38E7F84BB80B1832309F04160C2
:101A700082E08A95F1F700C084B3816084BB9F5FE8
:101A8000903238F3109244028BB180688BB9342FB6
:101A9000252F862F972F04C030E020E080E090E0D3
:101AA000632F722F089590E0E7E4F2E080E006C033
:101AB0002FEF21832681822B38969F5F9032C0F3CF
:101AC00090914E038923089581E0809343029FB74C
:101AD000F89406C0EDE2F2E082E38283138280E0B4
:101AE0008111F8CF9FBF089580914302813031F575
:101AF000DADF811114C085B1806485B982E18093F9
:101B000043029FB7F89481E006C0EDE2F2E081E085
:101B10008283138280E08111F8CF9FBF08959FB721
:101B2000F89481E007C0EDE2F2E08CE0828382E08D
:101B3000838380E08111F7CF9FBF08958231B1F494
:101B4000B2DF811104C084E1809343020BC0482FAF
:101B500050E060E085E026D585B18F7B85B980E8CF
:101B6000809343028FEF80932F0208958FEF80932D
:101B70002F02089590E00DC0943050F4E92FF0E06A
:101B8000811102C02AE001C026E0E15BFC4F208306
:101B90009F5F963088F308951F920F920FB60F92B1
:101BA00011240BB60F92EF92FF920F931F932F9376
:101BB0003F934F935F936F937F938F939F93AF93D5
:101BC000BF93CF93DF93EF93FF9385B1806885B97F
:101BD000809145028F5F809345028370813009F4C4
:101BE00058C138F0823009F4A5C1833009F4C9C165
:101BF00001C28091070281111AC190917A0096FD6D
:101C000016C1282F30E0F901EE0FFF1FE20FF31F7E
:101C1000EE0FFF1FE95BFC4F9181409179004183FA
:101C2000491710F4941B03C0542F591B952F94305F
:101C300008F0FDC081110EC0423270F04F3370F0D9
:101C4000483670F0463970F04F3B70F0483E70F403
:101C5000C6E00DC0CFEF0BC0C4E009C0C3E007C0B1
:101C6000C5E005C0C1E003C0C2E001C0CFEFF9018B
:101C7000EE0FFF1FE20FF31FEE0FFF1FE95BFC4F9C
:101C8000D281DC1709F448C0DF3F19F0CF3F09F0DB
:101C9000CFEFF901EE0FFF1FE20FF31FEE0FFF1F53
:101CA000E95BFC4FC283DF3FF9F4C901880F991F3C
:101CB000FC01E20FF31FEE0FFF1FE95BFC4F1582E3
:101CC0001482FC01E20FF31FEE0FFF1FE95BFC4FD4
:101CD0001382EC2FF0E0E25BFC4F808180FFA7C015
:101CE0008C2F0E949125A3C0ED2FF0E0E25BFC4F0A
:101CF000808181FF9CC0F901EE0FFF1FE20FF31FEF
:101D0000EE0FFF1FE95BFC4F8381837009F08FC0EA
:101D10008D2F0E9491258BC0CF3F09F488C0F90117
:101D2000EE0FFF1FDF01A20FB31FAA0FBB1FA95B9E
:101D3000BC4F14968D919C911597019615969C9386
:101D40008E931497FD01848195818D359105A9F4B9
:101D5000ED2FF0E0E25BFC4F808182FF0EC08C2F04
:101D600080680E949125E091070286E0E89FF001DB
:101D70001124E95BFC4F82E08383ED2FF0E0E25B0E
:101D8000FC4F808183FF53C08091070290E0FC01EB
:101D9000EE0FFF1FE80FF91FEE0FFF1FE95BFC4F6F
:101DA000238121111EC0FC01EE0FFF1FE80FF91F58
:101DB000EE0FFF1FE95BFC4F248135812B34310589
:101DC000B1F526E0289FF001299FF00D1124E95B71
:101DD000FC4F81E08383158214828C2F0E94912511
:101DE00026C0FC01EE0FFF1FE80FF91FEE0FFF1FCB
:101DF000E95BFC4F23812130D1F426E0289FF001DC
:101E0000299FF00D1124E95BFC4F248135812C3092
:101E1000310569F426E0289FF001299FF00D112477
:101E2000E95BFC4F158214828C2F0E9491258091D2
:101E300007028F5F80930702843010F01092070230
:101E40008091070281110CC090E0FC01EE0FFF1F92
:101E5000E80FF91FEE0FFF1FE95BFC4F808101C007
:101E60008FE1982F9F71906690937C00EBE7F0E0F4
:101E70002081807290E09595879595958795922F12
:101E80009F7D892B8083EAE7F0E0808180648083F6
:101E9000B1C080914402803809F4ACC084B387603B
:101EA00084BB84B38B7F84BB20914D032095E2E0FB
:101EB000EA95F1F700C084B3846084BB90E2EFE35D
:101EC000F3E0838182838481838384B3816084BBD4
:101ED0008181822B88B9858184838681858380B1C5
:101EE000868384B38E7F84BB3897915051F700006E
:101EF000000084B3816084BB84B38D7F84BB8091F8
:101F0000440282608093440218B88BB180688BB918
:101F100084B3826084BB6EC0808181508E3F38F470
:101F200021812F5F253010F0808320E021833296BD
:101F30009F5F03C090E0EDE2F2E0993068F3EFE3D9
:101F4000F2E080818F5F80838A3F09F053C08FEF7A
:101F500080935503108281818F5F81838C3308F4D5
:101F600049C0118282818F5F82838C3308F442C022
:101F7000128283818F5F83838436E0F11092420264
:101F800039C0809144028038A9F1E0904E03F12CD1
:101F900007E412E02CC0F801C28183819C2F9823B2
:101FA000C82B84819823C82B25819223C22B86813C
:101FB0009823C82BD781CD23C92BC7838D2F80951C
:101FC0008C238E2121F09F2D90620E94D125C095F7
:101FD000CD238C2F8E2119F09F2D0E94D125085FD3
:101FE0001F4F80914402816080934402F394FFE18B
:101FF000FF1588F685B18F7785B9FF91EF91DF9155
:10200000CF91BF91AF919F918F917F916F915F9190
:102010004F913F912F911F910F91FF90EF900F9053
:102020000BBE0F900FBE0F901F9018958FEF82B9C7
:1020300085B988B98BB98EB981BB84BB8093020105
:10204000809305018093080180930B018AB1806819
:102050008AB98BB18F778BB984B1806484B985B12B
:102060008F7B85B90895882334F4E2E0F1E0908114
:102070009061908305C0E2E0F1E090819F7E9083C3
:1020800086FF06C0E2E0F1E090819860908305C091
:10209000E2E0F1E09081977F908385FF04C09EB1DC
:1020A00098609EB903C09EB1977F9EB984FF04C01B
:1020B00084B3806284BB03C084B38F7D84BBE2E0C1
:1020C000F1E080818064808385E08A95F1F70000EB
:1020D00080818F7B808385E08A95F1F700000895E9
:1020E000CF93C82FE2E0F1E080818062808380811D
:1020F0008F7B80838C2FB7DF8C2F8295807FB3DF1F
:102100008FEF90E00197F1F700C00000CF910895A4
:10211000CF93C82FE2E0F1E080818F7D80838081C2
:102120008F7B80838C2F9FDF8C2F8295807F9BDF1E
:10213000C150C23038F48FE097E20197F1F700C048
:10214000000006C08FEF90E00197F1F700C000009B
:10215000CF910895E1E0F1E080818061808380810A
:10216000886080838DB188608DB983B3806283BBC2
:102170008081806480838081806280832FEF81EE04
:1021800094E0215080409040E1F700C00000E2E080
:10219000F1E080818F7D808380818F7B808380E3ED
:1021A00062DF8FE19EE40197F1F700C0000080E359
:1021B0005ADF8FE19EE40197F1F700C0000080E351
:1021C00052DF8FE19EE40197F1F700C0000088E242
:1021D0004ADF8FEF90E00197F1F700C0000088E23E
:1021E00097DF88E095DF81E093DF86E091DF8CE088
:1021F0008FCF08958093560380588ACF0895109208
:10220000560381E085CF0895909156039F5F9F7399
:102210009093560365CF0895CF93DF93FC01892BEC
:1022200019F407C0F1DFFE01EF01219680818111D1
:10223000F9CFDF91CF910895CF93DF93FC01892BE4
:1022400019F407C0E1DFFE01EF01219684918111AD
:10225000F9CFDF91CF91089580E893E09093130533
:102260008093120590931105809310050895809135
:1022700010059091110520911205309113058217D8
:10228000930748F0821B930B959587959DEC899F4A
:10229000802D1124089580579E4F821B930B959596
:1022A00087959DEC899F802D11240895CF93C82F89
:1022B000DEDFC817F8F440911205509113058C2FFA
:1022C00090E09C01220F331F880F991F880F991FE0
:1022D000880F991F280F391FCA01820F931F65E0CD
:1022E0008630960749F040F020593140CA01820FEC
:1022F000931F02C080E090E0CF910895D7DF009750
:10230000F1F1FC013681678120E034C0422F50E0BA
:10231000FA01EE0FFF1FCF01880F991F880F991F39
:10232000880F991FE80FF91FEE59FE4F849138135B
:1023300020C0FA01EE0FFF1FCF01880F991F880FF1
:10234000991F880F991FE80FF91FED59FE4F8491CF
:1023500068130FC0440F551FCA01880F991F880FBB
:10236000991F880F991F480F591FCA018C599E4FFA
:1023700008952F5F2F3050F280E090E0089580E0C4
:1023800090E00895CF9373DF10925703811114C02A
:1023900017C08C2F8BDF009761F0FC012481203265
:1023A00051F095818C2F953439F48FEF809357033A
:1023B00007C08C2F01C08C2FCFEFC80F8111E9CF40
:1023C000CF9108951F93CF93DF93009709F47BC0BB
:1023D000162FEC018B81882379F068E573E00E9469
:1023E000D32DBC016F5F7F4F28E6FC0120838A81DB
:1023F0000E94D32DDC012FC08A81882379F068E503
:1024000073E00E94D32DBC016F5F7F4F2DE6FC016E
:10241000208389810E94D32DDC011DC068E573E013
:1024200089810E94D32DFC0183E780839881990FD5
:1024300020E002C099512F5F9931E0F7205D2183A0
:10244000990F20E002C095502F5F9530E0F7DF0133
:102450001396205D22839C81903451F0903819F0BE
:10246000903281F40AC0FD0131968AE28C930EC04D
:10247000FD01319685EA8C9309C0FD01319680E219
:102480008C9304C0FD0131968FE38C93BF016F5F85
:102490007F4F8D8180838E810E94EF2DBC018F81C3
:1024A0000E94EF2DBC016F5F7F4F2DE2FC01208366
:1024B000888599850E94072EFC0110821F3F41F0FC
:1024C0001C8360DF05C0E8E5F3E08DE280831182C4
:1024D00088E593E0DF91CF911F910895E091100579
:1024E000F0911105AFE3B2E09C919083E09110056B
:1024F000F091110511969C9111979183E09110052F
:10250000F091110512969C911297928313969C91CB
:1025100093832583868367835187408780E88483FC
:102520008091470B8F3F81F48CE591E00E948D2CC8
:102530006FEF809110059091110544DF0E94D52C1A
:1025400082EF9FE00E948D2C8091100590911105E3
:102550000A9690931105809310058650954039F0A6
:1025600030F080E893E0909311058093100520915E
:1025700010053091110580911205909113052817CF
:10258000390779F40A9690931305809312058650C3
:10259000954039F030F080E893E0909313058093F4
:1025A0001205089525E49ADF8FEF8093570308956D
:1025B00027E594CF0895CF93C62F78DE009719F0C2
:1025C0006C2F00DF06C0E8E5F3E08DE28083118226
:1025D000CF01CF9108952ADD3FDE0E94A32C0E94F7
:1025E0008A25CDD8B4D8DAD803D90E948F2B28D920
:1025F0000E9499270E94CB270E9412260E945D26E6
:102600000E9456280E94182458D810926605A2DD10
:102610000E94702DF4DD83E4EDDD82E892E00CDEB3
:102620008BE1E8DD8CE99FE007DE78942FEF87EA05
:1026300091E6215080409040E1F700C00000DFDDCE
:1026400043DA8FEF8093970780931405DFEF0E94A2
:10265000BE258823D9F10E94A525C82F863829F4E4
:1026600080E00E941E200E949329809114058F3FD4
:10267000F1F48C2F8F73C53061F460E070E080E07E
:1026800090E005D60E9403221092140580E072DAD1
:102690001DC09FEF980F9430C8F40E94EF246C2F58
:1026A0000E940425809314050E94B0240FC08091DD
:1026B0006605811106C08C2F0E940A2280931405A2
:1026C00005C08DEF80934A050E947120809114050A
:1026D0008F3F51F4DF3F49F40E949D210E94B024B6
:1026E0008FEF48DAD0E001C0DFEF80913B0281112B
:1026F00009C0C09156030E946A208C2F7BDD8FEFAA
:1027000080933B028091390281110AC08091660555
:10271000882319F00E94712003C08FEF8093390243
:1027200080912F0281111AC0DFD90E94502580911B
:1027300014058F3F99F4C091560384E15BDD8091CD
:102740004302813021F480E792E076DD05C08231DA
:1027500019F484E10E94152F8C2F4CDD0E94742BFC
:102760000E949D29C0915603809102028F3F91F1F2
:1027700080E040DD809100028F3F69F4809101028A
:102780000E94F22E8FE340DD809102020E94A12E72
:1027900080E23ADD0CC0809102020E94A12E8EE7F9
:1027A00033DD809100020E94032F80E22DDD8C2F0B
:1027B00021DD8FEF809302029FB7F89481E006C07D
:1027C000EDE2F2E082E38087118680E08111F8CFAC
:1027D0009FBF12C080913502882321F0809155035C
:1027E0008F3F51F480E006DD86E00E94152F8C2F8C
:1027F00001DD8FEF80933502809104028F3FF9F065
:102800008FE0F8DC809103020E94032F8EE7FCDC4E
:10281000809104020E94A12E8C2FECDC8FEF80931C
:1028200004029FB7F89481E006C0EDE2F2E082E393
:102830008287138680E08111F8CF9FBF12C08091FC
:102840003702882321F0809155038F3F51F48FE0A8
:10285000D1DC85E00E94152F8C2FCCDC8FEF80938C
:102860003702809155038F3F09F05CC010925503E9
:10287000F0905603C091930CCF3F11F40E943F2F6C
:1028800080914202882359F08091400280FD0EC061
:102890000F2EFAE3EF2EF02D02E412E00CC00F2E03
:1028A000FAE3EF2EF02D01E412E005C06894EE2467
:1028B000E5F802E412E087E09DDCF80180810E94E7
:1028C000B92D8E2DA1DCF801319780810E94B92DA0
:1028D00040918A0B442331F050E060E083E062DEF7
:1028E00010928A0B40918F0C442331F050E061E04C
:1028F00083E058DE10928F0C8091430284FF02C067
:1029000080E201C089E080DC809157038F3F11F4A1
:1029100085E401C080E278DC8F2D6CDCCF3F11F4C0
:102920000E94382F809198078F3F39F410929807B2
:1029300040E050E060E084E035DE9091460B80910D
:102940008E0C981721F00E94D92B0E94032A0E9416
:1029500008268F3F09F07BCE0E94F3250E94942A1F
:1029600076CE109251051092520510925305109296
:10297000540581E090E000901D0502C0880F991F6A
:102980000A94E2F7482F30E0EFE3F3E022C08091B1
:10299000510590915205A0915305B0915405880FAF
:1029A000991FAA1FBB1F8093510590935205A093B6
:1029B0005305B09354052181242349F0816080930D
:1029C000510590935205A0935305B0935405389741
:1029D0003F5F3032E0F280E0089540915105509120
:1029E00052056091530570915405853009F5A1E0B9
:1029F000B0E000901D0502C0AA0FBB1F0A94E2F7C9
:102A00003A2F90E0EFE3F3E011C0772324F48181C3
:102A1000832B818305C021818A2F80958223818326
:102A2000440F551F661F771F38979F5F903268F3DA
:102A300080E00895E0914D05F0914E053E96859118
:102A4000959180931D0580E00895E0914D05F091EA
:102A50004E053E968591959180934B0580E00895B3
:102A6000E0914D05F0914E053E96259135912093CC
:102A70005B0580914B058F7090E02370880F991F44
:102A8000880F991F820F911D880F991F880F991F1A
:102A9000909356058093550580E00895E0914D058B
:102AA000F0914E053E968591959180931C0580E0AE
:102AB0000895E0914D05F0914E053E9685919591D2
:102AC00080935B0520911C052F7030E0837090E0AF
:102AD000A901440F551F240F351F220F331F220F4A
:102AE000331FAC01440F551F840F951F820F931F96
:102AF000909356058093550580E00895E0914D052B
:102B0000F0914E053E968591959180935B05877077
:102B100090E09C01220F331F820F931F9093560564
:102B20008093550580E00895E0914D05F0914E05A4
:102B30003E9685919591843060F4FC01FF27EE0F5D
:102B4000FF1FE25AFA4F8081918190937205809322
:102B5000710580E00895E0914D05F0914E053E9697
:102B600085919591835B9740FC01FF27ED54F84FC9
:102B7000208121110E941C2680E00895882324F4DE
:102B800080E00E948C2705C0882319F080E00E9415
:102B90005C2780E00895882324F481E00E948C273C
:102BA00005C0882319F081E00E945C2780E0089529
:102BB000882324F482E00E948C2705C0882319F022
:102BC00082E00E945C2780E00895882324F483E05B
:102BD0000E948C2705C0882319F083E00E945C279F
:102BE00080E00895863031F080914C05803410F4F7
:102BF0000E945C2780E00895863041F080914C056A
:102C0000803420F40E948C270E94190B80E00895E4
:102C10000E943B0B80E00895CF92DF92EF92FF92EB
:102C200081E090E000901D0502C0880F991F0A9472
:102C3000E2F7282F90E0EFE3F3E0C12CD12C7601EE
:102C40000BC0CC0CDD1CEE1CFF1C8681822311F016
:102C50006894C0F838979F5F903298F38EE1CADA93
:102C6000C092950CD092960CE092970CF092980C32
:102C70000E94942D80E0FF90EF90DF90CF90089518
:102C80008EE1B8DA80911D050E94DF0C6093950CEF
:102C90007093960C8093970C9093980C0E94942DAF
:102CA00080E00895CF938F3F09F077C080930C02A6
:102CB00010920B02E0914D05F0914E053E968591E4
:102CC000959180931C05843010F010921C0520E033
:102CD00039C080911C0590E0E22FF0E0DF01AA0FDF
:102CE000BB1FAD014E0F5F1FDC01AA0FBB1FA80F5A
:102CF000B91FAA0FBB1FAA0FBB1FA40FB51FA2535A
:102D0000B74F3C9140910C02341710F430930C02F1
:102D1000AF01440F551FE40FF51FAC01440F551FC1
:102D2000840F951F880F991F880F991FE80FF91FAF
:102D3000E253F74F818190910B02981710F4809322
:102D40000B022F5F243028F280910C0288234CF470
:102D50008EE150DA83E393E06FDA8FEF80934305DF
:102D600004C08093430510920A0264EC7FE080E087
:102D70000E94612F69EC7FE081E00E94612F6EEC80
:102D80007FE082E00E94612F60ED7FE083E00E949F
:102D9000612F0E94B02FCFEF71C0609143056F3F4C
:102DA00009F461C08130D9F480910B02681708F0F2
:102DB0005CC040E080911C050E94D92860914305C9
:102DC0006F5F6093430580910A02813009F04FC024
:102DD00041E080911C050E94D928CFEF4FC084307C
:102DE000D1F480910C02861708F043C040E0809136
:102DF0001C050E94D92860914305615060934305EA
:102E000080910A028130B9F541E080911C050E9451
:102E1000D928CFEF33C0833091F480910A02811119
:102E200004C081E080930A0202C010920A0240911D
:102E30000A0280911C050E94D928CFEF1FC0823062
:102E400011F0863039F440E080911C050E94D928A9
:102E5000C0E014C0853089F440E080911C050E94D8
:102E6000D928C0E00BC0C0E009C0CFEF07C0CFEF4A
:102E700005C0CFEF03C0CFEF01C0CFEFCF3F59F573
:102E8000809143058F3F29F18EE1B4D980914305AC
:102E90000E94A12E80E2B8D980910A02811107C058
:102EA00081E6B2D985E7B0D983E7AED906C085E619
:102EB000ABD989E6A9D98EE6A7D961E080910A024B
:102EC000811101C060E081E00E94CF2F81110E943A
:102ED000B02F8EE18FD98C2FCF9108950E94750A63
:102EE00080E008950E94750A80E008950E94530AC8
:102EF00080E008950E94310A0E9443260E94EB0A56
:102F00000E94FF2780E008950E94A50A80E00895AE
:102F1000CF938EE093E00E948D2CA9D981110FC030
:102F200084E193E00E948D2C0EC06FEF8C2F43DB69
:102F30000E94D52C82EF9FE00E948D2C8C2FCFEF2A
:102F4000C80F8111F2CF80E0CF9108950E94CB0A83
:102F50008091470B8F3F61F485EF92E00E948D2CAA
:102F60008CE99FE00E948D2C82EF9FE00E948D2CC7
:102F700080E008959F92AF92BF92CF92DF92EF923E
:102F8000FF920F931F93CF93DF938CED92E00E94FB
:102F90008D2C89EC92E00E948D2C69E97CE0809177
:102FA0004E030E94EF2D22E7FC012083BC016E5FDF
:102FB0007F4F20E2218380914D030E94EF2D27E770
:102FC000FC01208389E99CE00E94D52C0E949F2C63
:102FD00087EB92E00E948D2C69E97CE080914602AB
:102FE0000E94EF2D89E99CE00E94D52C0E949F2C25
:102FF000E12CB5C08EEA92E00E948D2C69E97CE05C
:103000008E2D0E94802E89E99CE00E94D52C0E9482
:103010009F2CF12C9FC086EA92E00E948D2C80E3C9
:103020008F0D0E94672C8DE20E94672C80E20E9427
:10303000672C0E2D10E0CF2CD12CE601CC0FDD1F1C
:10304000CE018C0D9D1DE801CC0FDD1FC00FD11FDF
:10305000CC0FDD1FCC0FDD1FC80FD91FC253D74FB8
:1030600069E97CE088810E94EF2DBC016F5F7F4F92
:103070006894BB24B5F8FC01B08289810E94EF2DD1
:10308000BC016F5F7F4FFC01B0828A810E94EF2DEF
:103090002DE3FC01208389E99CE00E94D52C8881E6
:1030A00088232CF480EA92E00E948D2C50C069E9BC
:1030B0007CE00E94242EBC016F5F7F4F0F2EFDE24B
:1030C0009F2EF02DFC019082F601EE0FFF1FCE0E19
:1030D000DF1E5801AA0CBB1CE501C00FD11FCC0F8D
:1030E000DD1FCC0FDD1FCC0DDD1DC253D74F8981F5
:1030F0000E94242E20E2FC01208389E99CE00E94AA
:10310000D52C88E992E00E948D2C8A818295869543
:103110008770805D0E94672C81E992E00E948D2C6F
:103120008A8169E97CE08F710E94D32DBC016F5FB9
:103130007F4FFC0190828A81998128818F71890F4C
:10314000821B0E94D32D89E99CE00E94D52C0E940D
:103150009F2CF394F3E0FF1508F05DCFE39483E038
:103160008E1508F047CF80E0DF91CF911F910F912E
:10317000FF90EF90DF90CF90BF90AF909F90089519
:10318000CF93C62F8823D9F0E62FF0E0DF01AD54AE
:10319000B84F8C91811108C0862F0E941C2688236D
:1031A00071F00E9467290BC0DF01AD54B84F1C922B
:1031B000EE0FFF1FEE55F04F84910E946729EC2F10
:1031C000F0E0ED54F84F8081811102C082E801C027
:1031D00081E8CF91089560E0D3CF089561E0D0CF2A
:1031E000089563E0CDCF089562E0CACF089564E00A
:1031F000C7CF089565E0C4CF089566E0C1CF0895B4
:1032000067E0BECF089569E0BBCF089568E0B8CF0E
:1032100008956AE0B5CF08956BE0B2CF08958EE1CE
:103220000E94FA108CE193E007D89FB7F89481E0F0
:1032300006C0EDE2F2E084E68687178680E0811121
:10324000F8CF9FBF08958EE10E94FA1084E293E0C8
:103250000E941C110E948F0BE2DF80E008958EE136
:103260000E94FA1084E293E00E941C110E949B0BC2
:10327000D6DF80E008958EE10E94FA1084E293E0A8
:103280000E941C110E945D0BCADF80E0089510921D
:103290001505009769F480E596E090934E058093BC
:1032A0004D0582E593E0909342058093410508C067
:1032B00090934E0580934D057093420560934105B0
:1032C0008FEF80931B058CE593E090931F0580930F
:1032D0001E05089562ED7FE082E00C94612F089551
:1032E00064ED7FE083E00C94612F089566ED7FE04C
:1032F00081E00C94612F089568ED7FE080E00C94EC
:10330000612F089580911A058A3031F46AEB7FE0CD
:1033100080E00C94612F089560ED7FE080E00C94D4
:10332000612F089580911A058A3031F46CEB7FE0AB
:1033300081E00C94612F08956EEC7FE081E00C94A5
:10334000612F0895CF93DF93E0911A058E2F90E0BF
:10335000FC013297EC30F10508F0E4C08827EE5804
:10336000FF4F8F4F0C94F22F80915D05E8E6F5E05A
:10337000982F92959F7090838F708183D3C0809196
:103380005D05803120F08FEF80936805CBC08F5FA3
:1033900080936805C7C080915D05882334F4E8E612
:1033A000F5E010828FEF8183BDC01092690508C0DF
:1033B000E8E6F5E091819F5F91838C5080935D05F5
:1033C00080915D058C30A0F780936805ABC080913B
:1033D0005D05E8E6F5E0982F9295969597709083B5
:1033E0008F7180935D05118208C0E8E6F5E0918158
:1033F0009F5F91838A5080935D0580915D058A303F
:10340000A0F780936A058EC0E8E6F5E0108211828D
:1034100008C0E8E6F5E090819F5F90838456809332
:103420005D0580915D058436A0F708C0E8E6F5E00B
:1034300091819F5F91838A5080935D0580915D05A6
:103440008A30A0F780936A056DC080915D05843055
:1034500020F08FEF8093680565C08093680562C097
:1034600080915D05843020F083E0809368055AC028
:103470008093680557C080915D058093680552C0B0
:10348000E92FF0E080915D05282F221F2227221FBF
:10349000E859FA4F2083880F80935D059F5F01C034
:1034A00090E0983068F33EC08250F0E0DE019D91DC
:1034B000E859FA4F9F709083E82FF0E09881E8591F
:1034C000FA4F92959F709083ED0103C0C6E4D5E05A
:1034D00088E0EFEFE80F8111E7CF24C080915D0510
:1034E000E8E6F5E0982F97709F5F90838695869524
:1034F00086958F5F818316C080915D058F5F809375
:103500005D051092680508C0E8E6F5E090819F5FD0
:1035100090838A5080935D0580915D058A30A0F785
:1035200080936905DF91CF9108950F931F93CF93F7
:10353000DF93E0911A058E2F90E0FC013297EC307A
:10354000F10508F026C18827E258FF4F8F4F0C94F1
:10355000F22F08E615E0F80180810E94462DC3E2B3
:10356000D2E08883F80181810E94462D89831A82E6
:1035700010C1E3E2F2E083E4808388E681838091F6
:1035800068058F3F29F480E282838DE2838312C035
:103590008A3048F0C3E2D2E091E39A838A500E94D5
:1035A000462D8B8307C0C3E2D2E090E39A830E944A
:1035B000462D8B8310922702ECC0809168058F3FC7
:1035C00021F0909169059F3F59F4E3E2F2E08EE625
:1035D00080839FE69183828385E683831482D9C0AA
:1035E0009FE5909324028B3021F488E4809323029A
:1035F00020C0853058F4982F96959D5B90932302B8
:1036000080FF17C083E28093240213C0282F30E08C
:1036100025503109359527952A5B2093230280FD9B
:1036200003C083E280932402283419F481E4809358
:10363000230280916905811104C08DE680932502E3
:103640000BC08C3030F481500E94462D80932502AF
:1036500003C08DE280932502109226029AC0C3E235
:10366000D2E08DE4888308E615E0F80180810E94AD
:10367000462D898382E48A83F80181810E94462D48
:103680008B83F80182810E94462D8C831D8281C02C
:1036900008E615E0F80180810E94462DC3E2D2E0E1
:1036A0008883F80181810E94462D8983F8018281F7
:1036B0000E94462D8A831B826CC0809168058330EE
:1036C00038F4E3E2F2E093E3981B9083118261C047
:1036D000833031F4E3E2F2E080E58083118259C067
:1036E000E3E2F2E08DE28083118253C080916805AD
:1036F000E3E2F2E0805D808311824BC08091680537
:10370000811109C0E3E2F2E081E6808385E78183ED
:1037100083E7828308C0E3E2F2E085E6808389E6FE
:1037200081838EE682831092260233C0C12FD0E0BF
:10373000FE01E859FA4F80810E94462DCD5DDD4F94
:1037400088831F5F01C010E0183080F322C0A8E614
:10375000B5E08C91E3E2F2E0805D808311968C917C
:10376000805C8183128215C0E8E6F5E0908181815A
:10377000292F282B31F4E3E2F2E08DE2808381836C
:1037800006C0E3E2F2E0905D9083805D8183109259
:103790002502DF91CF911F910F9108950F931F93F1
:1037A000CF938EE10E94FA10C0E003E212E00BC05A
:1037B000F8018081882319F00F5F1F4F01C080E25C
:1037C0000E940411CF5FCA3098F3CF911F910F91DF
:1037D00008958A301CF488231CF0089580E0089531
:1037E00089E008950F931F93CF93DF93C82FE09143
:1037F0004D05F0914E0531968491282F2071E0916E
:103800001A058E2F90E0FC013297EC30F10508F09C
:1038100092C18827E657FF4F8F4F0C94F22FD0E0CC
:10382000C859DA4F8881680F6F70688384C121118D
:103830001AC0613041F480916805803121F481E043
:103840008093680578C16F3F41F4809168058130AD
:1038500021F480E1809368056EC1E8E6F5E080819F
:10386000680F608368C1613041F4809168058031E0
:1038700021F48FEF809368055EC1613041F480913F
:1038800068058F3F21F481E08093680554C16F3F44
:1038900041F4809168058F3F21F480E180936805B1
:1038A0004AC16F3F41F480916805813021F48FEF68
:1038B0008093680540C1E8E6F5E08081680F608389
:1038C0003AC1809169058F3F09F4C1E0C11116C06A
:1038D000809168058C3050F48B3011F4613041F0E8
:1038E000811102C06F3F31F0680F05C060E003C076
:1038F00060E001C06BE0609368052BC021110AC035
:10390000811102C06F3FC1F08A3011F46130B1F013
:10391000680F1DC0811102C06F3F91F08A3011F411
:10392000613081F08F3F11F4613071F08F3F11F4FD
:103930006F3F61F0680F0BC06AE009C060E007C02C
:103940006FEF05C06FEF03C060E001C06AE06093F5
:103950006905909168059F3F09F4EDC08091690564
:103960008F3F09F4E8C0282F220F820F282F220F43
:10397000220F920F0AF0DFC0E8E6F5E087E08083CF
:103980008AE08183D8C0C11107C0E8E6F5E08081F4
:10399000680F67706083CFC0D0E008E615E0C859B3
:1039A000DA4F8881860F15DF8883F8018181928143
:1039B000880F282F220F220F820F890F80322CF0C0
:1039C00083E0818381E08283B6C088230CF0B3C09A
:1039D000E8E6F5E011821282AEC0D0E008E615E01C
:1039E000C859DA4F8881860FF4DE8883F801208178
:1039F000818190E0AC01440F551F880F991F880FFB
:103A0000991F880F991F840F951FF4E62F9F800D33
:103A1000911D1124F8012281820F911D8F3F910584
:103A200009F00CF488C082E0808385E08183828382
:103A300082C02223A1F0D0E0FE01E859FA4F808134
:103A4000680F6083643019F48FEF808374C06E3F19
:103A500009F071C0C859DA4F83E088836CC0D0E0A8
:103A6000FE01E859FA4F8081811105C06F3F19F4BA
:103A700083E0808360C0833031F4613021F4C85921
:103A8000DA4F188258C0C859DA4F680F688353C09C
:103A9000D0E0C859DA4F8881680F637068834BC0E3
:103AA000E8E6F5E080818095808345C0D0E081E044
:103AB00061FD80E0C859DA4F88833DC0613041F430
:103AC000D0E0C859DA4F888187708F5F888333C010
:103AD000EC2FF0E0E859FA4F8081825087708F5FB9
:103AE000808329C0E8E6F5E090818181990F292F34
:103AF000220F220F920F890FC11107C0660F962F58
:103B0000990F990F690F680F01C0680F66231CF0A9
:103B100061341CF403C060E001C060E010926805ED
:103B200006C0E8E6F5E080818F5F80836A506A30E6
:103B3000C4F760936905DF91CF911F910F910895AC
:103B4000E0911A058E2F90E0FC013297EC30F105E0
:103B500008F0D9C08827EA56FF4F8F4F0C94F22FF8
:103B6000E8E6F5E0808120E1829FC0011124918187
:103B70009F70892B80935D050895809168058F3F24
:103B800019F480935D050895815080935D05089533
:103B9000909168059F3F21F0809169058F3F21F446
:103BA0008FEF80935D050895282F220F820F880FD5
:103BB000880F890F80935D050895E8E6F5E0808120
:103BC00030E2839FC001112421813281220F422FD4
:103BD000440F440F240F230F203220F08F61809375
:103BE0005D050895822B80935D050895E8E6F5E074
:103BF0002081818190E0AC01440F551F880F991FEF
:103C0000880F991F880F991F840F951F34E6239FF3
:103C1000800D911D11242281820F911D8F3F9105EE
:103C200029F020F08FEF80935D05089580935D0566
:103C300008958091680580935D05843008F463C021
:103C40008FEF80935D050895809168058370809360
:103C50005D0508958091680580935D050895109233
:103C60005D0580E00CC090915D05990FE82FF0E0B4
:103C7000E859FA4F2081920F90935D058F5F88304D
:103C800090F308951092460510924705109248054A
:103C900010924905A6E4B5E088E010C08250F0E03B
:103CA000E859FA4F9081E82FF0E0E859FA4F208167
:103CB00030E1239F900D11249C931196EFEFE80FB4
:103CC0008111ECCF0895E8E6F5E020819181892FFC
:103CD00090E00197880F991F880F991F880F991FEF
:103CE0009FEF920F892B80935D050895E8E6F5E03C
:103CF00080819181880F282F220F220F820F890F38
:103D0000815080935D0508950F931F93CF93DF93A8
:103D10008C01D62FC0E00CC0F8018491882319F0E3
:103D20000F5F1F4F02C08D2FD0E20E940411CF5FA2
:103D3000CA3090F3DF91CF911F910F91089580E4E5
:103D40000E94FA10E0911505E11107C06AE3809125
:103D5000410590914205D8CF0895F0E03197EE0FDC
:103D6000FF1FE05EFA4F808191816AE30296CCCF1B
:103D70000895E0914D05F0914E0584918F7390E088
:103D800002971CF0DFDAD1DB09CD0895E0911E0522
:103D9000F0911F0580911B05E80FF11D319684916C
:103DA000825E0E94FA1020911B0530E0E0911E0512
:103DB000F0911F05849190E001972817390714F4BA
:103DC0008FDA03C083E00E949C2F80911B0588231B
:103DD00011F080DA03C082E00E949C2F93DAA2DA0D
:103DE0000C94B02F089584E10C94FA1008950F9369
:103DF0001F93CF93F8DF8EE493E00E941C11809113
:103E0000900C9091910C0E94992E8DE20E940411C9
:103E10008091900C9091910C049730F48091900CCB
:103E20009091910CC82F01C0C4E00091460B10E0A6
:103E30000B5F144F13C08BE00630180710F0F80129
:103E400002C0E5E2FBE08F010150110980810E9470
:103E50007D2DC15019F080E20E940411C111EBCFF9
:103E600080E0CF911F910F9108950F931F93CF93EF
:103E7000BADF89E493E00E941C1180918B0B909132
:103E80008C0B0E94992E8DE20E94041180918B0B65
:103E900090918C0B049730F480918B0B90918C0B4C
:103EA000C82F01C0C4E00091010B10E00B5D144F5E
:103EB00013C08BE00632180710F0F80102C0E5E4E9
:103EC000FBE08F010150110980810E947D2DC150BE
:103ED00019F080E20E940411C111EBCF80E0CF9174
:103EE0001F910F9108950F931F93CF938F3FA9F4C4
:103EF0000E9437118150809309021092080264ECED
:103F00007FE080E00E94612F6EEB7FE081E00E9405
:103F1000612F0E94B02FCFEF2FC0843049F48091E1
:103F20000902882321F1815080930902CFEF24C038
:103F3000813091F40091090210E00F5F1F4F0E9441
:103F4000371190E008171907A4F4809109028F5FD8
:103F500080930902CFEF10C0833011F0853059F4FF
:103F600080910802809580930802CFEF05C0CFEFC3
:103F700003C0CFEF01C0C0E0CF3F09F056C084E1DD
:103F80000E94FA100E943711811106C08CE293E062
:103F90000E941C11C0E01DC0809109028F5F0E9429
:103FA000B92D8AE30E94041180910802811108C092
:103FB00060E2809109020E94DB120E940C1106C08F
:103FC000809109020E947E110E941C110E94212FE3
:103FD0000ADF61E0809108028F3F09F060E081E034
:103FE0000E94CF2F0091090210E00F5F1F4F0E9427
:103FF000371190E00817190734F464ED7FE083E08F
:104000000E94612F03C083E00E949C2F80910902CF
:10401000882331F062ED7FE082E00E94612F03C0CF
:1040200082E00E949C2F0E94B02F8C2FCF911F9175
:104030000F9108958AE40C94FA1008958EE10E947D
:10404000FA108EE393E00E941C119FB7F89481E070
:1040500006C0EDE2F2E084E68687178680E08111F3
:10406000F8CF9FBF0E945C2BE5DF80E00895CF93DF
:1040700089E40E94FA10E0914D05F0914E05C4913B
:10408000C07CC03839F480E20E94041182E00E94B2
:104090009C2F04C08FE70E9404111CD9C03C29F456
:1040A00083E00E949C2FC0E202C01AD9CEE724D937
:1040B0001DD980914D0590914E056C2F029624DEFE
:1040C0000E94B02FB7DFCF9108958DDE8AE00C9467
:1040D000152F08958EE10E94FA108AE00C94152F96
:1040E000089580914A058F3F19F08D3F09F04AC02D
:1040F0000E943F2FEFDF1092970790E0E7E4F2E095
:1041000007C0218180916605822B818338969F5F4D
:104110009032B8F380914A058F3F19F410924A0506
:1041200077C08EE10E94FA1081E60E94041182E6B7
:104130000E9404118FE60E94041182E70E9404117C
:1041400084E70E9404118EEF80934A059FB7F8948C
:1041500081E006C0EDE2F2E082E08487858780E0BE
:104160008111F8CF9FBF9FB7F89481E006C0EDE2C0
:10417000F2E084E68687178680E08111F8CF9FBF42
:1041800059DF46C08E3F41F48FEF8093970710921E
:1041900066050E94382F3CC04091160550911705C6
:1041A0006091180570911905769567955795479513
:1041B00040931605509317056093180570931905E1
:1041C000E82FF0E0DF01AA0FBB1FAA0FBB1FAA0F49
:1041D000BB1FA95BBD4F16962C91909166052923B4
:1041E00049F47068409316055093170560931805BD
:1041F00070931905EE0FFF1FEE0FFF1FEE0FFF1F4D
:10420000E95BFD4F2181922B91838F5F80934A055B
:10421000E0914A05E03228F5F0E0EE0FFF1FEE0FC7
:10422000FF1FEE0FFF1FE95BFD4F80916605982F82
:1042300090958181892381838EE10E94FA1080917B
:104240004A050E94B92D9FB7F89481E006C0EDE2BF
:10425000F2E088E08487158680E08111F8CF9FBF67
:104260000895E03209F044C08EE10E94FA10809176
:10427000160590911705A0911805B09119050097A2
:10428000A105B10539F48FE60E9404118BE60E9466
:10429000041110C08093950C9093960CA093970CEA
:1042A000B093980C85E40E9404118AE30E940411E3
:1042B0000E94942D8EEF80934A059FB7F89481E079
:1042C00006C0EDE2F2E082E08487858780E081111C
:1042D000F8CF9FBF9FB7F89481E006C0EDE2F2E00F
:1042E00084E68687178680E08111F8CF9FBFA2CE33
:1042F000089581E090E000901D0502C0880F991F8D
:104300000A94E2F7809366058FEF80934A05109236
:104310001605109217051092180510921905E1DE86
:1043200080E0089580E40E94FA108AE00E94152F30
:1043300081DE8AE00C94152F0895F4DFCBDEC5CE24
:1043400008958FEF80933B0280914D0590914E052B
:10435000FC012491E22FEF736E2F70E06230710543
:104360000CF448C09C01225F3F4FF90145915591E3
:104370004115510509F43EC0FB0131979F01220F01
:10438000331F220F331F220F331FE20FF31FE45A94
:10439000FC4FF0931F05E0931E05249120934405E4
:1043A000FC0125912F7320931A05249122232CF4CC
:1043B000209155053091560502C020E030E0240FD1
:1043C000351FFC0184918F738B3071F4F90180816A
:1043D0009181A281B3818093460590934705A09374
:1043E0004805B093490504C0F901808180935D05BB
:1043F000C0DC07C06FDE8CE593E090931F058093CF
:104400001E0518CE089561DE9CDF99DC30DE0C9429
:10441000382F0895CF93C82F0E94382FE0914D0573
:10442000F0914E0584918F73813029F080911B05A6
:104430008F3F09F03DC13196849186FF02C045DE71
:10444000F9DD60914D0570914E05CB010196FC019F
:104450008491982F907285FF1FC09B01205F3F4F72
:10446000F9012591359121153105B1F040911B05D8
:104470004F3F91F08C2FF90119958F3F21F4109245
:104480001B0580E0D3C121DE25DED4DD8FEF8093D4
:104490001B05EDDD80E0CAC1C33009F464C028F417
:1044A000C13051F0C23031F1ACC1C53009F45BC04C
:1044B00090F0C630F9F0A5C1FB018491807C803C6E
:1044C00009F4A1C17496F0934E05E0934D0539DFD0
:1044D000CEDD80E0ABC1FB018491807C803809F4A3
:1044E00094C17497F0934E05E0934D052ADFBFDD2C
:1044F00080E09CC184FF04C0109272051092710587
:10450000E0911505EE23E9F0E150E0931505F0E0A8
:10451000EE0FFF1FE05EFA4F0190F081E02DF09367
:104520004E05E0934D0572960590F491E02D30977D
:1045300011F080E01995C9DD02DC99DD02DF80E031
:1045400075C180E00E949C2F81E00E949C2F82E038
:104550000E949C2F83E00E949C2F0E94B02F0E94FB
:104560003F2F8FEF63C1FB0124912F7330E0223086
:104570003105F4F070960590F491E02D309719F024
:104580008C2F1995DEDE20914D0530914E05C90125
:104590000196FC01849183FD3AC13D9685919591E8
:1045A000892B09F436C110921B05F0DB80E03EC177
:1045B0002FEF20931B0584FF26C070937205609334
:1045C0007105E0911505EE2309F425C1E150E09352
:1045D0001505F0E0EE0FFF1FE05EFA4F0190F0814D
:1045E000E02DF0934E05E0934D0572960590F49101
:1045F000E02D309711F080E0199567DDA0DB37DD05
:10460000A0DE80E013C1FB0170960590F491E02DCF
:10461000309799F0992371F08FEF19958F3F19F426
:1046200010921B050AC051DD55DD04DD8FEF80932C
:104630001B0503C085E01995FDDC20914D053091E7
:104640004E05C9010C96FC0185919591892B09F4C1
:10465000E4C0A0911505A03108F0E1C081E08A0F07
:1046600080931505B0E0AA0FBB1FA05EBA4F2D9333
:104670003C93C9010196FC01849183FF0BC080919A
:10468000710590917205009729F090934E058093E3
:104690004D0508C0F9013C968591959190934E0582
:1046A00080934D0512DD4BDBE2DC4BDE80E0BEC0CB
:1046B000C33009F447C028F4C13059F0C23031F199
:1046C000B0C0C53009F45AC0C0F0C63009F486C085
:1046D000A8C0482F50E0E0911E05F0911F052491DD
:1046E00030E021503109421753070CF09CC08F5F16
:1046F00080931B054BDB80E099C0882309F495C0AB
:10470000815080931B0542DB80E090C061E06AD855
:1047100017DA2FDB80911A058A3089F420911B0566
:10472000422F50E0E0911E05F0911F05849190E02A
:104730000197481759071CF42F5F20931B0526DBB0
:1047400080E074C06FEF4ED8FBD913DB80911A055F
:104750008A3089F420911B05422F50E0E0911E051C
:10476000F0911F05849190E00197481759071CF4B8
:104770002F5F20931B050ADB80E058C0E1D9209110
:104780004D0530914E05C9010E96FC01A591B591DC
:10479000109721F10D97FC01849188232CF48091CE
:1047A00055059091560502C080E090E0A80FB91F12
:1047B000F90184918F738B3071F4409146055091CB
:1047C000470560914805709149054D935D936D9340
:1047D0007C93139703C080915D058C93E0914D0508
:1047E000F0914E0572960590F491E02D309711F0FE
:1047F0008C2F19958FEF80931B0539DCA2DD80E0AB
:1048000015C080E013C080E011C080E00FC080E0E0
:104810000DC080E00BC080E009C080E007C080E0F0
:1048200005C080E003C080E001C080E0CF91089522
:10483000CF930E94040A8F3FC9F40FC0822F90E0EB
:10484000FC01E95AFA4F1082880F991FFC01E25AC5
:10485000FA4F118210822F5F01C020E0243070F3E4
:1048600040E050E067E081E00E94D212C0E025C045
:104870004C2F50E0FA01E95AFA4F8081853170F4EB
:1048800024E1829FC001112486529C4F440F551F82
:10489000FA01E25AFA4F918380830EC0FA01EE0FBB
:1048A000FF1FE25AFA4F118210824F5F5F4F406143
:1048B00067E081E00E94D212CF5FC430C8F2CF918E
:1048C00008956430F0F5009781F1FC0124912F7375
:1048D000213059F53196249124FF27C0462F50E00E
:1048E000FA01EE0FFF1FE25AFA4F918380838A5D2F
:1048F000934095958795959587956DEC7CEC869F73
:104900009001879F300D969F300D1124ADECBCECCB
:104910000E94FA2F929582958F7089279F70892720
:10492000FA01E95AFA4F8083089570E0FB01EE0F17
:10493000FF1FE25AFA4F11821082FB01E95AFA4F27
:1049400010820895E0914D05F0914E053E966591D7
:1049500075918091710590917205B3DF80E00895A3
:104960000F931F93CF93C0E032C00C2F10E0F801DB
:10497000EE0FFF1FE25AFA4F0190F081E02D3097C1
:1049800031F03E96659175916115710521F48C2F7A
:104990000E949C2F1BC08C2F0E94612F000F111FA3
:1049A000F801E25AFA4F0190F081E02D70960590DF
:1049B000F491E02D309751F080E01995813811F491
:1049C0006FEF01C060E08C2F0E94CF2FCF5FC4300B
:1049D00060F20E94B02FCF911F910F910895823005
:1049E00049F018F4813051F00BC0833059F0843015
:1049F00019F006C080E0089582E0089583E00895EC
:104A00008FEF089581E008950F931F93CF93843023
:104A1000D0F5E82FF0E0EE0FFF1FE25AFA4F0081C9
:104A200011810115110589F1F80194919F7391305D
:104A300071F53196949194FF2CC0C82F3F96059044
:104A4000F491E02D309789F0862F1995823829F45A
:104A500060E08C2F0E94CF2F06C0813821F46FEFC9
:104A60008C2F0E94CF2F0E94B02FF8013C96859189
:104A70009591009781F0B8016E5F7F4F0E944719B2
:104A8000C2DC80E009C08FEF07C08FEF05C08FEF59
:104A900003C08FEF01C08FEFCF911F910F91089549
:104AA000CF93C09156038CE00E94FA10809143028C
:104AB00084FF02C080E201C089E00E9404118C2FB3
:104AC0000E94FA10CF91089585B1806485B983E181
:104AD00080934302E5DF80E0089585B18F7B85B93F
:104AE00010924302DDDF80E0089585B18F7B85B9A8
:104AF00081E080934302D4DF9FB7F89481E006C041
:104B0000EDE2F2E082E38283138280E08111F8CF4C
:104B10009FBF089510927607109273051092750743
:104B2000089590917607E92FF0E0E958F84F8083D7
:104B30009F5F9F7180917305981304C08FEF8093DE
:104B4000750708959093760708954FB7F89421E07C
:104B500011C090917305309176078FEF20E0931785
:104B600049F0E92FF0E0E958F84F80819F5F9F718D
:104B7000909373052111EDCF4FBF08954FB7F8946F
:104B800091E008C0309173052091760790E080E0B5
:104B9000321711F08FEF01C090E09111F3CF4FBFAA
:104BA0000895AC01909197079923E1F090917407D3
:104BB00021E0290F20937407E92FF0E0EE0FFF1F8B
:104BC000EC58FA4F518340838091990728130AC00B
:104BD000909374079F3F19F48FEF809374078FEFC2
:104BE000809398070895E091990780917407E813DE
:104BF00003C08FEF9FEF089581E08E0F8093990798
:104C0000F0E0EE0FFF1FEC58FA4F8081918108957C
:104C10009091990780917407981302C080E00895DD
:104C20008FEF089580E0E3EBF7E003C010828F5F21
:104C300031968C30D8F308958C30E8F4E82FF0E00A
:104C4000ED54F84F9FEF9083863010F0865001C0EE
:104C50008A5FE82FF0E0DF01AD54B84F8C918823D4
:104C600059F0DF01AD54B84F1C92EE0FFF1FEE5507
:104C7000F04F8491089580E0089580E88093440285
:104C80000C94F80B089520E030E012C0822F90E0E1
:104C9000FC01EE0FFF1F8E0F9F1FFC01E656F84F21
:104CA00081818F3F21F0831710F031E0380F2F5FA3
:104CB000283060F33093B207089520E00EC0822FB1
:104CC00090E0FC01EE0FFF1FE80FF91FE656F84FCA
:104CD0008FEF8083818312822F5F283080F30E94C0
:104CE000A8098F3F49F41092B20740E050E065E018
:104CF00081E00E94D21201C0C6DF0E94DC098F3F12
:104D0000F1F414C0E92FF0E0EE0FFF1FEE0FFF1FCC
:104D1000EE0FFF1FE250F74FE80FF11D10828F5F7B
:104D200001C080E0883070F39F5F01C090E0903454
:104D3000C0F340E050E066E081E00C94D2120895A8
:104D40009091B2078917A8F4803498F48F5F98E0A7
:104D5000EAE9F7E02081821748F03181381730F016
:104D60003281982F921B80E0930F089533969150D3
:104D700089F78FEF90E00895CF939091B20789174C
:104D8000A0F5C62FDDDF81112AC0292F2F71929542
:104D90009695977041E050E002C0440F551F9A95D8
:104DA000E2F730E0F901EE0FFF1FEE0FFF1FEE0FED
:104DB000FF1FE95BFD4F9181942311F4C1FD11C0E8
:104DC000220F331F220F331F220F331FF901E95B1C
:104DD000FD4F9681492351F0C0FD05C007C080E01A
:104DE00005C081E003C081E001C080E0CF9108955B
:104DF000EF92FF921F93CF93DF937C01C0E080E09E
:104E000015C01C2F177009F480E0D82FD69563E0E9
:104E10008C2FB2DF811180E88D2B173031F4F70130
:104E2000808397012F5F3F4F7901CF5FC03448F3F4
:104E3000DF91CF911F91FF90EF900895CF939091C4
:104E4000B2078917B8F5C62F7BDF811133C0E92F70
:104E5000EF71929596959770C0FF17C0F0E021E032
:104E600030E0A90102C0440F551F9A95E2F7CA012C
:104E7000EE0FFF1FEE0FFF1FEE0FFF1FE95BFD4F51
:104E8000809591818923818315C0F0E021E030E095
:104E9000A90102C0440F551F9A95E2F7CA01EE0F0F
:104EA000FF1FEE0FFF1FEE0FFF1FE95BFD4F91810C
:104EB000892B8183CF910895EF92FF920F931F93D7
:104EC000CF93DF93803408F5E82FF0E0EE0FFF1F5B
:104ED000EE0FFF1FEE0FFF1FE250F74F00E010E054
:104EE00012C07F018FEFE81AF80AD081C0E007C036
:104EF0006D2F6170812FA2DFD6951F5FCF5FC83005
:104F0000B8F30F5FF701083060F3DF91CF911F9185
:104F10000F91FF90EF900895803450F490E0880F47
:104F2000991F880F991F880F991F8250974F60CF44
:104F3000089590E4E8ECF7E007C08FEF8083818369
:104F400083831282349691509111F7CF0E94FE080C
:104F50008F3F01F580930D02E8ECF7E0108284E2C8
:104F60008183838398E3928321E0208B818B838BE1
:104F7000928B22E020A381A383A392A393E090AB22
:104F800081AB83AB8EE182AB40E050E061E081E039
:104F90000C94D212089520E006C0FC01E853F74FAC
:104FA0003FEF30832F5F822F90E00097B1F70E9490
:104FB00026098F3FA9F480930D02E8ECF8E01082F7
:104FC00081E0818382E0828383E08383ECECF8E0FC
:104FD0001082118240E050E062E081E00C94D21235
:104FE0000895E82F8FEF9FEFE43040F4F0E0E853AE
:104FF000F74F20812F3F11F0822F962F089570E0F8
:1050000052C0872F90E0242F30E0F901EE0FFF1FF0
:10501000DF01A20FB31FFC01EE0FFF1FE80FF91F06
:10502000EE0FFF1FEE0FFF1FEA0FFB1FE253F74FBC
:10503000A081AF3FD9F0F901EE0FFF1FE20FF31F80
:105040009C01220F331F280F391F220F331F220FFD
:10505000331FE20FF31FE253F74F21812F3F31F04F
:10506000A61708F46A2F521708F4522F552311F08F
:105070006F3F49F4880F991FFC01E054F84F8FEF00
:105080008083818307C0880F991FFC01E054F84F8B
:10509000608351834F5F03C040E06FEF50E04430C6
:1050A00008F4AFCF7F5F7430B8F3089563E028C091
:1050B000862F062E000C990B422F022E000C550B4A
:1050C000FA01EE0FFF1FE40FF51FAC01440F551F4F
:1050D000DA01A80FB91FAA0FBB1FAA0FBB1FAE0F83
:1050E000BF1FA253B74F3FEF3C9311963C931197CC
:1050F000FD011282215001C023E02223CCF6615031
:105100006623D4F70E94D6088F3F41F480930D02A6
:1051100040E050E063E081E00E94D21270CF089539
:105120008430D8F490E0FC01EE0FFF1FE80FF91F68
:10513000EE0FFF1FEE0FFF1FE253F74F84E02081B9
:10514000621740F09181961728F09281621B80E0EF
:10515000960F08953396815091F78FEF90E0089560
:1051600070E0EEECF8E054E016C06281861788F03B
:10517000A82FB0E02181908130E0291B3109260F52
:10518000311D2A173B072CF0482F461B872F940F01
:105190000895339651505111E8CF7F5F753018F361
:1051A000482F50E061E082E00E94D8128FEF90E03B
:1051B0000895CF93C42FB4DF811133C0E92FEF716D
:1051C000929596959770C11116C0F0E021E030E0FD
:1051D000A90102C0440F551F9A95E2F7CA01EE0FCC
:1051E000FF1FEE0FFF1FEE0FFF1FE95BFD4F9181C9
:1051F000892B818316C0F0E021E030E0A90102C0D4
:10520000440F551F9A95E2F7CA01EE0FFF1FEE0FEC
:10521000FF1FEE0FFF1FE95BFD4F809591818923F2
:105220008183CF910895CF92DF92EF92FF920F93F7
:105230001F93CF93DF93C82ED12C3CC00C2D10E0D0
:10524000CD2DD0E0F801EE0FFF1FEE0FFF1FEC0F8A
:10525000FD1FEE0FFF1FEE0FFF1FE853F84F808179
:10526000843038F5F801EE0FFF1FEE0FFF1FEC0F33
:10527000FD1FEE0FFF1FEE0FFF1FE853F84F638176
:10528000F28015C0EE24E394E60EF801EE0FFF1F46
:10529000EE0FFF1FEC0FFD1FEE0FFF1FEE0FFF1FA6
:1052A000E853F84F40E0808184DFFA946E2DF110CE
:1052B000E9CFD39483E08D1508F0C0CFDF91CF9173
:1052C0001F910F91FF90EF90DF90CF9008950F9373
:1052D0001F93CF93DF93843008F5082F10E0F80177
:1052E000EE0FFF1FE054F84FC081CF3FB9F0D82F29
:1052F000F801EE0FFF1FE054F84F81818F3F31F42A
:105300000DC040E06C2F8D2F54DFCF5FF801EE0F02
:10531000FF1FE054F84F91819C1798F7DF91CF91D0
:105320001F910F910895CF93C0E003C08C2FCFDF62
:10533000CF5FC430D8F3CF91089580910E028823B7
:1053400039F080913302811103C0EDDF10920E021B
:1053500008950F931F93CF93DF93062F142FD82F09
:10536000DF70C0E090E03CC04D2F50E02C2F30E0CB
:10537000FA01EE0FFF1FEE0FFF1FE20FF31FEE0FFC
:10538000FF1FEE0FFF1FE853F84F8081843038F580
:10539000DF016181702F761B672F0AF1FD01E28129
:1053A000F0E0A72F770FBB0BAE17BF07C4F4FA01CD
:1053B000EE0FFF1FEE0FFF1FE20FF31FEE0FFF1F99
:1053C000EE0FFF1FE853F84F9381690F113021F45E
:1053D0008093000260930202412FEBDE9FEFCF5FCC
:1053E000C43008F4C1CF113049F4911107C00093C3
:1053F0000202D09301028FEF80930002DF91CF91E0
:105400001F910F91089588230CF04CC0883FB8F08D
:105410008E3F81F481E080930E029FB7F89406C01E
:10542000EDE2F2E089E18683178280E08111F8CF16
:105430009FBF08958F3F09F076C01FCC08958093D9
:10544000000B1092BF0790E8980F903420F482E090
:1054500080930502089590E2980F903120F482E045
:10546000809305020895823F21F482E08093050233
:105470000895803F21F48FEF80930502089590E412
:10548000980F903220F481E0809305020895813FC7
:1054900011F0833F21F481E080930502089510927A
:1054A00005020895E091BF07E23040F491E09E0FBD
:1054B0009093BF07F0E0E250F54F808380910502A2
:1054C0008F3F89F19091BF07981768F19091000B79
:1054D000903F38F5892F8F70907F903971F018F4D4
:1054E000903831F01EC0903B99F0903CB9F019C053
:1054F00040E06091FE0A2DDF14C09091FF0A9111E7
:1055000002C040E001C041E06091FE0A22DF09C014
:105510009091FE0A9B3729F486DE03C08091FE0A33
:10552000CBDC1092BF070895CF92DF92EF92FF92EB
:105530000F931F93CF93DF93192F107E9F71D92E56
:10554000D82F103209F4A9C0112309F4A8C0ABC0A8
:10555000D0FFA0C020E2C29FC00111248D2900DE2F
:10556000F82EE92E082F8F3F09F494C0692F39DDFA
:10557000C92E8F3F09F1103231F09091CD08992357
:1055800021F090E903C090E901C090E8892BE7D0B1
:105590008C2DE5D0111106C08091CD08811104C079
:1055A00080E403C080E401C080E0D9D0103221F44F
:1055B000F0920302E092040241E0103209F040E070
:1055C000F42E011119C08091B3078F3F19F46E2D8D
:1055D00081E0EFDD8091B4078F3F21F44F2D6E2DD8
:1055E00082E0E7DD8091B6078F3F09F053C04F2D71
:1055F0006E2D83E0DEDD4EC00130C9F48091B50729
:105600008F3F19F46E2D82E0D4DD8091B7078F3F74
:1056100021F44F2D6E2D83E0CCDD8091B9078F3FB3
:1056200009F038C04F2D6E2D80E0C3DD33C002304D
:10563000C1F48091B8078F3F19F46E2D83E0B9DD76
:105640008091BA078F3F21F44F2D6E2D80E0B1DDA0
:105650008091BB078F3FF1F44F2D6E2D81E0A9DDC6
:1056600019C00330B9F48091BC078F3F19F46E2D37
:1056700080E09FDD8091BD078F3F21F44F2D6E2D7F
:1056800081E097DD8091BE078F3F21F44F2D6E2D75
:1056900082E08FDDD695CF5F03C0C0E001C0C0E0DF
:1056A000C83008F455CFDF91CF911F910F91FF9033
:1056B000EF90DF90CF900895CF93C0E00EC0EC2F15
:1056C000F0E0E853F74F8081803130F4806B47D0B1
:1056D0008BE745D080E043D0CF5FC43080F3CF91DB
:1056E00008958EEF3CC008958091CC088823B1F0D6
:1056F00080913D02882321F080913D028F3F71F41B
:105700009FB7F89481E006C0EDE2F2E08AE0808B7A
:10571000118A80E08111F8CF9FBFE3CF08951092E6
:10572000CD008FE18093CC00E9ECF0E080818869C6
:105730008083EAECF0E08081866080831092460BE3
:1057400010928E0C1092010B1092030B1092020B10
:105750001092050B10928A0B10928F0C0895E9ECB1
:10576000F0E090819F7D9083E091010BF0E0EA5D95
:10577000F44F80838091010B8F5F8F718093010BB9
:105780009091010B8091030B98130DC080918F0CA9
:10579000882331F08F3F39F08F5F80938F0C03C0E7
:1057A00081E080938F0CE9ECF0E08081806280835F
:1057B00008959091460B80918E0C981769F0E091B6
:1057C0008E0CF0E0EA5FF44F808190918E0C9F5F29
:1057D0009F7190938E0C08958DEF08951F920F92F4
:1057E0000FB60F9211240BB60F928F939F93EF93E6
:1057F000FF938091CE00E091460BF0E0EA5FF44F1A
:1058000080838091460B8F5F8F718093460B9091C0
:10581000460B80918E0C98130DC080918A0B8823C3
:1058200031F08F3F39F08F5F80938A0B03C081E0A6
:1058300080938A0B8091900C9091910C019690939B
:10584000910C8093900CFF91EF919F918F910F900D
:105850000BBE0F900FBE0F901F9018951F920F92C6
:105860000FB60F9211240BB60F928F939F93EF9365
:10587000FF939091030B8091010B9817C1F0E09179
:10588000030BF0E0EA5DF44F80818093CE008091BD
:10589000030B8F5F8F718093030B80918B0B909123
:1058A0008C0B019690938C0B80938B0B05C0E9ECCD
:1058B000F0E080818F7D8083FF91EF919F918F91A8
:1058C0000F900BBE0F900FBE0F901F9018959091E8
:1058D000480BE1ECF0E020812F7D2083E92FF0E000
:1058E000E357F44F808381E0890F9091040B891373
:1058F0000CC0E1ECF0E09081906290839091040BF9
:105900008917E1F38093480B08958093480BE1ECED
:10591000F0E08081806280830895CF93DF93FC0163
:1059200002C0D5DFFE01EF0121968491882321F08A
:1059300090918D0C9F3FA9F7DF91CF91089582EF51
:105940009FE0EBCF08951092C50083E38093C400DD
:10595000E1ECF0E0808188698083E2ECF0E0808116
:10596000866080831092460B10928E0C1092010B71
:105970001092030B10928D0C0E9482098F3F41F40C
:105980001092470B40E050E064E081E00E94D212A8
:105990008091470B8F3F41F485EF92E0BEDF8CE9A9
:1059A0009FE0BBDFCCDFCBCF08951F93CF93DF9376
:1059B000EC0110E503C021968ADF1150888188230D
:1059C00031F090918D0C9F3F11F01111F4CFDF91C8
:1059D000CF911F9108951F920F920FB60F9211242D
:1059E0000BB60F928F939F93EF93FF93E091920CDE
:1059F0009091C60081E08E0FF0E0E65BF44F90835B
:105A00008F739091490B891304C08FEF80938D0C95
:105A100002C08093920CFF91EF919F918F910F9014
:105A20000BBE0F900FBE0F901F9018951F920F92F4
:105A30000FB60F9211240BB60F922F938F939F9353
:105A4000EF93FF938091040B2091480B9091040BEE
:105A5000291759F0E82FF0E0E357F44F9081909325
:105A6000C6008F5F8093040B05C0E1ECF0E08081FD
:105A70008F7D8083FF91EF919F918F912F910F9058
:105A80000BBE0F900FBE0F901F9018958A3010F02C
:105A9000895C0895805D0895EF92FF921F93CF93E4
:105AA000DF93EB0190E0880F991F880F991F880FF3
:105AB000991F80640E94881010E00AC07E018FEF59
:105AC000E81AF80AFE0184910E9470101F5FE70136
:105AD0001830A0F3DF91CF911F91FF90EF900895C0
