S00D000050697065312E7372656358
S11300000C94170A0C94380A0C94380A0C94380A85
S11300100C94380A0C94380A0C94380A0C94380A54
S11300200C94380A0C94380A0C94380A0C94380A44
S11300300C94380A0C94380A0C94380A0C94380A34
S11300400C94380A0C94380A0C94380A0C94380A24
S11300500C94380A0C947D100C94380A0C94380AC9
S11300600C94380A0C94BB390C94013A0C94380A59
S11300700C94380A0C94380A0C94380A0C94380AF4
S11300800C94380A0C94380A0C94380A0C94380AE4
S11300900C94CE370C9423380C94380A0C94380AF8
S11300A00C94380A0C94380A0C94380A0C94380AC4
S11300B00C94380A0C94380A0C94380A0C94380AB4
S11300C00C94380A0C94380A0C94380A0C94380AA4
S11300D00C94380A0C94380A0C94C13A0C94193BC9
S11300E00C94380A3D224822542270228D22AE22DA
S11300F0B922C422D922EF22F7220523D92232239E
S113010042236623B823D123E623FF2307242C2488
S11301102C24452452244124AD24B52400256225F1
S11301208C25B825E725EF25F525AD24FD251126D9
S1130130F5254F265C2668267D269626B926C426F4
S1130140CA26CF26E22603271627CF26793D8E3DE1
S11301507C3D6D3D7F3D823D703D853D733D883DD9
S1130160763D8B3D4C6F673A20000000496E697400
S113017069616C69736174696F6E000001004545C3
S11301803A4D6F64756C65000000000000000101C9
S113019045453A4D6964692D496E00000000000030
S11301A0010245453A4D6964692D4F75740000009C
S11301B00000010345453A4D616E2D4D6F64756C29
S11301C065000000010445453A5553420000000013
S11301D0000000000000010545453A526567697357
S11301E07465720000000000010645453A50726FC4
S11301F06772616D730000000000010745453A53C2
S11302006F66746B65797300000000000108454552
S11302103A4D696469546872750000000000020078
S11302204D6F643A4661696C0000000000000000F4
S113023002014D6F643A556E6B6E6F77496E7000B4
S1130240000003004F56464C3A4D696469496E00FC
S11302500000000003014F56464C3A4D6964694F53
S113026075740000000004004F56464C3A50697003
S1130270654D73670000000005005077723A4F75B2
S1130280707475744F6E0000000054EF6E65206149
S113029075730054617374656E2F5265672E206CFC
S11302A0EF73656E004D4944492D496E746572665D
S11302B0616365006E6F6E65004D6964692D5468F5
S11302C072753A20004D6964692D4F75743A004D7A
S11302D06964692D496E3A00646972656374204DDE
S11302E04944492D4F757428696E742920666F72CC
S11302F0206D616E75616C3A20002C204269747324
S11303003A004D6F64756C653A00656D70747900E0
S113031052656769737465723A0D0A0052616E67BB
S11303206520004D616E75616C3A20004D6F6475F7
S11303306C657320636865636B65643A20004D6F78
S113034064756C65732061737369676E65643A20C4
S113035000486172647761726520436F6E666967F5
S113036075726174696F6E0D0A000D0A4D49444936
S11303702D4F7267616E2D496E7465726661636597
S11303800D0A004C6F670D0A00656D7074790D0AD3
S113039000736176652E2E2E003C6E6F6E653E00F6
S11303A0756E61737369676E656400453A006F6BBF
S11303B0200061626F7274004D494449204E6F748D
S11303C0656E20617573002B002052656700205212
S11303D06567207E20004F75743A00496E3A004DDF
S11303E0656EF50000000000000000000000000041
S11303F000000200010000000000000103000000F2
S113040000000000020002000000000000030103DD
S113041004000000000003000102000000000001CD
S113042000000000000000000100000000000000C7
S113043000010000000000000000080001020304A5
S1130440050607080001020304050607020001006F
S1130450000000000002000100000000000008008D
S1130460010203040506070000000000000000006C
S113047081103C6E6F6E653E000000000000CC07EA
S11304800000000001104D656E75000000000000C2
S1130490D607C2070000000001105374696D6D6532
S11304A06E0000003A0DB8070000000001104B6F09
S11304B07070656C323C330000009A0749200000DC
S11304C001104B6F7070656C313C33000000900775
S11304D04C20000001104B6F7070656C503C330071
S11304E0000086074F20000001104B6F7070656C90
S11304F0313C320000007C075220000001104B6F99
S11305007070656C503C320000007207552000008A
S113051001104B6F7070656C503C3100000068072F
S11305205820000001104B6F7070656C333C320032
S113053000005E075B20000001104B6F7070656C5B
S1130540333C3100000054075E20000001104B6F63
S11305507070656C333C500000004A076120000055
S113056001104B6F7070656C323C31000000400725
S11305706420000001104B6F7070656C323C5000B9
S1130580000036076720000001104B6F7070656C27
S1130590313C500000002C076A200000011050720A
S11305A02E2B2F73657400000000FA0671210000E1
S11305B0011050722E2D2F636C7200000000F006A3
S11305C03B210000011050726F672E203141000062
S11305D000002207F7200000011050726F672E20E0
S11305E03241000000001807FA2000000110507288
S11305F06F672E203341000000000E07FD2000002D
S1130600011050726F672E2034410000000004076F
S113061000210000011050726F672E636C7200009D
S11306200000B4067D1B0000011050726F672E732A
S1130630657400000000BE068120000001105072A5
S11306406F672E2B000000000000E60686210000E4
S1130650011050726F672E2D000000000000DC06B0
S1130660492100000110507242616E6B2B000000A2
S11306700000D206132100000110507242616E6B1B
S11306802E2D00000000C8061E21000001104D4957
S11306904449204F666600000000A407BC280000FF
S11306A0C110536574757000000000002A0EAE0777
S11306B00000000050636C720000000000005073E2
S11306C065740000000000005072422D000000001C
S11306D000005072422B000000000000502D00006A
S11306E0000000000000502B00000000000000008B
S11306F0502D2F63000000000000502B2F730000CA
S1130700000000005041340000000000000050418F
S113071033000000000000005041320000000000DF
S1130720000050413100000000000000313C5080C6
S1130730000000000000323C508000000000000077
S1130740323C3180000000000000333C5080000047
S113075000000000333C3180000000000000333C06
S11307603280000000000000503C31800000000096
S11307700000503C3280000000000000313C328018
S1130780000000000000503C338000000000000026
S1130790313C3380000000000000323C3380000014
S11307A0000000004D4F6666000000000000536525
S11307B074750000000000005374696D00000000AF
S11307C000004D656E750000000000000000000090
S11307D000000000000081004D616E75616C000036
S11307E000004E0800000000000001005265676927
S11307F07374657200007608000005200000010093
S11308004D494449000000000000420A0000000075
S11308100000010054617374656E00000000EA0C6E
S113082000000000A01B0100537461747573000084
S113083000001613000000000000C1005365747529
S11308407000000000002A0E00000000000081007B
S11308504B6F7070656C00000000520900000000CE
S11308600000C1005374696D6D656E0000003A0D9F
S11308700000000000008C0050726F672E6C6164F1
S11308802E000000CC05000012200C0050726F678F
S11308902E73702E00000000CC050000951B010093
S11308A061757300000000000000000000000C20CF
S11308B000000E005265672E312D38000000000044
S11308C091050000551B0E005265672E392D3136F7
S11308D00000000092050000551B0E005265672EB3
S11308E031372D323400000093050000551B0E00F3
S11308F05265672E32352D33320000009405000016
S1130900551B0E005265672E33332D343000000022
S113091095050000551B0E005265672E34312D34A9
S11309203800000096050000551B0E005265672E26
S113093034392D353400000097050000551BCA00DA
S11309405265672E35352D363400000098050000B9
S1130950551B8900323C33000000000000000000F9
S113096035080000821B0900313C33000000000000
S11309700000000036080000821B0900313C3200F0
S1130980000000000000000037080000821B09007E
S1130990503C330000000000000000003808000054
S11309A0821B0900503C32000000000000000000DF
S11309B039080000821B0900503C3100000000008F
S11309C0000000003A080000821B0900333C32009A
S11309D000000000000000003B080000821B09002A
S11309E0333C310000000000000000003C0800001F
S11309F0821B0900333C500000000000000000008E
S1130A003D080000821B0900323C31000000000058
S1130A10000000003E080000821B0900323C500028
S1130A2000000000000000003F080000821BC90015
S1130A30313C5000000000000000000040080000AD
S1130A40821B81004E6F7465734F66660000000060
S1130A500000BC28000001004D494449696E0000B3
S1130A6000000A0B00000000181D01004D49444914
S1130A706F75740000008A0D00000000141D03103F
S1130A80546872752D496E00000000004A08000089
S1130A90511B0310546872752D4F757400000000CB
S1130AA04B080000511B09004163636570742050BA
S1130AB04300000056090000101D09004163742E14
S1130AC053656E736500000054090000101D090091
S1130AD056656C5A344F66660000000055090000E4
S1130AE0101D0608527842756655736500000000B3
S1130AF0651500000000C608547842756655736594
S1130B00000000006E1600000000810043682E31D2
S1130B100000000000004A0C0000B21A00000100AE
S1130B2043682E320000000000004A0C0100B21A93
S1130B300000010043682E330000000000004A0C4E
S1130B400200B21A0000010043682E3400000000C5
S1130B5000004A0C0300B21A0000010043682E355D
S1130B600000000000004A0C0400B21A000001005A
S1130B7043682E360000000000004A0C0500B21A3B
S1130B800000010043682E370000000000004A0CFA
S1130B900600B21A0000010043682E38000000006D
S1130BA000004A0C0700B21A0000010043682E3905
S1130BB00000000000004A0C0800B21A0000010006
S1130BC043682E313000000000004A0C0900B21ABC
S1130BD00000010043682E313100000000004A0C7F
S1130BE00A00B21A0000010043682E3132000000EE
S1130BF000004A0C0B00B21A0000010043682E31B9
S1130C003300000000004A0C0C00B21A000001007E
S1130C1043682E313400000000004A0C0D00B21A63
S1130C200000010043682E313500000000004A0C2A
S1130C300E00B21A0000C10043682E3136000000D5
S1130C4000004A0C0F00B21A00008100536563745F
S1130C502E31000000009A0C0000BD1A00000100B3
S1130C60536563742E32000000009A0C0100BD1A13
S1130C7000000100536563742E33000000009A0CD9
S1130C800200BD1A0000C100536563742E340000D5
S1130C9000009A0C0300BD1A000087904D616E7528
S1130CA0616C0000000000004C080000000004908B
S1130CB04D69644E6F746500000000004D0800002B
S1130CC00000068052616E676500000000000000AD
S1130CD04E0800000000C4904D616E4E6F746500B4
S1130CE0000000004F080000000081085461737484
S1130CF065310000000070040000361B5F2D010800
S1130D005461737465320000000070040100361BE6
S1130D105F2D010854617374653300000000700492
S1130D200200361B5F2DC1085461737465340000E2
S1130D30000070040300361B5F2D81204D616E2E70
S1130D4033000000000000000000EA1B0000012046
S1130D504D616E2E32000000000000000100EA1B0D
S1130D60000001204D616E2E3100000000000000E3
S1130D700200EA1B0000C120506564616C000000A1
S1130D80000000000300EA1B0000831049494900E9
S1130D9000000000000000004C09000000000310E7
S1130DA04949000000000000000000004E09000056
S1130DB000000310490000000000000000000000D3
S1130DC05009000000000310500000000000000063
S1130DD0000000005209000000000310494949289E
S1130DE0696E7429000000004D0900000000031022
S1130DF0494928696E742900000000004F09000069
S1130E00000003104928696E7429000000000000E6
S1130E10510900000000C3105028696E74290000B5
S1130E200000000053090000000081004D6F64754C
S1130E306C6500000000F60F0000000000000100D7
S1130E40526567697374657200008E0E00000000BD
S1130E504D1B0100555342000000000000006613C2
S1130E600000000000000100506F77657200000070
S1130E700000BA0F000000000000C1004545707278
S1130E806F6D000000007E0F000000000000810074
S1130E90536563742E31000000002E0F0000211BE7
S1130EA000000100536563742E32000000002E0F11
S1130EB00100211B00000100536563742E33000000
S1130EC000002E0F0200211B000001005365637413
S1130ED02E34000000002E0F0300211B000001002F
S1130EE0536563742E35000000002E0F0400211B8F
S1130EF000000100536563742E36000000002E0FBD
S1130F000500211B00000100536563742E370000A7
S1130F1000002E0F0600211B0000C10053656374FE
S1130F202E38000000002E0F0700211B00008280D5
S1130F30437572736F72000000000000000200002D
S1130F40000002804368617200000000000000009D
S1130F500102000000000D805265674265670000D1
S1130F6000000000020200000000CD8052656745C9
S1130F706E64000000000000030200000000810015
S1130F804545536176650000000000000000B4216F
S1130F900000010045454261636B7570000000006C
S1130FA000009C210000C1004545526573746F72B6
S1130FB0650000000000A82100008100506F7765E3
S1130FC0724F6E00000000000000232E000001009C
S1130FD0506F7765724F66660000000000002C2E8B
S1130FE00000C100502E52657374617274000000D9
S1130FF00000342E00008A004D6F64526561640065
S11310000000000078030000261D0A004D6F64579D
S1131010726974650000000079030000261D0A0847
S11310204D6F644F4B000000000000006B02000095
S1131030000001004D6F64546573740000005A1081
S1131040000000000000C1004D6F644173736967C4
S11310506E004A11000000001C1D81004D6F642EBB
S1131060300000000000FA100000A71A0000010080
S11310704D6F642E310000000000FA100100A71A21
S1131080000001004D6F642E320000000000FA10D1
S11310900200A71A000001004D6F642E3300000007
S11310A00000FA100300A71A000001004D6F642E1F
S11310B0340000000000FA100400A71A0000010028
S11310C04D6F642E350000000000FA100500A71AC9
S11310D0000001004D6F642E360000000000FA107D
S11310E00600A71A0000C1004D6F642E37000000EF
S11310F00000FA100700A71A00008100526561641D
S113110000000000000000000000A41B00000B0011
S1131110577269746500000000000000D1053E1A92
S11311207A1A0100546573745074726E00000000E2
S11311300000BA290000C1004C6F6F705473740032
S1131140000000000000D81B000081004D616E2EDD
S11311503300000000004E120000DB1A0000010002
S11311604D616E2E3200000000004E120100DB1AA9
S1131170000001004D616E2E3100000000004E128F
S11311800200DB1A00000100506564616C0000007D
S113119000004E120300DB1A0000C10052656769AB
S11311A0737465720000AE11040000000000810039
S11311B0536563742E31000000009E1200000B1B67
S11311C000000100536563742E32000000009E127B
S11311D001000B1B00000100536563742E330000F3
S11311E000009E1202000B1B000001005365637493
S11311F02E34000000009E1203000B1B00000100AF
S1131200536563742E35000000009E1204000B1B0E
S113121000000100536563742E36000000009E1226
S113122005000B1B00000100536563742E3700009A
S113123000009E1206000B1B0000C100536563747E
S11312402E38000000009E1207000B1B00008100D6
S1131250536563742E3100000000DA120000E61AB0
S113126000000100536563742E3200000000DA129E
S11312700100E61A00000100536563742E33000078
S11312800000DA120200E61A0000C100536563741C
S11312902E3400000000DA120300E61A00008D80EC
S11312A05265674265670000000000001B080000EB
S11312B000000D80526567456E6400000000000068
S11312C01C0800000000C5804D6F64756C652F42DA
S11312D0697400001D080000000084904E6F74655E
S11312E042656700000000005809000000000490F7
S11312F04E6F7465456E64000000000059090000DB
S11313000000C5804D6F64756C652F4269740000E0
S11313105A090000000081204C6F670000000000A3
S11313200000000000001328000001005553420093
S113133000000000000066130000000000000240EE
S11313404D4944492D496E000000000000009727D4
S11313500000C2404D4944492D4F757400000000FF
S11313600000D527000089004576656E744C6F67D0
S11313700000000076160000501D010053656E64E5
S11313804C6F67000000000000002A1D0000C1002F
S1131390536E644857436667000000000000641DF4
S11313A0000056302E37370001000200020103000E
S11313B0030103020001000201020003010302030E
S11313C03100300054657874800045786974007E7B
S11313D0617573007E65696E0045696E80002D003D
S11313E02B007F007E00090008001B1B1B1B1B1B1E
S11313F01B001B1B1818181818001B1B03030303DE
S113140003001B1B0000000000001818181818180F
S11314101800181800000000000004040404150E4D
S11314200400040E1504040404000D0A0000112431
S11314301FBECFEFD1E2DEBFCDBF00E00CBF12E094
S1131440A0E0B2E0E6E2FEE700E00BBF02C00790D6
S11314500D92A832B107D9F729E1A8E2B2E001C0A0
S11314601D92A534B207E1F70E9405170C94113FB1
S11314700C940000FC018FEF9FEF1CC0DF0111965C
S113148020818227282F22952827022E269526950B
S11314902025022E269520252770082E892F269593
S11314A007942795902D82270694279590258227C7
S11314B0BA01FD01AB0141505109672BF9F60895BA
S11314C0EF92FF920F931F93CF93DF93CFEFDFEF52
S11314D021C07C012FEFE21AF20A0E94DF3E9E0136
S11314E02827822F82958227082E86958695802527
S11314F0082E869580258770022E232F86950794C3
S11315008795302D28270694879530252827E901CB
S1131510B801C7018B0101501109672BD1F6CE0127
S1131520DF91CF911F910F91FF90EF900895FC01EF
S1131530CA011CC0DF01119620818227282F229521
S11315402827022E269526952025022E269520252D
S11315502770082E892F269507942795902D82278A
S11315600694279590258227BA01FD01AB014150CD
S11315705109672BF9F60895EF92FF920F931F9389
S1131580CF93DF93EA0121C07C012FEFE21AF20A24
S11315900E94DF3EAE014827842F82958427082EBF
S11315A0869586958025082E869580258770042E3D
S11315B0452F869507948795502D4827069487953F
S11315C050254827EA01B801C7018B0101501109D0
S11315D0672BD1F6CE01DF91CF911F910F91FF9030
S11315E0EF900895CF93DF9382E390E00E94E73E6B
S11315F0EC0160E370E082E090E062DFC817D90795
S113160081F481E090E00E94DF3E8D3451F440E3A8
S113161050E062E070E088E599E00E94CF3E80E00F
S113162006C0809128028160809328028FEFDF91A9
S1131630CF910895CF93DF9385E391E00E94E73E35
S1131640EC0160E071E085E390E03ADFC817D90768
S113165081F484E390E00E94DF3E893451F440E059
S113166051E065E370E08CE498E00E94CF3E80E0B6
S113167006C0809128028260809328028FEFDF9158
S1131680CF910895CF93DF9383E491E00E94E73EE6
S1131690EC016BE070E088E391E012DFC817D90732
S11316A0C1F487E391E00E94DF3E8F3491F448E077
S11316B050E068E371E08CE499E00E94CF3E43E09F
S11316C050E060E471E084E599E00E94CF3E80E060
S11316D006C0809128028460809328028FEFDF91F6
S11316E0CF910895CF93DF9388E491E00E94E73E81
S11316F0EC0161E070E086E491E0E2DEC817D9070E
S1131700A1F485E491E00E94DF3E893671F486E419
S113171091E00E94DF3EC8E7D3E0888387E491E04C
S11317200E94DF3E898380E006C0809128028860A1
S1131730809328028FEFDF91CF910895CF93DF93A9
S113174087EF93E00E94E73EEC0162E070E085EFF2
S113175093E0B6DEC817D90781F484EF93E00E94C2
S1131760DF3E843551F442E050E065EF73E08AE4F3
S113177098E00E94CF3E80E006C0809128028260FB
S1131780809328028FEFDF91CF910895CF93DF9359
S11317908CE491E00E94E73EEC0161E070E08BE4B0
S11317A091E08EDEC817D90771F48AE491E00E94B3
S11317B0DF3E853541F48BE491E00E94DF3E809367
S11317C0761680E006C08091280288608093280203
S11317D08FEFDF91CF910895CF93DF9361E070E0B5
S11317E08FE491E06DDEAC0168E170E080E591E0AA
S11317F0C3DEEC0188E691E00E94E73EC817D907F2
S1131800B1F48EE491E00E94DF3E823581F48FE4EE
S113181091E00E94DF3E8093340848E150E060E5A7
S113182071E08BE198E00E94CF3E80E006C0809199
S113183028028062809328028FEFDF91CF91089570
S1131840CF93DF938BEE93E00E94E73EEC0160E8D8
S113185072E08BE691E034DEC817D90781F48AE69A
S113186091E00E94DF3E803551F440E852E06BE69F
S113187071E088E899E00E94CF3E80E006C0809144
S113188028028064809328028FEFDF91CF9108951E
S1131890CF93DF9382EF93E00E94E73EEC0164E094
S11318A070E08EEE93E00CDEC817D90751F444E0E3
S11318B050E06EEE73E087ED95E00E94CF3E80E04D
S11318C006C0809128028068809328028FEFDF9100
S11318D0CF910895CF93DF938AE194E00E94E73E8D
S11318E0EC0160E270E08AEF93E0EADDC817D90703
S11318F051F440E250E06AEF73E080E092E00E942D
S1131900CF3E80E006C08091280280628093280246
S11319108FEFDF91CF91089560E080E090E00E9426
S1131920FB3E65E68CE194E00C94FB3E0895CF9376
S1131930DF9360E370E088E599E09CDDEC010E94B0
S1131940F93D6DE481E090E00E94FB3E40E350E00D
S113195062E070E088E599E00E94EC3EBE0182E31B
S113196090E00E940D3FD8DF0E94073EDF91CF91A7
S11319700895CF93DF9360E071E08CE498E07ADD22
S1131980EC010E94F93D69E484E390E00E94FB3E8F
S113199040E051E065E370E08CE498E00E94EC3EA6
S11319A0BE0185E391E00E940D3FB6DF0E94073E31
S11319B0DF91CF910895CF93DF9368E070E08CE4DA
S11319C099E058DDAC0163E070E084E599E0AFDDB7
S11319D0EC010E94F93D6FE487E391E00E94FB3E35
S11319E048E050E068E371E08CE499E00E94EC3E4A
S11319F043E050E060E471E084E599E00E94EC3E4D
S1131A00BE0183E491E00E940D3F86DF0E94073E01
S1131A10DF91CF9108950F931F93CF93DF9361E0EC
S1131A2070E088E793E026DD8C010E94F93D69E6C9
S1131A3085E491E00E94FB3EC8E7D3E0688186E438
S1131A4091E00E94FB3E698187E491E00E94FB3EA5
S1131A50B80188E491E00E940D3F5EDF0E94073EDA
S1131A60DF91CF911F910F910895CF93DF9361E0A0
S1131A7070E086E796E1FEDCEC010E94F93D65E545
S1131A808AE491E00E94FB3E609176168BE491E03B
S1131A900E94FB3EBE018CE491E00E940D3F3CDFBE
S1131AA00E94073EDF91CF910895CF93DF9362E0C8
S1131AB070E08AE498E0DEDCEC010E94F93D64E524
S1131AC084EF93E00E94FB3E42E050E065EF73E058
S1131AD08AE498E00E94EC3EBE0187EF93E00E9406
S1131AE00D3F1ADF0E94073EDF91CF910895CF93F7
S1131AF0DF9361E070E084E398E0BCDCAC0168E172
S1131B0070E08BE198E013DDEC010E94F93D62E5A1
S1131B108EE491E00E94FB3E609134088FE491E0F2
S1131B200E94FB3E48E150E060E571E08BE198E003
S1131B300E94EC3EBE0188E691E00E940D3FECDE7F
S1131B400E94073EDF91CF910895CF93DF9360E821
S1131B5072E088E899E08EDCEC010E94F93D60E5D2
S1131B608AE691E00E94FB3E40E852E06BE671E0B9
S1131B7088E899E00E94EC3EBE018BEE93E00E945F
S1131B800D3FCADE0E94073EDF91CF910895CF93A7
S1131B90DF9364E070E087ED95E06CDCEC010E947B
S1131BA0F93D6BE48DEE93E00E94FB3E44E050E08F
S1131BB06EEE73E087ED95E00E94EC3EBE0182EF8D
S1131BC093E00E940D3FA8DE0E94073EDF91CF9173
S1131BD00895CF93DF9360E270E080E092E04ADC06
S1131BE0EC010E94F93D62E789EF93E00E94FB3E1D
S1131BF040E250E06AEF73E080E092E00E94EC3E45
S1131C00BE018AE194E00E940D3F86DE0E94073EF9
S1131C10DF91CF9108958BDEACDECDDEFCDE25DFD7
S1131C2066DF93DFB4DF41DFD4CF0895CF92DF9234
S1131C30EF92FF920F931F93CF93DF93EB0111C0A9
S1131C407C012FEFE21AF20A0E94DF3E6E019FEF41
S1131C50C91AD90A682FCE010E94FB3EA801E601E9
S1131C60C7018A0101501109452B51F7DF91CF912A
S1131C701F910F91FF90EF90DF90CF9008950E94F5
S1131C80F93D40E058E060E078E080E090E0CEDFAD
S1131C900C94073E08950E94F93D40E058E060E04E
S1131CA070E080E098E0C2DF0C94073E089580E085
S1131CB00AC0E82FF0E0EE0FFF1FE05BFD4F9FEF3F
S1131CC0908311828F5F8A30A0F3E4E6F2E0108201
S1131CD01182128213828FEF80937A03089582E037
S1131CE084BD93E095BD80936E0089EF87BD85B177
S1131CF08F7785B984B1806884B9089587E8809323
S1131D007A0010927B008FE780937C0081E08093BF
S1131D107E0010927F00ECE6F3E010828FEF818367
S1131D2082838093290280E010C0853039F4E82F43
S1131D30F0E0EE58FC4F96E0908306C0E82FF0E008
S1131D40EE58FC4F9AE090838F5F863070F30895CD
S1131D508FEF88B987B982B911B884B3876084BB1F
S1131D6083B3876083BB8BB18F778BB98AB180686B
S1131D708AB980E00EC0E82FF0E0EE0FFF1FEE0FEF
S1131D80FF1FEE0FFF1FE459FD4F9FEF91839083D8
S1131D908F5F803280F31092690210926802089576
S1131DA0A1DC8F3F59F440E050E060E081E00E9404
S1131DB0EF16E8E7F3E08FEF808381838BB18F77B1
S1131DC08BB984B3876084BB84B38B7F84BB85E089
S1131DD08A95F1F7000084B3846084BB90E284B3F5
S1131DE0816084BB90FD02C085E501C08AEA88B9A0
S1131DF080B180936B0380936A038093690380931B
S1131E006803809367038093660384B38E7F84BBE7
S1131E1085E08A95F1F70000915009F790E20FC030
S1131E2084B3816084BB82E08A95F1F700C084B3F7
S1131E308E7F84BB82E08A95F1F700C091509111A6
S1131E40EFCF8FEF80936B0290E284B3816084BB09
S1131E508FEF88B920B190FD02C08AEA01C085E500
S1131E60822720916B02822380936B0284B38E7F3E
S1131E7084BB85E08A95F1F70000915031F70000AA
S1131E80000084B3816084BB84B3876084BB84B363
S1131E908B7F84BB82E08A95F1F700C084B38460B1
S1131EA084BB90E2E4E6F3E08381828384818383CC
S1131EB084B3816084BB8FEF818388B985818483F7
S1131EC08681858380B186838283838384838583AB
S1131ED0878384B38E7F84BB3897915029F70000A1
S1131EE0000084B3816084BB84B38D7F84BB18B845
S1131EF085E08A95F1F7000084B3826084BB08957D
S1131F00883008F06AC031E001C0330F8A95EAF7DF
S1131F1080E8809369028BB18F778BB984B3876033
S1131F2084BB40E01DC020FD03C0832F809501C009
S1131F308FEF88B9269582E08A95F1F700C084B3C3
S1131F408E7F84BB82E08A95F1F700C084B3816000
S1131F5084BB9F5F02C090E025EA983020F34F5F76
S1131F604430C8F390E00FC082E08A95F1F700C0D6
S1131F7084B38E7F84BB82E08A95F1F700C084B37A
S1131F80816084BB9F5F903278F390E040E050E042
S1131F90BA0117C0440F551F661F771F82E08A9548
S1131FA0F1F700C084B38E7F84BB80B1832309F032
S1131FB0416082E08A95F1F700C084B3816084BBFC
S1131FC09F5F903238F3109269028BB180688BB9AD
S1131FD0342F252F862F972F04C030E020E080E097
S1131FE090E0632F722F089590E0ECE6F2E080E039
S1131FF006C02FEF21832681822B38969F5F903273
S1132000C0F390917803892390916B0289230895FA
S1132010109269028091690281FFFCCF10926902DB
S11320208091690281FFFCCF089581E0809368026A
S11320309FB7F89406C0E0E5F2E088E28283138259
S113204080E08111F8CF9FBF0895809168028130AC
S113205031F5CADF811114C085B1806485B982E18C
S1132060809368029FB7F89481E006C0E0E5F2E04F
S113207081E08283138280E08111F8CF9FBF0895AD
S11320809FB7F89481E007C0E0E5F2E08CE082833A
S113209082E0838380E08111F7CF9FBF089582316E
S11320A0B1F4A2DF811104C084E1809368020BC003
S11320B0482F50E060E085E092D685B18F7B85B9EA
S11320C080E8809368028FEF8093520208958FEF27
S11320D080935202089590E00DC0943050F4E92F9B
S11320E0F0E0811102C02AE001C026E0EE58FC4F66
S11320F020839F5F963088F308951F920F920FB646
S11321000F9211240BB60F92EF92FF920F931F932D
S11321102F933F934F935F936F937F938F939F93EB
S1132120AF93BF93CF93DF93EF93FF9385B1806811
S113213085B980916A028F5F80936A0283708130CF
S113214009F458C138F0823009F4A5C1833009F488
S1132150CAC105C28091290281111AC190917A00E5
S113216096FD16C1282F30E0F901EE0FFF1FE20F94
S1132170F31FEE0FFF1FE459FC4F9181409179004A
S11321804183491710F4941B03C0542F591B952FF6
S1132190943008F0FDC081110EC0423270F04F330C
S11321A070F0483670F0463970F04F3B70F0483E9E
S11321B070F4C6E00DC0CFEF0BC0C4E009C0C3E0AB
S11321C007C0C5E005C0C1E003C0C2E001C0CFEF55
S11321D0F901EE0FFF1FE20FF31FEE0FFF1FE4598B
S11321E0FC4FD281DC1709F448C0DF3F19F0CF3F20
S11321F009F0CFEFF901EE0FFF1FE20FF31FEE0F0F
S1132200FF1FE459FC4FC283DF3FF9F4C901880F73
S1132210991FFC01E20FF31FEE0FFF1FE459FC4F5F
S113222015821482FC01E20FF31FEE0FFF1FE45925
S1132230FC4F1382EC2FF0E0EF58FC4F808180FFBD
S1132240A7C08C2F0E94502EA3C0ED2FF0E0EF58B2
S1132250FC4F808181FF9CC0F901EE0FFF1FE20F4C
S1132260F31FEE0FFF1FE459FC4F8381837009F0C5
S11322708FC08D2F0E94502E8BC0CF3F09F488C091
S1132280F901EE0FFF1FDF01A20FB31FAA0FBB1F3F
S1132290A459BC4F14968D919C911597019615964F
S11322A09C938E931497FD01848195818B349105C1
S11322B0A9F4ED2FF0E0EF58FC4F808182FF0EC0AF
S11322C08C2F80680E94502EE091290286E0E89FBE
S11322D0F0011124E459FC4F82E08383ED2FF0E0F8
S11322E0EF58FC4F808183FF53C08091290290E016
S11322F0FC01EE0FFF1FE80FF91FEE0FFF1FE4595B
S1132300FC4F238121111EC0FC01EE0FFF1FE80FBB
S1132310F91FEE0FFF1FE459FC4F2481358122334E
S11323203105B1F526E0289FF001299FF00D112415
S1132330E459FC4F81E08383158214828C2F0E9420
S1132340502E26C0FC01EE0FFF1FE80FF91FEE0F01
S1132350FF1FE459FC4F23812130D1F426E0289F4C
S1132360F001299FF00D1124E459FC4F248135819B
S11323702C30310569F426E0289FF001299FF00DE7
S11323801124E459FC4F158214828C2F0E94502E84
S1132390809129028F5F80932902843010F010927B
S11323A029028091290281110CC090E0FC01EE0FFA
S11323B0FF1FE80FF91FEE0FFF1FE459FC4F808148
S11323C001C08FE1982F9F71906690937C00EBE79A
S11323D0F0E02081807290E095958795959587959A
S11323E0922F9F7D892B8083EAE7F0E080818064CF
S11323F08083B5C080916902803809F4B0C084B389
S1132400876084BB84B38B7F84BB20917903209540
S1132410E2E0EA95F1F700C084B3846084BB90E203
S1132420E4E6F3E0838182838481838384B38160DF
S113243084BB8181822B88B985818483868185834D
S113244080B1868384B38E7F84BB3897915051F7D3
S11324500000000084B3816084BB84B38D7F84BB9F
S11324608091690282608093690218B88BB1806898
S11324708BB984B3826084BB72C0808181508E3FEB
S113248038F421812F5F253010F0808320E02183F0
S113249032969F5F03C090E0E0E5F2E09A3068F383
S11324A0E4E6F2E080818F5F80838A3F09F057C0C1
S11324B08FEF80937A03108281818F5F81838C33C5
S11324C008F44DC0118282818F5F82838C3308F4BB
S11324D046C0128283818F5F8383843608F43FC0B1
S11324E0109267023CC0809169028038C1F1E0908B
S11324F0780380916B02E822F12C0CE612E02CC0E8
S1132500F801C28183819C2F9823C82B848198234E
S1132510C82B25819223C22B86819823C82BD7816F
S1132520CD23C92BC7838D2F80958C238E2121F039
S11325309F2D90620E94902EC095CD238C2F8E21CA
S113254019F09F2D0E94902E085F1F4F8091690201
S1132550816080936902F394FFE1FF1588F685B1E9
S11325608F7785B9FF91EF91DF91CF91BF91AF91B3
S11325709F918F917F916F915F914F913F912F9197
S11325801F910F91FF90EF900F900BBE0F900FBE15
S11325900F901F901895E82FF0E0EE0FFF1FEE0F3D
S11325A0FF1FEE0FFF1FE459FD4F609581816823E3
S11325B061830895E82FF0E0EE0FFF1FEE0FFF1F79
S11325C0EE0FFF1FE459FD4F8181682B618308954D
S11325D08FEF82B985B988B98BB98EB981BB84BBB9
S11325E080930201809305018093080180930B017D
S11325F08AB180688AB98BB18F778BB984B18064D2
S113260084B985B18F7B85B984B1806384B9089519
S1132610882334F4E2E0F1E090819061908305C076
S1132620E2E0F1E090819F7E908386FF06C0E2E0C5
S1132630F1E090819860908305C0E2E0F1E0908140
S1132640977F908385FF04C09EB198609EB903C0B4
S11326509EB1977F9EB984FF04C084B3806284BB1B
S113266003C084B38F7D84BBE2E0F1E080818064A9
S1132670808385E08A95F1F7000080818F7B8083D9
S113268085E08A95F1F700000895CF93DF93D82F62
S1132690C5B1C07385B18F7C806185B9E2E0F1E09A
S11326A080818062808380818F7B80838D2FB0DFE7
S11326B08D2F8295807FACDF8FEF90E00197F1F74B
S11326C000C0000085B18073C82BC5B9DF91CF91DC
S11326D00895CF93DF93D82FC5B1C07385B18F7C94
S11326E0806185B9E2E0F1E080818F7D8083808123
S11326F08F7B80838D2F8CDF8D2F8295807F88DF69
S1132700D150D23038F48FE097E20197F1F700C04E
S1132710000006C08FEF90E00197F1F700C00000C1
S113272085B18073C82BC5B9DF91CF910895CF933C
S1132730C5B1C07385B18F7C806185B91092CC031B
S1132740E1E0F1E080818061808380818860808322
S11327508DB188608DB983B3806283BB80818064CE
S113276080838081806280832FEF81EE94E021500A
S113277080409040E1F700C00000E2E0F1E0808199
S11327808F7D808380818F7B808380E341DF8FE135
S11327909EE40197F1F700C0000080E339DF8FE188
S11327A09EE40197F1F700C0000080E331DF8FE180
S11327B09EE40197F1F700C0000088E229DF8FEF63
S11327C090E00197F1F700C0000088E282DF88E022
S11327D080DF81E07EDF86E07CDF8CE07ADF85B11C
S11327E08073C82BC5B9CF9108958093CB038058CB
S11327F070CF08951092CB0381E06BDF80E0EBE7AC
S1132800F3E004C090E290838F5F31968035D0F37B
S11328100895843198F090EC980F943110F48C5210
S113282008959CEE980F943110F48C5E08959CEA00
S1132830980F943110F4885108958FEF0895CF9331
S1132840DF93D82F8091CC03882331F08091CB0380
S1132850803410F0843510F08D2F17DFC091CB0336
S11328608C2FD7DF8F3F29F1D13A79F0D03879F026
S1132870D53A79F0DA3279F0D23E79F0D53F79F071
S1132880DF3E79F0D13E81F40EC0D0E20DC0D0E23B
S11328900BC0D4E109C0D5E107C0D3E105C0D2E142
S11328A003C0D1E101C0D0E1E82FF0E0E558FC4FCE
S11328B0D083CF5FCF77C093CB03DF91CF910895BF
S11328C0CF93DF93FC01892B19F407C0B8DFFE0115
S11328D0EF01219680818111F9CFDF91CF91089585
S11328E0CF93DF93FC01892B19F407C0A8DFFE0105
S11328F0EF01219684918111F9CFDF91CF91089551
S1132900FF920F931F93CF93DF938C01F090CB032F
S11329100E94B03ED82F80E468DFC0E003C080E2AC
S1132920B4DECF5F2C2F30E084E190E08D1B910961
S1132930959587952817390794F304C00F5F1F4FA7
S1132940A4DECF5FF80180818111F8CF03C080E25B
S11329509CDEC12F11E01C0FC431C8F38F2D45DF5D
S11329608FEF8093CC039FB7F89481E006C0E0E535
S1132970F2E084E68687178680E08111F8CF9FBF56
S1132980DF91CF911F910F91FF900895FF920F93C4
S11329901F93CF93DF938C01D091CB030E94A63E6B
S11329A0F82E80E422DFC0E003C080E26EDECF5F59
S11329B02C2F30E084E190E08F199109959587954B
S11329C02817390794F306C00F5F1F4FFC01849149
S11329D05CDECF5FC801F80124912111F5CF03C05B
S11329E080E253DEC12F11E01C0FC431C8F38D2FD8
S11329F0FCDE8FEF8093CC039FB7F89481E006C090
S1132A00E0E5F2E084E68687178680E08111F8CF5E
S1132A109FBFDF91CF911F910F91FF9008950F9366
S1132A201F93CF93DF930091CB0380E4F2DEC82F92
S1132A3080E4DBDED0E022C011E01C0FEC2FF0E0DC
S1132A40E558FC4F8081843159F0853159F0833148
S1132A5059F0823159F0813159F0803161F40AC062
S1132A6085EA09C08AE207C082EE05C085EF03C08B
S1132A708FEE01C081EE09DEDF5FC12FD431E0F2B9
S1132A80802FB3DE1092CC03DF91CF911F910F9171
S1132A90089586EF93E09093890580938805909339
S1132AA08705809386050895809186059091870512
S1132AB020918805309189058217930748F0821B7D
S1132AC0930B959587959DEC899F802D11240895EE
S1132AD080579E4F821B930B959587959DEC899FFC
S1132AE0802D11240895CF93C82FDEDFC817F8F482
S1132AF040918805509189058C2F90E09C01220F0C
S1132B00331F880F991F880F991F880F991F280F4B
S1132B10391FCA01820F931F65E08C37960749F06D
S1132B2040F020593140CA01820F931F02C080E057
S1132B3090E0CF910895D7DF0097F1F1FC01368141
S1132B40678120E034C0422F50E0FA01EE0FFF1FEE
S1132B50CF01880F991F880F991F880F991FE80FBD
S1132B60F91FE659FE4F8491381320C0FA01EE0F85
S1132B70FF1FCF01880F991F880F991F880F991F76
S1132B80E80FF91FE559FE4F849168130FC0440FF5
S1132B90551FCA01880F991F880F991F880F991F05
S1132BA0480F591FCA0184599E4F08952F5F203141
S1132BB050F280E090E0089580E090E00895CF9393
S1132BC073DF1092CD03811114C017C08C2F8BDFDB
S1132BD0009761F0FC012481203251F095818C2F03
S1132BE0953439F48FEF8093CD0307C08C2F01C047
S1132BF08C2FCFEFC80F8111E9CFCF9108951F9388
S1132C00CF93DF93009709F47BC0162FEC018B81DF
S1132C10882379F06EEC73E00E94F33BBC016F5F94
S1132C207F4F28E6FC0120838A810E94F33BDC016C
S1132C302FC08A81882379F06EEC73E00E94F33B05
S1132C40BC016F5F7F4F2DE6FC01208389810E94C8
S1132C50F33BDC011DC06EEC73E089810E94F33B01
S1132C60FC0183E780839881990F20E002C0995189
S1132C702F5F9931E0F7205D2183990F20E002C096
S1132C8095502F5F9530E0F7DF011396205D228386
S1132C909C81903451F0903819F0903281F40AC03C
S1132CA0FD0131968AE28C930EC0FD01319685EACE
S1132CB08C9309C0FD01319680E28C9304C0FD0120
S1132CC031968FE38C93BF016F5F7F4F8D8180833B
S1132CD08E810E94363CBC018F810E94363CBC012F
S1132CE06F5F7F4F2DE2FC012083888599850E94C8
S1132CF0713CFC0110821F3F41F01C8360DF05C062
S1132D00EEECF3E08DE2808311828EEC93E0DF91B0
S1132D10CF911F910895E0918605F0918705A4E66F
S1132D20B2E09C919083E0918605F091870511961D
S1132D309C9111979183E0918605F09187051296F5
S1132D409C911297928313969C91938325838683F7
S1132D5067835187408780E88483809176168F3F0C
S1132D6081F484E691E00E9451396FEF80918605E9
S1132D709091870544DF0E94A5398AE294E10E947C
S1132D80513980918605909187050A96909387051D
S1132D90809386058C57954039F030F086EF93E0A8
S1132DA09093870580938605209186053091870549
S1132DB080918805909189052817390779F40A9636
S1132DC090938905809388058C57954039F030F0AD
S1132DD086EF93E09093890580938805089525E410
S1132DE09ADF8FEF8093CD030895CF93C62F7BDEB8
S1132DF0009719F06C2F03DF06C0EEECF3E08DE2D0
S1132E0080831182CF01CF910895E2DB85B18F7C5D
S1132E1085B93FDE0E9467390E94492E0E946F0ED9
S1132E200E94570E0E947E0E0E94A80E0E94A83790
S1132E300E94D00E0E94DF320E941F330E94DB2EBC
S1132E400E94542F0E9425320E94B0330E94EA2C23
S1132E500E940B0E1092E6056ADC0E947C3BCADCE1
S1132E6083E4C3DC85EA92E03BDD8BE1BEDC82EAED
S1132E7093E136DD78942FEF47E98AE3215040400F
S1132E808040E1F700C000000E943A3AB3DCCDD89C
S1132E908FEF8093170880938B058EEF80938A05BC
S1132EA0DFEF85B18F7C85B92091221430912314F2
S1132EB080911D1490911E142817390709F466C0D7
S1132EC00E94A43AC82F80938A050E945B388FE73A
S1132ED08C0F863028F480E88C0F0E94502E56C048
S1132EE0C03909F053C080911514803909F04EC0DF
S1132EF091E0E92F092E000CFF0BEB5EFB4E808165
S1132F008D3319F09F5F9830A4F398300CF03EC0D5
S1132F10892F859520E006C0E22FF0E0E159F94EB3
S1132F2010822F5F2330C0F32CC0E92F092E000C30
S1132F30FF0BEB5EFB4E308120ED230F2A3010F0A7
S1132F4027ED230FA22FAF70EFE6F6E1628120E1B7
S1132F50629FB00111244181242F22952F70622B8E
S1132F60628320E1429FA00111242081322F3295F7
S1132F703F70432B418340E1249F900111242A2B6D
S1132F802083915019168CF20E9475360E947D2E72
S1132F90882309F450C085B1806385B90E94642EEA
S1132FA0C82F8638B1F40E947E370E944E350E94A5
S1132FB0BD310E94D12E6DDD1092651510926E16F2
S1132FC085B1806485B983E1809368028AE892E0E0
S1132FD0DDDC80918B058F3FF9F48C2F8F73C53026
S1132FE069F460E070E080E090E00E94C0210E94FB
S1132FF0922A10928B0580E06ED81DC09FEF980F27
S11330009430C8F40E94AE2D6C2F0E94C32D80937F
S11330108B050E946F2D0FC08091E605811106C0BB
S11330208C2F0E94992A80938B0505C08DEF809385
S1133030CA050E94D12880918B058F3F69F4DF3F38
S113304061F40E94DE290E946F2D8FEF44D88FEF28
S113305080933308D0E001C0DFEF85B18F7C85B960
S113306080915E02811104C0DADC8FEF80935E02EE
S113307080915C0281110AC08091E605882319F0D1
S11330800E94D12803C08FEF80935C02809152028A
S113309081111BC00E9425100E940F2E80918B0568
S11330A08F3F99F4C091CB0384E19FDB8091680248
S11330B0813021F483E992E013DC05C0823119F4F4
S11330C084E10E94C93D8C2F90DB80918A059FE7A3
S11330D0980F963010F08E3F09F58091FF188F3FBE
S11330E031F48091CB0395DB0E946E3A03C08FE7E5
S11330F00E946E3A81E80E946E3AC0E0EBE7F3E08A
S113310008C08F010F5F1F4F80810E946E3ACF5F0E
S1133110F801C035B0F380E80E946E3A8FEF8093D7
S11331208A050E948C370E945835C091CB03809148
S11331305802882329F0809158028F3F09F067C014
S113314080911A088F3F09F062C0809123028F3F5B
S113315091F180E04ADB809121028F3F69F48091F4
S113316022020E94A63D8FE36ADB809123020E9423
S1133170553D80E264DB0CC0809123020E94553DE2
S11331808EE75DDB809121020E94B73D80E257DB30
S11331908C2F2BDB8FEF809323029FB7F89481E071
S11331A006C0E0E5F2E083E28087118680E08111C9
S11331B0F8CF9FBF2CC0809120028F3FD9F080E0D0
S11331C014DB80E73CDB809120020E94D93B8EE730
S11331D036DB8FEF809320029FB7F89481E006C01E
S11331E0E0E5F2E083E28087118680E08111F8CF88
S11331F09FBF0DC080915802811109C0F6DA86E0A4
S11332000E94C93D8C2FF1DA8FEF80935802809190
S11332105A028F3F21F080915A0281115BC0809144
S113322025028F3FF9F08FE0E0DA809124020E94BA
S1133230B73D8EE704DB809125020E94553D8C2F1B
S1133240D4DA8FEF809325029FB7F89481E006C00B
S1133250E0E5F2E088E28287138680E08111F8CF0E
S11332609FBF38C0809157098F3F31F18FE0BDDA9D
S113327082E5E5DA809157098F770E94D93B8091E6
S11332805709882314F088E001C089E0D8DA80E285
S1133290D6DA8C2FAADA8FEF809357099FB7F89468
S11332A081E006C0E0E5F2E088E28287138680E0F0
S11332B08111F8CF9FBF0EC080915A0281110AC0BC
S11332C08FE093DA85E00E94C93D8C2F8EDA8FEF70
S11332D080935A0280918B058F3F51F5809133087A
S11332E08F3F21F080916202811122C01092330835
S11332F09FB7F89481E006C0E0E5F2E084E1828BB8
S1133300138A80E08111F8CF9FBF6FDA0E940432E4
S113331080911A088F3F51F080912A020E9428322E
S113332080912A02809580932A0202C00E94B632BC
S113333080917A038F3F09F07EC010927A03F09057
S1133340CB03C091FF18CF3F11F40E94F33D80914D
S11333506702882359F08091650280FD0EC00F2E0C
S1133360FAE3EF2EF02D07E612E00CC00F2EFAE37D
S1133370EF2EF02D06E612E005C06894EE24E5F881
S113338007E612E087E031DAF80180810E94D93B38
S11333908E2D55DAF801319780810E94D93B4091F6
S11333A07316442331F050E060E083E018DD10929E
S11333B0731640917A16442331F050E061E083E0C3
S11333C00EDD10927A168091680284FF02C080E2BA
S11333D001C089E034DA8091CD038F3F11F485E494
S11333E001C080E22CDA8F2D00DACF3F11F40E9465
S11333F0EC3D809158028F3F69F49FB7F89481E0C7
S113340006C0E0E5F2E08DE78087118680E0811157
S1133410F8CF9FBF80915A028F3F69F49FB7F89409
S113342081E006C0E0E5F2E08DE78287138680E064
S11334308111F8CF9FBF809118088F3F39F4109203
S1133440180840E050E060E084E0C9DC85B18F7C7E
S1133450806285B99091681680917716981721F04B
S11334600E94A4380E94E1350E94C72E8F3F09F0C4
S113347018CD0E94B22E0E94A63613CD1092D1050B
S11334801092D2051092D3051092D40581E090E0F9
S113349000909C0502C0880F991F0A94E2F7482FF8
S11334A030E0E4E6F3E022C08091D1059091D205AA
S11334B0A091D305B091D405880F991FAA1FBB1FF3
S11334C08093D1059093D205A093D305B093D405EE
S11334D02181242349F081608093D1059093D20502
S11334E0A093D305B093D40538973F5F3032E0F210
S11334F080E008954091D1055091D2056091D305A3
S11335007091D405853009F5A1E0B0E000909C05E8
S113351002C0AA0FBB1F0A94E2F73A2F90E0E4E638
S1133520F3E011C0772324F48181832B818305C0C8
S113353021818A2F809582238183440F551F661F22
S1133540771F38979F5F903268F380E00895E09189
S1133550CD05F091CE053E968591959180939C057D
S113356080E00895E091CD05F091CE053E968591D9
S113357095918093CB0580E00895E091CD05F0917D
S1133580CE053E96259135912093DB058091CB05A0
S11335908F7090E02370880F991F880F991F820FF6
S11335A0911D880F991F880F991F9093D6058093BA
S11335B0D50580E00895E091CD05F091CE053E96C5
S11335C08591959180939B0580E00895E091CD05C8
S11335D0F091CE053E96859195918093DB052091DF
S11335E09B052F7030E0837090E0A901440F551FB4
S11335F0240F351F220F331F220F331FAC01440F3A
S1133600551F840F951F820F931F9093D6058093A7
S1133610D50580E00895E091CD05F091CE053E9664
S1133620859195918093DB05877090E09C01220F32
S1133630331F820F931F9093D6058093D50580E0A6
S11336400895E091CD05F091CE053E968591959132
S11336508093DB05877090E0880F991F880F991F6E
S11336609093D6058093D50580E00895E091CD052B
S1133670F091CE053E9685919591843060F4FC01DD
S1133680FF27EE0FFF1FE252FA4F80819181909342
S1133690F2058093F10580E008950E94E90D80E031
S11336A008950E94550D80E008951F93CF93DF93F2
S11336B08630F1F0E091CD05F091CE053E9605906F
S11336C0F491E02DCF0181599540880F880F880F20
S11336D0D081C0E00BC011E0180F6D2F661F662764
S11336E0661F0E94A830DD0FCF5F812FC83098F38A
S11336F080E0DF91CF911F91089581110E94BD3127
S113370080E00895E091CD05F091CE053E96859137
S1133710959185539840FC01FF27EB5CF74F20817E
S113372021110E94E22E80E00895863039F08091C4
S1133730CC05803418F46FEF0E94CC3180E00895FA
S11337400E94C70D80E00895CF92DF92EF92FF921E
S113375081E090E000909C0502C0880F991F0A94B4
S1133760E2F7282F90E0E4E6F3E0C12CD12C7601B7
S11337700BC0CC0CDD1CEE1CFF1C8681822311F0D7
S11337806894C0F838979F5F903298F38EE12DD8F3
S1133790C0920119D0920219E0920319F09204190F
S11337A00E94B43B80E0FF90EF90DF90CF900895AB
S11337B08EE11BD880919C050E94800F60930119B3
S11337C07093021980930319909304190E94B43BD7
S11337D080E00895CF938F3F09F078C080932F0243
S11337E010922E02E091CD05F091CE053E96859182
S11337F0959180939B05843010F010929B0520E0F6
S113380039C080919B0590E0E22FF0E0DF01AA0F20
S1133810BB1FAD014E0F5F1FDC01AA0FBB1FA80F1A
S1133820B91FAA0FBB1FAA0FBB1FA40FB51FA85A0D
S1133830B64F3C9140912F02341710F430932F026D
S1133840AF01440F551FE40FF51FAC01440F551F82
S1133850840F951F880F991F880F991FE80FF91F70
S1133860E85AF64F818190912E02981710F48093B4
S11338702E022F5F243028F280912F02882354F4E3
S11338808EE10E94F51380EA93E02AD88FEF8093AB
S1133890C30504C08093C30510922D026AEC73E142
S11338A080E00E94153E69ED73E181E00E94153EBF
S11338B06EED73E182E00E94153E60EE73E183E0F9
S11338C00E94153E0E94643ECFEF71C06091C30513
S11338D06F3F09F461C08130D9F480912E026817DA
S11338E008F05CC040E080919B050E9454346091D4
S11338F0C3056F5F6093C30580912D02813009F089
S11339004FC041E080919B050E945434CFEF4FC0DB
S11339108430D1F480912F02861708F043C040E030
S113392080919B050E9454346091C305615060935B
S1133930C30580912D028130B9F541E080919B054A
S11339400E945434CFEF33C0833091F480912D0220
S1133950811104C081E080932D0202C010922D02D7
S113396040912D0280919B050E945434CFEF1FC0DB
S1133970823011F0863039F440E080919B050E943A
S11339805434C0E014C0853089F440E080919B0534
S11339900E945434C0E00BC0C0E009C0CFEF07C0A0
S11339A0CFEF05C0CFEF03C0CFEF01C0CFEFCF3FC4
S11339B0A1F58091C3058F3F69F18EE10E94F51353
S11339C08091C3050E94553D80E20E941F1480919E
S11339D02D0281110AC081E60E941F1485E70E940E
S11339E01F1483E70E941F1409C085E60E941F1458
S11339F089E60E941F148EE60E941F1461E08091E4
S1133A002D02811101C060E081E00E94833E81119A
S1133A100E94643E8EE10E94F5138C2FCF9108958D
S1133A200E94DB0C80E008950E94DB0C80E0089586
S1133A300E94B90C80E008950E94970C0E943A2FCE
S1133A400E94770D0E94593380E008950E940B0D67
S1133A5080E00895CF9383E893E00E94513924D8FD
S1133A60811117C089E893E00E94513916C06FEFA5
S1133A708C2FBBD90E94A5398AE294E10E94513966
S1133A808C2F59D80E9451398AE294E10E9451390D
S1133A908C2FCFEFC80F8111EACF80E0CF9108952A
S1133AA00E94350D809176168F3F61F48AE693E08B
S1133AB00E94513982EA93E10E9451398AE294E1E9
S1133AC00E94513980E008959F92AF92BF92CF92A5
S1133AD0DF92EF92FF920F931F93CF93DF9381E5D1
S1133AE093E00E9451390E9463398EE393E00E946F
S1133AF05139C8E7D3E065E079E188810E94363C1A
S1133B0022E7FC012083BC016E5F7F4F20E221830A
S1133B1089810E94363C27E7FC01208385E099E1F6
S1133B200E94A5390E9463398CE293E00E945139C6
S1133B3065E079E180916B020E94363C85E099E171
S1133B400E94A5390E9463390E946339E12CD1C0D7
S1133B5083E293E00E94513965E079E18E2D0E9461
S1133B600E3D85E099E10E94A5390E946339F12C4C
S1133B70A4C08CE193E00E94513980E38F0D0E9430
S1133B805B388AE30E945B3880E20E945B380E2D2A
S1133B9010E0CF2CD12CE601CC0FDD1FCE018C0D13
S1133BA09D1DE801CC0FDD1FC00FD11FCC0FDD1F01
S1133BB0CC0FDD1FC80FD91FC85AD64F65E079E175
S1133BC088810E94363CBC016F5F7F4F0F2EFEE25E
S1133BD0BF2EF02DFC01B08289810E94363CBC01CD
S1133BE06F5F7F4FFC01B0828A810E94363CFC01EA
S1133BF080E280839DE39183828385E099E10E9442
S1133C00A539888188232CF48AE093E00E945139F5
S1133C1051C065E079E10E94B23CBC016F5F7F4F07
S1133C200F2EFDE29F2EF02DFC019082F601EE0F87
S1133C30FF1FCE0EDF1E5801AA0CBB1CE501C00FEE
S1133C40D11FCC0FDD1FCC0FDD1FCC0DDD1DC85ADD
S1133C50D64F89810E94B23C20E2FC01208311826C
S1133C6085E099E10E94A53982E093E00E945139F0
S1133C708A81829586958770805D0E945B388AEF81
S1133C8092E00E9451398A8165E079E18F710E9446
S1133C90F33BBC016F5F7F4FFC0190828A81998165
S1133CA028818F71890F821B0E94F33B85E099E183
S1133CB00E94A5390E946339F394F3E0FF1508F0DC
S1133CC058CF88ED92E00E945139EE2DF0E0EE0FCE
S1133CD0FF1FE45BF64F65E079E181810E944E3C71
S1133CE085E099E10E94A5390E9463390E946339F5
S1133CF0E39483E08E1508F02BCF80E193E00E94DB
S1133D005139F12C94C08CE193E00E94513980E345
S1133D108F0D0E945B388AE30E945B3880E20E9428
S1133D205B38CF2DD0E08E01000F111F0C0F1D1F2B
S1133D30055E174F65E079E1F80180810E94363C09
S1133D40BC016F5F7F4F0F2EFEE2EF2EF02DFC01C2
S1133D50E082F80181810E94363CBC016F5F7F4F95
S1133D60FC01E082F80182810E94363CFC0180E281
S1133D7080839DE391838283138285E099E10E948D
S1133D80A539F80180818F3F29F48AE093E00E94ED
S1133D9051394AC0E5E0F9E192E590839EE29183CE
S1133DA067E079E18F5F0E940F3CBC016F5F7F4F3A
S1133DB01DE2FC011083CE01880F991FC80FD91F83
S1133DC0C55ED74F89818F5F0E940F3C20E2FC01C2
S1133DD02083118285E099E10E94A53982E093E075
S1133DE00E9451398A81829586958770805D0E94F0
S1133DF05B388AEF92E00E9451398A8165E079E16B
S1133E008F710E94F33BBC016F5F7F4FFC011083F5
S1133E108A81998128818F71890F821B0E94F33BCB
S1133E2085E099E10E94A5390E946339F394F7E093
S1133E30FF1508F068CF0E9463398FEC92E00E946E
S1133E4051390E946339E12C90E064C0CE2DD0E05A
S1133E500F2D10E0FE01EE0FFF1FEE0FFF1FE00F0E
S1133E60F11FEE0FFF1FEE0FFF1FE45BF74F808182
S1133E708F3F09F447C065E079E18E2D0E944E3CE6
S1133E80BC016F5F7F4F0F2EF8E2DF2EF02DFC0197
S1133E90D082CC0FDD1FCC0FDD1FC00FD11FCC0F84
S1133EA0DD1FCC0FDD1FC45BD74F89810E94B23C5C
S1133EB0BC016F5F7F4F2DE2FC01208399818A81D1
S1133EC0890F0E94B23CFC0119E2108380E28183D5
S1133ED0BF016D5F7F4F8EE3828388810E940E3D18
S1133EE0BC016F5F7F4FFC01D0828B810E94B23C8A
S1133EF0FC011083118285E099E10E94A5390E949A
S1133F0063399FEFF39401C0F12CF3E0FF1508F03F
S1133F109DCFE3948FE08E15B8F7911106C084EB22
S1133F2092E00E9451390E9463390E94633985EC02
S1133F3092E00E9451390E946339C0E025C065E0D7
S1133F4079E18C2F0E940E3DDC01BC016F5F7F4F35
S1133F508AE38C93EC2FF0E0EE0FFF1FE45BF64F47
S1133F6080818F3F19F00E944E3C05C0CD0102961E
S1133F702DE211962C93FC01108285E099E10E94B8
S1133F80A5390E946339CF5FC430C8F20E946339F7
S1133F9089EB92E00E945139CAE4D8E065E079E106
S1133FA088810E944E3CBC016F5F7F4F2EE3FC0171
S1133FB0208389810E944E3CFC01108285E099E1B6
S1133FC00E94A5390E94633980E0DF91CF911F914F
S1133FD00F91FF90EF90DF90CF90BF90AF909F90A4
S1133FE008951F93CF93DF9310E009C0C12FD0E051
S1133FF0CF56DA4F88810E94BA3E88831F5F1830FB
S1134000A8F3DF91CF911F91089581E995E00E9473
S11340107C30E7DF80E008950E94BD3180E0F5DF69
S113402080E00895863031F08091CC05803410F41E
S11340300E94323180E0E9DF80E00895CF93C62FFB
S11340408823D9F0E62FF0E0DF01AB5CB74F8C9109
S1134050811108C0862F0E94E22E882371F00E94ED
S113406013350BC0DF01AB5CB74F1C92EE0FFF1F83
S1134070E855FC4E84910E941335EC2FF0E0EB5C84
S1134080F74F8081811102C082E801C081E8CF919D
S1134090089560E0D3CF089561E0D0CF089563E040
S11340A0CDCF089562E0CACF089564E0C7CF0895E4
S11340B065E0C4CF089566E0C1CF089567E0BECF40
S11340C0089569E0BBCF089568E0B8CF08956AE029
S11340D0B5CF08956BE0B2CF0895CF93C62F65E0B6
S11340E079E10E940F3CBC018EEC93E00E94273DD5
S11340F06C2F0E943D3D85E099E10E948014CF9190
S11341000895CF93882351F0C0911A08CF3F31F01E
S11341106FEF8C2F0E94CC316C2FDFDF80E0CF91CA
S113412008950F931F93CF93C82F85E099E10E94C0
S11341303D3DBC016F5F7F4F2EE7FC0120838C2F38
S11341400E940F3CBC0189EC93E00E94273D8C0146
S11341500E94081084E00E946830C82F882349F028
S1134160B80187EC93E00E94273DBC018C2F0E948C
S11341700F3C85E099E10E948014CF911F910F912B
S11341800895CF93803460F490914B089F3F41F0A1
S1134190C82F892F806C0E94D0388C2F0E94D03871
S11341A0CF910895CF93C62F88233CF46FEF8C2FC3
S11341B00E94CC316C2F91DF09C0882339F0862FFF
S11341C00E9432316C2FADDF8C2FDBDF8C2F0E94ED
S11341D00831882339F08C2F0E94CD30811104C01E
S11341E081E803C082E801C082E8CF91089560E0CD
S11341F0D9CF089561E0D6CF089562E0D3CF089572
S113420063E0D0CF089580911A08803430F4B9DF88
S113421080911A080E94323102C00E94BD318FEF92
S1134220809333080895882339F080911A08885FB1
S1134230887380931A08E7DF80E00895882339F0B3
S113424080911A088850887380931A08DCDF80E014
S1134250089580911A088F3F21F48FE380931A0800
S11342600895803420F4815080931A0808958F773C
S113427080931A080895882334F40E94BD318FEF87
S11342800E94283104C0882311F0E3DFBCDF80E002
S11342900895882369F04CF480911A088F3F39F00F
S11342A08850887380931A0802C08111D2DFABDF73
S11342B080E0089580911A088F3321F48FEF809362
S11342C01A0808958F3320F48F5F80931A08089595
S11342D08F3F19F410921A0808958F7780931A0863
S11342E00895CF9388235CF4C0911A08C03458F41D
S11342F06FEF8C2F0E94CC316C2FEFDE04C088232B
S113430011F0D8DF80DF80E0CF910895882369F031
S11343104CF480911A088F3F39F0885F887380933A
S11343201A0802C08111C6DF6EDF80E008958EEAAC
S113433093E00C94C61408958EE10E94F51381E96C
S113434093E00E9470140E943F0EF1DF80E0089514
S11343508EE10E94F51381E993E00E9470140E949B
S11343604B0EE5DF80E0089581E993E00E9470142C
S11343708EE10E94F5130E940B0ED9DF80E00895B0
S113438010928C05009769F486ED97E09093CE0522
S11343908093CD058FED93E09093C1058093C00584
S11343A008C09093CE058093CD057093C1056093AA
S11343B0C0058FEF80939A0589EE93E090939E0554
S11343C080939D05089562EE73E182E00C94153E9E
S11343D0089564EE73E183E00C94153E089566EE4F
S11343E073E181E00C94153E089564ED73E181E07E
S11343F00C94153E08956FEC73E181E00C94153E26
S1134400089568EE73E180E00C94153E0895809160
S113441099058A3011F08E3031F460EC73E180E05C
S11344200C94153E089560EE73E180E00C94153E03
S11344300895809199058A3011F08E3031F462EC40
S113444073E181E00C94153E08956EED73E181E013
S11344500C94153E0895CF93DF93E09199058E2F28
S113446090E0FC013297ED30F10508F0E4C08827B4
S1134470EE58FF4F8F4F0C94C73E8091DD05E8EE58
S1134480F5E0982F92959F7090838F708183D3C0AD
S11344908091DD05803120F08FEF8093E805CBC05B
S11344A08F5F8093E805C7C08091DD05882334F4CD
S11344B0E8EEF5E010828FEF8183BDC01092E9052C
S11344C008C0E8EEF5E091819F5F91838C50809362
S11344D0DD058091DD058C30A0F78093E805ABC045
S11344E08091DD05E8EEF5E0982F9295969597700A
S11344F090838F718093DD05118208C0E8EEF5E0AA
S113450091819F5F91838A508093DD058091DD05C1
S11345108A30A0F78093EA058EC0E8EEF5E01082B9
S1134520118208C0E8EEF5E090819F5F9083845685
S11345308093DD058091DD058436A0F708C0E8EEA0
S1134540F5E091819F5F91838A508093DD0580918E
S1134550DD058A30A0F78093EA056DC08091DD0502
S1134560843020F08FEF8093E80565C08093E805E0
S113457062C08091DD05843020F083E08093E805FB
S11345805AC08093E80557C08091DD058093E80503
S113459052C0E92FF0E08091DD05282F221F222749
S11345A0221FE851FA4F2083880F8093DD059F5F17
S11345B001C090E0983068F33EC08250F0E0DE0124
S11345C09D91E851FA4F9F709083E82FF0E0988115
S11345D0E851FA4F92959F709083ED0103C0C6ECA9
S11345E0D5E088E0EFEFE80F8111E7CF24C0809198
S11345F0DD05E8EEF5E0982F97709F5F9083869530
S1134600869586958F5F818316C08091DD058F5FC7
S11346108093DD051092E80508C0E8EEF5E090818E
S11346209F5F90838A508093DD058091DD058A30F9
S1134630A0F78093E905DF91CF9108950F931F931D
S1134640CF93DF93E09199058E2F90E0FC01329790
S1134650ED30F10508F03BC18827E158FF4F8F4F3B
S11346600C94C73E08EE15E0F80180810E94523B8D
S1134670C6E4D2E08883F80181810E94523B898399
S11346801A8225C1E6E4F2E083E4808388E681832C
S11346908091E8058F3F29F480E282838DE2838351
S11346A012C08A3048F0C6E4D2E091E39A838A507B
S11346B00E94523B8B8307C0C6E4D2E090E29A8307
S11346C00E94523B8B8310924A0201C18091E805FB
S11346D08F3F21F09091E9059F3F59F4E6E4F2E021
S11346E08EE680839FE69183828385E683831482AA
S11346F0EEC09FE5909347028B3021F488E48093C9
S1134700460220C0853058F4982F96959D5B90936F
S1134710460280FF17C083E28093470213C0282F0C
S113472030E025503109359527952A5B20934602C0
S113473080FD03C083E280934702283419F481E4A6
S1134740809346028091E905811104C08DE680932F
S113475048020BC08C3030F481500E94523B80934D
S1134760480203C08DE28093480210924902AFC010
S1134770C6E4D2E08DE4888308EE15E0F801808178
S11347800E94523B898382E48A83F80181810E94DA
S1134790523B8B83F80182810E94523B8C831D82A1
S11347A096C008EE15E0F80180810E94523BC6E4F1
S11347B0D2E08883F80181810E94523B8983F80109
S11347C082810E94523B8A831B8281C08091E805CA
S11347D0833038F4E6E4F2E093E3981B908311828B
S11347E076C0833031F4E6E4F2E080E58083118220
S11347F06EC0E6E4F2E08DE28083118268C08091AD
S1134800E805E6E4F2E0805D8083118260C0809177
S1134810E805811109C0E6E4F2E081E4808385E7DC
S1134820818383E7828308C0E6E4F2E085E4808341
S113483089E681838EE682831092490248C0C12FA3
S1134840D0E0FE01E851FA4F80810E94523BCA5BDE
S1134850DD4F88831F5F01C010E0183080F337C03C
S1134860822F90E0FC01E851FA4F3081311102C0EF
S11348703FE601C039E4FC01EA5BFD4F30832F5F62
S113488001C020E0283060F322C0A8EEB5E08C918E
S1134890E6E4F2E0805D808311968C91805C8183F4
S11348A0128215C0E8EEF5E090818181292F282B32
S11348B031F4E6E4F2E08DE28083818306C0E6E42D
S11348C0F2E0905D9083805D818310924802DF91D5
S11348D0CF911F910F9108950F931F93CF938EE162
S11348E00E94F513C0E006E412E00BC0F8018081D9
S11348F0882319F00F5F1F4F01C080E20E941F142C
S1134900CF5FCA3098F3CF911F910F9108958A30E9
S11349101CF488231CF0089580E0089589E008952C
S11349200F931F93CF93DF93C82FE091CD05F091A0
S1134930CE0531968491282F2071E09199058E2F10
S113494090E0FC013297ED30F10508F093C188271F
S1134950E457FF4F8F4F0C94C73ED0E0C851DA4F55
S11349608881680F6F70688385C121111BC0613015
S113497041F48091E805803120F081E08093E805DE
S113498079C16F3F49F48091E80582508F3020F05F
S113499080E18093E8056EC1E8EEF5E08081680F60
S11349A0608368C1613041F48091E805803121F46D
S11349B08FEF8093E8055EC1613041F48091E80592
S11349C08F3F21F481E08093E80554C16F3F41F4A7
S11349D08091E8058F3F21F480E18093E8054AC186
S11349E06F3F41F48091E805813021F48FEF80938B
S11349F0E80540C1E8EEF5E08081680F60833AC1C4
S1134A008091E9058F3F09F4C1E0C11116C080917E
S1134A10E8058C3050F48B3011F4613041F0811191
S1134A2002C06F3F31F0680F05C060E003C060E072
S1134A3001C06BE06093E8052BC021110AC081110D
S1134A4002C06F3FC1F08A3011F46130B1F0680FD9
S1134A501DC0811102C06F3F91F08A3011F46130A2
S1134A6081F08F3F11F4613071F08F3F11F46F3F8B
S1134A7061F0680F0BC06AE009C060E007C06FEF27
S1134A8005C06FEF03C060E001C06AE06093E90510
S1134A909091E8059F3F09F4EDC08091E9058F3FAF
S1134AA009F4E8C0282F220F820F282F220F220F8B
S1134AB0920F0AF0DFC0E8EEF5E087E080838AE039
S1134AC08183D8C0C11107C0E8EEF5E08081680F8A
S1134AD067706083CFC0D0E008EE15E0C851DA4FAC
S1134AE08881860F14DF8883F80181819281880F81
S1134AF0282F220F220F820F890F80322CF083E09F
S1134B00818381E08283B6C088230CF0B3C0E8EED1
S1134B10F5E011821282AEC0D0E008EE15E0C85173
S1134B20DA4F8881860FF3DE8883F8012081818142
S1134B3090E0AC01440F551F880F991F880F991FEF
S1134B40880F991F840F951FF4E62F9F800D911DE8
S1134B501124F8012281820F911D8F3F910509F0E4
S1134B600CF488C082E0808385E08183828382C0E4
S1134B702223A1F0D0E0FE01E851FA4F8081680FB2
S1134B806083643019F48FEF808374C06E3F09F042
S1134B9071C0C851DA4F83E088836CC0D0E0FE0155
S1134BA0E851FA4F8081811105C06F3F19F483E009
S1134BB0808360C0833031F4613021F4C851DA4F0E
S1134BC0188258C0C851DA4F680F688353C0D0E0C8
S1134BD0C851DA4F8881680F637068834BC0E8EE70
S1134BE0F5E080818095808345C0D0E081E061FD5F
S1134BF080E0C851DA4F88833DC0613041F4D0E091
S1134C00C851DA4F888187708F5F888333C0EC2F57
S1134C10F0E0E851FA4F8081825087708F5F808383
S1134C2029C0E8EEF5E090818181990F292F220FA8
S1134C30220F920F890FC11107C0660F962F990F8B
S1134C40990F690F680F01C0680F66231CF0613467
S1134C501CF403C060E001C060E01092E80506C0E7
S1134C60E8EEF5E080818F5F80836A506A30C4F794
S1134C706093E905DF91CF911F910F910895E09121
S1134C8099058E2F90E0FC013297ED30F10508F084
S1134C90DAC08827E756FF4F8F4F0C94C73EE8EEE3
S1134CA0F5E0808120E1829FC001112491819F70F1
S1134CB0892B8093DD0508959091E8058FEF890F86
S1134CC0803118F09093DD0508958093DD050895F3
S1134CD09091E8059F3F21F08091E9058F3F21F4F1
S1134CE08FEF8093DD050895282F220F820F880F00
S1134CF0880F890F8093DD050895E8EEF5E0808143
S1134D0030E2839FC001112421813281220F422F7E
S1134D10440F440F240F230F203220F08F6180931F
S1134D20DD050895822B8093DD050895E8EEF5E016
S1134D302081818190E0AC01440F551F880F991F99
S1134D40880F991F880F991F840F951F34E6239F9E
S1134D50800D911D11242281820F911D8F3F910599
S1134D6029F020F08FEF8093DD0508958093DD0511
S1134D7008958091E8058093DD05843008F463C0CC
S1134D808FEF8093DD0508958091E805837080930B
S1134D90DD0508958091E8058093DD05089510925E
S1134DA0DD0580E00CC09091DD05990FE82FF0E05F
S1134DB0E851FA4F2081920F9093DD058F5F883080
S1134DC090F308951092C6051092C7051092C80575
S1134DD01092C905A6ECB5E088E010C08250F0E05E
S1134DE0E851FA4F9081E82FF0E0E851FA4F208122
S1134DF030E1239F900D11249C931196EFEFE80F5F
S1134E008111ECCF0895E8EEF5E020819181892F9E
S1134E1090E00197880F991F880F991F880F991F99
S1134E209FEF920F892B8093DD050895E8EEF5E05E
S1134E3080819181880F282F220F220F820F890FE2
S1134E4081508093DD0508950F931F93CF93DF93D3
S1134E508C01D62FC0E00CC0F8018491882319F08E
S1134E600F5F1F4F02C08D2FD0E20E941F14CF5F2F
S1134E70CA3090F3DF91CF911F910F91089580E490
S1134E800E94F513E0918C05E11107C06AE380915B
S1134E90C0059091C105D8CF0895F0E03197EE0F89
S1134EA0FF1FE156FA4F808191816AE30296CCCFCD
S1134EB00895E091CD05F091CE0584918F7390E033
S1134EC002971CF0C8DABADB07CD0895E0919D057E
S1134ED0F0919E0580919A05E80FF11D3196849119
S1134EE0825E0E94F51320919A0530E0E0919D05C1
S1134EF0F0919E05849190E001972817390714F4E6
S1134F0068DA03C083E00E94503E80919A058823AA
S1134F1011F059DA03C082E00E94503E78DA89DA4F
S1134F200C94643E089584E10C94F51308950F9352
S1134F301F93CF93F8DF8BED93E00E947014809160
S1134F40FD189091FE180E944D3D8DE20E941F14A1
S1134F508091FD189091FE18049730F48091FD180B
S1134F609091FE18C82F01C0C4E00091681610E0AB
S1134F700C591B4E13C084E10536180710F0F801D4
S1134F8002C0E4E6F5E18F010150110980810E941D
S1134F909D3BC15019F080E20E941F14C111EBCF58
S1134FA080E0CF911F910F9108950F931F93CF939A
S1134FB0BADF86ED93E00E9470148091741690918C
S1134FC075160E944D3D8DE20E941F148091741647
S1134FD090917516049730F480917416909175161B
S1134FE0C82F01C0C4E00091131410E00B591A4EED
S1134FF013C085E10636180710F0F80102C0E5E693
S1135000F6E18F010150110980810E949D3BC1503E
S113501019F080E20E941F14C111EBCF80E0CF9100
S11350201F910F9108950F931F93CF938F3FA9F46E
S11350300E945415815080932C0210922B026AEC2A
S113504073E180E00E94153E64EC73E181E00E940C
S1135050153E0E94643ECFEF2FC0843049F4809106
S11350602C02882321F1815080932C02CFEF24C09D
S1135070813091F400912C0210E00F5F1F4F0E94C9
S1135080541590E008171907A4F480912C028F5F3F
S113509080932C02CFEF10C0833011F0853059F487
S11350A080912B02809580932B02CFEF05C0CFEF28
S11350B003C0CFEF01C0C0E0CF3F09F054C033DFDD
S11350C00E945415811106C089E993E00E9470146E
S11350D0C0E01DC080912C028F5F0E94D93B8AE3FF
S11350E00E941F1480912B02811108C060E28091FC
S11350F02C020E94F5160E94601406C080912C02B6
S11351000E949B150E9470140E94D53D0CDF61E043
S113511080912B028F3F09F060E081E00E94833E82
S113512000912C0210E00F5F1F4F0E94541590E075
S11351300817190734F464EE73E183E00E94153E06
S113514003C083E00E94503E80912C02882331F0FA
S113515062EE73E182E00E94153E03C082E00E9489
S1135160503E0E94643E8C2FCF911F910F91089561
S11351708AE40C94F513089588EB93E00E94C61416
S11351800E947E37F5DF80E00895CDDE8AE00C943E
S1135190C93D08958EE10E94F5138AE00C94C93D3F
S11351A008958091CA058F3F11F08D3F79F50E94D3
S11351B0F33DF0DF1092170890E0ECE6F2E007C050
S11351C021818091E605822B818338969F5F9032FE
S11351D0B8F38091CA058F3F19F41092CA055CC0D8
S11351E082EB93E00E94C6148EEF8093CA059FB7AA
S11351F0F89481E006C0E0E5F2E082E084878587E8
S113520080E08111F8CF9FBFB3DF46C08E3F41F4E9
S11352108FEF809317081092E6050E94EC3D3CC086
S113522040918D0550918E0560918F057091900588
S1135230769567955795479540938D0550938E05C0
S113524060938F0570939005E82FF0E0DF01AA0FBB
S1135250BB1FAA0FBB1FAA0FBB1FA459BD4F169695
S11352602C919091E605292349F4706840938D05AB
S113527050938E0560938F0570939005EE0FFF1F7A
S1135280EE0FFF1FEE0FFF1FE459FD4F2181922BFC
S113529091838F5F8093CA05E091CA05E03228F5B7
S11352A0F0E0EE0FFF1FEE0FFF1FEE0FFF1FE4599C
S11352B0FD4F8091E605982F909581818923818304
S11352C08EE10E94F5138091CA050E94D93B9FB7D5
S11352D0F89481E006C0E0E5F2E088E08487158672
S11352E080E08111F8CF9FBF0895E03209F041C0FA
S11352F080918D0590918E05A0918F05B0919005B8
S11353000097A105B10529F48EEA93E00E94C61422
S11353101FC08093011990930219A0930319B093AD
S1135320041965E079E18BEA93E00E94273DAC0122
S113533060918D0570918E0580918F0590919005F7
S11353400E948E3CFC01108285E099E10E94801449
S11353508EEF8093CA059FB7F89481E006C0E0E51C
S1135360F2E082E08487858780E08111F8CF9FBFD7
S1135370FFCE089581E090E000909C0502C0880F64
S1135380991F0A94E2F78093E6058FEF8093CA058C
S113539010928D0510928E0510928F051092900533
S11353A000DF80E0089580E40E94F5138AE00E9403
S11353B0C93DDEDE8AE00C94C93D0895F4DFEADEDF
S11353C0E4CE0895E091CD05F091CE0584918F73DC
S11353D0813011F404C808953E960590F491E02DAF
S11353E0309769F0893041F48081811103C00C94B5
S11353F0F521089500C808950C94EF21089581E0E3
S11354000C94503E0895CF9389E40E94F513E091E3
S1135410CD05F091CE05C491C07CC03839F480E24A
S11354200E941F1482E00E94503E05C08FE70E9434
S11354301F140E94E321C03C29F483E00E94503EE3
S1135440C0E203C00E94E921CEE70E940122BADF34
S11354508091CD059091CE056C2F0296F5DC0E94CB
S1135460643E86DECF9108958091CD059091CE055E
S1135470FC012491622F6F73623008F449C09C01CF
S1135480225F3F4FF901459155914115510509F4AA
S11354903FC0E62FF0E031979F01220F331F220F08
S11354A0331F220F331FE20FF31FE751FC4FF0931A
S11354B09E05E0939D0524912093C405FC0125914C
S11354C02F7320939905249122232CF42091D50540
S11354D03091D60502C020E030E0240F351FFC01D6
S11354E084918F738B3071F4F90180819181A28151
S11354F0B3818093C6059093C705A093C805B09364
S1135500C90504C0F90180818093DD05D2DC07C0A0
S113551041DE89EE93E090939E0580939D0552DFD2
S113552027CE089532DEA0DFAADC6DDF0C94EC3DBB
S11355300895CF93C82F0E94EC3DE091CD05F091E2
S1135540CE0584918F73813029F080919A058F3F25
S113555009F068C13196849186FF02C016DE08DE28
S11355606091CD057091CE05CB010196FC0184912B
S1135570982F907285FF1FC09B01205F3F4FF90158
S11355802591359121153105B1F040919A054F3F90
S113559091F08C2FF90119958F3F21F410929A05FF
S11355A080E004C2F2DDF6DDE3DD8FEF80939A053F
S11355B02ADF80E0FBC1C33009F464C028F4C130A1
S11355C051F0C23031F1DBC1C53009F45BC090F059
S11355D0C630F9F0D4C1FB018491807C803C09F48D
S11355E0D0C17496F093CE05E093CD053DDF0BDF7B
S11355F080E0DCC1FB018491807C803809F4C3C164
S11356007497F093CE05E093CD052EDFFCDE80E0A9
S1135610CDC184FF04C01092F2051092F105E0910F
S11356208C05EE23E9F0E150E0938C05F0E0EE0FF9
S1135630FF1FE156FA4F0190F081E02DF093CE0563
S1135640E093CD0572960590F491E02D309711F01A
S113565080E019959ADD13DCD6DE06DF80E0A6C172
S113566080E00E94503E81E00E94503E82E00E9411
S1135670503E83E00E94503E0E94643E0E94F33DEF
S11356808FEF94C1FB0124912F7330E02230310558
S11356900CF448C070960590F491E02D309719F001
S11356A08C2F1995E1DE2091CD053091CE05C901ED
S11356B00196FC01849183FD68C1C9010E96FC0129
S11356C085919591892B09F462C1F90184918F73B5
S11356D0893019F561E080E023D9D1DAE091CD0574
S11356E0F091CE053E960590F491E02D8091DD0574
S11356F08083DFDB67DE0E94643E3ADDE091CD0506
S1135700F091CE0572960590F491E02D309709F44E
S113571040C180E0199580E049C110929A05D6DB1A
S113572080E044C12FEF20939A0584FF26C0709334
S1135730F2056093F105E0918C05EE2309F42BC189
S1135740E150E0938C05F0E0EE0FFF1FE156FA4FB5
S11357500190F081E02DF093CE05E093CD05729693
S11357600590F491E02D309711F080E019950DDD4E
S113577086DB49DE79DE80E019C1FB017096059075
S1135780F491E02D309799F0992371F08FEF1995EA
S11357908F3F19F410929A050AC0F7DCFBDCE8DCB1
S11357A08FEF80939A0503C085E01995E1DC209181
S11357B0CD053091CE05C9010C96FC0185919591DA
S11357C0892B09F4EAC0A0918C05A03108F0E7C048
S11357D081E08A0F80938C05B0E0AA0FBB1FA1560D
S11357E0BA4F2D933C93C9010196FC01849183FF28
S11357F00BC08091F1059091F205009729F09093E8
S1135800CE058093CD0508C0F9013C96859195910C
S11358109093CE058093CD05B8DC31DBF4DD24DE36
S113582080E0C4C0C33009F449C028F4C13059F041
S1135830C23031F1B6C0C53009F45EC0C0F0C63024
S113584009F48AC0AEC0482F50E0E0919D05F09164
S11358509E05249130E021503109421753070CF082
S1135860A2C08F5F80939A0531DB80E09FC08823BC
S113587009F49BC0815080939A0528DB80E096C090
S113588061E04ED8FCD915DB809199058A3011F07E
S11358908E3089F420919A05422F50E0E0919D05C5
S11358A0F0919E05849190E00197481759071CF4E4
S11358B02F5F20939A050ADB80E078C06FEF30D821
S11358C0DED9F7DA809199058A3011F08E3089F4A7
S11358D020919A05422F50E0E0919D05F0919E059C
S11358E0849190E00197481759071CF42F5F209387
S11358F09A05ECDA80E05AC0C2D92091CD053091E6
S1135900CE05C9010E96FC01A591B591109721F120
S11359100D97FC01849188232CF48091D5059091F6
S1135920D60502C080E090E0A80FB91FF901849168
S11359308F738B3071F44091C6055091C705609107
S1135940C8057091C9054D935D936D937C9313972E
S113595003C08091DD058C93E091CD05F091CE05D7
S113596072960590F491E02D309711F08C2F1995D3
S11359708FEF80939A0547DD77DD80E017C080E0E4
S113598015C080E013C080E011C080E00FC080E04B
S11359900DC080E00BC080E009C080E007C080E05B
S11359A005C080E003C080E001C080E0CF9108958D
S11359B020E034E08037930749F034E080379307E0
S11359C038F044972F5FA9F780E00895822F089557
S11359D080E00895CF930E94480C8F3FC9F40FC014
S11359E0822F90E0FC01E952FA4F1082880F991F30
S11359F0FC01E252FA4F118210822F5F01C020E0B5
S1135A00243070F340E050E067E081E00E94EF163C
S1135A10C0E025C04C2F50E0FA01E952FA4F8081D2
S1135A208D3170F424E1829FC001112480599B4F71
S1135A30440F551FFA01E252FA4F918380830EC03E
S1135A40FA01EE0FFF1FE252FA4F118210824F5FEC
S1135A505F4F406167E081E00E94EF16CF5FC43082
S1135A60C8F2CF910895CF93DF93643028F500975F
S1135A70B9F0FC0124912F73213091F431962491D3
S1135A8024FF0EC0C62FD0E0FE01EE0FFF1FE2522E
S1135A90FA4F918380838CDFC952DA4F88830CC01C
S1135AA070E0FB01EE0FFF1FE252FA4F11821082E9
S1135AB0FB01E952FA4F1082DF91CF910895E091F2
S1135AC0CD05F091CE053E96659175918091F105D5
S1135AD09091F205C8DF0E94C70D80E008950F93EE
S1135AE01F93CF93C0E032C00C2F10E0F801EE0FEB
S1135AF0FF1FE252FA4F0190F081E02D309731F010
S1135B003E96659175916115710521F48C2F0E9463
S1135B10503E1BC08C2F0E94153E000F111FF80130
S1135B20E252FA4F0190F081E02D70960590F491C5
S1135B30E02D309751F080E01995813811F46FEF22
S1135B4001C060E08C2F0E94833ECF5FC43060F2BE
S1135B500E94643ECF911F910F910895823049F0C5
S1135B6018F4813051F00BC0833059F0843019F0AF
S1135B7006C080E0089582E0089583E008958FEFE1
S1135B80089581E008950F931F93CF938430D0F547
S1135B90E82FF0E0EE0FFF1FE252FA4F008111816F
S1135BA00115110589F1F80194919F73913071F5F4
S1135BB03196949194FF2CC0C82F3F960590F49190
S1135BC0E02D309789F0862F1995823829F460E00A
S1135BD08C2F0E94833E06C0813821F46FEF8C2FF6
S1135BE00E94833E0E94643EF8013C968591959103
S1135BF0009781F0B8016E5F7F4F0E94C02192DC54
S1135C0080E009C08FEF07C08FEF05C08FEF03C09E
S1135C108FEF01C08FEFCF911F910F910895CF9314
S1135C20C091CB038CE00E94F5138091680284FF3D
S1135C3002C080E201C089E00E941F148C2F0E94E0
S1135C40F513CF91089585B1806485B983E180937C
S1135C506802E5DF80E0089585B18F7B85B91092F5
S1135C606802DDDF80E0089585B18F7B85B981E02E
S1135C7080936802D4DF9FB7F89481E006C0E0E522
S1135C80F2E088E28283138280E08111F8CF9FBF23
S1135C9008951092F6071092F3051092F5070895EF
S1135CA09091F607E92FF0E0E950F84F80839F5F69
S1135CB09F718091F305981304C08FEF8093F507CB
S1135CC008959093F60708954FB7F89421E011C012
S1135CD09091F3053091F6078FEF20E0931749F088
S1135CE0E92FF0E0E950F84F80819F5F9F71909316
