:100000000C94FB080C941C090C941C090C941C09FE
:100010000C941C090C941C090C941C090C941C09CC
:100020000C941C090C941C090C941C090C941C09BC
:100030000C941C090C941C090C941C090C941C09AC
:100040000C941C090C941C090C941C090C941C099C
:100050000C941C090C942B0F0C941C090C941C0977
:100060000C941C090C94D0340C9416350C941C0977
:100070000C941C090C941C090C941C090C941C096C
:100080000C941C090C941C090C941C090C941C095C
:100090000C940D330C944D330C941C090C941C09D6
:1000A0000C941C090C941C090C941C090C941C093C
:1000B0000C941C090C941C090C941C090C941C092C
:1000C0000C941C090C941C090C941C090C941C091C
:1000D0000C941C090C941C090C94D6350C942E36E7
:1000E0000C941C094C1D571D631D7F1D9C1DBD1DBF
:1000F000C81DD31DE81DFE1D061E141EE81D411E51
:10010000511E751EC71EE01EF51E0E1F161F3B1F3B
:100110003B1F541F611F501FBC1FC41F0F207120A5
:100120009B20C720F620FE200421BC1F0C2120218B
:1001300004215E216B2177218C21A521C821D321A7
:10014000D921DE21F12112222522DE2145385A381B
:10015000483839384B384E383C3851383F385438A5
:10016000423857384C6F673A20000000496E697476
:1001700069616C69736174696F6E000001004545C7
:100180003A4D6F64756C65000000000000000101CD
:1001900045453A4D6964692D496E00000000000034
:1001A000010245453A4D6964692D4F7574000000A0
:1001B0000000010345453A4D616E2D4D6F64756C2D
:1001C00065000000010445453A5553420000000017
:1001D000000000000000010545453A52656769735B
:1001E0007465720000000000010645453A50726FC8
:1001F0006772616D730000000000010745453A53C6
:100200006F66746B65797300000000000108454556
:100210003A4D69646954687275000000000002007C
:100220004D6F643A4661696C0000000000000000F8
:1002300002014D6F643A556E6B6E6F77496E7000B8
:10024000000003004F56464C3A4D696469496E0000
:100250000000000003014F56464C3A4D6964694F57
:1002600075740000000004004F56464C3A50697007
:10027000654D73670000000005005077723A4F75B6
:10028000707475744F6E0000000054EF6E6520614D
:1002900075730054617374656E2F5265672E206C00
:1002A000EF73656E004D4944492D496E7465726661
:1002B00061636500646972656374204D4944492D2A
:1002C0004F757428696E742920666F72206D616E97
:1002D00075616C3A20002C20426974733A004D6FAE
:1002E00064756C653A00656D707479005265676974
:1002F000737465723A0D0A0052616E676520004D95
:10030000616E75616C3A20004D6F64756C65732089
:10031000636865636B65643A20004D6F64756C6556
:10032000732061737369676E65643A200048617277
:10033000647761726520436F6E6669677572617478
:10034000696F6E0D0A000D0A4D4944492D4F7267C1
:10035000616E2D496E746572666163650D0A004CAD
:100360006F670D0A00656D7074790D0A0073617610
:10037000652E2E2E003C6E6F6E653E00756E6173AD
:100380007369676E656400453A006F6B20006162B7
:100390006F7274004D494449204E6F74656E206140
:1003A0007573002B00205265672E67657365747A3C
:1003B0007400205265672E696E204B6F6D622E6748
:1003C0006573702E004F75743A00496E3A004D65A2
:1003D0006EF50000000000000000000000000000BA
:1003E0000002000100000000000001030000000006
:1003F00000000002000200000000000003010304EE
:1004000000000000000300010200000000000100E5
:1004100000000000000000010000000000000000DB
:1004200001000000000000000008000102030405B4
:100430000607080001020304050607020001000088
:1004400000000000020001000000000000080001A0
:100450000203040506070000000000000000008100
:10046000103C6E6F6E653E000000000000E9060063
:1004700000000001104D656E75000000000000F3E3
:1004800006DF060000000001105374696D6D656E93
:100490000000002F0CD5060000000001104B6F700B
:1004A00070656C323C33000000B706AB1C000001E5
:1004B000104B6F7070656C313C33000000AD06AEC0
:1004C0001C000001104B6F7070656C503C330000D5
:1004D00000A306B11C000001104B6F7070656C31F9
:1004E0003C320000009906B41C000001104B6F70F4
:1004F00070656C503C320000008F06B71C00000194
:10050000104B6F7070656C503C310000008506BA6E
:100510001C000001104B6F7070656C333C320000A2
:10052000007B06BD1C000001104B6F7070656C33C2
:100530003C310000007106C01C000001104B6F70C0
:1005400070656C333C500000006706C31C0000015E
:10055000104B6F7070656C323C310000005D06C658
:100560001C000001104B6F7070656C323C50000035
:10057000005306C91C000001104B6F7070656C3190
:100580003C500000004906CC1C000001104B6F6D70
:1005900062696E2031410000003F0612290000010F
:1005A000104B6F6D62696E203241000000350615F8
:1005B00029000001104B6F6D62696E20334100000D
:1005C000002B061829000001104B6F6D62696E2028
:1005D000344100000021061B29000001105265670C
:1005E0002E61757300000000001706B218000001AC
:1005F000104D494449204F666600000000C1061BAB
:10060000270000C110536574757000000000001FC2
:100610000DCB0600000000526567090000000000D5
:10062000004B6234418000000000004B6233418087
:1006300000000000004B6232418000000000004BCF
:10064000623141800000000000313C508000000019
:10065000000000323C5080000000000000323C31BD
:1006600080000000000000333C50800000000000CB
:1006700000333C3180000000000000333C32800039
:100680000000000000503C318000000000000050DD
:100690003C3280000000000000313C32800000004D
:1006A000000000503C3380000000000000313C336B
:1006B00080000000000000323C3380000000000099
:1006C000004D4F6666000000000000536574750021
:1006D00000000000005374696D0000000000004D30
:1006E000656E7500000000000000000000000000C2
:1006F00000000081004D616E75616C000000006BB0
:10070000070000000000000100526567697374650E
:1007100072000093070000671C000001004D49446F
:10072000490000000000005F090000000000000117
:100730000054617374656E00000000DF0B00000060
:1007400000D5180100537461747573000000000730
:1007500011000000000000C10053657475700000B6
:100760000000001F0D00000000000081004B6F70B2
:1007700070656C000000006F08000000000000C100
:10078000005374696D6D656E0000002F0C00000051
:100790000000008C004B6F6D622E6C61642E0000B7
:1007A00000A8050000741C0C004B6F6D622E737066
:1007B0002E00000000A8050000CA18010061757332
:1007C00000000000000000000000006E1C00000E91
:1007D000005265672E312D3800000000006D0500C5
:1007E000008A180E005265672E392D313600000040
:1007F000006E0500008A180E005265672E31372DF5
:1008000032340000006F0500008A180E0052656740
:100810002E32352D3332000000700500008A180E8C
:10082000005265672E33332D34300000007105000F
:10083000008A180E005265672E34312D34380000BE
:1008400000720500008A180E005265672E34392D9B
:100850003534000000730500008A18CA005265672D
:100860002E35352D3634000000740500008A1889B5
:1008700000323C330000000000000000000F0800C0
:1008800000B7180900313C330000000000000000F0
:100890000010080000B7180900313C3200000000C9
:1008A000000000000011080000B7180900503C3398
:1008B00000000000000000000012080000B7180946
:1008C00000503C320000000000000000001308004F
:1008D00000B7180900503C31000000000000000083
:1008E0000014080000B7180900333C320000000073
:1008F000000000000015080000B7180900333C3163
:1009000000000000000000000016080000B71809F1
:1009100000333C50000000000000000000170800F9
:1009200000B7180900323C31000000000000000050
:100930000018080000B7180900323C500000000001
:10094000000000000019080000B718C900313C5031
:100950000000000000000000001A080000B7188125
:10096000004E6F7465734F66660000000000001B48
:1009700027000001004D494449696E00000000FF56
:100980000900000000431A01004D4944496F757485
:100990000000007F0C000000003F1A031054687232
:1009A000752D496E00000000002408000086180321
:1009B00010546872752D4F757400000000250800F2
:1009C000008618090041636365707420504300007D
:1009D00000300900003B1A09004163742E53656E14
:1009E00073650000002E0900003B1AC90056656CB3
:1009F00030344F6666000000002F0900003B1A816A
:100A00000043682E310000000000003F0B00000092
:100A1000180000010043682E320000000000003F73
:100A20000B010000180000010043682E3300000095
:100A30000000003F0B020000180000010043682E78
:100A4000340000000000003F0B030000180000010C
:100A50000043682E350000000000003F0B0400003A
:100A6000180000010043682E360000000000003F1F
:100A70000B050000180000010043682E370000003D
:100A80000000003F0B060000180000010043682E24
:100A9000380000000000003F0B07000018000001B4
:100AA0000043682E390000000000003F0B080000E2
:100AB000180000010043682E313000000000003FA4
:100AC0000B090000180000010043682E31310000BE
:100AD0000000003F0B0A0000180000010043682ED0
:100AE000313200000000003F0B0B00001800000135
:100AF0000043682E313300000000003F0B0C000063
:100B0000180000010043682E313400000000003F4F
:100B10000B0D0000180000010043682E3135000065
:100B20000000003F0B0E0000180000C10043682EBB
:100B3000313600000000003F0B0F0000180000815C
:100B400000536563742E31000000008F0B00000B12
:100B50001800000100536563742E32000000008FFE
:100B60000B01000B1800000100536563742E330065
:100B70000000008F0B02000B180000C100536563DA
:100B8000742E34000000008F0B03000B1800008748
:100B9000904D616E75616C00000000000026080039
:100BA00000000004904D69644E6F74650000000001
:100BB00000270800000000068052616E6765000093
:100BC0000000000000280800000000C4904D616E85
:100BD0004E6F7465000000000029080000000081CD
:100BE00008546173746531000000005F0400006FF9
:100BF00018A5290108546173746532000000005F74
:100C00000401006F18A5290108546173746533004D
:100C10000000005F0402006F18A529C10854617329
:100C2000746534000000005F0403006F18A529817B
:100C3000204D616E2E330000000000000000001FF8
:100C400019000001204D616E2E32000000000000EE
:100C50000001001F19000001204D616E2E310000BF
:100C6000000000000002001F190000C12050656450
:100C7000616C0000000000000003001F19000083E9
:100C8000104949490000000000000000002609004A
:100C900000000003104949000000000000000000AF
:100CA00000280900000000031049000000000000B7
:100CB00000000000002A090000000003105000009E
:100CC0000000000000000000002C090000000003EC
:100CD0001049494928696E7429000000002709005D
:100CE0000000000310494928696E742900000000C3
:100CF0000029090000000003104928696E742900CA
:100D000000000000002B0900000000C310502869FB
:100D10006E74290000000000002D09000000008111
:100D2000004D6F64756C6500000000E70D00000069
:100D30000000000100555342000000000000005771
:100D4000110000000000000100506F776572000084
:100D5000000000AB0D000000000000C10045457020
:100D6000726F6D000000006F0D0000000000008138
:100D70000045455361766500000000000000002E2C
:100D8000280000010045454261636B75700000005A
:100D900000000016280000C1004545526573746FBD
:100DA00072650000000000222800008100506F776B
:100DB00065724F6E00000000000000692A0000010B
:100DC00000506F7765724F66660000000000007289
:100DD0002A0000C100502E526573746172740000C5
:100DE0000000007A2A00008A004D6F645265616439
:100DF000000000000055030000511A0A004D6F6406
:100E000057726974650000000056030000511A0A09
:100E1000084D6F644F4B00000000000000480200C6
:100E200000000001004D6F64546573740000004BB6
:100E30000E000000000000C1004D6F644173736933
:100E4000676E003B0F00000000471A81004D6F6481
:100E50002E300000000000EB0E0000F5170000012E
:100E6000004D6F642E310000000000EB0E0100F514
:100E700017000001004D6F642E320000000000EBEF
:100E80000E0200F517000001004D6F642E330000C4
:100E9000000000EB0E0300F517000001004D6F6429
:100EA0002E340000000000EB0E0400F517000001D6
:100EB000004D6F642E350000000000EB0E0500F5BC
:100EC00017000001004D6F642E360000000000EB9B
:100ED0000E0600F5170000C1004D6F642E370000AC
:100EE000000000EB0E0700F517000081005265615D
:100EF0006400000000000000000000D91800000B92
:100F000000577269746500000000000000AD058C98
:100F100017C8170100546573745074726E00000096
:100F2000000000F9270000C1004C6F6F705473740B
:100F3000000000000000000D19000081004D616EEE
:100F40002E3300000000003F1000002918000001AF
:100F5000004D616E2E3200000000003F100100299C
:100F600018000001004D616E2E3100000000003FAE
:100F7000100200291800000100506564616C000037
:100F80000000003F10030029180000C100526567EF
:100F9000697374657200009F0F04000000000081F7
:100FA00000536563742E31000000008F100000595B
:100FB0001800000100536563742E32000000008F9A
:100FC000100100591800000100536563742E3300AE
:100FD0000000008F100200591800000100536563E3
:100FE000742E34000000008F100300591800000117
:100FF00000536563742E35000000008F1004005903
:101000001800000100536563742E36000000008F45
:10101000100500591800000100536563742E370055
:101020000000008F10060059180000C100536563CE
:10103000742E38000000008F10070059180000813E
:1010400000536563742E3100000000CB10000034A3
:101050001800000100536563742E3200000000CBBD
:10106000100100341800000100536563742E330032
:10107000000000CB10020034180000C1005365636B
:10108000742E3400000000CB100300341800008DD3
:1010900080526567426567000000000000F60700A7
:1010A0000000000D80526567456E6400000000007E
:1010B00000F70700000000C5804D6F64756C652F58
:1010C0004269740000F8070000000084904E6F74BD
:1010D000654265670000000000320900000000045E
:1010E000904E6F7465456E64000000000033090087
:1010F000000000C5804D6F64756C652F42697400F7
:101100000034090000000081204C6F6700000000DF
:10111000000000000000002223000001005553429F
:101120000000000000000057110000000000000255
:10113000404D4944492D496E00000000000000A6C2
:10114000220000C2404D4944492D4F7574000000F3
:10115000000000E4220000890041637469766500A4
:1011600000000000006E1500007B1A010053656E40
:10117000644C6F6700000000000000551A0000C1B9
:1011800000536E6448574366670000000000008FFC
:101190001A000056302E363700010002000201030B
:1011A0000003010302000100020102000301030227
:1011B000033100300054657874800045786974000C
:1011C0007E617573007E65696E0045696E80002DD5
:1011D000002B007F007E000900080000000E0E0EAC
:1011E0000E000004040404150E0400040E1504048B
:1011F0000404000D0A0011241FBECFEFD1E2DEBFB0
:10120000CDBF00E00CBF12E0A0E0B2E0EEEBF3E7F0
:1012100000E00BBF02C007900D92A830B107D9F7CC
:1012200028E1A8E0B2E001C01D92A532B207E1F7C3
:101230000E94B8140C94DD390C940000FC018FEF6F
:101240009FEF1CC0DF01119620818227282F229555
:101250002827022E269526952025022E2695202524
:101260002770082E892F269507942795902D822781
:101270000694279590258227BA01FD01AB014150C4
:101280005109672BF9F60895EF92FF920F931F9380
:10129000CF93DF93CFEFDFEF21C07C012FEFE21A76
:1012A000F20A0E94AB399E012827822F829582275D
:1012B000082E869586958025082E86958025877030
:1012C000022E232F869507948795302D2827069484
:1012D000879530252827E901B801C7018B01015006
:1012E0001109672BD1F6CE01DF91CF911F910F919C
:1012F000FF90EF900895FC01CA011CC0DF01119618
:1013000020818227282F22952827022E2695269590
:101310002025022E269520252770082E892F269518
:1013200007942795902D822706942795902582274C
:10133000BA01FD01AB0141505109672BF9F608953F
:10134000EF92FF920F931F93CF93DF93EA0121C097
:101350007C012FEFE21AF20A0E94AB39AE01482756
:10136000842F82958427082E869586958025082EC1
:10137000869580258770042E452F8695079487953E
:10138000502D48270694879550254827EA01B80133
:10139000C7018B0101501109672BD1F6CE01DF91F6
:1013A000CF911F910F91FF90EF900895CF93DF930E
:1013B00082E390E00E94B339EC0160E370E082E0E8
:1013C00090E062DFC817D90781F481E090E00E94C5
:1013D000AB398D3451F440E350E062E070E082E3D9
:1013E00099E00E949B3980E006C0809108028160EC
:1013F000809308028FEFDF91CF910895CF93DF9311
:1014000085E391E00E94B339EC0160E071E085E38F
:1014100090E03ADFC817D90781F484E390E00E9496
:10142000AB39893451F440E051E065E370E086E285
:1014300098E00E949B3980E006C08091080282609B
:10144000809308028FEFDF91CF910895CF93DF93C0
:1014500083E491E00E94B339EC016BE070E088E333
:1014600091E012DFC817D907C1F487E391E00E9429
:10147000AB398F3491F448E050E068E371E086E2E4
:1014800099E00E949B3943E050E060E471E08EE215
:1014900099E00E949B3980E006C080910802846038
:1014A000809308028FEFDF91CF910895CF93DF9360
:1014B00088E491E00E94B339EC0161E070E086E4D9
:1014C00091E0E2DEC817D907A1F485E491E00E941B
:1014D000AB39893671F486E491E00E94AB39C5E5F9
:1014E000D3E0888387E491E00E94AB39898380E070
:1014F00006C0809108028860809308028FEFDF9118
:10150000CF910895CF93DF9387EF93E00E94B33993
:10151000EC0162E070E085EF93E0B6DEC817D90712
:1015200081F484EF93E00E94AB39843551F442E0BA
:1015300050E065EF73E084E298E00E949B3980E020
:1015400006C0809108028260809308028FEFDF91CD
:10155000CF910895CF93DF938CE491E00E94B3394B
:10156000EC0161E070E08BE491E08EDEC817D907F2
:1015700071F48AE491E00E94AB39853541F48BE443
:1015800091E00E94AB3980936E1580E006C0809197
:1015900008028860809308028FEFDF91CF91089551
:1015A000CF93DF9361E070E08FE491E06DDEAC01FA
:1015B00068E170E080E591E0C3DEEC0188E691E04F
:1015C0000E94B339C817D907B1F48EE491E00E94A4
:1015D000AB39823581F48FE491E00E94AB3980937E
:1015E0000E0848E150E060E571E086EF97E00E9468
:1015F0009B3980E006C080910802806280930802D7
:101600008FEFDF91CF910895CF93DF938BEE93E02F
:101610000E94B339EC0160E872E08BE691E034DEC1
:10162000C817D90781F48AE691E00E94AB3980356A
:1016300051F440E852E06BE671E082E699E00E94E6
:101640009B3980E006C08091080280648093080284
:101650008FEFDF91CF910895CF93DF9382EF93E0E7
:101660000E94B339EC0164E070E08EEE93E00CDE92
:10167000C817D90751F444E050E06EEE73E083EBF5
:1016800095E00E949B3980E006C080910802806846
:10169000809308028FEFDF91CF91089560E080E0A2
:1016A00090E00E94C73965E689EF93E00C94C73952
:1016B0000895CF93DF9360E370E082E399E0BEDDAD
:1016C000EC010E94C5386DE481E090E00E94C739CA
:1016D00040E350E062E070E082E399E00E94B839B4
:1016E000BE0182E390E00E94D939D8DF0E94D3384E
:1016F000DF91CF910895CF93DF9360E071E086E2B0
:1017000098E09CDDEC010E94C53869E484E390E038
:101710000E94C73940E051E065E370E086E298E05E
:101720000E94B839BE0185E391E00E94D939B6DF45
:101730000E94D338DF91CF910895CF93DF9368E073
:1017400070E086E299E07ADDAC0163E070E08EE261
:1017500099E0D1DDEC010E94C5386FE487E391E0A8
:101760000E94C73948E050E068E371E086E299E002
:101770000E94B83943E050E060E471E08EE299E005
:101780000E94B839BE0183E491E00E94D93986DF16
:101790000E94D338DF91CF9108950F931F93CF9379
:1017A000DF9361E070E085E593E048DD8C010E9405
:1017B000C53869E685E491E00E94C739C5E5D3E004
:1017C000688186E491E00E94C739698187E491E0ED
:1017D0000E94C739B80188E491E00E94D9395EDFE0
:1017E0000E94D338DF91CF911F910F910895CF932D
:1017F000DF9361E070E08EE695E120DDEC010E9470
:10180000C53865E58AE491E00E94C73960916E159C
:101810008BE491E00E94C739BE018CE491E00E9404
:10182000D9393CDF0E94D338DF91CF910895CF930F
:10183000DF9362E070E084E298E000DDEC010E945A
:10184000C53864E584EF93E00E94C73942E050E078
:1018500065EF73E084E298E00E94B839BE0187EF3B
:1018600093E00E94D9391ADF0E94D338DF91CF91DB
:101870000895CF93DF9361E070E08EE098E0DEDCC6
:10188000AC0168E170E086EF97E035DDEC010E9485
:10189000C53862E58EE491E00E94C73960910E0878
:1018A0008FE491E00E94C73948E150E060E571E0C3
:1018B00086EF97E00E94B839BE0188E691E00E9469
:1018C000D939ECDE0E94D338DF91CF910895CF93C0
:1018D000DF9360E872E082E699E0B0DCEC010E9400
:1018E000C53860E58AE691E00E94C73940E852E0D9
:1018F0006BE671E082E699E00E94B839BE018BEE9A
:1019000093E00E94D939CADE0E94D338DF91CF918B
:101910000895CF93DF9364E070E083EB95E08EDC75
:10192000EC010E94C5386BE48DEE93E00E94C7394C
:1019300044E050E06EEE73E083EB95E00E94B8392E
:10194000BE0182EF93E00E94D939A8DE0E94D3380D
:10195000DF91CF910895ADDECEDEEFDE1EDF47DFF3
:1019600088DFB5DFD6DF63CF0895CF92DF92EF92A5
:10197000FF920F931F93CF93DF93EB0111C07C0174
:101980002FEFE21AF20A0E94AB396E019FEFC91ADB
:10199000D90A682FCE010E94C739A801E601C70104
:1019A0008A0101501109452B51F7DF91CF911F9109
:1019B0000F91FF90EF90DF90CF9008950E94C5386F
:1019C00040E058E060E078E080E090E0CEDF0C940A
:1019D000D33808950E94C53840E058E060E070E0D8
:1019E00080E098E0C2DF0C94D338089580E00AC00C
:1019F000E82FF0E0EE0FFF1FE15DFD4F9FEF9083BA
:101A000011828F5F8930A0F3E1E4F2E0108211824D
:101A1000128213828FEF80935703089582E084BD72
:101A200093E095BD80936E0089EF87BD85B18F7778
:101A300085B984B1806884B9089587E880937A0075
:101A400010927B008FE780937C0081E080937E0082
:101A500010927F00E9E4F3E010828FEF81838283AC
:101A60008093090280E010C0853039F4E82FF0E05F
:101A7000E15BFC4F96E0908306C0E82FF0E0E15B6D
:101A8000FC4F9AE090838F5F863070F308958FEF5C
:101A900088B987B982B911B884B3876084BB83B32E
:101AA000876083BB8BB18F778BB98AB180688AB925
:101AB00080E00EC0E82FF0E0EE0FFF1FEE0FFF1FDB
:101AC000EE0FFF1FE75BFD4F9FEF918390838F5FCA
:101AD000803280F310924602109245020895E6DCAF
:101AE0008F3F51F440E050E060E081E02BD7E5E526
:101AF000F3E08FEF808381838BB18F778BB984B3D1
:101B0000876084BB84B38B7F84BB85E08A95F1F7C3
:101B1000000084B3846084BB90E284B3816084BBA2
:101B200090FD02C085E501C08AEA88B980B1809342
:101B30004803809347038093460380934503809333
:101B400044038093430384B38E7F84BB85E08A95EE
:101B5000F1F70000915009F790E20FC084B3816063
:101B600084BB82E08A95F1F700C084B38E7F84BB8A
:101B700082E08A95F1F700C091509111EFCF8FEF7D
:101B80008093480290E284B3816084BB8FEF88B970
:101B900020B190FD02C08AEA01C085E5822720912C
:101BA000480282238093480284B38E7F84BB85E001
:101BB0008A95F1F70000915031F70000000084B3DE
:101BC000816084BB84B3876084BB84B38B7F84BB18
:101BD00082E08A95F1F700C084B3846084BB90E210
:101BE000E1E4F3E0838182838481838384B3816031
:101BF00084BB8FEF818388B98581848386818583C7
:101C000080B186838283838384838583878384B33F
:101C10008E7F84BB3897915029F70000000084B371
:101C2000816084BB84B38D7F84BB18B885E08A95BE
:101C3000F1F7000084B3826084BBE5E5F3E08181C5
:101C40004081842B90914802891739F050E0542F3D
:101C50004427492B60E082E075C60895883008F07B
:101C60006AC031E001C0330F8A95EAF780E88093BB
:101C700046028BB18F778BB984B3876084BB40E019
:101C80001DC020FD03C0832F809501C08FEF88B950
:101C9000269582E08A95F1F700C084B38E7F84BBDD
:101CA00082E08A95F1F700C084B3816084BB9F5FB6
:101CB00002C090E025EA983020F34F5F4430C8F32B
:101CC00090E00FC082E08A95F1F700C084B38E7F68
:101CD00084BB82E08A95F1F700C084B3816084BB45
:101CE0009F5F903278F390E040E050E0BA0117C077
:101CF000440F551F661F771F82E08A95F1F700C0D9
:101D000084B38E7F84BB80B1832309F0416082E07D
:101D10008A95F1F700C084B3816084BB9F5F9032E5
:101D200038F3109246028BB180688BB9342F252F7F
:101D3000862F972F04C030E020E080E090E0632FF2
:101D4000722F089590E0E9E4F2E080E006C02FEF02
:101D500021832681822B38969F5F9032C0F3909129
:101D600055038923909148028923089510924602D1
:101D70008091460281FFFCCF10924602809146027C
:101D800081FFFCCF089581E0809345029FB7F894CE
:101D900006C0EFE2F2E088E28283138280E08111E4
:101DA000F8CF9FBF089580914502813031F5CADF99
:101DB000811114C085B1806485B982E180934502A8
:101DC0009FB7F89481E006C0EFE2F2E081E0828301
:101DD000138280E08111F8CF9FBF08959FB7F894D8
:101DE00081E007C0EFE2F2E08CE0828382E083834F
:101DF00080E08111F7CF9FBF08958231B1F4A2DF57
:101E0000811104C084E1809345020BC0482F50E04B
:101E100060E085E097D585B18F7B85B980E88093B8
:101E200045028FEF8093310208958FEF8093310246
:101E3000089590E00DC0943050F4E92FF0E0811146
:101E400002C02AE001C026E0E15BFC4F20839F5FD7
:101E5000963088F308951F920F920FB60F921124B7
:101E60000BB60F92EF92FF920F931F932F933F9316
:101E70004F935F936F937F938F939F93AF93BF9392
:101E8000CF93DF93EF93FF9385B1806885B98091FD
:101E900047028F5F809347028370813009F458C1F5
:101EA00038F0823009F4A5C1833009F4CAC105C2F3
:101EB0008091090281111AC190917A0096FD16C194
:101EC000282F30E0F901EE0FFF1FE20FF31FEE0F96
:101ED000FF1FE75BFC4F91814091790041834917D7
:101EE00010F4941B03C0542F591B952F943008F005
:101EF000FDC081110EC0423270F04F3370F0483691
:101F000070F0463970F04F3B70F0483E70F4C6E018
:101F10000DC0CFEF0BC0C4E009C0C3E007C0C5E0EF
:101F200005C0C1E003C0C2E001C0CFEFF901EE0F70
:101F3000FF1FE20FF31FEE0FFF1FE75BFC4FD28185
:101F4000DC1709F448C0DF3F19F0CF3F09F0CFEFAD
:101F5000F901EE0FFF1FE20FF31FEE0FFF1FE75B0C
:101F6000FC4FC283DF3FF9F4C901880F991FFC01C0
:101F7000E20FF31FEE0FFF1FE75BFC4F1582148289
:101F8000FC01E20FF31FEE0FFF1FE75BFC4F138214
:101F9000EC2FF0E0E25BFC4F808180FFA7C08C2F2C
:101FA0000E94962AA3C0ED2FF0E0E25BFC4F8081F7
:101FB00081FF9CC0F901EE0FFF1FE20FF31FEE0F30
:101FC000FF1FE75BFC4F8381837009F08FC08D2F6B
:101FD0000E94962A8BC0CF3F09F488C0F901EE0F0A
:101FE000FF1FDF01A20FB31FAA0FBB1FA75BBC4FD0
:101FF00014968D919C911597019615969C938E93AE
:102000001497FD01848195818B349105A9F4ED2FFE
:10201000F0E0E25BFC4F808182FF0EC08C2F806875
:102020000E94962AE091090286E0E89FF0011124BF
:10203000E75BFC4F82E08383ED2FF0E0E25BFC4F37
:10204000808183FF53C08091090290E0FC01EE0F74
:10205000FF1FE80FF91FEE0FFF1FE75BFC4F238107
:1020600021111EC0FC01EE0FFF1FE80FF91FEE0F3C
:10207000FF1FE75BFC4F2481358122333105B1F529
:1020800026E0289FF001299FF00D1124E75BFC4F0B
:1020900081E08383158214828C2F0E94962A26C0A9
:1020A000FC01EE0FFF1FE80FF91FEE0FFF1FE75BAC
:1020B000FC4F23812130D1F426E0289FF001299F95
:1020C000F00D1124E75BFC4F248135812C30310564
:1020D00069F426E0289FF001299FF00D1124E75BA9
:1020E000FC4F158214828C2F0E94962A809109023F
:1020F0008F5F80930902843010F010920902809162
:10210000090281110CC090E0FC01EE0FFF1FE80FE7
:10211000F91FEE0FFF1FE75BFC4F808101C08FE1CD
:10212000982F9F71906690937C00EBE7F0E0208100
:10213000807290E09595879595958795922F9F7DD4
:10214000892B8083EAE7F0E0808180648083B5C0DA
:1021500080914602803809F4B0C084B3876084BBA4
:1021600084B38B7F84BB209156032095E2E0EA95EF
:10217000F1F700C084B3846084BB90E2E1E4F3E053
:10218000838182838481838384B3816084BB8181E2
:10219000822B88B9858184838681858380B18683FB
:1021A00084B38E7F84BB3897915051F700000000B4
:1021B00084B3816084BB84B38D7F84BB80914602ED
:1021C00082608093460218B88BB180688BB984B363
:1021D000826084BB72C0808181508E3F38F421813F
:1021E0002F5F253010F0808320E0218332969F5F9F
:1021F00003C090E0EFE2F2E0993068F3E1E4F2E04E
:1022000080818F5F80838A3F09F057C08FEF809372
:102210005703108281818F5F81838C3308F44DC016
:10222000118282818F5F82838C3308F446C01282D0
:1022300083818F5F8383843608F43FC01092440209
:102240003CC0809146028038C1F1E09055038091F6
:102250004802E822F12C09E412E02CC0F801C28106
:1022600083819C2F9823C82B84819823C82B258198
:102270009223C22B86819823C82BD781CD23C92BCB
:10228000C7838D2F80958C238E2121F09F2D906206
:102290000E94D62AC095CD238C2F8E2119F09F2D18
:1022A0000E94D62A085F1F4F80914602816080936A
:1022B0004602F394FFE1FF1588F685B18F7785B963
:1022C000FF91EF91DF91CF91BF91AF919F918F914E
:1022D0007F916F915F914F913F912F911F910F913E
:1022E000FF90EF900F900BBE0F900FBE0F901F90BE
:1022F0001895E82FF0E0EE0FFF1FEE0FFF1FEE0F17
:10230000FF1FE75BFD4F609581816823618308951E
:10231000E82FF0E0EE0FFF1FEE0FFF1FEE0FFF1F85
:10232000E75BFD4F8181682B618308958FEF82B950
:1023300085B988B98BB98EB981BB84BB8093020102
:10234000809305018093080180930B018AB1806816
:102350008AB98BB18F778BB984B1806484B985B128
:102360008F7B85B90895882334F4E2E0F1E0908111
:102370009061908305C0E2E0F1E090819F7E9083C0
:1023800086FF06C0E2E0F1E090819860908305C08E
:10239000E2E0F1E09081977F908385FF04C09EB1D9
:1023A00098609EB903C09EB1977F9EB984FF04C018
:1023B00084B3806284BB03C084B38F7D84BBE2E0BE
:1023C000F1E080818064808385E08A95F1F70000E8
:1023D00080818F7B808385E08A95F1F700000895E6
:1023E000CF93C82FE2E0F1E080818062808380811A
:1023F0008F7B80838C2FB7DF8C2F8295807FB3DF1C
:102400008FEF90E00197F1F700C00000CF910895A1
:10241000CF93C82FE2E0F1E080818F7D80838081BF
:102420008F7B80838C2F9FDF8C2F8295807F9BDF1B
:10243000C150C23038F48FE097E20197F1F700C045
:10244000000006C08FEF90E00197F1F700C0000098
:10245000CF910895E1E0F1E0808180618083808107
:10246000886080838DB188608DB983B3806283BBBF
:102470008081806480838081806280832FEF81EE01
:1024800094E0215080409040E1F700C00000E2E07D
:10249000F1E080818F7D808380818F7B808380E3EA
:1024A00062DF8FE19EE40197F1F700C0000080E356
:1024B0005ADF8FE19EE40197F1F700C0000080E34E
:1024C00052DF8FE19EE40197F1F700C0000088E23F
:1024D0004ADF8FEF90E00197F1F700C0000088E23B
:1024E00097DF88E095DF81E093DF86E091DF8CE085
:1024F0008FCF08958093A80380588ACF08951092B3
:10250000A80381E085DF80E0E8E5F3E004C090E225
:1025100090838F5F31968035D0F30895843198F0A1
:1025200090EC980F943110F48C5208959CEE980F13
:10253000943110F48C5E08959CEA980F943110F455
:10254000885108958FEF0895CF93DF93D82FC091CE
:10255000A8038C2FE3DF8F3F31F1D13A81F0D038DF
:1025600081F0D53A81F0DA3081F0D23E81F0D53F6A
:1025700081F0DF3E81F0D13E81F09D2F0FC090E2CF
:102580000DC090E20BC094E109C095E107C093E152
:1025900005C092E103C091E101C090E1E82FF0E0B5
:1025A000E85AFC4F9083CF5FCF77C093A8038D2F5D
:1025B00017DFDF91CF910895CF93DF93FC01892B33
:1025C00019F407C0C1DFFE01EF012196808181115E
:1025D000F9CFDF91CF910895CF93DF93FC01892B41
:1025E00019F407C0B1DFFE01EF012196849181113A
:1025F000F9CFDF91CF91089582ED93E09093650537
:10260000809364059093630580936205089580919B
:1026100062059091630520916405309165058217EC
:10262000930748F0821B930B959587959DEC899FA6
:10263000802D1124089580579E4F821B930B9595F2
:1026400087959DEC899F802D11240895CF93C82FE5
:10265000DEDFC817F8F440916405509165058C2FB2
:1026600090E09C01220F331F880F991F880F991F3C
:10267000880F991F280F391FCA01820F931F65E029
:102680008835960749F040F020593140CA01820F41
:10269000931F02C080E090E0CF910895D7DF0097AC
:1026A000F1F1FC013681678120E034C0422F50E017
:1026B000FA01EE0FFF1FCF01880F991F880F991F96
:1026C000880F991FE80FF91FE659FE4F84913813C0
:1026D00020C0FA01EE0FFF1FCF01880F991F880F4E
:1026E000991F880F991FE80FF91FE559FE4F849134
:1026F00068130FC0440F551FCA01880F991F880F18
:10270000991F880F991F480F591FCA0184599E4F5E
:1027100008952F5F203150F280E090E0089580E02E
:1027200090E00895CF9373DF1092A903811114C034
:1027300017C08C2F8BDF009761F0FC0124812032C1
:1027400051F095818C2F953439F48FEF8093A90344
:1027500007C08C2F01C08C2FCFEFC80F8111E9CF9C
:10276000CF9108951F93CF93DF93009709F47BC017
:10277000162FEC018B81882379F06AEA73E00E94BE
:10278000F436BC016F5F7F4F28E6FC0120838A810D
:102790000E94F436DC012FC08A81882379F06AEA2E
:1027A00073E00E94F436BC016F5F7F4F2DE6FC01A1
:1027B000208389810E94F436DC011DC06AEA73E03F
:1027C00089810E94F436FC0183E780839881990F08
:1027D00020E002C099512F5F9931E0F7205D2183FD
:1027E000990F20E002C095502F5F9530E0F7DF0190
:1027F0001396205D22839C81903451F0903819F01B
:10280000903281F40AC0FD0131968AE28C930EC0A9
:10281000FD01319685EA8C9309C0FD01319680E275
:102820008C9304C0FD0131968FE38C93BF016F5FE1
:102830007F4F8D8180838E810E943737BC018F81CD
:102840000E943737BC016F5F7F4F2DE2FC01208370
:10285000888599850E947137FC0110821F3F41F0E5
:102860001C8360DF05C0EAEAF3E08DE28083118219
:102870008AEA93E0DF91CF911F910895E09162057C
:10288000F0916305A1E4B2E09C919083E091620530
:10289000F091630511969C9111979183E0916205E7
:1028A000F091630512969C911297928313969C91D6
:1028B00093832583868367835187408780E8848359
:1028C00080916E158F3F81F484E691E00E9466341A
:1028D0006FEF809162059091630544DF0E94BA34E6
:1028E00083EF91E10E9466348091620590916305C7
:1028F0000A9690936305809362058855954039F058
:1029000030F082ED93E0909363058093620520910F
:1029100062053091630580916405909165052817E3
:10292000390779F40A969093650580936405885574
:10293000954039F030F082ED93E0909365058093F7
:102940006405089525E49ADF8FEF8093A903089525
:10295000CF93C62F7BDE009719F06C2F03DF06C0E4
:10296000EAEAF3E08DE280831182CF01CF910895EE
:10297000DDDC42DE0E947C340E948F2A4FD836D89C
:102980005CD885D80E94EB32AAD80E94332E0E94D0
:10299000732E0E94212B0E94952B0E94042F0E94CF
:1029A00030290E94AB0C1092C20554DD0E94913672
:1029B000A6DD83E49FDD85EA92E00EDE8BE19ADD01
:1029C00083E991E109DE78942FEF47E98AE321500A
:1029D00040408040E1F700C000000E944F358FDD8D
:1029E000D2D98FEF8093F307809367058EEF8093A2
:1029F0006605DFEF2091FC133091FD138091F713F2
:102A00009091F8132817390709F466C00E94B93568
:102A1000C82F809366050E9485338FE78C0F863020
:102A200028F480E88C0F0E94962A56C0C03909F01D
:102A300053C08091EF13803909F04EC091E0E92F27
:102A4000092E000CFF0BE151FC4E80818D3319F0F3
:102A50009F5F9830A4F398300CF03EC0892F859585
:102A600020E006C0E22FF0E0E959FA4E10822F5F15
:102A70002330C0F32CC0E92F092E000CFF0BE151CD
:102A8000FC4E308120ED230F2A3010F027ED230F6C
:102A9000A22FAF70E7E6F5E1628120E1629FB0010D
:102AA00011244181242F22952F70622B628320E113
:102AB000429FA00111242081322F32953F70432B79
:102AC000418340E1249F900111242A2B20839150BF
:102AD00019168CF20E94AC310E94C32A882309F493
:102AE00042C00E94AA2AC82F863861F40E94B532DB
:102AF0000E9485300E94962D0E94172B8AE892E052
:102B00000E945828809167058F3FF1F48C2F8F73B6
:102B1000C53061F460E070E080E090E040D70E9452
:102B200094241092670580E084D91DC09FEF980F10
:102B30009430C8F40E94F4296C2F0E94092A8093D3
:102B400067050E94B5290FC08091C205811106C09A
:102B50008C2F0E949B248093670505C08DEF809386
:102B6000A6050E942327809167058F3F51F4DF3F20
:102B700049F40E94E2230E94B5298FEF5AD9D0E090
:102B800001C0DFEF80913D02811109C0C091A8030F
:102B90000E9447288C2FAEDC8FEF80933D028091FE
:102BA0003B0281110AC08091C205882319F00E945E
:102BB000232703C08FEF80933B0280913102811164
:102BC0001AC0F1D80E94552A809167058F3F99F469
:102BD000C091A80384E18EDC80914502813021F40C
:102BE00083E992E0F9DC05C0823119F484E10E94A6
:102BF00095388C2F7FDC809166059FE7980F963083
:102C000010F08E3F09F58091F7178F3F31F48091D6
:102C1000A80384DC0E94833503C08FE70E948335BC
:102C200081E80E948335C0E0E8E5F3E008C08F0149
:102C30000F5F1F4F80810E948335CF5FF801C03541
:102C4000B0F380E80E9483358FEF809366050E9481
:102C5000CF320E948F30C091A803809103028F3F32
:102C600091F180E047DC809101028F3F69F480910F
:102C700002020E9472388FE367DC809103020E9497
:102C8000213880E261DC0CC0809103020E9421386F
:102C90008EE75ADC809101020E94833880E254DC86
:102CA0008C2F28DC8FEF809303029FB7F89481E08C
:102CB00006C0EFE2F2E082E38087118680E08111B6
:102CC000F8CF9FBF2CC0809100028F3FD9F080E0E9
:102CD00011DC80E739DC809100020E94DA368EE751
:102CE00033DC8FEF809300029FB7F89481E006C039
:102CF000EFE2F2E082E38087118680E08111F8CF75
:102D00009FBF0DC080913702811109C0F3DB86E0BF
:102D10000E9495388C2FEEDB8FEF809337028091E5
:102D200005028F3FF9F08FE0E5DB809104020E94FD
:102D300083388EE709DC809105020E9421388C2FB0
:102D4000D9DB8FEF809305029FB7F89481E006C02E
:102D5000EFE2F2E082E38287138680E08111F8CF10
:102D60009FBF38C0809131098F3F31F18FE0C2DBC6
:102D700082E5EADB809131098F770E94DA36809113
:102D80003109882314F088E001C089E0DDDB80E2AE
:102D9000DBDB8C2FAFDB8FEF809331099FB7F8948B
:102DA00081E006C0EFE2F2E082E38287138680E0F2
:102DB0008111F8CF9FBF0EC08091390281110AC0E6
:102DC0008FE098DB85E00E9495388C2F93DB8FEFA6
:102DD00080933902809157038F3F09F07EC0109293
:102DE0005703F090A803C091F717CF3F11F40E944A
:102DF000BF3880914402882359F08091420280FDBF
:102E00000EC00F2EFAE3EF2EF02D04E412E00CC0FA
:102E10000F2EFAE3EF2EF02D03E412E005C06894C4
:102E2000EE24E5F804E412E087E064DBF801808139
:102E30000E94DA368E2D88DBF801319780810E945E
:102E4000DA3640916B15442331F050E060E083E0C6
:102E500079DD10926B1540917215442331F050E0EA
:102E600061E083E06FDD109272158091450284FF6E
:102E700002C080E201C089E067DB8091A9038F3F37
:102E800011F485E401C080E25FDB8F2D33DBCF3F9F
:102E900011F40E94B838809137028F3F69F49FB7D0
:102EA000F89481E006C0EFE2F2E08DE780871186BA
:102EB00080E08111F8CF9FBF809139028F3F69F484
:102EC0009FB7F89481E006C0EFE2F2E08DE78287D9
:102ED000138680E08111F8CF9FBF8091F4078F3F68
:102EE00039F41092F40740E050E060E084E02ADD1D
:102EF0009091611580916F15981721F00E94CE3343
:102F00000E9418310E940D2B8F3F09F073CD0E9453
:102F1000F82A0E94DD316ECD1092AD051092AE05FB
:102F20001092AF051092B00581E090E00090780516
:102F300002C0880F991F0A94E2F7482F30E0E1E4BD
:102F4000F3E022C08091AD059091AE05A091AF0550
:102F5000B091B005880F991FAA1FBB1F8093AD05C4
:102F60009093AE05A093AF05B093B00521812423C3
:102F700049F081608093AD059093AE05A093AF05B5
:102F8000B093B00538973F5F3032E0F280E00895AB
:102F90004091AD055091AE056091AF057091B005BF
:102FA000853009F5A1E0B0E00090780502C0AA0FD5
:102FB000BB1F0A94E2F73A2F90E0E1E4F3E011C07E
:102FC000772324F48181832B818305C021818A2F7B
:102FD000809582238183440F551F661F771F389782
:102FE0009F5F903268F380E00895E091A905F09129
:102FF000AA053E96859195918093780580E0089585
:10300000E091A905F091AA053E968591959180934E
:10301000A70580E00895E091A905F091AA053E96E4
:10302000259135912093B7058091A7058F7090E089
:103030002370880F991F880F991F820F911D880F89
:10304000991F880F991F9093B2058093B10580E076
:103050000895E091A905F091AA053E968591959174
:103060008093770580E00895E091A905F091AA0585
:103070003E96859195918093B705209177052F70A5
:1030800030E0837090E0A901440F551F240F351FD5
:10309000220F331F220F331FAC01440F551F840F23
:1030A000951F820F931F9093B2058093B10580E026
:1030B0000895E091A905F091AA053E968591959114
:1030C0008093B705877090E09C01220F331F820F19
:1030D000931F9093B2058093B10580E00895E0912D
:1030E000A905F091AA053E9685919591843060F4EA
:1030F000FC01FF27EE0FFF1FE654FA4F80819181FC
:103100009093CE058093CD0580E008950E94170C22
:1031100080E008951F93CF93DF938630F1F0E09124
:10312000A905F091AA053E960590F491E02DCF01F6
:103130008D569540880F880F880FD081C0E00BC056
:1031400011E0180F6D2F661F6627661F0E94E22C84
:10315000DD0FCF5F812FC83098F380E0DF91CF91F2
:103160001F91089581110E94962D80E00895E091AD
:10317000A905F091AA053E96859195918F509840AA
:10318000FC01FF27E15FF74F208121110E94232BD3
:1031900080E00895863039F08091A805803418F4D5
:1031A0006FEF0E94A32D80E008950E94890C80E0BB
:1031B0000895CF92DF92EF92FF9281E090E000902D
:1031C000780502C0880F991F0A94E2F7282F90E033
:1031D000E1E4F3E0C12CD12C76010BC0CC0CDD1C5A
:1031E000EE1CFF1C8681822311F06894C0F838978A
:1031F0009F5F903298F38EE17DD9C092F917D092FB
:10320000FA17E092FB17F092FC170E94B53680E0A7
:10321000FF90EF90DF90CF9008958EE16BD9809171
:1032200078050E942E0E6093F9177093FA17809319
:10323000FB179093FC170E94B53680E00895CF935A
:103240008F3F09F077C080930E0210920D02E0913B
:10325000A905F091AA053E968591959180937705F1
:10326000843010F01092770520E039C08091770506
:1032700090E0E22FF0E0DF01AA0FBB1FAD014E0F7F
:103280005F1FDC01AA0FBB1FA80FB91FAA0FBB1F2E
:10329000AA0FBB1FA40FB51FAE5CB64F3C91409167
:1032A0000E02341710F430930E02AF01440F551F75
:1032B000E40FF51FAC01440F551F840F951F880FB5
:1032C000991F880F991FE80FF91FEE5CF64F818157
:1032D00090910D02981710F480930D022F5F243007
:1032E00028F280910E0288234CF48EE103D98CE7FA
:1032F00093E072D98FEF80939F0504C080939F0560
:1033000010920C026BEB71E180E00E94E1386AECF4
:1033100071E181E00E94E1386FEC71E182E00E948E
:10332000E13861ED71E183E00E94E1380E943039BB
:10333000CFEF71C060919F056F3F09F461C081308C
:10334000D9F480910D02681708F05CC040E08091CC
:1033500077050E94A82F60919F056F5F60939F057E
:1033600080910C02813009F04FC041E080917705D7
:103370000E94A82FCFEF4FC08430D1F480910E026D
:10338000861708F043C040E0809177050E94A82F7F
:1033900060919F05615060939F0580910C02813080
:1033A000B9F541E0809177050E94A82FCFEF33C097
:1033B000833091F480910C02811104C081E08093EC
:1033C0000C0202C010920C0240910C028091770511
:1033D0000E94A82FCFEF1FC0823011F0863039F441
:1033E00040E0809177050E94A82FC0E014C085308E
:1033F00089F440E0809177050E94A82FC0E00BC0BF
:10340000C0E009C0CFEF07C0CFEF05C0CFEF03C0CA
:10341000CFEF01C0CFEFCF3F59F580919F058F3F90
:1034200029F18EE167D880919F050E94213880E2C2
:103430008BD880910C02811107C081E685D885E781
:1034400083D883E781D806C085E67ED889E67CD814
:103450008EE67AD861E080910C02811101C060E0B3
:1034600081E00E944F3981110E9430398EE142D8AB
:103470008C2FCF9108950E949D0B80E008950E94AB
:103480009D0B80E008950E947B0B80E008950E94D0
:10349000590B0E947B2B0E94390C0E94AD2E80E0BC
:1034A00008950E94CD0B80E00895CF938FE593E0BF
:1034B0000E946634ACD8811117C085E693E00E9463
:1034C000663416C06FEF8C2F43DA0E94BA3483EF54
:1034D00091E10E9466348C2FE1D80E94663483EF1C
:1034E00091E10E9466348C2FCFEFC80F8111EACF93
:1034F00080E0CF9108950E94F70B80916E158F3F69
:1035000061F486E493E00E94663483E991E10E94CD
:10351000663483EF91E10E94663480E008959F92C3
:10352000AF92BF92CF92DF92EF92FF920F931F93D1
:10353000CF93DF938DE293E00E9466340E9478344B
:103540008AE193E00E946634C5E5D3E06DEF77E150
:1035500088810E94373722E7FC012083BC016E5F1F
:103560007F4F20E2218389810E94373727E7FC01C2
:1035700020838DEF97E10E94BA340E94783488E06E
:1035800093E00E9466346DEF77E1809148020E94DB
:1035900037378DEF97E10E94BA340E9478340E9449
:1035A0007834E12CD1C08FEF92E00E9466346DEF49
:1035B00077E18E2D0E94EA378DEF97E10E94BA34B1
:1035C0000E947834F12CA4C088EF92E00E94663407
:1035D00080E38F0D0E9485338AE30E94853380E269
:1035E0000E9485330E2D10E0CF2CD12CE601CC0F9C
:1035F000DD1FCE018C0D9D1DE801CC0FDD1FC00F1E
:10360000D11FCC0FDD1FCC0FDD1FC80FD91FCE5C23
:10361000D64F6DEF77E188810E943737BC016F5F2D
:103620007F4F0F2EFEE2BF2EF02DFC01B08289816C
:103630000E943737BC016F5F7F4FFC01B0828A81E7
:103640000E943737FC0180E280839DE3918382836F
:103650008DEF97E10E94BA34888188232CF486EE9E
:1036600092E00E94663451C06DEF77E10E948E3780
:10367000BC016F5F7F4F0F2EFDE29F2EF02DFC01EE
:103680009082F601EE0FFF1FCE0EDF1E5801AA0C2E
:10369000BB1CE501C00FD11FCC0FDD1FCC0FDD1F00
:1036A000CC0DDD1DCE5CD64F89810E948E3720E285
:1036B000FC01208311828DEF97E10E94BA348EEDD8
:1036C00092E00E9466348A81829586958770805D3B
:1036D0000E94853386ED92E00E9466348A816DEF08
:1036E00077E18F710E94F436BC016F5F7F4FFC0160
:1036F00090828A81998128818F71890F821B0E9413
:10370000F4368DEF97E10E94BA340E947834F39436
:10371000F3E0FF1508F058CF84EB92E00E94663486
:10372000EE2DF0E0EE0FFF1FEA5DF64F6DEF77E153
:1037300081810E944F378DEF97E10E94BA340E9439
:1037400078340E947834E39483E08E1508F02BCF10
:103750008CEE92E00E946634F12C94C088EF92E0E7
:103760000E94663480E38F0D0E9485338AE30E94B5
:10377000853380E20E948533CF2DD0E08E01000F8B
:10378000111F0C0F1D1F0A50184F6DEF77E1F80144
:1037900080810E943737BC016F5F7F4F0F2EFEE2A2
:1037A000EF2EF02DFC01E082F80181810E94373775
:1037B000BC016F5F7F4FFC01E082F80182810E94B3
:1037C0003737FC0180E280839DE3918382831382FB
:1037D0008DEF97E10E94BA34F80180818F3F29F480
:1037E00086EE92E00E9466344AC0EDEFF7E192E582
:1037F00090839EE291836FEF77E18F5F0E94103795
:10380000BC016F5F7F4F1DE2FC011083CE01880F6A
:10381000991FC80FD91FCA50D84F89818F5F0E9446
:10382000103720E2FC01208311828DEF97E10E9486
:10383000BA348EED92E00E9466348A818295869534
:103840008770805D0E94853386ED92E00E94663429
:103850008A816DEF77E18F710E94F436BC016F5F52
:103860007F4FFC0110838A81998128818F71890F94
:10387000821B0E94F4368DEF97E10E94BA340E94B9
:103880007834F394F7E0FF1508F068CF80E0DF911B
:10389000CF911F910F91FF90EF90DF90CF90BF904D
:1038A000AF909F9008951F93CF93DF9310E009C0CE
:1038B000C12FD0E0C359DA4F88810E9486398883AE
:1038C0001F5F1830A8F3DF91CF911F9108958DE607
:1038D00095E00E94B62CE7DF80E008950E94962DC7
:1038E00080E0F5DF80E00895863031F08091A80512
:1038F000803410F40E94072D80E0E9DF80E0089515
:10390000CF93C62F8823D9F0E62FF0E0DF01A15F27
:10391000B74F8C91811108C0862F0E94232B8823DA
:1039200071F00E9459300BC0DF01A15FB74F1C92AC
:10393000EE0FFF1FE756FE4E84910E945930EC2F88
:10394000F0E0E15FF74F8081811102C082E801C0A1
:1039500081E8CF91089560E0D3CF089561E0D0CFA2
:10396000089563E0CDCF089562E0CACF089564E082
:10397000C7CF089565E0C4CF089566E0C1CF08952C
:1039800067E0BECF089569E0BBCF089568E0B8CF87
:1039900008956AE0B5CF08956BE0B2CF0895109214
:1039A0006805009769F483EF96E09093AA058093E9
:1039B000A9058EEC93E090939D0580939C0508C02B
:1039C0009093AA058093A90570939D0560939C052B
:1039D0008FEF8093760588ED93E090937A0580933E
:1039E0007905089563ED71E182E00C94E138089562
:1039F00065ED71E183E00C94E138089567ED71E1C4
:103A000081E00C94E138089565EC71E181E00C945B
:103A1000E138089560EC71E181E00C94E13808959B
:103A200069ED71E180E00C94E138089580917505AD
:103A30008A3011F08E3031F461EB71E180E00C944A
:103A4000E138089561ED71E180E00C94E13808956A
:103A5000809175058A3011F08E3031F463EB71E19D
:103A600081E00C94E13808956FEC71E181E00C94F1
:103A7000E1380895CF93DF93E09175058E2F90E0A4
:103A8000FC013297ED30F10508F0E4C08827EE58CC
:103A9000FF4F8F4F0C9493398091B905E4ECF5E01A
:103AA000982F92959F7090838F708183D3C080915F
:103AB000B905803120F08FEF8093C405CBC08F5FB4
:103AC0008093C405C7C08091B905882334F4E4EC21
:103AD000F5E010828FEF8183BDC01092C50508C04C
:103AE000E4ECF5E091819F5F91838C508093B90560
:103AF0008091B9058C30A0F78093C405ABC080914C
:103B0000B905E4ECF5E0982F92959695977090831F
:103B10008F718093B905118208C0E4ECF5E09181C2
:103B20009F5F91838A508093B9058091B9058A304F
:103B3000A0F78093C6058EC0E4ECF5E010821182F8
:103B400008C0E4ECF5E090819F5F908384568093F9
:103B5000B9058091B9058436A0F708C0E4ECF5E01A
:103B600091819F5F91838A508093B9058091B905B7
:103B70008A30A0F78093C6056DC08091B905843066
:103B800020F08FEF8093C40565C08093C40562C0A8
:103B90008091B905843020F083E08093C4055AC039
:103BA0008093C40557C08091B9058093C40552C065
:103BB000E92FF0E08091B905282F221F2227221F2C
:103BC000EC53FA4F2083880F8093B9059F5F01C0A3
:103BD00090E0983068F33EC08250F0E0DE019D91A5
:103BE000EC53FA4F9F709083E82FF0E09881EC53EC
:103BF000FA4F92959F709083ED0103C0C2EAD5E021
:103C000088E0EFEFE80F8111E7CF24C08091B9057C
:103C1000E4ECF5E0982F97709F5F908386958695EA
:103C200086958F5F818316C08091B9058F5F8093E1
:103C3000B9051092C40508C0E4ECF5E090819F5FDF
:103C400090838A508093B9058091B9058A30A0F796
:103C50008093C505DF91CF9108950F931F93CF9364
:103C6000DF93E09175058E2F90E0FC013297ED30E7
:103C7000F10508F03BC18827E158FF4F8F4F0C94A6
:103C8000933904EC15E0F80180810E946736C5E2A3
:103C9000D2E08883F80181810E94673689831A8285
:103CA00025C1E5E2F2E083E4808388E681838091A8
:103CB000C4058F3F29F480E282838DE2838312C0A2
:103CC0008A3048F0C5E2D2E091E39A838A500E949C
:103CD00067368B8307C0C5E2D2E090E29A830E94E8
:103CE00067368B831092290201C18091C4058F3FF2
:103CF00021F09091C5059F3F59F4E5E2F2E08EE690
:103D000080839FE69183828385E683831482EEC05D
:103D10009FE5909326028B3021F488E4809325025E
:103D200020C0853058F4982F96959D5B909325027E
:103D300080FF17C083E28093260213C0282F30E053
:103D400025503109359527952A5B2093250280FD62
:103D500003C083E280932602283419F481E480931F
:103D600025028091C505811104C08DE6809327024C
:103D70000BC08C3030F481500E946736809327024C
:103D800003C08DE28093270210922802AFC0C5E2E3
:103D9000D2E08DE4888304EC15E0F80180810E9474
:103DA0006736898382E48A83F80181810E946736BD
:103DB0008B83F80182810E9467368C831D8296C0B6
:103DC00004EC15E0F80180810E946736C5E2D2E07C
:103DD0008883F80181810E9467368983F801828196
:103DE0000E9467368A831B8281C08091C40583301C
:103DF00038F4E5E2F2E093E3981B9083118276C0F9
:103E0000833031F4E5E2F2E080E5808311826EC018
:103E1000E5E2F2E08DE28083118268C08091C40502
:103E2000E5E2F2E0805D8083118260C08091C4058C
:103E3000811109C0E5E2F2E081E4808385E78183B6
:103E400083E7828308C0E5E2F2E085E4808389E6C7
:103E500081838EE682831092280248C0C12FD0E071
:103E6000FE01EC53FA4F80810E946736CB5DDD4F37
:103E700088831F5F01C010E0183080F337C0822FA5
:103E800090E0FC01EC53FA4F3081311102C03FE663
:103E900001C039E4FC01EB5DFD4F30832F5F01C0B1
:103EA00020E0283060F322C0A4ECB5E08C91E5E27C
:103EB000F2E0805D808311968C91805C8183128218
:103EC00015C0E4ECF5E090818181292F282B31F495
:103ED000E5E2F2E08DE28083818306C0E5E2F2E074
:103EE000905D9083805D818310922702DF91CF9156
:103EF0001F910F9108950F931F93CF938EE10E940E
:103F00007A12C0E005E212E00BC0F801808188233C
:103F100019F00F5F1F4F01C080E20E94A412CF5F13
:103F2000CA3098F3CF911F910F9108958A301CF4F5
:103F300088231CF0089580E0089589E008950F9388
:103F40001F93CF93DF93C82FE091A905F091AA05A5
:103F500031968491282F2071E09175058E2F90E085
:103F6000FC013297ED30F10508F093C18827E45742
:103F7000FF4F8F4F0C949339D0E0CC53DA4F8881A8
:103F8000680F6F70688385C121111BC0613041F4D7
:103F90008091C405803120F081E08093C40579C10F
:103FA0006F3F49F48091C40582508F3020F080E14A
:103FB0008093C4056EC1E4ECF5E08081680F6083F6
:103FC00068C1613041F48091C405803121F48FEFE4
:103FD0008093C4055EC1613041F48091C4058F3F78
:103FE00021F481E08093C40554C16F3F41F4809176
:103FF000C4058F3F21F480E18093C4054AC16F3F1F
:1040000041F48091C405813021F48FEF8093C40581
:1040100040C1E4ECF5E08081680F60833AC1809193
:10402000C5058F3F09F4C1E0C11116C08091C405D8
:104030008C3050F48B3011F4613041F0811102C0AA
:104040006F3F31F0680F05C060E003C060E001C061
:104050006BE06093C4052BC021110AC0811102C01E
:104060006F3FC1F08A3011F46130B1F0680F1DC0AC
:10407000811102C06F3F91F08A3011F4613081F0FC
:104080008F3F11F4613071F08F3F11F46F3F61F099
:10409000680F0BC06AE009C060E007C06FEF05C0A1
:1040A0006FEF03C060E001C06AE06093C5059091C6
:1040B000C4059F3F09F4EDC08091C5058F3F09F409
:1040C000E8C0282F220F820F282F220F220F920FD5
:1040D0000AF0DFC0E4ECF5E087E080838AE08183CA
:1040E000D8C0C11107C0E4ECF5E08081680F6770AB
:1040F0006083CFC0D0E004EC15E0CC53DA4F888168
:10410000860F14DF8883F80181819281880F282F20
:10411000220F220F820F890F80322CF083E08183DF
:1041200081E08283B6C088230CF0B3C0E4ECF5E0F4
:1041300011821282AEC0D0E004EC15E0CC53DA4F0D
:104140008881860FF3DE8883F8012081818190E0E9
:10415000AC01440F551F880F991F880F991F880FB6
:10416000991F840F951FF4E62F9F800D911D112438
:10417000F8012281820F911D8F3F910509F00CF407
:1041800088C082E0808385E08183828382C022238D
:10419000A1F0D0E0FE01EC53FA4F8081680F6083FC
:1041A000643019F48FEF808374C06E3F09F071C0E2
:1041B000CC53DA4F83E088836CC0D0E0FE01EC532F
:1041C000FA4F8081811105C06F3F19F483E080832D
:1041D00060C0833031F4613021F4CC53DA4F18825F
:1041E00058C0CC53DA4F680F688353C0D0E0CC532B
:1041F000DA4F8881680F637068834BC0E4ECF5E0A8
:1042000080818095808345C0D0E081E061FD80E0C1
:10421000CC53DA4F88833DC0613041F4D0E0CC53B9
:10422000DA4F888187708F5F888333C0EC2FF0E08E
:10423000EC53FA4F8081825087708F5F808329C052
:10424000E4ECF5E090818181990F292F220F220F54
:10425000920F890FC11107C0660F962F990F990F02
:10426000690F680F01C0680F66231CF061341CF4ED
:1042700003C060E001C060E01092C40506C0E4EC39
:10428000F5E080818F5F80836A506A30C4F7609365
:10429000C505DF91CF911F910F910895E0917505AC
:1042A0008E2F90E0FC013297ED30F10508F0DAC076
:1042B0008827E756FF4F8F4F0C949339E4ECF5E0D5
:1042C000808120E1829FC001112491819F70892B00
:1042D0008093B90508959091C4058FEF890F8031BF
:1042E00018F09093B90508958093B90508959091B9
:1042F000C4059F3F21F08091C5058F3F21F48FEFCA
:104300008093B9050895282F220F820F880F880FF8
:10431000890F8093B9050895E4ECF5E0808130E2DF
:10432000839FC001112421813281220F422F440F2B
:10433000440F240F230F203220F08F618093B905A2
:104340000895822B8093B9050895E4ECF5E020816F
:10435000818190E0AC01440F551F880F991F880F91
:10436000991F880F991F840F951F34E6239F800D96
:10437000911D11242281820F911D8F3F910529F0FB
:1043800020F08FEF8093B90508958093B9050895C3
:104390008091C4058093B905843008F463C08FEF21
:1043A0008093B90508958091C40583708093B90501
:1043B00008958091C4058093B90508951092B905B8
:1043C00080E00CC09091B905990FE82FF0E0EC5314
:1043D000FA4F2081920F9093B9058F5F883090F348
:1043E00008951092A2051092A3051092A4051092B0
:1043F000A505A2EAB5E088E010C08250F0E0EC53D9
:10440000FA4F9081E82FF0E0EC53FA4F208130E131
:10441000239F900D11249C931196EFEFE80F8111CB
:10442000ECCF0895E4ECF5E020819181892F90E0B4
:104430000197880F991F880F991F880F991F9FEF69
:10444000920F892B8093B9050895E4ECF5E0808103
:104450009181880F282F220F220F820F890F815000
:104460008093B90508950F931F93CF93DF938C0129
:10447000D62FC0E00CC0F8018491882319F00F5F9B
:104480001F4F02C08D2FD0E20E94A412CF5FCA300E
:1044900090F3DF91CF911F910F91089580E40E94D6
:1044A0007A12E0916805E11107C06AE380919C05EA
:1044B00090919D05D8CF0895F0E03197EE0FFF1F42
:1044C000E558FA4F808191816AE30296CCCF089536
:1044D000E091A905F091AA0584918F7390E002976D
:1044E0001CF0C8DABADB07CD0895E0917905F091A8
:1044F0007A0580917605E80FF11D31968491825EF0
:104500000E947A122091760530E0E0917905F091D1
:104510007A05849190E001972817390714F468DA36
:1045200003C083E00E941C3980917605882311F036
:1045300059DA03C082E00E941C3978DA89DA0C94D7
:104540003039089584E10C947A1208950F931F93E3
:10455000CF93F8DF8AEC93E00E94EC128091F5177C
:104560009091F6170E9419388DE20E94A412809152
:10457000F5179091F617049730F48091F517909104
:10458000F617C82F01C0C4E00091611510E0025C6D
:104590001B4E13C084E10F33180710F0F80102C05E
:1045A000EEE5F4E18F010150110980810E949E36F1
:1045B000C15019F080E20E94A412C111EBCF80E03B
:1045C000CF911F910F9108950F931F93CF93BADF4F
:1045D00085EC93E00E94EC1280916C1590916D1522
:1045E0000E9419388DE20E94A41280916C1590915E
:1045F0006D15049730F480916C1590916D15C82F4E
:1046000001C0C4E00091ED1310E0025A1B4E13C02C
:1046100084E10F35180710F0F80102C0EEE5F5E16E
:104620008F010150110980810E949E36C15019F0FE
:1046300080E20E94A412C111EBCF80E0CF911F91C4
:104640000F9108950F931F93CF938F3FA9F40E946A
:104650000713815080930B0210920A026BEB71E1F9
:1046600080E00E94E13865EB71E181E00E94E13871
:104670000E943039CFEF2FC0843049F480910B0273
:10468000882321F1815080930B02CFEF24C0813029
:1046900091F400910B0210E00F5F1F4F0E9407136F
:1046A00090E008171907A4F480910B028F5F8093A4
:1046B0000B02CFEF10C0833011F0853059F4809198
:1046C0000A02809580930A02CFEF05C0CFEF03C0A6
:1046D000CFEF01C0C0E0CF3F09F054C033DF0E94EC
:1046E0000713811106C085E793E00E94EC12C0E039
:1046F0001DC080910B028F5F0E94DA368AE30E9410
:10470000A41280910A02811108C060E280910B021C
:104710000E94A8140E94DC1206C080910B020E9425
:104720004E130E94EC120E94A1380CDF61E08091D0
:104730000A028F3F09F060E081E00E944F3900914A
:104740000B0210E00F5F1F4F0E94071390E0081745
:10475000190734F465ED71E183E00E94E13803C08C
:1047600083E00E941C3980910B02882331F063EDB5
:1047700071E182E00E94E13803C082E00E941C39AE
:104780000E9430398C2FCF911F910F9108958AE4A8
:104790000C947A120895D6DE8AE00C949538089528
:1047A0008EE10E947A128AE00C949538089580E494
:1047B0000E947A128AE00E949538E9DF8AE00C9420
:1047C00095380895F4DFECDFE6CF0895E091A90570
:1047D000F091AA0584918F73813011F40FC9089567
:1047E0003E960590F491E02D309759F0893039F4D8
:1047F0008081811102C008C908950CC90895FEC8BE
:10480000089581E00C941C390895CF9389E40E94A7
:104810007A12E091A905F091AA05C491C07CC03834
:1048200039F480E20E94A41282E00E941C3904C084
:104830008FE70E94A412D6D8C03C29F483E00E94DE
:104840001C39C0E202C0D4D8CEE7EAD8BFDF8091DD
:10485000A9059091AA056C2F029605DE0E943039B9
:1048600096DFCF9108958FEF80933D028091A90547
:104870009091AA05FC012491622F6F73623008F4B5
:1048800049C09C01225F3F4FF90145915591411567
:10489000510509F43FC0E62FF0E031979F01220F48
:1048A000331F220F331F220F331FE20FF31FE85273
:1048B000FC4FF0937A05E093790524912093A005AD
:1048C000FC0125912F7320937505249122232CF44C
:1048D0002091B1053091B20502C020E030E0240FF4
:1048E000351FFC0184918F738B3071F4F901808145
:1048F0009181A281B3818093A2059093A305A09397
:10490000A405B093A50504C0F90180818093B90581
:10491000DFDD07C045DF88ED93E090937A05809353
:10492000790554DF34CF089536DF9DDFB7DD6DDFC5
:104930000C94B8380895CF93C82F0E94B838E091EE
:10494000A905F091AA0584918F73813029F0809197
:1049500076058F3F09F068C13196849186FF02C0C9
:104960001ADF15DF6091A9057091AA05CB010196A8
:10497000FC018491982F907285FF1FC09B01205FDE
:104980003F4FF9012591359121153105B1F0409145
:1049900076054F3F91F08C2FF90119958F3F21F447
:1049A0001092760580E004C2F6DEFADEF0DE8FEFCC
:1049B000809376052ADF80E0FBC1C33009F464C030
:1049C00028F4C13051F0C23031F1DBC1C53009F4F7
:1049D0005BC090F0C630F9F0D4C1FB018491807CBB
:1049E000803C09F4D0C17496F093AA05E093A90520
:1049F0003ADF0BDF80E0DCC1FB018491807C8038F2
:104A000009F4C3C17497F093AA05E093A9052BDFBD
:104A1000FCDE80E0CDC184FF04C01092CE05109270
:104A2000CD05E0916805EE23E9F0E150E0936805DB
:104A3000F0E0EE0FFF1FE558FA4F0190F081E02DF6
:104A4000F093AA05E093A90572960590F491E02DE4
:104A5000309711F080E019959EDE20DDD6DE03DF71
:104A600080E0A6C180E00E941C3981E00E941C39D0
:104A700082E00E941C3983E00E941C390E94303978
:104A80000E94BF388FEF94C1FB0124912F7330E057
:104A9000223031050CF448C070960590F491E02D59
:104AA000309719F08C2F1995DEDE2091A9053091F1
:104AB000AA05C9010196FC01849183FD68C1C90161
:104AC0000E96FC0185919591892B09F462C1F9013B
:104AD00084918F73893019F561E080E030DADEDB94
:104AE000E091A905F091AA053E960590F491E02D7C
:104AF0008091B9058083ECDC69DE0E94303947DEA5
:104B0000E091A905F091AA0572960590F491E02D27
:104B1000309709F440C180E0199580E049C11092B6
:104B20007605E3DC80E044C12FEF2093760584FF17
:104B300026C07093CE056093CD05E0916805EE2305
:104B400009F42BC1E150E0936805F0E0EE0FFF1F80
:104B5000E558FA4F0190F081E02DF093AA05E0931B
:104B6000A90572960590F491E02D309711F080E040
:104B7000199511DE93DC49DE76DE80E019C1FB0178
:104B800070960590F491E02D309799F0992371F08B
:104B90008FEF19958F3F19F4109276050AC0FBDD4F
:104BA000FFDDF5DD8FEF8093760503C085E0199575
:104BB000EEDD2091A9053091AA05C9010C96FC01F2
:104BC00085919591892B09F4EAC0A0916805A031DF
:104BD00008F0E7C081E08A0F80936805B0E0AA0F73
:104BE000BB1FA558BA4F2D933C93C9010196FC01F8
:104BF000849183FF0BC08091CD059091CE050097E5
:104C000029F09093AA058093A90508C0F9013C9664
:104C1000859195919093AA058093A905BCDD3EDC12
:104C2000F4DD21DE80E0C4C0C33009F449C028F4BB
:104C3000C13059F0C23031F1B6C0C53009F45EC0A0
:104C4000C0F0C63009F48AC0AEC0482F50E0E091F1
:104C50007905F0917A05249130E02150310942170D
:104C600053070CF0A2C08F5F809376053EDC80E096
:104C70009FC0882309F49BC081508093760535DC62
:104C800080E096C061E05BD909DB22DC809175058C
:104C90008A3011F08E3089F420917605422F50E051
:104CA000E0917905F0917A05849190E00197481799
:104CB00059071CF42F5F2093760517DC80E078C03D
:104CC0006FEF3DD9EBDA04DC809175058A3011F085
:104CD0008E3089F420917605422F50E0E0917905DD
:104CE000F0917A05849190E00197481759071CF4D8
:104CF0002F5F20937605F9DB80E05AC0CFDA209150
:104D0000A9053091AA05C9010E96FC01A591B5919E
:104D1000109721F10D97FC01849188232CF4809148
:104D2000B1059091B20502C080E090E0A80FB91FD4
:104D3000F90184918F738B3071F44091A2055091E9
:104D4000A3056091A4057091A5054D935D936D93A6
:104D50007C93139703C08091B9058C93E091A905CA
:104D6000F091AA0572960590F491E02D309711F01C
:104D70008C2F19958FEF8093760547DD74DD80E0E9
:104D800017C080E015C080E013C080E011C080E053
:104D90000FC080E00DC080E00BC080E009C080E063
:104DA00007C080E005C080E003C080E001C080E073
:104DB000CF9108950F931F93CF93DF93EC01009150
:104DC000A803E091A905F091AA0584918F73813021
:104DD00091F4CE010E94723924E130E0A901481B10
:104DE0005109CA01959587958C5E0E947A1283E0DD
:104DF00080939E0505C084E10E947A1210929E0560
:104E00001091A803CE010E94EC12802F0E947A120A
:104E10009FB7F89481E006C0EFE2F2E084E686876F
:104E2000178680E08111F8CF9FBF812FDF91CF914E
:104E30001F910F91089584E993E0BCDF0E94B53281
:104E4000A6DC80E008958091A6058F3F11F08D3F8C
:104E500071F50E94BF38A4DC1092F30790E0E9E4FA
:104E6000F2E007C021818091C205822B81833896B0
:104E70009F5F9032B8F38091A6058F3F19F410928E
:104E8000A6055BC08EE893E095DF8EEF8093A605C4
:104E90009FB7F89481E006C0EFE2F2E082E08487F9
:104EA000858780E08111F8CF9FBF71DC46C08E3FBF
:104EB00041F48FEF8093F3071092C2050E94B83837
:104EC0003CC04091690550916A0560916B057091F5
:104ED0006C0576956795579547954093690550936E
:104EE0006A0560936B0570936C05E82FF0E0DF01B5
:104EF000AA0FBB1FAA0FBB1FAA0FBB1FA75BBD4FEB
:104F000016962C919091C205292349F4706840931C
:104F1000690550936A0560936B0570936C05EE0FFD
:104F2000FF1FEE0FFF1FEE0FFF1FE75BFD4F2181FD
:104F3000922B91838F5F8093A605E091A605E032C6
:104F400028F5F0E0EE0FFF1FEE0FFF1FEE0FFF1F23
:104F5000E75BFD4F8091C205982F90958181892351
:104F600081838EE10E947A128091A6050E94DA3632
:104F70009FB7F89481E006C0EFE2F2E088E0848712
:104F8000158680E08111F8CF9FBF0895E03281F54A
:104F90008091690590916A05A0916B05B0916C05AF
:104FA0000097A105B10521F48AE893E003DF0FC063
:104FB0008093F9179093FA17A093FB17B093FC17FF
:104FC00087E893E0F7DE0E947A120E94B5368EEFF2
:104FD0008093A6059FB7F89481E006C0EFE2F2E067
:104FE00082E08487858780E08111F8CF9FBFCFCB97
:104FF000089581E090E00090780502C0880F991F25
:105000000A94E2F78093C2058FEF8093A605109271
:10501000690510926A0510926B0510926C0513DFFA
:1050200080E008958AE893E0C5CE08958EE10E945D
:105030007A128DE693E00E94EC120E94DE0CF2DF01
:1050400080E008958EE10E947A128DE693E00E943E
:10505000EC120E94EA0CE6DF80E008958DE693E012
:10506000A9DE8EE10E947A120E94AB0CDBDF80E0A9
:105070000895CF93C091A80380E40E947A1284E13E
:105080000E9495388C2F0E947A12CF9108958091BA
:105090009E05833019F47FDB83CB0895811102C014
:1050A0007ACB0895813011F47BCB0895E2CF089537
:1050B0000F931F93CF93DF93EC011091A8030E94ED
:1050C0007239082F80E40E947A1284E190E0801BFC
:1050D0009109959587950E949538CE010E94EC1212
:1050E0009091A80384E5891B0E949538812F0E9426
:1050F0007A129FB7F89481E006C0EFE2F2E084E60E
:105100008687178680E08111F8CF9FBF82E0809369
:105110009E05DF91CF911F910F9108950F931F93DB
:10512000CF93DF93EC011091A8030E947C39082FE4
:1051300080E40E947A1284E190E0801B91099595A9
:1051400087950E949538CE010E94DC129091A803A9
:1051500084E5891B0E949538812F0E947A129FB79F
:10516000F89481E006C0EFE2F2E084E686871786D5
:1051700080E08111F8CF9FBF82E080939E05DF9190
:10518000CF911F910F9108956DEF77E10E94103735
:10519000BC0182EB93E00E9403388DEF97E1BECF14
:1051A00008950F931F93CF936DEF77E10E9410370F
:1051B000BC0185EA93E00E9403388C010E94B60E80
:1051C00084E0C0D3C82F882349F0B80183EA93E074
:1051D0000E940338BC018C2F0E9410378DEF97E19D
:1051E0009DDFCF911F910F910895CF93C62F8823F4
:1051F0002CF46FEF8C2FA7D4C7DF05C0882319F0DC
:10520000862F05D4CEDF8C2F0ED5882331F08C2F3E
:10521000CFD4811104C081E803C082E801C082E8D4
:10522000CF91089560E0E1CF089561E0DECF089569
:1052300062E0DBCF089563E0D8CF089520E034E04A
:105240008F35930749F034E08F35930738F0449752
:105250002F5FA9F780E00895822F089580E00895D8
:10526000CF930E942C0B8F3FC9F40FC0822F90E088
:10527000FC01ED54FA4F1082880F991FFC01E6548F
:10528000FA4F118210822F5F01C020E0243070F3AA
:1052900040E050E067E081E00E94A214C0E025C039
:1052A0004C2F50E0FA01ED54FA4F8081863170F4B2
:1052B00024E1829FC0011124815A9B4F440F551F46
:1052C000FA01E654FA4F918380830EC0FA01EE0F83
:1052D000FF1FE654FA4F118210824F5F5F4F40610B
:1052E00067E081E00E94A214CF5FC430C8F2CF9182
:1052F0000895CF93DF93643028F50097B9F0FC014F
:1053000024912F73213091F43196249124FF0EC003
:10531000C62FD0E0FE01EE0FFF1FE654FA4F918337
:1053200080838CDFCD54DA4F88830CC070E0FB01A2
:10533000EE0FFF1FE654FA4F11821082FB01ED546D
:10534000FA4F1082DF91CF910895E091A905F09175
:10535000AA053E96659175918091CD059091CE05F7
:10536000C8DF0E94890C80E008950F931F93CF93AC
:10537000C0E032C00C2F10E0F801EE0FFF1FE65422
:10538000FA4F0190F081E02D309731F03E96659113
:1053900075916115710521F48C2F0E941C391BC079
:1053A0008C2F0E94E138000F111FF801E654FA4FCC
:1053B0000190F081E02D70960590F491E02D3097EA
:1053C00051F080E01995813811F46FEF01C060E071
:1053D0008C2F0E944F39CF5FC43060F20E94303969
:1053E000CF911F910F910895823049F018F48130C8
:1053F00051F00BC0833059F0843019F006C080E0C2
:10540000089582E0089583E008958FEF089581E084
:1054100008950F931F93CF938430D0F5E82FF0E0D9
:10542000EE0FFF1FE654FA4F00811181011511059F
:1054300089F1F80194919F73913071F531969491AF
:1054400094FF2CC0C82F3F960590F491E02D309723
:1054500089F0862F1995823829F460E08C2F0E94FC
:105460004F3906C0813821F46FEF8C2F0E944F39DD
:105470000E943039F8013C9685919591009781F012
:10548000B8016E5F7F4F0E94CF1C4EDA80E009C0EA
:105490008FEF07C08FEF05C08FEF03C08FEF01C004
:1054A0008FEFCF911F910F910895CF93C091A803D3
:1054B0008CE00E947A128091450284FF02C080E253
:1054C00001C089E00E94A4128C2F0E947A12CF9111
:1054D000089585B1806485B983E180934502E5DF55
:1054E00080E0089585B18F7B85B910924502DDDF9C
:1054F00080E0089585B18F7B85B981E08093450276
:10550000D4DF9FB7F89481E006C0EFE2F2E088E2D2
:105510008283138280E08111F8CF9FBF089510929B
:10552000D2071092CF051092D10708959091D2071B
:10553000E92FF0E0ED52F84F80839F5F9F718091DB
:10554000CF05981304C08FEF8093D10708959093EF
:10555000D20708954FB7F89421E011C09091CF057C
:105560003091D2078FEF20E0931749F0E92FF0E058
:10557000ED52F84F80819F5F9F719093CF0521116D
:10558000EDCF4FBF08954FB7F89491E008C0309128
:10559000CF052091D20790E080E0321711F08FEF15
:1055A00001C090E09111F3CF4FBF0895AC019091ED
:1055B000F3079923E1F09091D00721E0290F209380
:1055C000D007E92FF0E0EE0FFF1FE053FA4F5183B1
:1055D00040838091F50728130AC09093D0079F3F1E
:1055E00019F48FEF8093D0078FEF8093F40708951D
:1055F000E091F5078091D007E81303C08FEF9FEF8C
:10560000089581E08E0F8093F507F0E0EE0FFF1F05
:10561000E053FA4F8081918108959091F507809130
:10562000D007981302C080E008958FEF089580E0BE
:10563000EFE0F8E003C010828F5F31968C30D8F332
:105640000895F5CF08958C30E8F4E82FF0E0E15F9D
:10565000F74F9FEF9083863010F0865001C08A5F2D
:10566000E82FF0E0DF01A15FB74F8C91882359F05C
:10567000DF01A15FB74F1C92EE0FFF1FE756FE4EF2
:105680008491089580E0089580E090E04BE001C0AF
:10569000422F282F392F220F331F822F932FE42FD1
:1056A000F0E0E15FF74F50815F3F09F481602FEF39
:1056B000240F4111EDCF089540E080FF07C0E42F93
:1056C000F0E0E15FF74F2FEF208305C0E42FF0E01B
:1056D000E15FF74F1082282F392F36952795822FBB
:1056E000932F4F5F4C3048F3089580E88093460233
:1056F0000C94470D089520E030E012C0822F90E016
:10570000FC01EE0FFF1F8E0F9F1FFC01EA50F84FA8
:1057100081818F3F21F0831710F031E0380F2F5F28
:10572000283060F330930E0808958FEF809331098D
:1057300020E00EC0822F90E0FC01EE0FFF1FE80F6B
:10574000F91FEA50F84F8FEF8083818312822F5F19
:10575000283080F30E94D00A8F3F49F410920E083F
:1057600040E050E065E081E00E94A21401C0C3DF88
:105770000E94040B8F3FA1F52AC0832F90E0FC010B
:10578000EE0FFF1F880F991F880F991F880F991F11
:10579000E80FF91FEE59F64FE20FF11D10822F5F4F
:1057A00001C020E0283048F3832F90E0FC01EE0F89
:1057B000FF1F880F991F880F991F880F991FE80FE7
:1057C000F91FEE59F64F118610863F5F01C030E099
:1057D000303438F340E050E066E081E00C94A214ED
:1057E000089590910E088917A0F4803490F428E071
:1057F000E6EFF7E03081831748F09181981730F099
:105800002281982F931B80E0920F089533962150A8
:1058100089F78FEF90E0089590E016C04091F80767
:10582000841788F0682F70E0E6EFF7E0218130E020
:10583000240F311D5081251B3109261737071CF015
:10584000841B850F08959F5F983040F38FEF089574
:10585000CF9390910E08891708F03CC0C62FC1DF86
:10586000811130C0292F2F7192959695977041E044
:1058700050E002C0440F551F9A95E2F730E0F9015D
:10588000EE0FFF1FEE0FFF1FEE0FFF1FE75BFD4F39
:105890009181942311F4C1FD17C0220F331F220FF1
:1058A000331F220F331FF901E75BFD4F268142238F
:1058B00011F0C0FD0BC0992371F0442361F0C43096
:1058C00051F406C080E007C081E005C081E003C05C
:1058D00081E001C080E0CF91089590910E08891772
:1058E00078F57FDF811128C0292F2F71392F32954C
:1058F0003695377081E090E002C0880F991F3A9585
:10590000E2F730E0F901EE0FFF1FEE0FFF1FEE0F81
:10591000FF1FE75BFD4F4181482381F0220F331FBA
:10592000220F331F220F331FF901E75BFD4F9681D2
:10593000892339F081E0089580E0089582E0089598
:1059400080E008951F93CF93DF93182FC0E0D0E03D
:1059500006C0612F8C2F7CDF8111DF5FCF5FC034E9
:10596000C0F38D2FDF91CF911F910895EF92FF9299
:105970000F931F93CF93DF937C01C0E0D0E000E052
:1059800017C01C2F177009F4D0E0D69563E08C2F58
:105990005FDF882311F0D0680F5F173041F4E11406
:1059A000F10429F0F701D083C70101967C01CF5F94
:1059B000C03438F3802FDF91CF911F910F91FF906A
:1059C000EF900895CF9390910E088917F0F4C62FA9
:1059D00008DF81111AC0892F8F7192959695977063
:1059E000C0FF0AC061E070E002C0660F771F9A95A1
:1059F000E2F70E94791109C061E070E002C0660F11
:105A0000771F9A95E2F70E948811CF910895BF926F
:105A1000CF92DF92EF92FF920F931F93CF93DF937A
:105A2000803408F040C0E82EF12CF701EE0FFF1F84
:105A3000C701880F991F880F991F880F991FE80FBA
:105A4000F91FEE59F64FB12C10E000E018C06F01BD
:105A50008FEFC81AD80AC081D0E00DC08C2F81709A
:105A6000C0FD0F5F61E0811101C060E0812FAADFFE
:105A7000C6951F5FDF5FD83088F3B394F60187E0E7
:105A80008B1528F7F701EE0FFF1FEE0CFF1CEE0C35
:105A9000FF1CEE0CFF1CEE0DFF1DEE59F64F80852E
:105AA00091850ADE01C000E0802FDF91CF911F9128
:105AB0000F91FF90EF90DF90CF90BF900895CF931C
:105AC000DF93C82FD62F80913009811114C01FC0D9
:105AD000EC2FF0E0EE0FFF1FEE0FFF1FE80FF11DA0
